{"abi":[{"type":"constructor","inputs":[],"stateMutability":"nonpayable"},{"type":"function","name":"exactInputSingle","inputs":[{"name":"params","type":"tuple","internalType":"struct MockDex.ExactInputSingleParams","components":[{"name":"tokenIn","type":"address","internalType":"address"},{"name":"tokenOut","type":"address","internalType":"address"},{"name":"fee","type":"uint24","internalType":"uint24"},{"name":"recipient","type":"address","internalType":"address"},{"name":"deadline","type":"uint256","internalType":"uint256"},{"name":"amountIn","type":"uint256","internalType":"uint256"},{"name":"amountOutMinimum","type":"uint256","internalType":"uint256"},{"name":"sqrtPriceLimitX96","type":"uint160","internalType":"uint160"}]}],"outputs":[{"name":"amountOut","type":"uint256","internalType":"uint256"}],"stateMutability":"payable"},{"type":"function","name":"factory","inputs":[],"outputs":[{"name":"","type":"address","internalType":"address"}],"stateMutability":"view"},{"type":"function","name":"owner","inputs":[],"outputs":[{"name":"","type":"address","internalType":"address"}],"stateMutability":"view"},{"type":"function","name":"renounceOwnership","inputs":[],"outputs":[],"stateMutability":"nonpayable"},{"type":"function","name":"setFactory","inputs":[{"name":"_factory","type":"address","internalType":"address"}],"outputs":[],"stateMutability":"nonpayable"},{"type":"function","name":"tokenCalculator","inputs":[{"name":"_tokenIn","type":"address","internalType":"address"},{"name":"_tokenOut","type":"address","internalType":"address"},{"name":"_amountIn","type":"uint256","internalType":"uint256"}],"outputs":[{"name":"","type":"uint256","internalType":"uint256"}],"stateMutability":"view"},{"type":"function","name":"transferOwnership","inputs":[{"name":"newOwner","type":"address","internalType":"address"}],"outputs":[],"stateMutability":"nonpayable"},{"type":"event","name":"ExactInputSingle","inputs":[{"name":"tokenIn","type":"address","indexed":true,"internalType":"address"},{"name":"tokenOut","type":"address","indexed":true,"internalType":"address"},{"name":"amountIn","type":"uint256","indexed":false,"internalType":"uint256"},{"name":"amountOut","type":"uint256","indexed":false,"internalType":"uint256"},{"name":"amountOutMinimum","type":"uint256","indexed":false,"internalType":"uint256"}],"anonymous":false},{"type":"event","name":"OwnershipTransferred","inputs":[{"name":"previousOwner","type":"address","indexed":true,"internalType":"address"},{"name":"newOwner","type":"address","indexed":true,"internalType":"address"}],"anonymous":false},{"type":"error","name":"OwnableInvalidOwner","inputs":[{"name":"owner","type":"address","internalType":"address"}]},{"type":"error","name":"OwnableUnauthorizedAccount","inputs":[{"name":"account","type":"address","internalType":"address"}]},{"type":"error","name":"ReentrancyGuardReentrantCall","inputs":[]},{"type":"error","name":"SafeERC20FailedOperation","inputs":[{"name":"token","type":"address","internalType":"address"}]}],"bytecode":{"object":"0x608060405234801561000f575f5ffd5b50335f73ffffffffffffffffffffffffffffffffffffffff168173ffffffffffffffffffffffffffffffffffffffff1603610081575f6040517f1e4fbdf7000000000000000000000000000000000000000000000000000000008152600401610078919061019d565b60405180910390fd5b6100908161009d60201b60201c565b50600180819055506101b6565b5f5f5f9054906101000a900473ffffffffffffffffffffffffffffffffffffffff169050815f5f6101000a81548173ffffffffffffffffffffffffffffffffffffffff021916908373ffffffffffffffffffffffffffffffffffffffff1602179055508173ffffffffffffffffffffffffffffffffffffffff168173ffffffffffffffffffffffffffffffffffffffff167f8be0079c531659141344cd1fd0a4f28419497f9722a3daafe3b4186f6b6457e060405160405180910390a35050565b5f73ffffffffffffffffffffffffffffffffffffffff82169050919050565b5f6101878261015e565b9050919050565b6101978161017d565b82525050565b5f6020820190506101b05f83018461018e565b92915050565b61116c806101c35f395ff3fe60806040526004361061006f575f3560e01c8063764014081161004d57806376401408146100e15780638da5cb5b1461011d578063c45a015514610147578063f2fde38b146101715761006f565b8063414bf389146100735780635bb47808146100a3578063715018a6146100cb575b5f5ffd5b61008d60048036038101906100889190610c00565b610199565b60405161009a9190610c3b565b60405180910390f35b3480156100ae575f5ffd5b506100c960048036038101906100c49190610c54565b61034e565b005b3480156100d6575f5ffd5b506100df610399565b005b3480156100ec575f5ffd5b5061010760048036038101906101029190610c7f565b6103ac565b6040516101149190610c3b565b60405180910390f35b348015610128575f5ffd5b50610131610502565b60405161013e9190610cde565b60405180910390f35b348015610152575f5ffd5b5061015b610529565b6040516101689190610cde565b60405180910390f35b34801561017c575f5ffd5b5061019760048036038101906101929190610c54565b61054e565b005b5f6101a26105d2565b6101d633308460a00151855f015173ffffffffffffffffffffffffffffffffffffffff16610618909392919063ffffffff16565b6101ec825f015183602001518460a001516103ac565b9050815f015173ffffffffffffffffffffffffffffffffffffffff16639dc29fac308460a001516040518363ffffffff1660e01b8152600401610230929190610cf7565b5f604051808303815f87803b158015610247575f5ffd5b505af1158015610259573d5f5f3e3d5ffd5b50505050816020015173ffffffffffffffffffffffffffffffffffffffff166340c10f1933836040518363ffffffff1660e01b815260040161029c929190610cf7565b5f604051808303815f87803b1580156102b3575f5ffd5b505af11580156102c5573d5f5f3e3d5ffd5b50505050816020015173ffffffffffffffffffffffffffffffffffffffff16825f015173ffffffffffffffffffffffffffffffffffffffff167f6d3106fb9a4770f8ce677e36534356fbd0ac0691d706c35ab5f56db8a41331378460a00151848660c0015160405161033993929190610d1e565b60405180910390a361034961069a565b919050565b6103566106a3565b8060025f6101000a81548173ffffffffffffffffffffffffffffffffffffffff021916908373ffffffffffffffffffffffffffffffffffffffff16021790555050565b6103a16106a3565b6103aa5f61072a565b565b5f5f8473ffffffffffffffffffffffffffffffffffffffff1663313ce5676040518163ffffffff1660e01b8152600401602060405180830381865afa1580156103f7573d5f5f3e3d5ffd5b505050506040513d601f19601f8201168201806040525081019061041b9190610d89565b60ff1690505f8473ffffffffffffffffffffffffffffffffffffffff1663313ce5676040518163ffffffff1660e01b8152600401602060405180830381865afa15801561046a573d5f5f3e3d5ffd5b505050506040513d601f19601f8201168201806040525081019061048e9190610d89565b60ff1690505f61049d876107eb565b90505f6104a9876107eb565b90505f84600a6104b99190610f10565b8285600a6104c79190610f10565b856104d29190610f5a565b6104dc9190610fc8565b886104e79190610f5a565b6104f19190610fc8565b905080955050505050509392505050565b5f5f5f9054906101000a900473ffffffffffffffffffffffffffffffffffffffff16905090565b60025f9054906101000a900473ffffffffffffffffffffffffffffffffffffffff1681565b6105566106a3565b5f73ffffffffffffffffffffffffffffffffffffffff168173ffffffffffffffffffffffffffffffffffffffff16036105c6575f6040517f1e4fbdf70000000000000000000000000000000000000000000000000000000081526004016105bd9190610cde565b60405180910390fd5b6105cf8161072a565b50565b60026001540361060e576040517f3ee5aeb500000000000000000000000000000000000000000000000000000000815260040160405180910390fd5b6002600181905550565b610694848573ffffffffffffffffffffffffffffffffffffffff166323b872dd86868660405160240161064d93929190610ff8565b604051602081830303815290604052915060e01b6020820180517bffffffffffffffffffffffffffffffffffffffffffffffffffffffff838183161783525050505061087b565b50505050565b60018081905550565b6106ab610916565b73ffffffffffffffffffffffffffffffffffffffff166106c9610502565b73ffffffffffffffffffffffffffffffffffffffff1614610728576106ec610916565b6040517f118cdaa700000000000000000000000000000000000000000000000000000000815260040161071f9190610cde565b60405180910390fd5b565b5f5f5f9054906101000a900473ffffffffffffffffffffffffffffffffffffffff169050815f5f6101000a81548173ffffffffffffffffffffffffffffffffffffffff021916908373ffffffffffffffffffffffffffffffffffffffff1602179055508173ffffffffffffffffffffffffffffffffffffffff168173ffffffffffffffffffffffffffffffffffffffff167f8be0079c531659141344cd1fd0a4f28419497f9722a3daafe3b4186f6b6457e060405160405180910390a35050565b5f5f6107f561091d565b73ffffffffffffffffffffffffffffffffffffffff1663a13cc76a846040518263ffffffff1660e01b815260040161082d9190610cde565b60a060405180830381865afa158015610848573d5f5f3e3d5ffd5b505050506040513d601f19601f8201168201806040525081019061086c9190611080565b50505091505080915050919050565b5f5f60205f8451602086015f885af18061089a576040513d5f823e3d81fd5b3d92505f519150505f82146108b35760018114156108ce565b5f8473ffffffffffffffffffffffffffffffffffffffff163b145b1561091057836040517f5274afe70000000000000000000000000000000000000000000000000000000081526004016109079190610cde565b60405180910390fd5b50505050565b5f33905090565b5f60025f9054906101000a900473ffffffffffffffffffffffffffffffffffffffff1673ffffffffffffffffffffffffffffffffffffffff166375b568a66040518163ffffffff1660e01b8152600401602060405180830381865afa158015610988573d5f5f3e3d5ffd5b505050506040513d601f19601f820116820180604052508101906109ac919061110b565b905090565b5f604051905090565b5f5ffd5b5f5ffd5b5f601f19601f8301169050919050565b7f4e487b71000000000000000000000000000000000000000000000000000000005f52604160045260245ffd5b610a08826109c2565b810181811067ffffffffffffffff82111715610a2757610a266109d2565b5b80604052505050565b5f610a396109b1565b9050610a4582826109ff565b919050565b5f73ffffffffffffffffffffffffffffffffffffffff82169050919050565b5f610a7382610a4a565b9050919050565b610a8381610a69565b8114610a8d575f5ffd5b50565b5f81359050610a9e81610a7a565b92915050565b5f62ffffff82169050919050565b610abb81610aa4565b8114610ac5575f5ffd5b50565b5f81359050610ad681610ab2565b92915050565b5f819050919050565b610aee81610adc565b8114610af8575f5ffd5b50565b5f81359050610b0981610ae5565b92915050565b610b1881610a4a565b8114610b22575f5ffd5b50565b5f81359050610b3381610b0f565b92915050565b5f6101008284031215610b4f57610b4e6109be565b5b610b5a610100610a30565b90505f610b6984828501610a90565b5f830152506020610b7c84828501610a90565b6020830152506040610b9084828501610ac8565b6040830152506060610ba484828501610a90565b6060830152506080610bb884828501610afb565b60808301525060a0610bcc84828501610afb565b60a08301525060c0610be084828501610afb565b60c08301525060e0610bf484828501610b25565b60e08301525092915050565b5f6101008284031215610c1657610c156109ba565b5b5f610c2384828501610b39565b91505092915050565b610c3581610adc565b82525050565b5f602082019050610c4e5f830184610c2c565b92915050565b5f60208284031215610c6957610c686109ba565b5b5f610c7684828501610a90565b91505092915050565b5f5f5f60608486031215610c9657610c956109ba565b5b5f610ca386828701610a90565b9350506020610cb486828701610a90565b9250506040610cc586828701610afb565b9150509250925092565b610cd881610a69565b82525050565b5f602082019050610cf15f830184610ccf565b92915050565b5f604082019050610d0a5f830185610ccf565b610d176020830184610c2c565b9392505050565b5f606082019050610d315f830186610c2c565b610d3e6020830185610c2c565b610d4b6040830184610c2c565b949350505050565b5f60ff82169050919050565b610d6881610d53565b8114610d72575f5ffd5b50565b5f81519050610d8381610d5f565b92915050565b5f60208284031215610d9e57610d9d6109ba565b5b5f610dab84828501610d75565b91505092915050565b7f4e487b71000000000000000000000000000000000000000000000000000000005f52601160045260245ffd5b5f8160011c9050919050565b5f5f8291508390505b6001851115610e3657808604811115610e1257610e11610db4565b5b6001851615610e215780820291505b8081029050610e2f85610de1565b9450610df6565b94509492505050565b5f82610e4e5760019050610f09565b81610e5b575f9050610f09565b8160018114610e715760028114610e7b57610eaa565b6001915050610f09565b60ff841115610e8d57610e8c610db4565b5b8360020a915084821115610ea457610ea3610db4565b5b50610f09565b5060208310610133831016604e8410600b8410161715610edf5782820a905083811115610eda57610ed9610db4565b5b610f09565b610eec8484846001610ded565b92509050818404811115610f0357610f02610db4565b5b81810290505b9392505050565b5f610f1a82610adc565b9150610f2583610adc565b9250610f527fffffffffffffffffffffffffffffffffffffffffffffffffffffffffffffffff8484610e3f565b905092915050565b5f610f6482610adc565b9150610f6f83610adc565b9250828202610f7d81610adc565b91508282048414831517610f9457610f93610db4565b5b5092915050565b7f4e487b71000000000000000000000000000000000000000000000000000000005f52601260045260245ffd5b5f610fd282610adc565b9150610fdd83610adc565b925082610fed57610fec610f9b565b5b828204905092915050565b5f60608201905061100b5f830186610ccf565b6110186020830185610ccf565b6110256040830184610c2c565b949350505050565b5f69ffffffffffffffffffff82169050919050565b61104b8161102d565b8114611055575f5ffd5b50565b5f8151905061106681611042565b92915050565b5f8151905061107a81610ae5565b92915050565b5f5f5f5f5f60a08688031215611099576110986109ba565b5b5f6110a688828901611058565b95505060206110b78882890161106c565b94505060406110c88882890161106c565b93505060606110d98882890161106c565b92505060806110ea88828901611058565b9150509295509295909350565b5f8151905061110581610a7a565b92915050565b5f602082840312156111205761111f6109ba565b5b5f61112d848285016110f7565b9150509291505056fea2646970667358221220ddb6e4c8d0cf136792f7352d8a828bd373ab2bb1b41507fadf7c204dd9b1398564736f6c634300081e0033","linkReferences":{}},"methodIdentifiers":{"exactInputSingle((address,address,uint24,address,uint256,uint256,uint256,uint160))":"414bf389","factory()":"c45a0155","owner()":"8da5cb5b","renounceOwnership()":"715018a6","setFactory(address)":"5bb47808","tokenCalculator(address,address,uint256)":"76401408","transferOwnership(address)":"f2fde38b"},"id":162}