{"abi":[{"type":"constructor","inputs":[{"name":"_token","type":"address","internalType":"address"},{"name":"_elevatedMinterBurner","type":"address","internalType":"address"},{"name":"_lzEndpoint","type":"address","internalType":"address"},{"name":"_owner","type":"address","internalType":"address"}],"stateMutability":"nonpayable"},{"type":"function","name":"SEND","inputs":[],"outputs":[{"name":"","type":"uint16","internalType":"uint16"}],"stateMutability":"view"},{"type":"function","name":"SEND_AND_CALL","inputs":[],"outputs":[{"name":"","type":"uint16","internalType":"uint16"}],"stateMutability":"view"},{"type":"function","name":"SETTLEMENT_CHAIN_ID","inputs":[],"outputs":[{"name":"","type":"uint256","internalType":"uint256"}],"stateMutability":"view"},{"type":"function","name":"allowInitializePath","inputs":[{"name":"origin","type":"tuple","internalType":"struct Origin","components":[{"name":"srcEid","type":"uint32","internalType":"uint32"},{"name":"sender","type":"bytes32","internalType":"bytes32"},{"name":"nonce","type":"uint64","internalType":"uint64"}]}],"outputs":[{"name":"","type":"bool","internalType":"bool"}],"stateMutability":"view"},{"type":"function","name":"approvalRequired","inputs":[],"outputs":[{"name":"","type":"bool","internalType":"bool"}],"stateMutability":"pure"},{"type":"function","name":"combineOptions","inputs":[{"name":"_eid","type":"uint32","internalType":"uint32"},{"name":"_msgType","type":"uint16","internalType":"uint16"},{"name":"_extraOptions","type":"bytes","internalType":"bytes"}],"outputs":[{"name":"","type":"bytes","internalType":"bytes"}],"stateMutability":"view"},{"type":"function","name":"decimalConversionRate","inputs":[],"outputs":[{"name":"","type":"uint256","internalType":"uint256"}],"stateMutability":"view"},{"type":"function","name":"elevatedMinterBurner","inputs":[],"outputs":[{"name":"","type":"address","internalType":"address"}],"stateMutability":"view"},{"type":"function","name":"endpoint","inputs":[],"outputs":[{"name":"","type":"address","internalType":"contract ILayerZeroEndpointV2"}],"stateMutability":"view"},{"type":"function","name":"enforcedOptions","inputs":[{"name":"eid","type":"uint32","internalType":"uint32"},{"name":"msgType","type":"uint16","internalType":"uint16"}],"outputs":[{"name":"enforcedOption","type":"bytes","internalType":"bytes"}],"stateMutability":"view"},{"type":"function","name":"isComposeMsgSender","inputs":[{"name":"","type":"tuple","internalType":"struct Origin","components":[{"name":"srcEid","type":"uint32","internalType":"uint32"},{"name":"sender","type":"bytes32","internalType":"bytes32"},{"name":"nonce","type":"uint64","internalType":"uint64"}]},{"name":"","type":"bytes","internalType":"bytes"},{"name":"_sender","type":"address","internalType":"address"}],"outputs":[{"name":"","type":"bool","internalType":"bool"}],"stateMutability":"view"},{"type":"function","name":"isPeer","inputs":[{"name":"_eid","type":"uint32","internalType":"uint32"},{"name":"_peer","type":"bytes32","internalType":"bytes32"}],"outputs":[{"name":"","type":"bool","internalType":"bool"}],"stateMutability":"view"},{"type":"function","name":"lzReceive","inputs":[{"name":"_origin","type":"tuple","internalType":"struct Origin","components":[{"name":"srcEid","type":"uint32","internalType":"uint32"},{"name":"sender","type":"bytes32","internalType":"bytes32"},{"name":"nonce","type":"uint64","internalType":"uint64"}]},{"name":"_guid","type":"bytes32","internalType":"bytes32"},{"name":"_message","type":"bytes","internalType":"bytes"},{"name":"_executor","type":"address","internalType":"address"},{"name":"_extraData","type":"bytes","internalType":"bytes"}],"outputs":[],"stateMutability":"payable"},{"type":"function","name":"lzReceiveAndRevert","inputs":[{"name":"_packets","type":"tuple[]","internalType":"struct InboundPacket[]","components":[{"name":"origin","type":"tuple","internalType":"struct Origin","components":[{"name":"srcEid","type":"uint32","internalType":"uint32"},{"name":"sender","type":"bytes32","internalType":"bytes32"},{"name":"nonce","type":"uint64","internalType":"uint64"}]},{"name":"dstEid","type":"uint32","internalType":"uint32"},{"name":"receiver","type":"address","internalType":"address"},{"name":"guid","type":"bytes32","internalType":"bytes32"},{"name":"value","type":"uint256","internalType":"uint256"},{"name":"executor","type":"address","internalType":"address"},{"name":"message","type":"bytes","internalType":"bytes"},{"name":"extraData","type":"bytes","internalType":"bytes"}]}],"outputs":[],"stateMutability":"payable"},{"type":"function","name":"lzReceiveSimulate","inputs":[{"name":"_origin","type":"tuple","internalType":"struct Origin","components":[{"name":"srcEid","type":"uint32","internalType":"uint32"},{"name":"sender","type":"bytes32","internalType":"bytes32"},{"name":"nonce","type":"uint64","internalType":"uint64"}]},{"name":"_guid","type":"bytes32","internalType":"bytes32"},{"name":"_message","type":"bytes","internalType":"bytes"},{"name":"_executor","type":"address","internalType":"address"},{"name":"_extraData","type":"bytes","internalType":"bytes"}],"outputs":[],"stateMutability":"payable"},{"type":"function","name":"msgInspector","inputs":[],"outputs":[{"name":"","type":"address","internalType":"address"}],"stateMutability":"view"},{"type":"function","name":"nextNonce","inputs":[{"name":"","type":"uint32","internalType":"uint32"},{"name":"","type":"bytes32","internalType":"bytes32"}],"outputs":[{"name":"nonce","type":"uint64","internalType":"uint64"}],"stateMutability":"view"},{"type":"function","name":"oApp","inputs":[],"outputs":[{"name":"","type":"address","internalType":"address"}],"stateMutability":"view"},{"type":"function","name":"oAppVersion","inputs":[],"outputs":[{"name":"senderVersion","type":"uint64","internalType":"uint64"},{"name":"receiverVersion","type":"uint64","internalType":"uint64"}],"stateMutability":"pure"},{"type":"function","name":"oftVersion","inputs":[],"outputs":[{"name":"interfaceId","type":"bytes4","internalType":"bytes4"},{"name":"version","type":"uint64","internalType":"uint64"}],"stateMutability":"pure"},{"type":"function","name":"owner","inputs":[],"outputs":[{"name":"","type":"address","internalType":"address"}],"stateMutability":"view"},{"type":"function","name":"peers","inputs":[{"name":"eid","type":"uint32","internalType":"uint32"}],"outputs":[{"name":"peer","type":"bytes32","internalType":"bytes32"}],"stateMutability":"view"},{"type":"function","name":"preCrime","inputs":[],"outputs":[{"name":"","type":"address","internalType":"address"}],"stateMutability":"view"},{"type":"function","name":"quoteOFT","inputs":[{"name":"_sendParam","type":"tuple","internalType":"struct SendParam","components":[{"name":"dstEid","type":"uint32","internalType":"uint32"},{"name":"to","type":"bytes32","internalType":"bytes32"},{"name":"amountLD","type":"uint256","internalType":"uint256"},{"name":"minAmountLD","type":"uint256","internalType":"uint256"},{"name":"extraOptions","type":"bytes","internalType":"bytes"},{"name":"composeMsg","type":"bytes","internalType":"bytes"},{"name":"oftCmd","type":"bytes","internalType":"bytes"}]}],"outputs":[{"name":"oftLimit","type":"tuple","internalType":"struct OFTLimit","components":[{"name":"minAmountLD","type":"uint256","internalType":"uint256"},{"name":"maxAmountLD","type":"uint256","internalType":"uint256"}]},{"name":"oftFeeDetails","type":"tuple[]","internalType":"struct OFTFeeDetail[]","components":[{"name":"feeAmountLD","type":"int256","internalType":"int256"},{"name":"description","type":"string","internalType":"string"}]},{"name":"oftReceipt","type":"tuple","internalType":"struct OFTReceipt","components":[{"name":"amountSentLD","type":"uint256","internalType":"uint256"},{"name":"amountReceivedLD","type":"uint256","internalType":"uint256"}]}],"stateMutability":"view"},{"type":"function","name":"quoteSend","inputs":[{"name":"_sendParam","type":"tuple","internalType":"struct SendParam","components":[{"name":"dstEid","type":"uint32","internalType":"uint32"},{"name":"to","type":"bytes32","internalType":"bytes32"},{"name":"amountLD","type":"uint256","internalType":"uint256"},{"name":"minAmountLD","type":"uint256","internalType":"uint256"},{"name":"extraOptions","type":"bytes","internalType":"bytes"},{"name":"composeMsg","type":"bytes","internalType":"bytes"},{"name":"oftCmd","type":"bytes","internalType":"bytes"}]},{"name":"_payInLzToken","type":"bool","internalType":"bool"}],"outputs":[{"name":"msgFee","type":"tuple","internalType":"struct MessagingFee","components":[{"name":"nativeFee","type":"uint256","internalType":"uint256"},{"name":"lzTokenFee","type":"uint256","internalType":"uint256"}]}],"stateMutability":"view"},{"type":"function","name":"renounceOwnership","inputs":[],"outputs":[],"stateMutability":"nonpayable"},{"type":"function","name":"send","inputs":[{"name":"_sendParam","type":"tuple","internalType":"struct SendParam","components":[{"name":"dstEid","type":"uint32","internalType":"uint32"},{"name":"to","type":"bytes32","internalType":"bytes32"},{"name":"amountLD","type":"uint256","internalType":"uint256"},{"name":"minAmountLD","type":"uint256","internalType":"uint256"},{"name":"extraOptions","type":"bytes","internalType":"bytes"},{"name":"composeMsg","type":"bytes","internalType":"bytes"},{"name":"oftCmd","type":"bytes","internalType":"bytes"}]},{"name":"_fee","type":"tuple","internalType":"struct MessagingFee","components":[{"name":"nativeFee","type":"uint256","internalType":"uint256"},{"name":"lzTokenFee","type":"uint256","internalType":"uint256"}]},{"name":"_refundAddress","type":"address","internalType":"address"}],"outputs":[{"name":"msgReceipt","type":"tuple","internalType":"struct MessagingReceipt","components":[{"name":"guid","type":"bytes32","internalType":"bytes32"},{"name":"nonce","type":"uint64","internalType":"uint64"},{"name":"fee","type":"tuple","internalType":"struct MessagingFee","components":[{"name":"nativeFee","type":"uint256","internalType":"uint256"},{"name":"lzTokenFee","type":"uint256","internalType":"uint256"}]}]},{"name":"oftReceipt","type":"tuple","internalType":"struct OFTReceipt","components":[{"name":"amountSentLD","type":"uint256","internalType":"uint256"},{"name":"amountReceivedLD","type":"uint256","internalType":"uint256"}]}],"stateMutability":"payable"},{"type":"function","name":"setDelegate","inputs":[{"name":"_delegate","type":"address","internalType":"address"}],"outputs":[],"stateMutability":"nonpayable"},{"type":"function","name":"setElevatedMinterBurner","inputs":[{"name":"_elevatedMinterBurner","type":"address","internalType":"address"}],"outputs":[],"stateMutability":"nonpayable"},{"type":"function","name":"setEnforcedOptions","inputs":[{"name":"_enforcedOptions","type":"tuple[]","internalType":"struct EnforcedOptionParam[]","components":[{"name":"eid","type":"uint32","internalType":"uint32"},{"name":"msgType","type":"uint16","internalType":"uint16"},{"name":"options","type":"bytes","internalType":"bytes"}]}],"outputs":[],"stateMutability":"nonpayable"},{"type":"function","name":"setMsgInspector","inputs":[{"name":"_msgInspector","type":"address","internalType":"address"}],"outputs":[],"stateMutability":"nonpayable"},{"type":"function","name":"setPeer","inputs":[{"name":"_eid","type":"uint32","internalType":"uint32"},{"name":"_peer","type":"bytes32","internalType":"bytes32"}],"outputs":[],"stateMutability":"nonpayable"},{"type":"function","name":"setPreCrime","inputs":[{"name":"_preCrime","type":"address","internalType":"address"}],"outputs":[],"stateMutability":"nonpayable"},{"type":"function","name":"sharedDecimals","inputs":[],"outputs":[{"name":"","type":"uint8","internalType":"uint8"}],"stateMutability":"pure"},{"type":"function","name":"token","inputs":[],"outputs":[{"name":"","type":"address","internalType":"address"}],"stateMutability":"view"},{"type":"function","name":"tokenOft","inputs":[],"outputs":[{"name":"","type":"address","internalType":"address"}],"stateMutability":"view"},{"type":"function","name":"transferOwnership","inputs":[{"name":"newOwner","type":"address","internalType":"address"}],"outputs":[],"stateMutability":"nonpayable"},{"type":"event","name":"Credit","inputs":[{"name":"to","type":"address","indexed":false,"internalType":"address"},{"name":"amount","type":"uint256","indexed":false,"internalType":"uint256"}],"anonymous":false},{"type":"event","name":"Debit","inputs":[{"name":"from","type":"address","indexed":false,"internalType":"address"},{"name":"amount","type":"uint256","indexed":false,"internalType":"uint256"}],"anonymous":false},{"type":"event","name":"EnforcedOptionSet","inputs":[{"name":"_enforcedOptions","type":"tuple[]","indexed":false,"internalType":"struct EnforcedOptionParam[]","components":[{"name":"eid","type":"uint32","internalType":"uint32"},{"name":"msgType","type":"uint16","internalType":"uint16"},{"name":"options","type":"bytes","internalType":"bytes"}]}],"anonymous":false},{"type":"event","name":"MsgInspectorSet","inputs":[{"name":"inspector","type":"address","indexed":false,"internalType":"address"}],"anonymous":false},{"type":"event","name":"OFTReceived","inputs":[{"name":"guid","type":"bytes32","indexed":true,"internalType":"bytes32"},{"name":"srcEid","type":"uint32","indexed":false,"internalType":"uint32"},{"name":"toAddress","type":"address","indexed":true,"internalType":"address"},{"name":"amountReceivedLD","type":"uint256","indexed":false,"internalType":"uint256"}],"anonymous":false},{"type":"event","name":"OFTSent","inputs":[{"name":"guid","type":"bytes32","indexed":true,"internalType":"bytes32"},{"name":"dstEid","type":"uint32","indexed":false,"internalType":"uint32"},{"name":"fromAddress","type":"address","indexed":true,"internalType":"address"},{"name":"amountSentLD","type":"uint256","indexed":false,"internalType":"uint256"},{"name":"amountReceivedLD","type":"uint256","indexed":false,"internalType":"uint256"}],"anonymous":false},{"type":"event","name":"OwnershipTransferred","inputs":[{"name":"previousOwner","type":"address","indexed":true,"internalType":"address"},{"name":"newOwner","type":"address","indexed":true,"internalType":"address"}],"anonymous":false},{"type":"event","name":"PeerSet","inputs":[{"name":"eid","type":"uint32","indexed":false,"internalType":"uint32"},{"name":"peer","type":"bytes32","indexed":false,"internalType":"bytes32"}],"anonymous":false},{"type":"event","name":"PreCrimeSet","inputs":[{"name":"preCrimeAddress","type":"address","indexed":false,"internalType":"address"}],"anonymous":false},{"type":"error","name":"AmountSDOverflowed","inputs":[{"name":"amountSD","type":"uint256","internalType":"uint256"}]},{"type":"error","name":"InsufficientBalance","inputs":[]},{"type":"error","name":"InvalidDelegate","inputs":[]},{"type":"error","name":"InvalidEndpointCall","inputs":[]},{"type":"error","name":"InvalidLocalDecimals","inputs":[]},{"type":"error","name":"InvalidOptions","inputs":[{"name":"options","type":"bytes","internalType":"bytes"}]},{"type":"error","name":"LzTokenUnavailable","inputs":[]},{"type":"error","name":"NoPeer","inputs":[{"name":"eid","type":"uint32","internalType":"uint32"}]},{"type":"error","name":"NotEnoughNative","inputs":[{"name":"msgValue","type":"uint256","internalType":"uint256"}]},{"type":"error","name":"OnlyEndpoint","inputs":[{"name":"addr","type":"address","internalType":"address"}]},{"type":"error","name":"OnlyPeer","inputs":[{"name":"eid","type":"uint32","internalType":"uint32"},{"name":"sender","type":"bytes32","internalType":"bytes32"}]},{"type":"error","name":"OnlySelf","inputs":[]},{"type":"error","name":"OwnableInvalidOwner","inputs":[{"name":"owner","type":"address","internalType":"address"}]},{"type":"error","name":"OwnableUnauthorizedAccount","inputs":[{"name":"account","type":"address","internalType":"address"}]},{"type":"error","name":"ReentrancyGuardReentrantCall","inputs":[]},{"type":"error","name":"SafeERC20FailedOperation","inputs":[{"name":"token","type":"address","internalType":"address"}]},{"type":"error","name":"SimulationResult","inputs":[{"name":"result","type":"bytes","internalType":"bytes"}]},{"type":"error","name":"SlippageExceeded","inputs":[{"name":"amountLD","type":"uint256","internalType":"uint256"},{"name":"minAmountLD","type":"uint256","internalType":"uint256"}]}],"bytecode":{"object":"0x60e060405234801561000f575f5ffd5b506040516152c43803806152c483398181016040528101906100319190610498565b8382828273ffffffffffffffffffffffffffffffffffffffff1663313ce5676040518163ffffffff1660e01b8152600401602060405180830381865afa15801561007d573d5f5f3e3d5ffd5b505050506040513d601f19601f820116820180604052508101906100a19190610532565b8282818181818a5f73ffffffffffffffffffffffffffffffffffffffff168173ffffffffffffffffffffffffffffffffffffffff1603610118575f6040517f1e4fbdf700000000000000000000000000000000000000000000000000000000815260040161010f919061056c565b60405180910390fd5b6101278161037160201b60201c565b508173ffffffffffffffffffffffffffffffffffffffff1660808173ffffffffffffffffffffffffffffffffffffffff16815250505f73ffffffffffffffffffffffffffffffffffffffff168173ffffffffffffffffffffffffffffffffffffffff16036101c1576040517fb586360400000000000000000000000000000000000000000000000000000000815260040160405180910390fd5b60805173ffffffffffffffffffffffffffffffffffffffff1663ca5eb5e1826040518263ffffffff1660e01b81526004016101fc919061056c565b5f604051808303815f87803b158015610213575f5ffd5b505af1158015610225573d5f5f3e3d5ffd5b505050505050505061023b61043260201b60201c565b60ff168360ff16101561027a576040517f1e9714b000000000000000000000000000000000000000000000000000000000815260040160405180910390fd5b61028861043260201b60201c565b8361029391906105b2565b600a61029f919061071e565b60a081815250505050508273ffffffffffffffffffffffffffffffffffffffff1660c08173ffffffffffffffffffffffffffffffffffffffff168152505050505060016005819055508360065f6101000a81548173ffffffffffffffffffffffffffffffffffffffff021916908373ffffffffffffffffffffffffffffffffffffffff1602179055508260075f6101000a81548173ffffffffffffffffffffffffffffffffffffffff021916908373ffffffffffffffffffffffffffffffffffffffff16021790555050505050610768565b5f5f5f9054906101000a900473ffffffffffffffffffffffffffffffffffffffff169050815f5f6101000a81548173ffffffffffffffffffffffffffffffffffffffff021916908373ffffffffffffffffffffffffffffffffffffffff1602179055508173ffffffffffffffffffffffffffffffffffffffff168173ffffffffffffffffffffffffffffffffffffffff167f8be0079c531659141344cd1fd0a4f28419497f9722a3daafe3b4186f6b6457e060405160405180910390a35050565b5f6012905090565b5f5ffd5b5f73ffffffffffffffffffffffffffffffffffffffff82169050919050565b5f6104678261043e565b9050919050565b6104778161045d565b8114610481575f5ffd5b50565b5f815190506104928161046e565b92915050565b5f5f5f5f608085870312156104b0576104af61043a565b5b5f6104bd87828801610484565b94505060206104ce87828801610484565b93505060406104df87828801610484565b92505060606104f087828801610484565b91505092959194509250565b5f60ff82169050919050565b610511816104fc565b811461051b575f5ffd5b50565b5f8151905061052c81610508565b92915050565b5f602082840312156105475761054661043a565b5b5f6105548482850161051e565b91505092915050565b6105668161045d565b82525050565b5f60208201905061057f5f83018461055d565b92915050565b7f4e487b71000000000000000000000000000000000000000000000000000000005f52601160045260245ffd5b5f6105bc826104fc565b91506105c7836104fc565b9250828203905060ff8111156105e0576105df610585565b5b92915050565b5f8160011c9050919050565b5f5f8291508390505b600185111561063b5780860481111561061757610616610585565b5b60018516156106265780820291505b8081029050610634856105e6565b94506105fb565b94509492505050565b5f82610653576001905061070e565b81610660575f905061070e565b81600181146106765760028114610680576106af565b600191505061070e565b60ff84111561069257610691610585565b5b8360020a9150848211156106a9576106a8610585565b5b5061070e565b5060208310610133831016604e8410600b84101617156106e45782820a9050838111156106df576106de610585565b5b61070e565b6106f184848460016105f2565b9250905081840481111561070857610707610585565b5b81810290505b9392505050565b5f819050919050565b5f61072882610715565b9150610733836104fc565b92506107607fffffffffffffffffffffffffffffffffffffffffffffffffffffffffffffffff8484610644565b905092915050565b60805160a05160c051614ae56107df5f395f61157601525f8181610e7201528181611edb01528181611efc01528181611fa001526122d401525f8181610a7f01528181610d21015281816113440152818161173801528181611ab201528181612656015281816128ab01526129a30152614ae55ff3fe608060405260043610610219575f3560e01c806382413eac11610122578063bc70b354116100aa578063d045a0dc1161006e578063d045a0dc146107be578063d4243885146107da578063f2fde38b14610802578063fc0c546a1461082a578063ff7bd03d1461085457610219565b8063bc70b354146106e3578063bd815db01461071f578063c7c7f5b31461073b578063ca5eb5e11461076c578063ccae66641461079457610219565b80639f68b964116100f15780639f68b96414610603578063b731ea0a1461062d578063b98bd07014610657578063bb0b6a531461067f578063bc4565c4146106bb57610219565b806382413eac14610549578063857749b0146105855780638da5cb5b146105af578063963efcaa146105d957610219565b80633b6f743b116101a55780635e280f11116101745780635e280f111461047b5780636fc1b31e146104a5578063715018a6146104cd5780637d25a05e146104e35780638108bb7e1461051f57610219565b80633b6f743b1461039d57806352ae2879146103d95780635535d461146104035780635a0dfe4d1461043f57610219565b8063134d4f25116101ec578063134d4f25146102cb578063156a0d0f146102f557806317442b70146103205780631f5e13341461034b5780633400288b1461037557610219565b8063017c25a71461021d5780630d35b41514610247578063111ecdad1461028557806313137d65146102af575b5f5ffd5b348015610228575f5ffd5b50610231610890565b60405161023e9190612b31565b60405180910390f35b348015610252575f5ffd5b5061026d60048036038101906102689190612b7d565b610896565b60405161027c93929190612daa565b60405180910390f35b348015610290575f5ffd5b50610299610a41565b6040516102a69190612e25565b60405180910390f35b6102c960048036038101906102c49190612f1a565b610a66565b005b3480156102d6575f5ffd5b506102df610b86565b6040516102ec9190612fed565b60405180910390f35b348015610300575f5ffd5b50610309610b8b565b604051610317929190613062565b60405180910390f35b34801561032b575f5ffd5b50610334610bb8565b604051610342929190613089565b60405180910390f35b348015610356575f5ffd5b5061035f610bc6565b60405161036c9190612fed565b60405180910390f35b348015610380575f5ffd5b5061039b600480360381019061039691906130e9565b610bcb565b005b3480156103a8575f5ffd5b506103c360048036038101906103be919061315c565b610be1565b6040516103d091906131e3565b60405180910390f35b3480156103e4575f5ffd5b506103ed610c49565b6040516103fa9190612e25565b60405180910390f35b34801561040e575f5ffd5b5061042960048036038101906104249190613226565b610c50565b60405161043691906132b6565b60405180910390f35b34801561044a575f5ffd5b50610465600480360381019061046091906130e9565b610cf6565b60405161047291906132e5565b60405180910390f35b348015610486575f5ffd5b5061048f610d1f565b60405161049c9190613359565b60405180910390f35b3480156104b0575f5ffd5b506104cb60048036038101906104c69190613372565b610d43565b005b3480156104d8575f5ffd5b506104e1610dc5565b005b3480156104ee575f5ffd5b50610509600480360381019061050491906130e9565b610dd8565b604051610516919061339d565b60405180910390f35b34801561052a575f5ffd5b50610533610de2565b6040516105409190612e25565b60405180910390f35b348015610554575f5ffd5b5061056f600480360381019061056a91906133b6565b610e07565b60405161057c91906132e5565b60405180910390f35b348015610590575f5ffd5b50610599610e41565b6040516105a69190613442565b60405180910390f35b3480156105ba575f5ffd5b506105c3610e49565b6040516105d09190612e25565b60405180910390f35b3480156105e4575f5ffd5b506105ed610e70565b6040516105fa9190612b31565b60405180910390f35b34801561060e575f5ffd5b50610617610e94565b60405161062491906132e5565b60405180910390f35b348015610638575f5ffd5b50610641610e9c565b60405161064e9190612e25565b60405180910390f35b348015610662575f5ffd5b5061067d600480360381019061067891906134b0565b610ec1565b005b34801561068a575f5ffd5b506106a560048036038101906106a091906134fb565b610ee2565b6040516106b29190613535565b60405180910390f35b3480156106c6575f5ffd5b506106e160048036038101906106dc9190613372565b610ef7565b005b3480156106ee575f5ffd5b506107096004803603810190610704919061354e565b610f42565b60405161071691906132b6565b60405180910390f35b61073960048036038101906107349190613614565b611144565b005b6107556004803603810190610750919061367d565b611313565b604051610763929190613774565b60405180910390f35b348015610777575f5ffd5b50610792600480360381019061078d9190613372565b61133a565b005b34801561079f575f5ffd5b506107a86113cb565b6040516107b59190612e25565b60405180910390f35b6107d860048036038101906107d39190612f1a565b6113f0565b005b3480156107e5575f5ffd5b5061080060048036038101906107fb9190613372565b61146d565b005b34801561080d575f5ffd5b5061082860048036038101906108239190613372565b6114ef565b005b348015610835575f5ffd5b5061083e611573565b60405161084b9190612e25565b60405180910390f35b34801561085f575f5ffd5b5061087a6004803603810190610875919061379b565b61159a565b60405161088791906132e5565b60405180910390f35b61138b81565b61089e612a89565b60606108a8612aa1565b5f5f90505f3073ffffffffffffffffffffffffffffffffffffffff1663fc0c546a6040518163ffffffff1660e01b8152600401602060405180830381865afa1580156108f6573d5f5f3e3d5ffd5b505050506040513d601f19601f8201168201806040525081019061091a91906137da565b73ffffffffffffffffffffffffffffffffffffffff166318160ddd6040518163ffffffff1660e01b8152600401602060405180830381865afa158015610962573d5f5f3e3d5ffd5b505050506040513d601f19601f82011682018060405250810190610986919061382f565b905060405180604001604052808381526020018281525094505f67ffffffffffffffff8111156109b9576109b861385a565b5b6040519080825280602002602001820160405280156109f257816020015b6109df612ab9565b8152602001906001900390816109d75790505b5093505f5f610a1b886040013589606001358a5f016020810190610a1691906134fb565b6115d7565b915091506040518060400160405280838152602001828152509450505050509193909250565b60045f9054906101000a900473ffffffffffffffffffffffffffffffffffffffff1681565b3373ffffffffffffffffffffffffffffffffffffffff167f000000000000000000000000000000000000000000000000000000000000000073ffffffffffffffffffffffffffffffffffffffff1614610af657336040517f91ac5e4f000000000000000000000000000000000000000000000000000000008152600401610aed9190612e25565b60405180910390fd5b8660200135610b15885f016020810190610b1091906134fb565b611636565b14610b6e57865f016020810190610b2c91906134fb565b87602001356040517fc26bebcc000000000000000000000000000000000000000000000000000000008152600401610b65929190613896565b60405180910390fd5b610b7d878787878787876116a7565b50505050505050565b600281565b5f5f7f02e49c2c000000000000000000000000000000000000000000000000000000006001915091509091565b5f5f60016002915091509091565b600181565b610bd3611831565b610bdd82826118b8565b5050565b610be9612ad2565b5f610c0e84604001358560600135865f016020810190610c0991906134fb565b6115d7565b9150505f5f610c1d8684611917565b91509150610c3e865f016020810190610c3691906134fb565b838388611aa8565b935050505092915050565b5f30905090565b6003602052815f5260405f20602052805f5260405f205f91509150508054610c77906138ea565b80601f0160208091040260200160405190810160405280929190818152602001828054610ca3906138ea565b8015610cee5780601f10610cc557610100808354040283529160200191610cee565b820191905f5260205f20905b815481529060010190602001808311610cd157829003601f168201915b505050505081565b5f8160015f8563ffffffff1663ffffffff1681526020019081526020015f205414905092915050565b7f000000000000000000000000000000000000000000000000000000000000000081565b610d4b611831565b8060045f6101000a81548173ffffffffffffffffffffffffffffffffffffffff021916908373ffffffffffffffffffffffffffffffffffffffff1602179055507ff0be4f1e87349231d80c36b33f9e8639658eeaf474014dee15a3e6a4d441419781604051610dba9190612e25565b60405180910390a150565b610dcd611831565b610dd65f611b89565b565b5f5f905092915050565b60075f9054906101000a900473ffffffffffffffffffffffffffffffffffffffff1681565b5f3073ffffffffffffffffffffffffffffffffffffffff168273ffffffffffffffffffffffffffffffffffffffff16149050949350505050565b5f6012905090565b5f5f5f9054906101000a900473ffffffffffffffffffffffffffffffffffffffff16905090565b7f000000000000000000000000000000000000000000000000000000000000000081565b5f6001905090565b60025f9054906101000a900473ffffffffffffffffffffffffffffffffffffffff1681565b610ec9611831565b610ede828290610ed99190613b4b565b611c4a565b5050565b6001602052805f5260405f205f915090505481565b610eff611831565b8060075f6101000a81548173ffffffffffffffffffffffffffffffffffffffff021916908373ffffffffffffffffffffffffffffffffffffffff16021790555050565b60605f60035f8763ffffffff1663ffffffff1681526020019081526020015f205f8661ffff1661ffff1681526020019081526020015f208054610f84906138ea565b80601f0160208091040260200160405190810160405280929190818152602001828054610fb0906138ea565b8015610ffb5780601f10610fd257610100808354040283529160200191610ffb565b820191905f5260205f20905b815481529060010190602001808311610fde57829003601f168201915b505050505090505f8151036110565783838080601f0160208091040260200160405190810160405280939291908181526020018383808284375f81840152601f19601f8201169050808301925050505050505091505061113c565b5f8484905003611069578091505061113c565b600284849050106110fd576110c084848080601f0160208091040260200160405190810160405280939291908181526020018383808284375f81840152601f19601f82011690508083019250505050505050611d62565b80848460029080926110d493929190613b67565b6040516020016110e693929190613bff565b60405160208183030381529060405291505061113c565b83836040517f9a6d49cd000000000000000000000000000000000000000000000000000000008152600401611133929190613c50565b60405180910390fd5b949350505050565b5f5f90505b82829050811015611266573683838381811061116857611167613c72565b5b905060200281019061117a9190613cab565b905061119f815f015f01602081019061119391906134fb565b825f0160200135610cf6565b6111a95750611259565b3073ffffffffffffffffffffffffffffffffffffffff1663d045a0dc8260c00135835f018460a00135858061010001906111e39190613cd3565b8760e00160208101906111f69190613372565b888061012001906112079190613cd3565b6040518963ffffffff1660e01b81526004016112299796959493929190613e08565b5f604051808303818588803b158015611240575f5ffd5b505af1158015611252573d5f5f3e3d5ffd5b5050505050505b8080600101915050611149565b503373ffffffffffffffffffffffffffffffffffffffff16638e9e70996040518163ffffffff1660e01b81526004015f60405180830381865afa1580156112af573d5f5f3e3d5ffd5b505050506040513d5f823e3d601f19601f820116820180604052508101906112d79190613ed9565b6040517f8351eea700000000000000000000000000000000000000000000000000000000815260040161130a91906132b6565b60405180910390fd5b61131b612aea565b611323612aa1565b61132e858585611dbb565b91509150935093915050565b611342611831565b7f000000000000000000000000000000000000000000000000000000000000000073ffffffffffffffffffffffffffffffffffffffff1663ca5eb5e1826040518263ffffffff1660e01b815260040161139b9190612e25565b5f604051808303815f87803b1580156113b2575f5ffd5b505af11580156113c4573d5f5f3e3d5ffd5b5050505050565b60065f9054906101000a900473ffffffffffffffffffffffffffffffffffffffff1681565b3073ffffffffffffffffffffffffffffffffffffffff163373ffffffffffffffffffffffffffffffffffffffff1614611455576040517f14d4a4e800000000000000000000000000000000000000000000000000000000815260040160405180910390fd5b61146487878787878787611ec0565b50505050505050565b611475611831565b8060025f6101000a81548173ffffffffffffffffffffffffffffffffffffffff021916908373ffffffffffffffffffffffffffffffffffffffff1602179055507fd48d879cef83a1c0bdda516f27b13ddb1b3f8bbac1c9e1511bb2a659c2427760816040516114e49190612e25565b60405180910390a150565b6114f7611831565b5f73ffffffffffffffffffffffffffffffffffffffff168173ffffffffffffffffffffffffffffffffffffffff1603611567575f6040517f1e4fbdf700000000000000000000000000000000000000000000000000000000815260040161155e9190612e25565b60405180910390fd5b61157081611b89565b50565b5f7f0000000000000000000000000000000000000000000000000000000000000000905090565b5f816020013560015f845f0160208101906115b591906134fb565b63ffffffff1663ffffffff1681526020019081526020015f2054149050919050565b5f5f6115e285611ed8565b91508190508381101561162e5780846040517f71c4efed000000000000000000000000000000000000000000000000000000008152600401611625929190613f20565b60405180910390fd5b935093915050565b5f5f60015f8463ffffffff1663ffffffff1681526020019081526020015f205490505f5f1b810361169e57826040517ff6ff4fb70000000000000000000000000000000000000000000000000000000081526004016116959190613f47565b60405180910390fd5b80915050919050565b5f6116ba6116b58787611f37565b611f61565b90505f6116ea826116d36116ce8a8a611f6c565b611f9d565b8b5f0160208101906116e591906134fb565b611fdb565b90506116f68787612222565b156117c4575f6117348a60400160208101906117129190613f60565b8b5f01602081019061172491906134fb565b8461172f8c8c612235565b612297565b90507f000000000000000000000000000000000000000000000000000000000000000073ffffffffffffffffffffffffffffffffffffffff16637cb59012848b5f856040518563ffffffff1660e01b81526004016117959493929190613fc4565b5f604051808303815f87803b1580156117ac575f5ffd5b505af11580156117be573d5f5f3e3d5ffd5b50505050505b8173ffffffffffffffffffffffffffffffffffffffff16887fefed6d3500546b29533b128a29e3a94d70788727f0507505ac12eaf2e578fd9c8b5f01602081019061180f91906134fb565b8460405161181e92919061400e565b60405180910390a3505050505050505050565b6118396122c9565b73ffffffffffffffffffffffffffffffffffffffff16611857610e49565b73ffffffffffffffffffffffffffffffffffffffff16146118b65761187a6122c9565b6040517f118cdaa70000000000000000000000000000000000000000000000000000000081526004016118ad9190612e25565b60405180910390fd5b565b8060015f8463ffffffff1663ffffffff1681526020019081526020015f20819055507f238399d427b947898edb290f5ff0f9109849b1c3ba196a42e35f00c50a54b98b828260405161190b929190613896565b60405180910390a15050565b6060805f611983856020013561192c866122d0565b878060a0019061193c9190613cd3565b8080601f0160208091040260200160405190810160405280939291908181526020018383808284375f81840152601f19601f82011690508083019250505050505050612358565b80925081945050505f8161199857600161199b565b60025b90506119c8865f0160208101906119b291906134fb565b828880608001906119c39190613cd3565b610f42565b92505f60045f9054906101000a900473ffffffffffffffffffffffffffffffffffffffff1690505f73ffffffffffffffffffffffffffffffffffffffff168173ffffffffffffffffffffffffffffffffffffffff1614611a9e578073ffffffffffffffffffffffffffffffffffffffff1663043a78eb86866040518363ffffffff1660e01b8152600401611a5d929190614035565b602060405180830381865afa158015611a78573d5f5f3e3d5ffd5b505050506040513d601f19601f82011682018060405250810190611a9c919061407e565b505b5050509250929050565b611ab0612ad2565b7f000000000000000000000000000000000000000000000000000000000000000073ffffffffffffffffffffffffffffffffffffffff1663ddc28c586040518060a001604052808863ffffffff168152602001611b0c89611636565b8152602001878152602001868152602001851515815250306040518363ffffffff1660e01b8152600401611b4192919061417a565b6040805180830381865afa158015611b5b573d5f5f3e3d5ffd5b505050506040513d601f19601f82011682018060405250810190611b7f91906141f5565b9050949350505050565b5f5f5f9054906101000a900473ffffffffffffffffffffffffffffffffffffffff169050815f5f6101000a81548173ffffffffffffffffffffffffffffffffffffffff021916908373ffffffffffffffffffffffffffffffffffffffff1602179055508173ffffffffffffffffffffffffffffffffffffffff168173ffffffffffffffffffffffffffffffffffffffff167f8be0079c531659141344cd1fd0a4f28419497f9722a3daafe3b4186f6b6457e060405160405180910390a35050565b5f5f90505b8151811015611d2757611c7f828281518110611c6e57611c6d613c72565b5b602002602001015160400151611d62565b818181518110611c9257611c91613c72565b5b60200260200101516040015160035f848481518110611cb457611cb3613c72565b5b60200260200101515f015163ffffffff1663ffffffff1681526020019081526020015f205f848481518110611cec57611ceb613c72565b5b60200260200101516020015161ffff1661ffff1681526020019081526020015f209081611d1991906143b7565b508080600101915050611c4f565b507fbe4864a8e820971c0247f5992e2da559595f7bf076a21cb5928d443d2a13b67481604051611d57919061459d565b60405180910390a150565b5f60028201519050600361ffff168161ffff1614611db757816040517f9a6d49cd000000000000000000000000000000000000000000000000000000008152600401611dae91906132b6565b60405180910390fd5b5050565b611dc3612aea565b611dcb612aa1565b5f5f611df233886040013589606001358a5f016020810190611ded91906134fb565b6123c6565b915091505f5f611e028984611917565b91509150611e34895f016020810190611e1b91906134fb565b83838b803603810190611e2e919061461e565b8b612623565b955060405180604001604052808581526020018481525094503373ffffffffffffffffffffffffffffffffffffffff16865f01517f85496b760a4b7f8d66384b9df21b381f5d1b1e79f229a47aaf4c232edc2fe59a8b5f016020810190611e9b91906134fb565b8787604051611eac93929190614649565b60405180910390a350505050935093915050565b611ecf878787878787876116a7565b50505050505050565b5f7f00000000000000000000000000000000000000000000000000000000000000007f000000000000000000000000000000000000000000000000000000000000000083611f2691906146d8565b611f309190614708565b9050919050565b5f82825f90602060ff1692611f4e93929190613b67565b90611f599190614753565b905092915050565b5f815f1c9050919050565b5f8282602060ff1690602860ff1692611f8793929190613b67565b90611f9291906147dc565b60c01c905092915050565b5f7f00000000000000000000000000000000000000000000000000000000000000008267ffffffffffffffff16611fd49190614708565b9050919050565b5f5f73ffffffffffffffffffffffffffffffffffffffff168473ffffffffffffffffffffffffffffffffffffffff16036120155761dead93505b61138b4603612141578260065f9054906101000a900473ffffffffffffffffffffffffffffffffffffffff1673ffffffffffffffffffffffffffffffffffffffff166370a08231306040518263ffffffff1660e01b81526004016120799190612e25565b602060405180830381865afa158015612094573d5f5f3e3d5ffd5b505050506040513d601f19601f820116820180604052508101906120b8919061382f565b10156120f0576040517ff4d678b800000000000000000000000000000000000000000000000000000000815260040160405180910390fd5b61213c848460065f9054906101000a900473ffffffffffffffffffffffffffffffffffffffff1673ffffffffffffffffffffffffffffffffffffffff166127399092919063ffffffff16565b6121df565b60075f9054906101000a900473ffffffffffffffffffffffffffffffffffffffff1673ffffffffffffffffffffffffffffffffffffffff166340c10f1985856040518363ffffffff1660e01b815260040161219d92919061483a565b6020604051808303815f875af11580156121b9573d5f5f3e3d5ffd5b505050506040513d601f19601f820116820180604052508101906121dd919061407e565b505b7f1bbf55d483639f8103dc4e035af71a4fbdb16c80be740fa3eef81198acefa094848460405161221092919061483a565b60405180910390a18290509392505050565b5f602860ff168383905011905092915050565b60608282602860ff1690809261224d93929190613b67565b8080601f0160208091040260200160405190810160405280939291908181526020018383808284375f81840152601f19601f82011690508083019250505050505050905092915050565b6060848484846040516020016122b094939291906148e9565b6040516020818303038152906040529050949350505050565b5f33905090565b5f5f7f0000000000000000000000000000000000000000000000000000000000000000836122fe91906146d8565b905067ffffffffffffffff801681111561234f57806040517fe2ce94130000000000000000000000000000000000000000000000000000000081526004016123469190612b31565b60405180910390fd5b80915050919050565b60605f5f83511190508061238d578484604051602001612379929190614952565b6040516020818303038152906040526123bc565b8484612398336127b8565b856040516020016123ac949392919061497d565b6040516020818303038152906040525b9150935093915050565b5f5f6123d38585856115d7565b809250819350505061138b46036124375761243286308460065f9054906101000a900473ffffffffffffffffffffffffffffffffffffffff1673ffffffffffffffffffffffffffffffffffffffff166127d9909392919063ffffffff16565b6125e1565b61248586308460065f9054906101000a900473ffffffffffffffffffffffffffffffffffffffff1673ffffffffffffffffffffffffffffffffffffffff166127d9909392919063ffffffff16565b60065f9054906101000a900473ffffffffffffffffffffffffffffffffffffffff1673ffffffffffffffffffffffffffffffffffffffff1663095ea7b360075f9054906101000a900473ffffffffffffffffffffffffffffffffffffffff16846040518363ffffffff1660e01b815260040161250292919061483a565b6020604051808303815f875af115801561251e573d5f5f3e3d5ffd5b505050506040513d601f19601f82011682018060405250810190612542919061407e565b5060075f9054906101000a900473ffffffffffffffffffffffffffffffffffffffff1673ffffffffffffffffffffffffffffffffffffffff16639dc29fac87846040518363ffffffff1660e01b815260040161259f92919061483a565b6020604051808303815f875af11580156125bb573d5f5f3e3d5ffd5b505050506040513d601f19601f820116820180604052508101906125df919061407e565b505b7f59c79d79be0fadf59fe689b6952b7ebe90201a3a1f00d4a31982377890bc6046868660405161261292919061483a565b60405180910390a194509492505050565b61262b612aea565b5f612638845f015161285b565b90505f846020015111156126545761265384602001516128a8565b5b7f000000000000000000000000000000000000000000000000000000000000000073ffffffffffffffffffffffffffffffffffffffff16632637a450826040518060a001604052808b63ffffffff1681526020016126b18c611636565b81526020018a81526020018981526020015f8960200151111515815250866040518463ffffffff1660e01b81526004016126ec92919061417a565b60806040518083038185885af1158015612708573d5f5f3e3d5ffd5b50505050506040513d601f19601f8201168201806040525081019061272d9190614a4f565b91505095945050505050565b6127b3838473ffffffffffffffffffffffffffffffffffffffff1663a9059cbb858560405160240161276c92919061483a565b604051602081830303815290604052915060e01b6020820180517bffffffffffffffffffffffffffffffffffffffffffffffffffffffff83818316178352505050506129ee565b505050565b5f8173ffffffffffffffffffffffffffffffffffffffff165f1b9050919050565b612855848573ffffffffffffffffffffffffffffffffffffffff166323b872dd86868660405160240161280e93929190614a7a565b604051602081830303815290604052915060e01b6020820180517bffffffffffffffffffffffffffffffffffffffffffffffffffffffff83818316178352505050506129ee565b50505050565b5f8134146128a057346040517f9f7041200000000000000000000000000000000000000000000000000000000081526004016128979190612b31565b60405180910390fd5b819050919050565b5f7f000000000000000000000000000000000000000000000000000000000000000073ffffffffffffffffffffffffffffffffffffffff1663e4fe1d946040518163ffffffff1660e01b8152600401602060405180830381865afa158015612912573d5f5f3e3d5ffd5b505050506040513d601f19601f8201168201806040525081019061293691906137da565b90505f73ffffffffffffffffffffffffffffffffffffffff168173ffffffffffffffffffffffffffffffffffffffff160361299d576040517f5373352a00000000000000000000000000000000000000000000000000000000815260040160405180910390fd5b6129ea337f0000000000000000000000000000000000000000000000000000000000000000848473ffffffffffffffffffffffffffffffffffffffff166127d9909392919063ffffffff16565b5050565b5f5f60205f8451602086015f885af180612a0d576040513d5f823e3d81fd5b3d92505f519150505f8214612a26576001811415612a41565b5f8473ffffffffffffffffffffffffffffffffffffffff163b145b15612a8357836040517f5274afe7000000000000000000000000000000000000000000000000000000008152600401612a7a9190612e25565b60405180910390fd5b50505050565b60405180604001604052805f81526020015f81525090565b60405180604001604052805f81526020015f81525090565b60405180604001604052805f8152602001606081525090565b60405180604001604052805f81526020015f81525090565b60405180606001604052805f81526020015f67ffffffffffffffff168152602001612b13612ad2565b81525090565b5f819050919050565b612b2b81612b19565b82525050565b5f602082019050612b445f830184612b22565b92915050565b5f604051905090565b5f5ffd5b5f5ffd5b5f5ffd5b5f60e08284031215612b7457612b73612b5b565b5b81905092915050565b5f60208284031215612b9257612b91612b53565b5b5f82013567ffffffffffffffff811115612baf57612bae612b57565b5b612bbb84828501612b5f565b91505092915050565b612bcd81612b19565b82525050565b604082015f820151612be75f850182612bc4565b506020820151612bfa6020850182612bc4565b50505050565b5f81519050919050565b5f82825260208201905092915050565b5f819050602082019050919050565b5f819050919050565b612c3b81612c29565b82525050565b5f81519050919050565b5f82825260208201905092915050565b8281835e5f83830152505050565b5f601f19601f8301169050919050565b5f612c8382612c41565b612c8d8185612c4b565b9350612c9d818560208601612c5b565b612ca681612c69565b840191505092915050565b5f604083015f830151612cc65f860182612c32565b5060208301518482036020860152612cde8282612c79565b9150508091505092915050565b5f612cf68383612cb1565b905092915050565b5f602082019050919050565b5f612d1482612c00565b612d1e8185612c0a565b935083602082028501612d3085612c1a565b805f5b85811015612d6b5784840389528151612d4c8582612ceb565b9450612d5783612cfe565b925060208a01995050600181019050612d33565b50829750879550505050505092915050565b604082015f820151612d915f850182612bc4565b506020820151612da46020850182612bc4565b50505050565b5f60a082019050612dbd5f830186612bd3565b8181036040830152612dcf8185612d0a565b9050612dde6060830184612d7d565b949350505050565b5f73ffffffffffffffffffffffffffffffffffffffff82169050919050565b5f612e0f82612de6565b9050919050565b612e1f81612e05565b82525050565b5f602082019050612e385f830184612e16565b92915050565b5f60608284031215612e5357612e52612b5b565b5b81905092915050565b5f819050919050565b612e6e81612e5c565b8114612e78575f5ffd5b50565b5f81359050612e8981612e65565b92915050565b5f5ffd5b5f5ffd5b5f5ffd5b5f5f83601f840112612eb057612eaf612e8f565b5b8235905067ffffffffffffffff811115612ecd57612ecc612e93565b5b602083019150836001820283011115612ee957612ee8612e97565b5b9250929050565b612ef981612e05565b8114612f03575f5ffd5b50565b5f81359050612f1481612ef0565b92915050565b5f5f5f5f5f5f5f60e0888a031215612f3557612f34612b53565b5b5f612f428a828b01612e3e565b9750506060612f538a828b01612e7b565b965050608088013567ffffffffffffffff811115612f7457612f73612b57565b5b612f808a828b01612e9b565b955095505060a0612f938a828b01612f06565b93505060c088013567ffffffffffffffff811115612fb457612fb3612b57565b5b612fc08a828b01612e9b565b925092505092959891949750929550565b5f61ffff82169050919050565b612fe781612fd1565b82525050565b5f6020820190506130005f830184612fde565b92915050565b5f7fffffffff0000000000000000000000000000000000000000000000000000000082169050919050565b61303a81613006565b82525050565b5f67ffffffffffffffff82169050919050565b61305c81613040565b82525050565b5f6040820190506130755f830185613031565b6130826020830184613053565b9392505050565b5f60408201905061309c5f830185613053565b6130a96020830184613053565b9392505050565b5f63ffffffff82169050919050565b6130c8816130b0565b81146130d2575f5ffd5b50565b5f813590506130e3816130bf565b92915050565b5f5f604083850312156130ff576130fe612b53565b5b5f61310c858286016130d5565b925050602061311d85828601612e7b565b9150509250929050565b5f8115159050919050565b61313b81613127565b8114613145575f5ffd5b50565b5f8135905061315681613132565b92915050565b5f5f6040838503121561317257613171612b53565b5b5f83013567ffffffffffffffff81111561318f5761318e612b57565b5b61319b85828601612b5f565b92505060206131ac85828601613148565b9150509250929050565b604082015f8201516131ca5f850182612bc4565b5060208201516131dd6020850182612bc4565b50505050565b5f6040820190506131f65f8301846131b6565b92915050565b61320581612fd1565b811461320f575f5ffd5b50565b5f81359050613220816131fc565b92915050565b5f5f6040838503121561323c5761323b612b53565b5b5f613249858286016130d5565b925050602061325a85828601613212565b9150509250929050565b5f81519050919050565b5f82825260208201905092915050565b5f61328882613264565b613292818561326e565b93506132a2818560208601612c5b565b6132ab81612c69565b840191505092915050565b5f6020820190508181035f8301526132ce818461327e565b905092915050565b6132df81613127565b82525050565b5f6020820190506132f85f8301846132d6565b92915050565b5f819050919050565b5f61332161331c61331784612de6565b6132fe565b612de6565b9050919050565b5f61333282613307565b9050919050565b5f61334382613328565b9050919050565b61335381613339565b82525050565b5f60208201905061336c5f83018461334a565b92915050565b5f6020828403121561338757613386612b53565b5b5f61339484828501612f06565b91505092915050565b5f6020820190506133b05f830184613053565b92915050565b5f5f5f5f60a085870312156133ce576133cd612b53565b5b5f6133db87828801612e3e565b945050606085013567ffffffffffffffff8111156133fc576133fb612b57565b5b61340887828801612e9b565b9350935050608061341b87828801612f06565b91505092959194509250565b5f60ff82169050919050565b61343c81613427565b82525050565b5f6020820190506134555f830184613433565b92915050565b5f5f83601f8401126134705761346f612e8f565b5b8235905067ffffffffffffffff81111561348d5761348c612e93565b5b6020830191508360208202830111156134a9576134a8612e97565b5b9250929050565b5f5f602083850312156134c6576134c5612b53565b5b5f83013567ffffffffffffffff8111156134e3576134e2612b57565b5b6134ef8582860161345b565b92509250509250929050565b5f602082840312156135105761350f612b53565b5b5f61351d848285016130d5565b91505092915050565b61352f81612e5c565b82525050565b5f6020820190506135485f830184613526565b92915050565b5f5f5f5f6060858703121561356657613565612b53565b5b5f613573878288016130d5565b945050602061358487828801613212565b935050604085013567ffffffffffffffff8111156135a5576135a4612b57565b5b6135b187828801612e9b565b925092505092959194509250565b5f5f83601f8401126135d4576135d3612e8f565b5b8235905067ffffffffffffffff8111156135f1576135f0612e93565b5b60208301915083602082028301111561360d5761360c612e97565b5b9250929050565b5f5f6020838503121561362a57613629612b53565b5b5f83013567ffffffffffffffff81111561364757613646612b57565b5b613653858286016135bf565b92509250509250929050565b5f6040828403121561367457613673612b5b565b5b81905092915050565b5f5f5f6080848603121561369457613693612b53565b5b5f84013567ffffffffffffffff8111156136b1576136b0612b57565b5b6136bd86828701612b5f565b93505060206136ce8682870161365f565b92505060606136df86828701612f06565b9150509250925092565b6136f281612e5c565b82525050565b61370181613040565b82525050565b604082015f82015161371b5f850182612bc4565b50602082015161372e6020850182612bc4565b50505050565b608082015f8201516137485f8501826136e9565b50602082015161375b60208501826136f8565b50604082015161376e6040850182613707565b50505050565b5f60c0820190506137875f830185613734565b6137946080830184612d7d565b9392505050565b5f606082840312156137b0576137af612b53565b5b5f6137bd84828501612e3e565b91505092915050565b5f815190506137d481612ef0565b92915050565b5f602082840312156137ef576137ee612b53565b5b5f6137fc848285016137c6565b91505092915050565b61380e81612b19565b8114613818575f5ffd5b50565b5f8151905061382981613805565b92915050565b5f6020828403121561384457613843612b53565b5b5f6138518482850161381b565b91505092915050565b7f4e487b71000000000000000000000000000000000000000000000000000000005f52604160045260245ffd5b613890816130b0565b82525050565b5f6040820190506138a95f830185613887565b6138b66020830184613526565b9392505050565b7f4e487b71000000000000000000000000000000000000000000000000000000005f52602260045260245ffd5b5f600282049050600182168061390157607f821691505b602082108103613914576139136138bd565b5b50919050565b61392382612c69565b810181811067ffffffffffffffff821117156139425761394161385a565b5b80604052505050565b5f613954612b4a565b9050613960828261391a565b919050565b5f67ffffffffffffffff82111561397f5761397e61385a565b5b602082029050602081019050919050565b5f5ffd5b5f5ffd5b5f5ffd5b5f67ffffffffffffffff8211156139b6576139b561385a565b5b6139bf82612c69565b9050602081019050919050565b828183375f83830152505050565b5f6139ec6139e78461399c565b61394b565b905082815260208101848484011115613a0857613a07613998565b5b613a138482856139cc565b509392505050565b5f82601f830112613a2f57613a2e612e8f565b5b8135613a3f8482602086016139da565b91505092915050565b5f60608284031215613a5d57613a5c613990565b5b613a67606061394b565b90505f613a76848285016130d5565b5f830152506020613a8984828501613212565b602083015250604082013567ffffffffffffffff811115613aad57613aac613994565b5b613ab984828501613a1b565b60408301525092915050565b5f613ad7613ad284613965565b61394b565b90508083825260208201905060208402830185811115613afa57613af9612e97565b5b835b81811015613b4157803567ffffffffffffffff811115613b1f57613b1e612e8f565b5b808601613b2c8982613a48565b85526020850194505050602081019050613afc565b5050509392505050565b5f613b57368484613ac5565b905092915050565b5f5ffd5b5f5ffd5b5f5f85851115613b7a57613b79613b5f565b5b83861115613b8b57613b8a613b63565b5b6001850283019150848603905094509492505050565b5f81905092915050565b5f613bb582613264565b613bbf8185613ba1565b9350613bcf818560208601612c5b565b80840191505092915050565b5f613be68385613ba1565b9350613bf38385846139cc565b82840190509392505050565b5f613c0a8286613bab565b9150613c17828486613bdb565b9150819050949350505050565b5f613c2f838561326e565b9350613c3c8385846139cc565b613c4583612c69565b840190509392505050565b5f6020820190508181035f830152613c69818486613c24565b90509392505050565b7f4e487b71000000000000000000000000000000000000000000000000000000005f52603260045260245ffd5b5f5ffd5b5f5ffd5b5f5ffd5b5f8235600161014003833603038112613cc757613cc6613c9f565b5b80830191505092915050565b5f5f83356001602003843603038112613cef57613cee613c9f565b5b80840192508235915067ffffffffffffffff821115613d1157613d10613ca3565b5b602083019250600182023603831315613d2d57613d2c613ca7565b5b509250929050565b5f613d4360208401846130d5565b905092915050565b613d54816130b0565b82525050565b5f613d686020840184612e7b565b905092915050565b613d7981613040565b8114613d83575f5ffd5b50565b5f81359050613d9481613d70565b92915050565b5f613da86020840184613d86565b905092915050565b60608201613dc05f830183613d35565b613dcc5f850182613d4b565b50613dda6020830183613d5a565b613de760208501826136e9565b50613df56040830183613d9a565b613e0260408501826136f8565b50505050565b5f60e082019050613e1b5f83018a613db0565b613e286060830189613526565b8181036080830152613e3b818789613c24565b9050613e4a60a0830186612e16565b81810360c0830152613e5d818486613c24565b905098975050505050505050565b5f613e7d613e788461399c565b61394b565b905082815260208101848484011115613e9957613e98613998565b5b613ea4848285612c5b565b509392505050565b5f82601f830112613ec057613ebf612e8f565b5b8151613ed0848260208601613e6b565b91505092915050565b5f60208284031215613eee57613eed612b53565b5b5f82015167ffffffffffffffff811115613f0b57613f0a612b57565b5b613f1784828501613eac565b91505092915050565b5f604082019050613f335f830185612b22565b613f406020830184612b22565b9392505050565b5f602082019050613f5a5f830184613887565b92915050565b5f60208284031215613f7557613f74612b53565b5b5f613f8284828501613d86565b91505092915050565b5f819050919050565b5f613fae613fa9613fa484613f8b565b6132fe565b612fd1565b9050919050565b613fbe81613f94565b82525050565b5f608082019050613fd75f830187612e16565b613fe46020830186613526565b613ff16040830185613fb5565b8181036060830152614003818461327e565b905095945050505050565b5f6040820190506140215f830185613887565b61402e6020830184612b22565b9392505050565b5f6040820190508181035f83015261404d818561327e565b90508181036020830152614061818461327e565b90509392505050565b5f8151905061407881613132565b92915050565b5f6020828403121561409357614092612b53565b5b5f6140a08482850161406a565b91505092915050565b5f82825260208201905092915050565b5f6140c382613264565b6140cd81856140a9565b93506140dd818560208601612c5b565b6140e681612c69565b840191505092915050565b6140fa81613127565b82525050565b5f60a083015f8301516141155f860182613d4b565b50602083015161412860208601826136e9565b506040830151848203604086015261414082826140b9565b9150506060830151848203606086015261415a82826140b9565b915050608083015161416f60808601826140f1565b508091505092915050565b5f6040820190508181035f8301526141928185614100565b90506141a16020830184612e16565b9392505050565b5f604082840312156141bd576141bc613990565b5b6141c7604061394b565b90505f6141d68482850161381b565b5f8301525060206141e98482850161381b565b60208301525092915050565b5f6040828403121561420a57614209612b53565b5b5f614217848285016141a8565b91505092915050565b5f819050815f5260205f209050919050565b5f6020601f8301049050919050565b5f82821b905092915050565b5f6008830261427c7fffffffffffffffffffffffffffffffffffffffffffffffffffffffffffffffff82614241565b6142868683614241565b95508019841693508086168417925050509392505050565b5f6142b86142b36142ae84612b19565b6132fe565b612b19565b9050919050565b5f819050919050565b6142d18361429e565b6142e56142dd826142bf565b84845461424d565b825550505050565b5f5f905090565b6142fc6142ed565b6143078184846142c8565b505050565b5b8181101561432a5761431f5f826142f4565b60018101905061430d565b5050565b601f82111561436f5761434081614220565b61434984614232565b81016020851015614358578190505b61436c61436485614232565b83018261430c565b50505b505050565b5f82821c905092915050565b5f61438f5f1984600802614374565b1980831691505092915050565b5f6143a78383614380565b9150826002028217905092915050565b6143c082613264565b67ffffffffffffffff8111156143d9576143d861385a565b5b6143e382546138ea565b6143ee82828561432e565b5f60209050601f83116001811461441f575f841561440d578287015190505b614417858261439c565b86555061447e565b601f19841661442d86614220565b5f5b828110156144545784890151825560018201915060208501945060208101905061442f565b86831015614471578489015161446d601f891682614380565b8355505b6001600288020188555050505b505050505050565b5f81519050919050565b5f82825260208201905092915050565b5f819050602082019050919050565b6144b881612fd1565b82525050565b5f606083015f8301516144d35f860182613d4b565b5060208301516144e660208601826144af565b50604083015184820360408601526144fe82826140b9565b9150508091505092915050565b5f61451683836144be565b905092915050565b5f602082019050919050565b5f61453482614486565b61453e8185614490565b935083602082028501614550856144a0565b805f5b8581101561458b578484038952815161456c858261450b565b94506145778361451e565b925060208a01995050600181019050614553565b50829750879550505050505092915050565b5f6020820190508181035f8301526145b5818461452a565b905092915050565b5f813590506145cb81613805565b92915050565b5f604082840312156145e6576145e5613990565b5b6145f0604061394b565b90505f6145ff848285016145bd565b5f830152506020614612848285016145bd565b60208301525092915050565b5f6040828403121561463357614632612b53565b5b5f614640848285016145d1565b91505092915050565b5f60608201905061465c5f830186613887565b6146696020830185612b22565b6146766040830184612b22565b949350505050565b7f4e487b71000000000000000000000000000000000000000000000000000000005f52601260045260245ffd5b7f4e487b71000000000000000000000000000000000000000000000000000000005f52601160045260245ffd5b5f6146e282612b19565b91506146ed83612b19565b9250826146fd576146fc61467e565b5b828204905092915050565b5f61471282612b19565b915061471d83612b19565b925082820261472b81612b19565b91508282048414831517614742576147416146ab565b5b5092915050565b5f82905092915050565b5f61475e8383614749565b826147698135612e5c565b925060208210156147a9576147a47fffffffffffffffffffffffffffffffffffffffffffffffffffffffffffffffff83602003600802614241565b831692505b505092915050565b5f7fffffffffffffffff00000000000000000000000000000000000000000000000082169050919050565b5f6147e78383614749565b826147f281356147b1565b925060088210156148325761482d7fffffffffffffffff00000000000000000000000000000000000000000000000083600803600802614241565b831692505b505092915050565b5f60408201905061484d5f830185612e16565b61485a6020830184612b22565b9392505050565b5f8160c01b9050919050565b5f61487782614861565b9050919050565b61488f61488a82613040565b61486d565b82525050565b5f8160e01b9050919050565b5f6148ab82614895565b9050919050565b6148c36148be826130b0565b6148a1565b82525050565b5f819050919050565b6148e36148de82612b19565b6148c9565b82525050565b5f6148f4828761487e565b60088201915061490482866148b2565b60048201915061491482856148d2565b6020820191506149248284613bab565b915081905095945050505050565b5f819050919050565b61494c61494782612e5c565b614932565b82525050565b5f61495d828561493b565b60208201915061496d828461487e565b6008820191508190509392505050565b5f614988828761493b565b602082019150614998828661487e565b6008820191506149a8828561493b565b6020820191506149b88284613bab565b915081905095945050505050565b5f815190506149d481612e65565b92915050565b5f815190506149e881613d70565b92915050565b5f60808284031215614a0357614a02613990565b5b614a0d606061394b565b90505f614a1c848285016149c6565b5f830152506020614a2f848285016149da565b6020830152506040614a43848285016141a8565b60408301525092915050565b5f60808284031215614a6457614a63612b53565b5b5f614a71848285016149ee565b91505092915050565b5f606082019050614a8d5f830186612e16565b614a9a6020830185612e16565b614aa76040830184612b22565b94935050505056fea2646970667358221220e498b6956c10375dfe39b453bab5714c72da111c6efef21ea2916aadabefe3cd64736f6c634300081e0033","linkReferences":{}},"methodIdentifiers":{"SEND()":"1f5e1334","SEND_AND_CALL()":"134d4f25","SETTLEMENT_CHAIN_ID()":"017c25a7","allowInitializePath((uint32,bytes32,uint64))":"ff7bd03d","approvalRequired()":"9f68b964","combineOptions(uint32,uint16,bytes)":"bc70b354","decimalConversionRate()":"963efcaa","elevatedMinterBurner()":"8108bb7e","endpoint()":"5e280f11","enforcedOptions(uint32,uint16)":"5535d461","isComposeMsgSender((uint32,bytes32,uint64),bytes,address)":"82413eac","isPeer(uint32,bytes32)":"5a0dfe4d","lzReceive((uint32,bytes32,uint64),bytes32,bytes,address,bytes)":"13137d65","lzReceiveAndRevert(((uint32,bytes32,uint64),uint32,address,bytes32,uint256,address,bytes,bytes)[])":"bd815db0","lzReceiveSimulate((uint32,bytes32,uint64),bytes32,bytes,address,bytes)":"d045a0dc","msgInspector()":"111ecdad","nextNonce(uint32,bytes32)":"7d25a05e","oApp()":"52ae2879","oAppVersion()":"17442b70","oftVersion()":"156a0d0f","owner()":"8da5cb5b","peers(uint32)":"bb0b6a53","preCrime()":"b731ea0a","quoteOFT((uint32,bytes32,uint256,uint256,bytes,bytes,bytes))":"0d35b415","quoteSend((uint32,bytes32,uint256,uint256,bytes,bytes,bytes),bool)":"3b6f743b","renounceOwnership()":"715018a6","send((uint32,bytes32,uint256,uint256,bytes,bytes,bytes),(uint256,uint256),address)":"c7c7f5b3","setDelegate(address)":"ca5eb5e1","setElevatedMinterBurner(address)":"bc4565c4","setEnforcedOptions((uint32,uint16,bytes)[])":"b98bd070","setMsgInspector(address)":"6fc1b31e","setPeer(uint32,bytes32)":"3400288b","setPreCrime(address)":"d4243885","sharedDecimals()":"857749b0","token()":"fc0c546a","tokenOft()":"ccae6664","transferOwnership(address)":"f2fde38b"},"id":152}