{"abi":[{"type":"constructor","inputs":[],"stateMutability":"nonpayable"},{"type":"fallback","stateMutability":"nonpayable"},{"type":"receive","stateMutability":"payable"},{"type":"function","name":"DEX_ROUTER","inputs":[],"outputs":[{"name":"","type":"address","internalType":"address"}],"stateMutability":"view"},{"type":"function","name":"OWNER_SHARE","inputs":[],"outputs":[{"name":"","type":"uint256","internalType":"uint256"}],"stateMutability":"view"},{"type":"function","name":"PERCENTAGE_DIVISOR","inputs":[],"outputs":[{"name":"","type":"uint256","internalType":"uint256"}],"stateMutability":"view"},{"type":"function","name":"PROTOCOL_SHARE","inputs":[],"outputs":[{"name":"","type":"uint256","internalType":"uint256"}],"stateMutability":"view"},{"type":"function","name":"WRAPPED_NATIVE","inputs":[],"outputs":[{"name":"","type":"address","internalType":"address"}],"stateMutability":"view"},{"type":"function","name":"executeBuyback","inputs":[{"name":"tokenIn","type":"address","internalType":"address"},{"name":"amountIn","type":"uint256","internalType":"uint256"},{"name":"amountOutMinimum","type":"uint256","internalType":"uint256"},{"name":"fee","type":"uint24","internalType":"uint24"},{"name":"deadline","type":"uint256","internalType":"uint256"}],"outputs":[{"name":"totalWNativeReceived","type":"uint256","internalType":"uint256"}],"stateMutability":"nonpayable"},{"type":"function","name":"executeBuybackSimple","inputs":[{"name":"tokenIn","type":"address","internalType":"address"},{"name":"amountIn","type":"uint256","internalType":"uint256"},{"name":"amountOutMinimum","type":"uint256","internalType":"uint256"},{"name":"fee","type":"uint24","internalType":"uint24"}],"outputs":[{"name":"totalWNativeReceived","type":"uint256","internalType":"uint256"}],"stateMutability":"nonpayable"},{"type":"function","name":"getOwnerAvailableBalance","inputs":[{"name":"token","type":"address","internalType":"address"}],"outputs":[{"name":"","type":"uint256","internalType":"uint256"}],"stateMutability":"view"},{"type":"function","name":"getProtocolFee","inputs":[{"name":"_token","type":"address","internalType":"address"}],"outputs":[{"name":"","type":"uint256","internalType":"uint256"}],"stateMutability":"view"},{"type":"function","name":"getProtocolLockedBalance","inputs":[{"name":"token","type":"address","internalType":"address"}],"outputs":[{"name":"","type":"uint256","internalType":"uint256"}],"stateMutability":"view"},{"type":"function","name":"getTotalProtocolBalance","inputs":[{"name":"token","type":"address","internalType":"address"}],"outputs":[{"name":"","type":"uint256","internalType":"uint256"}],"stateMutability":"view"},{"type":"function","name":"owner","inputs":[],"outputs":[{"name":"","type":"address","internalType":"address"}],"stateMutability":"view"},{"type":"function","name":"ownerAvailableBalance","inputs":[{"name":"","type":"address","internalType":"address"}],"outputs":[{"name":"","type":"uint256","internalType":"uint256"}],"stateMutability":"view"},{"type":"function","name":"protocolFees","inputs":[{"name":"","type":"address","internalType":"address"}],"outputs":[{"name":"","type":"uint256","internalType":"uint256"}],"stateMutability":"view"},{"type":"function","name":"protocolLockedBalance","inputs":[{"name":"","type":"address","internalType":"address"}],"outputs":[{"name":"","type":"uint256","internalType":"uint256"}],"stateMutability":"view"},{"type":"function","name":"renounceOwnership","inputs":[],"outputs":[],"stateMutability":"nonpayable"},{"type":"function","name":"setProtocolFee","inputs":[{"name":"_token","type":"address","internalType":"address"},{"name":"_fee","type":"uint256","internalType":"uint256"}],"outputs":[],"stateMutability":"nonpayable"},{"type":"function","name":"transferOwnership","inputs":[{"name":"newOwner","type":"address","internalType":"address"}],"outputs":[],"stateMutability":"nonpayable"},{"type":"function","name":"withdraw","inputs":[{"name":"token","type":"address","internalType":"address"},{"name":"amount","type":"uint256","internalType":"uint256"},{"name":"unwrapToNative","type":"bool","internalType":"bool"}],"outputs":[],"stateMutability":"nonpayable"},{"type":"function","name":"withdraw","inputs":[{"name":"token","type":"address","internalType":"address"},{"name":"amount","type":"uint256","internalType":"uint256"}],"outputs":[],"stateMutability":"nonpayable"},{"type":"function","name":"withdrawOwnerBalance","inputs":[{"name":"token","type":"address","internalType":"address"},{"name":"amount","type":"uint256","internalType":"uint256"},{"name":"unwrapToNative","type":"bool","internalType":"bool"}],"outputs":[],"stateMutability":"nonpayable"},{"type":"function","name":"withdrawOwnerBalance","inputs":[{"name":"token","type":"address","internalType":"address"},{"name":"amount","type":"uint256","internalType":"uint256"}],"outputs":[],"stateMutability":"nonpayable"},{"type":"event","name":"BuybackExecuted","inputs":[{"name":"tokenIn","type":"address","indexed":true,"internalType":"address"},{"name":"totalAmountIn","type":"uint256","indexed":false,"internalType":"uint256"},{"name":"protocolAmount","type":"uint256","indexed":false,"internalType":"uint256"},{"name":"ownerAmount","type":"uint256","indexed":false,"internalType":"uint256"},{"name":"wnativeReceived","type":"uint256","indexed":false,"internalType":"uint256"}],"anonymous":false},{"type":"event","name":"OwnershipTransferred","inputs":[{"name":"previousOwner","type":"address","indexed":true,"internalType":"address"},{"name":"newOwner","type":"address","indexed":true,"internalType":"address"}],"anonymous":false},{"type":"event","name":"ProtocolFeeSet","inputs":[{"name":"token","type":"address","indexed":true,"internalType":"address"},{"name":"fee","type":"uint256","indexed":false,"internalType":"uint256"}],"anonymous":false},{"type":"error","name":"CannotSwapWNativeForWNative","inputs":[]},{"type":"error","name":"DeadlinePassed","inputs":[]},{"type":"error","name":"InsufficientBalance","inputs":[{"name":"token","type":"address","internalType":"address"},{"name":"amount","type":"uint256","internalType":"uint256"}]},{"type":"error","name":"InsufficientOutputAmount","inputs":[{"name":"expectedMinimum","type":"uint256","internalType":"uint256"},{"name":"actualOutput","type":"uint256","internalType":"uint256"}]},{"type":"error","name":"InvalidAmount","inputs":[]},{"type":"error","name":"InvalidTokenAddress","inputs":[]},{"type":"error","name":"OwnableInvalidOwner","inputs":[{"name":"owner","type":"address","internalType":"address"}]},{"type":"error","name":"OwnableUnauthorizedAccount","inputs":[{"name":"account","type":"address","internalType":"address"}]},{"type":"error","name":"ReentrancyGuardReentrantCall","inputs":[]},{"type":"error","name":"SafeERC20FailedOperation","inputs":[{"name":"token","type":"address","internalType":"address"}]},{"type":"error","name":"SwapFailed","inputs":[{"name":"tokenIn","type":"address","internalType":"address"},{"name":"tokenOut","type":"address","internalType":"address"},{"name":"amountIn","type":"uint256","internalType":"uint256"}]}],"bytecode":{"object":"0x608060405234801561000f575f5ffd5b503360015f819055505f73ffffffffffffffffffffffffffffffffffffffff168173ffffffffffffffffffffffffffffffffffffffff1603610088575f6040517f1e4fbdf700000000000000000000000000000000000000000000000000000000815260040161007f919061019f565b60405180910390fd5b6100978161009d60201b60201c565b506101b8565b5f60015f9054906101000a900473ffffffffffffffffffffffffffffffffffffffff1690508160015f6101000a81548173ffffffffffffffffffffffffffffffffffffffff021916908373ffffffffffffffffffffffffffffffffffffffff1602179055508173ffffffffffffffffffffffffffffffffffffffff168173ffffffffffffffffffffffffffffffffffffffff167f8be0079c531659141344cd1fd0a4f28419497f9722a3daafe3b4186f6b6457e060405160405180910390a35050565b5f73ffffffffffffffffffffffffffffffffffffffff82169050919050565b5f61018982610160565b9050919050565b6101998161017f565b82525050565b5f6020820190506101b25f830184610190565b92915050565b6121e9806101c55f395ff3fe608060405260043610610138575f3560e01c8063a467e0a8116100aa578063dcf844a71161006e578063dcf844a71461051a578063ead5d35914610556578063ee191b601461057e578063f2fde38b146105a6578063f3fef3a3146105ce578063fc55e013146105f6576101b9565b8063a467e0a814610426578063b5b3ca2c14610462578063c16b10c71461048a578063caf29765146104c6578063d999984d146104f0576101b9565b80636a1c6e78116100fc5780636a1c6e781461031a5780636c95996d14610344578063715018a6146103805780637826477e146103965780637af11ac0146103d25780638da5cb5b146103fc576101b9565b80630a992e0c1461020057806317930f261461023c578063233dde751461027857806325e900bb146102b457806351adc761146102f0576101b9565b366101b9575f3411156101b7577319aac5f612f524b754ca7e7c41cbfa2e981a443273ffffffffffffffffffffffffffffffffffffffff1663d0e30db0346040518263ffffffff1660e01b81526004015f604051808303818588803b15801561019f575f5ffd5b505af11580156101b1573d5f5f3e3d5ffd5b50505050505b005b3480156101c4575f5ffd5b506040517f08c379a00000000000000000000000000000000000000000000000000000000081526004016101f790611ac6565b60405180910390fd5b34801561020b575f5ffd5b5061022660048036038101906102219190611b42565b61061e565b6040516102339190611b85565b60405180910390f35b348015610247575f5ffd5b50610262600480360381019061025d9190611b42565b6106b8565b60405161026f9190611b85565b60405180910390f35b348015610283575f5ffd5b5061029e60048036038101906102999190611b42565b610738565b6040516102ab9190611b85565b60405180910390f35b3480156102bf575f5ffd5b506102da60048036038101906102d59190611b42565b61074d565b6040516102e79190611b85565b60405180910390f35b3480156102fb575f5ffd5b50610304610793565b6040516103119190611b85565b60405180910390f35b348015610325575f5ffd5b5061032e610798565b60405161033b9190611b85565b60405180910390f35b34801561034f575f5ffd5b5061036a60048036038101906103659190611c00565b61079d565b6040516103779190611b85565b60405180910390f35b34801561038b575f5ffd5b506103946107ca565b005b3480156103a1575f5ffd5b506103bc60048036038101906103b79190611b42565b6107dd565b6040516103c99190611b85565b60405180910390f35b3480156103dd575f5ffd5b506103e66107f2565b6040516103f39190611c73565b60405180910390f35b348015610407575f5ffd5b5061041061080a565b60405161041d9190611c73565b60405180910390f35b348015610431575f5ffd5b5061044c60048036038101906104479190611b42565b610832565b6040516104599190611b85565b60405180910390f35b34801561046d575f5ffd5b5061048860048036038101906104839190611c8c565b610878565b005b348015610495575f5ffd5b506104b060048036038101906104ab9190611cca565b610914565b6040516104bd9190611b85565b60405180910390f35b3480156104d1575f5ffd5b506104da61093d565b6040516104e79190611b85565b60405180910390f35b3480156104fb575f5ffd5b50610504610942565b6040516105119190611c73565b60405180910390f35b348015610525575f5ffd5b50610540600480360381019061053b9190611b42565b61095a565b60405161054d9190611b85565b60405180910390f35b348015610561575f5ffd5b5061057c60048036038101906105779190611d76565b61096f565b005b348015610589575f5ffd5b506105a4600480360381019061059f9190611d76565b610d02565b005b3480156105b1575f5ffd5b506105cc60048036038101906105c79190611b42565b610fdc565b005b3480156105d9575f5ffd5b506105f460048036038101906105ef9190611c8c565b611060565b005b348015610601575f5ffd5b5061061c60048036038101906106179190611c8c565b611087565b005b5f5f60045f8473ffffffffffffffffffffffffffffffffffffffff1673ffffffffffffffffffffffffffffffffffffffff1681526020019081526020015f2054036106725766038d7ea4c6800090506106b3565b60045f8373ffffffffffffffffffffffffffffffffffffffff1673ffffffffffffffffffffffffffffffffffffffff1681526020019081526020015f205490505b919050565b5f8173ffffffffffffffffffffffffffffffffffffffff166370a08231306040518263ffffffff1660e01b81526004016106f29190611c73565b602060405180830381865afa15801561070d573d5f5f3e3d5ffd5b505050506040513d601f19601f820116820180604052508101906107319190611dda565b9050919050565b6002602052805f5260405f205f915090505481565b5f60025f8373ffffffffffffffffffffffffffffffffffffffff1673ffffffffffffffffffffffffffffffffffffffff1681526020019081526020015f20549050919050565b605f81565b600581565b5f6107a661109e565b6107c085858585610e10426107bb9190611e32565b611125565b9050949350505050565b6107d261109e565b6107db5f61183b565b565b6003602052805f5260405f205f915090505481565b73a324880f884036e3d21a09b90269e1ac57c7ec8a81565b5f60015f9054906101000a900473ffffffffffffffffffffffffffffffffffffffff16905090565b5f60035f8373ffffffffffffffffffffffffffffffffffffffff1673ffffffffffffffffffffffffffffffffffffffff1681526020019081526020015f20549050919050565b61088061109e565b8060045f8473ffffffffffffffffffffffffffffffffffffffff1673ffffffffffffffffffffffffffffffffffffffff1681526020019081526020015f20819055508173ffffffffffffffffffffffffffffffffffffffff167fa1ee82e4f177a8017f33ddddac05b7ceab1de9d46f7195e15e8aa2e8b88f3b1c826040516109089190611b85565b60405180910390a25050565b5f61091d6118fe565b61092a8686868686611125565b9050610934611942565b95945050505050565b606481565b7319aac5f612f524b754ca7e7c41cbfa2e981a443281565b6004602052805f5260405f205f915090505481565b6109776118fe565b61097f61109e565b7319aac5f612f524b754ca7e7c41cbfa2e981a443273ffffffffffffffffffffffffffffffffffffffff168373ffffffffffffffffffffffffffffffffffffffff1603610c0b57817319aac5f612f524b754ca7e7c41cbfa2e981a443273ffffffffffffffffffffffffffffffffffffffff166370a08231306040518263ffffffff1660e01b8152600401610a149190611c73565b602060405180830381865afa158015610a2f573d5f5f3e3d5ffd5b505050506040513d601f19601f82011682018060405250810190610a539190611dda565b1015610a985782826040517ff6deaa04000000000000000000000000000000000000000000000000000000008152600401610a8f929190611e65565b60405180910390fd5b8015610bc6577319aac5f612f524b754ca7e7c41cbfa2e981a443273ffffffffffffffffffffffffffffffffffffffff16632e1a7d4d836040518263ffffffff1660e01b8152600401610aeb9190611b85565b5f604051808303815f87803b158015610b02575f5ffd5b505af1158015610b14573d5f5f3e3d5ffd5b505050505f3373ffffffffffffffffffffffffffffffffffffffff1683604051610b3d90611eb9565b5f6040518083038185875af1925050503d805f8114610b77576040519150601f19603f3d011682016040523d82523d5f602084013e610b7c565b606091505b5050905080610bc0576040517f08c379a0000000000000000000000000000000000000000000000000000000008152600401610bb790611f17565b60405180910390fd5b50610c06565b610c0533837319aac5f612f524b754ca7e7c41cbfa2e981a443273ffffffffffffffffffffffffffffffffffffffff1661194b9092919063ffffffff16565b5b610cf5565b818373ffffffffffffffffffffffffffffffffffffffff166370a08231306040518263ffffffff1660e01b8152600401610c459190611c73565b602060405180830381865afa158015610c60573d5f5f3e3d5ffd5b505050506040513d601f19601f82011682018060405250810190610c849190611dda565b1015610cc95782826040517ff6deaa04000000000000000000000000000000000000000000000000000000008152600401610cc0929190611e65565b60405180910390fd5b610cf433838573ffffffffffffffffffffffffffffffffffffffff1661194b9092919063ffffffff16565b5b610cfd611942565b505050565b610d0a6118fe565b610d1261109e565b60035f8473ffffffffffffffffffffffffffffffffffffffff1673ffffffffffffffffffffffffffffffffffffffff1681526020019081526020015f2054821115610d965782826040517ff6deaa04000000000000000000000000000000000000000000000000000000008152600401610d8d929190611e65565b60405180910390fd5b8160035f8573ffffffffffffffffffffffffffffffffffffffff1673ffffffffffffffffffffffffffffffffffffffff1681526020019081526020015f205f828254610de29190611f35565b925050819055507319aac5f612f524b754ca7e7c41cbfa2e981a443273ffffffffffffffffffffffffffffffffffffffff168373ffffffffffffffffffffffffffffffffffffffff1603610fa3578015610f5e577319aac5f612f524b754ca7e7c41cbfa2e981a443273ffffffffffffffffffffffffffffffffffffffff16632e1a7d4d836040518263ffffffff1660e01b8152600401610e839190611b85565b5f604051808303815f87803b158015610e9a575f5ffd5b505af1158015610eac573d5f5f3e3d5ffd5b505050505f3373ffffffffffffffffffffffffffffffffffffffff1683604051610ed590611eb9565b5f6040518083038185875af1925050503d805f8114610f0f576040519150601f19603f3d011682016040523d82523d5f602084013e610f14565b606091505b5050905080610f58576040517f08c379a0000000000000000000000000000000000000000000000000000000008152600401610f4f90611f17565b60405180910390fd5b50610f9e565b610f9d33837319aac5f612f524b754ca7e7c41cbfa2e981a443273ffffffffffffffffffffffffffffffffffffffff1661194b9092919063ffffffff16565b5b610fcf565b610fce33838573ffffffffffffffffffffffffffffffffffffffff1661194b9092919063ffffffff16565b5b610fd7611942565b505050565b610fe461109e565b5f73ffffffffffffffffffffffffffffffffffffffff168173ffffffffffffffffffffffffffffffffffffffff1603611054575f6040517f1e4fbdf700000000000000000000000000000000000000000000000000000000815260040161104b9190611c73565b60405180910390fd5b61105d8161183b565b50565b6110686118fe565b61107061109e565b61107b82825f61096f565b611083611942565b5050565b61108f61109e565b61109a82825f610d02565b5050565b6110a66119ca565b73ffffffffffffffffffffffffffffffffffffffff166110c461080a565b73ffffffffffffffffffffffffffffffffffffffff1614611123576110e76119ca565b6040517f118cdaa700000000000000000000000000000000000000000000000000000000815260040161111a9190611c73565b60405180910390fd5b565b5f5f73ffffffffffffffffffffffffffffffffffffffff168673ffffffffffffffffffffffffffffffffffffffff160361118b576040517f1eb00b0600000000000000000000000000000000000000000000000000000000815260040160405180910390fd5b5f85036111c4576040517f2c5211c600000000000000000000000000000000000000000000000000000000815260040160405180910390fd5b4282116111fd576040517f70f65caa00000000000000000000000000000000000000000000000000000000815260040160405180910390fd5b7319aac5f612f524b754ca7e7c41cbfa2e981a443273ffffffffffffffffffffffffffffffffffffffff168673ffffffffffffffffffffffffffffffffffffffff1603611276576040517f77bb193200000000000000000000000000000000000000000000000000000000815260040160405180910390fd5b5f8673ffffffffffffffffffffffffffffffffffffffff166370a08231306040518263ffffffff1660e01b81526004016112b09190611c73565b602060405180830381865afa1580156112cb573d5f5f3e3d5ffd5b505050506040513d601f19601f820116820180604052508101906112ef9190611dda565b9050858110156113385786866040517ff6deaa0400000000000000000000000000000000000000000000000000000000815260040161132f929190611e65565b60405180910390fd5b5f6064605f886113489190611f68565b6113529190611fd6565b90505f81886113619190611f35565b90508873ffffffffffffffffffffffffffffffffffffffff1663095ea7b373a324880f884036e3d21a09b90269e1ac57c7ec8a8a6040518363ffffffff1660e01b81526004016113b2929190611e65565b6020604051808303815f875af11580156113ce573d5f5f3e3d5ffd5b505050506040513d601f19601f820116820180604052508101906113f2919061201a565b505f6040518061010001604052808b73ffffffffffffffffffffffffffffffffffffffff1681526020017319aac5f612f524b754ca7e7c41cbfa2e981a443273ffffffffffffffffffffffffffffffffffffffff1681526020018862ffffff1681526020013073ffffffffffffffffffffffffffffffffffffffff1681526020018781526020018481526020016064605f8b61148e9190611f68565b6114989190611fd6565b81526020015f73ffffffffffffffffffffffffffffffffffffffff1681525090505f73a324880f884036e3d21a09b90269e1ac57c7ec8a73ffffffffffffffffffffffffffffffffffffffff1663414bf389836040518263ffffffff1660e01b81526004016115079190612121565b6020604051808303815f875af192505050801561154257506040513d601f19601f8201168201806040525081019061153f9190611dda565b60015b61159b578a7319aac5f612f524b754ca7e7c41cbfa2e981a4432856040517f693017630000000000000000000000000000000000000000000000000000000081526004016115929392919061213b565b60405180910390fd5b809150508060025f7319aac5f612f524b754ca7e7c41cbfa2e981a443273ffffffffffffffffffffffffffffffffffffffff1673ffffffffffffffffffffffffffffffffffffffff1681526020019081526020015f205f8282546115ff9190611e32565b925050819055505f5f90505f8411156117ca57838360a001818152505061162461080a565b836060019073ffffffffffffffffffffffffffffffffffffffff16908173ffffffffffffffffffffffffffffffffffffffff1681525050606460058b61166a9190611f68565b6116749190611fd6565b8360c001818152505073a324880f884036e3d21a09b90269e1ac57c7ec8a73ffffffffffffffffffffffffffffffffffffffff1663414bf389846040518263ffffffff1660e01b81526004016116ca9190612121565b6020604051808303815f875af192505050801561170557506040513d601f19601f820116820180604052508101906117029190611dda565b60015b61175e578b7319aac5f612f524b754ca7e7c41cbfa2e981a4432856040517f693017630000000000000000000000000000000000000000000000000000000081526004016117559392919061213b565b60405180910390fd5b8091508160035f7319aac5f612f524b754ca7e7c41cbfa2e981a443273ffffffffffffffffffffffffffffffffffffffff1673ffffffffffffffffffffffffffffffffffffffff1681526020019081526020015f205f8282546117c19190611e32565b92505081905550505b80826117d69190611e32565b96508b73ffffffffffffffffffffffffffffffffffffffff167faf366b19453ca08fb17cdfa68aabc4aa2127edc0b322a6f2fcd8c6d525dcf50d8c87878b6040516118249493929190612170565b60405180910390a250505050505095945050505050565b5f60015f9054906101000a900473ffffffffffffffffffffffffffffffffffffffff1690508160015f6101000a81548173ffffffffffffffffffffffffffffffffffffffff021916908373ffffffffffffffffffffffffffffffffffffffff1602179055508173ffffffffffffffffffffffffffffffffffffffff168173ffffffffffffffffffffffffffffffffffffffff167f8be0079c531659141344cd1fd0a4f28419497f9722a3daafe3b4186f6b6457e060405160405180910390a35050565b60025f5403611939576040517f3ee5aeb500000000000000000000000000000000000000000000000000000000815260040160405180910390fd5b60025f81905550565b60015f81905550565b6119c5838473ffffffffffffffffffffffffffffffffffffffff1663a9059cbb858560405160240161197e929190611e65565b604051602081830303815290604052915060e01b6020820180517bffffffffffffffffffffffffffffffffffffffffffffffffffffffff83818316178352505050506119d1565b505050565b5f33905090565b5f5f60205f8451602086015f885af1806119f0576040513d5f823e3d81fd5b3d92505f519150505f8214611a09576001811415611a24565b5f8473ffffffffffffffffffffffffffffffffffffffff163b145b15611a6657836040517f5274afe7000000000000000000000000000000000000000000000000000000008152600401611a5d9190611c73565b60405180910390fd5b50505050565b5f82825260208201905092915050565b7f46616c6c6261636b206e6f7420616c6c6f7765640000000000000000000000005f82015250565b5f611ab0601483611a6c565b9150611abb82611a7c565b602082019050919050565b5f6020820190508181035f830152611add81611aa4565b9050919050565b5f5ffd5b5f73ffffffffffffffffffffffffffffffffffffffff82169050919050565b5f611b1182611ae8565b9050919050565b611b2181611b07565b8114611b2b575f5ffd5b50565b5f81359050611b3c81611b18565b92915050565b5f60208284031215611b5757611b56611ae4565b5b5f611b6484828501611b2e565b91505092915050565b5f819050919050565b611b7f81611b6d565b82525050565b5f602082019050611b985f830184611b76565b92915050565b611ba781611b6d565b8114611bb1575f5ffd5b50565b5f81359050611bc281611b9e565b92915050565b5f62ffffff82169050919050565b611bdf81611bc8565b8114611be9575f5ffd5b50565b5f81359050611bfa81611bd6565b92915050565b5f5f5f5f60808587031215611c1857611c17611ae4565b5b5f611c2587828801611b2e565b9450506020611c3687828801611bb4565b9350506040611c4787828801611bb4565b9250506060611c5887828801611bec565b91505092959194509250565b611c6d81611b07565b82525050565b5f602082019050611c865f830184611c64565b92915050565b5f5f60408385031215611ca257611ca1611ae4565b5b5f611caf85828601611b2e565b9250506020611cc085828601611bb4565b9150509250929050565b5f5f5f5f5f60a08688031215611ce357611ce2611ae4565b5b5f611cf088828901611b2e565b9550506020611d0188828901611bb4565b9450506040611d1288828901611bb4565b9350506060611d2388828901611bec565b9250506080611d3488828901611bb4565b9150509295509295909350565b5f8115159050919050565b611d5581611d41565b8114611d5f575f5ffd5b50565b5f81359050611d7081611d4c565b92915050565b5f5f5f60608486031215611d8d57611d8c611ae4565b5b5f611d9a86828701611b2e565b9350506020611dab86828701611bb4565b9250506040611dbc86828701611d62565b9150509250925092565b5f81519050611dd481611b9e565b92915050565b5f60208284031215611def57611dee611ae4565b5b5f611dfc84828501611dc6565b91505092915050565b7f4e487b71000000000000000000000000000000000000000000000000000000005f52601160045260245ffd5b5f611e3c82611b6d565b9150611e4783611b6d565b9250828201905080821115611e5f57611e5e611e05565b5b92915050565b5f604082019050611e785f830185611c64565b611e856020830184611b76565b9392505050565b5f81905092915050565b50565b5f611ea45f83611e8c565b9150611eaf82611e96565b5f82019050919050565b5f611ec382611e99565b9150819050919050565b7f4661696c656420746f2073656e64206e617469766520746f6b656e00000000005f82015250565b5f611f01601b83611a6c565b9150611f0c82611ecd565b602082019050919050565b5f6020820190508181035f830152611f2e81611ef5565b9050919050565b5f611f3f82611b6d565b9150611f4a83611b6d565b9250828203905081811115611f6257611f61611e05565b5b92915050565b5f611f7282611b6d565b9150611f7d83611b6d565b9250828202611f8b81611b6d565b91508282048414831517611fa257611fa1611e05565b5b5092915050565b7f4e487b71000000000000000000000000000000000000000000000000000000005f52601260045260245ffd5b5f611fe082611b6d565b9150611feb83611b6d565b925082611ffb57611ffa611fa9565b5b828204905092915050565b5f8151905061201481611d4c565b92915050565b5f6020828403121561202f5761202e611ae4565b5b5f61203c84828501612006565b91505092915050565b61204e81611b07565b82525050565b61205d81611bc8565b82525050565b61206c81611b6d565b82525050565b61207b81611ae8565b82525050565b61010082015f8201516120965f850182612045565b5060208201516120a96020850182612045565b5060408201516120bc6040850182612054565b5060608201516120cf6060850182612045565b5060808201516120e26080850182612063565b5060a08201516120f560a0850182612063565b5060c082015161210860c0850182612063565b5060e082015161211b60e0850182612072565b50505050565b5f610100820190506121355f830184612081565b92915050565b5f60608201905061214e5f830186611c64565b61215b6020830185611c64565b6121686040830184611b76565b949350505050565b5f6080820190506121835f830187611b76565b6121906020830186611b76565b61219d6040830185611b76565b6121aa6060830184611b76565b9594505050505056fea26469706673582212209cfe4e24fec8dc47ffa6e0b1ca80aa992734b0cdb2b35c0a698de7f4a973a38c64736f6c634300081e0033","linkReferences":{}},"methodIdentifiers":{"DEX_ROUTER()":"7af11ac0","OWNER_SHARE()":"6a1c6e78","PERCENTAGE_DIVISOR()":"caf29765","PROTOCOL_SHARE()":"51adc761","WRAPPED_NATIVE()":"d999984d","executeBuyback(address,uint256,uint256,uint24,uint256)":"c16b10c7","executeBuybackSimple(address,uint256,uint256,uint24)":"6c95996d","getOwnerAvailableBalance(address)":"a467e0a8","getProtocolFee(address)":"0a992e0c","getProtocolLockedBalance(address)":"25e900bb","getTotalProtocolBalance(address)":"17930f26","owner()":"8da5cb5b","ownerAvailableBalance(address)":"7826477e","protocolFees(address)":"dcf844a7","protocolLockedBalance(address)":"233dde75","renounceOwnership()":"715018a6","setProtocolFee(address,uint256)":"b5b3ca2c","transferOwnership(address)":"f2fde38b","withdraw(address,uint256)":"f3fef3a3","withdraw(address,uint256,bool)":"ead5d359","withdrawOwnerBalance(address,uint256)":"fc55e013","withdrawOwnerBalance(address,uint256,bool)":"ee191b60"},"id":224}