{"abi":[{"type":"constructor","inputs":[],"stateMutability":"nonpayable"},{"type":"function","name":"DEFAULT_ADMIN_ROLE","inputs":[],"outputs":[{"name":"","type":"bytes32","internalType":"bytes32"}],"stateMutability":"view"},{"type":"function","name":"MINTER_ROLE","inputs":[],"outputs":[{"name":"","type":"bytes32","internalType":"bytes32"}],"stateMutability":"view"},{"type":"function","name":"OWNER_ROLE","inputs":[],"outputs":[{"name":"","type":"bytes32","internalType":"bytes32"}],"stateMutability":"view"},{"type":"function","name":"UPGRADER_ROLE","inputs":[],"outputs":[{"name":"","type":"bytes32","internalType":"bytes32"}],"stateMutability":"view"},{"type":"function","name":"UPGRADE_INTERFACE_VERSION","inputs":[],"outputs":[{"name":"","type":"string","internalType":"string"}],"stateMutability":"view"},{"type":"function","name":"allowance","inputs":[{"name":"owner","type":"address","internalType":"address"},{"name":"spender","type":"address","internalType":"address"}],"outputs":[{"name":"","type":"uint256","internalType":"uint256"}],"stateMutability":"view"},{"type":"function","name":"approve","inputs":[{"name":"spender","type":"address","internalType":"address"},{"name":"value","type":"uint256","internalType":"uint256"}],"outputs":[{"name":"","type":"bool","internalType":"bool"}],"stateMutability":"nonpayable"},{"type":"function","name":"balanceOf","inputs":[{"name":"account","type":"address","internalType":"address"}],"outputs":[{"name":"","type":"uint256","internalType":"uint256"}],"stateMutability":"view"},{"type":"function","name":"burn","inputs":[{"name":"_from","type":"address","internalType":"address"},{"name":"_amount","type":"uint256","internalType":"uint256"}],"outputs":[],"stateMutability":"nonpayable"},{"type":"function","name":"decimals","inputs":[],"outputs":[{"name":"","type":"uint8","internalType":"uint8"}],"stateMutability":"view"},{"type":"function","name":"getRoleAdmin","inputs":[{"name":"role","type":"bytes32","internalType":"bytes32"}],"outputs":[{"name":"","type":"bytes32","internalType":"bytes32"}],"stateMutability":"view"},{"type":"function","name":"grantRole","inputs":[{"name":"role","type":"bytes32","internalType":"bytes32"},{"name":"account","type":"address","internalType":"address"}],"outputs":[],"stateMutability":"nonpayable"},{"type":"function","name":"hasRole","inputs":[{"name":"role","type":"bytes32","internalType":"bytes32"},{"name":"account","type":"address","internalType":"address"}],"outputs":[{"name":"","type":"bool","internalType":"bool"}],"stateMutability":"view"},{"type":"function","name":"initialize","inputs":[{"name":"_name","type":"string","internalType":"string"},{"name":"_symbol","type":"string","internalType":"string"},{"name":"_decimals","type":"uint8","internalType":"uint8"}],"outputs":[],"stateMutability":"nonpayable"},{"type":"function","name":"mint","inputs":[{"name":"_to","type":"address","internalType":"address"},{"name":"_amount","type":"uint256","internalType":"uint256"}],"outputs":[],"stateMutability":"nonpayable"},{"type":"function","name":"name","inputs":[],"outputs":[{"name":"","type":"string","internalType":"string"}],"stateMutability":"view"},{"type":"function","name":"pause","inputs":[],"outputs":[],"stateMutability":"nonpayable"},{"type":"function","name":"paused","inputs":[],"outputs":[{"name":"","type":"bool","internalType":"bool"}],"stateMutability":"view"},{"type":"function","name":"proxiableUUID","inputs":[],"outputs":[{"name":"","type":"bytes32","internalType":"bytes32"}],"stateMutability":"view"},{"type":"function","name":"renounceRole","inputs":[{"name":"role","type":"bytes32","internalType":"bytes32"},{"name":"callerConfirmation","type":"address","internalType":"address"}],"outputs":[],"stateMutability":"nonpayable"},{"type":"function","name":"revokeRole","inputs":[{"name":"role","type":"bytes32","internalType":"bytes32"},{"name":"account","type":"address","internalType":"address"}],"outputs":[],"stateMutability":"nonpayable"},{"type":"function","name":"supportsInterface","inputs":[{"name":"interfaceId","type":"bytes4","internalType":"bytes4"}],"outputs":[{"name":"","type":"bool","internalType":"bool"}],"stateMutability":"view"},{"type":"function","name":"symbol","inputs":[],"outputs":[{"name":"","type":"string","internalType":"string"}],"stateMutability":"view"},{"type":"function","name":"totalSupply","inputs":[],"outputs":[{"name":"","type":"uint256","internalType":"uint256"}],"stateMutability":"view"},{"type":"function","name":"transfer","inputs":[{"name":"to","type":"address","internalType":"address"},{"name":"value","type":"uint256","internalType":"uint256"}],"outputs":[{"name":"","type":"bool","internalType":"bool"}],"stateMutability":"nonpayable"},{"type":"function","name":"transferFrom","inputs":[{"name":"from","type":"address","internalType":"address"},{"name":"to","type":"address","internalType":"address"},{"name":"value","type":"uint256","internalType":"uint256"}],"outputs":[{"name":"","type":"bool","internalType":"bool"}],"stateMutability":"nonpayable"},{"type":"function","name":"unpause","inputs":[],"outputs":[],"stateMutability":"nonpayable"},{"type":"function","name":"upgradeToAndCall","inputs":[{"name":"newImplementation","type":"address","internalType":"address"},{"name":"data","type":"bytes","internalType":"bytes"}],"outputs":[],"stateMutability":"payable"},{"type":"event","name":"Approval","inputs":[{"name":"owner","type":"address","indexed":true,"internalType":"address"},{"name":"spender","type":"address","indexed":true,"internalType":"address"},{"name":"value","type":"uint256","indexed":false,"internalType":"uint256"}],"anonymous":false},{"type":"event","name":"Initialized","inputs":[{"name":"version","type":"uint64","indexed":false,"internalType":"uint64"}],"anonymous":false},{"type":"event","name":"Paused","inputs":[{"name":"account","type":"address","indexed":false,"internalType":"address"}],"anonymous":false},{"type":"event","name":"RoleAdminChanged","inputs":[{"name":"role","type":"bytes32","indexed":true,"internalType":"bytes32"},{"name":"previousAdminRole","type":"bytes32","indexed":true,"internalType":"bytes32"},{"name":"newAdminRole","type":"bytes32","indexed":true,"internalType":"bytes32"}],"anonymous":false},{"type":"event","name":"RoleGranted","inputs":[{"name":"role","type":"bytes32","indexed":true,"internalType":"bytes32"},{"name":"account","type":"address","indexed":true,"internalType":"address"},{"name":"sender","type":"address","indexed":true,"internalType":"address"}],"anonymous":false},{"type":"event","name":"RoleRevoked","inputs":[{"name":"role","type":"bytes32","indexed":true,"internalType":"bytes32"},{"name":"account","type":"address","indexed":true,"internalType":"address"},{"name":"sender","type":"address","indexed":true,"internalType":"address"}],"anonymous":false},{"type":"event","name":"Transfer","inputs":[{"name":"from","type":"address","indexed":true,"internalType":"address"},{"name":"to","type":"address","indexed":true,"internalType":"address"},{"name":"value","type":"uint256","indexed":false,"internalType":"uint256"}],"anonymous":false},{"type":"event","name":"Unpaused","inputs":[{"name":"account","type":"address","indexed":false,"internalType":"address"}],"anonymous":false},{"type":"event","name":"Upgraded","inputs":[{"name":"implementation","type":"address","indexed":true,"internalType":"address"}],"anonymous":false},{"type":"error","name":"AccessControlBadConfirmation","inputs":[]},{"type":"error","name":"AccessControlUnauthorizedAccount","inputs":[{"name":"account","type":"address","internalType":"address"},{"name":"neededRole","type":"bytes32","internalType":"bytes32"}]},{"type":"error","name":"AddressEmptyCode","inputs":[{"name":"target","type":"address","internalType":"address"}]},{"type":"error","name":"ERC1967InvalidImplementation","inputs":[{"name":"implementation","type":"address","internalType":"address"}]},{"type":"error","name":"ERC1967NonPayable","inputs":[]},{"type":"error","name":"ERC20InsufficientAllowance","inputs":[{"name":"spender","type":"address","internalType":"address"},{"name":"allowance","type":"uint256","internalType":"uint256"},{"name":"needed","type":"uint256","internalType":"uint256"}]},{"type":"error","name":"ERC20InsufficientBalance","inputs":[{"name":"sender","type":"address","internalType":"address"},{"name":"balance","type":"uint256","internalType":"uint256"},{"name":"needed","type":"uint256","internalType":"uint256"}]},{"type":"error","name":"ERC20InvalidApprover","inputs":[{"name":"approver","type":"address","internalType":"address"}]},{"type":"error","name":"ERC20InvalidReceiver","inputs":[{"name":"receiver","type":"address","internalType":"address"}]},{"type":"error","name":"ERC20InvalidSender","inputs":[{"name":"sender","type":"address","internalType":"address"}]},{"type":"error","name":"ERC20InvalidSpender","inputs":[{"name":"spender","type":"address","internalType":"address"}]},{"type":"error","name":"EnforcedPause","inputs":[]},{"type":"error","name":"ExpectedPause","inputs":[]},{"type":"error","name":"FailedCall","inputs":[]},{"type":"error","name":"InvalidInitialization","inputs":[]},{"type":"error","name":"NotInitializing","inputs":[]},{"type":"error","name":"NotOperator","inputs":[]},{"type":"error","name":"UUPSUnauthorizedCallContext","inputs":[]},{"type":"error","name":"UUPSUnsupportedProxiableUUID","inputs":[{"name":"slot","type":"bytes32","internalType":"bytes32"}]}],"bytecode":{"object":"0x60a06040523073ffffffffffffffffffffffffffffffffffffffff1660809073ffffffffffffffffffffffffffffffffffffffff16815250348015610042575f5ffd5b5061005161005660201b60201c565b6101d1565b5f61006561015460201b60201c565b9050805f0160089054906101000a900460ff16156100af576040517ff92ee8a900000000000000000000000000000000000000000000000000000000815260040160405180910390fd5b67ffffffffffffffff8016815f015f9054906101000a900467ffffffffffffffff1667ffffffffffffffff16146101515767ffffffffffffffff815f015f6101000a81548167ffffffffffffffff021916908367ffffffffffffffff1602179055507fc7f505b2f371ae2175ee4913f4499e1f2633a7b5936321eed1cdaeb6115181d267ffffffffffffffff60405161014891906101b8565b60405180910390a15b50565b5f5f61016461016d60201b60201c565b90508091505090565b5f7ff0c57e16840df040f15088dc2f81fe391c3923bec73e23a9662efc9c229c6a005f1b905090565b5f67ffffffffffffffff82169050919050565b6101b281610196565b82525050565b5f6020820190506101cb5f8301846101a9565b92915050565b608051612d6e6101f75f395f818161152c01528181611581015261175e0152612d6e5ff3fe6080604052600436106101b6575f3560e01c80635c975abb116100eb578063a9059cbb11610089578063d547741f11610063578063d547741f146105e8578063dd62ed3e14610610578063e58378bb1461064c578063f72c0d8b14610676576101b6565b8063a9059cbb14610558578063ad3cb1cc14610594578063d5391393146105be576101b6565b806391d14854116100c557806391d14854146104a057806395d89b41146104dc5780639dc29fac14610506578063a217fddf1461052e576101b6565b80635c975abb1461042457806370a082311461044e5780638456cb591461048a576101b6565b80632f2ff15d116101585780633f4ba83a116101325780633f4ba83a146103a057806340c10f19146103b65780634f1ef286146103de57806352d1902d146103fa576101b6565b80632f2ff15d14610326578063313ce5671461034e57806336568abe14610378576101b6565b80631624f6c6116101945780631624f6c61461025c57806318160ddd1461028457806323b872dd146102ae578063248a9ca3146102ea576101b6565b806301ffc9a7146101ba57806306fdde03146101f6578063095ea7b314610220575b5f5ffd5b3480156101c5575f5ffd5b506101e060048036038101906101db9190612222565b6106a0565b6040516101ed9190612267565b60405180910390f35b348015610201575f5ffd5b5061020a610719565b60405161021791906122f0565b60405180910390f35b34801561022b575f5ffd5b506102466004803603810190610241919061239d565b6107b7565b6040516102539190612267565b60405180910390f35b348015610267575f5ffd5b50610282600480360381019061027d919061253d565b6107d9565b005b34801561028f575f5ffd5b50610298610a46565b6040516102a591906125d4565b60405180910390f35b3480156102b9575f5ffd5b506102d460048036038101906102cf91906125ed565b610a5d565b6040516102e19190612267565b60405180910390f35b3480156102f5575f5ffd5b50610310600480360381019061030b9190612670565b610a8b565b60405161031d91906126aa565b60405180910390f35b348015610331575f5ffd5b5061034c600480360381019061034791906126c3565b610ab5565b005b348015610359575f5ffd5b50610362610ad7565b60405161036f9190612710565b60405180910390f35b348015610383575f5ffd5b5061039e600480360381019061039991906126c3565b610af9565b005b3480156103ab575f5ffd5b506103b4610b74565b005b3480156103c1575f5ffd5b506103dc60048036038101906103d7919061239d565b610ba9565b005b6103f860048036038101906103f391906127c7565b610be2565b005b348015610405575f5ffd5b5061040e610c01565b60405161041b91906126aa565b60405180910390f35b34801561042f575f5ffd5b50610438610c32565b6040516104459190612267565b60405180910390f35b348015610459575f5ffd5b50610474600480360381019061046f9190612821565b610c54565b60405161048191906125d4565b60405180910390f35b348015610495575f5ffd5b5061049e610ca7565b005b3480156104ab575f5ffd5b506104c660048036038101906104c191906126c3565b610cdc565b6040516104d39190612267565b60405180910390f35b3480156104e7575f5ffd5b506104f0610d4d565b6040516104fd91906122f0565b60405180910390f35b348015610511575f5ffd5b5061052c6004803603810190610527919061239d565b610deb565b005b348015610539575f5ffd5b50610542610df9565b60405161054f91906126aa565b60405180910390f35b348015610563575f5ffd5b5061057e6004803603810190610579919061239d565b610dff565b60405161058b9190612267565b60405180910390f35b34801561059f575f5ffd5b506105a8610e21565b6040516105b591906122f0565b60405180910390f35b3480156105c9575f5ffd5b506105d2610e5a565b6040516105df91906126aa565b60405180910390f35b3480156105f3575f5ffd5b5061060e600480360381019061060991906126c3565b610e7e565b005b34801561061b575f5ffd5b506106366004803603810190610631919061284c565b610ea0565b60405161064391906125d4565b60405180910390f35b348015610657575f5ffd5b50610660610f30565b60405161066d91906126aa565b60405180910390f35b348015610681575f5ffd5b5061068a610f54565b60405161069791906126aa565b60405180910390f35b5f7f7965db0b000000000000000000000000000000000000000000000000000000007bffffffffffffffffffffffffffffffffffffffffffffffffffffffff1916827bffffffffffffffffffffffffffffffffffffffffffffffffffffffff19161480610712575061071182610f78565b5b9050919050565b60605f610724610fe1565b9050806003018054610735906128b7565b80601f0160208091040260200160405190810160405280929190818152602001828054610761906128b7565b80156107ac5780601f10610783576101008083540402835291602001916107ac565b820191905f5260205f20905b81548152906001019060200180831161078f57829003601f168201915b505050505091505090565b5f5f6107c1611008565b90506107ce81858561100f565b600191505092915050565b5f6107e2611021565b90505f815f0160089054906101000a900460ff161590505f825f015f9054906101000a900467ffffffffffffffff1690505f5f8267ffffffffffffffff1614801561082a5750825b90505f60018367ffffffffffffffff1614801561085d57505f3073ffffffffffffffffffffffffffffffffffffffff163b145b90508115801561086b575080155b156108a2576040517ff92ee8a900000000000000000000000000000000000000000000000000000000815260040160405180910390fd5b6001855f015f6101000a81548167ffffffffffffffff021916908367ffffffffffffffff16021790555083156108ef576001855f0160086101000a81548160ff0219169083151502179055505b6108f98888611034565b61090161104a565b610909611054565b61091161105e565b6109245f5f1b61091f611008565b611068565b506109567fb19546dff01e856fb3f010c267a7b1c60363cf8a4664e21cc89c26224620214e610951611008565b611068565b506109887f189ab7a9244df0848122154315af71fe140f3db0fe014031783b0946b8c9d2e3610983611008565b611068565b506109ba7f9f2df0fed2c77648de5860a4cc508cd0818c85b8b8a1ab4ceeef8d981c8956a66109b5611008565b611068565b505f6109c4611160565b905086815f015f6101000a81548160ff021916908360ff160217905550508315610a3c575f855f0160086101000a81548160ff0219169083151502179055507fc7f505b2f371ae2175ee4913f4499e1f2633a7b5936321eed1cdaeb6115181d26001604051610a33919061293c565b60405180910390a15b5050505050505050565b5f5f610a50610fe1565b9050806002015491505090565b5f5f610a67611008565b9050610a74858285611187565b610a7f85858561121a565b60019150509392505050565b5f5f610a9561130a565b9050805f015f8481526020019081526020015f2060010154915050919050565b610abe82610a8b565b610ac781611331565b610ad18383611068565b50505050565b5f5f610ae1611160565b9050805f015f9054906101000a900460ff1691505090565b610b01611008565b73ffffffffffffffffffffffffffffffffffffffff168173ffffffffffffffffffffffffffffffffffffffff1614610b65576040517f6697b23200000000000000000000000000000000000000000000000000000000815260040160405180910390fd5b610b6f8282611345565b505050565b7fb19546dff01e856fb3f010c267a7b1c60363cf8a4664e21cc89c26224620214e610b9e81611331565b610ba661143d565b50565b7f9f2df0fed2c77648de5860a4cc508cd0818c85b8b8a1ab4ceeef8d981c8956a6610bd381611331565b610bdd83836114ab565b505050565b610bea61152a565b610bf382611610565b610bfd828261163e565b5050565b5f610c0a61175c565b7f360894a13ba1a3210667c828492db98dca3e2076cc3735a920a3ca505d382bbc5f1b905090565b5f5f610c3c6117e3565b9050805f015f9054906101000a900460ff1691505090565b5f5f610c5e610fe1565b9050805f015f8473ffffffffffffffffffffffffffffffffffffffff1673ffffffffffffffffffffffffffffffffffffffff1681526020019081526020015f2054915050919050565b7fb19546dff01e856fb3f010c267a7b1c60363cf8a4664e21cc89c26224620214e610cd181611331565b610cd961180a565b50565b5f5f610ce661130a565b9050805f015f8581526020019081526020015f205f015f8473ffffffffffffffffffffffffffffffffffffffff1673ffffffffffffffffffffffffffffffffffffffff1681526020019081526020015f205f9054906101000a900460ff1691505092915050565b60605f610d58610fe1565b9050806004018054610d69906128b7565b80601f0160208091040260200160405190810160405280929190818152602001828054610d95906128b7565b8015610de05780601f10610db757610100808354040283529160200191610de0565b820191905f5260205f20905b815481529060010190602001808311610dc357829003601f168201915b505050505091505090565b610df58282611879565b5050565b5f5f1b81565b5f5f610e09611008565b9050610e1681858561121a565b600191505092915050565b6040518060400160405280600581526020017f352e302e3000000000000000000000000000000000000000000000000000000081525081565b7f9f2df0fed2c77648de5860a4cc508cd0818c85b8b8a1ab4ceeef8d981c8956a681565b610e8782610a8b565b610e9081611331565b610e9a8383611345565b50505050565b5f5f610eaa610fe1565b9050806001015f8573ffffffffffffffffffffffffffffffffffffffff1673ffffffffffffffffffffffffffffffffffffffff1681526020019081526020015f205f8473ffffffffffffffffffffffffffffffffffffffff1673ffffffffffffffffffffffffffffffffffffffff1681526020019081526020015f205491505092915050565b7fb19546dff01e856fb3f010c267a7b1c60363cf8a4664e21cc89c26224620214e81565b7f189ab7a9244df0848122154315af71fe140f3db0fe014031783b0946b8c9d2e381565b5f7f01ffc9a7000000000000000000000000000000000000000000000000000000007bffffffffffffffffffffffffffffffffffffffffffffffffffffffff1916827bffffffffffffffffffffffffffffffffffffffffffffffffffffffff1916149050919050565b5f7f52c63247e1f47db19d5ce0460030c497f067ca4cebf71ba98eeadabe20bace00905090565b5f33905090565b61101c83838360016118f8565b505050565b5f5f61102b611ad5565b90508091505090565b61103c611afe565b6110468282611b3e565b5050565b611052611afe565b565b61105c611afe565b565b611066611afe565b565b5f5f61107261130a565b905061107e8484610cdc565b611155576001815f015f8681526020019081526020015f205f015f8573ffffffffffffffffffffffffffffffffffffffff1673ffffffffffffffffffffffffffffffffffffffff1681526020019081526020015f205f6101000a81548160ff0219169083151502179055506110f1611008565b73ffffffffffffffffffffffffffffffffffffffff168373ffffffffffffffffffffffffffffffffffffffff16857f2f8788117e7eff1d82e926ec794901d17c78024a50270940304540a733656f0d60405160405180910390a4600191505061115a565b5f9150505b92915050565b5f7f8e94fed44239eb2314ab7a406345e6c5a8f0ccedf3b600de3d004e672c33a700905090565b5f6111928484610ea0565b90507fffffffffffffffffffffffffffffffffffffffffffffffffffffffffffffffff8110156112145781811015611205578281836040517ffb8f41b20000000000000000000000000000000000000000000000000000000081526004016111fc93929190612964565b60405180910390fd5b61121384848484035f6118f8565b5b50505050565b5f73ffffffffffffffffffffffffffffffffffffffff168373ffffffffffffffffffffffffffffffffffffffff160361128a575f6040517f96c6fd1e0000000000000000000000000000000000000000000000000000000081526004016112819190612999565b60405180910390fd5b5f73ffffffffffffffffffffffffffffffffffffffff168273ffffffffffffffffffffffffffffffffffffffff16036112fa575f6040517fec442f050000000000000000000000000000000000000000000000000000000081526004016112f19190612999565b60405180910390fd5b611305838383611b7a565b505050565b5f7f02dd7bc7dec4dceedda775e58dd541e08a116c6c53815c0bd028192f7b626800905090565b6113428161133d611008565b611da9565b50565b5f5f61134f61130a565b905061135b8484610cdc565b15611432575f815f015f8681526020019081526020015f205f015f8573ffffffffffffffffffffffffffffffffffffffff1673ffffffffffffffffffffffffffffffffffffffff1681526020019081526020015f205f6101000a81548160ff0219169083151502179055506113ce611008565b73ffffffffffffffffffffffffffffffffffffffff168373ffffffffffffffffffffffffffffffffffffffff16857ff6391f5c32d9c69d2a47ea670b442974b53935d1edc7fd64eb21e047a839171b60405160405180910390a46001915050611437565b5f9150505b92915050565b611445611dfa565b5f61144e6117e3565b90505f815f015f6101000a81548160ff0219169083151502179055507f5db9ee0a495bf2e6ff9c91a7834c1ba4fdd244a5e8aa4e537bd38aeae4b073aa611493611008565b6040516114a09190612999565b60405180910390a150565b5f73ffffffffffffffffffffffffffffffffffffffff168273ffffffffffffffffffffffffffffffffffffffff160361151b575f6040517fec442f050000000000000000000000000000000000000000000000000000000081526004016115129190612999565b60405180910390fd5b6115265f8383611b7a565b5050565b7f000000000000000000000000000000000000000000000000000000000000000073ffffffffffffffffffffffffffffffffffffffff163073ffffffffffffffffffffffffffffffffffffffff1614806115d757507f000000000000000000000000000000000000000000000000000000000000000073ffffffffffffffffffffffffffffffffffffffff166115be611e3a565b73ffffffffffffffffffffffffffffffffffffffff1614155b1561160e576040517fe07c8dba00000000000000000000000000000000000000000000000000000000815260040160405180910390fd5b565b7f189ab7a9244df0848122154315af71fe140f3db0fe014031783b0946b8c9d2e361163a81611331565b5050565b8173ffffffffffffffffffffffffffffffffffffffff166352d1902d6040518163ffffffff1660e01b8152600401602060405180830381865afa9250505080156116a657506040513d601f19601f820116820180604052508101906116a391906129c6565b60015b6116e757816040517f4c9c8ce30000000000000000000000000000000000000000000000000000000081526004016116de9190612999565b60405180910390fd5b7f360894a13ba1a3210667c828492db98dca3e2076cc3735a920a3ca505d382bbc5f1b811461174d57806040517faa1d49a400000000000000000000000000000000000000000000000000000000815260040161174491906126aa565b60405180910390fd5b6117578383611e8d565b505050565b7f000000000000000000000000000000000000000000000000000000000000000073ffffffffffffffffffffffffffffffffffffffff163073ffffffffffffffffffffffffffffffffffffffff16146117e1576040517fe07c8dba00000000000000000000000000000000000000000000000000000000815260040160405180910390fd5b565b5f7fcd5ed15c6e187e77e9aee88184c21f4f2182ab5827cb3b7e07fbedcd63f03300905090565b611812611eff565b5f61181b6117e3565b90506001815f015f6101000a81548160ff0219169083151502179055507f62e78cea01bee320cd4e420270b5ea74000d11b0c9f74754ebdbfc544b05a258611861611008565b60405161186e9190612999565b60405180910390a150565b5f73ffffffffffffffffffffffffffffffffffffffff168273ffffffffffffffffffffffffffffffffffffffff16036118e9575f6040517f96c6fd1e0000000000000000000000000000000000000000000000000000000081526004016118e09190612999565b60405180910390fd5b6118f4825f83611b7a565b5050565b5f611901610fe1565b90505f73ffffffffffffffffffffffffffffffffffffffff168573ffffffffffffffffffffffffffffffffffffffff1603611973575f6040517fe602df0500000000000000000000000000000000000000000000000000000000815260040161196a9190612999565b60405180910390fd5b5f73ffffffffffffffffffffffffffffffffffffffff168473ffffffffffffffffffffffffffffffffffffffff16036119e3575f6040517f94280d620000000000000000000000000000000000000000000000000000000081526004016119da9190612999565b60405180910390fd5b82816001015f8773ffffffffffffffffffffffffffffffffffffffff1673ffffffffffffffffffffffffffffffffffffffff1681526020019081526020015f205f8673ffffffffffffffffffffffffffffffffffffffff1673ffffffffffffffffffffffffffffffffffffffff1681526020019081526020015f20819055508115611ace578373ffffffffffffffffffffffffffffffffffffffff168573ffffffffffffffffffffffffffffffffffffffff167f8c5be1e5ebec7d5bd14f71427d1e84f3dd0314c0f7b2291e5b200ac8c7c3b92585604051611ac591906125d4565b60405180910390a35b5050505050565b5f7ff0c57e16840df040f15088dc2f81fe391c3923bec73e23a9662efc9c229c6a005f1b905090565b611b06611f40565b611b3c576040517fd7e6bcf800000000000000000000000000000000000000000000000000000000815260040160405180910390fd5b565b611b46611afe565b5f611b4f610fe1565b905082816003019081611b629190612b88565b5081816004019081611b749190612b88565b50505050565b5f611b83610fe1565b90505f73ffffffffffffffffffffffffffffffffffffffff168473ffffffffffffffffffffffffffffffffffffffff1603611bd75781816002015f828254611bcb9190612c84565b92505081905550611ca9565b5f815f015f8673ffffffffffffffffffffffffffffffffffffffff1673ffffffffffffffffffffffffffffffffffffffff1681526020019081526020015f2054905082811015611c62578481846040517fe450d38c000000000000000000000000000000000000000000000000000000008152600401611c5993929190612964565b60405180910390fd5b828103825f015f8773ffffffffffffffffffffffffffffffffffffffff1673ffffffffffffffffffffffffffffffffffffffff1681526020019081526020015f2081905550505b5f73ffffffffffffffffffffffffffffffffffffffff168373ffffffffffffffffffffffffffffffffffffffff1603611cf25781816002015f8282540392505081905550611d3e565b81815f015f8573ffffffffffffffffffffffffffffffffffffffff1673ffffffffffffffffffffffffffffffffffffffff1681526020019081526020015f205f82825401925050819055505b8273ffffffffffffffffffffffffffffffffffffffff168473ffffffffffffffffffffffffffffffffffffffff167fddf252ad1be2c89b69c2b068fc378daa952ba7f163c4a11628f55a4df523b3ef84604051611d9b91906125d4565b60405180910390a350505050565b611db38282610cdc565b611df65780826040517fe2517d3f000000000000000000000000000000000000000000000000000000008152600401611ded929190612cb7565b60405180910390fd5b5050565b611e02610c32565b611e38576040517f8dfc202b00000000000000000000000000000000000000000000000000000000815260040160405180910390fd5b565b5f611e667f360894a13ba1a3210667c828492db98dca3e2076cc3735a920a3ca505d382bbc5f1b611f5e565b5f015f9054906101000a900473ffffffffffffffffffffffffffffffffffffffff16905090565b611e9682611f67565b8173ffffffffffffffffffffffffffffffffffffffff167fbc7cd75a20ee27fd9adebab32041f755214dbc6bffa90cc0225b39da2e5c2d3b60405160405180910390a25f81511115611ef257611eec8282612030565b50611efb565b611efa6120b0565b5b5050565b611f07610c32565b15611f3e576040517fd93c066500000000000000000000000000000000000000000000000000000000815260040160405180910390fd5b565b5f611f49611021565b5f0160089054906101000a900460ff16905090565b5f819050919050565b5f8173ffffffffffffffffffffffffffffffffffffffff163b03611fc257806040517f4c9c8ce3000000000000000000000000000000000000000000000000000000008152600401611fb99190612999565b60405180910390fd5b80611fee7f360894a13ba1a3210667c828492db98dca3e2076cc3735a920a3ca505d382bbc5f1b611f5e565b5f015f6101000a81548173ffffffffffffffffffffffffffffffffffffffff021916908373ffffffffffffffffffffffffffffffffffffffff16021790555050565b60605f5f8473ffffffffffffffffffffffffffffffffffffffff16846040516120599190612d22565b5f60405180830381855af49150503d805f8114612091576040519150601f19603f3d011682016040523d82523d5f602084013e612096565b606091505b50915091506120a68583836120ec565b9250505092915050565b5f3411156120ea576040517fb398979f00000000000000000000000000000000000000000000000000000000815260040160405180910390fd5b565b606082612101576120fc82612179565b612171565b5f825114801561212757505f8473ffffffffffffffffffffffffffffffffffffffff163b145b1561216957836040517f9996b3150000000000000000000000000000000000000000000000000000000081526004016121609190612999565b60405180910390fd5b819050612172565b5b9392505050565b5f8151111561218a57805160208201fd5b6040517fd6bda27500000000000000000000000000000000000000000000000000000000815260040160405180910390fd5b5f604051905090565b5f5ffd5b5f5ffd5b5f7fffffffff0000000000000000000000000000000000000000000000000000000082169050919050565b612201816121cd565b811461220b575f5ffd5b50565b5f8135905061221c816121f8565b92915050565b5f60208284031215612237576122366121c5565b5b5f6122448482850161220e565b91505092915050565b5f8115159050919050565b6122618161224d565b82525050565b5f60208201905061227a5f830184612258565b92915050565b5f81519050919050565b5f82825260208201905092915050565b8281835e5f83830152505050565b5f601f19601f8301169050919050565b5f6122c282612280565b6122cc818561228a565b93506122dc81856020860161229a565b6122e5816122a8565b840191505092915050565b5f6020820190508181035f83015261230881846122b8565b905092915050565b5f73ffffffffffffffffffffffffffffffffffffffff82169050919050565b5f61233982612310565b9050919050565b6123498161232f565b8114612353575f5ffd5b50565b5f8135905061236481612340565b92915050565b5f819050919050565b61237c8161236a565b8114612386575f5ffd5b50565b5f8135905061239781612373565b92915050565b5f5f604083850312156123b3576123b26121c5565b5b5f6123c085828601612356565b92505060206123d185828601612389565b9150509250929050565b5f5ffd5b5f5ffd5b7f4e487b71000000000000000000000000000000000000000000000000000000005f52604160045260245ffd5b612419826122a8565b810181811067ffffffffffffffff82111715612438576124376123e3565b5b80604052505050565b5f61244a6121bc565b90506124568282612410565b919050565b5f67ffffffffffffffff821115612475576124746123e3565b5b61247e826122a8565b9050602081019050919050565b828183375f83830152505050565b5f6124ab6124a68461245b565b612441565b9050828152602081018484840111156124c7576124c66123df565b5b6124d284828561248b565b509392505050565b5f82601f8301126124ee576124ed6123db565b5b81356124fe848260208601612499565b91505092915050565b5f60ff82169050919050565b61251c81612507565b8114612526575f5ffd5b50565b5f8135905061253781612513565b92915050565b5f5f5f60608486031215612554576125536121c5565b5b5f84013567ffffffffffffffff811115612571576125706121c9565b5b61257d868287016124da565b935050602084013567ffffffffffffffff81111561259e5761259d6121c9565b5b6125aa868287016124da565b92505060406125bb86828701612529565b9150509250925092565b6125ce8161236a565b82525050565b5f6020820190506125e75f8301846125c5565b92915050565b5f5f5f60608486031215612604576126036121c5565b5b5f61261186828701612356565b935050602061262286828701612356565b925050604061263386828701612389565b9150509250925092565b5f819050919050565b61264f8161263d565b8114612659575f5ffd5b50565b5f8135905061266a81612646565b92915050565b5f60208284031215612685576126846121c5565b5b5f6126928482850161265c565b91505092915050565b6126a48161263d565b82525050565b5f6020820190506126bd5f83018461269b565b92915050565b5f5f604083850312156126d9576126d86121c5565b5b5f6126e68582860161265c565b92505060206126f785828601612356565b9150509250929050565b61270a81612507565b82525050565b5f6020820190506127235f830184612701565b92915050565b5f67ffffffffffffffff821115612743576127426123e3565b5b61274c826122a8565b9050602081019050919050565b5f61276b61276684612729565b612441565b905082815260208101848484011115612787576127866123df565b5b61279284828561248b565b509392505050565b5f82601f8301126127ae576127ad6123db565b5b81356127be848260208601612759565b91505092915050565b5f5f604083850312156127dd576127dc6121c5565b5b5f6127ea85828601612356565b925050602083013567ffffffffffffffff81111561280b5761280a6121c9565b5b6128178582860161279a565b9150509250929050565b5f60208284031215612836576128356121c5565b5b5f61284384828501612356565b91505092915050565b5f5f60408385031215612862576128616121c5565b5b5f61286f85828601612356565b925050602061288085828601612356565b9150509250929050565b7f4e487b71000000000000000000000000000000000000000000000000000000005f52602260045260245ffd5b5f60028204905060018216806128ce57607f821691505b6020821081036128e1576128e061288a565b5b50919050565b5f819050919050565b5f67ffffffffffffffff82169050919050565b5f819050919050565b5f61292661292161291c846128e7565b612903565b6128f0565b9050919050565b6129368161290c565b82525050565b5f60208201905061294f5f83018461292d565b92915050565b61295e8161232f565b82525050565b5f6060820190506129775f830186612955565b61298460208301856125c5565b61299160408301846125c5565b949350505050565b5f6020820190506129ac5f830184612955565b92915050565b5f815190506129c081612646565b92915050565b5f602082840312156129db576129da6121c5565b5b5f6129e8848285016129b2565b91505092915050565b5f819050815f5260205f209050919050565b5f6020601f8301049050919050565b5f82821b905092915050565b5f60088302612a4d7fffffffffffffffffffffffffffffffffffffffffffffffffffffffffffffffff82612a12565b612a578683612a12565b95508019841693508086168417925050509392505050565b5f612a89612a84612a7f8461236a565b612903565b61236a565b9050919050565b5f819050919050565b612aa283612a6f565b612ab6612aae82612a90565b848454612a1e565b825550505050565b5f5f905090565b612acd612abe565b612ad8818484612a99565b505050565b5b81811015612afb57612af05f82612ac5565b600181019050612ade565b5050565b601f821115612b4057612b11816129f1565b612b1a84612a03565b81016020851015612b29578190505b612b3d612b3585612a03565b830182612add565b50505b505050565b5f82821c905092915050565b5f612b605f1984600802612b45565b1980831691505092915050565b5f612b788383612b51565b9150826002028217905092915050565b612b9182612280565b67ffffffffffffffff811115612baa57612ba96123e3565b5b612bb482546128b7565b612bbf828285612aff565b5f60209050601f831160018114612bf0575f8415612bde578287015190505b612be88582612b6d565b865550612c4f565b601f198416612bfe866129f1565b5f5b82811015612c2557848901518255600182019150602085019450602081019050612c00565b86831015612c425784890151612c3e601f891682612b51565b8355505b6001600288020188555050505b505050505050565b7f4e487b71000000000000000000000000000000000000000000000000000000005f52601160045260245ffd5b5f612c8e8261236a565b9150612c998361236a565b9250828201905080821115612cb157612cb0612c57565b5b92915050565b5f604082019050612cca5f830185612955565b612cd7602083018461269b565b9392505050565b5f81519050919050565b5f81905092915050565b5f612cfc82612cde565b612d068185612ce8565b9350612d1681856020860161229a565b80840191505092915050565b5f612d2d8284612cf2565b91508190509291505056fea26469706673582212205f2e4acf611523783fcdb924fb78849117aa6f4e449d7895821e707c251f4bd264736f6c634300081e0033","linkReferences":{}},"methodIdentifiers":{"DEFAULT_ADMIN_ROLE()":"a217fddf","MINTER_ROLE()":"d5391393","OWNER_ROLE()":"e58378bb","UPGRADER_ROLE()":"f72c0d8b","UPGRADE_INTERFACE_VERSION()":"ad3cb1cc","allowance(address,address)":"dd62ed3e","approve(address,uint256)":"095ea7b3","balanceOf(address)":"70a08231","burn(address,uint256)":"9dc29fac","decimals()":"313ce567","getRoleAdmin(bytes32)":"248a9ca3","grantRole(bytes32,address)":"2f2ff15d","hasRole(bytes32,address)":"91d14854","initialize(string,string,uint8)":"1624f6c6","mint(address,uint256)":"40c10f19","name()":"06fdde03","pause()":"8456cb59","paused()":"5c975abb","proxiableUUID()":"52d1902d","renounceRole(bytes32,address)":"36568abe","revokeRole(bytes32,address)":"d547741f","supportsInterface(bytes4)":"01ffc9a7","symbol()":"95d89b41","totalSupply()":"18160ddd","transfer(address,uint256)":"a9059cbb","transferFrom(address,address,uint256)":"23b872dd","unpause()":"3f4ba83a","upgradeToAndCall(address,bytes)":"4f1ef286"},"id":96}