{"abi":[{"type":"constructor","inputs":[],"stateMutability":"nonpayable"},{"type":"function","name":"DEFAULT_ADMIN_ROLE","inputs":[],"outputs":[{"name":"","type":"bytes32","internalType":"bytes32"}],"stateMutability":"view"},{"type":"function","name":"OWNER_ROLE","inputs":[],"outputs":[{"name":"","type":"bytes32","internalType":"bytes32"}],"stateMutability":"view"},{"type":"function","name":"UPGRADER_ROLE","inputs":[],"outputs":[{"name":"","type":"bytes32","internalType":"bytes32"}],"stateMutability":"view"},{"type":"function","name":"UPGRADE_INTERFACE_VERSION","inputs":[],"outputs":[{"name":"","type":"string","internalType":"string"}],"stateMutability":"view"},{"type":"function","name":"calculateBorrowRate","inputs":[{"name":"_lendingPool","type":"address","internalType":"address"}],"outputs":[{"name":"borrowRate","type":"uint256","internalType":"uint256"}],"stateMutability":"view"},{"type":"function","name":"calculateInterest","inputs":[{"name":"_lendingPool","type":"address","internalType":"address"},{"name":"_elapsedTime","type":"uint256","internalType":"uint256"}],"outputs":[{"name":"interest","type":"uint256","internalType":"uint256"},{"name":"supplyYield","type":"uint256","internalType":"uint256"},{"name":"reserveYield","type":"uint256","internalType":"uint256"}],"stateMutability":"view"},{"type":"function","name":"getRoleAdmin","inputs":[{"name":"role","type":"bytes32","internalType":"bytes32"}],"outputs":[{"name":"","type":"bytes32","internalType":"bytes32"}],"stateMutability":"view"},{"type":"function","name":"grantRole","inputs":[{"name":"role","type":"bytes32","internalType":"bytes32"},{"name":"account","type":"address","internalType":"address"}],"outputs":[],"stateMutability":"nonpayable"},{"type":"function","name":"hasRole","inputs":[{"name":"role","type":"bytes32","internalType":"bytes32"},{"name":"account","type":"address","internalType":"address"}],"outputs":[{"name":"","type":"bool","internalType":"bool"}],"stateMutability":"view"},{"type":"function","name":"initialize","inputs":[],"outputs":[],"stateMutability":"nonpayable"},{"type":"function","name":"lendingPoolBaseRate","inputs":[{"name":"","type":"address","internalType":"address"}],"outputs":[{"name":"","type":"uint256","internalType":"uint256"}],"stateMutability":"view"},{"type":"function","name":"lendingPoolMaxRate","inputs":[{"name":"","type":"address","internalType":"address"}],"outputs":[{"name":"","type":"uint256","internalType":"uint256"}],"stateMutability":"view"},{"type":"function","name":"lendingPoolMaxUtilization","inputs":[{"name":"","type":"address","internalType":"address"}],"outputs":[{"name":"","type":"uint256","internalType":"uint256"}],"stateMutability":"view"},{"type":"function","name":"lendingPoolOptimalUtilization","inputs":[{"name":"","type":"address","internalType":"address"}],"outputs":[{"name":"","type":"uint256","internalType":"uint256"}],"stateMutability":"view"},{"type":"function","name":"lendingPoolRateAtOptimal","inputs":[{"name":"","type":"address","internalType":"address"}],"outputs":[{"name":"","type":"uint256","internalType":"uint256"}],"stateMutability":"view"},{"type":"function","name":"paused","inputs":[],"outputs":[{"name":"","type":"bool","internalType":"bool"}],"stateMutability":"view"},{"type":"function","name":"proxiableUUID","inputs":[],"outputs":[{"name":"","type":"bytes32","internalType":"bytes32"}],"stateMutability":"view"},{"type":"function","name":"renounceRole","inputs":[{"name":"role","type":"bytes32","internalType":"bytes32"},{"name":"callerConfirmation","type":"address","internalType":"address"}],"outputs":[],"stateMutability":"nonpayable"},{"type":"function","name":"revokeRole","inputs":[{"name":"role","type":"bytes32","internalType":"bytes32"},{"name":"account","type":"address","internalType":"address"}],"outputs":[],"stateMutability":"nonpayable"},{"type":"function","name":"scaledPercentage","inputs":[],"outputs":[{"name":"","type":"uint256","internalType":"uint256"}],"stateMutability":"view"},{"type":"function","name":"setLendingPoolBaseRate","inputs":[{"name":"_lendingPool","type":"address","internalType":"address"},{"name":"_rate","type":"uint256","internalType":"uint256"}],"outputs":[],"stateMutability":"nonpayable"},{"type":"function","name":"setLendingPoolMaxRate","inputs":[{"name":"_lendingPool","type":"address","internalType":"address"},{"name":"_maxRate","type":"uint256","internalType":"uint256"}],"outputs":[],"stateMutability":"nonpayable"},{"type":"function","name":"setLendingPoolMaxUtilization","inputs":[{"name":"_lendingPool","type":"address","internalType":"address"},{"name":"_utilization","type":"uint256","internalType":"uint256"}],"outputs":[],"stateMutability":"nonpayable"},{"type":"function","name":"setLendingPoolOptimalUtilization","inputs":[{"name":"_lendingPool","type":"address","internalType":"address"},{"name":"_utilization","type":"uint256","internalType":"uint256"}],"outputs":[],"stateMutability":"nonpayable"},{"type":"function","name":"setLendingPoolRateAtOptimal","inputs":[{"name":"_lendingPool","type":"address","internalType":"address"},{"name":"_rate","type":"uint256","internalType":"uint256"}],"outputs":[],"stateMutability":"nonpayable"},{"type":"function","name":"setScaledPercentage","inputs":[{"name":"_percentage","type":"uint256","internalType":"uint256"}],"outputs":[],"stateMutability":"nonpayable"},{"type":"function","name":"setTokenReserveFactor","inputs":[{"name":"_lendingPool","type":"address","internalType":"address"},{"name":"_reserveFactor","type":"uint256","internalType":"uint256"}],"outputs":[],"stateMutability":"nonpayable"},{"type":"function","name":"supportsInterface","inputs":[{"name":"interfaceId","type":"bytes4","internalType":"bytes4"}],"outputs":[{"name":"","type":"bool","internalType":"bool"}],"stateMutability":"view"},{"type":"function","name":"tokenReserveFactor","inputs":[{"name":"","type":"address","internalType":"address"}],"outputs":[{"name":"","type":"uint256","internalType":"uint256"}],"stateMutability":"view"},{"type":"function","name":"upgradeToAndCall","inputs":[{"name":"newImplementation","type":"address","internalType":"address"},{"name":"data","type":"bytes","internalType":"bytes"}],"outputs":[],"stateMutability":"payable"},{"type":"event","name":"Initialized","inputs":[{"name":"version","type":"uint64","indexed":false,"internalType":"uint64"}],"anonymous":false},{"type":"event","name":"LendingPoolBaseRateSet","inputs":[{"name":"lendingPool","type":"address","indexed":true,"internalType":"address"},{"name":"rate","type":"uint256","indexed":false,"internalType":"uint256"}],"anonymous":false},{"type":"event","name":"LendingPoolMaxRateSet","inputs":[{"name":"lendingPool","type":"address","indexed":true,"internalType":"address"},{"name":"maxRate","type":"uint256","indexed":false,"internalType":"uint256"}],"anonymous":false},{"type":"event","name":"LendingPoolMaxUtilizationSet","inputs":[{"name":"lendingPool","type":"address","indexed":true,"internalType":"address"},{"name":"utilization","type":"uint256","indexed":false,"internalType":"uint256"}],"anonymous":false},{"type":"event","name":"LendingPoolOptimalUtilizationSet","inputs":[{"name":"lendingPool","type":"address","indexed":true,"internalType":"address"},{"name":"utilization","type":"uint256","indexed":false,"internalType":"uint256"}],"anonymous":false},{"type":"event","name":"LendingPoolRateAtOptimalSet","inputs":[{"name":"lendingPool","type":"address","indexed":true,"internalType":"address"},{"name":"rate","type":"uint256","indexed":false,"internalType":"uint256"}],"anonymous":false},{"type":"event","name":"Paused","inputs":[{"name":"account","type":"address","indexed":false,"internalType":"address"}],"anonymous":false},{"type":"event","name":"RoleAdminChanged","inputs":[{"name":"role","type":"bytes32","indexed":true,"internalType":"bytes32"},{"name":"previousAdminRole","type":"bytes32","indexed":true,"internalType":"bytes32"},{"name":"newAdminRole","type":"bytes32","indexed":true,"internalType":"bytes32"}],"anonymous":false},{"type":"event","name":"RoleGranted","inputs":[{"name":"role","type":"bytes32","indexed":true,"internalType":"bytes32"},{"name":"account","type":"address","indexed":true,"internalType":"address"},{"name":"sender","type":"address","indexed":true,"internalType":"address"}],"anonymous":false},{"type":"event","name":"RoleRevoked","inputs":[{"name":"role","type":"bytes32","indexed":true,"internalType":"bytes32"},{"name":"account","type":"address","indexed":true,"internalType":"address"},{"name":"sender","type":"address","indexed":true,"internalType":"address"}],"anonymous":false},{"type":"event","name":"ScaledPercentageSet","inputs":[{"name":"percentage","type":"uint256","indexed":false,"internalType":"uint256"}],"anonymous":false},{"type":"event","name":"TokenReserveFactorSet","inputs":[{"name":"lendingPool","type":"address","indexed":true,"internalType":"address"},{"name":"reserveFactor","type":"uint256","indexed":false,"internalType":"uint256"}],"anonymous":false},{"type":"event","name":"Unpaused","inputs":[{"name":"account","type":"address","indexed":false,"internalType":"address"}],"anonymous":false},{"type":"event","name":"Upgraded","inputs":[{"name":"implementation","type":"address","indexed":true,"internalType":"address"}],"anonymous":false},{"type":"error","name":"AccessControlBadConfirmation","inputs":[]},{"type":"error","name":"AccessControlUnauthorizedAccount","inputs":[{"name":"account","type":"address","internalType":"address"},{"name":"neededRole","type":"bytes32","internalType":"bytes32"}]},{"type":"error","name":"AddressEmptyCode","inputs":[{"name":"target","type":"address","internalType":"address"}]},{"type":"error","name":"ERC1967InvalidImplementation","inputs":[{"name":"implementation","type":"address","internalType":"address"}]},{"type":"error","name":"ERC1967NonPayable","inputs":[]},{"type":"error","name":"EnforcedPause","inputs":[]},{"type":"error","name":"ExpectedPause","inputs":[]},{"type":"error","name":"FailedCall","inputs":[]},{"type":"error","name":"InvalidInitialization","inputs":[]},{"type":"error","name":"MaxUtilizationReached","inputs":[{"name":"_token","type":"address","internalType":"address"},{"name":"_utilization","type":"uint256","internalType":"uint256"},{"name":"_maxUtilization","type":"uint256","internalType":"uint256"}]},{"type":"error","name":"NotInitializing","inputs":[]},{"type":"error","name":"UUPSUnauthorizedCallContext","inputs":[]},{"type":"error","name":"UUPSUnsupportedProxiableUUID","inputs":[{"name":"slot","type":"bytes32","internalType":"bytes32"}]}],"bytecode":{"object":"0x60a06040523073ffffffffffffffffffffffffffffffffffffffff1660809073ffffffffffffffffffffffffffffffffffffffff16815250348015610042575f5ffd5b5061005161005660201b60201c565b6101d1565b5f61006561015460201b60201c565b9050805f0160089054906101000a900460ff16156100af576040517ff92ee8a900000000000000000000000000000000000000000000000000000000815260040160405180910390fd5b67ffffffffffffffff8016815f015f9054906101000a900467ffffffffffffffff1667ffffffffffffffff16146101515767ffffffffffffffff815f015f6101000a81548167ffffffffffffffff021916908367ffffffffffffffff1602179055507fc7f505b2f371ae2175ee4913f4499e1f2633a7b5936321eed1cdaeb6115181d267ffffffffffffffff60405161014891906101b8565b60405180910390a15b50565b5f5f61016461016d60201b60201c565b90508091505090565b5f7ff0c57e16840df040f15088dc2f81fe391c3923bec73e23a9662efc9c229c6a005f1b905090565b5f67ffffffffffffffff82169050919050565b6101b281610196565b82525050565b5f6020820190506101cb5f8301846101a9565b92915050565b6080516129526101f75f395f81816117cc0152818161182101526119fe01526129525ff3fe6080604052600436106101cc575f3560e01c806392f97cac116100f6578063ad3cb1cc11610094578063d547741f11610063578063d547741f14610694578063d7dc6203146106bc578063e58378bb146106fa578063f72c0d8b14610724576101cc565b8063ad3cb1cc146105de578063c404747714610608578063c95b2a8014610630578063caa71cac1461066c576101cc565b8063a217fddf116100d0578063a217fddf14610528578063a22a5fcf14610552578063a27cb7701461057a578063a96d4075146105a2576101cc565b806392f97cac1461048857806394ab9eeb146104c45780639d7da74014610500576101cc565b80634f1ef2861161016e57806372a40a061161013d57806372a40a06146103be57806377460ddb146103fa5780638129fc1c1461043657806391d148541461044c576101cc565b80634f1ef2861461032657806352d1902d146103425780635c975abb1461036c5780636ba62f7a14610396576101cc565b806325379176116101aa57806325379176146102725780632d41bdaa1461029a5780632f2ff15d146102d657806336568abe146102fe576101cc565b806301ffc9a7146101d05780631cd5ae301461020c578063248a9ca314610236575b5f5ffd5b3480156101db575f5ffd5b506101f660048036038101906101f1919061212c565b61074e565b6040516102039190612171565b60405180910390f35b348015610217575f5ffd5b506102206107c7565b60405161022d91906121a2565b60405180910390f35b348015610241575f5ffd5b5061025c600480360381019061025791906121ee565b6107cd565b6040516102699190612228565b60405180910390f35b34801561027d575f5ffd5b50610298600480360381019061029391906122c5565b6107f7565b005b3480156102a5575f5ffd5b506102c060048036038101906102bb9190612303565b6108b6565b6040516102cd91906121a2565b60405180910390f35b3480156102e1575f5ffd5b506102fc60048036038101906102f7919061232e565b6108cb565b005b348015610309575f5ffd5b50610324600480360381019061031f919061232e565b6108ed565b005b610340600480360381019061033b91906124a8565b610968565b005b34801561034d575f5ffd5b50610356610987565b6040516103639190612228565b60405180910390f35b348015610377575f5ffd5b506103806109b8565b60405161038d9190612171565b60405180910390f35b3480156103a1575f5ffd5b506103bc60048036038101906103b791906122c5565b6109da565b005b3480156103c9575f5ffd5b506103e460048036038101906103df9190612303565b610a98565b6040516103f191906121a2565b60405180910390f35b348015610405575f5ffd5b50610420600480360381019061041b9190612303565b610aad565b60405161042d91906121a2565b60405180910390f35b348015610441575f5ffd5b5061044a610ac2565b005b348015610457575f5ffd5b50610472600480360381019061046d919061232e565b610cd0565b60405161047f9190612171565b60405180910390f35b348015610493575f5ffd5b506104ae60048036038101906104a99190612303565b610d41565b6040516104bb91906121a2565b60405180910390f35b3480156104cf575f5ffd5b506104ea60048036038101906104e59190612303565b610d56565b6040516104f791906121a2565b60405180910390f35b34801561050b575f5ffd5b50610526600480360381019061052191906122c5565b611049565b005b348015610533575f5ffd5b5061053c611108565b6040516105499190612228565b60405180910390f35b34801561055d575f5ffd5b5061057860048036038101906105739190612502565b61110e565b005b348015610585575f5ffd5b506105a0600480360381019061059b91906122c5565b61117a565b005b3480156105ad575f5ffd5b506105c860048036038101906105c39190612303565b611239565b6040516105d591906121a2565b60405180910390f35b3480156105e9575f5ffd5b506105f261124e565b6040516105ff919061258d565b60405180910390f35b348015610613575f5ffd5b5061062e600480360381019061062991906122c5565b611287565b005b34801561063b575f5ffd5b5061065660048036038101906106519190612303565b611346565b60405161066391906121a2565b60405180910390f35b348015610677575f5ffd5b50610692600480360381019061068d91906122c5565b61135a565b005b34801561069f575f5ffd5b506106ba60048036038101906106b5919061232e565b611419565b005b3480156106c7575f5ffd5b506106e260048036038101906106dd91906122c5565b61143b565b6040516106f1939291906125ad565b60405180910390f35b348015610705575f5ffd5b5061070e6114e7565b60405161071b9190612228565b60405180910390f35b34801561072f575f5ffd5b5061073861150b565b6040516107459190612228565b60405180910390f35b5f7f7965db0b000000000000000000000000000000000000000000000000000000007bffffffffffffffffffffffffffffffffffffffffffffffffffffffff1916827bffffffffffffffffffffffffffffffffffffffffffffffffffffffff191614806107c057506107bf8261152f565b5b9050919050565b60055481565b5f5f6107d7611598565b9050805f015f8481526020019081526020015f2060010154915050919050565b7fb19546dff01e856fb3f010c267a7b1c60363cf8a4664e21cc89c26224620214e610821816115bf565b8160045f8573ffffffffffffffffffffffffffffffffffffffff1673ffffffffffffffffffffffffffffffffffffffff1681526020019081526020015f20819055508273ffffffffffffffffffffffffffffffffffffffff167f97695fbf55f4d399d722a5d1cc5a6818ef227afad9692399170fb8f04da0d32e836040516108a991906121a2565b60405180910390a2505050565b6006602052805f5260405f205f915090505481565b6108d4826107cd565b6108dd816115bf565b6108e783836115d3565b50505050565b6108f56116cb565b73ffffffffffffffffffffffffffffffffffffffff168173ffffffffffffffffffffffffffffffffffffffff1614610959576040517f6697b23200000000000000000000000000000000000000000000000000000000815260040160405180910390fd5b61096382826116d2565b505050565b6109706117ca565b610979826118b0565b61098382826118de565b5050565b5f6109906119fc565b7f360894a13ba1a3210667c828492db98dca3e2076cc3735a920a3ca505d382bbc5f1b905090565b5f5f6109c2611a83565b9050805f015f9054906101000a900460ff1691505090565b7fb19546dff01e856fb3f010c267a7b1c60363cf8a4664e21cc89c26224620214e610a04816115bf565b815f5f8573ffffffffffffffffffffffffffffffffffffffff1673ffffffffffffffffffffffffffffffffffffffff1681526020019081526020015f20819055508273ffffffffffffffffffffffffffffffffffffffff167f43a61934b5df42ff0bb0702e2eccb41d58baa04b2369b1bd3a74c9c167f326b383604051610a8b91906121a2565b60405180910390a2505050565b6001602052805f5260405f205f915090505481565b6003602052805f5260405f205f915090505481565b5f610acb611aaa565b90505f815f0160089054906101000a900460ff161590505f825f015f9054906101000a900467ffffffffffffffff1690505f5f8267ffffffffffffffff16148015610b135750825b90505f60018367ffffffffffffffff16148015610b4657505f3073ffffffffffffffffffffffffffffffffffffffff163b145b905081158015610b54575080155b15610b8b576040517ff92ee8a900000000000000000000000000000000000000000000000000000000815260040160405180910390fd5b6001855f015f6101000a81548167ffffffffffffffff021916908367ffffffffffffffff1602179055508315610bd8576001855f0160086101000a81548160ff0219169083151502179055505b610be0611abd565b610be8611ac7565b610bfb5f5f1b610bf66116cb565b6115d3565b50610c2d7fb19546dff01e856fb3f010c267a7b1c60363cf8a4664e21cc89c26224620214e610c286116cb565b6115d3565b50610c5f7f189ab7a9244df0848122154315af71fe140f3db0fe014031783b0946b8c9d2e3610c5a6116cb565b6115d3565b50670de0b6b3a76400006005819055508315610cc9575f855f0160086101000a81548160ff0219169083151502179055507fc7f505b2f371ae2175ee4913f4499e1f2633a7b5936321eed1cdaeb6115181d26001604051610cc09190612637565b60405180910390a15b5050505050565b5f5f610cda611598565b9050805f015f8581526020019081526020015f205f015f8473ffffffffffffffffffffffffffffffffffffffff1673ffffffffffffffffffffffffffffffffffffffff1681526020019081526020015f205f9054906101000a900460ff1691505092915050565b6004602052805f5260405f205f915090505481565b5f5f610d6183611ad1565b1480610d7457505f610d7283611b46565b145b15610dbd575f5f8373ffffffffffffffffffffffffffffffffffffffff1673ffffffffffffffffffffffffffffffffffffffff1681526020019081526020015f20549050611044565b5f610dc783611ad1565b600554610dd385611b46565b610ddd919061267d565b610de791906126eb565b90505f5f5f8573ffffffffffffffffffffffffffffffffffffffff1673ffffffffffffffffffffffffffffffffffffffff1681526020019081526020015f205490505f60025f8673ffffffffffffffffffffffffffffffffffffffff1673ffffffffffffffffffffffffffffffffffffffff1681526020019081526020015f205490505f60015f8773ffffffffffffffffffffffffffffffffffffffff1673ffffffffffffffffffffffffffffffffffffffff1681526020019081526020015f2054905060035f8773ffffffffffffffffffffffffffffffffffffffff1673ffffffffffffffffffffffffffffffffffffffff1681526020019081526020015f20548410610f7557610ef886611bbb565b8460035f8973ffffffffffffffffffffffffffffffffffffffff1673ffffffffffffffffffffffffffffffffffffffff1681526020019081526020015f20546040517fb0789174000000000000000000000000000000000000000000000000000000008152600401610f6c9392919061272a565b60405180910390fd5b818411610fb057818382610f89919061275f565b85610f94919061267d565b610f9e91906126eb565b83610fa99190612792565b945061103f565b5f8285610fbd919061275f565b90505f83600554610fce919061275f565b9050808360065f8b73ffffffffffffffffffffffffffffffffffffffff1673ffffffffffffffffffffffffffffffffffffffff1681526020019081526020015f205461101a919061275f565b83611025919061267d565b61102f91906126eb565b8361103a9190612792565b965050505b505050505b919050565b7fb19546dff01e856fb3f010c267a7b1c60363cf8a4664e21cc89c26224620214e611073816115bf565b8160035f8573ffffffffffffffffffffffffffffffffffffffff1673ffffffffffffffffffffffffffffffffffffffff1681526020019081526020015f20819055508273ffffffffffffffffffffffffffffffffffffffff167fac541568ea722ed3ddfe9ec2a75b913dafce54004a8a0e1e6fc745602e6421d2836040516110fb91906121a2565b60405180910390a2505050565b5f5f1b81565b7fb19546dff01e856fb3f010c267a7b1c60363cf8a4664e21cc89c26224620214e611138816115bf565b816005819055507ff9598f8ae26e4d04fc2773146b39aeb2d0c01c0fcf8f9c1fc726b0d076d780258260405161116e91906121a2565b60405180910390a15050565b7fb19546dff01e856fb3f010c267a7b1c60363cf8a4664e21cc89c26224620214e6111a4816115bf565b8160025f8573ffffffffffffffffffffffffffffffffffffffff1673ffffffffffffffffffffffffffffffffffffffff1681526020019081526020015f20819055508273ffffffffffffffffffffffffffffffffffffffff167faa9741cd23ee6cc9fdd245f861b725d86cf52b396e54c39d2f209fc3c154cf6e8360405161122c91906121a2565b60405180910390a2505050565b6002602052805f5260405f205f915090505481565b6040518060400160405280600581526020017f352e302e3000000000000000000000000000000000000000000000000000000081525081565b7fb19546dff01e856fb3f010c267a7b1c60363cf8a4664e21cc89c26224620214e6112b1816115bf565b8160015f8573ffffffffffffffffffffffffffffffffffffffff1673ffffffffffffffffffffffffffffffffffffffff1681526020019081526020015f20819055508273ffffffffffffffffffffffffffffffffffffffff167ff973faa835686ae4a1ae0d9a35294e09facca3d04fbfd699cc05e8bf63e40c438360405161133991906121a2565b60405180910390a2505050565b5f602052805f5260405f205f915090505481565b7fb19546dff01e856fb3f010c267a7b1c60363cf8a4664e21cc89c26224620214e611384816115bf565b8160065f8573ffffffffffffffffffffffffffffffffffffffff1673ffffffffffffffffffffffffffffffffffffffff1681526020019081526020015f20819055508273ffffffffffffffffffffffffffffffffffffffff167fa11ddd138e01762acd5312770fdeeb3d3d2ac03fea2419be3847198fa9b4df6a8360405161140c91906121a2565b60405180910390a2505050565b611422826107cd565b61142b816115bf565b61143583836116d2565b50505050565b5f5f5f5f61144886610d56565b90505f6005548261145889611b46565b611462919061267d565b61146c91906126eb565b90506301e13380868261147f919061267d565b61148991906126eb565b945060055461149788611c30565b6005546114a4919061275f565b866114af919061267d565b6114b991906126eb565b93506005546114c788611c30565b866114d2919061267d565b6114dc91906126eb565b925050509250925092565b7fb19546dff01e856fb3f010c267a7b1c60363cf8a4664e21cc89c26224620214e81565b7f189ab7a9244df0848122154315af71fe140f3db0fe014031783b0946b8c9d2e381565b5f7f01ffc9a7000000000000000000000000000000000000000000000000000000007bffffffffffffffffffffffffffffffffffffffffffffffffffffffff1916827bffffffffffffffffffffffffffffffffffffffffffffffffffffffff1916149050919050565b5f7f02dd7bc7dec4dceedda775e58dd541e08a116c6c53815c0bd028192f7b626800905090565b6115d0816115cb6116cb565b611ccb565b50565b5f5f6115dd611598565b90506115e98484610cd0565b6116c0576001815f015f8681526020019081526020015f205f015f8573ffffffffffffffffffffffffffffffffffffffff1673ffffffffffffffffffffffffffffffffffffffff1681526020019081526020015f205f6101000a81548160ff02191690831515021790555061165c6116cb565b73ffffffffffffffffffffffffffffffffffffffff168373ffffffffffffffffffffffffffffffffffffffff16857f2f8788117e7eff1d82e926ec794901d17c78024a50270940304540a733656f0d60405160405180910390a460019150506116c5565b5f9150505b92915050565b5f33905090565b5f5f6116dc611598565b90506116e88484610cd0565b156117bf575f815f015f8681526020019081526020015f205f015f8573ffffffffffffffffffffffffffffffffffffffff1673ffffffffffffffffffffffffffffffffffffffff1681526020019081526020015f205f6101000a81548160ff02191690831515021790555061175b6116cb565b73ffffffffffffffffffffffffffffffffffffffff168373ffffffffffffffffffffffffffffffffffffffff16857ff6391f5c32d9c69d2a47ea670b442974b53935d1edc7fd64eb21e047a839171b60405160405180910390a460019150506117c4565b5f9150505b92915050565b7f000000000000000000000000000000000000000000000000000000000000000073ffffffffffffffffffffffffffffffffffffffff163073ffffffffffffffffffffffffffffffffffffffff16148061187757507f000000000000000000000000000000000000000000000000000000000000000073ffffffffffffffffffffffffffffffffffffffff1661185e611d1c565b73ffffffffffffffffffffffffffffffffffffffff1614155b156118ae576040517fe07c8dba00000000000000000000000000000000000000000000000000000000815260040160405180910390fd5b565b7f189ab7a9244df0848122154315af71fe140f3db0fe014031783b0946b8c9d2e36118da816115bf565b5050565b8173ffffffffffffffffffffffffffffffffffffffff166352d1902d6040518163ffffffff1660e01b8152600401602060405180830381865afa92505050801561194657506040513d601f19601f8201168201806040525081019061194391906127d9565b60015b61198757816040517f4c9c8ce300000000000000000000000000000000000000000000000000000000815260040161197e9190612804565b60405180910390fd5b7f360894a13ba1a3210667c828492db98dca3e2076cc3735a920a3ca505d382bbc5f1b81146119ed57806040517faa1d49a40000000000000000000000000000000000000000000000000000000081526004016119e49190612228565b60405180910390fd5b6119f78383611d6f565b505050565b7f000000000000000000000000000000000000000000000000000000000000000073ffffffffffffffffffffffffffffffffffffffff163073ffffffffffffffffffffffffffffffffffffffff1614611a81576040517fe07c8dba00000000000000000000000000000000000000000000000000000000815260040160405180910390fd5b565b5f7fcd5ed15c6e187e77e9aee88184c21f4f2182ab5827cb3b7e07fbedcd63f03300905090565b5f5f611ab4611de1565b90508091505090565b611ac5611e0a565b565b611acf611e0a565b565b5f8173ffffffffffffffffffffffffffffffffffffffff166394877fc46040518163ffffffff1660e01b8152600401602060405180830381865afa158015611b1b573d5f5f3e3d5ffd5b505050506040513d601f19601f82011682018060405250810190611b3f9190612831565b9050919050565b5f8173ffffffffffffffffffffffffffffffffffffffff16631aad44c26040518163ffffffff1660e01b8152600401602060405180830381865afa158015611b90573d5f5f3e3d5ffd5b505050506040513d601f19601f82011682018060405250810190611bb49190612831565b9050919050565b5f8173ffffffffffffffffffffffffffffffffffffffff1663456dc17a6040518163ffffffff1660e01b8152600401602060405180830381865afa158015611c05573d5f5f3e3d5ffd5b505050506040513d601f19601f82011682018060405250810190611c299190612870565b9050919050565b5f5f60045f8473ffffffffffffffffffffffffffffffffffffffff1673ffffffffffffffffffffffffffffffffffffffff1681526020019081526020015f205403611c855767016345785d8a00009050611cc6565b60045f8373ffffffffffffffffffffffffffffffffffffffff1673ffffffffffffffffffffffffffffffffffffffff1681526020019081526020015f205490505b919050565b611cd58282610cd0565b611d185780826040517fe2517d3f000000000000000000000000000000000000000000000000000000008152600401611d0f92919061289b565b60405180910390fd5b5050565b5f611d487f360894a13ba1a3210667c828492db98dca3e2076cc3735a920a3ca505d382bbc5f1b611e4a565b5f015f9054906101000a900473ffffffffffffffffffffffffffffffffffffffff16905090565b611d7882611e53565b8173ffffffffffffffffffffffffffffffffffffffff167fbc7cd75a20ee27fd9adebab32041f755214dbc6bffa90cc0225b39da2e5c2d3b60405160405180910390a25f81511115611dd457611dce8282611f1c565b50611ddd565b611ddc611f9c565b5b5050565b5f7ff0c57e16840df040f15088dc2f81fe391c3923bec73e23a9662efc9c229c6a005f1b905090565b611e12611fd8565b611e48576040517fd7e6bcf800000000000000000000000000000000000000000000000000000000815260040160405180910390fd5b565b5f819050919050565b5f8173ffffffffffffffffffffffffffffffffffffffff163b03611eae57806040517f4c9c8ce3000000000000000000000000000000000000000000000000000000008152600401611ea59190612804565b60405180910390fd5b80611eda7f360894a13ba1a3210667c828492db98dca3e2076cc3735a920a3ca505d382bbc5f1b611e4a565b5f015f6101000a81548173ffffffffffffffffffffffffffffffffffffffff021916908373ffffffffffffffffffffffffffffffffffffffff16021790555050565b60605f5f8473ffffffffffffffffffffffffffffffffffffffff1684604051611f459190612906565b5f60405180830381855af49150503d805f8114611f7d576040519150601f19603f3d011682016040523d82523d5f602084013e611f82565b606091505b5091509150611f92858383611ff6565b9250505092915050565b5f341115611fd6576040517fb398979f00000000000000000000000000000000000000000000000000000000815260040160405180910390fd5b565b5f611fe1611aaa565b5f0160089054906101000a900460ff16905090565b60608261200b5761200682612083565b61207b565b5f825114801561203157505f8473ffffffffffffffffffffffffffffffffffffffff163b145b1561207357836040517f9996b31500000000000000000000000000000000000000000000000000000000815260040161206a9190612804565b60405180910390fd5b81905061207c565b5b9392505050565b5f8151111561209457805160208201fd5b6040517fd6bda27500000000000000000000000000000000000000000000000000000000815260040160405180910390fd5b5f604051905090565b5f5ffd5b5f5ffd5b5f7fffffffff0000000000000000000000000000000000000000000000000000000082169050919050565b61210b816120d7565b8114612115575f5ffd5b50565b5f8135905061212681612102565b92915050565b5f60208284031215612141576121406120cf565b5b5f61214e84828501612118565b91505092915050565b5f8115159050919050565b61216b81612157565b82525050565b5f6020820190506121845f830184612162565b92915050565b5f819050919050565b61219c8161218a565b82525050565b5f6020820190506121b55f830184612193565b92915050565b5f819050919050565b6121cd816121bb565b81146121d7575f5ffd5b50565b5f813590506121e8816121c4565b92915050565b5f60208284031215612203576122026120cf565b5b5f612210848285016121da565b91505092915050565b612222816121bb565b82525050565b5f60208201905061223b5f830184612219565b92915050565b5f73ffffffffffffffffffffffffffffffffffffffff82169050919050565b5f61226a82612241565b9050919050565b61227a81612260565b8114612284575f5ffd5b50565b5f8135905061229581612271565b92915050565b6122a48161218a565b81146122ae575f5ffd5b50565b5f813590506122bf8161229b565b92915050565b5f5f604083850312156122db576122da6120cf565b5b5f6122e885828601612287565b92505060206122f9858286016122b1565b9150509250929050565b5f60208284031215612318576123176120cf565b5b5f61232584828501612287565b91505092915050565b5f5f60408385031215612344576123436120cf565b5b5f612351858286016121da565b925050602061236285828601612287565b9150509250929050565b5f5ffd5b5f5ffd5b5f601f19601f8301169050919050565b7f4e487b71000000000000000000000000000000000000000000000000000000005f52604160045260245ffd5b6123ba82612374565b810181811067ffffffffffffffff821117156123d9576123d8612384565b5b80604052505050565b5f6123eb6120c6565b90506123f782826123b1565b919050565b5f67ffffffffffffffff82111561241657612415612384565b5b61241f82612374565b9050602081019050919050565b828183375f83830152505050565b5f61244c612447846123fc565b6123e2565b90508281526020810184848401111561246857612467612370565b5b61247384828561242c565b509392505050565b5f82601f83011261248f5761248e61236c565b5b813561249f84826020860161243a565b91505092915050565b5f5f604083850312156124be576124bd6120cf565b5b5f6124cb85828601612287565b925050602083013567ffffffffffffffff8111156124ec576124eb6120d3565b5b6124f88582860161247b565b9150509250929050565b5f60208284031215612517576125166120cf565b5b5f612524848285016122b1565b91505092915050565b5f81519050919050565b5f82825260208201905092915050565b8281835e5f83830152505050565b5f61255f8261252d565b6125698185612537565b9350612579818560208601612547565b61258281612374565b840191505092915050565b5f6020820190508181035f8301526125a58184612555565b905092915050565b5f6060820190506125c05f830186612193565b6125cd6020830185612193565b6125da6040830184612193565b949350505050565b5f819050919050565b5f67ffffffffffffffff82169050919050565b5f819050919050565b5f61262161261c612617846125e2565b6125fe565b6125eb565b9050919050565b61263181612607565b82525050565b5f60208201905061264a5f830184612628565b92915050565b7f4e487b71000000000000000000000000000000000000000000000000000000005f52601160045260245ffd5b5f6126878261218a565b91506126928361218a565b92508282026126a08161218a565b915082820484148315176126b7576126b6612650565b5b5092915050565b7f4e487b71000000000000000000000000000000000000000000000000000000005f52601260045260245ffd5b5f6126f58261218a565b91506127008361218a565b9250826127105761270f6126be565b5b828204905092915050565b61272481612260565b82525050565b5f60608201905061273d5f83018661271b565b61274a6020830185612193565b6127576040830184612193565b949350505050565b5f6127698261218a565b91506127748361218a565b925082820390508181111561278c5761278b612650565b5b92915050565b5f61279c8261218a565b91506127a78361218a565b92508282019050808211156127bf576127be612650565b5b92915050565b5f815190506127d3816121c4565b92915050565b5f602082840312156127ee576127ed6120cf565b5b5f6127fb848285016127c5565b91505092915050565b5f6020820190506128175f83018461271b565b92915050565b5f8151905061282b8161229b565b92915050565b5f60208284031215612846576128456120cf565b5b5f6128538482850161281d565b91505092915050565b5f8151905061286a81612271565b92915050565b5f60208284031215612885576128846120cf565b5b5f6128928482850161285c565b91505092915050565b5f6040820190506128ae5f83018561271b565b6128bb6020830184612219565b9392505050565b5f81519050919050565b5f81905092915050565b5f6128e0826128c2565b6128ea81856128cc565b93506128fa818560208601612547565b80840191505092915050565b5f61291182846128d6565b91508190509291505056fea264697066735822122023928c9a885044f947b213582b415c2b43f59eac2ba06b5ec618ae4b2568639d64736f6c634300081e0033","linkReferences":{}},"methodIdentifiers":{"DEFAULT_ADMIN_ROLE()":"a217fddf","OWNER_ROLE()":"e58378bb","UPGRADER_ROLE()":"f72c0d8b","UPGRADE_INTERFACE_VERSION()":"ad3cb1cc","calculateBorrowRate(address)":"94ab9eeb","calculateInterest(address,uint256)":"d7dc6203","getRoleAdmin(bytes32)":"248a9ca3","grantRole(bytes32,address)":"2f2ff15d","hasRole(bytes32,address)":"91d14854","initialize()":"8129fc1c","lendingPoolBaseRate(address)":"c95b2a80","lendingPoolMaxRate(address)":"2d41bdaa","lendingPoolMaxUtilization(address)":"77460ddb","lendingPoolOptimalUtilization(address)":"a96d4075","lendingPoolRateAtOptimal(address)":"72a40a06","paused()":"5c975abb","proxiableUUID()":"52d1902d","renounceRole(bytes32,address)":"36568abe","revokeRole(bytes32,address)":"d547741f","scaledPercentage()":"1cd5ae30","setLendingPoolBaseRate(address,uint256)":"6ba62f7a","setLendingPoolMaxRate(address,uint256)":"caa71cac","setLendingPoolMaxUtilization(address,uint256)":"9d7da740","setLendingPoolOptimalUtilization(address,uint256)":"a27cb770","setLendingPoolRateAtOptimal(address,uint256)":"c4047477","setScaledPercentage(uint256)":"a22a5fcf","setTokenReserveFactor(address,uint256)":"25379176","supportsInterface(bytes4)":"01ffc9a7","tokenReserveFactor(address)":"92f97cac","upgradeToAndCall(address,bytes)":"4f1ef286"},"id":155}