{"abi":[{"type":"constructor","inputs":[],"stateMutability":"nonpayable"},{"type":"function","name":"DEFAULT_ADMIN_ROLE","inputs":[],"outputs":[{"name":"","type":"bytes32","internalType":"bytes32"}],"stateMutability":"view"},{"type":"function","name":"MINTER_ROLE","inputs":[],"outputs":[{"name":"","type":"bytes32","internalType":"bytes32"}],"stateMutability":"view"},{"type":"function","name":"OWNER_ROLE","inputs":[],"outputs":[{"name":"","type":"bytes32","internalType":"bytes32"}],"stateMutability":"view"},{"type":"function","name":"UPGRADER_ROLE","inputs":[],"outputs":[{"name":"","type":"bytes32","internalType":"bytes32"}],"stateMutability":"view"},{"type":"function","name":"UPGRADE_INTERFACE_VERSION","inputs":[],"outputs":[{"name":"","type":"string","internalType":"string"}],"stateMutability":"view"},{"type":"function","name":"allowance","inputs":[{"name":"owner","type":"address","internalType":"address"},{"name":"spender","type":"address","internalType":"address"}],"outputs":[{"name":"","type":"uint256","internalType":"uint256"}],"stateMutability":"view"},{"type":"function","name":"approve","inputs":[{"name":"spender","type":"address","internalType":"address"},{"name":"value","type":"uint256","internalType":"uint256"}],"outputs":[{"name":"","type":"bool","internalType":"bool"}],"stateMutability":"nonpayable"},{"type":"function","name":"balanceOf","inputs":[{"name":"account","type":"address","internalType":"address"}],"outputs":[{"name":"","type":"uint256","internalType":"uint256"}],"stateMutability":"view"},{"type":"function","name":"burn","inputs":[{"name":"_from","type":"address","internalType":"address"},{"name":"_amount","type":"uint256","internalType":"uint256"}],"outputs":[],"stateMutability":"nonpayable"},{"type":"function","name":"decimals","inputs":[],"outputs":[{"name":"","type":"uint8","internalType":"uint8"}],"stateMutability":"pure"},{"type":"function","name":"getRoleAdmin","inputs":[{"name":"role","type":"bytes32","internalType":"bytes32"}],"outputs":[{"name":"","type":"bytes32","internalType":"bytes32"}],"stateMutability":"view"},{"type":"function","name":"grantRole","inputs":[{"name":"role","type":"bytes32","internalType":"bytes32"},{"name":"account","type":"address","internalType":"address"}],"outputs":[],"stateMutability":"nonpayable"},{"type":"function","name":"hasRole","inputs":[{"name":"role","type":"bytes32","internalType":"bytes32"},{"name":"account","type":"address","internalType":"address"}],"outputs":[{"name":"","type":"bool","internalType":"bool"}],"stateMutability":"view"},{"type":"function","name":"initialize","inputs":[],"outputs":[],"stateMutability":"nonpayable"},{"type":"function","name":"mint","inputs":[{"name":"_to","type":"address","internalType":"address"},{"name":"_amount","type":"uint256","internalType":"uint256"}],"outputs":[],"stateMutability":"nonpayable"},{"type":"function","name":"name","inputs":[],"outputs":[{"name":"","type":"string","internalType":"string"}],"stateMutability":"view"},{"type":"function","name":"pause","inputs":[],"outputs":[],"stateMutability":"nonpayable"},{"type":"function","name":"paused","inputs":[],"outputs":[{"name":"","type":"bool","internalType":"bool"}],"stateMutability":"view"},{"type":"function","name":"proxiableUUID","inputs":[],"outputs":[{"name":"","type":"bytes32","internalType":"bytes32"}],"stateMutability":"view"},{"type":"function","name":"renounceRole","inputs":[{"name":"role","type":"bytes32","internalType":"bytes32"},{"name":"callerConfirmation","type":"address","internalType":"address"}],"outputs":[],"stateMutability":"nonpayable"},{"type":"function","name":"revokeRole","inputs":[{"name":"role","type":"bytes32","internalType":"bytes32"},{"name":"account","type":"address","internalType":"address"}],"outputs":[],"stateMutability":"nonpayable"},{"type":"function","name":"supportsInterface","inputs":[{"name":"interfaceId","type":"bytes4","internalType":"bytes4"}],"outputs":[{"name":"","type":"bool","internalType":"bool"}],"stateMutability":"view"},{"type":"function","name":"symbol","inputs":[],"outputs":[{"name":"","type":"string","internalType":"string"}],"stateMutability":"view"},{"type":"function","name":"totalSupply","inputs":[],"outputs":[{"name":"","type":"uint256","internalType":"uint256"}],"stateMutability":"view"},{"type":"function","name":"transfer","inputs":[{"name":"to","type":"address","internalType":"address"},{"name":"value","type":"uint256","internalType":"uint256"}],"outputs":[{"name":"","type":"bool","internalType":"bool"}],"stateMutability":"nonpayable"},{"type":"function","name":"transferFrom","inputs":[{"name":"from","type":"address","internalType":"address"},{"name":"to","type":"address","internalType":"address"},{"name":"value","type":"uint256","internalType":"uint256"}],"outputs":[{"name":"","type":"bool","internalType":"bool"}],"stateMutability":"nonpayable"},{"type":"function","name":"unpause","inputs":[],"outputs":[],"stateMutability":"nonpayable"},{"type":"function","name":"upgradeToAndCall","inputs":[{"name":"newImplementation","type":"address","internalType":"address"},{"name":"data","type":"bytes","internalType":"bytes"}],"outputs":[],"stateMutability":"payable"},{"type":"event","name":"Approval","inputs":[{"name":"owner","type":"address","indexed":true,"internalType":"address"},{"name":"spender","type":"address","indexed":true,"internalType":"address"},{"name":"value","type":"uint256","indexed":false,"internalType":"uint256"}],"anonymous":false},{"type":"event","name":"Initialized","inputs":[{"name":"version","type":"uint64","indexed":false,"internalType":"uint64"}],"anonymous":false},{"type":"event","name":"Paused","inputs":[{"name":"account","type":"address","indexed":false,"internalType":"address"}],"anonymous":false},{"type":"event","name":"RoleAdminChanged","inputs":[{"name":"role","type":"bytes32","indexed":true,"internalType":"bytes32"},{"name":"previousAdminRole","type":"bytes32","indexed":true,"internalType":"bytes32"},{"name":"newAdminRole","type":"bytes32","indexed":true,"internalType":"bytes32"}],"anonymous":false},{"type":"event","name":"RoleGranted","inputs":[{"name":"role","type":"bytes32","indexed":true,"internalType":"bytes32"},{"name":"account","type":"address","indexed":true,"internalType":"address"},{"name":"sender","type":"address","indexed":true,"internalType":"address"}],"anonymous":false},{"type":"event","name":"RoleRevoked","inputs":[{"name":"role","type":"bytes32","indexed":true,"internalType":"bytes32"},{"name":"account","type":"address","indexed":true,"internalType":"address"},{"name":"sender","type":"address","indexed":true,"internalType":"address"}],"anonymous":false},{"type":"event","name":"Transfer","inputs":[{"name":"from","type":"address","indexed":true,"internalType":"address"},{"name":"to","type":"address","indexed":true,"internalType":"address"},{"name":"value","type":"uint256","indexed":false,"internalType":"uint256"}],"anonymous":false},{"type":"event","name":"Unpaused","inputs":[{"name":"account","type":"address","indexed":false,"internalType":"address"}],"anonymous":false},{"type":"event","name":"Upgraded","inputs":[{"name":"implementation","type":"address","indexed":true,"internalType":"address"}],"anonymous":false},{"type":"error","name":"AccessControlBadConfirmation","inputs":[]},{"type":"error","name":"AccessControlUnauthorizedAccount","inputs":[{"name":"account","type":"address","internalType":"address"},{"name":"neededRole","type":"bytes32","internalType":"bytes32"}]},{"type":"error","name":"AddressEmptyCode","inputs":[{"name":"target","type":"address","internalType":"address"}]},{"type":"error","name":"ERC1967InvalidImplementation","inputs":[{"name":"implementation","type":"address","internalType":"address"}]},{"type":"error","name":"ERC1967NonPayable","inputs":[]},{"type":"error","name":"ERC20InsufficientAllowance","inputs":[{"name":"spender","type":"address","internalType":"address"},{"name":"allowance","type":"uint256","internalType":"uint256"},{"name":"needed","type":"uint256","internalType":"uint256"}]},{"type":"error","name":"ERC20InsufficientBalance","inputs":[{"name":"sender","type":"address","internalType":"address"},{"name":"balance","type":"uint256","internalType":"uint256"},{"name":"needed","type":"uint256","internalType":"uint256"}]},{"type":"error","name":"ERC20InvalidApprover","inputs":[{"name":"approver","type":"address","internalType":"address"}]},{"type":"error","name":"ERC20InvalidReceiver","inputs":[{"name":"receiver","type":"address","internalType":"address"}]},{"type":"error","name":"ERC20InvalidSender","inputs":[{"name":"sender","type":"address","internalType":"address"}]},{"type":"error","name":"ERC20InvalidSpender","inputs":[{"name":"spender","type":"address","internalType":"address"}]},{"type":"error","name":"EnforcedPause","inputs":[]},{"type":"error","name":"ExpectedPause","inputs":[]},{"type":"error","name":"FailedCall","inputs":[]},{"type":"error","name":"InvalidInitialization","inputs":[]},{"type":"error","name":"NotInitializing","inputs":[]},{"type":"error","name":"NotOperator","inputs":[]},{"type":"error","name":"UUPSUnauthorizedCallContext","inputs":[]},{"type":"error","name":"UUPSUnsupportedProxiableUUID","inputs":[{"name":"slot","type":"bytes32","internalType":"bytes32"}]}],"bytecode":{"object":"0x60a06040523073ffffffffffffffffffffffffffffffffffffffff1660809073ffffffffffffffffffffffffffffffffffffffff16815250348015610042575f5ffd5b5061005161005660201b60201c565b6101d1565b5f61006561015460201b60201c565b9050805f0160089054906101000a900460ff16156100af576040517ff92ee8a900000000000000000000000000000000000000000000000000000000815260040160405180910390fd5b67ffffffffffffffff8016815f015f9054906101000a900467ffffffffffffffff1667ffffffffffffffff16146101515767ffffffffffffffff815f015f6101000a81548167ffffffffffffffff021916908367ffffffffffffffff1602179055507fc7f505b2f371ae2175ee4913f4499e1f2633a7b5936321eed1cdaeb6115181d267ffffffffffffffff60405161014891906101b8565b60405180910390a15b50565b5f5f61016461016d60201b60201c565b90508091505090565b5f7ff0c57e16840df040f15088dc2f81fe391c3923bec73e23a9662efc9c229c6a005f1b905090565b5f67ffffffffffffffff82169050919050565b6101b281610196565b82525050565b5f6020820190506101cb5f8301846101a9565b92915050565b608051612bfe6101f75f395f81816114a1015281816114f601526116d30152612bfe5ff3fe6080604052600436106101b6575f3560e01c806370a08231116100eb578063a9059cbb11610089578063d547741f11610063578063d547741f146105d6578063dd62ed3e146105fe578063e58378bb1461063a578063f72c0d8b14610664576101b6565b8063a9059cbb14610546578063ad3cb1cc14610582578063d5391393146105ac576101b6565b806391d14854116100c557806391d148541461048e57806395d89b41146104ca5780639dc29fac146104f4578063a217fddf1461051c576101b6565b806370a08231146104265780638129fc1c146104625780638456cb5914610478576101b6565b8063313ce5671161015857806340c10f191161013257806340c10f191461038e5780634f1ef286146103b657806352d1902d146103d25780635c975abb146103fc576101b6565b8063313ce5671461032657806336568abe146103505780633f4ba83a14610378576101b6565b806318160ddd1161019457806318160ddd1461025c57806323b872dd14610286578063248a9ca3146102c25780632f2ff15d146102fe576101b6565b806301ffc9a7146101ba57806306fdde03146101f6578063095ea7b314610220575b5f5ffd5b3480156101c5575f5ffd5b506101e060048036038101906101db91906121de565b61068e565b6040516101ed9190612223565b60405180910390f35b348015610201575f5ffd5b5061020a610707565b60405161021791906122ac565b60405180910390f35b34801561022b575f5ffd5b5061024660048036038101906102419190612359565b6107a5565b6040516102539190612223565b60405180910390f35b348015610267575f5ffd5b506102706107c7565b60405161027d91906123a6565b60405180910390f35b348015610291575f5ffd5b506102ac60048036038101906102a791906123bf565b6107de565b6040516102b99190612223565b60405180910390f35b3480156102cd575f5ffd5b506102e860048036038101906102e39190612442565b61080c565b6040516102f5919061247c565b60405180910390f35b348015610309575f5ffd5b50610324600480360381019061031f9190612495565b610836565b005b348015610331575f5ffd5b5061033a610858565b60405161034791906124ee565b60405180910390f35b34801561035b575f5ffd5b5061037660048036038101906103719190612495565b610860565b005b348015610383575f5ffd5b5061038c6108db565b005b348015610399575f5ffd5b506103b460048036038101906103af9190612359565b610910565b005b6103d060048036038101906103cb9190612633565b610949565b005b3480156103dd575f5ffd5b506103e6610968565b6040516103f3919061247c565b60405180910390f35b348015610407575f5ffd5b50610410610999565b60405161041d9190612223565b60405180910390f35b348015610431575f5ffd5b5061044c6004803603810190610447919061268d565b6109bb565b60405161045991906123a6565b60405180910390f35b34801561046d575f5ffd5b50610476610a0e565b005b348015610483575f5ffd5b5061048c610c8a565b005b348015610499575f5ffd5b506104b460048036038101906104af9190612495565b610cbf565b6040516104c19190612223565b60405180910390f35b3480156104d5575f5ffd5b506104de610d30565b6040516104eb91906122ac565b60405180910390f35b3480156104ff575f5ffd5b5061051a60048036038101906105159190612359565b610dce565b005b348015610527575f5ffd5b50610530610ddc565b60405161053d919061247c565b60405180910390f35b348015610551575f5ffd5b5061056c60048036038101906105679190612359565b610de2565b6040516105799190612223565b60405180910390f35b34801561058d575f5ffd5b50610596610e04565b6040516105a391906122ac565b60405180910390f35b3480156105b7575f5ffd5b506105c0610e3d565b6040516105cd919061247c565b60405180910390f35b3480156105e1575f5ffd5b506105fc60048036038101906105f79190612495565b610e61565b005b348015610609575f5ffd5b50610624600480360381019061061f91906126b8565b610e83565b60405161063191906123a6565b60405180910390f35b348015610645575f5ffd5b5061064e610f13565b60405161065b919061247c565b60405180910390f35b34801561066f575f5ffd5b50610678610f37565b604051610685919061247c565b60405180910390f35b5f7f7965db0b000000000000000000000000000000000000000000000000000000007bffffffffffffffffffffffffffffffffffffffffffffffffffffffff1916827bffffffffffffffffffffffffffffffffffffffffffffffffffffffff1916148061070057506106ff82610f5b565b5b9050919050565b60605f610712610fc4565b905080600301805461072390612723565b80601f016020809104026020016040519081016040528092919081815260200182805461074f90612723565b801561079a5780601f106107715761010080835404028352916020019161079a565b820191905f5260205f20905b81548152906001019060200180831161077d57829003601f168201915b505050505091505090565b5f5f6107af610feb565b90506107bc818585610ff2565b600191505092915050565b5f5f6107d1610fc4565b9050806002015491505090565b5f5f6107e8610feb565b90506107f5858285611004565b610800858585611097565b60019150509392505050565b5f5f610816611187565b9050805f015f8481526020019081526020015f2060010154915050919050565b61083f8261080c565b610848816111ae565b61085283836111c2565b50505050565b5f6012905090565b610868610feb565b73ffffffffffffffffffffffffffffffffffffffff168173ffffffffffffffffffffffffffffffffffffffff16146108cc576040517f6697b23200000000000000000000000000000000000000000000000000000000815260040160405180910390fd5b6108d682826112ba565b505050565b7fb19546dff01e856fb3f010c267a7b1c60363cf8a4664e21cc89c26224620214e610905816111ae565b61090d6113b2565b50565b7f9f2df0fed2c77648de5860a4cc508cd0818c85b8b8a1ab4ceeef8d981c8956a661093a816111ae565b6109448383611420565b505050565b61095161149f565b61095a82611585565b61096482826115b3565b5050565b5f6109716116d1565b7f360894a13ba1a3210667c828492db98dca3e2076cc3735a920a3ca505d382bbc5f1b905090565b5f5f6109a3611758565b9050805f015f9054906101000a900460ff1691505090565b5f5f6109c5610fc4565b9050805f015f8473ffffffffffffffffffffffffffffffffffffffff1673ffffffffffffffffffffffffffffffffffffffff1681526020019081526020015f2054915050919050565b5f610a1761177f565b90505f815f0160089054906101000a900460ff161590505f825f015f9054906101000a900467ffffffffffffffff1690505f5f8267ffffffffffffffff16148015610a5f5750825b90505f60018367ffffffffffffffff16148015610a9257505f3073ffffffffffffffffffffffffffffffffffffffff163b145b905081158015610aa0575080155b15610ad7576040517ff92ee8a900000000000000000000000000000000000000000000000000000000815260040160405180910390fd5b6001855f015f6101000a81548167ffffffffffffffff021916908367ffffffffffffffff1602179055508315610b24576001855f0160086101000a81548160ff0219169083151502179055505b610b7b604051806060016040528060248152602001612ba5602491396040518060400160405280600581526020017f734b414941000000000000000000000000000000000000000000000000000000815250611792565b610b836117a8565b610b8b6117b2565b610b936117bc565b610bc47fb19546dff01e856fb3f010c267a7b1c60363cf8a4664e21cc89c26224620214e610bbf610feb565b6111c2565b50610bf67f189ab7a9244df0848122154315af71fe140f3db0fe014031783b0946b8c9d2e3610bf1610feb565b6111c2565b50610c287f9f2df0fed2c77648de5860a4cc508cd0818c85b8b8a1ab4ceeef8d981c8956a6610c23610feb565b6111c2565b508315610c83575f855f0160086101000a81548160ff0219169083151502179055507fc7f505b2f371ae2175ee4913f4499e1f2633a7b5936321eed1cdaeb6115181d26001604051610c7a91906127a8565b60405180910390a15b5050505050565b7fb19546dff01e856fb3f010c267a7b1c60363cf8a4664e21cc89c26224620214e610cb4816111ae565b610cbc6117c6565b50565b5f5f610cc9611187565b9050805f015f8581526020019081526020015f205f015f8473ffffffffffffffffffffffffffffffffffffffff1673ffffffffffffffffffffffffffffffffffffffff1681526020019081526020015f205f9054906101000a900460ff1691505092915050565b60605f610d3b610fc4565b9050806004018054610d4c90612723565b80601f0160208091040260200160405190810160405280929190818152602001828054610d7890612723565b8015610dc35780601f10610d9a57610100808354040283529160200191610dc3565b820191905f5260205f20905b815481529060010190602001808311610da657829003601f168201915b505050505091505090565b610dd88282611835565b5050565b5f5f1b81565b5f5f610dec610feb565b9050610df9818585611097565b600191505092915050565b6040518060400160405280600581526020017f352e302e3000000000000000000000000000000000000000000000000000000081525081565b7f9f2df0fed2c77648de5860a4cc508cd0818c85b8b8a1ab4ceeef8d981c8956a681565b610e6a8261080c565b610e73816111ae565b610e7d83836112ba565b50505050565b5f5f610e8d610fc4565b9050806001015f8573ffffffffffffffffffffffffffffffffffffffff1673ffffffffffffffffffffffffffffffffffffffff1681526020019081526020015f205f8473ffffffffffffffffffffffffffffffffffffffff1673ffffffffffffffffffffffffffffffffffffffff1681526020019081526020015f205491505092915050565b7fb19546dff01e856fb3f010c267a7b1c60363cf8a4664e21cc89c26224620214e81565b7f189ab7a9244df0848122154315af71fe140f3db0fe014031783b0946b8c9d2e381565b5f7f01ffc9a7000000000000000000000000000000000000000000000000000000007bffffffffffffffffffffffffffffffffffffffffffffffffffffffff1916827bffffffffffffffffffffffffffffffffffffffffffffffffffffffff1916149050919050565b5f7f52c63247e1f47db19d5ce0460030c497f067ca4cebf71ba98eeadabe20bace00905090565b5f33905090565b610fff83838360016118b4565b505050565b5f61100f8484610e83565b90507fffffffffffffffffffffffffffffffffffffffffffffffffffffffffffffffff8110156110915781811015611082578281836040517ffb8f41b2000000000000000000000000000000000000000000000000000000008152600401611079939291906127d0565b60405180910390fd5b61109084848484035f6118b4565b5b50505050565b5f73ffffffffffffffffffffffffffffffffffffffff168373ffffffffffffffffffffffffffffffffffffffff1603611107575f6040517f96c6fd1e0000000000000000000000000000000000000000000000000000000081526004016110fe9190612805565b60405180910390fd5b5f73ffffffffffffffffffffffffffffffffffffffff168273ffffffffffffffffffffffffffffffffffffffff1603611177575f6040517fec442f0500000000000000000000000000000000000000000000000000000000815260040161116e9190612805565b60405180910390fd5b611182838383611a91565b505050565b5f7f02dd7bc7dec4dceedda775e58dd541e08a116c6c53815c0bd028192f7b626800905090565b6111bf816111ba610feb565b611cc0565b50565b5f5f6111cc611187565b90506111d88484610cbf565b6112af576001815f015f8681526020019081526020015f205f015f8573ffffffffffffffffffffffffffffffffffffffff1673ffffffffffffffffffffffffffffffffffffffff1681526020019081526020015f205f6101000a81548160ff02191690831515021790555061124b610feb565b73ffffffffffffffffffffffffffffffffffffffff168373ffffffffffffffffffffffffffffffffffffffff16857f2f8788117e7eff1d82e926ec794901d17c78024a50270940304540a733656f0d60405160405180910390a460019150506112b4565b5f9150505b92915050565b5f5f6112c4611187565b90506112d08484610cbf565b156113a7575f815f015f8681526020019081526020015f205f015f8573ffffffffffffffffffffffffffffffffffffffff1673ffffffffffffffffffffffffffffffffffffffff1681526020019081526020015f205f6101000a81548160ff021916908315150217905550611343610feb565b73ffffffffffffffffffffffffffffffffffffffff168373ffffffffffffffffffffffffffffffffffffffff16857ff6391f5c32d9c69d2a47ea670b442974b53935d1edc7fd64eb21e047a839171b60405160405180910390a460019150506113ac565b5f9150505b92915050565b6113ba611d11565b5f6113c3611758565b90505f815f015f6101000a81548160ff0219169083151502179055507f5db9ee0a495bf2e6ff9c91a7834c1ba4fdd244a5e8aa4e537bd38aeae4b073aa611408610feb565b6040516114159190612805565b60405180910390a150565b5f73ffffffffffffffffffffffffffffffffffffffff168273ffffffffffffffffffffffffffffffffffffffff1603611490575f6040517fec442f050000000000000000000000000000000000000000000000000000000081526004016114879190612805565b60405180910390fd5b61149b5f8383611a91565b5050565b7f000000000000000000000000000000000000000000000000000000000000000073ffffffffffffffffffffffffffffffffffffffff163073ffffffffffffffffffffffffffffffffffffffff16148061154c57507f000000000000000000000000000000000000000000000000000000000000000073ffffffffffffffffffffffffffffffffffffffff16611533611d51565b73ffffffffffffffffffffffffffffffffffffffff1614155b15611583576040517fe07c8dba00000000000000000000000000000000000000000000000000000000815260040160405180910390fd5b565b7f189ab7a9244df0848122154315af71fe140f3db0fe014031783b0946b8c9d2e36115af816111ae565b5050565b8173ffffffffffffffffffffffffffffffffffffffff166352d1902d6040518163ffffffff1660e01b8152600401602060405180830381865afa92505050801561161b57506040513d601f19601f820116820180604052508101906116189190612832565b60015b61165c57816040517f4c9c8ce30000000000000000000000000000000000000000000000000000000081526004016116539190612805565b60405180910390fd5b7f360894a13ba1a3210667c828492db98dca3e2076cc3735a920a3ca505d382bbc5f1b81146116c257806040517faa1d49a40000000000000000000000000000000000000000000000000000000081526004016116b9919061247c565b60405180910390fd5b6116cc8383611da4565b505050565b7f000000000000000000000000000000000000000000000000000000000000000073ffffffffffffffffffffffffffffffffffffffff163073ffffffffffffffffffffffffffffffffffffffff1614611756576040517fe07c8dba00000000000000000000000000000000000000000000000000000000815260040160405180910390fd5b565b5f7fcd5ed15c6e187e77e9aee88184c21f4f2182ab5827cb3b7e07fbedcd63f03300905090565b5f5f611789611e16565b90508091505090565b61179a611e3f565b6117a48282611e7f565b5050565b6117b0611e3f565b565b6117ba611e3f565b565b6117c4611e3f565b565b6117ce611ebb565b5f6117d7611758565b90506001815f015f6101000a81548160ff0219169083151502179055507f62e78cea01bee320cd4e420270b5ea74000d11b0c9f74754ebdbfc544b05a25861181d610feb565b60405161182a9190612805565b60405180910390a150565b5f73ffffffffffffffffffffffffffffffffffffffff168273ffffffffffffffffffffffffffffffffffffffff16036118a5575f6040517f96c6fd1e00000000000000000000000000000000000000000000000000000000815260040161189c9190612805565b60405180910390fd5b6118b0825f83611a91565b5050565b5f6118bd610fc4565b90505f73ffffffffffffffffffffffffffffffffffffffff168573ffffffffffffffffffffffffffffffffffffffff160361192f575f6040517fe602df050000000000000000000000000000000000000000000000000000000081526004016119269190612805565b60405180910390fd5b5f73ffffffffffffffffffffffffffffffffffffffff168473ffffffffffffffffffffffffffffffffffffffff160361199f575f6040517f94280d620000000000000000000000000000000000000000000000000000000081526004016119969190612805565b60405180910390fd5b82816001015f8773ffffffffffffffffffffffffffffffffffffffff1673ffffffffffffffffffffffffffffffffffffffff1681526020019081526020015f205f8673ffffffffffffffffffffffffffffffffffffffff1673ffffffffffffffffffffffffffffffffffffffff1681526020019081526020015f20819055508115611a8a578373ffffffffffffffffffffffffffffffffffffffff168573ffffffffffffffffffffffffffffffffffffffff167f8c5be1e5ebec7d5bd14f71427d1e84f3dd0314c0f7b2291e5b200ac8c7c3b92585604051611a8191906123a6565b60405180910390a35b5050505050565b5f611a9a610fc4565b90505f73ffffffffffffffffffffffffffffffffffffffff168473ffffffffffffffffffffffffffffffffffffffff1603611aee5781816002015f828254611ae2919061288a565b92505081905550611bc0565b5f815f015f8673ffffffffffffffffffffffffffffffffffffffff1673ffffffffffffffffffffffffffffffffffffffff1681526020019081526020015f2054905082811015611b79578481846040517fe450d38c000000000000000000000000000000000000000000000000000000008152600401611b70939291906127d0565b60405180910390fd5b828103825f015f8773ffffffffffffffffffffffffffffffffffffffff1673ffffffffffffffffffffffffffffffffffffffff1681526020019081526020015f2081905550505b5f73ffffffffffffffffffffffffffffffffffffffff168373ffffffffffffffffffffffffffffffffffffffff1603611c095781816002015f8282540392505081905550611c55565b81815f015f8573ffffffffffffffffffffffffffffffffffffffff1673ffffffffffffffffffffffffffffffffffffffff1681526020019081526020015f205f82825401925050819055505b8273ffffffffffffffffffffffffffffffffffffffff168473ffffffffffffffffffffffffffffffffffffffff167fddf252ad1be2c89b69c2b068fc378daa952ba7f163c4a11628f55a4df523b3ef84604051611cb291906123a6565b60405180910390a350505050565b611cca8282610cbf565b611d0d5780826040517fe2517d3f000000000000000000000000000000000000000000000000000000008152600401611d049291906128bd565b60405180910390fd5b5050565b611d19610999565b611d4f576040517f8dfc202b00000000000000000000000000000000000000000000000000000000815260040160405180910390fd5b565b5f611d7d7f360894a13ba1a3210667c828492db98dca3e2076cc3735a920a3ca505d382bbc5f1b611efc565b5f015f9054906101000a900473ffffffffffffffffffffffffffffffffffffffff16905090565b611dad82611f05565b8173ffffffffffffffffffffffffffffffffffffffff167fbc7cd75a20ee27fd9adebab32041f755214dbc6bffa90cc0225b39da2e5c2d3b60405160405180910390a25f81511115611e0957611e038282611fce565b50611e12565b611e1161204e565b5b5050565b5f7ff0c57e16840df040f15088dc2f81fe391c3923bec73e23a9662efc9c229c6a005f1b905090565b611e4761208a565b611e7d576040517fd7e6bcf800000000000000000000000000000000000000000000000000000000815260040160405180910390fd5b565b611e87611e3f565b5f611e90610fc4565b905082816003019081611ea39190612a7b565b5081816004019081611eb59190612a7b565b50505050565b611ec3610999565b15611efa576040517fd93c066500000000000000000000000000000000000000000000000000000000815260040160405180910390fd5b565b5f819050919050565b5f8173ffffffffffffffffffffffffffffffffffffffff163b03611f6057806040517f4c9c8ce3000000000000000000000000000000000000000000000000000000008152600401611f579190612805565b60405180910390fd5b80611f8c7f360894a13ba1a3210667c828492db98dca3e2076cc3735a920a3ca505d382bbc5f1b611efc565b5f015f6101000a81548173ffffffffffffffffffffffffffffffffffffffff021916908373ffffffffffffffffffffffffffffffffffffffff16021790555050565b60605f5f8473ffffffffffffffffffffffffffffffffffffffff1684604051611ff79190612b8e565b5f60405180830381855af49150503d805f811461202f576040519150601f19603f3d011682016040523d82523d5f602084013e612034565b606091505b50915091506120448583836120a8565b9250505092915050565b5f341115612088576040517fb398979f00000000000000000000000000000000000000000000000000000000815260040160405180910390fd5b565b5f61209361177f565b5f0160089054906101000a900460ff16905090565b6060826120bd576120b882612135565b61212d565b5f82511480156120e357505f8473ffffffffffffffffffffffffffffffffffffffff163b145b1561212557836040517f9996b31500000000000000000000000000000000000000000000000000000000815260040161211c9190612805565b60405180910390fd5b81905061212e565b5b9392505050565b5f8151111561214657805160208201fd5b6040517fd6bda27500000000000000000000000000000000000000000000000000000000815260040160405180910390fd5b5f604051905090565b5f5ffd5b5f5ffd5b5f7fffffffff0000000000000000000000000000000000000000000000000000000082169050919050565b6121bd81612189565b81146121c7575f5ffd5b50565b5f813590506121d8816121b4565b92915050565b5f602082840312156121f3576121f2612181565b5b5f612200848285016121ca565b91505092915050565b5f8115159050919050565b61221d81612209565b82525050565b5f6020820190506122365f830184612214565b92915050565b5f81519050919050565b5f82825260208201905092915050565b8281835e5f83830152505050565b5f601f19601f8301169050919050565b5f61227e8261223c565b6122888185612246565b9350612298818560208601612256565b6122a181612264565b840191505092915050565b5f6020820190508181035f8301526122c48184612274565b905092915050565b5f73ffffffffffffffffffffffffffffffffffffffff82169050919050565b5f6122f5826122cc565b9050919050565b612305816122eb565b811461230f575f5ffd5b50565b5f81359050612320816122fc565b92915050565b5f819050919050565b61233881612326565b8114612342575f5ffd5b50565b5f813590506123538161232f565b92915050565b5f5f6040838503121561236f5761236e612181565b5b5f61237c85828601612312565b925050602061238d85828601612345565b9150509250929050565b6123a081612326565b82525050565b5f6020820190506123b95f830184612397565b92915050565b5f5f5f606084860312156123d6576123d5612181565b5b5f6123e386828701612312565b93505060206123f486828701612312565b925050604061240586828701612345565b9150509250925092565b5f819050919050565b6124218161240f565b811461242b575f5ffd5b50565b5f8135905061243c81612418565b92915050565b5f6020828403121561245757612456612181565b5b5f6124648482850161242e565b91505092915050565b6124768161240f565b82525050565b5f60208201905061248f5f83018461246d565b92915050565b5f5f604083850312156124ab576124aa612181565b5b5f6124b88582860161242e565b92505060206124c985828601612312565b9150509250929050565b5f60ff82169050919050565b6124e8816124d3565b82525050565b5f6020820190506125015f8301846124df565b92915050565b5f5ffd5b5f5ffd5b7f4e487b71000000000000000000000000000000000000000000000000000000005f52604160045260245ffd5b61254582612264565b810181811067ffffffffffffffff821117156125645761256361250f565b5b80604052505050565b5f612576612178565b9050612582828261253c565b919050565b5f67ffffffffffffffff8211156125a1576125a061250f565b5b6125aa82612264565b9050602081019050919050565b828183375f83830152505050565b5f6125d76125d284612587565b61256d565b9050828152602081018484840111156125f3576125f261250b565b5b6125fe8482856125b7565b509392505050565b5f82601f83011261261a57612619612507565b5b813561262a8482602086016125c5565b91505092915050565b5f5f6040838503121561264957612648612181565b5b5f61265685828601612312565b925050602083013567ffffffffffffffff81111561267757612676612185565b5b61268385828601612606565b9150509250929050565b5f602082840312156126a2576126a1612181565b5b5f6126af84828501612312565b91505092915050565b5f5f604083850312156126ce576126cd612181565b5b5f6126db85828601612312565b92505060206126ec85828601612312565b9150509250929050565b7f4e487b71000000000000000000000000000000000000000000000000000000005f52602260045260245ffd5b5f600282049050600182168061273a57607f821691505b60208210810361274d5761274c6126f6565b5b50919050565b5f819050919050565b5f67ffffffffffffffff82169050919050565b5f819050919050565b5f61279261278d61278884612753565b61276f565b61275c565b9050919050565b6127a281612778565b82525050565b5f6020820190506127bb5f830184612799565b92915050565b6127ca816122eb565b82525050565b5f6060820190506127e35f8301866127c1565b6127f06020830185612397565b6127fd6040830184612397565b949350505050565b5f6020820190506128185f8301846127c1565b92915050565b5f8151905061282c81612418565b92915050565b5f6020828403121561284757612846612181565b5b5f6128548482850161281e565b91505092915050565b7f4e487b71000000000000000000000000000000000000000000000000000000005f52601160045260245ffd5b5f61289482612326565b915061289f83612326565b92508282019050808211156128b7576128b661285d565b5b92915050565b5f6040820190506128d05f8301856127c1565b6128dd602083018461246d565b9392505050565b5f819050815f5260205f209050919050565b5f6020601f8301049050919050565b5f82821b905092915050565b5f600883026129407fffffffffffffffffffffffffffffffffffffffffffffffffffffffffffffffff82612905565b61294a8683612905565b95508019841693508086168417925050509392505050565b5f61297c61297761297284612326565b61276f565b612326565b9050919050565b5f819050919050565b61299583612962565b6129a96129a182612983565b848454612911565b825550505050565b5f5f905090565b6129c06129b1565b6129cb81848461298c565b505050565b5b818110156129ee576129e35f826129b8565b6001810190506129d1565b5050565b601f821115612a3357612a04816128e4565b612a0d846128f6565b81016020851015612a1c578190505b612a30612a28856128f6565b8301826129d0565b50505b505050565b5f82821c905092915050565b5f612a535f1984600802612a38565b1980831691505092915050565b5f612a6b8383612a44565b9150826002028217905092915050565b612a848261223c565b67ffffffffffffffff811115612a9d57612a9c61250f565b5b612aa78254612723565b612ab28282856129f2565b5f60209050601f831160018114612ae3575f8415612ad1578287015190505b612adb8582612a60565b865550612b42565b601f198416612af1866128e4565b5f5b82811015612b1857848901518255600182019150602085019450602081019050612af3565b86831015612b355784890151612b31601f891682612a44565b8355505b6001600288020188555050505b505050505050565b5f81519050919050565b5f81905092915050565b5f612b6882612b4a565b612b728185612b54565b9350612b82818560208601612256565b80840191505092915050565b5f612b998284612b5e565b91508190509291505056fe4b41494120726570726573656e746174697665206261636b656420627920537570616c61a26469706673582212204c1ecb494819f54da1a2545a445b713686af1f1eddaf3f87e0a870c7c339f5a064736f6c634300081e0033","linkReferences":{}},"methodIdentifiers":{"DEFAULT_ADMIN_ROLE()":"a217fddf","MINTER_ROLE()":"d5391393","OWNER_ROLE()":"e58378bb","UPGRADER_ROLE()":"f72c0d8b","UPGRADE_INTERFACE_VERSION()":"ad3cb1cc","allowance(address,address)":"dd62ed3e","approve(address,uint256)":"095ea7b3","balanceOf(address)":"70a08231","burn(address,uint256)":"9dc29fac","decimals()":"313ce567","getRoleAdmin(bytes32)":"248a9ca3","grantRole(bytes32,address)":"2f2ff15d","hasRole(bytes32,address)":"91d14854","initialize()":"8129fc1c","mint(address,uint256)":"40c10f19","name()":"06fdde03","pause()":"8456cb59","paused()":"5c975abb","proxiableUUID()":"52d1902d","renounceRole(bytes32,address)":"36568abe","revokeRole(bytes32,address)":"d547741f","supportsInterface(bytes4)":"01ffc9a7","symbol()":"95d89b41","totalSupply()":"18160ddd","transfer(address,uint256)":"a9059cbb","transferFrom(address,address,uint256)":"23b872dd","unpause()":"3f4ba83a","upgradeToAndCall(address,bytes)":"4f1ef286"},"id":193}