{"abi":[{"type":"constructor","inputs":[],"stateMutability":"nonpayable"},{"type":"function","name":"DEFAULT_ADMIN_ROLE","inputs":[],"outputs":[{"name":"","type":"bytes32","internalType":"bytes32"}],"stateMutability":"view"},{"type":"function","name":"OWNER_ROLE","inputs":[],"outputs":[{"name":"","type":"bytes32","internalType":"bytes32"}],"stateMutability":"view"},{"type":"function","name":"UPGRADER_ROLE","inputs":[],"outputs":[{"name":"","type":"bytes32","internalType":"bytes32"}],"stateMutability":"view"},{"type":"function","name":"UPGRADE_INTERFACE_VERSION","inputs":[],"outputs":[{"name":"","type":"string","internalType":"string"}],"stateMutability":"view"},{"type":"function","name":"accrueInterest","inputs":[],"outputs":[],"stateMutability":"nonpayable"},{"type":"function","name":"addressPositions","inputs":[{"name":"","type":"address","internalType":"address"}],"outputs":[{"name":"","type":"address","internalType":"address"}],"stateMutability":"view"},{"type":"function","name":"borrowDebt","inputs":[{"name":"_amount","type":"uint256","internalType":"uint256"},{"name":"_user","type":"address","internalType":"address"}],"outputs":[{"name":"creatorFee","type":"uint256","internalType":"uint256"},{"name":"protocolFee","type":"uint256","internalType":"uint256"},{"name":"userAmount","type":"uint256","internalType":"uint256"},{"name":"shares","type":"uint256","internalType":"uint256"}],"stateMutability":"nonpayable"},{"type":"function","name":"borrowToken","inputs":[],"outputs":[{"name":"","type":"address","internalType":"address"}],"stateMutability":"view"},{"type":"function","name":"collateralToken","inputs":[],"outputs":[{"name":"","type":"address","internalType":"address"}],"stateMutability":"view"},{"type":"function","name":"createPosition","inputs":[{"name":"_user","type":"address","internalType":"address"}],"outputs":[{"name":"","type":"address","internalType":"address"}],"stateMutability":"nonpayable"},{"type":"function","name":"factory","inputs":[],"outputs":[{"name":"","type":"address","internalType":"address"}],"stateMutability":"view"},{"type":"function","name":"getRoleAdmin","inputs":[{"name":"role","type":"bytes32","internalType":"bytes32"}],"outputs":[{"name":"","type":"bytes32","internalType":"bytes32"}],"stateMutability":"view"},{"type":"function","name":"grantRole","inputs":[{"name":"role","type":"bytes32","internalType":"bytes32"},{"name":"account","type":"address","internalType":"address"}],"outputs":[],"stateMutability":"nonpayable"},{"type":"function","name":"hasRole","inputs":[{"name":"role","type":"bytes32","internalType":"bytes32"},{"name":"account","type":"address","internalType":"address"}],"outputs":[{"name":"","type":"bool","internalType":"bool"}],"stateMutability":"view"},{"type":"function","name":"initialize","inputs":[{"name":"_factory","type":"address","internalType":"address"},{"name":"_collateralToken","type":"address","internalType":"address"},{"name":"_borrowToken","type":"address","internalType":"address"},{"name":"_ltv","type":"uint256","internalType":"uint256"}],"outputs":[],"stateMutability":"nonpayable"},{"type":"function","name":"lastAccrued","inputs":[],"outputs":[{"name":"","type":"uint256","internalType":"uint256"}],"stateMutability":"view"},{"type":"function","name":"lendingPool","inputs":[],"outputs":[{"name":"","type":"address","internalType":"address"}],"stateMutability":"view"},{"type":"function","name":"liquidation","inputs":[{"name":"_borrower","type":"address","internalType":"address"}],"outputs":[{"name":"","type":"uint256","internalType":"uint256"},{"name":"","type":"uint256","internalType":"uint256"},{"name":"","type":"address","internalType":"address"}],"stateMutability":"nonpayable"},{"type":"function","name":"ltv","inputs":[],"outputs":[{"name":"","type":"uint256","internalType":"uint256"}],"stateMutability":"view"},{"type":"function","name":"pause","inputs":[],"outputs":[],"stateMutability":"nonpayable"},{"type":"function","name":"paused","inputs":[],"outputs":[{"name":"","type":"bool","internalType":"bool"}],"stateMutability":"view"},{"type":"function","name":"proxiableUUID","inputs":[],"outputs":[{"name":"","type":"bytes32","internalType":"bytes32"}],"stateMutability":"view"},{"type":"function","name":"renounceRole","inputs":[{"name":"role","type":"bytes32","internalType":"bytes32"},{"name":"callerConfirmation","type":"address","internalType":"address"}],"outputs":[],"stateMutability":"nonpayable"},{"type":"function","name":"repayWithSelectedToken","inputs":[{"name":"_shares","type":"uint256","internalType":"uint256"},{"name":"_user","type":"address","internalType":"address"}],"outputs":[{"name":"","type":"uint256","internalType":"uint256"}],"stateMutability":"nonpayable"},{"type":"function","name":"revokeRole","inputs":[{"name":"role","type":"bytes32","internalType":"bytes32"},{"name":"account","type":"address","internalType":"address"}],"outputs":[],"stateMutability":"nonpayable"},{"type":"function","name":"setLendingPool","inputs":[{"name":"_lendingPool","type":"address","internalType":"address"}],"outputs":[],"stateMutability":"nonpayable"},{"type":"function","name":"sharesToken","inputs":[],"outputs":[{"name":"","type":"address","internalType":"address"}],"stateMutability":"view"},{"type":"function","name":"supplyLiquidity","inputs":[{"name":"_amount","type":"uint256","internalType":"uint256"},{"name":"_user","type":"address","internalType":"address"}],"outputs":[{"name":"shares","type":"uint256","internalType":"uint256"}],"stateMutability":"nonpayable"},{"type":"function","name":"supportsInterface","inputs":[{"name":"interfaceId","type":"bytes4","internalType":"bytes4"}],"outputs":[{"name":"","type":"bool","internalType":"bool"}],"stateMutability":"view"},{"type":"function","name":"totalBorrowAssets","inputs":[],"outputs":[{"name":"","type":"uint256","internalType":"uint256"}],"stateMutability":"view"},{"type":"function","name":"totalBorrowShares","inputs":[],"outputs":[{"name":"","type":"uint256","internalType":"uint256"}],"stateMutability":"view"},{"type":"function","name":"totalReserveAssets","inputs":[],"outputs":[{"name":"","type":"uint256","internalType":"uint256"}],"stateMutability":"view"},{"type":"function","name":"totalSupplyAssets","inputs":[],"outputs":[{"name":"","type":"uint256","internalType":"uint256"}],"stateMutability":"view"},{"type":"function","name":"unpause","inputs":[],"outputs":[],"stateMutability":"nonpayable"},{"type":"function","name":"upgradeToAndCall","inputs":[{"name":"newImplementation","type":"address","internalType":"address"},{"name":"data","type":"bytes","internalType":"bytes"}],"outputs":[],"stateMutability":"payable"},{"type":"function","name":"userBorrowShares","inputs":[{"name":"","type":"address","internalType":"address"}],"outputs":[{"name":"","type":"uint256","internalType":"uint256"}],"stateMutability":"view"},{"type":"function","name":"withdrawLiquidity","inputs":[{"name":"_shares","type":"uint256","internalType":"uint256"},{"name":"_user","type":"address","internalType":"address"}],"outputs":[{"name":"amount","type":"uint256","internalType":"uint256"}],"stateMutability":"nonpayable"},{"type":"event","name":"Initialized","inputs":[{"name":"version","type":"uint64","indexed":false,"internalType":"uint64"}],"anonymous":false},{"type":"event","name":"InterestAccrued","inputs":[{"name":"interest","type":"uint256","indexed":false,"internalType":"uint256"},{"name":"supplyYield","type":"uint256","indexed":false,"internalType":"uint256"},{"name":"reserveYield","type":"uint256","indexed":false,"internalType":"uint256"}],"anonymous":false},{"type":"event","name":"Paused","inputs":[{"name":"account","type":"address","indexed":false,"internalType":"address"}],"anonymous":false},{"type":"event","name":"RoleAdminChanged","inputs":[{"name":"role","type":"bytes32","indexed":true,"internalType":"bytes32"},{"name":"previousAdminRole","type":"bytes32","indexed":true,"internalType":"bytes32"},{"name":"newAdminRole","type":"bytes32","indexed":true,"internalType":"bytes32"}],"anonymous":false},{"type":"event","name":"RoleGranted","inputs":[{"name":"role","type":"bytes32","indexed":true,"internalType":"bytes32"},{"name":"account","type":"address","indexed":true,"internalType":"address"},{"name":"sender","type":"address","indexed":true,"internalType":"address"}],"anonymous":false},{"type":"event","name":"RoleRevoked","inputs":[{"name":"role","type":"bytes32","indexed":true,"internalType":"bytes32"},{"name":"account","type":"address","indexed":true,"internalType":"address"},{"name":"sender","type":"address","indexed":true,"internalType":"address"}],"anonymous":false},{"type":"event","name":"SharesTokenDeployed","inputs":[{"name":"sharesToken","type":"address","indexed":false,"internalType":"address"},{"name":"sharesTokenImplementation","type":"address","indexed":false,"internalType":"address"}],"anonymous":false},{"type":"event","name":"Unpaused","inputs":[{"name":"account","type":"address","indexed":false,"internalType":"address"}],"anonymous":false},{"type":"event","name":"Upgraded","inputs":[{"name":"implementation","type":"address","indexed":true,"internalType":"address"}],"anonymous":false},{"type":"error","name":"AccessControlBadConfirmation","inputs":[]},{"type":"error","name":"AccessControlUnauthorizedAccount","inputs":[{"name":"account","type":"address","internalType":"address"},{"name":"neededRole","type":"bytes32","internalType":"bytes32"}]},{"type":"error","name":"AddressEmptyCode","inputs":[{"name":"target","type":"address","internalType":"address"}]},{"type":"error","name":"AssetNotLiquidatable","inputs":[{"name":"collateralToken","type":"address","internalType":"address"},{"name":"collateralValue","type":"uint256","internalType":"uint256"},{"name":"borrowValue","type":"uint256","internalType":"uint256"}]},{"type":"error","name":"ERC1967InvalidImplementation","inputs":[{"name":"implementation","type":"address","internalType":"address"}]},{"type":"error","name":"ERC1967NonPayable","inputs":[]},{"type":"error","name":"EnforcedPause","inputs":[]},{"type":"error","name":"ExpectedPause","inputs":[]},{"type":"error","name":"FailedCall","inputs":[]},{"type":"error","name":"InsufficientCollateral","inputs":[{"name":"amount","type":"uint256","internalType":"uint256"},{"name":"expectedAmount","type":"uint256","internalType":"uint256"}]},{"type":"error","name":"InsufficientLiquidity","inputs":[]},{"type":"error","name":"InsufficientShares","inputs":[]},{"type":"error","name":"InvalidInitialization","inputs":[]},{"type":"error","name":"InvalidLtv","inputs":[{"name":"ltv","type":"uint256","internalType":"uint256"}]},{"type":"error","name":"MaxUtilizationReached","inputs":[{"name":"borrowToken","type":"address","internalType":"address"},{"name":"newUtilization","type":"uint256","internalType":"uint256"},{"name":"maxUtilization","type":"uint256","internalType":"uint256"}]},{"type":"error","name":"MinAmountSupplyLiquidity","inputs":[{"name":"amount","type":"uint256","internalType":"uint256"},{"name":"minAmountSupplyLiquidity","type":"uint256","internalType":"uint256"}]},{"type":"error","name":"NotFactory","inputs":[]},{"type":"error","name":"NotInitializing","inputs":[]},{"type":"error","name":"NotLendingPool","inputs":[]},{"type":"error","name":"NotLiquidable","inputs":[{"name":"user","type":"address","internalType":"address"}]},{"type":"error","name":"PositionAlreadyCreated","inputs":[]},{"type":"error","name":"ReentrancyGuardReentrantCall","inputs":[]},{"type":"error","name":"TotalBorrowSharesZero","inputs":[{"name":"shares","type":"uint256","internalType":"uint256"},{"name":"totalBorrowShares","type":"uint256","internalType":"uint256"}]},{"type":"error","name":"TotalSupplySharesZero","inputs":[{"name":"shares","type":"uint256","internalType":"uint256"},{"name":"totalSupplyShares","type":"uint256","internalType":"uint256"}]},{"type":"error","name":"UUPSUnauthorizedCallContext","inputs":[]},{"type":"error","name":"UUPSUnsupportedProxiableUUID","inputs":[{"name":"slot","type":"bytes32","internalType":"bytes32"}]},{"type":"error","name":"ZeroAmount","inputs":[]}],"bytecode":{"object":"0x60a06040523073ffffffffffffffffffffffffffffffffffffffff1660809073ffffffffffffffffffffffffffffffffffffffff16815250348015610042575f5ffd5b5061005161005660201b60201c565b6101d1565b5f61006561015460201b60201c565b9050805f0160089054906101000a900460ff16156100af576040517ff92ee8a900000000000000000000000000000000000000000000000000000000815260040160405180910390fd5b67ffffffffffffffff8016815f015f9054906101000a900467ffffffffffffffff1667ffffffffffffffff16146101515767ffffffffffffffff815f015f6101000a81548167ffffffffffffffff021916908367ffffffffffffffff1602179055507fc7f505b2f371ae2175ee4913f4499e1f2633a7b5936321eed1cdaeb6115181d267ffffffffffffffff60405161014891906101b8565b60405180910390a15b50565b5f5f61016461016d60201b60201c565b90508091505090565b5f7ff0c57e16840df040f15088dc2f81fe391c3923bec73e23a9662efc9c229c6a005f1b905090565b5f67ffffffffffffffff82169050919050565b6101b281610196565b82525050565b5f6020820190506101cb5f8301846101a9565b92915050565b608051614a996101f75f395f81816129490152818161299e0152612b7b0152614a995ff3fe608060405260043610610219575f3560e01c80638456cb5911610122578063b83e62bf116100aa578063f2ee5c341161006e578063f2ee5c34146107b0578063f72c0d8b146107da578063f79c380014610804578063f7e0ebf614610840578063f9ec9f281461087c57610219565b8063b83e62bf146106ce578063c45a01551461070c578063cf756fdf14610736578063d547741f1461075e578063e58378bb1461078657610219565b8063a217fddf116100f1578063a217fddf14610610578063a59a99731461063a578063a6afed9514610664578063ad3cb1cc1461067a578063b2016bd4146106a457610219565b80638456cb591461055857806391d148541461056e57806394877fc4146105aa5780639d058e67146105d457610219565b80633f4ba83a116101a557806352d1902d1161017457806352d1902d146104745780635c975abb1461049e57806368fc0c9a146104c85780636fb49d73146105045780638009ba1f1461052e57610219565b80633f4ba83a146103dc578063456dc17a146103f25780634f1ef2861461041c5780634fd422df1461043857610219565b80631aad44c2116101ec5780631aad44c2146102e7578063248a9ca3146103115780632f2ff15d1461034d57806335fce80e1461037557806336568abe146103b457610219565b806301ffc9a71461021d578063113aa8b11461025957806311d9dbd314610281578063136cf1f7146102bd575b5f5ffd5b348015610228575f5ffd5b50610243600480360381019061023e9190613cbe565b6108a6565b6040516102509190613d03565b60405180910390f35b348015610264575f5ffd5b5061027f600480360381019061027a9190613d76565b61091f565b005b34801561028c575f5ffd5b506102a760048036038101906102a29190613dd4565b61096a565b6040516102b49190613e21565b60405180910390f35b3480156102c8575f5ffd5b506102d1610b3d565b6040516102de9190613e21565b60405180910390f35b3480156102f2575f5ffd5b506102fb610b43565b6040516103089190613e21565b60405180910390f35b34801561031c575f5ffd5b5061033760048036038101906103329190613e6d565b610b49565b6040516103449190613ea7565b60405180910390f35b348015610358575f5ffd5b50610373600480360381019061036e9190613ec0565b610b73565b005b348015610380575f5ffd5b5061039b60048036038101906103969190613dd4565b610b95565b6040516103ab9493929190613efe565b60405180910390f35b3480156103bf575f5ffd5b506103da60048036038101906103d59190613ec0565b610e26565b005b3480156103e7575f5ffd5b506103f0610ea1565b005b3480156103fd575f5ffd5b50610406610ed6565b6040516104139190613f50565b60405180910390f35b610436600480360381019061043191906140a5565b610efb565b005b348015610443575f5ffd5b5061045e60048036038101906104599190613d76565b610f1a565b60405161046b9190613e21565b60405180910390f35b34801561047f575f5ffd5b50610488610f2f565b6040516104959190613ea7565b60405180910390f35b3480156104a9575f5ffd5b506104b2610f60565b6040516104bf9190613d03565b60405180910390f35b3480156104d3575f5ffd5b506104ee60048036038101906104e99190613dd4565b610f82565b6040516104fb9190613e21565b60405180910390f35b34801561050f575f5ffd5b506105186111f8565b6040516105259190613e21565b60405180910390f35b348015610539575f5ffd5b506105426111fe565b60405161054f9190613f50565b60405180910390f35b348015610563575f5ffd5b5061056c611223565b005b348015610579575f5ffd5b50610594600480360381019061058f9190613ec0565b611258565b6040516105a19190613d03565b60405180910390f35b3480156105b5575f5ffd5b506105be6112c9565b6040516105cb9190613e21565b60405180910390f35b3480156105df575f5ffd5b506105fa60048036038101906105f59190613dd4565b6112ce565b6040516106079190613e21565b60405180910390f35b34801561061b575f5ffd5b5061062461149c565b6040516106319190613ea7565b60405180910390f35b348015610645575f5ffd5b5061064e6114a2565b60405161065b9190613f50565b60405180910390f35b34801561066f575f5ffd5b506106786114c7565b005b348015610685575f5ffd5b5061068e61160e565b60405161069b919061415f565b60405180910390f35b3480156106af575f5ffd5b506106b8611647565b6040516106c59190613f50565b60405180910390f35b3480156106d9575f5ffd5b506106f460048036038101906106ef9190613d76565b61166c565b6040516107039392919061417f565b60405180910390f35b348015610717575f5ffd5b50610720611a09565b60405161072d9190613f50565b60405180910390f35b348015610741575f5ffd5b5061075c600480360381019061075791906141b4565b611a2e565b005b348015610769575f5ffd5b50610784600480360381019061077f9190613ec0565b611d1b565b005b348015610791575f5ffd5b5061079a611d3d565b6040516107a79190613ea7565b60405180910390f35b3480156107bb575f5ffd5b506107c4611d61565b6040516107d19190613e21565b60405180910390f35b3480156107e5575f5ffd5b506107ee611d67565b6040516107fb9190613ea7565b60405180910390f35b34801561080f575f5ffd5b5061082a60048036038101906108259190613d76565b611d8b565b6040516108379190613f50565b60405180910390f35b34801561084b575f5ffd5b5061086660048036038101906108619190613d76565b611dbb565b6040516108739190613f50565b60405180910390f35b348015610887575f5ffd5b50610890612044565b60405161089d9190613e21565b60405180910390f35b5f7f7965db0b000000000000000000000000000000000000000000000000000000007bffffffffffffffffffffffffffffffffffffffffffffffffffffffff1916827bffffffffffffffffffffffffffffffffffffffffffffffffffffffff1916148061091857506109178261204a565b5b9050919050565b6109276120b3565b8060075f6101000a81548173ffffffffffffffffffffffffffffffffffffffff021916908373ffffffffffffffffffffffffffffffffffffffff16021790555050565b5f61097361213b565b61097b6121c3565b610983612204565b5f83036109bc576040517f1f2a200500000000000000000000000000000000000000000000000000000000815260040160405180910390fd5b6109c46114c7565b5f90505f5f5403610a2c576109d7612226565b831015610a2457826109e7612226565b6040517f7f53b272000000000000000000000000000000000000000000000000000000008152600401610a1b929190614218565b60405180910390fd5b829050610a4e565b5f54610a366122e6565b84610a41919061426c565b610a4b91906142da565b90505b825f5f828254610a5e919061430a565b925050819055505f610a6e612330565b600a610a7a9190614478565b610a826123c4565b600a610a8e9190614478565b83610a99919061426c565b610aa391906142da565b9050600b5f9054906101000a900473ffffffffffffffffffffffffffffffffffffffff1673ffffffffffffffffffffffffffffffffffffffff166340c10f1984836040518363ffffffff1660e01b8152600401610b019291906144c2565b5f604051808303815f87803b158015610b18575f5ffd5b505af1158015610b2a573d5f5f3e3d5ffd5b5050505050610b37612458565b92915050565b60025481565b60015481565b5f5f610b53612472565b9050805f015f8481526020019081526020015f2060010154915050919050565b610b7c82610b49565b610b8581612499565b610b8f83836124ad565b50505050565b5f5f5f5f610ba161213b565b610ba96121c3565b610bb1612204565b5f8603610bea576040517f1f2a200500000000000000000000000000000000000000000000000000000000815260040160405180910390fd5b610bf26114c7565b5f90505f60025403610c0657859050610c24565b60015460025487610c17919061426c565b610c2191906142da565b90505b8060055f8773ffffffffffffffffffffffffffffffffffffffff1673ffffffffffffffffffffffffffffffffffffffff1681526020019081526020015f205f828254610c70919061430a565b925050819055508060025f828254610c88919061430a565b925050819055508560015f828254610ca0919061430a565b925050819055505f5f54670de0b6b3a7640000600154610cc0919061426c565b610cca91906142da565b9050610cd46125a5565b8110610d4357600a5f9054906101000a900473ffffffffffffffffffffffffffffffffffffffff1681610d056125a5565b6040517fb0789174000000000000000000000000000000000000000000000000000000008152600401610d3a939291906144e9565b60405180910390fd5b670de0b6b3a7640000610d76600a5f9054906101000a900473ffffffffffffffffffffffffffffffffffffffff1661262a565b88610d81919061426c565b610d8b91906142da565b9350670de0b6b3a7640000610d9e6126b1565b88610da9919061426c565b610db391906142da565b94508484610dc1919061430a565b87610dcc919061451e565b92505f546001541115610e0b576040517fbb55fd2700000000000000000000000000000000000000000000000000000000815260040160405180910390fd5b610e1486612769565b50610e1d612458565b92959194509250565b610e2e6127da565b73ffffffffffffffffffffffffffffffffffffffff168173ffffffffffffffffffffffffffffffffffffffff1614610e92576040517f6697b23200000000000000000000000000000000000000000000000000000000815260040160405180910390fd5b610e9c82826127e1565b505050565b7fb19546dff01e856fb3f010c267a7b1c60363cf8a4664e21cc89c26224620214e610ecb81612499565b610ed36128d9565b50565b600a5f9054906101000a900473ffffffffffffffffffffffffffffffffffffffff1681565b610f03612947565b610f0c82612a2d565b610f168282612a5b565b5050565b6005602052805f5260405f205f915090505481565b5f610f38612b79565b7f360894a13ba1a3210667c828492db98dca3e2076cc3735a920a3ca505d382bbc5f1b905090565b5f5f610f6a612c00565b9050805f015f9054906101000a900460ff1691505090565b5f610f8b61213b565b610f936121c3565b610f9b612204565b5f8303610fd4576040517f1f2a200500000000000000000000000000000000000000000000000000000000815260040160405180910390fd5b610fdd82612c27565b831115611016576040517f3999656700000000000000000000000000000000000000000000000000000000815260040160405180910390fd5b5f61101f6122e6565b0361106a578261102d6122e6565b6040517fc3ee5600000000000000000000000000000000000000000000000000000000008152600401611061929190614218565b60405180910390fd5b6110726114c7565b5f61107b6123c4565b600a6110879190614478565b61108f612330565b600a61109b9190614478565b856110a6919061426c565b6110b091906142da565b90506110ba6122e6565b5f54826110c7919061426c565b6110d191906142da565b91505f820361110c576040517f1f2a200500000000000000000000000000000000000000000000000000000000815260040160405180910390fd5b600b5f9054906101000a900473ffffffffffffffffffffffffffffffffffffffff1673ffffffffffffffffffffffffffffffffffffffff16639dc29fac84866040518363ffffffff1660e01b81526004016111689291906144c2565b5f604051808303815f87803b15801561117f575f5ffd5b505af1158015611191573d5f5f3e3d5ffd5b50505050815f5f8282546111a5919061451e565b925050819055506001545f5410156111e9576040517fbb55fd2700000000000000000000000000000000000000000000000000000000815260040160405180910390fd5b506111f2612458565b92915050565b600c5481565b600b5f9054906101000a900473ffffffffffffffffffffffffffffffffffffffff1681565b7fb19546dff01e856fb3f010c267a7b1c60363cf8a4664e21cc89c26224620214e61124d81612499565b611255612cc8565b50565b5f5f611262612472565b9050805f015f8581526020019081526020015f205f015f8473ffffffffffffffffffffffffffffffffffffffff1673ffffffffffffffffffffffffffffffffffffffff1681526020019081526020015f205f9054906101000a900460ff1691505092915050565b5f5481565b5f6112d761213b565b6112df6121c3565b6112e7612204565b5f8303611320576040517f1f2a200500000000000000000000000000000000000000000000000000000000815260040160405180910390fd5b60055f8373ffffffffffffffffffffffffffffffffffffffff1673ffffffffffffffffffffffffffffffffffffffff1681526020019081526020015f2054831115611397576040517f3999656700000000000000000000000000000000000000000000000000000000815260040160405180910390fd5b5f600254036113e157826002546040517f49d1039c0000000000000000000000000000000000000000000000000000000081526004016113d8929190614218565b60405180910390fd5b6113e96114c7565b5f600254600154856113fb919061426c565b61140591906142da565b90508360055f8573ffffffffffffffffffffffffffffffffffffffff1673ffffffffffffffffffffffffffffffffffffffff1681526020019081526020015f205f828254611453919061451e565b925050819055508360025f82825461146b919061451e565b925050819055508060015f828254611483919061451e565b9250508190555080915050611496612458565b92915050565b5f5f1b81565b60075f9054906101000a900473ffffffffffffffffffffffffffffffffffffffff1681565b5f600454426114d6919061451e565b90505f81036114e5575061160c565b426004819055505f600154036114fb575061160c565b5f5f5f611506612d37565b73ffffffffffffffffffffffffffffffffffffffff1663d7dc620330866040518363ffffffff1660e01b81526004016115409291906144c2565b606060405180830381865afa15801561155b573d5f5f3e3d5ffd5b505050506040513d601f19601f8201168201806040525081019061157f9190614565565b9250925092508260015f828254611596919061430a565b92505081905550815f5f8282546115ad919061430a565b925050819055508060035f8282546115c5919061430a565b925050819055507fe9d95e658b0c714da9de2e12fbed253a24a632058a074dc7c90b8b6618675c7c8383836040516115ff939291906145b5565b60405180910390a1505050505b565b6040518060400160405280600581526020017f352e302e3000000000000000000000000000000000000000000000000000000081525081565b60095f9054906101000a900473ffffffffffffffffffffffffffffffffffffffff1681565b5f5f5f61167761213b565b61167f6121c3565b611687612204565b5f60055f8673ffffffffffffffffffffffffffffffffffffffff1673ffffffffffffffffffffffffffffffffffffffff1681526020019081526020015f20541480156116da57505f6116d885612dcb565b145b1561171c57836040517fe73da0480000000000000000000000000000000000000000000000000000000081526004016117139190613f50565b60405180910390fd5b5f5f5f5f611728612e9c565b73ffffffffffffffffffffffffffffffffffffffff16633132aa8989306040518363ffffffff1660e01b81526004016117629291906145ea565b608060405180830381865afa15801561177d573d5f5f3e3d5ffd5b505050506040513d601f19601f820116820180604052508101906117a1919061463b565b9350935093509350836118105760095f9054906101000a900473ffffffffffffffffffffffffffffffffffffffff1682846040517f0585ca9c000000000000000000000000000000000000000000000000000000008152600401611807939291906144e9565b60405180910390fd5b6118186114c7565b5f61185f60055f8b73ffffffffffffffffffffffffffffffffffffffff1673ffffffffffffffffffffffffffffffffffffffff1681526020019081526020015f2054612f30565b90505f60065f8b73ffffffffffffffffffffffffffffffffffffffff1673ffffffffffffffffffffffffffffffffffffffff1681526020019081526020015f205f9054906101000a900473ffffffffffffffffffffffffffffffffffffffff1690508160015f8282546118d2919061451e565b9250508190555060055f8b73ffffffffffffffffffffffffffffffffffffffff1673ffffffffffffffffffffffffffffffffffffffff1681526020019081526020015f205460025f828254611927919061451e565b925050819055505f60055f8c73ffffffffffffffffffffffffffffffffffffffff1673ffffffffffffffffffffffffffffffffffffffff1681526020019081526020015f20819055505f60065f8c73ffffffffffffffffffffffffffffffffffffffff1673ffffffffffffffffffffffffffffffffffffffff1681526020019081526020015f205f6101000a81548173ffffffffffffffffffffffffffffffffffffffff021916908373ffffffffffffffffffffffffffffffffffffffff160217905550818382985098509850505050505050611a02612458565b9193909250565b60085f9054906101000a900473ffffffffffffffffffffffffffffffffffffffff1681565b5f611a37612f53565b90505f815f0160089054906101000a900460ff161590505f825f015f9054906101000a900467ffffffffffffffff1690505f5f8267ffffffffffffffff16148015611a7f5750825b90505f60018367ffffffffffffffff16148015611ab257505f3073ffffffffffffffffffffffffffffffffffffffff163b145b905081158015611ac0575080155b15611af7576040517ff92ee8a900000000000000000000000000000000000000000000000000000000815260040160405180910390fd5b6001855f015f6101000a81548167ffffffffffffffff021916908367ffffffffffffffff1602179055508315611b44576001855f0160086101000a81548160ff0219169083151502179055505b611b4c612f66565b611b54612f70565b611b5c612f7a565b611b64612f84565b8860085f6101000a81548173ffffffffffffffffffffffffffffffffffffffff021916908373ffffffffffffffffffffffffffffffffffffffff1602179055508760095f6101000a81548173ffffffffffffffffffffffffffffffffffffffff021916908373ffffffffffffffffffffffffffffffffffffffff16021790555086600a5f6101000a81548173ffffffffffffffffffffffffffffffffffffffff021916908373ffffffffffffffffffffffffffffffffffffffff16021790555042600481905550611c3486612f96565b611c475f5f1b611c42612ff7565b6124ad565b50611c797fb19546dff01e856fb3f010c267a7b1c60363cf8a4664e21cc89c26224620214e611c74612ff7565b6124ad565b50611cab7f189ab7a9244df0848122154315af71fe140f3db0fe014031783b0946b8c9d2e3611ca6612ff7565b6124ad565b50611cb461308b565b50508315611d10575f855f0160086101000a81548160ff0219169083151502179055507fc7f505b2f371ae2175ee4913f4499e1f2633a7b5936321eed1cdaeb6115181d26001604051611d0791906146f4565b60405180910390a15b505050505050505050565b611d2482610b49565b611d2d81612499565b611d3783836127e1565b50505050565b7fb19546dff01e856fb3f010c267a7b1c60363cf8a4664e21cc89c26224620214e81565b60035481565b7f189ab7a9244df0848122154315af71fe140f3db0fe014031783b0946b8c9d2e381565b6006602052805f5260405f205f915054906101000a900473ffffffffffffffffffffffffffffffffffffffff1681565b5f611dc461213b565b611dcc6121c3565b611dd4612204565b5f73ffffffffffffffffffffffffffffffffffffffff1660065f8473ffffffffffffffffffffffffffffffffffffffff1673ffffffffffffffffffffffffffffffffffffffff1681526020019081526020015f205f9054906101000a900473ffffffffffffffffffffffffffffffffffffffff1673ffffffffffffffffffffffffffffffffffffffff1614611e95576040517f0f04799c00000000000000000000000000000000000000000000000000000000815260040160405180910390fd5b5f611e9e6133fd565b73ffffffffffffffffffffffffffffffffffffffff1663dc38d1846040518163ffffffff1660e01b81526004016020604051808303815f875af1158015611ee7573d5f5f3e3d5ffd5b505050506040513d601f19601f82011682018060405250810190611f0b9190614721565b90505f63485cc95560e01b60075f9054906101000a900473ffffffffffffffffffffffffffffffffffffffff1685604051602401611f4a9291906145ea565b604051602081830303815290604052907bffffffffffffffffffffffffffffffffffffffffffffffffffffffff19166020820180517bffffffffffffffffffffffffffffffffffffffffffffffffffffffff838183161783525050505090505f611fb48383613491565b90508060065f8773ffffffffffffffffffffffffffffffffffffffff1673ffffffffffffffffffffffffffffffffffffffff1681526020019081526020015f205f6101000a81548173ffffffffffffffffffffffffffffffffffffffff021916908373ffffffffffffffffffffffffffffffffffffffff16021790555080935050505061203f612458565b919050565b60045481565b5f7f01ffc9a7000000000000000000000000000000000000000000000000000000007bffffffffffffffffffffffffffffffffffffffffffffffffffffffff1916827bffffffffffffffffffffffffffffffffffffffffffffffffffffffff1916149050919050565b60085f9054906101000a900473ffffffffffffffffffffffffffffffffffffffff1673ffffffffffffffffffffffffffffffffffffffff163373ffffffffffffffffffffffffffffffffffffffff1614612139576040517f32cc723600000000000000000000000000000000000000000000000000000000815260040160405180910390fd5b565b60075f9054906101000a900473ffffffffffffffffffffffffffffffffffffffff1673ffffffffffffffffffffffffffffffffffffffff163373ffffffffffffffffffffffffffffffffffffffff16146121c1576040517fdeefa58900000000000000000000000000000000000000000000000000000000815260040160405180910390fd5b565b6121cb610f60565b15612202576040517fd93c066500000000000000000000000000000000000000000000000000000000815260040160405180910390fd5b565b61220c61351c565b600261221e61221961355d565b613586565b5f0181905550565b5f60085f9054906101000a900473ffffffffffffffffffffffffffffffffffffffff1673ffffffffffffffffffffffffffffffffffffffff16633fcaacdf600a5f9054906101000a900473ffffffffffffffffffffffffffffffffffffffff166040518263ffffffff1660e01b81526004016122a29190613f50565b602060405180830381865afa1580156122bd573d5f5f3e3d5ffd5b505050506040513d601f19601f820116820180604052508101906122e1919061474c565b905090565b5f6122ef6123c4565b600a6122fb9190614478565b612303612330565b600a61230f9190614478565b61231761358f565b612321919061426c565b61232b91906142da565b905090565b5f600b5f9054906101000a900473ffffffffffffffffffffffffffffffffffffffff1673ffffffffffffffffffffffffffffffffffffffff166325a760c26040518163ffffffff1660e01b8152600401602060405180830381865afa15801561239b573d5f5f3e3d5ffd5b505050506040513d601f19601f820116820180604052508101906123bf91906147a1565b905090565b5f600b5f9054906101000a900473ffffffffffffffffffffffffffffffffffffffff1673ffffffffffffffffffffffffffffffffffffffff1663313ce5676040518163ffffffff1660e01b8152600401602060405180830381865afa15801561242f573d5f5f3e3d5ffd5b505050506040513d601f19601f8201168201806040525081019061245391906147a1565b905090565b600161246a61246561355d565b613586565b5f0181905550565b5f7f02dd7bc7dec4dceedda775e58dd541e08a116c6c53815c0bd028192f7b626800905090565b6124aa816124a56127da565b613623565b50565b5f5f6124b7612472565b90506124c38484611258565b61259a576001815f015f8681526020019081526020015f205f015f8573ffffffffffffffffffffffffffffffffffffffff1673ffffffffffffffffffffffffffffffffffffffff1681526020019081526020015f205f6101000a81548160ff0219169083151502179055506125366127da565b73ffffffffffffffffffffffffffffffffffffffff168373ffffffffffffffffffffffffffffffffffffffff16857f2f8788117e7eff1d82e926ec794901d17c78024a50270940304540a733656f0d60405160405180910390a4600191505061259f565b5f9150505b92915050565b5f6125ae612d37565b73ffffffffffffffffffffffffffffffffffffffff166377460ddb306040518263ffffffff1660e01b81526004016125e69190613f50565b602060405180830381865afa158015612601573d5f5f3e3d5ffd5b505050506040513d601f19601f82011682018060405250810190612625919061474c565b905090565b5f612633613674565b73ffffffffffffffffffffffffffffffffffffffff16630a992e0c836040518263ffffffff1660e01b815260040161266b9190613f50565b602060405180830381865afa158015612686573d5f5f3e3d5ffd5b505050506040513d601f19601f820116820180604052508101906126aa919061474c565b9050919050565b5f5f60085f9054906101000a900473ffffffffffffffffffffffffffffffffffffffff1673ffffffffffffffffffffffffffffffffffffffff1663986bb433306040518263ffffffff1660e01b815260040161270d9190613f50565b602060405180830381865afa158015612728573d5f5f3e3d5ffd5b505050506040513d601f19601f8201168201806040525081019061274c919061474c565b90505f811461275b5780612763565b655af3107a40005b91505090565b612771612e9c565b73ffffffffffffffffffffffffffffffffffffffff1663d3a6580582306040518363ffffffff1660e01b81526004016127ab9291906145ea565b5f6040518083038186803b1580156127c1575f5ffd5b505afa1580156127d3573d5f5f3e3d5ffd5b5050505050565b5f33905090565b5f5f6127eb612472565b90506127f78484611258565b156128ce575f815f015f8681526020019081526020015f205f015f8573ffffffffffffffffffffffffffffffffffffffff1673ffffffffffffffffffffffffffffffffffffffff1681526020019081526020015f205f6101000a81548160ff02191690831515021790555061286a6127da565b73ffffffffffffffffffffffffffffffffffffffff168373ffffffffffffffffffffffffffffffffffffffff16857ff6391f5c32d9c69d2a47ea670b442974b53935d1edc7fd64eb21e047a839171b60405160405180910390a460019150506128d3565b5f9150505b92915050565b6128e1613708565b5f6128ea612c00565b90505f815f015f6101000a81548160ff0219169083151502179055507f5db9ee0a495bf2e6ff9c91a7834c1ba4fdd244a5e8aa4e537bd38aeae4b073aa61292f6127da565b60405161293c9190613f50565b60405180910390a150565b7f000000000000000000000000000000000000000000000000000000000000000073ffffffffffffffffffffffffffffffffffffffff163073ffffffffffffffffffffffffffffffffffffffff1614806129f457507f000000000000000000000000000000000000000000000000000000000000000073ffffffffffffffffffffffffffffffffffffffff166129db613748565b73ffffffffffffffffffffffffffffffffffffffff1614155b15612a2b576040517fe07c8dba00000000000000000000000000000000000000000000000000000000815260040160405180910390fd5b565b7f189ab7a9244df0848122154315af71fe140f3db0fe014031783b0946b8c9d2e3612a5781612499565b5050565b8173ffffffffffffffffffffffffffffffffffffffff166352d1902d6040518163ffffffff1660e01b8152600401602060405180830381865afa925050508015612ac357506040513d601f19601f82011682018060405250810190612ac091906147e0565b60015b612b0457816040517f4c9c8ce3000000000000000000000000000000000000000000000000000000008152600401612afb9190613f50565b60405180910390fd5b7f360894a13ba1a3210667c828492db98dca3e2076cc3735a920a3ca505d382bbc5f1b8114612b6a57806040517faa1d49a4000000000000000000000000000000000000000000000000000000008152600401612b619190613ea7565b60405180910390fd5b612b74838361379b565b505050565b7f000000000000000000000000000000000000000000000000000000000000000073ffffffffffffffffffffffffffffffffffffffff163073ffffffffffffffffffffffffffffffffffffffff1614612bfe576040517fe07c8dba00000000000000000000000000000000000000000000000000000000815260040160405180910390fd5b565b5f7fcd5ed15c6e187e77e9aee88184c21f4f2182ab5827cb3b7e07fbedcd63f03300905090565b5f600b5f9054906101000a900473ffffffffffffffffffffffffffffffffffffffff1673ffffffffffffffffffffffffffffffffffffffff166370a08231836040518263ffffffff1660e01b8152600401612c829190613f50565b602060405180830381865afa158015612c9d573d5f5f3e3d5ffd5b505050506040513d601f19601f82011682018060405250810190612cc1919061474c565b9050919050565b612cd06121c3565b5f612cd9612c00565b90506001815f015f6101000a81548160ff0219169083151502179055507f62e78cea01bee320cd4e420270b5ea74000d11b0c9f74754ebdbfc544b05a258612d1f6127da565b604051612d2c9190613f50565b60405180910390a150565b5f60085f9054906101000a900473ffffffffffffffffffffffffffffffffffffffff1673ffffffffffffffffffffffffffffffffffffffff1663f3fdb15a6040518163ffffffff1660e01b8152600401602060405180830381865afa158015612da2573d5f5f3e3d5ffd5b505050506040513d601f19601f82011682018060405250810190612dc69190614721565b905090565b5f60065f8373ffffffffffffffffffffffffffffffffffffffff1673ffffffffffffffffffffffffffffffffffffffff1681526020019081526020015f205f9054906101000a900473ffffffffffffffffffffffffffffffffffffffff1673ffffffffffffffffffffffffffffffffffffffff16634ac8eb5f6040518163ffffffff1660e01b8152600401602060405180830381865afa158015612e71573d5f5f3e3d5ffd5b505050506040513d601f19601f82011682018060405250810190612e95919061474c565b9050919050565b5f60085f9054906101000a900473ffffffffffffffffffffffffffffffffffffffff1673ffffffffffffffffffffffffffffffffffffffff1663e40208046040518163ffffffff1660e01b8152600401602060405180830381865afa158015612f07573d5f5f3e3d5ffd5b505050506040513d601f19601f82011682018060405250810190612f2b9190614721565b905090565b5f60025460015483612f42919061426c565b612f4c91906142da565b9050919050565b5f5f612f5d61380d565b90508091505090565b612f6e613836565b565b612f78613836565b565b612f82613836565b565b612f8c613836565b612f94613876565b565b5f811480612fab5750670de0b6b3a764000081115b15612fed57806040517f2e3fcf0a000000000000000000000000000000000000000000000000000000008152600401612fe49190613e21565b60405180910390fd5b80600c8190555050565b5f60085f9054906101000a900473ffffffffffffffffffffffffffffffffffffffff1673ffffffffffffffffffffffffffffffffffffffff16638da5cb5b6040518163ffffffff1660e01b8152600401602060405180830381865afa158015613062573d5f5f3e3d5ffd5b505050506040513d601f19601f820116820180604052508101906130869190614721565b905090565b5f5f5f600a5f9054906101000a900473ffffffffffffffffffffffffffffffffffffffff1673ffffffffffffffffffffffffffffffffffffffff166306fdde036040518163ffffffff1660e01b81526004015f60405180830381865afa1580156130f7573d5f5f3e3d5ffd5b505050506040513d5f823e3d601f19601f8201168201806040525081019061311f91906148a9565b90505f600a5f9054906101000a900473ffffffffffffffffffffffffffffffffffffffff1673ffffffffffffffffffffffffffffffffffffffff166395d89b416040518163ffffffff1660e01b81526004015f60405180830381865afa15801561318b573d5f5f3e3d5ffd5b505050506040513d5f823e3d601f19601f820116820180604052508101906131b391906148a9565b90505f600a5f9054906101000a900473ffffffffffffffffffffffffffffffffffffffff1673ffffffffffffffffffffffffffffffffffffffff1663313ce5676040518163ffffffff1660e01b8152600401602060405180830381865afa158015613220573d5f5f3e3d5ffd5b505050506040513d601f19601f8201168201806040525081019061324491906147a1565b90505f4290505f613253613898565b73ffffffffffffffffffffffffffffffffffffffff1663184f7bb26040518163ffffffff1660e01b81526004016020604051808303815f875af115801561329c573d5f5f3e3d5ffd5b505050506040513d601f19601f820116820180604052508101906132c09190614721565b90505f63613445ae60e01b60085f9054906101000a900473ffffffffffffffffffffffffffffffffffffffff168488888830604051602401613307969594939291906148ff565b604051602081830303815290604052907bffffffffffffffffffffffffffffffffffffffffffffffffffffffff19166020820180517bffffffffffffffffffffffffffffffffffffffffffffffffffffffff838183161783525050505090505f6133718383613491565b905080600b5f6101000a81548173ffffffffffffffffffffffffffffffffffffffff021916908373ffffffffffffffffffffffffffffffffffffffff1602179055507f38e9febe5ed8e8fe9ad5ca79f59612f38d56b1209c15eb5a940862e336a1eb4481846040516133e49291906145ea565b60405180910390a1808398509850505050505050509091565b5f60085f9054906101000a900473ffffffffffffffffffffffffffffffffffffffff1673ffffffffffffffffffffffffffffffffffffffff1663bd3b54716040518163ffffffff1660e01b8152600401602060405180830381865afa158015613468573d5f5f3e3d5ffd5b505050506040513d601f19601f8201168201806040525081019061348c9190614721565b905090565b5f61349a61392c565b73ffffffffffffffffffffffffffffffffffffffff16639f5eed7584846040518363ffffffff1660e01b81526004016134d49291906149be565b6020604051808303815f875af11580156134f0573d5f5f3e3d5ffd5b505050506040513d601f19601f820116820180604052508101906135149190614721565b905092915050565b6135246139c0565b1561355b576040517f3ee5aeb500000000000000000000000000000000000000000000000000000000815260040160405180910390fd5b565b5f7f9b779b17422d0df92223018b32b4d1fa46e071723d6817e2486d003becc55f005f1b905090565b5f819050919050565b5f600b5f9054906101000a900473ffffffffffffffffffffffffffffffffffffffff1673ffffffffffffffffffffffffffffffffffffffff166318160ddd6040518163ffffffff1660e01b8152600401602060405180830381865afa1580156135fa573d5f5f3e3d5ffd5b505050506040513d601f19601f8201168201806040525081019061361e919061474c565b905090565b61362d8282611258565b6136705780826040517fe2517d3f0000000000000000000000000000000000000000000000000000000081526004016136679291906149ec565b60405180910390fd5b5050565b5f60085f9054906101000a900473ffffffffffffffffffffffffffffffffffffffff1673ffffffffffffffffffffffffffffffffffffffff16638ce744266040518163ffffffff1660e01b8152600401602060405180830381865afa1580156136df573d5f5f3e3d5ffd5b505050506040513d601f19601f820116820180604052508101906137039190614721565b905090565b613710610f60565b613746576040517f8dfc202b00000000000000000000000000000000000000000000000000000000815260040160405180910390fd5b565b5f6137747f360894a13ba1a3210667c828492db98dca3e2076cc3735a920a3ca505d382bbc5f1b6139dc565b5f015f9054906101000a900473ffffffffffffffffffffffffffffffffffffffff16905090565b6137a4826139e5565b8173ffffffffffffffffffffffffffffffffffffffff167fbc7cd75a20ee27fd9adebab32041f755214dbc6bffa90cc0225b39da2e5c2d3b60405160405180910390a25f81511115613800576137fa8282613aae565b50613809565b613808613b2e565b5b5050565b5f7ff0c57e16840df040f15088dc2f81fe391c3923bec73e23a9662efc9c229c6a005f1b905090565b61383e613b6a565b613874576040517fd7e6bcf800000000000000000000000000000000000000000000000000000000815260040160405180910390fd5b565b61387e613836565b600161389061388b61355d565b613586565b5f0181905550565b5f60085f9054906101000a900473ffffffffffffffffffffffffffffffffffffffff1673ffffffffffffffffffffffffffffffffffffffff1663043d92466040518163ffffffff1660e01b8152600401602060405180830381865afa158015613903573d5f5f3e3d5ffd5b505050506040513d601f19601f820116820180604052508101906139279190614721565b905090565b5f60085f9054906101000a900473ffffffffffffffffffffffffffffffffffffffff1673ffffffffffffffffffffffffffffffffffffffff16630a2882b86040518163ffffffff1660e01b8152600401602060405180830381865afa158015613997573d5f5f3e3d5ffd5b505050506040513d601f19601f820116820180604052508101906139bb9190614721565b905090565b5f60026139d36139ce61355d565b613586565b5f015414905090565b5f819050919050565b5f8173ffffffffffffffffffffffffffffffffffffffff163b03613a4057806040517f4c9c8ce3000000000000000000000000000000000000000000000000000000008152600401613a379190613f50565b60405180910390fd5b80613a6c7f360894a13ba1a3210667c828492db98dca3e2076cc3735a920a3ca505d382bbc5f1b6139dc565b5f015f6101000a81548173ffffffffffffffffffffffffffffffffffffffff021916908373ffffffffffffffffffffffffffffffffffffffff16021790555050565b60605f5f8473ffffffffffffffffffffffffffffffffffffffff1684604051613ad79190614a4d565b5f60405180830381855af49150503d805f8114613b0f576040519150601f19603f3d011682016040523d82523d5f602084013e613b14565b606091505b5091509150613b24858383613b88565b9250505092915050565b5f341115613b68576040517fb398979f00000000000000000000000000000000000000000000000000000000815260040160405180910390fd5b565b5f613b73612f53565b5f0160089054906101000a900460ff16905090565b606082613b9d57613b9882613c15565b613c0d565b5f8251148015613bc357505f8473ffffffffffffffffffffffffffffffffffffffff163b145b15613c0557836040517f9996b315000000000000000000000000000000000000000000000000000000008152600401613bfc9190613f50565b60405180910390fd5b819050613c0e565b5b9392505050565b5f81511115613c2657805160208201fd5b6040517fd6bda27500000000000000000000000000000000000000000000000000000000815260040160405180910390fd5b5f604051905090565b5f5ffd5b5f5ffd5b5f7fffffffff0000000000000000000000000000000000000000000000000000000082169050919050565b613c9d81613c69565b8114613ca7575f5ffd5b50565b5f81359050613cb881613c94565b92915050565b5f60208284031215613cd357613cd2613c61565b5b5f613ce084828501613caa565b91505092915050565b5f8115159050919050565b613cfd81613ce9565b82525050565b5f602082019050613d165f830184613cf4565b92915050565b5f73ffffffffffffffffffffffffffffffffffffffff82169050919050565b5f613d4582613d1c565b9050919050565b613d5581613d3b565b8114613d5f575f5ffd5b50565b5f81359050613d7081613d4c565b92915050565b5f60208284031215613d8b57613d8a613c61565b5b5f613d9884828501613d62565b91505092915050565b5f819050919050565b613db381613da1565b8114613dbd575f5ffd5b50565b5f81359050613dce81613daa565b92915050565b5f5f60408385031215613dea57613de9613c61565b5b5f613df785828601613dc0565b9250506020613e0885828601613d62565b9150509250929050565b613e1b81613da1565b82525050565b5f602082019050613e345f830184613e12565b92915050565b5f819050919050565b613e4c81613e3a565b8114613e56575f5ffd5b50565b5f81359050613e6781613e43565b92915050565b5f60208284031215613e8257613e81613c61565b5b5f613e8f84828501613e59565b91505092915050565b613ea181613e3a565b82525050565b5f602082019050613eba5f830184613e98565b92915050565b5f5f60408385031215613ed657613ed5613c61565b5b5f613ee385828601613e59565b9250506020613ef485828601613d62565b9150509250929050565b5f608082019050613f115f830187613e12565b613f1e6020830186613e12565b613f2b6040830185613e12565b613f386060830184613e12565b95945050505050565b613f4a81613d3b565b82525050565b5f602082019050613f635f830184613f41565b92915050565b5f5ffd5b5f5ffd5b5f601f19601f8301169050919050565b7f4e487b71000000000000000000000000000000000000000000000000000000005f52604160045260245ffd5b613fb782613f71565b810181811067ffffffffffffffff82111715613fd657613fd5613f81565b5b80604052505050565b5f613fe8613c58565b9050613ff48282613fae565b919050565b5f67ffffffffffffffff82111561401357614012613f81565b5b61401c82613f71565b9050602081019050919050565b828183375f83830152505050565b5f61404961404484613ff9565b613fdf565b90508281526020810184848401111561406557614064613f6d565b5b614070848285614029565b509392505050565b5f82601f83011261408c5761408b613f69565b5b813561409c848260208601614037565b91505092915050565b5f5f604083850312156140bb576140ba613c61565b5b5f6140c885828601613d62565b925050602083013567ffffffffffffffff8111156140e9576140e8613c65565b5b6140f585828601614078565b9150509250929050565b5f81519050919050565b5f82825260208201905092915050565b8281835e5f83830152505050565b5f614131826140ff565b61413b8185614109565b935061414b818560208601614119565b61415481613f71565b840191505092915050565b5f6020820190508181035f8301526141778184614127565b905092915050565b5f6060820190506141925f830186613e12565b61419f6020830185613e12565b6141ac6040830184613f41565b949350505050565b5f5f5f5f608085870312156141cc576141cb613c61565b5b5f6141d987828801613d62565b94505060206141ea87828801613d62565b93505060406141fb87828801613d62565b925050606061420c87828801613dc0565b91505092959194509250565b5f60408201905061422b5f830185613e12565b6142386020830184613e12565b9392505050565b7f4e487b71000000000000000000000000000000000000000000000000000000005f52601160045260245ffd5b5f61427682613da1565b915061428183613da1565b925082820261428f81613da1565b915082820484148315176142a6576142a561423f565b5b5092915050565b7f4e487b71000000000000000000000000000000000000000000000000000000005f52601260045260245ffd5b5f6142e482613da1565b91506142ef83613da1565b9250826142ff576142fe6142ad565b5b828204905092915050565b5f61431482613da1565b915061431f83613da1565b92508282019050808211156143375761433661423f565b5b92915050565b5f8160011c9050919050565b5f5f8291508390505b60018511156143925780860481111561436e5761436d61423f565b5b600185161561437d5780820291505b808102905061438b8561433d565b9450614352565b94509492505050565b5f826143aa5760019050614465565b816143b7575f9050614465565b81600181146143cd57600281146143d757614406565b6001915050614465565b60ff8411156143e9576143e861423f565b5b8360020a915084821115614400576143ff61423f565b5b50614465565b5060208310610133831016604e8410600b841016171561443b5782820a9050838111156144365761443561423f565b5b614465565b6144488484846001614349565b9250905081840481111561445f5761445e61423f565b5b81810290505b9392505050565b5f60ff82169050919050565b5f61448282613da1565b915061448d8361446c565b92506144ba7fffffffffffffffffffffffffffffffffffffffffffffffffffffffffffffffff848461439b565b905092915050565b5f6040820190506144d55f830185613f41565b6144e26020830184613e12565b9392505050565b5f6060820190506144fc5f830186613f41565b6145096020830185613e12565b6145166040830184613e12565b949350505050565b5f61452882613da1565b915061453383613da1565b925082820390508181111561454b5761454a61423f565b5b92915050565b5f8151905061455f81613daa565b92915050565b5f5f5f6060848603121561457c5761457b613c61565b5b5f61458986828701614551565b935050602061459a86828701614551565b92505060406145ab86828701614551565b9150509250925092565b5f6060820190506145c85f830186613e12565b6145d56020830185613e12565b6145e26040830184613e12565b949350505050565b5f6040820190506145fd5f830185613f41565b61460a6020830184613f41565b9392505050565b61461a81613ce9565b8114614624575f5ffd5b50565b5f8151905061463581614611565b92915050565b5f5f5f5f6080858703121561465357614652613c61565b5b5f61466087828801614627565b945050602061467187828801614551565b935050604061468287828801614551565b925050606061469387828801614551565b91505092959194509250565b5f819050919050565b5f67ffffffffffffffff82169050919050565b5f819050919050565b5f6146de6146d96146d48461469f565b6146bb565b6146a8565b9050919050565b6146ee816146c4565b82525050565b5f6020820190506147075f8301846146e5565b92915050565b5f8151905061471b81613d4c565b92915050565b5f6020828403121561473657614735613c61565b5b5f6147438482850161470d565b91505092915050565b5f6020828403121561476157614760613c61565b5b5f61476e84828501614551565b91505092915050565b6147808161446c565b811461478a575f5ffd5b50565b5f8151905061479b81614777565b92915050565b5f602082840312156147b6576147b5613c61565b5b5f6147c38482850161478d565b91505092915050565b5f815190506147da81613e43565b92915050565b5f602082840312156147f5576147f4613c61565b5b5f614802848285016147cc565b91505092915050565b5f67ffffffffffffffff82111561482557614824613f81565b5b61482e82613f71565b9050602081019050919050565b5f61484d6148488461480b565b613fdf565b90508281526020810184848401111561486957614868613f6d565b5b614874848285614119565b509392505050565b5f82601f8301126148905761488f613f69565b5b81516148a084826020860161483b565b91505092915050565b5f602082840312156148be576148bd613c61565b5b5f82015167ffffffffffffffff8111156148db576148da613c65565b5b6148e78482850161487c565b91505092915050565b6148f98161446c565b82525050565b5f60c0820190506149125f830189613f41565b61491f6020830188613e12565b81810360408301526149318187614127565b905081810360608301526149458186614127565b905061495460808301856148f0565b61496160a0830184613f41565b979650505050505050565b5f81519050919050565b5f82825260208201905092915050565b5f6149908261496c565b61499a8185614976565b93506149aa818560208601614119565b6149b381613f71565b840191505092915050565b5f6040820190506149d15f830185613f41565b81810360208301526149e38184614986565b90509392505050565b5f6040820190506149ff5f830185613f41565b614a0c6020830184613e98565b9392505050565b5f81905092915050565b5f614a278261496c565b614a318185614a13565b9350614a41818560208601614119565b80840191505092915050565b5f614a588284614a1d565b91508190509291505056fea2646970667358221220f3db8f94493c9b717507126290d9f45806d328ce6e4955c6bb2aab116a8f6cfd64736f6c634300081e0033","linkReferences":{}},"methodIdentifiers":{"DEFAULT_ADMIN_ROLE()":"a217fddf","OWNER_ROLE()":"e58378bb","UPGRADER_ROLE()":"f72c0d8b","UPGRADE_INTERFACE_VERSION()":"ad3cb1cc","accrueInterest()":"a6afed95","addressPositions(address)":"f79c3800","borrowDebt(uint256,address)":"35fce80e","borrowToken()":"456dc17a","collateralToken()":"b2016bd4","createPosition(address)":"f7e0ebf6","factory()":"c45a0155","getRoleAdmin(bytes32)":"248a9ca3","grantRole(bytes32,address)":"2f2ff15d","hasRole(bytes32,address)":"91d14854","initialize(address,address,address,uint256)":"cf756fdf","lastAccrued()":"f9ec9f28","lendingPool()":"a59a9973","liquidation(address)":"b83e62bf","ltv()":"6fb49d73","pause()":"8456cb59","paused()":"5c975abb","proxiableUUID()":"52d1902d","renounceRole(bytes32,address)":"36568abe","repayWithSelectedToken(uint256,address)":"9d058e67","revokeRole(bytes32,address)":"d547741f","setLendingPool(address)":"113aa8b1","sharesToken()":"8009ba1f","supplyLiquidity(uint256,address)":"11d9dbd3","supportsInterface(bytes4)":"01ffc9a7","totalBorrowAssets()":"1aad44c2","totalBorrowShares()":"136cf1f7","totalReserveAssets()":"f2ee5c34","totalSupplyAssets()":"94877fc4","unpause()":"3f4ba83a","upgradeToAndCall(address,bytes)":"4f1ef286","userBorrowShares(address)":"4fd422df","withdrawLiquidity(uint256,address)":"68fc0c9a"},"id":204}