{"abi":[{"type":"constructor","inputs":[{"name":"_token","type":"address","internalType":"address"}],"stateMutability":"nonpayable"},{"type":"function","name":"decimals","inputs":[],"outputs":[{"name":"","type":"uint8","internalType":"uint8"}],"stateMutability":"view"},{"type":"function","name":"latestRoundData","inputs":[],"outputs":[{"name":"","type":"uint80","internalType":"uint80"},{"name":"","type":"int256","internalType":"int256"},{"name":"","type":"uint256","internalType":"uint256"}],"stateMutability":"view"},{"type":"function","name":"owner","inputs":[],"outputs":[{"name":"","type":"address","internalType":"address"}],"stateMutability":"view"},{"type":"function","name":"price","inputs":[],"outputs":[{"name":"","type":"int256","internalType":"int256"}],"stateMutability":"view"},{"type":"function","name":"renounceOwnership","inputs":[],"outputs":[],"stateMutability":"nonpayable"},{"type":"function","name":"roundId","inputs":[],"outputs":[{"name":"","type":"uint80","internalType":"uint80"}],"stateMutability":"view"},{"type":"function","name":"setPrice","inputs":[{"name":"_price","type":"int256","internalType":"int256"}],"outputs":[],"stateMutability":"nonpayable"},{"type":"function","name":"token","inputs":[],"outputs":[{"name":"","type":"address","internalType":"address"}],"stateMutability":"view"},{"type":"function","name":"transferOwnership","inputs":[{"name":"newOwner","type":"address","internalType":"address"}],"outputs":[],"stateMutability":"nonpayable"},{"type":"function","name":"updatedAt","inputs":[],"outputs":[{"name":"","type":"uint256","internalType":"uint256"}],"stateMutability":"view"},{"type":"event","name":"OwnershipTransferred","inputs":[{"name":"previousOwner","type":"address","indexed":true,"internalType":"address"},{"name":"newOwner","type":"address","indexed":true,"internalType":"address"}],"anonymous":false},{"type":"error","name":"OwnableInvalidOwner","inputs":[{"name":"owner","type":"address","internalType":"address"}]},{"type":"error","name":"OwnableUnauthorizedAccount","inputs":[{"name":"account","type":"address","internalType":"address"}]}],"bytecode":{"object":"0x6080604052600860045f6101000a81548160ff021916908360ff16021790555034801561002a575f5ffd5b5060405161096b38038061096b833981810160405281019061004c9190610232565b335f73ffffffffffffffffffffffffffffffffffffffff168173ffffffffffffffffffffffffffffffffffffffff16036100bd575f6040517f1e4fbdf70000000000000000000000000000000000000000000000000000000081526004016100b4919061026c565b60405180910390fd5b6100cc8161011360201b60201c565b508060015f6101000a81548173ffffffffffffffffffffffffffffffffffffffff021916908373ffffffffffffffffffffffffffffffffffffffff16021790555050610285565b5f5f5f9054906101000a900473ffffffffffffffffffffffffffffffffffffffff169050815f5f6101000a81548173ffffffffffffffffffffffffffffffffffffffff021916908373ffffffffffffffffffffffffffffffffffffffff1602179055508173ffffffffffffffffffffffffffffffffffffffff168173ffffffffffffffffffffffffffffffffffffffff167f8be0079c531659141344cd1fd0a4f28419497f9722a3daafe3b4186f6b6457e060405160405180910390a35050565b5f5ffd5b5f73ffffffffffffffffffffffffffffffffffffffff82169050919050565b5f610201826101d8565b9050919050565b610211816101f7565b811461021b575f5ffd5b50565b5f8151905061022c81610208565b92915050565b5f60208284031215610247576102466101d4565b5b5f6102548482850161021e565b91505092915050565b610266816101f7565b82525050565b5f60208201905061027f5f83018461025d565b92915050565b6106d9806102925f395ff3fe608060405234801561000f575f5ffd5b506004361061009c575f3560e01c8063a035b1fe11610064578063a035b1fe14610122578063f2fde38b14610140578063f7a308061461015c578063fc0c546a14610178578063feaf968c146101965761009c565b8063313ce567146100a0578063715018a6146100be5780637519ab50146100c85780638cd221c9146100e65780638da5cb5b14610104575b5f5ffd5b6100a86101b6565b6040516100b591906104b0565b60405180910390f35b6100c66101c8565b005b6100d06101db565b6040516100dd91906104e1565b60405180910390f35b6100ee6101e1565b6040516100fb919061051e565b60405180910390f35b61010c6101fd565b6040516101199190610576565b60405180910390f35b61012a610224565b60405161013791906105a7565b60405180910390f35b61015a600480360381019061015591906105ee565b61022a565b005b61017660048036038101906101719190610643565b6102ae565b005b6101806102f4565b60405161018d9190610576565b60405180910390f35b61019e610319565b6040516101ad9392919061066e565b60405180910390f35b60045f9054906101000a900460ff1681565b6101d0610346565b6101d95f6103cd565b565b60035481565b600160149054906101000a900469ffffffffffffffffffff1681565b5f5f5f9054906101000a900473ffffffffffffffffffffffffffffffffffffffff16905090565b60025481565b610232610346565b5f73ffffffffffffffffffffffffffffffffffffffff168173ffffffffffffffffffffffffffffffffffffffff16036102a2575f6040517f1e4fbdf70000000000000000000000000000000000000000000000000000000081526004016102999190610576565b60405180910390fd5b6102ab816103cd565b50565b6102b6610346565b60018060146101000a81548169ffffffffffffffffffff021916908369ffffffffffffffffffff160217905550806002819055504260038190555050565b60015f9054906101000a900473ffffffffffffffffffffffffffffffffffffffff1681565b5f5f5f600160149054906101000a900469ffffffffffffffffffff16600254600354925092509250909192565b61034e61048e565b73ffffffffffffffffffffffffffffffffffffffff1661036c6101fd565b73ffffffffffffffffffffffffffffffffffffffff16146103cb5761038f61048e565b6040517f118cdaa70000000000000000000000000000000000000000000000000000000081526004016103c29190610576565b60405180910390fd5b565b5f5f5f9054906101000a900473ffffffffffffffffffffffffffffffffffffffff169050815f5f6101000a81548173ffffffffffffffffffffffffffffffffffffffff021916908373ffffffffffffffffffffffffffffffffffffffff1602179055508173ffffffffffffffffffffffffffffffffffffffff168173ffffffffffffffffffffffffffffffffffffffff167f8be0079c531659141344cd1fd0a4f28419497f9722a3daafe3b4186f6b6457e060405160405180910390a35050565b5f33905090565b5f60ff82169050919050565b6104aa81610495565b82525050565b5f6020820190506104c35f8301846104a1565b92915050565b5f819050919050565b6104db816104c9565b82525050565b5f6020820190506104f45f8301846104d2565b92915050565b5f69ffffffffffffffffffff82169050919050565b610518816104fa565b82525050565b5f6020820190506105315f83018461050f565b92915050565b5f73ffffffffffffffffffffffffffffffffffffffff82169050919050565b5f61056082610537565b9050919050565b61057081610556565b82525050565b5f6020820190506105895f830184610567565b92915050565b5f819050919050565b6105a18161058f565b82525050565b5f6020820190506105ba5f830184610598565b92915050565b5f5ffd5b6105cd81610556565b81146105d7575f5ffd5b50565b5f813590506105e8816105c4565b92915050565b5f60208284031215610603576106026105c0565b5b5f610610848285016105da565b91505092915050565b6106228161058f565b811461062c575f5ffd5b50565b5f8135905061063d81610619565b92915050565b5f60208284031215610658576106576105c0565b5b5f6106658482850161062f565b91505092915050565b5f6060820190506106815f83018661050f565b61068e6020830185610598565b61069b60408301846104d2565b94935050505056fea264697066735822122079621aecaf22b91d221e43b17ccd4af88c6468b96e36d795ce1554a86470f4bd64736f6c634300081e0033","linkReferences":{}},"methodIdentifiers":{"decimals()":"313ce567","latestRoundData()":"feaf968c","owner()":"8da5cb5b","price()":"a035b1fe","renounceOwnership()":"715018a6","roundId()":"8cd221c9","setPrice(int256)":"f7a30806","token()":"fc0c546a","transferOwnership(address)":"f2fde38b","updatedAt()":"7519ab50"},"id":163}