{"abi":[{"type":"constructor","inputs":[{"name":"_factory","type":"address","internalType":"address"}],"stateMutability":"nonpayable"},{"type":"function","name":"factory","inputs":[],"outputs":[{"name":"","type":"address","internalType":"address"}],"stateMutability":"view"},{"type":"function","name":"getCollateralBalance","inputs":[{"name":"_lendingPool","type":"address","internalType":"address"},{"name":"_user","type":"address","internalType":"address"}],"outputs":[{"name":"collateralBalance","type":"uint256","internalType":"uint256"}],"stateMutability":"view"},{"type":"function","name":"getExchangeRate","inputs":[{"name":"_tokenIn","type":"address","internalType":"address"},{"name":"_tokenOut","type":"address","internalType":"address"},{"name":"_amountIn","type":"uint256","internalType":"uint256"},{"name":"_position","type":"address","internalType":"address"}],"outputs":[{"name":"","type":"uint256","internalType":"uint256"}],"stateMutability":"view"},{"type":"function","name":"getFee","inputs":[{"name":"params","type":"tuple","internalType":"struct BorrowParams","components":[{"name":"sendParam","type":"tuple","internalType":"struct SendParam","components":[{"name":"dstEid","type":"uint32","internalType":"uint32"},{"name":"to","type":"bytes32","internalType":"bytes32"},{"name":"amountLD","type":"uint256","internalType":"uint256"},{"name":"minAmountLD","type":"uint256","internalType":"uint256"},{"name":"extraOptions","type":"bytes","internalType":"bytes"},{"name":"composeMsg","type":"bytes","internalType":"bytes"},{"name":"oftCmd","type":"bytes","internalType":"bytes"}]},{"name":"fee","type":"tuple","internalType":"struct MessagingFee","components":[{"name":"nativeFee","type":"uint256","internalType":"uint256"},{"name":"lzTokenFee","type":"uint256","internalType":"uint256"}]},{"name":"amount","type":"uint256","internalType":"uint256"},{"name":"chainId","type":"uint256","internalType":"uint256"},{"name":"addExecutorLzReceiveOption","type":"uint128","internalType":"uint128"}]},{"name":"_lendingPool","type":"address","internalType":"address"},{"name":"_payInLzToken","type":"bool","internalType":"bool"}],"outputs":[{"name":"","type":"uint256","internalType":"uint256"},{"name":"","type":"uint256","internalType":"uint256"}],"stateMutability":"view"},{"type":"function","name":"getMaxBorrowAmount","inputs":[{"name":"_lendingPool","type":"address","internalType":"address"},{"name":"_user","type":"address","internalType":"address"}],"outputs":[{"name":"","type":"uint256","internalType":"uint256"}],"stateMutability":"view"},{"type":"function","name":"getRouter","inputs":[{"name":"_lendingPool","type":"address","internalType":"address"}],"outputs":[{"name":"","type":"address","internalType":"address"}],"stateMutability":"view"},{"type":"function","name":"getTokenValue","inputs":[{"name":"_token","type":"address","internalType":"address"}],"outputs":[{"name":"","type":"uint256","internalType":"uint256"}],"stateMutability":"view"},{"type":"function","name":"getTotalLiquidity","inputs":[{"name":"_lendingPool","type":"address","internalType":"address"}],"outputs":[{"name":"totalLiquidity","type":"uint256","internalType":"uint256"}],"stateMutability":"view"},{"type":"function","name":"owner","inputs":[],"outputs":[{"name":"","type":"address","internalType":"address"}],"stateMutability":"view"},{"type":"function","name":"renounceOwnership","inputs":[],"outputs":[],"stateMutability":"nonpayable"},{"type":"function","name":"setFactory","inputs":[{"name":"_factory","type":"address","internalType":"address"}],"outputs":[],"stateMutability":"nonpayable"},{"type":"function","name":"transferOwnership","inputs":[{"name":"newOwner","type":"address","internalType":"address"}],"outputs":[],"stateMutability":"nonpayable"},{"type":"event","name":"OwnershipTransferred","inputs":[{"name":"previousOwner","type":"address","indexed":true,"internalType":"address"},{"name":"newOwner","type":"address","indexed":true,"internalType":"address"}],"anonymous":false},{"type":"error","name":"OwnableInvalidOwner","inputs":[{"name":"owner","type":"address","internalType":"address"}]},{"type":"error","name":"OwnableUnauthorizedAccount","inputs":[{"name":"account","type":"address","internalType":"address"}]}],"bytecode":{"object":"0x608060405234801561000f575f5ffd5b5060405161211038038061211083398181016040528101906100319190610217565b335f73ffffffffffffffffffffffffffffffffffffffff168173ffffffffffffffffffffffffffffffffffffffff16036100a2575f6040517f1e4fbdf70000000000000000000000000000000000000000000000000000000081526004016100999190610251565b60405180910390fd5b6100b1816100f860201b60201c565b508060015f6101000a81548173ffffffffffffffffffffffffffffffffffffffff021916908373ffffffffffffffffffffffffffffffffffffffff1602179055505061026a565b5f5f5f9054906101000a900473ffffffffffffffffffffffffffffffffffffffff169050815f5f6101000a81548173ffffffffffffffffffffffffffffffffffffffff021916908373ffffffffffffffffffffffffffffffffffffffff1602179055508173ffffffffffffffffffffffffffffffffffffffff168173ffffffffffffffffffffffffffffffffffffffff167f8be0079c531659141344cd1fd0a4f28419497f9722a3daafe3b4186f6b6457e060405160405180910390a35050565b5f5ffd5b5f73ffffffffffffffffffffffffffffffffffffffff82169050919050565b5f6101e6826101bd565b9050919050565b6101f6816101dc565b8114610200575f5ffd5b50565b5f81519050610211816101ed565b92915050565b5f6020828403121561022c5761022b6101b9565b5b5f61023984828501610203565b91505092915050565b61024b816101dc565b82525050565b5f6020820190506102645f830184610242565b92915050565b611e99806102775f395ff3fe608060405234801561000f575f5ffd5b50600436106100b2575f3560e01c80638efd45371161006f5780638efd45371461018a5780639de8ef79146101bb578063b7d5820b146101eb578063c45a01551461021b578063f1c5d6c214610239578063f2fde38b14610269576100b2565b806359ad586f146100b65780635bb47808146100e6578063715018a6146101025780637cff7d111461010c5780638369166d1461013c5780638da5cb5b1461016c575b5f5ffd5b6100d060048036038101906100cb91906115de565b610285565b6040516100dd9190611634565b60405180910390f35b61010060048036038101906100fb919061164d565b610439565b005b61010a610484565b005b610126600480360381019061012191906116a2565b610497565b6040516101339190611634565b60405180910390f35b6101566004803603810190610151919061164d565b610523565b6040516101639190611715565b60405180910390f35b610174610598565b6040516101819190611715565b60405180910390f35b6101a4600480360381019061019f9190611785565b6105bf565b6040516101b29291906117f1565b60405180910390f35b6101d560048036038101906101d0919061164d565b61066e565b6040516101e29190611634565b60405180910390f35b610205600480360381019061020091906115de565b610822565b6040516102129190611634565b60405180910390f35b610223610a5b565b6040516102309190611715565b60405180910390f35b610253600480360381019061024e919061164d565b610a80565b6040516102609190611634565b60405180910390f35b610283600480360381019061027e919061164d565b610b0b565b005b5f5f61029084610b8f565b90505f61029b610c0c565b73ffffffffffffffffffffffffffffffffffffffff168273ffffffffffffffffffffffffffffffffffffffff1603610353576102d5610c0c565b73ffffffffffffffffffffffffffffffffffffffff166370a08231866040518263ffffffff1660e01b815260040161030d9190611715565b602060405180830381865afa158015610328573d5f5f3e3d5ffd5b505050506040513d601f19601f8201168201806040525081019061034c919061182c565b90506103ce565b8173ffffffffffffffffffffffffffffffffffffffff166370a08231866040518263ffffffff1660e01b815260040161038c9190611715565b602060405180830381865afa1580156103a7573d5f5f3e3d5ffd5b505050506040513d601f19601f820116820180604052508101906103cb919061182c565b90505b5f6103d98686610ca0565b90505f6103e68787610e8f565b90505f81670de0b6b3a76400006103fc8a610ee5565b856104079190611884565b61041191906118f2565b61041b9190611922565b905083811061042a578361042c565b805b9550505050505092915050565b610441610f62565b8060015f6101000a81548173ffffffffffffffffffffffffffffffffffffffff021916908373ffffffffffffffffffffffffffffffffffffffff16021790555050565b61048c610f62565b6104955f610fe9565b565b5f5f8273ffffffffffffffffffffffffffffffffffffffff16634be893718787876040518463ffffffff1660e01b81526004016104d693929190611955565b602060405180830381865afa1580156104f1573d5f5f3e3d5ffd5b505050506040513d601f19601f82011682018060405250810190610515919061182c565b905080915050949350505050565b5f8173ffffffffffffffffffffffffffffffffffffffff1663f887ea406040518163ffffffff1660e01b8152600401602060405180830381865afa15801561056d573d5f5f3e3d5ffd5b505050506040513d601f19601f82011682018060405250810190610591919061199e565b9050919050565b5f5f5f9054906101000a900473ffffffffffffffffffffffffffffffffffffffff16905090565b5f5f5f6105cb856110aa565b90505f8173ffffffffffffffffffffffffffffffffffffffff16633b6f743b88805f01906105f991906119cd565b876040518363ffffffff1660e01b8152600401610617929190611c8b565b6040805180830381865afa158015610631573d5f5f3e3d5ffd5b505050506040513d601f19601f820116820180604052508101906106559190611d82565b9050805f01518160200151935093505050935093915050565b5f5f61067983611153565b73ffffffffffffffffffffffffffffffffffffffff1663456dc17a6040518163ffffffff1660e01b8152600401602060405180830381865afa1580156106c1573d5f5f3e3d5ffd5b505050506040513d601f19601f820116820180604052508101906106e5919061199e565b9050600173ffffffffffffffffffffffffffffffffffffffff168173ffffffffffffffffffffffffffffffffffffffff16036107a157610723610c0c565b73ffffffffffffffffffffffffffffffffffffffff166370a08231846040518263ffffffff1660e01b815260040161075b9190611715565b602060405180830381865afa158015610776573d5f5f3e3d5ffd5b505050506040513d601f19601f8201168201806040525081019061079a919061182c565b915061081c565b8073ffffffffffffffffffffffffffffffffffffffff166370a08231846040518263ffffffff1660e01b81526004016107da9190611715565b602060405180830381865afa1580156107f5573d5f5f3e3d5ffd5b505050506040513d601f19601f82011682018060405250810190610819919061182c565b91505b50919050565b5f5f61082d84611153565b73ffffffffffffffffffffffffffffffffffffffff1663b2016bd46040518163ffffffff1660e01b8152600401602060405180830381865afa158015610875573d5f5f3e3d5ffd5b505050506040513d601f19601f82011682018060405250810190610899919061199e565b90505f6108a585611153565b73ffffffffffffffffffffffffffffffffffffffff1663f79c3800856040518263ffffffff1660e01b81526004016108dd9190611715565b602060405180830381865afa1580156108f8573d5f5f3e3d5ffd5b505050506040513d601f19601f8201168201806040525081019061091c919061199e565b9050600173ffffffffffffffffffffffffffffffffffffffff168273ffffffffffffffffffffffffffffffffffffffff16036109d85761095a610c0c565b73ffffffffffffffffffffffffffffffffffffffff166370a08231826040518263ffffffff1660e01b81526004016109929190611715565b602060405180830381865afa1580156109ad573d5f5f3e3d5ffd5b505050506040513d601f19601f820116820180604052508101906109d1919061182c565b9250610a53565b8173ffffffffffffffffffffffffffffffffffffffff166370a08231826040518263ffffffff1660e01b8152600401610a119190611715565b602060405180830381865afa158015610a2c573d5f5f3e3d5ffd5b505050506040513d601f19601f82011682018060405250810190610a50919061182c565b92505b505092915050565b60015f9054906101000a900473ffffffffffffffffffffffffffffffffffffffff1681565b5f5f610a8b836111c8565b90505f8173ffffffffffffffffffffffffffffffffffffffff1663feaf968c6040518163ffffffff1660e01b815260040160a060405180830381865afa158015610ad7573d5f5f3e3d5ffd5b505050506040513d601f19601f82011682018060405250810190610afb9190611dec565b5050509150508092505050919050565b610b13610f62565b5f73ffffffffffffffffffffffffffffffffffffffff168173ffffffffffffffffffffffffffffffffffffffff1603610b83575f6040517f1e4fbdf7000000000000000000000000000000000000000000000000000000008152600401610b7a9190611715565b60405180910390fd5b610b8c81610fe9565b50565b5f610b9982611153565b73ffffffffffffffffffffffffffffffffffffffff1663456dc17a6040518163ffffffff1660e01b8152600401602060405180830381865afa158015610be1573d5f5f3e3d5ffd5b505050506040513d601f19601f82011682018060405250810190610c05919061199e565b9050919050565b5f60015f9054906101000a900473ffffffffffffffffffffffffffffffffffffffff1673ffffffffffffffffffffffffffffffffffffffff1663eb6d3a116040518163ffffffff1660e01b8152600401602060405180830381865afa158015610c77573d5f5f3e3d5ffd5b505050506040513d601f19601f82011682018060405250810190610c9b919061199e565b905090565b5f5f610cab8461124f565b90505f610cb785610b8f565b90505f610cc486866112cc565b90505f610ccf610c0c565b73ffffffffffffffffffffffffffffffffffffffff168473ffffffffffffffffffffffffffffffffffffffff1603610d8757610d09610c0c565b73ffffffffffffffffffffffffffffffffffffffff166370a08231836040518263ffffffff1660e01b8152600401610d419190611715565b602060405180830381865afa158015610d5c573d5f5f3e3d5ffd5b505050506040513d601f19601f82011682018060405250810190610d80919061182c565b9050610e02565b8373ffffffffffffffffffffffffffffffffffffffff166370a08231836040518263ffffffff1660e01b8152600401610dc09190611715565b602060405180830381865afa158015610ddb573d5f5f3e3d5ffd5b505050506040513d601f19601f82011682018060405250810190610dff919061182c565b90505b5f8290508073ffffffffffffffffffffffffffffffffffffffff16634be893718686856040518463ffffffff1660e01b8152600401610e4393929190611955565b602060405180830381865afa158015610e5e573d5f5f3e3d5ffd5b505050506040513d601f19601f82011682018060405250810190610e82919061182c565b9550505050505092915050565b5f5f610e9a84611355565b90505f610ea6856113d2565b90505f610eb3868661144f565b90505f8314610ed857818382610ec99190611884565b610ed391906118f2565b610eda565b5f5b935050505092915050565b5f610eef82611153565b73ffffffffffffffffffffffffffffffffffffffff16636fb49d736040518163ffffffff1660e01b8152600401602060405180830381865afa158015610f37573d5f5f3e3d5ffd5b505050506040513d601f19601f82011682018060405250810190610f5b919061182c565b9050919050565b610f6a6114d8565b73ffffffffffffffffffffffffffffffffffffffff16610f88610598565b73ffffffffffffffffffffffffffffffffffffffff1614610fe757610fab6114d8565b6040517f118cdaa7000000000000000000000000000000000000000000000000000000008152600401610fde9190611715565b60405180910390fd5b565b5f5f5f9054906101000a900473ffffffffffffffffffffffffffffffffffffffff169050815f5f6101000a81548173ffffffffffffffffffffffffffffffffffffffff021916908373ffffffffffffffffffffffffffffffffffffffff1602179055508173ffffffffffffffffffffffffffffffffffffffff168173ffffffffffffffffffffffffffffffffffffffff167f8be0079c531659141344cd1fd0a4f28419497f9722a3daafe3b4186f6b6457e060405160405180910390a35050565b5f60015f9054906101000a900473ffffffffffffffffffffffffffffffffffffffff1673ffffffffffffffffffffffffffffffffffffffff1663efe1b2cd6110f184610b8f565b6040518263ffffffff1660e01b815260040161110d9190611715565b602060405180830381865afa158015611128573d5f5f3e3d5ffd5b505050506040513d601f19601f8201168201806040525081019061114c919061199e565b9050919050565b5f8173ffffffffffffffffffffffffffffffffffffffff1663f887ea406040518163ffffffff1660e01b8152600401602060405180830381865afa15801561119d573d5f5f3e3d5ffd5b505050506040513d601f19601f820116820180604052508101906111c1919061199e565b9050919050565b5f6111d16114df565b73ffffffffffffffffffffffffffffffffffffffff16639878cbb3836040518263ffffffff1660e01b81526004016112099190611715565b602060405180830381865afa158015611224573d5f5f3e3d5ffd5b505050506040513d601f19601f82011682018060405250810190611248919061199e565b9050919050565b5f61125982611153565b73ffffffffffffffffffffffffffffffffffffffff1663b2016bd46040518163ffffffff1660e01b8152600401602060405180830381865afa1580156112a1573d5f5f3e3d5ffd5b505050506040513d601f19601f820116820180604052508101906112c5919061199e565b9050919050565b5f6112d683611153565b73ffffffffffffffffffffffffffffffffffffffff1663f79c3800836040518263ffffffff1660e01b815260040161130e9190611715565b602060405180830381865afa158015611329573d5f5f3e3d5ffd5b505050506040513d601f19601f8201168201806040525081019061134d919061199e565b905092915050565b5f61135f82611153565b73ffffffffffffffffffffffffffffffffffffffff16631aad44c26040518163ffffffff1660e01b8152600401602060405180830381865afa1580156113a7573d5f5f3e3d5ffd5b505050506040513d601f19601f820116820180604052508101906113cb919061182c565b9050919050565b5f6113dc82611153565b73ffffffffffffffffffffffffffffffffffffffff1663136cf1f76040518163ffffffff1660e01b8152600401602060405180830381865afa158015611424573d5f5f3e3d5ffd5b505050506040513d601f19601f82011682018060405250810190611448919061182c565b9050919050565b5f61145983611153565b73ffffffffffffffffffffffffffffffffffffffff16634fd422df836040518263ffffffff1660e01b81526004016114919190611715565b602060405180830381865afa1580156114ac573d5f5f3e3d5ffd5b505050506040513d601f19601f820116820180604052508101906114d0919061182c565b905092915050565b5f33905090565b5f60015f9054906101000a900473ffffffffffffffffffffffffffffffffffffffff1673ffffffffffffffffffffffffffffffffffffffff166375b568a66040518163ffffffff1660e01b8152600401602060405180830381865afa15801561154a573d5f5f3e3d5ffd5b505050506040513d601f19601f8201168201806040525081019061156e919061199e565b905090565b5f604051905090565b5f5ffd5b5f5ffd5b5f73ffffffffffffffffffffffffffffffffffffffff82169050919050565b5f6115ad82611584565b9050919050565b6115bd816115a3565b81146115c7575f5ffd5b50565b5f813590506115d8816115b4565b92915050565b5f5f604083850312156115f4576115f361157c565b5b5f611601858286016115ca565b9250506020611612858286016115ca565b9150509250929050565b5f819050919050565b61162e8161161c565b82525050565b5f6020820190506116475f830184611625565b92915050565b5f602082840312156116625761166161157c565b5b5f61166f848285016115ca565b91505092915050565b6116818161161c565b811461168b575f5ffd5b50565b5f8135905061169c81611678565b92915050565b5f5f5f5f608085870312156116ba576116b961157c565b5b5f6116c7878288016115ca565b94505060206116d8878288016115ca565b93505060406116e98782880161168e565b92505060606116fa878288016115ca565b91505092959194509250565b61170f816115a3565b82525050565b5f6020820190506117285f830184611706565b92915050565b5f5ffd5b5f60c082840312156117475761174661172e565b5b81905092915050565b5f8115159050919050565b61176481611750565b811461176e575f5ffd5b50565b5f8135905061177f8161175b565b92915050565b5f5f5f6060848603121561179c5761179b61157c565b5b5f84013567ffffffffffffffff8111156117b9576117b8611580565b5b6117c586828701611732565b93505060206117d6868287016115ca565b92505060406117e786828701611771565b9150509250925092565b5f6040820190506118045f830185611625565b6118116020830184611625565b9392505050565b5f8151905061182681611678565b92915050565b5f602082840312156118415761184061157c565b5b5f61184e84828501611818565b91505092915050565b7f4e487b71000000000000000000000000000000000000000000000000000000005f52601160045260245ffd5b5f61188e8261161c565b91506118998361161c565b92508282026118a78161161c565b915082820484148315176118be576118bd611857565b5b5092915050565b7f4e487b71000000000000000000000000000000000000000000000000000000005f52601260045260245ffd5b5f6118fc8261161c565b91506119078361161c565b925082611917576119166118c5565b5b828204905092915050565b5f61192c8261161c565b91506119378361161c565b925082820390508181111561194f5761194e611857565b5b92915050565b5f6060820190506119685f830186611706565b6119756020830185611706565b6119826040830184611625565b949350505050565b5f81519050611998816115b4565b92915050565b5f602082840312156119b3576119b261157c565b5b5f6119c08482850161198a565b91505092915050565b5f5ffd5b5f8235600160e0038336030381126119e8576119e76119c9565b5b80830191505092915050565b5f63ffffffff82169050919050565b611a0c816119f4565b8114611a16575f5ffd5b50565b5f81359050611a2781611a03565b92915050565b5f611a3b6020840184611a19565b905092915050565b611a4c816119f4565b82525050565b5f819050919050565b611a6481611a52565b8114611a6e575f5ffd5b50565b5f81359050611a7f81611a5b565b92915050565b5f611a936020840184611a71565b905092915050565b611aa481611a52565b82525050565b5f611ab8602084018461168e565b905092915050565b611ac98161161c565b82525050565b5f5ffd5b5f5ffd5b5f5ffd5b5f5f83356001602003843603038112611af757611af6611ad7565b5b83810192508235915060208301925067ffffffffffffffff821115611b1f57611b1e611acf565b5b600182023603831315611b3557611b34611ad3565b5b509250929050565b5f82825260208201905092915050565b828183375f83830152505050565b5f601f19601f8301169050919050565b5f611b768385611b3d565b9350611b83838584611b4d565b611b8c83611b5b565b840190509392505050565b5f60e08301611ba85f840184611a2d565b611bb45f860182611a43565b50611bc26020840184611a85565b611bcf6020860182611a9b565b50611bdd6040840184611aaa565b611bea6040860182611ac0565b50611bf86060840184611aaa565b611c056060860182611ac0565b50611c136080840184611adb565b8583036080870152611c26838284611b6b565b92505050611c3760a0840184611adb565b85830360a0870152611c4a838284611b6b565b92505050611c5b60c0840184611adb565b85830360c0870152611c6e838284611b6b565b925050508091505092915050565b611c8581611750565b82525050565b5f6040820190508181035f830152611ca38185611b97565b9050611cb26020830184611c7c565b9392505050565b5f5ffd5b7f4e487b71000000000000000000000000000000000000000000000000000000005f52604160045260245ffd5b611cf382611b5b565b810181811067ffffffffffffffff82111715611d1257611d11611cbd565b5b80604052505050565b5f611d24611573565b9050611d308282611cea565b919050565b5f60408284031215611d4a57611d49611cb9565b5b611d546040611d1b565b90505f611d6384828501611818565b5f830152506020611d7684828501611818565b60208301525092915050565b5f60408284031215611d9757611d9661157c565b5b5f611da484828501611d35565b91505092915050565b5f69ffffffffffffffffffff82169050919050565b611dcb81611dad565b8114611dd5575f5ffd5b50565b5f81519050611de681611dc2565b92915050565b5f5f5f5f5f60a08688031215611e0557611e0461157c565b5b5f611e1288828901611dd8565b9550506020611e2388828901611818565b9450506040611e3488828901611818565b9350506060611e4588828901611818565b9250506080611e5688828901611dd8565b915050929550929590935056fea2646970667358221220424c0e7b96eaf3bbfc5a4ae6bdc2e10b5a3920a0be026efee7c4aeecd3b1539464736f6c634300081e0033","linkReferences":{}},"methodIdentifiers":{"factory()":"c45a0155","getCollateralBalance(address,address)":"b7d5820b","getExchangeRate(address,address,uint256,address)":"7cff7d11","getFee(((uint32,bytes32,uint256,uint256,bytes,bytes,bytes),(uint256,uint256),uint256,uint256,uint128),address,bool)":"8efd4537","getMaxBorrowAmount(address,address)":"59ad586f","getRouter(address)":"8369166d","getTokenValue(address)":"f1c5d6c2","getTotalLiquidity(address)":"9de8ef79","owner()":"8da5cb5b","renounceOwnership()":"715018a6","setFactory(address)":"5bb47808","transferOwnership(address)":"f2fde38b"},"id":104}