{"abi":[{"type":"constructor","inputs":[{"name":"_endpoint","type":"address","internalType":"address"},{"name":"_owner","type":"address","internalType":"address"}],"stateMutability":"nonpayable"},{"type":"function","name":"SEND","inputs":[],"outputs":[{"name":"","type":"uint16","internalType":"uint16"}],"stateMutability":"view"},{"type":"function","name":"allowInitializePath","inputs":[{"name":"origin","type":"tuple","internalType":"struct Origin","components":[{"name":"srcEid","type":"uint32","internalType":"uint32"},{"name":"sender","type":"bytes32","internalType":"bytes32"},{"name":"nonce","type":"uint64","internalType":"uint64"}]}],"outputs":[{"name":"","type":"bool","internalType":"bool"}],"stateMutability":"view"},{"type":"function","name":"combineOptions","inputs":[{"name":"_eid","type":"uint32","internalType":"uint32"},{"name":"_msgType","type":"uint16","internalType":"uint16"},{"name":"_extraOptions","type":"bytes","internalType":"bytes"}],"outputs":[{"name":"","type":"bytes","internalType":"bytes"}],"stateMutability":"view"},{"type":"function","name":"endpoint","inputs":[],"outputs":[{"name":"","type":"address","internalType":"contract ILayerZeroEndpointV2"}],"stateMutability":"view"},{"type":"function","name":"enforcedOptions","inputs":[{"name":"eid","type":"uint32","internalType":"uint32"},{"name":"msgType","type":"uint16","internalType":"uint16"}],"outputs":[{"name":"enforcedOption","type":"bytes","internalType":"bytes"}],"stateMutability":"view"},{"type":"function","name":"execute","inputs":[{"name":"_lendingPool","type":"address","internalType":"address"},{"name":"_user","type":"address","internalType":"address"},{"name":"_amount","type":"uint256","internalType":"uint256"}],"outputs":[],"stateMutability":"nonpayable"},{"type":"function","name":"factory","inputs":[],"outputs":[{"name":"","type":"address","internalType":"address"}],"stateMutability":"view"},{"type":"function","name":"isComposeMsgSender","inputs":[{"name":"","type":"tuple","internalType":"struct Origin","components":[{"name":"srcEid","type":"uint32","internalType":"uint32"},{"name":"sender","type":"bytes32","internalType":"bytes32"},{"name":"nonce","type":"uint64","internalType":"uint64"}]},{"name":"","type":"bytes","internalType":"bytes"},{"name":"_sender","type":"address","internalType":"address"}],"outputs":[{"name":"","type":"bool","internalType":"bool"}],"stateMutability":"view"},{"type":"function","name":"lastMessage","inputs":[],"outputs":[{"name":"","type":"bytes","internalType":"bytes"}],"stateMutability":"view"},{"type":"function","name":"lzReceive","inputs":[{"name":"_origin","type":"tuple","internalType":"struct Origin","components":[{"name":"srcEid","type":"uint32","internalType":"uint32"},{"name":"sender","type":"bytes32","internalType":"bytes32"},{"name":"nonce","type":"uint64","internalType":"uint64"}]},{"name":"_guid","type":"bytes32","internalType":"bytes32"},{"name":"_message","type":"bytes","internalType":"bytes"},{"name":"_executor","type":"address","internalType":"address"},{"name":"_extraData","type":"bytes","internalType":"bytes"}],"outputs":[],"stateMutability":"payable"},{"type":"function","name":"nextNonce","inputs":[{"name":"","type":"uint32","internalType":"uint32"},{"name":"","type":"bytes32","internalType":"bytes32"}],"outputs":[{"name":"nonce","type":"uint64","internalType":"uint64"}],"stateMutability":"view"},{"type":"function","name":"oAppVersion","inputs":[],"outputs":[{"name":"senderVersion","type":"uint64","internalType":"uint64"},{"name":"receiverVersion","type":"uint64","internalType":"uint64"}],"stateMutability":"pure"},{"type":"function","name":"oftaddress","inputs":[],"outputs":[{"name":"","type":"address","internalType":"address"}],"stateMutability":"view"},{"type":"function","name":"owner","inputs":[],"outputs":[{"name":"","type":"address","internalType":"address"}],"stateMutability":"view"},{"type":"function","name":"peers","inputs":[{"name":"eid","type":"uint32","internalType":"uint32"}],"outputs":[{"name":"peer","type":"bytes32","internalType":"bytes32"}],"stateMutability":"view"},{"type":"function","name":"quoteSendString","inputs":[{"name":"_dstEid","type":"uint32","internalType":"uint32"},{"name":"_lendingPool","type":"address","internalType":"address"},{"name":"_user","type":"address","internalType":"address"},{"name":"_token","type":"address","internalType":"address"},{"name":"_amount","type":"uint256","internalType":"uint256"},{"name":"_options","type":"bytes","internalType":"bytes"},{"name":"_payInLzToken","type":"bool","internalType":"bool"}],"outputs":[{"name":"fee","type":"tuple","internalType":"struct MessagingFee","components":[{"name":"nativeFee","type":"uint256","internalType":"uint256"},{"name":"lzTokenFee","type":"uint256","internalType":"uint256"}]}],"stateMutability":"view"},{"type":"function","name":"renounceOwnership","inputs":[],"outputs":[],"stateMutability":"nonpayable"},{"type":"function","name":"sendString","inputs":[{"name":"_dstEid","type":"uint32","internalType":"uint32"},{"name":"_lendingPool","type":"address","internalType":"address"},{"name":"_user","type":"address","internalType":"address"},{"name":"_tokendst","type":"address","internalType":"address"},{"name":"_oappaddressdst","type":"address","internalType":"address"},{"name":"_amount","type":"uint256","internalType":"uint256"},{"name":"_slippageTolerance","type":"uint256","internalType":"uint256"},{"name":"_options","type":"bytes","internalType":"bytes"}],"outputs":[],"stateMutability":"payable"},{"type":"function","name":"setDelegate","inputs":[{"name":"_delegate","type":"address","internalType":"address"}],"outputs":[],"stateMutability":"nonpayable"},{"type":"function","name":"setEnforcedOptions","inputs":[{"name":"_enforcedOptions","type":"tuple[]","internalType":"struct EnforcedOptionParam[]","components":[{"name":"eid","type":"uint32","internalType":"uint32"},{"name":"msgType","type":"uint16","internalType":"uint16"},{"name":"options","type":"bytes","internalType":"bytes"}]}],"outputs":[],"stateMutability":"nonpayable"},{"type":"function","name":"setFactory","inputs":[{"name":"_factory","type":"address","internalType":"address"}],"outputs":[],"stateMutability":"nonpayable"},{"type":"function","name":"setOftAddress","inputs":[{"name":"_oftaddress","type":"address","internalType":"address"}],"outputs":[],"stateMutability":"nonpayable"},{"type":"function","name":"setPeer","inputs":[{"name":"_eid","type":"uint32","internalType":"uint32"},{"name":"_peer","type":"bytes32","internalType":"bytes32"}],"outputs":[],"stateMutability":"nonpayable"},{"type":"function","name":"transferOwnership","inputs":[{"name":"newOwner","type":"address","internalType":"address"}],"outputs":[],"stateMutability":"nonpayable"},{"type":"function","name":"userAmount","inputs":[{"name":"","type":"address","internalType":"address"}],"outputs":[{"name":"","type":"uint256","internalType":"uint256"}],"stateMutability":"view"},{"type":"event","name":"EnforcedOptionSet","inputs":[{"name":"_enforcedOptions","type":"tuple[]","indexed":false,"internalType":"struct EnforcedOptionParam[]","components":[{"name":"eid","type":"uint32","internalType":"uint32"},{"name":"msgType","type":"uint16","internalType":"uint16"},{"name":"options","type":"bytes","internalType":"bytes"}]}],"anonymous":false},{"type":"event","name":"ExecuteRepayDebt","inputs":[{"name":"lendingPool","type":"address","indexed":false,"internalType":"address"},{"name":"token","type":"address","indexed":false,"internalType":"address"},{"name":"user","type":"address","indexed":false,"internalType":"address"},{"name":"amount","type":"uint256","indexed":false,"internalType":"uint256"}],"anonymous":false},{"type":"event","name":"OwnershipTransferred","inputs":[{"name":"previousOwner","type":"address","indexed":true,"internalType":"address"},{"name":"newOwner","type":"address","indexed":true,"internalType":"address"}],"anonymous":false},{"type":"event","name":"PeerSet","inputs":[{"name":"eid","type":"uint32","indexed":false,"internalType":"uint32"},{"name":"peer","type":"bytes32","indexed":false,"internalType":"bytes32"}],"anonymous":false},{"type":"event","name":"SendRepayDebtFromDst","inputs":[{"name":"lendingPool","type":"address","indexed":false,"internalType":"address"},{"name":"user","type":"address","indexed":false,"internalType":"address"},{"name":"token","type":"address","indexed":false,"internalType":"address"},{"name":"amount","type":"uint256","indexed":false,"internalType":"uint256"}],"anonymous":false},{"type":"event","name":"SendRepayDebtFromSrc","inputs":[{"name":"lendingPool","type":"address","indexed":false,"internalType":"address"},{"name":"user","type":"address","indexed":false,"internalType":"address"},{"name":"token","type":"address","indexed":false,"internalType":"address"},{"name":"amount","type":"uint256","indexed":false,"internalType":"uint256"}],"anonymous":false},{"type":"error","name":"InsufficientBalance","inputs":[]},{"type":"error","name":"InvalidDelegate","inputs":[]},{"type":"error","name":"InvalidEndpointCall","inputs":[]},{"type":"error","name":"InvalidOptionType","inputs":[{"name":"optionType","type":"uint16","internalType":"uint16"}]},{"type":"error","name":"InvalidOptions","inputs":[{"name":"options","type":"bytes","internalType":"bytes"}]},{"type":"error","name":"LzTokenUnavailable","inputs":[]},{"type":"error","name":"NoPeer","inputs":[{"name":"eid","type":"uint32","internalType":"uint32"}]},{"type":"error","name":"NotEnoughNative","inputs":[{"name":"msgValue","type":"uint256","internalType":"uint256"}]},{"type":"error","name":"OnlyEndpoint","inputs":[{"name":"addr","type":"address","internalType":"address"}]},{"type":"error","name":"OnlyPeer","inputs":[{"name":"eid","type":"uint32","internalType":"uint32"},{"name":"sender","type":"bytes32","internalType":"bytes32"}]},{"type":"error","name":"OwnableInvalidOwner","inputs":[{"name":"owner","type":"address","internalType":"address"}]},{"type":"error","name":"OwnableUnauthorizedAccount","inputs":[{"name":"account","type":"address","internalType":"address"}]},{"type":"error","name":"SafeCastOverflowedUintDowncast","inputs":[{"name":"bits","type":"uint8","internalType":"uint8"},{"name":"value","type":"uint256","internalType":"uint256"}]},{"type":"error","name":"SafeERC20FailedOperation","inputs":[{"name":"token","type":"address","internalType":"address"}]}],"bytecode":{"object":"0x60a060405234801561000f575f5ffd5b506040516143cd3803806143cd833981810160405281019061003191906102e1565b81818181845f73ffffffffffffffffffffffffffffffffffffffff168173ffffffffffffffffffffffffffffffffffffffff16036100a6575f6040517f1e4fbdf700000000000000000000000000000000000000000000000000000000815260040161009d919061032e565b60405180910390fd5b6100b5816101c260201b60201c565b508173ffffffffffffffffffffffffffffffffffffffff1660808173ffffffffffffffffffffffffffffffffffffffff16815250505f73ffffffffffffffffffffffffffffffffffffffff168173ffffffffffffffffffffffffffffffffffffffff160361014f576040517fb586360400000000000000000000000000000000000000000000000000000000815260040160405180910390fd5b60805173ffffffffffffffffffffffffffffffffffffffff1663ca5eb5e1826040518263ffffffff1660e01b815260040161018a919061032e565b5f604051808303815f87803b1580156101a1575f5ffd5b505af11580156101b3573d5f5f3e3d5ffd5b50505050505050505050610347565b5f5f5f9054906101000a900473ffffffffffffffffffffffffffffffffffffffff169050815f5f6101000a81548173ffffffffffffffffffffffffffffffffffffffff021916908373ffffffffffffffffffffffffffffffffffffffff1602179055508173ffffffffffffffffffffffffffffffffffffffff168173ffffffffffffffffffffffffffffffffffffffff167f8be0079c531659141344cd1fd0a4f28419497f9722a3daafe3b4186f6b6457e060405160405180910390a35050565b5f5ffd5b5f73ffffffffffffffffffffffffffffffffffffffff82169050919050565b5f6102b082610287565b9050919050565b6102c0816102a6565b81146102ca575f5ffd5b50565b5f815190506102db816102b7565b92915050565b5f5f604083850312156102f7576102f6610283565b5b5f610304858286016102cd565b9250506020610315858286016102cd565b9150509250929050565b610328816102a6565b82525050565b5f6020820190506103415f83018461031f565b92915050565b6080516140446103895f395f81816105ef0152818161089e01528181610d440152818161132a01528181611dce01528181612127015261221f01526140445ff3fe608060405260043610610165575f3560e01c80638da5cb5b116100d0578063bc70b35411610089578063e1ad418e11610063578063e1ad418e1461050e578063eafaddfd1461054a578063f2fde38b14610572578063ff7bd03d1461059a57610165565b8063bc70b35414610480578063c45a0155146104bc578063ca5eb5e1146104e657610165565b80638da5cb5b14610384578063968a61ce146103ae5780639c967afa146103ca578063b5f78190146103f4578063b98bd0701461041c578063bb0b6a531461044457610165565b80635bb47808116101225780635bb47808146102685780635e280f111461029057806362a896b0146102ba578063715018a6146102f65780637d25a05e1461030c57806382413eac1461034857610165565b806313137d651461016957806317442b70146101855780631f5e1334146101b057806332970710146101da5780633400288b146102045780635535d4611461022c575b5f5ffd5b610183600480360381019061017e9190612427565b6105d6565b005b348015610190575f5ffd5b506101996106f6565b6040516101a7929190612500565b60405180910390f35b3480156101bb575f5ffd5b506101c4610704565b6040516101d19190612543565b60405180910390f35b3480156101e5575f5ffd5b506101ee610709565b6040516101fb91906125cc565b60405180910390f35b34801561020f575f5ffd5b5061022a60048036038101906102259190612625565b610795565b005b348015610237575f5ffd5b50610252600480360381019061024d919061268d565b6107ab565b60405161025f91906125cc565b60405180910390f35b348015610273575f5ffd5b5061028e600480360381019061028991906126cb565b610851565b005b34801561029b575f5ffd5b506102a461089c565b6040516102b19190612751565b60405180910390f35b3480156102c5575f5ffd5b506102e060048036038101906102db91906127d2565b6108c0565b6040516102ed91906128cb565b60405180910390f35b348015610301575f5ffd5b5061030a610918565b005b348015610317575f5ffd5b50610332600480360381019061032d9190612625565b61092b565b60405161033f91906128e4565b60405180910390f35b348015610353575f5ffd5b5061036e600480360381019061036991906128fd565b610935565b60405161037b919061297d565b60405180910390f35b34801561038f575f5ffd5b5061039861096f565b6040516103a591906129a5565b60405180910390f35b6103c860048036038101906103c391906129be565b610996565b005b3480156103d5575f5ffd5b506103de610a6d565b6040516103eb91906129a5565b60405180910390f35b3480156103ff575f5ffd5b5061041a600480360381019061041591906126cb565b610a92565b005b348015610427575f5ffd5b50610442600480360381019061043d9190612ae3565b610add565b005b34801561044f575f5ffd5b5061046a60048036038101906104659190612b2e565b610afe565b6040516104779190612b68565b60405180910390f35b34801561048b575f5ffd5b506104a660048036038101906104a19190612b81565b610b13565b6040516104b391906125cc565b60405180910390f35b3480156104c7575f5ffd5b506104d0610d15565b6040516104dd91906129a5565b60405180910390f35b3480156104f1575f5ffd5b5061050c600480360381019061050791906126cb565b610d3a565b005b348015610519575f5ffd5b50610534600480360381019061052f91906126cb565b610dcb565b6040516105419190612c01565b60405180910390f35b348015610555575f5ffd5b50610570600480360381019061056b9190612c1a565b610de0565b005b34801561057d575f5ffd5b50610598600480360381019061059391906126cb565b61103e565b005b3480156105a5575f5ffd5b506105c060048036038101906105bb9190612c6a565b6110c2565b6040516105cd919061297d565b60405180910390f35b3373ffffffffffffffffffffffffffffffffffffffff167f000000000000000000000000000000000000000000000000000000000000000073ffffffffffffffffffffffffffffffffffffffff161461066657336040517f91ac5e4f00000000000000000000000000000000000000000000000000000000815260040161065d91906129a5565b60405180910390fd5b8660200135610685885f0160208101906106809190612b2e565b6110ff565b146106de57865f01602081019061069c9190612b2e565b87602001356040517fc26bebcc0000000000000000000000000000000000000000000000000000000081526004016106d5929190612ca4565b60405180910390fd5b6106ed87878787878787611170565b50505050505050565b5f5f60016002915091509091565b600181565b6003805461071690612cf8565b80601f016020809104026020016040519081016040528092919081815260200182805461074290612cf8565b801561078d5780601f106107645761010080835404028352916020019161078d565b820191905f5260205f20905b81548152906001019060200180831161077057829003601f168201915b505050505081565b61079d61123a565b6107a782826112c1565b5050565b6002602052815f5260405f20602052805f5260405f205f915091505080546107d290612cf8565b80601f01602080910402602001604051908101604052809291908181526020018280546107fe90612cf8565b80156108495780601f1061082057610100808354040283529160200191610849565b820191905f5260205f20905b81548152906001019060200180831161082c57829003601f168201915b505050505081565b61085961123a565b8060045f6101000a81548173ffffffffffffffffffffffffffffffffffffffff021916908373ffffffffffffffffffffffffffffffffffffffff16021790555050565b7f000000000000000000000000000000000000000000000000000000000000000081565b6108c86122bf565b5f888888886040516020016108e09493929190612d28565b60405160208183030381529060405290506109098a826109038d60018a8a610b13565b86611320565b91505098975050505050505050565b61092061123a565b6109295f611401565b565b5f5f905092915050565b5f3073ffffffffffffffffffffffffffffffffffffffff168273ffffffffffffffffffffffffffffffffffffffff16149050949350505050565b5f5f5f9054906101000a900473ffffffffffffffffffffffffffffffffffffffff16905090565b5f6109a38a8787876114c2565b90505f6109b58b8b8b8b8a8989611615565b905080826109c39190612d98565b341015610a05576040517f08c379a00000000000000000000000000000000000000000000000000000000081526004016109fc90612e25565b60405180910390fd5b610a138b888b89898761166d565b610a238b8b8b8b8a898988611978565b7fb8f36dda3b40e3371d2310a09f1eaf78b6080461c2a84c0d4e8230e2a4d0da218a8a8a89604051610a589493929190612d28565b60405180910390a15050505050505050505050565b60055f9054906101000a900473ffffffffffffffffffffffffffffffffffffffff1681565b610a9a61123a565b8060055f6101000a81548173ffffffffffffffffffffffffffffffffffffffff021916908373ffffffffffffffffffffffffffffffffffffffff16021790555050565b610ae561123a565b610afa828290610af591906130a1565b6119df565b5050565b6001602052805f5260405f205f915090505481565b60605f60025f8763ffffffff1663ffffffff1681526020019081526020015f205f8661ffff1661ffff1681526020019081526020015f208054610b5590612cf8565b80601f0160208091040260200160405190810160405280929190818152602001828054610b8190612cf8565b8015610bcc5780601f10610ba357610100808354040283529160200191610bcc565b820191905f5260205f20905b815481529060010190602001808311610baf57829003601f168201915b505050505090505f815103610c275783838080601f0160208091040260200160405190810160405280939291908181526020018383808284375f81840152601f19601f82011690508083019250505050505050915050610d0d565b5f8484905003610c3a5780915050610d0d565b60028484905010610cce57610c9184848080601f0160208091040260200160405190810160405280939291908181526020018383808284375f81840152601f19601f82011690508083019250505050505050611af7565b8084846002908092610ca5939291906130bd565b604051602001610cb793929190613155565b604051602081830303815290604052915050610d0d565b83836040517f9a6d49cd000000000000000000000000000000000000000000000000000000008152600401610d049291906131a6565b60405180910390fd5b949350505050565b60045f9054906101000a900473ffffffffffffffffffffffffffffffffffffffff1681565b610d4261123a565b7f000000000000000000000000000000000000000000000000000000000000000073ffffffffffffffffffffffffffffffffffffffff1663ca5eb5e1826040518263ffffffff1660e01b8152600401610d9b91906129a5565b5f604051808303815f87803b158015610db2575f5ffd5b505af1158015610dc4573d5f5f3e3d5ffd5b5050505050565b6006602052805f5260405f205f915090505481565b60065f8373ffffffffffffffffffffffffffffffffffffffff1673ffffffffffffffffffffffffffffffffffffffff1681526020019081526020015f2054811115610e57576040517ff4d678b800000000000000000000000000000000000000000000000000000000815260040160405180910390fd5b8060065f8473ffffffffffffffffffffffffffffffffffffffff1673ffffffffffffffffffffffffffffffffffffffff1681526020019081526020015f205f828254610ea391906131c8565b925050819055505f610eb484611b50565b90508073ffffffffffffffffffffffffffffffffffffffff1663095ea7b385846040518363ffffffff1660e01b8152600401610ef19291906131fb565b6020604051808303815f875af1158015610f0d573d5f5f3e3d5ffd5b505050506040513d601f19601f82011682018060405250810190610f319190613236565b508373ffffffffffffffffffffffffffffffffffffffff16631a567dcf6040518060c001604052808673ffffffffffffffffffffffffffffffffffffffff1681526020018473ffffffffffffffffffffffffffffffffffffffff1681526020018581526020016101f481526020015f151581526020016103e862ffffff168152506040518263ffffffff1660e01b8152600401610fce9190613315565b5f604051808303815f87803b158015610fe5575f5ffd5b505af1158015610ff7573d5f5f3e3d5ffd5b505050507f9b9642bf7507c7416bdd5ed18f14ddb9b2a00698703a6235e6fbf169617f8032848285856040516110309493929190612d28565b60405180910390a150505050565b61104661123a565b5f73ffffffffffffffffffffffffffffffffffffffff168173ffffffffffffffffffffffffffffffffffffffff16036110b6575f6040517f1e4fbdf70000000000000000000000000000000000000000000000000000000081526004016110ad91906129a5565b60405180910390fd5b6110bf81611401565b50565b5f816020013560015f845f0160208101906110dd9190612b2e565b63ffffffff1663ffffffff1681526020019081526020015f2054149050919050565b5f5f60015f8463ffffffff1663ffffffff1681526020019081526020015f205490505f5f1b810361116757826040517ff6ff4fb700000000000000000000000000000000000000000000000000000000815260040161115e919061332e565b60405180910390fd5b80915050919050565b5f5f5f5f88888101906111839190613382565b93509350935093508060065f8573ffffffffffffffffffffffffffffffffffffffff1673ffffffffffffffffffffffffffffffffffffffff1681526020019081526020015f205f8282546111d79190612d98565b925050819055508888600391826111ef929190613587565b507f28bcc9df31a920081032c1de90ec5dbac5a6e696a83c14ba52d3619980ddbedf848484846040516112259493929190612d28565b60405180910390a15050505050505050505050565b611242611c31565b73ffffffffffffffffffffffffffffffffffffffff1661126061096f565b73ffffffffffffffffffffffffffffffffffffffff16146112bf57611283611c31565b6040517f118cdaa70000000000000000000000000000000000000000000000000000000081526004016112b691906129a5565b60405180910390fd5b565b8060015f8463ffffffff1663ffffffff1681526020019081526020015f20819055507f238399d427b947898edb290f5ff0f9109849b1c3ba196a42e35f00c50a54b98b8282604051611314929190612ca4565b60405180910390a15050565b6113286122bf565b7f000000000000000000000000000000000000000000000000000000000000000073ffffffffffffffffffffffffffffffffffffffff1663ddc28c586040518060a001604052808863ffffffff168152602001611384896110ff565b8152602001878152602001868152602001851515815250306040518363ffffffff1660e01b81526004016113b9929190613734565b6040805180830381865afa1580156113d3573d5f5f3e3d5ffd5b505050506040513d601f19601f820116820180604052508101906113f791906137c3565b9050949350505050565b5f5f5f9054906101000a900473ffffffffffffffffffffffffffffffffffffffff169050815f5f6101000a81548173ffffffffffffffffffffffffffffffffffffffff021916908373ffffffffffffffffffffffffffffffffffffffff1602179055508173ffffffffffffffffffffffffffffffffffffffff168173ffffffffffffffffffffffffffffffffffffffff167f8be0079c531659141344cd1fd0a4f28419497f9722a3daafe3b4186f6b6457e060405160405180910390a35050565b5f5f60055f9054906101000a900473ffffffffffffffffffffffffffffffffffffffff1690505f61150761fde85f6114f8611c38565b611c609092919063ffffffff16565b90505f6040518060e001604052808963ffffffff16815260200161152a89611cf8565b8152602001878152602001606487606461154491906131c8565b8961154f91906137ee565b611559919061385c565b815260200183815260200160405180602001604052805f815250815260200160405180602001604052805f81525081525090508273ffffffffffffffffffffffffffffffffffffffff16633b6f743b825f6040518363ffffffff1660e01b81526004016115c7929190613933565b6040805180830381865afa1580156115e1573d5f5f3e3d5ffd5b505050506040513d601f19601f8201168201806040525081019061160591906137c3565b5f01519350505050949350505050565b5f5f6116248960018686610b13565b90505f8888888860405160200161163e9493929190612d28565b604051602081830303815290604052905061165b8a82845f611320565b5f015192505050979650505050505050565b5f60055f9054906101000a900473ffffffffffffffffffffffffffffffffffffffff1690505f6116b161fde85f6116a2611c38565b611c609092919063ffffffff16565b90505f6040518060e001604052808a63ffffffff1681526020016116d48a611cf8565b815260200187815260200160648760646116ee91906131c8565b896116f991906137ee565b611703919061385c565b815260200183815260200160405180602001604052805f815250815260200160405180602001604052805f81525081525090506117cf8730888673ffffffffffffffffffffffffffffffffffffffff1663ccae66646040518163ffffffff1660e01b8152600401602060405180830381865afa158015611785573d5f5f3e3d5ffd5b505050506040513d601f19601f820116820180604052508101906117a99190613975565b73ffffffffffffffffffffffffffffffffffffffff16611d19909392919063ffffffff16565b8273ffffffffffffffffffffffffffffffffffffffff1663ccae66646040518163ffffffff1660e01b8152600401602060405180830381865afa158015611818573d5f5f3e3d5ffd5b505050506040513d601f19601f8201168201806040525081019061183c9190613975565b73ffffffffffffffffffffffffffffffffffffffff1663095ea7b360055f9054906101000a900473ffffffffffffffffffffffffffffffffffffffff16886040518363ffffffff1660e01b81526004016118979291906131fb565b6020604051808303815f875af11580156118b3573d5f5f3e3d5ffd5b505050506040513d601f19601f820116820180604052508101906118d79190613236565b508273ffffffffffffffffffffffffffffffffffffffff1663c7c7f5b3858360405180604001604052808981526020015f8152508b6040518563ffffffff1660e01b815260040161192a939291906139a0565b60c06040518083038185885af1158015611946573d5f5f3e3d5ffd5b50505050506040513d601f19601f8201168201806040525081019061196b9190613ac8565b5050505050505050505050565b5f6119868960018686610b13565b90505f888888886040516020016119a09493929190612d28565b60405160208183030381529060405290506119d28a828460405180604001604052808881526020015f8152508c611d9b565b5050505050505050505050565b5f5f90505b8151811015611abc57611a14828281518110611a0357611a02613b06565b5b602002602001015160400151611af7565b818181518110611a2757611a26613b06565b5b60200260200101516040015160025f848481518110611a4957611a48613b06565b5b60200260200101515f015163ffffffff1663ffffffff1681526020019081526020015f205f848481518110611a8157611a80613b06565b5b60200260200101516020015161ffff1661ffff1681526020019081526020015f209081611aae9190613b33565b5080806001019150506119e4565b507fbe4864a8e820971c0247f5992e2da559595f7bf076a21cb5928d443d2a13b67481604051611aec9190613d19565b60405180910390a150565b5f60028201519050600361ffff168161ffff1614611b4c57816040517f9a6d49cd000000000000000000000000000000000000000000000000000000008152600401611b4391906125cc565b60405180910390fd5b5050565b5f8173ffffffffffffffffffffffffffffffffffffffff1663f887ea406040518163ffffffff1660e01b8152600401602060405180830381865afa158015611b9a573d5f5f3e3d5ffd5b505050506040513d601f19601f82011682018060405250810190611bbe9190613975565b73ffffffffffffffffffffffffffffffffffffffff1663456dc17a6040518163ffffffff1660e01b8152600401602060405180830381865afa158015611c06573d5f5f3e3d5ffd5b505050506040513d601f19601f82011682018060405250810190611c2a9190613975565b9050919050565b5f33905090565b60606003604051602001611c4c9190613d6d565b604051602081830303815290604052905090565b606083600361ffff16611c7c5f83611eb190919063ffffffff16565b61ffff1614611cd457611c985f82611eb190919063ffffffff16565b6040517f3a51740d000000000000000000000000000000000000000000000000000000008152600401611ccb9190612543565b60405180910390fd5b5f611cdf8585611f16565b9050611ced86600183611f81565b925050509392505050565b5f8173ffffffffffffffffffffffffffffffffffffffff165f1b9050919050565b611d95848573ffffffffffffffffffffffffffffffffffffffff166323b872dd868686604051602401611d4e93929190613d87565b604051602081830303815290604052915060e01b6020820180517bffffffffffffffffffffffffffffffffffffffffffffffffffffffff838183161783525050505061203c565b50505050565b611da36122d7565b5f611db0845f01516120d7565b90505f84602001511115611dcc57611dcb8460200151612124565b5b7f000000000000000000000000000000000000000000000000000000000000000073ffffffffffffffffffffffffffffffffffffffff16632637a450826040518060a001604052808b63ffffffff168152602001611e298c6110ff565b81526020018a81526020018981526020015f8960200151111515815250866040518463ffffffff1660e01b8152600401611e64929190613734565b60806040518083038185885af1158015611e80573d5f5f3e3d5ffd5b50505050506040513d601f19601f82011682018060405250810190611ea59190613dbc565b91505095945050505050565b5f600282611ebf9190612d98565b83511015611f02576040517f08c379a0000000000000000000000000000000000000000000000000000000008152600401611ef990613e31565b60405180910390fd5b5f8260028501015190508091505092915050565b60605f826fffffffffffffffffffffffffffffffff1614611f58578282604051602001611f44929190613e9e565b604051602081830303815290604052611f79565b82604051602001611f699190613ec9565b6040516020818303038152906040525b905092915050565b606083600361ffff16611f9d5f83611eb190919063ffffffff16565b61ffff1614611ff557611fb95f82611eb190919063ffffffff16565b6040517f3a51740d000000000000000000000000000000000000000000000000000000008152600401611fec9190612543565b60405180910390fd5b84600180612003865161226a565b61200d9190613ee3565b8686604051602001612023959493929190613f58565b6040516020818303038152906040529150509392505050565b5f5f60205f8451602086015f885af18061205b576040513d5f823e3d81fd5b3d92505f519150505f821461207457600181141561208f565b5f8473ffffffffffffffffffffffffffffffffffffffff163b145b156120d157836040517f5274afe70000000000000000000000000000000000000000000000000000000081526004016120c891906129a5565b60405180910390fd5b50505050565b5f81341461211c57346040517f9f7041200000000000000000000000000000000000000000000000000000000081526004016121139190612c01565b60405180910390fd5b819050919050565b5f7f000000000000000000000000000000000000000000000000000000000000000073ffffffffffffffffffffffffffffffffffffffff1663e4fe1d946040518163ffffffff1660e01b8152600401602060405180830381865afa15801561218e573d5f5f3e3d5ffd5b505050506040513d601f19601f820116820180604052508101906121b29190613975565b90505f73ffffffffffffffffffffffffffffffffffffffff168173ffffffffffffffffffffffffffffffffffffffff1603612219576040517f5373352a00000000000000000000000000000000000000000000000000000000815260040160405180910390fd5b612266337f0000000000000000000000000000000000000000000000000000000000000000848473ffffffffffffffffffffffffffffffffffffffff16611d19909392919063ffffffff16565b5050565b5f61ffff80168211156122b7576010826040517f6dfcc6500000000000000000000000000000000000000000000000000000000081526004016122ae929190613fe7565b60405180910390fd5b819050919050565b60405180604001604052805f81526020015f81525090565b60405180606001604052805f81526020015f67ffffffffffffffff1681526020016123006122bf565b81525090565b5f604051905090565b5f5ffd5b5f5ffd5b5f5ffd5b5f606082840312156123305761232f612317565b5b81905092915050565b5f819050919050565b61234b81612339565b8114612355575f5ffd5b50565b5f8135905061236681612342565b92915050565b5f5ffd5b5f5ffd5b5f5ffd5b5f5f83601f84011261238d5761238c61236c565b5b8235905067ffffffffffffffff8111156123aa576123a9612370565b5b6020830191508360018202830111156123c6576123c5612374565b5b9250929050565b5f73ffffffffffffffffffffffffffffffffffffffff82169050919050565b5f6123f6826123cd565b9050919050565b612406816123ec565b8114612410575f5ffd5b50565b5f81359050612421816123fd565b92915050565b5f5f5f5f5f5f5f60e0888a0312156124425761244161230f565b5b5f61244f8a828b0161231b565b97505060606124608a828b01612358565b965050608088013567ffffffffffffffff81111561248157612480612313565b5b61248d8a828b01612378565b955095505060a06124a08a828b01612413565b93505060c088013567ffffffffffffffff8111156124c1576124c0612313565b5b6124cd8a828b01612378565b925092505092959891949750929550565b5f67ffffffffffffffff82169050919050565b6124fa816124de565b82525050565b5f6040820190506125135f8301856124f1565b61252060208301846124f1565b9392505050565b5f61ffff82169050919050565b61253d81612527565b82525050565b5f6020820190506125565f830184612534565b92915050565b5f81519050919050565b5f82825260208201905092915050565b8281835e5f83830152505050565b5f601f19601f8301169050919050565b5f61259e8261255c565b6125a88185612566565b93506125b8818560208601612576565b6125c181612584565b840191505092915050565b5f6020820190508181035f8301526125e48184612594565b905092915050565b5f63ffffffff82169050919050565b612604816125ec565b811461260e575f5ffd5b50565b5f8135905061261f816125fb565b92915050565b5f5f6040838503121561263b5761263a61230f565b5b5f61264885828601612611565b925050602061265985828601612358565b9150509250929050565b61266c81612527565b8114612676575f5ffd5b50565b5f8135905061268781612663565b92915050565b5f5f604083850312156126a3576126a261230f565b5b5f6126b085828601612611565b92505060206126c185828601612679565b9150509250929050565b5f602082840312156126e0576126df61230f565b5b5f6126ed84828501612413565b91505092915050565b5f819050919050565b5f61271961271461270f846123cd565b6126f6565b6123cd565b9050919050565b5f61272a826126ff565b9050919050565b5f61273b82612720565b9050919050565b61274b81612731565b82525050565b5f6020820190506127645f830184612742565b92915050565b5f819050919050565b61277c8161276a565b8114612786575f5ffd5b50565b5f8135905061279781612773565b92915050565b5f8115159050919050565b6127b18161279d565b81146127bb575f5ffd5b50565b5f813590506127cc816127a8565b92915050565b5f5f5f5f5f5f5f5f60e0898b0312156127ee576127ed61230f565b5b5f6127fb8b828c01612611565b985050602061280c8b828c01612413565b975050604061281d8b828c01612413565b965050606061282e8b828c01612413565b955050608061283f8b828c01612789565b94505060a089013567ffffffffffffffff8111156128605761285f612313565b5b61286c8b828c01612378565b935093505060c061287f8b828c016127be565b9150509295985092959890939650565b6128988161276a565b82525050565b604082015f8201516128b25f85018261288f565b5060208201516128c5602085018261288f565b50505050565b5f6040820190506128de5f83018461289e565b92915050565b5f6020820190506128f75f8301846124f1565b92915050565b5f5f5f5f60a085870312156129155761291461230f565b5b5f6129228782880161231b565b945050606085013567ffffffffffffffff81111561294357612942612313565b5b61294f87828801612378565b9350935050608061296287828801612413565b91505092959194509250565b6129778161279d565b82525050565b5f6020820190506129905f83018461296e565b92915050565b61299f816123ec565b82525050565b5f6020820190506129b85f830184612996565b92915050565b5f5f5f5f5f5f5f5f5f6101008a8c0312156129dc576129db61230f565b5b5f6129e98c828d01612611565b99505060206129fa8c828d01612413565b9850506040612a0b8c828d01612413565b9750506060612a1c8c828d01612413565b9650506080612a2d8c828d01612413565b95505060a0612a3e8c828d01612789565b94505060c0612a4f8c828d01612789565b93505060e08a013567ffffffffffffffff811115612a7057612a6f612313565b5b612a7c8c828d01612378565b92509250509295985092959850929598565b5f5f83601f840112612aa357612aa261236c565b5b8235905067ffffffffffffffff811115612ac057612abf612370565b5b602083019150836020820283011115612adc57612adb612374565b5b9250929050565b5f5f60208385031215612af957612af861230f565b5b5f83013567ffffffffffffffff811115612b1657612b15612313565b5b612b2285828601612a8e565b92509250509250929050565b5f60208284031215612b4357612b4261230f565b5b5f612b5084828501612611565b91505092915050565b612b6281612339565b82525050565b5f602082019050612b7b5f830184612b59565b92915050565b5f5f5f5f60608587031215612b9957612b9861230f565b5b5f612ba687828801612611565b9450506020612bb787828801612679565b935050604085013567ffffffffffffffff811115612bd857612bd7612313565b5b612be487828801612378565b925092505092959194509250565b612bfb8161276a565b82525050565b5f602082019050612c145f830184612bf2565b92915050565b5f5f5f60608486031215612c3157612c3061230f565b5b5f612c3e86828701612413565b9350506020612c4f86828701612413565b9250506040612c6086828701612789565b9150509250925092565b5f60608284031215612c7f57612c7e61230f565b5b5f612c8c8482850161231b565b91505092915050565b612c9e816125ec565b82525050565b5f604082019050612cb75f830185612c95565b612cc46020830184612b59565b9392505050565b7f4e487b71000000000000000000000000000000000000000000000000000000005f52602260045260245ffd5b5f6002820490506001821680612d0f57607f821691505b602082108103612d2257612d21612ccb565b5b50919050565b5f608082019050612d3b5f830187612996565b612d486020830186612996565b612d556040830185612996565b612d626060830184612bf2565b95945050505050565b7f4e487b71000000000000000000000000000000000000000000000000000000005f52601160045260245ffd5b5f612da28261276a565b9150612dad8361276a565b9250828201905080821115612dc557612dc4612d6b565b5b92915050565b5f82825260208201905092915050565b7f496e73756666696369656e74206e6174697665206665650000000000000000005f82015250565b5f612e0f601783612dcb565b9150612e1a82612ddb565b602082019050919050565b5f6020820190508181035f830152612e3c81612e03565b9050919050565b7f4e487b71000000000000000000000000000000000000000000000000000000005f52604160045260245ffd5b612e7982612584565b810181811067ffffffffffffffff82111715612e9857612e97612e43565b5b80604052505050565b5f612eaa612306565b9050612eb68282612e70565b919050565b5f67ffffffffffffffff821115612ed557612ed4612e43565b5b602082029050602081019050919050565b5f5ffd5b5f5ffd5b5f5ffd5b5f67ffffffffffffffff821115612f0c57612f0b612e43565b5b612f1582612584565b9050602081019050919050565b828183375f83830152505050565b5f612f42612f3d84612ef2565b612ea1565b905082815260208101848484011115612f5e57612f5d612eee565b5b612f69848285612f22565b509392505050565b5f82601f830112612f8557612f8461236c565b5b8135612f95848260208601612f30565b91505092915050565b5f60608284031215612fb357612fb2612ee6565b5b612fbd6060612ea1565b90505f612fcc84828501612611565b5f830152506020612fdf84828501612679565b602083015250604082013567ffffffffffffffff81111561300357613002612eea565b5b61300f84828501612f71565b60408301525092915050565b5f61302d61302884612ebb565b612ea1565b905080838252602082019050602084028301858111156130505761304f612374565b5b835b8181101561309757803567ffffffffffffffff8111156130755761307461236c565b5b8086016130828982612f9e565b85526020850194505050602081019050613052565b5050509392505050565b5f6130ad36848461301b565b905092915050565b5f5ffd5b5f5ffd5b5f5f858511156130d0576130cf6130b5565b5b838611156130e1576130e06130b9565b5b6001850283019150848603905094509492505050565b5f81905092915050565b5f61310b8261255c565b61311581856130f7565b9350613125818560208601612576565b80840191505092915050565b5f61313c83856130f7565b9350613149838584612f22565b82840190509392505050565b5f6131608286613101565b915061316d828486613131565b9150819050949350505050565b5f6131858385612566565b9350613192838584612f22565b61319b83612584565b840190509392505050565b5f6020820190508181035f8301526131bf81848661317a565b90509392505050565b5f6131d28261276a565b91506131dd8361276a565b92508282039050818111156131f5576131f4612d6b565b5b92915050565b5f60408201905061320e5f830185612996565b61321b6020830184612bf2565b9392505050565b5f81519050613230816127a8565b92915050565b5f6020828403121561324b5761324a61230f565b5b5f61325884828501613222565b91505092915050565b61326a816123ec565b82525050565b6132798161279d565b82525050565b5f62ffffff82169050919050565b6132968161327f565b82525050565b60c082015f8201516132b05f850182613261565b5060208201516132c36020850182613261565b5060408201516132d6604085018261288f565b5060608201516132e9606085018261288f565b5060808201516132fc6080850182613270565b5060a082015161330f60a085018261328d565b50505050565b5f60c0820190506133285f83018461329c565b92915050565b5f6020820190506133415f830184612c95565b92915050565b5f613351826123cd565b9050919050565b61336181613347565b811461336b575f5ffd5b50565b5f8135905061337c81613358565b92915050565b5f5f5f5f6080858703121561339a5761339961230f565b5b5f6133a78782880161336e565b94505060206133b88782880161336e565b93505060406133c98782880161336e565b92505060606133da87828801612789565b91505092959194509250565b5f82905092915050565b5f819050815f5260205f209050919050565b5f6020601f8301049050919050565b5f82821b905092915050565b5f6008830261344c7fffffffffffffffffffffffffffffffffffffffffffffffffffffffffffffffff82613411565b6134568683613411565b95508019841693508086168417925050509392505050565b5f61348861348361347e8461276a565b6126f6565b61276a565b9050919050565b5f819050919050565b6134a18361346e565b6134b56134ad8261348f565b84845461341d565b825550505050565b5f5f905090565b6134cc6134bd565b6134d7818484613498565b505050565b5b818110156134fa576134ef5f826134c4565b6001810190506134dd565b5050565b601f82111561353f57613510816133f0565b61351984613402565b81016020851015613528578190505b61353c61353485613402565b8301826134dc565b50505b505050565b5f82821c905092915050565b5f61355f5f1984600802613544565b1980831691505092915050565b5f6135778383613550565b9150826002028217905092915050565b61359183836133e6565b67ffffffffffffffff8111156135aa576135a9612e43565b5b6135b48254612cf8565b6135bf8282856134fe565b5f601f8311600181146135ec575f84156135da578287013590505b6135e4858261356c565b86555061364b565b601f1984166135fa866133f0565b5f5b82811015613621578489013582556001820191506020850194506020810190506135fc565b8683101561363e578489013561363a601f891682613550565b8355505b6001600288020188555050505b50505050505050565b61365d816125ec565b82525050565b61366c81612339565b82525050565b5f82825260208201905092915050565b5f61368c8261255c565b6136968185613672565b93506136a6818560208601612576565b6136af81612584565b840191505092915050565b5f60a083015f8301516136cf5f860182613654565b5060208301516136e26020860182613663565b50604083015184820360408601526136fa8282613682565b915050606083015184820360608601526137148282613682565b91505060808301516137296080860182613270565b508091505092915050565b5f6040820190508181035f83015261374c81856136ba565b905061375b6020830184612996565b9392505050565b5f8151905061377081612773565b92915050565b5f6040828403121561378b5761378a612ee6565b5b6137956040612ea1565b90505f6137a484828501613762565b5f8301525060206137b784828501613762565b60208301525092915050565b5f604082840312156137d8576137d761230f565b5b5f6137e584828501613776565b91505092915050565b5f6137f88261276a565b91506138038361276a565b92508282026138118161276a565b9150828204841483151761382857613827612d6b565b5b5092915050565b7f4e487b71000000000000000000000000000000000000000000000000000000005f52601260045260245ffd5b5f6138668261276a565b91506138718361276a565b9250826138815761388061382f565b5b828204905092915050565b5f60e083015f8301516138a15f860182613654565b5060208301516138b46020860182613663565b5060408301516138c7604086018261288f565b5060608301516138da606086018261288f565b50608083015184820360808601526138f28282613682565b91505060a083015184820360a086015261390c8282613682565b91505060c083015184820360c08601526139268282613682565b9150508091505092915050565b5f6040820190508181035f83015261394b818561388c565b905061395a602083018461296e565b9392505050565b5f8151905061396f816123fd565b92915050565b5f6020828403121561398a5761398961230f565b5b5f61399784828501613961565b91505092915050565b5f6080820190508181035f8301526139b8818661388c565b90506139c7602083018561289e565b6139d46060830184612996565b949350505050565b5f815190506139ea81612342565b92915050565b6139f9816124de565b8114613a03575f5ffd5b50565b5f81519050613a14816139f0565b92915050565b5f60808284031215613a2f57613a2e612ee6565b5b613a396060612ea1565b90505f613a48848285016139dc565b5f830152506020613a5b84828501613a06565b6020830152506040613a6f84828501613776565b60408301525092915050565b5f60408284031215613a9057613a8f612ee6565b5b613a9a6040612ea1565b90505f613aa984828501613762565b5f830152506020613abc84828501613762565b60208301525092915050565b5f5f60c08385031215613ade57613add61230f565b5b5f613aeb85828601613a1a565b9250506080613afc85828601613a7b565b9150509250929050565b7f4e487b71000000000000000000000000000000000000000000000000000000005f52603260045260245ffd5b613b3c8261255c565b67ffffffffffffffff811115613b5557613b54612e43565b5b613b5f8254612cf8565b613b6a8282856134fe565b5f60209050601f831160018114613b9b575f8415613b89578287015190505b613b93858261356c565b865550613bfa565b601f198416613ba9866133f0565b5f5b82811015613bd057848901518255600182019150602085019450602081019050613bab565b86831015613bed5784890151613be9601f891682613550565b8355505b6001600288020188555050505b505050505050565b5f81519050919050565b5f82825260208201905092915050565b5f819050602082019050919050565b613c3481612527565b82525050565b5f606083015f830151613c4f5f860182613654565b506020830151613c626020860182613c2b565b5060408301518482036040860152613c7a8282613682565b9150508091505092915050565b5f613c928383613c3a565b905092915050565b5f602082019050919050565b5f613cb082613c02565b613cba8185613c0c565b935083602082028501613ccc85613c1c565b805f5b85811015613d075784840389528151613ce88582613c87565b9450613cf383613c9a565b925060208a01995050600181019050613ccf565b50829750879550505050505092915050565b5f6020820190508181035f830152613d318184613ca6565b905092915050565b5f8160f01b9050919050565b5f613d4f82613d39565b9050919050565b613d67613d6282612527565b613d45565b82525050565b5f613d788284613d56565b60028201915081905092915050565b5f606082019050613d9a5f830186612996565b613da76020830185612996565b613db46040830184612bf2565b949350505050565b5f60808284031215613dd157613dd061230f565b5b5f613dde84828501613a1a565b91505092915050565b7f746f55696e7431365f6f75744f66426f756e64730000000000000000000000005f82015250565b5f613e1b601483612dcb565b9150613e2682613de7565b602082019050919050565b5f6020820190508181035f830152613e4881613e0f565b9050919050565b5f6fffffffffffffffffffffffffffffffff82169050919050565b5f8160801b9050919050565b5f613e8082613e6a565b9050919050565b613e98613e9382613e4f565b613e76565b82525050565b5f613ea98285613e87565b601082019150613eb98284613e87565b6010820191508190509392505050565b5f613ed48284613e87565b60108201915081905092915050565b5f613eed82612527565b9150613ef883612527565b9250828201905061ffff811115613f1257613f11612d6b565b5b92915050565b5f60ff82169050919050565b5f8160f81b9050919050565b5f613f3a82613f24565b9050919050565b613f52613f4d82613f18565b613f30565b82525050565b5f613f638288613101565b9150613f6f8287613f41565b600182019150613f7f8286613d56565b600282019150613f8f8285613f41565b600182019150613f9f8284613101565b91508190509695505050505050565b5f819050919050565b5f613fd1613fcc613fc784613fae565b6126f6565b613f18565b9050919050565b613fe181613fb7565b82525050565b5f604082019050613ffa5f830185613fd8565b6140076020830184612bf2565b939250505056fea26469706673582212205f608d187ff41dfe2d6069d0477eec720da1e0a2d665bdca92efccda9404154864736f6c634300081e0033","linkReferences":{}},"methodIdentifiers":{"SEND()":"1f5e1334","allowInitializePath((uint32,bytes32,uint64))":"ff7bd03d","combineOptions(uint32,uint16,bytes)":"bc70b354","endpoint()":"5e280f11","enforcedOptions(uint32,uint16)":"5535d461","execute(address,address,uint256)":"eafaddfd","factory()":"c45a0155","isComposeMsgSender((uint32,bytes32,uint64),bytes,address)":"82413eac","lastMessage()":"32970710","lzReceive((uint32,bytes32,uint64),bytes32,bytes,address,bytes)":"13137d65","nextNonce(uint32,bytes32)":"7d25a05e","oAppVersion()":"17442b70","oftaddress()":"9c967afa","owner()":"8da5cb5b","peers(uint32)":"bb0b6a53","quoteSendString(uint32,address,address,address,uint256,bytes,bool)":"62a896b0","renounceOwnership()":"715018a6","sendString(uint32,address,address,address,address,uint256,uint256,bytes)":"968a61ce","setDelegate(address)":"ca5eb5e1","setEnforcedOptions((uint32,uint16,bytes)[])":"b98bd070","setFactory(address)":"5bb47808","setOftAddress(address)":"b5f78190","setPeer(uint32,bytes32)":"3400288b","transferOwnership(address)":"f2fde38b","userAmount(address)":"e1ad418e"},"id":273}