{"abi":[{"type":"constructor","inputs":[],"stateMutability":"nonpayable"},{"type":"function","name":"authorized","inputs":[{"name":"","type":"address","internalType":"address"}],"outputs":[{"name":"","type":"bool","internalType":"bool"}],"stateMutability":"view"},{"type":"function","name":"deploySharesToken","inputs":[],"outputs":[{"name":"","type":"address","internalType":"address"}],"stateMutability":"nonpayable"},{"type":"function","name":"factory","inputs":[],"outputs":[{"name":"","type":"address","internalType":"address"}],"stateMutability":"view"},{"type":"function","name":"owner","inputs":[],"outputs":[{"name":"","type":"address","internalType":"address"}],"stateMutability":"view"},{"type":"function","name":"renounceOwnership","inputs":[],"outputs":[],"stateMutability":"nonpayable"},{"type":"function","name":"setAuthorized","inputs":[{"name":"_address","type":"address","internalType":"address"},{"name":"_status","type":"bool","internalType":"bool"}],"outputs":[],"stateMutability":"nonpayable"},{"type":"function","name":"setFactory","inputs":[{"name":"_factory","type":"address","internalType":"address"}],"outputs":[],"stateMutability":"nonpayable"},{"type":"function","name":"supalaSharesToken","inputs":[],"outputs":[{"name":"","type":"address","internalType":"contract SupalaSharesToken"}],"stateMutability":"view"},{"type":"function","name":"transferOwnership","inputs":[{"name":"newOwner","type":"address","internalType":"address"}],"outputs":[],"stateMutability":"nonpayable"},{"type":"event","name":"AuthorizedSet","inputs":[{"name":"authorized","type":"address","indexed":true,"internalType":"address"},{"name":"status","type":"bool","indexed":false,"internalType":"bool"}],"anonymous":false},{"type":"event","name":"DeployedSharesToken","inputs":[{"name":"sharesToken","type":"address","indexed":true,"internalType":"address"}],"anonymous":false},{"type":"event","name":"FactorySet","inputs":[{"name":"factory","type":"address","indexed":true,"internalType":"address"}],"anonymous":false},{"type":"event","name":"OwnershipTransferred","inputs":[{"name":"previousOwner","type":"address","indexed":true,"internalType":"address"},{"name":"newOwner","type":"address","indexed":true,"internalType":"address"}],"anonymous":false},{"type":"error","name":"NotAuthorized","inputs":[]},{"type":"error","name":"OwnableInvalidOwner","inputs":[{"name":"owner","type":"address","internalType":"address"}]},{"type":"error","name":"OwnableUnauthorizedAccount","inputs":[{"name":"account","type":"address","internalType":"address"}]}],"bytecode":{"object":"0x608060405234801561000f575f5ffd5b50335f73ffffffffffffffffffffffffffffffffffffffff168173ffffffffffffffffffffffffffffffffffffffff1603610081575f6040517f1e4fbdf70000000000000000000000000000000000000000000000000000000081526004016100789190610196565b60405180910390fd5b6100908161009660201b60201c565b506101af565b5f5f5f9054906101000a900473ffffffffffffffffffffffffffffffffffffffff169050815f5f6101000a81548173ffffffffffffffffffffffffffffffffffffffff021916908373ffffffffffffffffffffffffffffffffffffffff1602179055508173ffffffffffffffffffffffffffffffffffffffff168173ffffffffffffffffffffffffffffffffffffffff167f8be0079c531659141344cd1fd0a4f28419497f9722a3daafe3b4186f6b6457e060405160405180910390a35050565b5f73ffffffffffffffffffffffffffffffffffffffff82169050919050565b5f61018082610157565b9050919050565b61019081610176565b82525050565b5f6020820190506101a95f830184610187565b92915050565b613ef7806101bc5f395ff3fe608060405234801561000f575f5ffd5b5060043610610091575f3560e01c80638da5cb5b116100645780638da5cb5b146100f5578063a588581f14610113578063b918161114610131578063c45a015514610161578063f2fde38b1461017f57610091565b8063184f7bb2146100955780635bb47808146100b3578063711bf9b2146100cf578063715018a6146100eb575b5f5ffd5b61009d61019b565b6040516100aa9190610747565b60405180910390f35b6100cd60048036038101906100c8919061078e565b61028c565b005b6100e960048036038101906100e491906107ee565b61031a565b005b6100f3610487565b005b6100fd61049a565b60405161010a9190610747565b60405180910390f35b61011b6104c1565b6040516101289190610887565b60405180910390f35b61014b6004803603810190610146919061078e565b6104e6565b60405161015891906108af565b60405180910390f35b610169610503565b6040516101769190610747565b60405180910390f35b6101996004803603810190610194919061078e565b610528565b005b5f6040516101a8906106fb565b604051809103905ff0801580156101c1573d5f5f3e3d5ffd5b5060015f6101000a81548173ffffffffffffffffffffffffffffffffffffffff021916908373ffffffffffffffffffffffffffffffffffffffff16021790555060015f9054906101000a900473ffffffffffffffffffffffffffffffffffffffff1673ffffffffffffffffffffffffffffffffffffffff167f2ea19eaba598207cfd8ee89645838ef9dafe5146c5c3e21d42ec1109e1aab10660405160405180910390a260015f9054906101000a900473ffffffffffffffffffffffffffffffffffffffff16905090565b6102946105ac565b8060025f6101000a81548173ffffffffffffffffffffffffffffffffffffffff021916908373ffffffffffffffffffffffffffffffffffffffff1602179055508073ffffffffffffffffffffffffffffffffffffffff167f1edf3afd4ac789736e00d216cd88be164ddcef26a6eedcc30cdb0cb62f3741b160405160405180910390a250565b60025f9054906101000a900473ffffffffffffffffffffffffffffffffffffffff1673ffffffffffffffffffffffffffffffffffffffff163373ffffffffffffffffffffffffffffffffffffffff16141580156103aa575061037a61049a565b73ffffffffffffffffffffffffffffffffffffffff163373ffffffffffffffffffffffffffffffffffffffff1614155b156103e1576040517fea8e4eb500000000000000000000000000000000000000000000000000000000815260040160405180910390fd5b8060035f8473ffffffffffffffffffffffffffffffffffffffff1673ffffffffffffffffffffffffffffffffffffffff1681526020019081526020015f205f6101000a81548160ff0219169083151502179055508173ffffffffffffffffffffffffffffffffffffffff167f19fef6046150baa445c8f44d75e29317c0fa4c6341a6c8444b3ec4cc48d1e1ce8260405161047b91906108af565b60405180910390a25050565b61048f6105ac565b6104985f610633565b565b5f5f5f9054906101000a900473ffffffffffffffffffffffffffffffffffffffff16905090565b60015f9054906101000a900473ffffffffffffffffffffffffffffffffffffffff1681565b6003602052805f5260405f205f915054906101000a900460ff1681565b60025f9054906101000a900473ffffffffffffffffffffffffffffffffffffffff1681565b6105306105ac565b5f73ffffffffffffffffffffffffffffffffffffffff168173ffffffffffffffffffffffffffffffffffffffff16036105a0575f6040517f1e4fbdf70000000000000000000000000000000000000000000000000000000081526004016105979190610747565b60405180910390fd5b6105a981610633565b50565b6105b46106f4565b73ffffffffffffffffffffffffffffffffffffffff166105d261049a565b73ffffffffffffffffffffffffffffffffffffffff1614610631576105f56106f4565b6040517f118cdaa70000000000000000000000000000000000000000000000000000000081526004016106289190610747565b60405180910390fd5b565b5f5f5f9054906101000a900473ffffffffffffffffffffffffffffffffffffffff169050815f5f6101000a81548173ffffffffffffffffffffffffffffffffffffffff021916908373ffffffffffffffffffffffffffffffffffffffff1602179055508173ffffffffffffffffffffffffffffffffffffffff168173ffffffffffffffffffffffffffffffffffffffff167f8be0079c531659141344cd1fd0a4f28419497f9722a3daafe3b4186f6b6457e060405160405180910390a35050565b5f33905090565b6135f9806108c983390190565b5f73ffffffffffffffffffffffffffffffffffffffff82169050919050565b5f61073182610708565b9050919050565b61074181610727565b82525050565b5f60208201905061075a5f830184610738565b92915050565b5f5ffd5b61076d81610727565b8114610777575f5ffd5b50565b5f8135905061078881610764565b92915050565b5f602082840312156107a3576107a2610760565b5b5f6107b08482850161077a565b91505092915050565b5f8115159050919050565b6107cd816107b9565b81146107d7575f5ffd5b50565b5f813590506107e8816107c4565b92915050565b5f5f6040838503121561080457610803610760565b5b5f6108118582860161077a565b9250506020610822858286016107da565b9150509250929050565b5f819050919050565b5f61084f61084a61084584610708565b61082c565b610708565b9050919050565b5f61086082610835565b9050919050565b5f61087182610856565b9050919050565b61088181610867565b82525050565b5f60208201905061089a5f830184610878565b92915050565b6108a9816107b9565b82525050565b5f6020820190506108c25f8301846108a0565b9291505056fe60a06040523073ffffffffffffffffffffffffffffffffffffffff1660809073ffffffffffffffffffffffffffffffffffffffff16815250348015610042575f5ffd5b5061005161005660201b60201c565b6101d1565b5f61006561015460201b60201c565b9050805f0160089054906101000a900460ff16156100af576040517ff92ee8a900000000000000000000000000000000000000000000000000000000815260040160405180910390fd5b67ffffffffffffffff8016815f015f9054906101000a900467ffffffffffffffff1667ffffffffffffffff16146101515767ffffffffffffffff815f015f6101000a81548167ffffffffffffffff021916908367ffffffffffffffff1602179055507fc7f505b2f371ae2175ee4913f4499e1f2633a7b5936321eed1cdaeb6115181d267ffffffffffffffff60405161014891906101b8565b60405180910390a15b50565b5f5f61016461016d60201b60201c565b90508091505090565b5f7ff0c57e16840df040f15088dc2f81fe391c3923bec73e23a9662efc9c229c6a005f1b905090565b5f67ffffffffffffffff82169050919050565b6101b281610196565b82525050565b5f6020820190506101cb5f8301846101a9565b92915050565b6080516134026101f75f395f81816116d201528181611727015261190401526134025ff3fe6080604052600436106101d7575f3560e01c80635c975abb11610101578063a9059cbb11610094578063d547741f11610063578063d547741f14610685578063dd62ed3e146106ad578063e58378bb146106e9578063f72c0d8b14610713576101d7565b8063a9059cbb146105cb578063ad3cb1cc14610607578063c45a015514610631578063d53913931461065b576101d7565b806391d14854116100d057806391d148541461051357806395d89b411461054f5780639dc29fac14610579578063a217fddf146105a1576101d7565b80635c975abb1461046f578063613445ae1461049957806370a08231146104c15780638456cb59146104fd576101d7565b80632f2ff15d1161017957806340c10f191161014857806340c10f19146103d95780634f1ef2861461040157806352d1902d1461041d5780635bb4780814610447576101d7565b80632f2ff15d14610349578063313ce5671461037157806336568abe1461039b5780633f4ba83a146103c3576101d7565b806318160ddd116101b557806318160ddd1461027d57806323b872dd146102a7578063248a9ca3146102e357806325a760c21461031f576101d7565b806301ffc9a7146101db57806306fdde0314610217578063095ea7b314610241575b5f5ffd5b3480156101e6575f5ffd5b5061020160048036038101906101fc91906126bd565b61073d565b60405161020e9190612702565b60405180910390f35b348015610222575f5ffd5b5061022b6107b6565b604051610238919061278b565b60405180910390f35b34801561024c575f5ffd5b5061026760048036038101906102629190612838565b610854565b6040516102749190612702565b60405180910390f35b348015610288575f5ffd5b50610291610876565b60405161029e9190612885565b60405180910390f35b3480156102b2575f5ffd5b506102cd60048036038101906102c8919061289e565b61088d565b6040516102da9190612702565b60405180910390f35b3480156102ee575f5ffd5b5061030960048036038101906103049190612921565b6108bb565b604051610316919061295b565b60405180910390f35b34801561032a575f5ffd5b506103336108e5565b604051610340919061298f565b60405180910390f35b348015610354575f5ffd5b5061036f600480360381019061036a91906129a8565b6108f7565b005b34801561037c575f5ffd5b50610385610919565b604051610392919061298f565b60405180910390f35b3480156103a6575f5ffd5b506103c160048036038101906103bc91906129a8565b610921565b005b3480156103ce575f5ffd5b506103d761099c565b005b3480156103e4575f5ffd5b506103ff60048036038101906103fa9190612838565b6109d1565b005b61041b60048036038101906104169190612b12565b610a0a565b005b348015610428575f5ffd5b50610431610a29565b60405161043e919061295b565b60405180910390f35b348015610452575f5ffd5b5061046d60048036038101906104689190612b6c565b610a5a565b005b34801561047a575f5ffd5b50610483610b0a565b6040516104909190612702565b60405180910390f35b3480156104a4575f5ffd5b506104bf60048036038101906104ba9190612c5f565b610b2c565b005b3480156104cc575f5ffd5b506104e760048036038101906104e29190612b6c565b610e19565b6040516104f49190612885565b60405180910390f35b348015610508575f5ffd5b50610511610e6c565b005b34801561051e575f5ffd5b50610539600480360381019061053491906129a8565b610ea1565b6040516105469190612702565b60405180910390f35b34801561055a575f5ffd5b50610563610f12565b604051610570919061278b565b60405180910390f35b348015610584575f5ffd5b5061059f600480360381019061059a9190612838565b610fb0565b005b3480156105ac575f5ffd5b506105b5610fe9565b6040516105c2919061295b565b60405180910390f35b3480156105d6575f5ffd5b506105f160048036038101906105ec9190612838565b610fef565b6040516105fe9190612702565b60405180910390f35b348015610612575f5ffd5b5061061b611011565b604051610628919061278b565b60405180910390f35b34801561063c575f5ffd5b5061064561104a565b6040516106529190612d2f565b60405180910390f35b348015610666575f5ffd5b5061066f61106e565b60405161067c919061295b565b60405180910390f35b348015610690575f5ffd5b506106ab60048036038101906106a691906129a8565b611092565b005b3480156106b8575f5ffd5b506106d360048036038101906106ce9190612d48565b6110b4565b6040516106e09190612885565b60405180910390f35b3480156106f4575f5ffd5b506106fd611144565b60405161070a919061295b565b60405180910390f35b34801561071e575f5ffd5b50610727611168565b604051610734919061295b565b60405180910390f35b5f7f7965db0b000000000000000000000000000000000000000000000000000000007bffffffffffffffffffffffffffffffffffffffffffffffffffffffff1916827bffffffffffffffffffffffffffffffffffffffffffffffffffffffff191614806107af57506107ae8261118c565b5b9050919050565b60605f6107c16111f5565b90508060030180546107d290612db3565b80601f01602080910402602001604051908101604052809291908181526020018280546107fe90612db3565b80156108495780601f1061082057610100808354040283529160200191610849565b820191905f5260205f20905b81548152906001019060200180831161082c57829003601f168201915b505050505091505090565b5f5f61085e61121c565b905061086b818585611223565b600191505092915050565b5f5f6108806111f5565b9050806002015491505090565b5f5f61089761121c565b90506108a4858285611235565b6108af8585856112c8565b60019150509392505050565b5f5f6108c56113b8565b9050805f015f8481526020019081526020015f2060010154915050919050565b5f60149054906101000a900460ff1681565b610900826108bb565b610909816113df565b61091383836113f3565b50505050565b5f6012905090565b61092961121c565b73ffffffffffffffffffffffffffffffffffffffff168173ffffffffffffffffffffffffffffffffffffffff161461098d576040517f6697b23200000000000000000000000000000000000000000000000000000000815260040160405180910390fd5b61099782826114eb565b505050565b7fb19546dff01e856fb3f010c267a7b1c60363cf8a4664e21cc89c26224620214e6109c6816113df565b6109ce6115e3565b50565b7f9f2df0fed2c77648de5860a4cc508cd0818c85b8b8a1ab4ceeef8d981c8956a66109fb816113df565b610a058383611651565b505050565b610a126116d0565b610a1b826117b6565b610a2582826117e4565b5050565b5f610a32611902565b7f360894a13ba1a3210667c828492db98dca3e2076cc3735a920a3ca505d382bbc5f1b905090565b7fb19546dff01e856fb3f010c267a7b1c60363cf8a4664e21cc89c26224620214e610a84816113df565b815f5f6101000a81548173ffffffffffffffffffffffffffffffffffffffff021916908373ffffffffffffffffffffffffffffffffffffffff1602179055508173ffffffffffffffffffffffffffffffffffffffff167f1edf3afd4ac789736e00d216cd88be164ddcef26a6eedcc30cdb0cb62f3741b160405160405180910390a25050565b5f5f610b14611989565b9050805f015f9054906101000a900460ff1691505090565b5f610b356119b0565b90505f815f0160089054906101000a900460ff161590505f825f015f9054906101000a900467ffffffffffffffff1690505f5f8267ffffffffffffffff16148015610b7d5750825b90505f60018367ffffffffffffffff16148015610bb057505f3073ffffffffffffffffffffffffffffffffffffffff163b145b905081158015610bbe575080155b15610bf5576040517ff92ee8a900000000000000000000000000000000000000000000000000000000815260040160405180910390fd5b6001855f015f6101000a81548167ffffffffffffffff021916908367ffffffffffffffff1602179055508315610c42576001855f0160086101000a81548160ff0219169083151502179055505b610c9e89610c4f8c6119c3565b604051602001610c60929190612e69565b60405160208183030381529060405289610c798d6119c3565b604051602001610c8a929190612ef6565b604051602081830303815290604052611a8d565b610ca6611aa3565b610cae611aad565b610cb6611ab7565b8a5f5f6101000a81548173ffffffffffffffffffffffffffffffffffffffff021916908373ffffffffffffffffffffffffffffffffffffffff160217905550865f60146101000a81548160ff021916908360ff160217905550610d225f5f1b610d1d611ac1565b6113f3565b50610d547fb19546dff01e856fb3f010c267a7b1c60363cf8a4664e21cc89c26224620214e610d4f611ac1565b6113f3565b50610d867f189ab7a9244df0848122154315af71fe140f3db0fe014031783b0946b8c9d2e3610d81611ac1565b6113f3565b50610db17f9f2df0fed2c77648de5860a4cc508cd0818c85b8b8a1ab4ceeef8d981c8956a6876113f3565b508315610e0c575f855f0160086101000a81548160ff0219169083151502179055507fc7f505b2f371ae2175ee4913f4499e1f2633a7b5936321eed1cdaeb6115181d26001604051610e039190612f8c565b60405180910390a15b5050505050505050505050565b5f5f610e236111f5565b9050805f015f8473ffffffffffffffffffffffffffffffffffffffff1673ffffffffffffffffffffffffffffffffffffffff1681526020019081526020015f2054915050919050565b7fb19546dff01e856fb3f010c267a7b1c60363cf8a4664e21cc89c26224620214e610e96816113df565b610e9e611b54565b50565b5f5f610eab6113b8565b9050805f015f8581526020019081526020015f205f015f8473ffffffffffffffffffffffffffffffffffffffff1673ffffffffffffffffffffffffffffffffffffffff1681526020019081526020015f205f9054906101000a900460ff1691505092915050565b60605f610f1d6111f5565b9050806004018054610f2e90612db3565b80601f0160208091040260200160405190810160405280929190818152602001828054610f5a90612db3565b8015610fa55780601f10610f7c57610100808354040283529160200191610fa5565b820191905f5260205f20905b815481529060010190602001808311610f8857829003601f168201915b505050505091505090565b7f9f2df0fed2c77648de5860a4cc508cd0818c85b8b8a1ab4ceeef8d981c8956a6610fda816113df565b610fe48383611bc3565b505050565b5f5f1b81565b5f5f610ff961121c565b90506110068185856112c8565b600191505092915050565b6040518060400160405280600581526020017f352e302e3000000000000000000000000000000000000000000000000000000081525081565b5f5f9054906101000a900473ffffffffffffffffffffffffffffffffffffffff1681565b7f9f2df0fed2c77648de5860a4cc508cd0818c85b8b8a1ab4ceeef8d981c8956a681565b61109b826108bb565b6110a4816113df565b6110ae83836114eb565b50505050565b5f5f6110be6111f5565b9050806001015f8573ffffffffffffffffffffffffffffffffffffffff1673ffffffffffffffffffffffffffffffffffffffff1681526020019081526020015f205f8473ffffffffffffffffffffffffffffffffffffffff1673ffffffffffffffffffffffffffffffffffffffff1681526020019081526020015f205491505092915050565b7fb19546dff01e856fb3f010c267a7b1c60363cf8a4664e21cc89c26224620214e81565b7f189ab7a9244df0848122154315af71fe140f3db0fe014031783b0946b8c9d2e381565b5f7f01ffc9a7000000000000000000000000000000000000000000000000000000007bffffffffffffffffffffffffffffffffffffffffffffffffffffffff1916827bffffffffffffffffffffffffffffffffffffffffffffffffffffffff1916149050919050565b5f7f52c63247e1f47db19d5ce0460030c497f067ca4cebf71ba98eeadabe20bace00905090565b5f33905090565b6112308383836001611c42565b505050565b5f61124084846110b4565b90507fffffffffffffffffffffffffffffffffffffffffffffffffffffffffffffffff8110156112c257818110156112b3578281836040517ffb8f41b20000000000000000000000000000000000000000000000000000000081526004016112aa93929190612fa5565b60405180910390fd5b6112c184848484035f611c42565b5b50505050565b5f73ffffffffffffffffffffffffffffffffffffffff168373ffffffffffffffffffffffffffffffffffffffff1603611338575f6040517f96c6fd1e00000000000000000000000000000000000000000000000000000000815260040161132f9190612d2f565b60405180910390fd5b5f73ffffffffffffffffffffffffffffffffffffffff168273ffffffffffffffffffffffffffffffffffffffff16036113a8575f6040517fec442f0500000000000000000000000000000000000000000000000000000000815260040161139f9190612d2f565b60405180910390fd5b6113b3838383611e1f565b505050565b5f7f02dd7bc7dec4dceedda775e58dd541e08a116c6c53815c0bd028192f7b626800905090565b6113f0816113eb61121c565b61204e565b50565b5f5f6113fd6113b8565b90506114098484610ea1565b6114e0576001815f015f8681526020019081526020015f205f015f8573ffffffffffffffffffffffffffffffffffffffff1673ffffffffffffffffffffffffffffffffffffffff1681526020019081526020015f205f6101000a81548160ff02191690831515021790555061147c61121c565b73ffffffffffffffffffffffffffffffffffffffff168373ffffffffffffffffffffffffffffffffffffffff16857f2f8788117e7eff1d82e926ec794901d17c78024a50270940304540a733656f0d60405160405180910390a460019150506114e5565b5f9150505b92915050565b5f5f6114f56113b8565b90506115018484610ea1565b156115d8575f815f015f8681526020019081526020015f205f015f8573ffffffffffffffffffffffffffffffffffffffff1673ffffffffffffffffffffffffffffffffffffffff1681526020019081526020015f205f6101000a81548160ff02191690831515021790555061157461121c565b73ffffffffffffffffffffffffffffffffffffffff168373ffffffffffffffffffffffffffffffffffffffff16857ff6391f5c32d9c69d2a47ea670b442974b53935d1edc7fd64eb21e047a839171b60405160405180910390a460019150506115dd565b5f9150505b92915050565b6115eb61209f565b5f6115f4611989565b90505f815f015f6101000a81548160ff0219169083151502179055507f5db9ee0a495bf2e6ff9c91a7834c1ba4fdd244a5e8aa4e537bd38aeae4b073aa61163961121c565b6040516116469190612d2f565b60405180910390a150565b5f73ffffffffffffffffffffffffffffffffffffffff168273ffffffffffffffffffffffffffffffffffffffff16036116c1575f6040517fec442f050000000000000000000000000000000000000000000000000000000081526004016116b89190612d2f565b60405180910390fd5b6116cc5f8383611e1f565b5050565b7f000000000000000000000000000000000000000000000000000000000000000073ffffffffffffffffffffffffffffffffffffffff163073ffffffffffffffffffffffffffffffffffffffff16148061177d57507f000000000000000000000000000000000000000000000000000000000000000073ffffffffffffffffffffffffffffffffffffffff166117646120df565b73ffffffffffffffffffffffffffffffffffffffff1614155b156117b4576040517fe07c8dba00000000000000000000000000000000000000000000000000000000815260040160405180910390fd5b565b7f189ab7a9244df0848122154315af71fe140f3db0fe014031783b0946b8c9d2e36117e0816113df565b5050565b8173ffffffffffffffffffffffffffffffffffffffff166352d1902d6040518163ffffffff1660e01b8152600401602060405180830381865afa92505050801561184c57506040513d601f19601f820116820180604052508101906118499190612fee565b60015b61188d57816040517f4c9c8ce30000000000000000000000000000000000000000000000000000000081526004016118849190612d2f565b60405180910390fd5b7f360894a13ba1a3210667c828492db98dca3e2076cc3735a920a3ca505d382bbc5f1b81146118f357806040517faa1d49a40000000000000000000000000000000000000000000000000000000081526004016118ea919061295b565b60405180910390fd5b6118fd8383612132565b505050565b7f000000000000000000000000000000000000000000000000000000000000000073ffffffffffffffffffffffffffffffffffffffff163073ffffffffffffffffffffffffffffffffffffffff1614611987576040517fe07c8dba00000000000000000000000000000000000000000000000000000000815260040160405180910390fd5b565b5f7fcd5ed15c6e187e77e9aee88184c21f4f2182ab5827cb3b7e07fbedcd63f03300905090565b5f5f6119ba6121a4565b90508091505090565b60605f60016119d1846121cd565b0190505f8167ffffffffffffffff8111156119ef576119ee6129ee565b5b6040519080825280601f01601f191660200182016040528015611a215781602001600182028036833780820191505090505b5090505f82602083010190505b600115611a82578080600190039150507f3031323334353637383961626364656600000000000000000000000000000000600a86061a8153600a8581611a7757611a76613019565b5b0494505f8503611a2e575b819350505050919050565b611a9561231e565b611a9f828261235e565b5050565b611aab61231e565b565b611ab561231e565b565b611abf61231e565b565b5f5f5f9054906101000a900473ffffffffffffffffffffffffffffffffffffffff1673ffffffffffffffffffffffffffffffffffffffff16638da5cb5b6040518163ffffffff1660e01b8152600401602060405180830381865afa158015611b2b573d5f5f3e3d5ffd5b505050506040513d601f19601f82011682018060405250810190611b4f919061305a565b905090565b611b5c61239a565b5f611b65611989565b90506001815f015f6101000a81548160ff0219169083151502179055507f62e78cea01bee320cd4e420270b5ea74000d11b0c9f74754ebdbfc544b05a258611bab61121c565b604051611bb89190612d2f565b60405180910390a150565b5f73ffffffffffffffffffffffffffffffffffffffff168273ffffffffffffffffffffffffffffffffffffffff1603611c33575f6040517f96c6fd1e000000000000000000000000000000000000000000000000000000008152600401611c2a9190612d2f565b60405180910390fd5b611c3e825f83611e1f565b5050565b5f611c4b6111f5565b90505f73ffffffffffffffffffffffffffffffffffffffff168573ffffffffffffffffffffffffffffffffffffffff1603611cbd575f6040517fe602df05000000000000000000000000000000000000000000000000000000008152600401611cb49190612d2f565b60405180910390fd5b5f73ffffffffffffffffffffffffffffffffffffffff168473ffffffffffffffffffffffffffffffffffffffff1603611d2d575f6040517f94280d62000000000000000000000000000000000000000000000000000000008152600401611d249190612d2f565b60405180910390fd5b82816001015f8773ffffffffffffffffffffffffffffffffffffffff1673ffffffffffffffffffffffffffffffffffffffff1681526020019081526020015f205f8673ffffffffffffffffffffffffffffffffffffffff1673ffffffffffffffffffffffffffffffffffffffff1681526020019081526020015f20819055508115611e18578373ffffffffffffffffffffffffffffffffffffffff168573ffffffffffffffffffffffffffffffffffffffff167f8c5be1e5ebec7d5bd14f71427d1e84f3dd0314c0f7b2291e5b200ac8c7c3b92585604051611e0f9190612885565b60405180910390a35b5050505050565b5f611e286111f5565b90505f73ffffffffffffffffffffffffffffffffffffffff168473ffffffffffffffffffffffffffffffffffffffff1603611e7c5781816002015f828254611e7091906130b2565b92505081905550611f4e565b5f815f015f8673ffffffffffffffffffffffffffffffffffffffff1673ffffffffffffffffffffffffffffffffffffffff1681526020019081526020015f2054905082811015611f07578481846040517fe450d38c000000000000000000000000000000000000000000000000000000008152600401611efe93929190612fa5565b60405180910390fd5b828103825f015f8773ffffffffffffffffffffffffffffffffffffffff1673ffffffffffffffffffffffffffffffffffffffff1681526020019081526020015f2081905550505b5f73ffffffffffffffffffffffffffffffffffffffff168373ffffffffffffffffffffffffffffffffffffffff1603611f975781816002015f8282540392505081905550611fe3565b81815f015f8573ffffffffffffffffffffffffffffffffffffffff1673ffffffffffffffffffffffffffffffffffffffff1681526020019081526020015f205f82825401925050819055505b8273ffffffffffffffffffffffffffffffffffffffff168473ffffffffffffffffffffffffffffffffffffffff167fddf252ad1be2c89b69c2b068fc378daa952ba7f163c4a11628f55a4df523b3ef846040516120409190612885565b60405180910390a350505050565b6120588282610ea1565b61209b5780826040517fe2517d3f0000000000000000000000000000000000000000000000000000000081526004016120929291906130e5565b60405180910390fd5b5050565b6120a7610b0a565b6120dd576040517f8dfc202b00000000000000000000000000000000000000000000000000000000815260040160405180910390fd5b565b5f61210b7f360894a13ba1a3210667c828492db98dca3e2076cc3735a920a3ca505d382bbc5f1b6123db565b5f015f9054906101000a900473ffffffffffffffffffffffffffffffffffffffff16905090565b61213b826123e4565b8173ffffffffffffffffffffffffffffffffffffffff167fbc7cd75a20ee27fd9adebab32041f755214dbc6bffa90cc0225b39da2e5c2d3b60405160405180910390a25f815111156121975761219182826124ad565b506121a0565b61219f61252d565b5b5050565b5f7ff0c57e16840df040f15088dc2f81fe391c3923bec73e23a9662efc9c229c6a005f1b905090565b5f5f5f90507a184f03e93ff9f4daa797ed6e38ed64bf6a1f0100000000000000008310612229577a184f03e93ff9f4daa797ed6e38ed64bf6a1f010000000000000000838161221f5761221e613019565b5b0492506040810190505b6d04ee2d6d415b85acef81000000008310612266576d04ee2d6d415b85acef8100000000838161225c5761225b613019565b5b0492506020810190505b662386f26fc10000831061229557662386f26fc10000838161228b5761228a613019565b5b0492506010810190505b6305f5e10083106122be576305f5e10083816122b4576122b3613019565b5b0492506008810190505b61271083106122e35761271083816122d9576122d8613019565b5b0492506004810190505b6064831061230657606483816122fc576122fb613019565b5b0492506002810190505b600a8310612315576001810190505b80915050919050565b612326612569565b61235c576040517fd7e6bcf800000000000000000000000000000000000000000000000000000000815260040160405180910390fd5b565b61236661231e565b5f61236f6111f5565b90508281600301908161238291906132a3565b508181600401908161239491906132a3565b50505050565b6123a2610b0a565b156123d9576040517fd93c066500000000000000000000000000000000000000000000000000000000815260040160405180910390fd5b565b5f819050919050565b5f8173ffffffffffffffffffffffffffffffffffffffff163b0361243f57806040517f4c9c8ce30000000000000000000000000000000000000000000000000000000081526004016124369190612d2f565b60405180910390fd5b8061246b7f360894a13ba1a3210667c828492db98dca3e2076cc3735a920a3ca505d382bbc5f1b6123db565b5f015f6101000a81548173ffffffffffffffffffffffffffffffffffffffff021916908373ffffffffffffffffffffffffffffffffffffffff16021790555050565b60605f5f8473ffffffffffffffffffffffffffffffffffffffff16846040516124d691906133b6565b5f60405180830381855af49150503d805f811461250e576040519150601f19603f3d011682016040523d82523d5f602084013e612513565b606091505b5091509150612523858383612587565b9250505092915050565b5f341115612567576040517fb398979f00000000000000000000000000000000000000000000000000000000815260040160405180910390fd5b565b5f6125726119b0565b5f0160089054906101000a900460ff16905090565b60608261259c5761259782612614565b61260c565b5f82511480156125c257505f8473ffffffffffffffffffffffffffffffffffffffff163b145b1561260457836040517f9996b3150000000000000000000000000000000000000000000000000000000081526004016125fb9190612d2f565b60405180910390fd5b81905061260d565b5b9392505050565b5f8151111561262557805160208201fd5b6040517fd6bda27500000000000000000000000000000000000000000000000000000000815260040160405180910390fd5b5f604051905090565b5f5ffd5b5f5ffd5b5f7fffffffff0000000000000000000000000000000000000000000000000000000082169050919050565b61269c81612668565b81146126a6575f5ffd5b50565b5f813590506126b781612693565b92915050565b5f602082840312156126d2576126d1612660565b5b5f6126df848285016126a9565b91505092915050565b5f8115159050919050565b6126fc816126e8565b82525050565b5f6020820190506127155f8301846126f3565b92915050565b5f81519050919050565b5f82825260208201905092915050565b8281835e5f83830152505050565b5f601f19601f8301169050919050565b5f61275d8261271b565b6127678185612725565b9350612777818560208601612735565b61278081612743565b840191505092915050565b5f6020820190508181035f8301526127a38184612753565b905092915050565b5f73ffffffffffffffffffffffffffffffffffffffff82169050919050565b5f6127d4826127ab565b9050919050565b6127e4816127ca565b81146127ee575f5ffd5b50565b5f813590506127ff816127db565b92915050565b5f819050919050565b61281781612805565b8114612821575f5ffd5b50565b5f813590506128328161280e565b92915050565b5f5f6040838503121561284e5761284d612660565b5b5f61285b858286016127f1565b925050602061286c85828601612824565b9150509250929050565b61287f81612805565b82525050565b5f6020820190506128985f830184612876565b92915050565b5f5f5f606084860312156128b5576128b4612660565b5b5f6128c2868287016127f1565b93505060206128d3868287016127f1565b92505060406128e486828701612824565b9150509250925092565b5f819050919050565b612900816128ee565b811461290a575f5ffd5b50565b5f8135905061291b816128f7565b92915050565b5f6020828403121561293657612935612660565b5b5f6129438482850161290d565b91505092915050565b612955816128ee565b82525050565b5f60208201905061296e5f83018461294c565b92915050565b5f60ff82169050919050565b61298981612974565b82525050565b5f6020820190506129a25f830184612980565b92915050565b5f5f604083850312156129be576129bd612660565b5b5f6129cb8582860161290d565b92505060206129dc858286016127f1565b9150509250929050565b5f5ffd5b5f5ffd5b7f4e487b71000000000000000000000000000000000000000000000000000000005f52604160045260245ffd5b612a2482612743565b810181811067ffffffffffffffff82111715612a4357612a426129ee565b5b80604052505050565b5f612a55612657565b9050612a618282612a1b565b919050565b5f67ffffffffffffffff821115612a8057612a7f6129ee565b5b612a8982612743565b9050602081019050919050565b828183375f83830152505050565b5f612ab6612ab184612a66565b612a4c565b905082815260208101848484011115612ad257612ad16129ea565b5b612add848285612a96565b509392505050565b5f82601f830112612af957612af86129e6565b5b8135612b09848260208601612aa4565b91505092915050565b5f5f60408385031215612b2857612b27612660565b5b5f612b35858286016127f1565b925050602083013567ffffffffffffffff811115612b5657612b55612664565b5b612b6285828601612ae5565b9150509250929050565b5f60208284031215612b8157612b80612660565b5b5f612b8e848285016127f1565b91505092915050565b5f67ffffffffffffffff821115612bb157612bb06129ee565b5b612bba82612743565b9050602081019050919050565b5f612bd9612bd484612b97565b612a4c565b905082815260208101848484011115612bf557612bf46129ea565b5b612c00848285612a96565b509392505050565b5f82601f830112612c1c57612c1b6129e6565b5b8135612c2c848260208601612bc7565b91505092915050565b612c3e81612974565b8114612c48575f5ffd5b50565b5f81359050612c5981612c35565b92915050565b5f5f5f5f5f5f60c08789031215612c7957612c78612660565b5b5f612c8689828a016127f1565b9650506020612c9789828a01612824565b955050604087013567ffffffffffffffff811115612cb857612cb7612664565b5b612cc489828a01612c08565b945050606087013567ffffffffffffffff811115612ce557612ce4612664565b5b612cf189828a01612c08565b9350506080612d0289828a01612c4b565b92505060a0612d1389828a016127f1565b9150509295509295509295565b612d29816127ca565b82525050565b5f602082019050612d425f830184612d20565b92915050565b5f5f60408385031215612d5e57612d5d612660565b5b5f612d6b858286016127f1565b9250506020612d7c858286016127f1565b9150509250929050565b7f4e487b71000000000000000000000000000000000000000000000000000000005f52602260045260245ffd5b5f6002820490506001821680612dca57607f821691505b602082108103612ddd57612ddc612d86565b5b50919050565b7f537570616c612000000000000000000000000000000000000000000000000000815250565b5f81905092915050565b5f612e1d8261271b565b612e278185612e09565b9350612e37818560208601612735565b80840191505092915050565b7f20546f6b656e202d200000000000000000000000000000000000000000000000815250565b5f612e7382612de3565b600782019150612e838285612e13565b9150612e8e82612e43565b600982019150612e9e8284612e13565b91508190509392505050565b7f537570616c610000000000000000000000000000000000000000000000000000815250565b7f2d00000000000000000000000000000000000000000000000000000000000000815250565b5f612f0082612eaa565b600682019150612f108285612e13565b9150612f1b82612ed0565b600182019150612f2b8284612e13565b91508190509392505050565b5f819050919050565b5f67ffffffffffffffff82169050919050565b5f819050919050565b5f612f76612f71612f6c84612f37565b612f53565b612f40565b9050919050565b612f8681612f5c565b82525050565b5f602082019050612f9f5f830184612f7d565b92915050565b5f606082019050612fb85f830186612d20565b612fc56020830185612876565b612fd26040830184612876565b949350505050565b5f81519050612fe8816128f7565b92915050565b5f6020828403121561300357613002612660565b5b5f61301084828501612fda565b91505092915050565b7f4e487b71000000000000000000000000000000000000000000000000000000005f52601260045260245ffd5b5f81519050613054816127db565b92915050565b5f6020828403121561306f5761306e612660565b5b5f61307c84828501613046565b91505092915050565b7f4e487b71000000000000000000000000000000000000000000000000000000005f52601160045260245ffd5b5f6130bc82612805565b91506130c783612805565b92508282019050808211156130df576130de613085565b5b92915050565b5f6040820190506130f85f830185612d20565b613105602083018461294c565b9392505050565b5f819050815f5260205f209050919050565b5f6020601f8301049050919050565b5f82821b905092915050565b5f600883026131687fffffffffffffffffffffffffffffffffffffffffffffffffffffffffffffffff8261312d565b613172868361312d565b95508019841693508086168417925050509392505050565b5f6131a461319f61319a84612805565b612f53565b612805565b9050919050565b5f819050919050565b6131bd8361318a565b6131d16131c9826131ab565b848454613139565b825550505050565b5f5f905090565b6131e86131d9565b6131f38184846131b4565b505050565b5b818110156132165761320b5f826131e0565b6001810190506131f9565b5050565b601f82111561325b5761322c8161310c565b6132358461311e565b81016020851015613244578190505b6132586132508561311e565b8301826131f8565b50505b505050565b5f82821c905092915050565b5f61327b5f1984600802613260565b1980831691505092915050565b5f613293838361326c565b9150826002028217905092915050565b6132ac8261271b565b67ffffffffffffffff8111156132c5576132c46129ee565b5b6132cf8254612db3565b6132da82828561321a565b5f60209050601f83116001811461330b575f84156132f9578287015190505b6133038582613288565b86555061336a565b601f1984166133198661310c565b5f5b828110156133405784890151825560018201915060208501945060208101905061331b565b8683101561335d5784890151613359601f89168261326c565b8355505b6001600288020188555050505b505050505050565b5f81519050919050565b5f81905092915050565b5f61339082613372565b61339a818561337c565b93506133aa818560208601612735565b80840191505092915050565b5f6133c18284613386565b91508190509291505056fea26469706673582212200dedd42a8ad67e5799b0a9eccf9c818536694a2ee43d3c92eaf78144a7dd9e8a64736f6c634300081e0033a26469706673582212207b6b65dde22e4361ae6365b9548241cd27d47a13465e5c0cbc9530c7161ea55b64736f6c634300081e0033","linkReferences":{}},"methodIdentifiers":{"authorized(address)":"b9181611","deploySharesToken()":"184f7bb2","factory()":"c45a0155","owner()":"8da5cb5b","renounceOwnership()":"715018a6","setAuthorized(address,bool)":"711bf9b2","setFactory(address)":"5bb47808","supalaSharesToken()":"a588581f","transferOwnership(address)":"f2fde38b"},"id":233}