{"abi":[{"type":"constructor","inputs":[],"stateMutability":"nonpayable"},{"type":"function","name":"DEFAULT_ADMIN_ROLE","inputs":[],"outputs":[{"name":"","type":"bytes32","internalType":"bytes32"}],"stateMutability":"view"},{"type":"function","name":"OWNER_ROLE","inputs":[],"outputs":[{"name":"","type":"bytes32","internalType":"bytes32"}],"stateMutability":"view"},{"type":"function","name":"UPGRADER_ROLE","inputs":[],"outputs":[{"name":"","type":"bytes32","internalType":"bytes32"}],"stateMutability":"view"},{"type":"function","name":"UPGRADE_INTERFACE_VERSION","inputs":[],"outputs":[{"name":"","type":"string","internalType":"string"}],"stateMutability":"view"},{"type":"function","name":"decimals","inputs":[{"name":"_token","type":"address","internalType":"address"}],"outputs":[{"name":"","type":"uint256","internalType":"uint256"}],"stateMutability":"view"},{"type":"function","name":"getRoleAdmin","inputs":[{"name":"role","type":"bytes32","internalType":"bytes32"}],"outputs":[{"name":"","type":"bytes32","internalType":"bytes32"}],"stateMutability":"view"},{"type":"function","name":"grantRole","inputs":[{"name":"role","type":"bytes32","internalType":"bytes32"},{"name":"account","type":"address","internalType":"address"}],"outputs":[],"stateMutability":"nonpayable"},{"type":"function","name":"hasRole","inputs":[{"name":"role","type":"bytes32","internalType":"bytes32"},{"name":"account","type":"address","internalType":"address"}],"outputs":[{"name":"","type":"bool","internalType":"bool"}],"stateMutability":"view"},{"type":"function","name":"initialize","inputs":[],"outputs":[],"stateMutability":"nonpayable"},{"type":"function","name":"latestRoundData","inputs":[{"name":"_token","type":"address","internalType":"address"}],"outputs":[{"name":"","type":"uint80","internalType":"uint80"},{"name":"","type":"uint256","internalType":"uint256"},{"name":"","type":"uint256","internalType":"uint256"},{"name":"","type":"uint256","internalType":"uint256"},{"name":"","type":"uint80","internalType":"uint80"}],"stateMutability":"view"},{"type":"function","name":"paused","inputs":[],"outputs":[{"name":"","type":"bool","internalType":"bool"}],"stateMutability":"view"},{"type":"function","name":"proxiableUUID","inputs":[],"outputs":[{"name":"","type":"bytes32","internalType":"bytes32"}],"stateMutability":"view"},{"type":"function","name":"renounceRole","inputs":[{"name":"role","type":"bytes32","internalType":"bytes32"},{"name":"callerConfirmation","type":"address","internalType":"address"}],"outputs":[],"stateMutability":"nonpayable"},{"type":"function","name":"revokeRole","inputs":[{"name":"role","type":"bytes32","internalType":"bytes32"},{"name":"account","type":"address","internalType":"address"}],"outputs":[],"stateMutability":"nonpayable"},{"type":"function","name":"setTokenPriceFeed","inputs":[{"name":"_token","type":"address","internalType":"address"},{"name":"_priceFeed","type":"address","internalType":"address"}],"outputs":[],"stateMutability":"nonpayable"},{"type":"function","name":"supportsInterface","inputs":[{"name":"interfaceId","type":"bytes4","internalType":"bytes4"}],"outputs":[{"name":"","type":"bool","internalType":"bool"}],"stateMutability":"view"},{"type":"function","name":"tokenPriceFeed","inputs":[{"name":"","type":"address","internalType":"address"}],"outputs":[{"name":"","type":"address","internalType":"address"}],"stateMutability":"view"},{"type":"function","name":"upgradeToAndCall","inputs":[{"name":"newImplementation","type":"address","internalType":"address"},{"name":"data","type":"bytes","internalType":"bytes"}],"outputs":[],"stateMutability":"payable"},{"type":"event","name":"Initialized","inputs":[{"name":"version","type":"uint64","indexed":false,"internalType":"uint64"}],"anonymous":false},{"type":"event","name":"Paused","inputs":[{"name":"account","type":"address","indexed":false,"internalType":"address"}],"anonymous":false},{"type":"event","name":"RoleAdminChanged","inputs":[{"name":"role","type":"bytes32","indexed":true,"internalType":"bytes32"},{"name":"previousAdminRole","type":"bytes32","indexed":true,"internalType":"bytes32"},{"name":"newAdminRole","type":"bytes32","indexed":true,"internalType":"bytes32"}],"anonymous":false},{"type":"event","name":"RoleGranted","inputs":[{"name":"role","type":"bytes32","indexed":true,"internalType":"bytes32"},{"name":"account","type":"address","indexed":true,"internalType":"address"},{"name":"sender","type":"address","indexed":true,"internalType":"address"}],"anonymous":false},{"type":"event","name":"RoleRevoked","inputs":[{"name":"role","type":"bytes32","indexed":true,"internalType":"bytes32"},{"name":"account","type":"address","indexed":true,"internalType":"address"},{"name":"sender","type":"address","indexed":true,"internalType":"address"}],"anonymous":false},{"type":"event","name":"TokenPriceFeedSet","inputs":[{"name":"token","type":"address","indexed":false,"internalType":"address"},{"name":"priceFeed","type":"address","indexed":false,"internalType":"address"}],"anonymous":false},{"type":"event","name":"Unpaused","inputs":[{"name":"account","type":"address","indexed":false,"internalType":"address"}],"anonymous":false},{"type":"event","name":"Upgraded","inputs":[{"name":"implementation","type":"address","indexed":true,"internalType":"address"}],"anonymous":false},{"type":"error","name":"AccessControlBadConfirmation","inputs":[]},{"type":"error","name":"AccessControlUnauthorizedAccount","inputs":[{"name":"account","type":"address","internalType":"address"},{"name":"neededRole","type":"bytes32","internalType":"bytes32"}]},{"type":"error","name":"AddressEmptyCode","inputs":[{"name":"target","type":"address","internalType":"address"}]},{"type":"error","name":"ERC1967InvalidImplementation","inputs":[{"name":"implementation","type":"address","internalType":"address"}]},{"type":"error","name":"ERC1967NonPayable","inputs":[]},{"type":"error","name":"EnforcedPause","inputs":[]},{"type":"error","name":"ExpectedPause","inputs":[]},{"type":"error","name":"FailedCall","inputs":[]},{"type":"error","name":"InvalidInitialization","inputs":[]},{"type":"error","name":"NegativePriceAnswer","inputs":[{"name":"price","type":"int256","internalType":"int256"}]},{"type":"error","name":"NotInitializing","inputs":[]},{"type":"error","name":"PriceStale","inputs":[{"name":"token","type":"address","internalType":"address"},{"name":"priceFeed","type":"address","internalType":"address"},{"name":"updatedAt","type":"uint256","internalType":"uint256"}]},{"type":"error","name":"ReentrancyGuardReentrantCall","inputs":[]},{"type":"error","name":"TokenPriceFeedNotSet","inputs":[{"name":"token","type":"address","internalType":"address"}]},{"type":"error","name":"UUPSUnauthorizedCallContext","inputs":[]},{"type":"error","name":"UUPSUnsupportedProxiableUUID","inputs":[{"name":"slot","type":"bytes32","internalType":"bytes32"}]},{"type":"error","name":"ZeroAddress","inputs":[]}],"bytecode":{"object":"0x60a06040523073ffffffffffffffffffffffffffffffffffffffff1660809073ffffffffffffffffffffffffffffffffffffffff16815250348015610042575f5ffd5b5061005161005660201b60201c565b6101d1565b5f61006561015460201b60201c565b9050805f0160089054906101000a900460ff16156100af576040517ff92ee8a900000000000000000000000000000000000000000000000000000000815260040160405180910390fd5b67ffffffffffffffff8016815f015f9054906101000a900467ffffffffffffffff1667ffffffffffffffff16146101515767ffffffffffffffff815f015f6101000a81548167ffffffffffffffff021916908367ffffffffffffffff1602179055507fc7f505b2f371ae2175ee4913f4499e1f2633a7b5936321eed1cdaeb6115181d267ffffffffffffffff60405161014891906101b8565b60405180910390a15b50565b5f5f61016461016d60201b60201c565b90508091505090565b5f7ff0c57e16840df040f15088dc2f81fe391c3923bec73e23a9662efc9c229c6a005f1b905090565b5f67ffffffffffffffff82169050919050565b6101b281610196565b82525050565b5f6020820190506101cb5f8301846101a9565b92915050565b6080516120566101f75f395f818161110001528181611155015261133201526120565ff3fe608060405260043610610108575f3560e01c806391d1485411610094578063ad3cb1cc11610063578063ad3cb1cc14610364578063d449a8321461038e578063d547741f146103ca578063e58378bb146103f2578063f72c0d8b1461041c57610108565b806391d14854146102825780639878cbb3146102be578063a13cc76a146102fa578063a217fddf1461033a57610108565b80634f1ef286116100db5780634f1ef286146101d457806352d1902d146101f05780635c975abb1461021a578063674417ae146102445780638129fc1c1461026c57610108565b806301ffc9a71461010c578063248a9ca3146101485780632f2ff15d1461018457806336568abe146101ac575b5f5ffd5b348015610117575f5ffd5b50610132600480360381019061012d91906118d6565b610446565b60405161013f919061191b565b60405180910390f35b348015610153575f5ffd5b5061016e60048036038101906101699190611967565b6104bf565b60405161017b91906119a1565b60405180910390f35b34801561018f575f5ffd5b506101aa60048036038101906101a59190611a14565b6104e9565b005b3480156101b7575f5ffd5b506101d260048036038101906101cd9190611a14565b61050b565b005b6101ee60048036038101906101e99190611b8e565b610586565b005b3480156101fb575f5ffd5b506102046105a5565b60405161021191906119a1565b60405180910390f35b348015610225575f5ffd5b5061022e6105d6565b60405161023b919061191b565b60405180910390f35b34801561024f575f5ffd5b5061026a60048036038101906102659190611be8565b6105f8565b005b348015610277575f5ffd5b506102806107a4565b005b34801561028d575f5ffd5b506102a860048036038101906102a39190611a14565b6109b3565b6040516102b5919061191b565b60405180910390f35b3480156102c9575f5ffd5b506102e460048036038101906102df9190611c26565b610a24565b6040516102f19190611c60565b60405180910390f35b348015610305575f5ffd5b50610320600480360381019061031b9190611c26565b610a53565b604051610331959493929190611cb5565b60405180910390f35b348015610345575f5ffd5b5061034e610c1c565b60405161035b91906119a1565b60405180910390f35b34801561036f575f5ffd5b50610378610c22565b6040516103859190611d66565b60405180910390f35b348015610399575f5ffd5b506103b460048036038101906103af9190611c26565b610c5b565b6040516103c19190611d86565b60405180910390f35b3480156103d5575f5ffd5b506103f060048036038101906103eb9190611a14565b610df9565b005b3480156103fd575f5ffd5b50610406610e1b565b60405161041391906119a1565b60405180910390f35b348015610427575f5ffd5b50610430610e3f565b60405161043d91906119a1565b60405180910390f35b5f7f7965db0b000000000000000000000000000000000000000000000000000000007bffffffffffffffffffffffffffffffffffffffffffffffffffffffff1916827bffffffffffffffffffffffffffffffffffffffffffffffffffffffff191614806104b857506104b782610e63565b5b9050919050565b5f5f6104c9610ecc565b9050805f015f8481526020019081526020015f2060010154915050919050565b6104f2826104bf565b6104fb81610ef3565b6105058383610f07565b50505050565b610513610fff565b73ffffffffffffffffffffffffffffffffffffffff168173ffffffffffffffffffffffffffffffffffffffff1614610577576040517f6697b23200000000000000000000000000000000000000000000000000000000815260040160405180910390fd5b6105818282611006565b505050565b61058e6110fe565b610597826111e4565b6105a18282611212565b5050565b5f6105ae611330565b7f360894a13ba1a3210667c828492db98dca3e2076cc3735a920a3ca505d382bbc5f1b905090565b5f5f6105e06113b7565b9050805f015f9054906101000a900460ff1691505090565b7fb19546dff01e856fb3f010c267a7b1c60363cf8a4664e21cc89c26224620214e61062281610ef3565b5f73ffffffffffffffffffffffffffffffffffffffff168373ffffffffffffffffffffffffffffffffffffffff1603610687576040517fd92e233d00000000000000000000000000000000000000000000000000000000815260040160405180910390fd5b5f73ffffffffffffffffffffffffffffffffffffffff168273ffffffffffffffffffffffffffffffffffffffff16036106ec576040517fd92e233d00000000000000000000000000000000000000000000000000000000815260040160405180910390fd5b815f5f8573ffffffffffffffffffffffffffffffffffffffff1673ffffffffffffffffffffffffffffffffffffffff1681526020019081526020015f205f6101000a81548173ffffffffffffffffffffffffffffffffffffffff021916908373ffffffffffffffffffffffffffffffffffffffff1602179055507f06450d77a493ade91a66792442980e4499d56e1565b15d80f0790f2a962a135d8383604051610797929190611d9f565b60405180910390a1505050565b5f6107ad6113de565b90505f815f0160089054906101000a900460ff161590505f825f015f9054906101000a900467ffffffffffffffff1690505f5f8267ffffffffffffffff161480156107f55750825b90505f60018367ffffffffffffffff1614801561082857505f3073ffffffffffffffffffffffffffffffffffffffff163b145b905081158015610836575080155b1561086d576040517ff92ee8a900000000000000000000000000000000000000000000000000000000815260040160405180910390fd5b6001855f015f6101000a81548167ffffffffffffffff021916908367ffffffffffffffff16021790555083156108ba576001855f0160086101000a81548160ff0219169083151502179055505b6108c26113f1565b6108ca6113fb565b6108d2611405565b6108da61140f565b6108ed5f5f1b6108e8610fff565b610f07565b5061091f7fb19546dff01e856fb3f010c267a7b1c60363cf8a4664e21cc89c26224620214e61091a610fff565b610f07565b506109517f189ab7a9244df0848122154315af71fe140f3db0fe014031783b0946b8c9d2e361094c610fff565b610f07565b5083156109ac575f855f0160086101000a81548160ff0219169083151502179055507fc7f505b2f371ae2175ee4913f4499e1f2633a7b5936321eed1cdaeb6115181d260016040516109a39190611e1b565b60405180910390a15b5050505050565b5f5f6109bd610ecc565b9050805f015f8581526020019081526020015f205f015f8473ffffffffffffffffffffffffffffffffffffffff1673ffffffffffffffffffffffffffffffffffffffff1681526020019081526020015f205f9054906101000a900460ff1691505092915050565b5f602052805f5260405f205f915054906101000a900473ffffffffffffffffffffffffffffffffffffffff1681565b5f5f5f5f5f5f73ffffffffffffffffffffffffffffffffffffffff165f5f8873ffffffffffffffffffffffffffffffffffffffff1673ffffffffffffffffffffffffffffffffffffffff1681526020019081526020015f205f9054906101000a900473ffffffffffffffffffffffffffffffffffffffff1673ffffffffffffffffffffffffffffffffffffffff1603610b2357856040517f9b830d46000000000000000000000000000000000000000000000000000000008152600401610b1a9190611c60565b60405180910390fd5b5f5f5f8873ffffffffffffffffffffffffffffffffffffffff1673ffffffffffffffffffffffffffffffffffffffff1681526020019081526020015f205f9054906101000a900473ffffffffffffffffffffffffffffffffffffffff1690505f5f5f5f5f8573ffffffffffffffffffffffffffffffffffffffff1663feaf968c6040518163ffffffff1660e01b815260040160a060405180830381865afa158015610bd0573d5f5f3e3d5ffd5b505050506040513d601f19601f82011682018060405250810190610bf49190611e88565b9450945094509450945084848484849a509a509a509a509a5050505050505091939590929450565b5f5f1b81565b6040518060400160405280600581526020017f352e302e3000000000000000000000000000000000000000000000000000000081525081565b5f5f73ffffffffffffffffffffffffffffffffffffffff165f5f8473ffffffffffffffffffffffffffffffffffffffff1673ffffffffffffffffffffffffffffffffffffffff1681526020019081526020015f205f9054906101000a900473ffffffffffffffffffffffffffffffffffffffff1673ffffffffffffffffffffffffffffffffffffffff1603610d2757816040517f9b830d46000000000000000000000000000000000000000000000000000000008152600401610d1e9190611c60565b60405180910390fd5b5f5f8373ffffffffffffffffffffffffffffffffffffffff1673ffffffffffffffffffffffffffffffffffffffff1681526020019081526020015f205f9054906101000a900473ffffffffffffffffffffffffffffffffffffffff1673ffffffffffffffffffffffffffffffffffffffff1663313ce5676040518163ffffffff1660e01b8152600401602060405180830381865afa158015610dcb573d5f5f3e3d5ffd5b505050506040513d601f19601f82011682018060405250810190610def9190611f35565b60ff169050919050565b610e02826104bf565b610e0b81610ef3565b610e158383611006565b50505050565b7fb19546dff01e856fb3f010c267a7b1c60363cf8a4664e21cc89c26224620214e81565b7f189ab7a9244df0848122154315af71fe140f3db0fe014031783b0946b8c9d2e381565b5f7f01ffc9a7000000000000000000000000000000000000000000000000000000007bffffffffffffffffffffffffffffffffffffffffffffffffffffffff1916827bffffffffffffffffffffffffffffffffffffffffffffffffffffffff1916149050919050565b5f7f02dd7bc7dec4dceedda775e58dd541e08a116c6c53815c0bd028192f7b626800905090565b610f0481610eff610fff565b611421565b50565b5f5f610f11610ecc565b9050610f1d84846109b3565b610ff4576001815f015f8681526020019081526020015f205f015f8573ffffffffffffffffffffffffffffffffffffffff1673ffffffffffffffffffffffffffffffffffffffff1681526020019081526020015f205f6101000a81548160ff021916908315150217905550610f90610fff565b73ffffffffffffffffffffffffffffffffffffffff168373ffffffffffffffffffffffffffffffffffffffff16857f2f8788117e7eff1d82e926ec794901d17c78024a50270940304540a733656f0d60405160405180910390a46001915050610ff9565b5f9150505b92915050565b5f33905090565b5f5f611010610ecc565b905061101c84846109b3565b156110f3575f815f015f8681526020019081526020015f205f015f8573ffffffffffffffffffffffffffffffffffffffff1673ffffffffffffffffffffffffffffffffffffffff1681526020019081526020015f205f6101000a81548160ff02191690831515021790555061108f610fff565b73ffffffffffffffffffffffffffffffffffffffff168373ffffffffffffffffffffffffffffffffffffffff16857ff6391f5c32d9c69d2a47ea670b442974b53935d1edc7fd64eb21e047a839171b60405160405180910390a460019150506110f8565b5f9150505b92915050565b7f000000000000000000000000000000000000000000000000000000000000000073ffffffffffffffffffffffffffffffffffffffff163073ffffffffffffffffffffffffffffffffffffffff1614806111ab57507f000000000000000000000000000000000000000000000000000000000000000073ffffffffffffffffffffffffffffffffffffffff16611192611472565b73ffffffffffffffffffffffffffffffffffffffff1614155b156111e2576040517fe07c8dba00000000000000000000000000000000000000000000000000000000815260040160405180910390fd5b565b7f189ab7a9244df0848122154315af71fe140f3db0fe014031783b0946b8c9d2e361120e81610ef3565b5050565b8173ffffffffffffffffffffffffffffffffffffffff166352d1902d6040518163ffffffff1660e01b8152600401602060405180830381865afa92505050801561127a57506040513d601f19601f820116820180604052508101906112779190611f74565b60015b6112bb57816040517f4c9c8ce30000000000000000000000000000000000000000000000000000000081526004016112b29190611c60565b60405180910390fd5b7f360894a13ba1a3210667c828492db98dca3e2076cc3735a920a3ca505d382bbc5f1b811461132157806040517faa1d49a400000000000000000000000000000000000000000000000000000000815260040161131891906119a1565b60405180910390fd5b61132b83836114c5565b505050565b7f000000000000000000000000000000000000000000000000000000000000000073ffffffffffffffffffffffffffffffffffffffff163073ffffffffffffffffffffffffffffffffffffffff16146113b5576040517fe07c8dba00000000000000000000000000000000000000000000000000000000815260040160405180910390fd5b565b5f7fcd5ed15c6e187e77e9aee88184c21f4f2182ab5827cb3b7e07fbedcd63f03300905090565b5f5f6113e8611537565b90508091505090565b6113f9611560565b565b611403611560565b565b61140d611560565b565b611417611560565b61141f6115a0565b565b61142b82826109b3565b61146e5780826040517fe2517d3f000000000000000000000000000000000000000000000000000000008152600401611465929190611f9f565b60405180910390fd5b5050565b5f61149e7f360894a13ba1a3210667c828492db98dca3e2076cc3735a920a3ca505d382bbc5f1b6115c2565b5f015f9054906101000a900473ffffffffffffffffffffffffffffffffffffffff16905090565b6114ce826115cb565b8173ffffffffffffffffffffffffffffffffffffffff167fbc7cd75a20ee27fd9adebab32041f755214dbc6bffa90cc0225b39da2e5c2d3b60405160405180910390a25f8151111561152a576115248282611694565b50611533565b611532611714565b5b5050565b5f7ff0c57e16840df040f15088dc2f81fe391c3923bec73e23a9662efc9c229c6a005f1b905090565b611568611750565b61159e576040517fd7e6bcf800000000000000000000000000000000000000000000000000000000815260040160405180910390fd5b565b6115a8611560565b60016115ba6115b561176e565b611797565b5f0181905550565b5f819050919050565b5f8173ffffffffffffffffffffffffffffffffffffffff163b0361162657806040517f4c9c8ce300000000000000000000000000000000000000000000000000000000815260040161161d9190611c60565b60405180910390fd5b806116527f360894a13ba1a3210667c828492db98dca3e2076cc3735a920a3ca505d382bbc5f1b6115c2565b5f015f6101000a81548173ffffffffffffffffffffffffffffffffffffffff021916908373ffffffffffffffffffffffffffffffffffffffff16021790555050565b60605f5f8473ffffffffffffffffffffffffffffffffffffffff16846040516116bd919061200a565b5f60405180830381855af49150503d805f81146116f5576040519150601f19603f3d011682016040523d82523d5f602084013e6116fa565b606091505b509150915061170a8583836117a0565b9250505092915050565b5f34111561174e576040517fb398979f00000000000000000000000000000000000000000000000000000000815260040160405180910390fd5b565b5f6117596113de565b5f0160089054906101000a900460ff16905090565b5f7f9b779b17422d0df92223018b32b4d1fa46e071723d6817e2486d003becc55f005f1b905090565b5f819050919050565b6060826117b5576117b08261182d565b611825565b5f82511480156117db57505f8473ffffffffffffffffffffffffffffffffffffffff163b145b1561181d57836040517f9996b3150000000000000000000000000000000000000000000000000000000081526004016118149190611c60565b60405180910390fd5b819050611826565b5b9392505050565b5f8151111561183e57805160208201fd5b6040517fd6bda27500000000000000000000000000000000000000000000000000000000815260040160405180910390fd5b5f604051905090565b5f5ffd5b5f5ffd5b5f7fffffffff0000000000000000000000000000000000000000000000000000000082169050919050565b6118b581611881565b81146118bf575f5ffd5b50565b5f813590506118d0816118ac565b92915050565b5f602082840312156118eb576118ea611879565b5b5f6118f8848285016118c2565b91505092915050565b5f8115159050919050565b61191581611901565b82525050565b5f60208201905061192e5f83018461190c565b92915050565b5f819050919050565b61194681611934565b8114611950575f5ffd5b50565b5f813590506119618161193d565b92915050565b5f6020828403121561197c5761197b611879565b5b5f61198984828501611953565b91505092915050565b61199b81611934565b82525050565b5f6020820190506119b45f830184611992565b92915050565b5f73ffffffffffffffffffffffffffffffffffffffff82169050919050565b5f6119e3826119ba565b9050919050565b6119f3816119d9565b81146119fd575f5ffd5b50565b5f81359050611a0e816119ea565b92915050565b5f5f60408385031215611a2a57611a29611879565b5b5f611a3785828601611953565b9250506020611a4885828601611a00565b9150509250929050565b5f5ffd5b5f5ffd5b5f601f19601f8301169050919050565b7f4e487b71000000000000000000000000000000000000000000000000000000005f52604160045260245ffd5b611aa082611a5a565b810181811067ffffffffffffffff82111715611abf57611abe611a6a565b5b80604052505050565b5f611ad1611870565b9050611add8282611a97565b919050565b5f67ffffffffffffffff821115611afc57611afb611a6a565b5b611b0582611a5a565b9050602081019050919050565b828183375f83830152505050565b5f611b32611b2d84611ae2565b611ac8565b905082815260208101848484011115611b4e57611b4d611a56565b5b611b59848285611b12565b509392505050565b5f82601f830112611b7557611b74611a52565b5b8135611b85848260208601611b20565b91505092915050565b5f5f60408385031215611ba457611ba3611879565b5b5f611bb185828601611a00565b925050602083013567ffffffffffffffff811115611bd257611bd161187d565b5b611bde85828601611b61565b9150509250929050565b5f5f60408385031215611bfe57611bfd611879565b5b5f611c0b85828601611a00565b9250506020611c1c85828601611a00565b9150509250929050565b5f60208284031215611c3b57611c3a611879565b5b5f611c4884828501611a00565b91505092915050565b611c5a816119d9565b82525050565b5f602082019050611c735f830184611c51565b92915050565b5f69ffffffffffffffffffff82169050919050565b611c9781611c79565b82525050565b5f819050919050565b611caf81611c9d565b82525050565b5f60a082019050611cc85f830188611c8e565b611cd56020830187611ca6565b611ce26040830186611ca6565b611cef6060830185611ca6565b611cfc6080830184611c8e565b9695505050505050565b5f81519050919050565b5f82825260208201905092915050565b8281835e5f83830152505050565b5f611d3882611d06565b611d428185611d10565b9350611d52818560208601611d20565b611d5b81611a5a565b840191505092915050565b5f6020820190508181035f830152611d7e8184611d2e565b905092915050565b5f602082019050611d995f830184611ca6565b92915050565b5f604082019050611db25f830185611c51565b611dbf6020830184611c51565b9392505050565b5f819050919050565b5f67ffffffffffffffff82169050919050565b5f819050919050565b5f611e05611e00611dfb84611dc6565b611de2565b611dcf565b9050919050565b611e1581611deb565b82525050565b5f602082019050611e2e5f830184611e0c565b92915050565b611e3d81611c79565b8114611e47575f5ffd5b50565b5f81519050611e5881611e34565b92915050565b611e6781611c9d565b8114611e71575f5ffd5b50565b5f81519050611e8281611e5e565b92915050565b5f5f5f5f5f60a08688031215611ea157611ea0611879565b5b5f611eae88828901611e4a565b9550506020611ebf88828901611e74565b9450506040611ed088828901611e74565b9350506060611ee188828901611e74565b9250506080611ef288828901611e4a565b9150509295509295909350565b5f60ff82169050919050565b611f1481611eff565b8114611f1e575f5ffd5b50565b5f81519050611f2f81611f0b565b92915050565b5f60208284031215611f4a57611f49611879565b5b5f611f5784828501611f21565b91505092915050565b5f81519050611f6e8161193d565b92915050565b5f60208284031215611f8957611f88611879565b5b5f611f9684828501611f60565b91505092915050565b5f604082019050611fb25f830185611c51565b611fbf6020830184611992565b9392505050565b5f81519050919050565b5f81905092915050565b5f611fe482611fc6565b611fee8185611fd0565b9350611ffe818560208601611d20565b80840191505092915050565b5f6120158284611fda565b91508190509291505056fea2646970667358221220409449ebeb201d86c1668ba7bb2bcb319567d42a4baff7cbe3eeda7e0abfa17264736f6c634300081e0033","linkReferences":{}},"methodIdentifiers":{"DEFAULT_ADMIN_ROLE()":"a217fddf","OWNER_ROLE()":"e58378bb","UPGRADER_ROLE()":"f72c0d8b","UPGRADE_INTERFACE_VERSION()":"ad3cb1cc","decimals(address)":"d449a832","getRoleAdmin(bytes32)":"248a9ca3","grantRole(bytes32,address)":"2f2ff15d","hasRole(bytes32,address)":"91d14854","initialize()":"8129fc1c","latestRoundData(address)":"a13cc76a","paused()":"5c975abb","proxiableUUID()":"52d1902d","renounceRole(bytes32,address)":"36568abe","revokeRole(bytes32,address)":"d547741f","setTokenPriceFeed(address,address)":"674417ae","supportsInterface(bytes4)":"01ffc9a7","tokenPriceFeed(address)":"9878cbb3","upgradeToAndCall(address,bytes)":"4f1ef286"},"id":188}