{"abi":[{"type":"constructor","inputs":[{"name":"_token","type":"address","internalType":"address"},{"name":"_elevatedMinterBurner","type":"address","internalType":"address"},{"name":"_lzEndpoint","type":"address","internalType":"address"},{"name":"_owner","type":"address","internalType":"address"},{"name":"_sharedDecimals","type":"uint8","internalType":"uint8"}],"stateMutability":"nonpayable"},{"type":"function","name":"SEND","inputs":[],"outputs":[{"name":"","type":"uint16","internalType":"uint16"}],"stateMutability":"view"},{"type":"function","name":"SEND_AND_CALL","inputs":[],"outputs":[{"name":"","type":"uint16","internalType":"uint16"}],"stateMutability":"view"},{"type":"function","name":"SETTLEMENT_CHAIN_ID","inputs":[],"outputs":[{"name":"","type":"uint256","internalType":"uint256"}],"stateMutability":"view"},{"type":"function","name":"_SHAREDDECIMALS","inputs":[],"outputs":[{"name":"","type":"uint8","internalType":"uint8"}],"stateMutability":"view"},{"type":"function","name":"allowInitializePath","inputs":[{"name":"origin","type":"tuple","internalType":"struct Origin","components":[{"name":"srcEid","type":"uint32","internalType":"uint32"},{"name":"sender","type":"bytes32","internalType":"bytes32"},{"name":"nonce","type":"uint64","internalType":"uint64"}]}],"outputs":[{"name":"","type":"bool","internalType":"bool"}],"stateMutability":"view"},{"type":"function","name":"approvalRequired","inputs":[],"outputs":[{"name":"","type":"bool","internalType":"bool"}],"stateMutability":"pure"},{"type":"function","name":"combineOptions","inputs":[{"name":"_eid","type":"uint32","internalType":"uint32"},{"name":"_msgType","type":"uint16","internalType":"uint16"},{"name":"_extraOptions","type":"bytes","internalType":"bytes"}],"outputs":[{"name":"","type":"bytes","internalType":"bytes"}],"stateMutability":"view"},{"type":"function","name":"decimalConversionRate","inputs":[],"outputs":[{"name":"","type":"uint256","internalType":"uint256"}],"stateMutability":"view"},{"type":"function","name":"elevatedMinterBurner","inputs":[],"outputs":[{"name":"","type":"address","internalType":"address"}],"stateMutability":"view"},{"type":"function","name":"endpoint","inputs":[],"outputs":[{"name":"","type":"address","internalType":"contract ILayerZeroEndpointV2"}],"stateMutability":"view"},{"type":"function","name":"enforcedOptions","inputs":[{"name":"eid","type":"uint32","internalType":"uint32"},{"name":"msgType","type":"uint16","internalType":"uint16"}],"outputs":[{"name":"enforcedOption","type":"bytes","internalType":"bytes"}],"stateMutability":"view"},{"type":"function","name":"isComposeMsgSender","inputs":[{"name":"","type":"tuple","internalType":"struct Origin","components":[{"name":"srcEid","type":"uint32","internalType":"uint32"},{"name":"sender","type":"bytes32","internalType":"bytes32"},{"name":"nonce","type":"uint64","internalType":"uint64"}]},{"name":"","type":"bytes","internalType":"bytes"},{"name":"_sender","type":"address","internalType":"address"}],"outputs":[{"name":"","type":"bool","internalType":"bool"}],"stateMutability":"view"},{"type":"function","name":"isPeer","inputs":[{"name":"_eid","type":"uint32","internalType":"uint32"},{"name":"_peer","type":"bytes32","internalType":"bytes32"}],"outputs":[{"name":"","type":"bool","internalType":"bool"}],"stateMutability":"view"},{"type":"function","name":"lzReceive","inputs":[{"name":"_origin","type":"tuple","internalType":"struct Origin","components":[{"name":"srcEid","type":"uint32","internalType":"uint32"},{"name":"sender","type":"bytes32","internalType":"bytes32"},{"name":"nonce","type":"uint64","internalType":"uint64"}]},{"name":"_guid","type":"bytes32","internalType":"bytes32"},{"name":"_message","type":"bytes","internalType":"bytes"},{"name":"_executor","type":"address","internalType":"address"},{"name":"_extraData","type":"bytes","internalType":"bytes"}],"outputs":[],"stateMutability":"payable"},{"type":"function","name":"lzReceiveAndRevert","inputs":[{"name":"_packets","type":"tuple[]","internalType":"struct InboundPacket[]","components":[{"name":"origin","type":"tuple","internalType":"struct Origin","components":[{"name":"srcEid","type":"uint32","internalType":"uint32"},{"name":"sender","type":"bytes32","internalType":"bytes32"},{"name":"nonce","type":"uint64","internalType":"uint64"}]},{"name":"dstEid","type":"uint32","internalType":"uint32"},{"name":"receiver","type":"address","internalType":"address"},{"name":"guid","type":"bytes32","internalType":"bytes32"},{"name":"value","type":"uint256","internalType":"uint256"},{"name":"executor","type":"address","internalType":"address"},{"name":"message","type":"bytes","internalType":"bytes"},{"name":"extraData","type":"bytes","internalType":"bytes"}]}],"outputs":[],"stateMutability":"payable"},{"type":"function","name":"lzReceiveSimulate","inputs":[{"name":"_origin","type":"tuple","internalType":"struct Origin","components":[{"name":"srcEid","type":"uint32","internalType":"uint32"},{"name":"sender","type":"bytes32","internalType":"bytes32"},{"name":"nonce","type":"uint64","internalType":"uint64"}]},{"name":"_guid","type":"bytes32","internalType":"bytes32"},{"name":"_message","type":"bytes","internalType":"bytes"},{"name":"_executor","type":"address","internalType":"address"},{"name":"_extraData","type":"bytes","internalType":"bytes"}],"outputs":[],"stateMutability":"payable"},{"type":"function","name":"msgInspector","inputs":[],"outputs":[{"name":"","type":"address","internalType":"address"}],"stateMutability":"view"},{"type":"function","name":"nextNonce","inputs":[{"name":"","type":"uint32","internalType":"uint32"},{"name":"","type":"bytes32","internalType":"bytes32"}],"outputs":[{"name":"nonce","type":"uint64","internalType":"uint64"}],"stateMutability":"view"},{"type":"function","name":"oApp","inputs":[],"outputs":[{"name":"","type":"address","internalType":"address"}],"stateMutability":"view"},{"type":"function","name":"oAppVersion","inputs":[],"outputs":[{"name":"senderVersion","type":"uint64","internalType":"uint64"},{"name":"receiverVersion","type":"uint64","internalType":"uint64"}],"stateMutability":"pure"},{"type":"function","name":"oftVersion","inputs":[],"outputs":[{"name":"interfaceId","type":"bytes4","internalType":"bytes4"},{"name":"version","type":"uint64","internalType":"uint64"}],"stateMutability":"pure"},{"type":"function","name":"owner","inputs":[],"outputs":[{"name":"","type":"address","internalType":"address"}],"stateMutability":"view"},{"type":"function","name":"peers","inputs":[{"name":"eid","type":"uint32","internalType":"uint32"}],"outputs":[{"name":"peer","type":"bytes32","internalType":"bytes32"}],"stateMutability":"view"},{"type":"function","name":"preCrime","inputs":[],"outputs":[{"name":"","type":"address","internalType":"address"}],"stateMutability":"view"},{"type":"function","name":"quoteOFT","inputs":[{"name":"_sendParam","type":"tuple","internalType":"struct SendParam","components":[{"name":"dstEid","type":"uint32","internalType":"uint32"},{"name":"to","type":"bytes32","internalType":"bytes32"},{"name":"amountLD","type":"uint256","internalType":"uint256"},{"name":"minAmountLD","type":"uint256","internalType":"uint256"},{"name":"extraOptions","type":"bytes","internalType":"bytes"},{"name":"composeMsg","type":"bytes","internalType":"bytes"},{"name":"oftCmd","type":"bytes","internalType":"bytes"}]}],"outputs":[{"name":"oftLimit","type":"tuple","internalType":"struct OFTLimit","components":[{"name":"minAmountLD","type":"uint256","internalType":"uint256"},{"name":"maxAmountLD","type":"uint256","internalType":"uint256"}]},{"name":"oftFeeDetails","type":"tuple[]","internalType":"struct OFTFeeDetail[]","components":[{"name":"feeAmountLD","type":"int256","internalType":"int256"},{"name":"description","type":"string","internalType":"string"}]},{"name":"oftReceipt","type":"tuple","internalType":"struct OFTReceipt","components":[{"name":"amountSentLD","type":"uint256","internalType":"uint256"},{"name":"amountReceivedLD","type":"uint256","internalType":"uint256"}]}],"stateMutability":"view"},{"type":"function","name":"quoteSend","inputs":[{"name":"_sendParam","type":"tuple","internalType":"struct SendParam","components":[{"name":"dstEid","type":"uint32","internalType":"uint32"},{"name":"to","type":"bytes32","internalType":"bytes32"},{"name":"amountLD","type":"uint256","internalType":"uint256"},{"name":"minAmountLD","type":"uint256","internalType":"uint256"},{"name":"extraOptions","type":"bytes","internalType":"bytes"},{"name":"composeMsg","type":"bytes","internalType":"bytes"},{"name":"oftCmd","type":"bytes","internalType":"bytes"}]},{"name":"_payInLzToken","type":"bool","internalType":"bool"}],"outputs":[{"name":"msgFee","type":"tuple","internalType":"struct MessagingFee","components":[{"name":"nativeFee","type":"uint256","internalType":"uint256"},{"name":"lzTokenFee","type":"uint256","internalType":"uint256"}]}],"stateMutability":"view"},{"type":"function","name":"renounceOwnership","inputs":[],"outputs":[],"stateMutability":"nonpayable"},{"type":"function","name":"send","inputs":[{"name":"_sendParam","type":"tuple","internalType":"struct SendParam","components":[{"name":"dstEid","type":"uint32","internalType":"uint32"},{"name":"to","type":"bytes32","internalType":"bytes32"},{"name":"amountLD","type":"uint256","internalType":"uint256"},{"name":"minAmountLD","type":"uint256","internalType":"uint256"},{"name":"extraOptions","type":"bytes","internalType":"bytes"},{"name":"composeMsg","type":"bytes","internalType":"bytes"},{"name":"oftCmd","type":"bytes","internalType":"bytes"}]},{"name":"_fee","type":"tuple","internalType":"struct MessagingFee","components":[{"name":"nativeFee","type":"uint256","internalType":"uint256"},{"name":"lzTokenFee","type":"uint256","internalType":"uint256"}]},{"name":"_refundAddress","type":"address","internalType":"address"}],"outputs":[{"name":"msgReceipt","type":"tuple","internalType":"struct MessagingReceipt","components":[{"name":"guid","type":"bytes32","internalType":"bytes32"},{"name":"nonce","type":"uint64","internalType":"uint64"},{"name":"fee","type":"tuple","internalType":"struct MessagingFee","components":[{"name":"nativeFee","type":"uint256","internalType":"uint256"},{"name":"lzTokenFee","type":"uint256","internalType":"uint256"}]}]},{"name":"oftReceipt","type":"tuple","internalType":"struct OFTReceipt","components":[{"name":"amountSentLD","type":"uint256","internalType":"uint256"},{"name":"amountReceivedLD","type":"uint256","internalType":"uint256"}]}],"stateMutability":"payable"},{"type":"function","name":"setDelegate","inputs":[{"name":"_delegate","type":"address","internalType":"address"}],"outputs":[],"stateMutability":"nonpayable"},{"type":"function","name":"setElevatedMinterBurner","inputs":[{"name":"_elevatedMinterBurner","type":"address","internalType":"address"}],"outputs":[],"stateMutability":"nonpayable"},{"type":"function","name":"setEnforcedOptions","inputs":[{"name":"_enforcedOptions","type":"tuple[]","internalType":"struct EnforcedOptionParam[]","components":[{"name":"eid","type":"uint32","internalType":"uint32"},{"name":"msgType","type":"uint16","internalType":"uint16"},{"name":"options","type":"bytes","internalType":"bytes"}]}],"outputs":[],"stateMutability":"nonpayable"},{"type":"function","name":"setMsgInspector","inputs":[{"name":"_msgInspector","type":"address","internalType":"address"}],"outputs":[],"stateMutability":"nonpayable"},{"type":"function","name":"setPeer","inputs":[{"name":"_eid","type":"uint32","internalType":"uint32"},{"name":"_peer","type":"bytes32","internalType":"bytes32"}],"outputs":[],"stateMutability":"nonpayable"},{"type":"function","name":"setPreCrime","inputs":[{"name":"_preCrime","type":"address","internalType":"address"}],"outputs":[],"stateMutability":"nonpayable"},{"type":"function","name":"sharedDecimals","inputs":[],"outputs":[{"name":"","type":"uint8","internalType":"uint8"}],"stateMutability":"view"},{"type":"function","name":"token","inputs":[],"outputs":[{"name":"","type":"address","internalType":"address"}],"stateMutability":"view"},{"type":"function","name":"tokenOft","inputs":[],"outputs":[{"name":"","type":"address","internalType":"address"}],"stateMutability":"view"},{"type":"function","name":"transferOwnership","inputs":[{"name":"newOwner","type":"address","internalType":"address"}],"outputs":[],"stateMutability":"nonpayable"},{"type":"event","name":"Credit","inputs":[{"name":"to","type":"address","indexed":false,"internalType":"address"},{"name":"amount","type":"uint256","indexed":false,"internalType":"uint256"}],"anonymous":false},{"type":"event","name":"Debit","inputs":[{"name":"from","type":"address","indexed":false,"internalType":"address"},{"name":"amount","type":"uint256","indexed":false,"internalType":"uint256"}],"anonymous":false},{"type":"event","name":"EnforcedOptionSet","inputs":[{"name":"_enforcedOptions","type":"tuple[]","indexed":false,"internalType":"struct EnforcedOptionParam[]","components":[{"name":"eid","type":"uint32","internalType":"uint32"},{"name":"msgType","type":"uint16","internalType":"uint16"},{"name":"options","type":"bytes","internalType":"bytes"}]}],"anonymous":false},{"type":"event","name":"MsgInspectorSet","inputs":[{"name":"inspector","type":"address","indexed":false,"internalType":"address"}],"anonymous":false},{"type":"event","name":"OFTReceived","inputs":[{"name":"guid","type":"bytes32","indexed":true,"internalType":"bytes32"},{"name":"srcEid","type":"uint32","indexed":false,"internalType":"uint32"},{"name":"toAddress","type":"address","indexed":true,"internalType":"address"},{"name":"amountReceivedLD","type":"uint256","indexed":false,"internalType":"uint256"}],"anonymous":false},{"type":"event","name":"OFTSent","inputs":[{"name":"guid","type":"bytes32","indexed":true,"internalType":"bytes32"},{"name":"dstEid","type":"uint32","indexed":false,"internalType":"uint32"},{"name":"fromAddress","type":"address","indexed":true,"internalType":"address"},{"name":"amountSentLD","type":"uint256","indexed":false,"internalType":"uint256"},{"name":"amountReceivedLD","type":"uint256","indexed":false,"internalType":"uint256"}],"anonymous":false},{"type":"event","name":"OwnershipTransferred","inputs":[{"name":"previousOwner","type":"address","indexed":true,"internalType":"address"},{"name":"newOwner","type":"address","indexed":true,"internalType":"address"}],"anonymous":false},{"type":"event","name":"PeerSet","inputs":[{"name":"eid","type":"uint32","indexed":false,"internalType":"uint32"},{"name":"peer","type":"bytes32","indexed":false,"internalType":"bytes32"}],"anonymous":false},{"type":"event","name":"PreCrimeSet","inputs":[{"name":"preCrimeAddress","type":"address","indexed":false,"internalType":"address"}],"anonymous":false},{"type":"error","name":"AmountSDOverflowed","inputs":[{"name":"amountSD","type":"uint256","internalType":"uint256"}]},{"type":"error","name":"InsufficientBalance","inputs":[]},{"type":"error","name":"InvalidDelegate","inputs":[]},{"type":"error","name":"InvalidEndpointCall","inputs":[]},{"type":"error","name":"InvalidLocalDecimals","inputs":[]},{"type":"error","name":"InvalidOptions","inputs":[{"name":"options","type":"bytes","internalType":"bytes"}]},{"type":"error","name":"LzTokenUnavailable","inputs":[]},{"type":"error","name":"NoPeer","inputs":[{"name":"eid","type":"uint32","internalType":"uint32"}]},{"type":"error","name":"NotEnoughNative","inputs":[{"name":"msgValue","type":"uint256","internalType":"uint256"}]},{"type":"error","name":"OnlyEndpoint","inputs":[{"name":"addr","type":"address","internalType":"address"}]},{"type":"error","name":"OnlyPeer","inputs":[{"name":"eid","type":"uint32","internalType":"uint32"},{"name":"sender","type":"bytes32","internalType":"bytes32"}]},{"type":"error","name":"OnlySelf","inputs":[]},{"type":"error","name":"OwnableInvalidOwner","inputs":[{"name":"owner","type":"address","internalType":"address"}]},{"type":"error","name":"OwnableUnauthorizedAccount","inputs":[{"name":"account","type":"address","internalType":"address"}]},{"type":"error","name":"ReentrancyGuardReentrantCall","inputs":[]},{"type":"error","name":"SafeERC20FailedOperation","inputs":[{"name":"token","type":"address","internalType":"address"}]},{"type":"error","name":"SimulationResult","inputs":[{"name":"result","type":"bytes","internalType":"bytes"}]},{"type":"error","name":"SlippageExceeded","inputs":[{"name":"amountLD","type":"uint256","internalType":"uint256"},{"name":"minAmountLD","type":"uint256","internalType":"uint256"}]}],"bytecode":{"object":"0x610100604052348015610010575f5ffd5b50604051615370380380615370833981810160405281019061003291906104df565b8483838273ffffffffffffffffffffffffffffffffffffffff1663313ce5676040518163ffffffff1660e01b8152600401602060405180830381865afa15801561007e573d5f5f3e3d5ffd5b505050506040513d601f19601f820116820180604052508101906100a29190610556565b8282818181818b5f73ffffffffffffffffffffffffffffffffffffffff168173ffffffffffffffffffffffffffffffffffffffff1603610119575f6040517f1e4fbdf70000000000000000000000000000000000000000000000000000000081526004016101109190610590565b60405180910390fd5b6101288161038160201b60201c565b508173ffffffffffffffffffffffffffffffffffffffff1660808173ffffffffffffffffffffffffffffffffffffffff16815250505f73ffffffffffffffffffffffffffffffffffffffff168173ffffffffffffffffffffffffffffffffffffffff16036101c2576040517fb586360400000000000000000000000000000000000000000000000000000000815260040160405180910390fd5b60805173ffffffffffffffffffffffffffffffffffffffff1663ca5eb5e1826040518263ffffffff1660e01b81526004016101fd9190610590565b5f604051808303815f87803b158015610214575f5ffd5b505af1158015610226573d5f5f3e3d5ffd5b505050505050505061023c61044260201b60201c565b60ff168360ff16101561027b576040517f1e9714b000000000000000000000000000000000000000000000000000000000815260040160405180910390fd5b61028961044260201b60201c565b8361029491906105d6565b600a6102a09190610742565b60a081815250505050508273ffffffffffffffffffffffffffffffffffffffff1660c08173ffffffffffffffffffffffffffffffffffffffff168152505050505060016005819055508460065f6101000a81548173ffffffffffffffffffffffffffffffffffffffff021916908373ffffffffffffffffffffffffffffffffffffffff1602179055508360075f6101000a81548173ffffffffffffffffffffffffffffffffffffffff021916908373ffffffffffffffffffffffffffffffffffffffff1602179055508060ff1660e08160ff1681525050505050505061078c565b5f5f5f9054906101000a900473ffffffffffffffffffffffffffffffffffffffff169050815f5f6101000a81548173ffffffffffffffffffffffffffffffffffffffff021916908373ffffffffffffffffffffffffffffffffffffffff1602179055508173ffffffffffffffffffffffffffffffffffffffff168173ffffffffffffffffffffffffffffffffffffffff167f8be0079c531659141344cd1fd0a4f28419497f9722a3daafe3b4186f6b6457e060405160405180910390a35050565b5f60e051905090565b5f5ffd5b5f73ffffffffffffffffffffffffffffffffffffffff82169050919050565b5f6104788261044f565b9050919050565b6104888161046e565b8114610492575f5ffd5b50565b5f815190506104a38161047f565b92915050565b5f60ff82169050919050565b6104be816104a9565b81146104c8575f5ffd5b50565b5f815190506104d9816104b5565b92915050565b5f5f5f5f5f60a086880312156104f8576104f761044b565b5b5f61050588828901610495565b955050602061051688828901610495565b945050604061052788828901610495565b935050606061053888828901610495565b9250506080610549888289016104cb565b9150509295509295909350565b5f6020828403121561056b5761056a61044b565b5b5f610578848285016104cb565b91505092915050565b61058a8161046e565b82525050565b5f6020820190506105a35f830184610581565b92915050565b7f4e487b71000000000000000000000000000000000000000000000000000000005f52601160045260245ffd5b5f6105e0826104a9565b91506105eb836104a9565b9250828203905060ff811115610604576106036105a9565b5b92915050565b5f8160011c9050919050565b5f5f8291508390505b600185111561065f5780860481111561063b5761063a6105a9565b5b600185161561064a5780820291505b80810290506106588561060a565b945061061f565b94509492505050565b5f826106775760019050610732565b81610684575f9050610732565b816001811461069a57600281146106a4576106d3565b6001915050610732565b60ff8411156106b6576106b56105a9565b5b8360020a9150848211156106cd576106cc6105a9565b5b50610732565b5060208310610133831016604e8410600b84101617156107085782820a905083811115610703576107026105a9565b5b610732565b6107158484846001610616565b9250905081840481111561072c5761072b6105a9565b5b81810290505b9392505050565b5f819050919050565b5f61074c82610739565b9150610757836104a9565b92506107847fffffffffffffffffffffffffffffffffffffffffffffffffffffffffffffffff8484610668565b905092915050565b60805160a05160c05160e051614b5d6108135f395f8181610e79015261139001525f6115ee01525f8181610ec601528181611f5301528181611f7401528181612018015261234c01525f8181610ab401528181610d56015281816113bc015281816117b001528181611b2a015281816126ce015281816129230152612a1b0152614b5d5ff3fe608060405260043610610224575f3560e01c8063857749b011610122578063bd815db0116100aa578063d045a0dc1161006e578063d045a0dc146107f3578063d42438851461080f578063f2fde38b14610837578063fc0c546a1461085f578063ff7bd03d1461088957610224565b8063bd815db01461072a578063c7c7f5b314610746578063c9af869214610777578063ca5eb5e1146107a1578063ccae6664146107c957610224565b8063b731ea0a116100f1578063b731ea0a14610638578063b98bd07014610662578063bb0b6a531461068a578063bc4565c4146106c6578063bc70b354146106ee57610224565b8063857749b0146105905780638da5cb5b146105ba578063963efcaa146105e45780639f68b9641461060e57610224565b80633b6f743b116101b05780636fc1b31e116101745780636fc1b31e146104b0578063715018a6146104d85780637d25a05e146104ee5780638108bb7e1461052a57806382413eac1461055457610224565b80633b6f743b146103a857806352ae2879146103e45780635535d4611461040e5780635a0dfe4d1461044a5780635e280f111461048657610224565b8063134d4f25116101f7578063134d4f25146102d6578063156a0d0f1461030057806317442b701461032b5780631f5e1334146103565780633400288b1461038057610224565b8063017c25a7146102285780630d35b41514610252578063111ecdad1461029057806313137d65146102ba575b5f5ffd5b348015610233575f5ffd5b5061023c6108c5565b6040516102499190612ba9565b60405180910390f35b34801561025d575f5ffd5b5061027860048036038101906102739190612bf5565b6108cb565b60405161028793929190612e22565b60405180910390f35b34801561029b575f5ffd5b506102a4610a76565b6040516102b19190612e9d565b60405180910390f35b6102d460048036038101906102cf9190612f92565b610a9b565b005b3480156102e1575f5ffd5b506102ea610bbb565b6040516102f79190613065565b60405180910390f35b34801561030b575f5ffd5b50610314610bc0565b6040516103229291906130da565b60405180910390f35b348015610336575f5ffd5b5061033f610bed565b60405161034d929190613101565b60405180910390f35b348015610361575f5ffd5b5061036a610bfb565b6040516103779190613065565b60405180910390f35b34801561038b575f5ffd5b506103a660048036038101906103a19190613161565b610c00565b005b3480156103b3575f5ffd5b506103ce60048036038101906103c991906131d4565b610c16565b6040516103db919061325b565b60405180910390f35b3480156103ef575f5ffd5b506103f8610c7e565b6040516104059190612e9d565b60405180910390f35b348015610419575f5ffd5b50610434600480360381019061042f919061329e565b610c85565b604051610441919061332e565b60405180910390f35b348015610455575f5ffd5b50610470600480360381019061046b9190613161565b610d2b565b60405161047d919061335d565b60405180910390f35b348015610491575f5ffd5b5061049a610d54565b6040516104a791906133d1565b60405180910390f35b3480156104bb575f5ffd5b506104d660048036038101906104d191906133ea565b610d78565b005b3480156104e3575f5ffd5b506104ec610dfa565b005b3480156104f9575f5ffd5b50610514600480360381019061050f9190613161565b610e0d565b6040516105219190613415565b60405180910390f35b348015610535575f5ffd5b5061053e610e17565b60405161054b9190612e9d565b60405180910390f35b34801561055f575f5ffd5b5061057a6004803603810190610575919061342e565b610e3c565b604051610587919061335d565b60405180910390f35b34801561059b575f5ffd5b506105a4610e76565b6040516105b191906134ba565b60405180910390f35b3480156105c5575f5ffd5b506105ce610e9d565b6040516105db9190612e9d565b60405180910390f35b3480156105ef575f5ffd5b506105f8610ec4565b6040516106059190612ba9565b60405180910390f35b348015610619575f5ffd5b50610622610ee8565b60405161062f919061335d565b60405180910390f35b348015610643575f5ffd5b5061064c610ef0565b6040516106599190612e9d565b60405180910390f35b34801561066d575f5ffd5b5061068860048036038101906106839190613528565b610f15565b005b348015610695575f5ffd5b506106b060048036038101906106ab9190613573565b610f36565b6040516106bd91906135ad565b60405180910390f35b3480156106d1575f5ffd5b506106ec60048036038101906106e791906133ea565b610f4b565b005b3480156106f9575f5ffd5b50610714600480360381019061070f91906135c6565b610f96565b604051610721919061332e565b60405180910390f35b610744600480360381019061073f919061368c565b611198565b005b610760600480360381019061075b91906136f5565b611367565b60405161076e9291906137ec565b60405180910390f35b348015610782575f5ffd5b5061078b61138e565b60405161079891906134ba565b60405180910390f35b3480156107ac575f5ffd5b506107c760048036038101906107c291906133ea565b6113b2565b005b3480156107d4575f5ffd5b506107dd611443565b6040516107ea9190612e9d565b60405180910390f35b61080d60048036038101906108089190612f92565b611468565b005b34801561081a575f5ffd5b50610835600480360381019061083091906133ea565b6114e5565b005b348015610842575f5ffd5b5061085d600480360381019061085891906133ea565b611567565b005b34801561086a575f5ffd5b506108736115eb565b6040516108809190612e9d565b60405180910390f35b348015610894575f5ffd5b506108af60048036038101906108aa9190613813565b611612565b6040516108bc919061335d565b60405180910390f35b61138b81565b6108d3612b01565b60606108dd612b19565b5f5f90505f3073ffffffffffffffffffffffffffffffffffffffff1663fc0c546a6040518163ffffffff1660e01b8152600401602060405180830381865afa15801561092b573d5f5f3e3d5ffd5b505050506040513d601f19601f8201168201806040525081019061094f9190613852565b73ffffffffffffffffffffffffffffffffffffffff166318160ddd6040518163ffffffff1660e01b8152600401602060405180830381865afa158015610997573d5f5f3e3d5ffd5b505050506040513d601f19601f820116820180604052508101906109bb91906138a7565b905060405180604001604052808381526020018281525094505f67ffffffffffffffff8111156109ee576109ed6138d2565b5b604051908082528060200260200182016040528015610a2757816020015b610a14612b31565b815260200190600190039081610a0c5790505b5093505f5f610a50886040013589606001358a5f016020810190610a4b9190613573565b61164f565b915091506040518060400160405280838152602001828152509450505050509193909250565b60045f9054906101000a900473ffffffffffffffffffffffffffffffffffffffff1681565b3373ffffffffffffffffffffffffffffffffffffffff167f000000000000000000000000000000000000000000000000000000000000000073ffffffffffffffffffffffffffffffffffffffff1614610b2b57336040517f91ac5e4f000000000000000000000000000000000000000000000000000000008152600401610b229190612e9d565b60405180910390fd5b8660200135610b4a885f016020810190610b459190613573565b6116ae565b14610ba357865f016020810190610b619190613573565b87602001356040517fc26bebcc000000000000000000000000000000000000000000000000000000008152600401610b9a92919061390e565b60405180910390fd5b610bb28787878787878761171f565b50505050505050565b600281565b5f5f7f02e49c2c000000000000000000000000000000000000000000000000000000006001915091509091565b5f5f60016002915091509091565b600181565b610c086118a9565b610c128282611930565b5050565b610c1e612b4a565b5f610c4384604001358560600135865f016020810190610c3e9190613573565b61164f565b9150505f5f610c52868461198f565b91509150610c73865f016020810190610c6b9190613573565b838388611b20565b935050505092915050565b5f30905090565b6003602052815f5260405f20602052805f5260405f205f91509150508054610cac90613962565b80601f0160208091040260200160405190810160405280929190818152602001828054610cd890613962565b8015610d235780601f10610cfa57610100808354040283529160200191610d23565b820191905f5260205f20905b815481529060010190602001808311610d0657829003601f168201915b505050505081565b5f8160015f8563ffffffff1663ffffffff1681526020019081526020015f205414905092915050565b7f000000000000000000000000000000000000000000000000000000000000000081565b610d806118a9565b8060045f6101000a81548173ffffffffffffffffffffffffffffffffffffffff021916908373ffffffffffffffffffffffffffffffffffffffff1602179055507ff0be4f1e87349231d80c36b33f9e8639658eeaf474014dee15a3e6a4d441419781604051610def9190612e9d565b60405180910390a150565b610e026118a9565b610e0b5f611c01565b565b5f5f905092915050565b60075f9054906101000a900473ffffffffffffffffffffffffffffffffffffffff1681565b5f3073ffffffffffffffffffffffffffffffffffffffff168273ffffffffffffffffffffffffffffffffffffffff16149050949350505050565b5f7f0000000000000000000000000000000000000000000000000000000000000000905090565b5f5f5f9054906101000a900473ffffffffffffffffffffffffffffffffffffffff16905090565b7f000000000000000000000000000000000000000000000000000000000000000081565b5f6001905090565b60025f9054906101000a900473ffffffffffffffffffffffffffffffffffffffff1681565b610f1d6118a9565b610f32828290610f2d9190613bc3565b611cc2565b5050565b6001602052805f5260405f205f915090505481565b610f536118a9565b8060075f6101000a81548173ffffffffffffffffffffffffffffffffffffffff021916908373ffffffffffffffffffffffffffffffffffffffff16021790555050565b60605f60035f8763ffffffff1663ffffffff1681526020019081526020015f205f8661ffff1661ffff1681526020019081526020015f208054610fd890613962565b80601f016020809104026020016040519081016040528092919081815260200182805461100490613962565b801561104f5780601f106110265761010080835404028352916020019161104f565b820191905f5260205f20905b81548152906001019060200180831161103257829003601f168201915b505050505090505f8151036110aa5783838080601f0160208091040260200160405190810160405280939291908181526020018383808284375f81840152601f19601f82011690508083019250505050505050915050611190565b5f84849050036110bd5780915050611190565b600284849050106111515761111484848080601f0160208091040260200160405190810160405280939291908181526020018383808284375f81840152601f19601f82011690508083019250505050505050611dda565b808484600290809261112893929190613bdf565b60405160200161113a93929190613c77565b604051602081830303815290604052915050611190565b83836040517f9a6d49cd000000000000000000000000000000000000000000000000000000008152600401611187929190613cc8565b60405180910390fd5b949350505050565b5f5f90505b828290508110156112ba57368383838181106111bc576111bb613cea565b5b90506020028101906111ce9190613d23565b90506111f3815f015f0160208101906111e79190613573565b825f0160200135610d2b565b6111fd57506112ad565b3073ffffffffffffffffffffffffffffffffffffffff1663d045a0dc8260c00135835f018460a00135858061010001906112379190613d4b565b8760e001602081019061124a91906133ea565b8880610120019061125b9190613d4b565b6040518963ffffffff1660e01b815260040161127d9796959493929190613e80565b5f604051808303818588803b158015611294575f5ffd5b505af11580156112a6573d5f5f3e3d5ffd5b5050505050505b808060010191505061119d565b503373ffffffffffffffffffffffffffffffffffffffff16638e9e70996040518163ffffffff1660e01b81526004015f60405180830381865afa158015611303573d5f5f3e3d5ffd5b505050506040513d5f823e3d601f19601f8201168201806040525081019061132b9190613f51565b6040517f8351eea700000000000000000000000000000000000000000000000000000000815260040161135e919061332e565b60405180910390fd5b61136f612b62565b611377612b19565b611382858585611e33565b91509150935093915050565b7f000000000000000000000000000000000000000000000000000000000000000081565b6113ba6118a9565b7f000000000000000000000000000000000000000000000000000000000000000073ffffffffffffffffffffffffffffffffffffffff1663ca5eb5e1826040518263ffffffff1660e01b81526004016114139190612e9d565b5f604051808303815f87803b15801561142a575f5ffd5b505af115801561143c573d5f5f3e3d5ffd5b5050505050565b60065f9054906101000a900473ffffffffffffffffffffffffffffffffffffffff1681565b3073ffffffffffffffffffffffffffffffffffffffff163373ffffffffffffffffffffffffffffffffffffffff16146114cd576040517f14d4a4e800000000000000000000000000000000000000000000000000000000815260040160405180910390fd5b6114dc87878787878787611f38565b50505050505050565b6114ed6118a9565b8060025f6101000a81548173ffffffffffffffffffffffffffffffffffffffff021916908373ffffffffffffffffffffffffffffffffffffffff1602179055507fd48d879cef83a1c0bdda516f27b13ddb1b3f8bbac1c9e1511bb2a659c24277608160405161155c9190612e9d565b60405180910390a150565b61156f6118a9565b5f73ffffffffffffffffffffffffffffffffffffffff168173ffffffffffffffffffffffffffffffffffffffff16036115df575f6040517f1e4fbdf70000000000000000000000000000000000000000000000000000000081526004016115d69190612e9d565b60405180910390fd5b6115e881611c01565b50565b5f7f0000000000000000000000000000000000000000000000000000000000000000905090565b5f816020013560015f845f01602081019061162d9190613573565b63ffffffff1663ffffffff1681526020019081526020015f2054149050919050565b5f5f61165a85611f50565b9150819050838110156116a65780846040517f71c4efed00000000000000000000000000000000000000000000000000000000815260040161169d929190613f98565b60405180910390fd5b935093915050565b5f5f60015f8463ffffffff1663ffffffff1681526020019081526020015f205490505f5f1b810361171657826040517ff6ff4fb700000000000000000000000000000000000000000000000000000000815260040161170d9190613fbf565b60405180910390fd5b80915050919050565b5f61173261172d8787611faf565b611fd9565b90505f6117628261174b6117468a8a611fe4565b612015565b8b5f01602081019061175d9190613573565b612053565b905061176e878761229a565b1561183c575f6117ac8a604001602081019061178a9190613fd8565b8b5f01602081019061179c9190613573565b846117a78c8c6122ad565b61230f565b90507f000000000000000000000000000000000000000000000000000000000000000073ffffffffffffffffffffffffffffffffffffffff16637cb59012848b5f856040518563ffffffff1660e01b815260040161180d949392919061403c565b5f604051808303815f87803b158015611824575f5ffd5b505af1158015611836573d5f5f3e3d5ffd5b50505050505b8173ffffffffffffffffffffffffffffffffffffffff16887fefed6d3500546b29533b128a29e3a94d70788727f0507505ac12eaf2e578fd9c8b5f0160208101906118879190613573565b84604051611896929190614086565b60405180910390a3505050505050505050565b6118b1612341565b73ffffffffffffffffffffffffffffffffffffffff166118cf610e9d565b73ffffffffffffffffffffffffffffffffffffffff161461192e576118f2612341565b6040517f118cdaa70000000000000000000000000000000000000000000000000000000081526004016119259190612e9d565b60405180910390fd5b565b8060015f8463ffffffff1663ffffffff1681526020019081526020015f20819055507f238399d427b947898edb290f5ff0f9109849b1c3ba196a42e35f00c50a54b98b828260405161198392919061390e565b60405180910390a15050565b6060805f6119fb85602001356119a486612348565b878060a001906119b49190613d4b565b8080601f0160208091040260200160405190810160405280939291908181526020018383808284375f81840152601f19601f820116905080830192505050505050506123d0565b80925081945050505f81611a10576001611a13565b60025b9050611a40865f016020810190611a2a9190613573565b82888060800190611a3b9190613d4b565b610f96565b92505f60045f9054906101000a900473ffffffffffffffffffffffffffffffffffffffff1690505f73ffffffffffffffffffffffffffffffffffffffff168173ffffffffffffffffffffffffffffffffffffffff1614611b16578073ffffffffffffffffffffffffffffffffffffffff1663043a78eb86866040518363ffffffff1660e01b8152600401611ad59291906140ad565b602060405180830381865afa158015611af0573d5f5f3e3d5ffd5b505050506040513d601f19601f82011682018060405250810190611b1491906140f6565b505b5050509250929050565b611b28612b4a565b7f000000000000000000000000000000000000000000000000000000000000000073ffffffffffffffffffffffffffffffffffffffff1663ddc28c586040518060a001604052808863ffffffff168152602001611b84896116ae565b8152602001878152602001868152602001851515815250306040518363ffffffff1660e01b8152600401611bb99291906141f2565b6040805180830381865afa158015611bd3573d5f5f3e3d5ffd5b505050506040513d601f19601f82011682018060405250810190611bf7919061426d565b9050949350505050565b5f5f5f9054906101000a900473ffffffffffffffffffffffffffffffffffffffff169050815f5f6101000a81548173ffffffffffffffffffffffffffffffffffffffff021916908373ffffffffffffffffffffffffffffffffffffffff1602179055508173ffffffffffffffffffffffffffffffffffffffff168173ffffffffffffffffffffffffffffffffffffffff167f8be0079c531659141344cd1fd0a4f28419497f9722a3daafe3b4186f6b6457e060405160405180910390a35050565b5f5f90505b8151811015611d9f57611cf7828281518110611ce657611ce5613cea565b5b602002602001015160400151611dda565b818181518110611d0a57611d09613cea565b5b60200260200101516040015160035f848481518110611d2c57611d2b613cea565b5b60200260200101515f015163ffffffff1663ffffffff1681526020019081526020015f205f848481518110611d6457611d63613cea565b5b60200260200101516020015161ffff1661ffff1681526020019081526020015f209081611d91919061442f565b508080600101915050611cc7565b507fbe4864a8e820971c0247f5992e2da559595f7bf076a21cb5928d443d2a13b67481604051611dcf9190614615565b60405180910390a150565b5f60028201519050600361ffff168161ffff1614611e2f57816040517f9a6d49cd000000000000000000000000000000000000000000000000000000008152600401611e26919061332e565b60405180910390fd5b5050565b611e3b612b62565b611e43612b19565b5f5f611e6a33886040013589606001358a5f016020810190611e659190613573565b61243e565b915091505f5f611e7a898461198f565b91509150611eac895f016020810190611e939190613573565b83838b803603810190611ea69190614696565b8b61269b565b955060405180604001604052808581526020018481525094503373ffffffffffffffffffffffffffffffffffffffff16865f01517f85496b760a4b7f8d66384b9df21b381f5d1b1e79f229a47aaf4c232edc2fe59a8b5f016020810190611f139190613573565b8787604051611f24939291906146c1565b60405180910390a350505050935093915050565b611f478787878787878761171f565b50505050505050565b5f7f00000000000000000000000000000000000000000000000000000000000000007f000000000000000000000000000000000000000000000000000000000000000083611f9e9190614750565b611fa89190614780565b9050919050565b5f82825f90602060ff1692611fc693929190613bdf565b90611fd191906147cb565b905092915050565b5f815f1c9050919050565b5f8282602060ff1690602860ff1692611fff93929190613bdf565b9061200a9190614854565b60c01c905092915050565b5f7f00000000000000000000000000000000000000000000000000000000000000008267ffffffffffffffff1661204c9190614780565b9050919050565b5f5f73ffffffffffffffffffffffffffffffffffffffff168473ffffffffffffffffffffffffffffffffffffffff160361208d5761dead93505b61138b46036121b9578260065f9054906101000a900473ffffffffffffffffffffffffffffffffffffffff1673ffffffffffffffffffffffffffffffffffffffff166370a08231306040518263ffffffff1660e01b81526004016120f19190612e9d565b602060405180830381865afa15801561210c573d5f5f3e3d5ffd5b505050506040513d601f19601f8201168201806040525081019061213091906138a7565b1015612168576040517ff4d678b800000000000000000000000000000000000000000000000000000000815260040160405180910390fd5b6121b4848460065f9054906101000a900473ffffffffffffffffffffffffffffffffffffffff1673ffffffffffffffffffffffffffffffffffffffff166127b19092919063ffffffff16565b612257565b60075f9054906101000a900473ffffffffffffffffffffffffffffffffffffffff1673ffffffffffffffffffffffffffffffffffffffff166340c10f1985856040518363ffffffff1660e01b81526004016122159291906148b2565b6020604051808303815f875af1158015612231573d5f5f3e3d5ffd5b505050506040513d601f19601f8201168201806040525081019061225591906140f6565b505b7f1bbf55d483639f8103dc4e035af71a4fbdb16c80be740fa3eef81198acefa09484846040516122889291906148b2565b60405180910390a18290509392505050565b5f602860ff168383905011905092915050565b60608282602860ff169080926122c593929190613bdf565b8080601f0160208091040260200160405190810160405280939291908181526020018383808284375f81840152601f19601f82011690508083019250505050505050905092915050565b6060848484846040516020016123289493929190614961565b6040516020818303038152906040529050949350505050565b5f33905090565b5f5f7f0000000000000000000000000000000000000000000000000000000000000000836123769190614750565b905067ffffffffffffffff80168111156123c757806040517fe2ce94130000000000000000000000000000000000000000000000000000000081526004016123be9190612ba9565b60405180910390fd5b80915050919050565b60605f5f8351119050806124055784846040516020016123f19291906149ca565b604051602081830303815290604052612434565b848461241033612830565b8560405160200161242494939291906149f5565b6040516020818303038152906040525b9150935093915050565b5f5f61244b85858561164f565b809250819350505061138b46036124af576124aa86308460065f9054906101000a900473ffffffffffffffffffffffffffffffffffffffff1673ffffffffffffffffffffffffffffffffffffffff16612851909392919063ffffffff16565b612659565b6124fd86308460065f9054906101000a900473ffffffffffffffffffffffffffffffffffffffff1673ffffffffffffffffffffffffffffffffffffffff16612851909392919063ffffffff16565b60065f9054906101000a900473ffffffffffffffffffffffffffffffffffffffff1673ffffffffffffffffffffffffffffffffffffffff1663095ea7b360075f9054906101000a900473ffffffffffffffffffffffffffffffffffffffff16846040518363ffffffff1660e01b815260040161257a9291906148b2565b6020604051808303815f875af1158015612596573d5f5f3e3d5ffd5b505050506040513d601f19601f820116820180604052508101906125ba91906140f6565b5060075f9054906101000a900473ffffffffffffffffffffffffffffffffffffffff1673ffffffffffffffffffffffffffffffffffffffff16639dc29fac87846040518363ffffffff1660e01b81526004016126179291906148b2565b6020604051808303815f875af1158015612633573d5f5f3e3d5ffd5b505050506040513d601f19601f8201168201806040525081019061265791906140f6565b505b7f59c79d79be0fadf59fe689b6952b7ebe90201a3a1f00d4a31982377890bc6046868660405161268a9291906148b2565b60405180910390a194509492505050565b6126a3612b62565b5f6126b0845f01516128d3565b90505f846020015111156126cc576126cb8460200151612920565b5b7f000000000000000000000000000000000000000000000000000000000000000073ffffffffffffffffffffffffffffffffffffffff16632637a450826040518060a001604052808b63ffffffff1681526020016127298c6116ae565b81526020018a81526020018981526020015f8960200151111515815250866040518463ffffffff1660e01b81526004016127649291906141f2565b60806040518083038185885af1158015612780573d5f5f3e3d5ffd5b50505050506040513d601f19601f820116820180604052508101906127a59190614ac7565b91505095945050505050565b61282b838473ffffffffffffffffffffffffffffffffffffffff1663a9059cbb85856040516024016127e49291906148b2565b604051602081830303815290604052915060e01b6020820180517bffffffffffffffffffffffffffffffffffffffffffffffffffffffff8381831617835250505050612a66565b505050565b5f8173ffffffffffffffffffffffffffffffffffffffff165f1b9050919050565b6128cd848573ffffffffffffffffffffffffffffffffffffffff166323b872dd86868660405160240161288693929190614af2565b604051602081830303815290604052915060e01b6020820180517bffffffffffffffffffffffffffffffffffffffffffffffffffffffff8381831617835250505050612a66565b50505050565b5f81341461291857346040517f9f70412000000000000000000000000000000000000000000000000000000000815260040161290f9190612ba9565b60405180910390fd5b819050919050565b5f7f000000000000000000000000000000000000000000000000000000000000000073ffffffffffffffffffffffffffffffffffffffff1663e4fe1d946040518163ffffffff1660e01b8152600401602060405180830381865afa15801561298a573d5f5f3e3d5ffd5b505050506040513d601f19601f820116820180604052508101906129ae9190613852565b90505f73ffffffffffffffffffffffffffffffffffffffff168173ffffffffffffffffffffffffffffffffffffffff1603612a15576040517f5373352a00000000000000000000000000000000000000000000000000000000815260040160405180910390fd5b612a62337f0000000000000000000000000000000000000000000000000000000000000000848473ffffffffffffffffffffffffffffffffffffffff16612851909392919063ffffffff16565b5050565b5f5f60205f8451602086015f885af180612a85576040513d5f823e3d81fd5b3d92505f519150505f8214612a9e576001811415612ab9565b5f8473ffffffffffffffffffffffffffffffffffffffff163b145b15612afb57836040517f5274afe7000000000000000000000000000000000000000000000000000000008152600401612af29190612e9d565b60405180910390fd5b50505050565b60405180604001604052805f81526020015f81525090565b60405180604001604052805f81526020015f81525090565b60405180604001604052805f8152602001606081525090565b60405180604001604052805f81526020015f81525090565b60405180606001604052805f81526020015f67ffffffffffffffff168152602001612b8b612b4a565b81525090565b5f819050919050565b612ba381612b91565b82525050565b5f602082019050612bbc5f830184612b9a565b92915050565b5f604051905090565b5f5ffd5b5f5ffd5b5f5ffd5b5f60e08284031215612bec57612beb612bd3565b5b81905092915050565b5f60208284031215612c0a57612c09612bcb565b5b5f82013567ffffffffffffffff811115612c2757612c26612bcf565b5b612c3384828501612bd7565b91505092915050565b612c4581612b91565b82525050565b604082015f820151612c5f5f850182612c3c565b506020820151612c726020850182612c3c565b50505050565b5f81519050919050565b5f82825260208201905092915050565b5f819050602082019050919050565b5f819050919050565b612cb381612ca1565b82525050565b5f81519050919050565b5f82825260208201905092915050565b8281835e5f83830152505050565b5f601f19601f8301169050919050565b5f612cfb82612cb9565b612d058185612cc3565b9350612d15818560208601612cd3565b612d1e81612ce1565b840191505092915050565b5f604083015f830151612d3e5f860182612caa565b5060208301518482036020860152612d568282612cf1565b9150508091505092915050565b5f612d6e8383612d29565b905092915050565b5f602082019050919050565b5f612d8c82612c78565b612d968185612c82565b935083602082028501612da885612c92565b805f5b85811015612de35784840389528151612dc48582612d63565b9450612dcf83612d76565b925060208a01995050600181019050612dab565b50829750879550505050505092915050565b604082015f820151612e095f850182612c3c565b506020820151612e1c6020850182612c3c565b50505050565b5f60a082019050612e355f830186612c4b565b8181036040830152612e478185612d82565b9050612e566060830184612df5565b949350505050565b5f73ffffffffffffffffffffffffffffffffffffffff82169050919050565b5f612e8782612e5e565b9050919050565b612e9781612e7d565b82525050565b5f602082019050612eb05f830184612e8e565b92915050565b5f60608284031215612ecb57612eca612bd3565b5b81905092915050565b5f819050919050565b612ee681612ed4565b8114612ef0575f5ffd5b50565b5f81359050612f0181612edd565b92915050565b5f5ffd5b5f5ffd5b5f5ffd5b5f5f83601f840112612f2857612f27612f07565b5b8235905067ffffffffffffffff811115612f4557612f44612f0b565b5b602083019150836001820283011115612f6157612f60612f0f565b5b9250929050565b612f7181612e7d565b8114612f7b575f5ffd5b50565b5f81359050612f8c81612f68565b92915050565b5f5f5f5f5f5f5f60e0888a031215612fad57612fac612bcb565b5b5f612fba8a828b01612eb6565b9750506060612fcb8a828b01612ef3565b965050608088013567ffffffffffffffff811115612fec57612feb612bcf565b5b612ff88a828b01612f13565b955095505060a061300b8a828b01612f7e565b93505060c088013567ffffffffffffffff81111561302c5761302b612bcf565b5b6130388a828b01612f13565b925092505092959891949750929550565b5f61ffff82169050919050565b61305f81613049565b82525050565b5f6020820190506130785f830184613056565b92915050565b5f7fffffffff0000000000000000000000000000000000000000000000000000000082169050919050565b6130b28161307e565b82525050565b5f67ffffffffffffffff82169050919050565b6130d4816130b8565b82525050565b5f6040820190506130ed5f8301856130a9565b6130fa60208301846130cb565b9392505050565b5f6040820190506131145f8301856130cb565b61312160208301846130cb565b9392505050565b5f63ffffffff82169050919050565b61314081613128565b811461314a575f5ffd5b50565b5f8135905061315b81613137565b92915050565b5f5f6040838503121561317757613176612bcb565b5b5f6131848582860161314d565b925050602061319585828601612ef3565b9150509250929050565b5f8115159050919050565b6131b38161319f565b81146131bd575f5ffd5b50565b5f813590506131ce816131aa565b92915050565b5f5f604083850312156131ea576131e9612bcb565b5b5f83013567ffffffffffffffff81111561320757613206612bcf565b5b61321385828601612bd7565b9250506020613224858286016131c0565b9150509250929050565b604082015f8201516132425f850182612c3c565b5060208201516132556020850182612c3c565b50505050565b5f60408201905061326e5f83018461322e565b92915050565b61327d81613049565b8114613287575f5ffd5b50565b5f8135905061329881613274565b92915050565b5f5f604083850312156132b4576132b3612bcb565b5b5f6132c18582860161314d565b92505060206132d28582860161328a565b9150509250929050565b5f81519050919050565b5f82825260208201905092915050565b5f613300826132dc565b61330a81856132e6565b935061331a818560208601612cd3565b61332381612ce1565b840191505092915050565b5f6020820190508181035f83015261334681846132f6565b905092915050565b6133578161319f565b82525050565b5f6020820190506133705f83018461334e565b92915050565b5f819050919050565b5f61339961339461338f84612e5e565b613376565b612e5e565b9050919050565b5f6133aa8261337f565b9050919050565b5f6133bb826133a0565b9050919050565b6133cb816133b1565b82525050565b5f6020820190506133e45f8301846133c2565b92915050565b5f602082840312156133ff576133fe612bcb565b5b5f61340c84828501612f7e565b91505092915050565b5f6020820190506134285f8301846130cb565b92915050565b5f5f5f5f60a0858703121561344657613445612bcb565b5b5f61345387828801612eb6565b945050606085013567ffffffffffffffff81111561347457613473612bcf565b5b61348087828801612f13565b9350935050608061349387828801612f7e565b91505092959194509250565b5f60ff82169050919050565b6134b48161349f565b82525050565b5f6020820190506134cd5f8301846134ab565b92915050565b5f5f83601f8401126134e8576134e7612f07565b5b8235905067ffffffffffffffff81111561350557613504612f0b565b5b60208301915083602082028301111561352157613520612f0f565b5b9250929050565b5f5f6020838503121561353e5761353d612bcb565b5b5f83013567ffffffffffffffff81111561355b5761355a612bcf565b5b613567858286016134d3565b92509250509250929050565b5f6020828403121561358857613587612bcb565b5b5f6135958482850161314d565b91505092915050565b6135a781612ed4565b82525050565b5f6020820190506135c05f83018461359e565b92915050565b5f5f5f5f606085870312156135de576135dd612bcb565b5b5f6135eb8782880161314d565b94505060206135fc8782880161328a565b935050604085013567ffffffffffffffff81111561361d5761361c612bcf565b5b61362987828801612f13565b925092505092959194509250565b5f5f83601f84011261364c5761364b612f07565b5b8235905067ffffffffffffffff81111561366957613668612f0b565b5b60208301915083602082028301111561368557613684612f0f565b5b9250929050565b5f5f602083850312156136a2576136a1612bcb565b5b5f83013567ffffffffffffffff8111156136bf576136be612bcf565b5b6136cb85828601613637565b92509250509250929050565b5f604082840312156136ec576136eb612bd3565b5b81905092915050565b5f5f5f6080848603121561370c5761370b612bcb565b5b5f84013567ffffffffffffffff81111561372957613728612bcf565b5b61373586828701612bd7565b9350506020613746868287016136d7565b925050606061375786828701612f7e565b9150509250925092565b61376a81612ed4565b82525050565b613779816130b8565b82525050565b604082015f8201516137935f850182612c3c565b5060208201516137a66020850182612c3c565b50505050565b608082015f8201516137c05f850182613761565b5060208201516137d36020850182613770565b5060408201516137e6604085018261377f565b50505050565b5f60c0820190506137ff5f8301856137ac565b61380c6080830184612df5565b9392505050565b5f6060828403121561382857613827612bcb565b5b5f61383584828501612eb6565b91505092915050565b5f8151905061384c81612f68565b92915050565b5f6020828403121561386757613866612bcb565b5b5f6138748482850161383e565b91505092915050565b61388681612b91565b8114613890575f5ffd5b50565b5f815190506138a18161387d565b92915050565b5f602082840312156138bc576138bb612bcb565b5b5f6138c984828501613893565b91505092915050565b7f4e487b71000000000000000000000000000000000000000000000000000000005f52604160045260245ffd5b61390881613128565b82525050565b5f6040820190506139215f8301856138ff565b61392e602083018461359e565b9392505050565b7f4e487b71000000000000000000000000000000000000000000000000000000005f52602260045260245ffd5b5f600282049050600182168061397957607f821691505b60208210810361398c5761398b613935565b5b50919050565b61399b82612ce1565b810181811067ffffffffffffffff821117156139ba576139b96138d2565b5b80604052505050565b5f6139cc612bc2565b90506139d88282613992565b919050565b5f67ffffffffffffffff8211156139f7576139f66138d2565b5b602082029050602081019050919050565b5f5ffd5b5f5ffd5b5f5ffd5b5f67ffffffffffffffff821115613a2e57613a2d6138d2565b5b613a3782612ce1565b9050602081019050919050565b828183375f83830152505050565b5f613a64613a5f84613a14565b6139c3565b905082815260208101848484011115613a8057613a7f613a10565b5b613a8b848285613a44565b509392505050565b5f82601f830112613aa757613aa6612f07565b5b8135613ab7848260208601613a52565b91505092915050565b5f60608284031215613ad557613ad4613a08565b5b613adf60606139c3565b90505f613aee8482850161314d565b5f830152506020613b018482850161328a565b602083015250604082013567ffffffffffffffff811115613b2557613b24613a0c565b5b613b3184828501613a93565b60408301525092915050565b5f613b4f613b4a846139dd565b6139c3565b90508083825260208201905060208402830185811115613b7257613b71612f0f565b5b835b81811015613bb957803567ffffffffffffffff811115613b9757613b96612f07565b5b808601613ba48982613ac0565b85526020850194505050602081019050613b74565b5050509392505050565b5f613bcf368484613b3d565b905092915050565b5f5ffd5b5f5ffd5b5f5f85851115613bf257613bf1613bd7565b5b83861115613c0357613c02613bdb565b5b6001850283019150848603905094509492505050565b5f81905092915050565b5f613c2d826132dc565b613c378185613c19565b9350613c47818560208601612cd3565b80840191505092915050565b5f613c5e8385613c19565b9350613c6b838584613a44565b82840190509392505050565b5f613c828286613c23565b9150613c8f828486613c53565b9150819050949350505050565b5f613ca783856132e6565b9350613cb4838584613a44565b613cbd83612ce1565b840190509392505050565b5f6020820190508181035f830152613ce1818486613c9c565b90509392505050565b7f4e487b71000000000000000000000000000000000000000000000000000000005f52603260045260245ffd5b5f5ffd5b5f5ffd5b5f5ffd5b5f8235600161014003833603038112613d3f57613d3e613d17565b5b80830191505092915050565b5f5f83356001602003843603038112613d6757613d66613d17565b5b80840192508235915067ffffffffffffffff821115613d8957613d88613d1b565b5b602083019250600182023603831315613da557613da4613d1f565b5b509250929050565b5f613dbb602084018461314d565b905092915050565b613dcc81613128565b82525050565b5f613de06020840184612ef3565b905092915050565b613df1816130b8565b8114613dfb575f5ffd5b50565b5f81359050613e0c81613de8565b92915050565b5f613e206020840184613dfe565b905092915050565b60608201613e385f830183613dad565b613e445f850182613dc3565b50613e526020830183613dd2565b613e5f6020850182613761565b50613e6d6040830183613e12565b613e7a6040850182613770565b50505050565b5f60e082019050613e935f83018a613e28565b613ea0606083018961359e565b8181036080830152613eb3818789613c9c565b9050613ec260a0830186612e8e565b81810360c0830152613ed5818486613c9c565b905098975050505050505050565b5f613ef5613ef084613a14565b6139c3565b905082815260208101848484011115613f1157613f10613a10565b5b613f1c848285612cd3565b509392505050565b5f82601f830112613f3857613f37612f07565b5b8151613f48848260208601613ee3565b91505092915050565b5f60208284031215613f6657613f65612bcb565b5b5f82015167ffffffffffffffff811115613f8357613f82612bcf565b5b613f8f84828501613f24565b91505092915050565b5f604082019050613fab5f830185612b9a565b613fb86020830184612b9a565b9392505050565b5f602082019050613fd25f8301846138ff565b92915050565b5f60208284031215613fed57613fec612bcb565b5b5f613ffa84828501613dfe565b91505092915050565b5f819050919050565b5f61402661402161401c84614003565b613376565b613049565b9050919050565b6140368161400c565b82525050565b5f60808201905061404f5f830187612e8e565b61405c602083018661359e565b614069604083018561402d565b818103606083015261407b81846132f6565b905095945050505050565b5f6040820190506140995f8301856138ff565b6140a66020830184612b9a565b9392505050565b5f6040820190508181035f8301526140c581856132f6565b905081810360208301526140d981846132f6565b90509392505050565b5f815190506140f0816131aa565b92915050565b5f6020828403121561410b5761410a612bcb565b5b5f614118848285016140e2565b91505092915050565b5f82825260208201905092915050565b5f61413b826132dc565b6141458185614121565b9350614155818560208601612cd3565b61415e81612ce1565b840191505092915050565b6141728161319f565b82525050565b5f60a083015f83015161418d5f860182613dc3565b5060208301516141a06020860182613761565b50604083015184820360408601526141b88282614131565b915050606083015184820360608601526141d28282614131565b91505060808301516141e76080860182614169565b508091505092915050565b5f6040820190508181035f83015261420a8185614178565b90506142196020830184612e8e565b9392505050565b5f6040828403121561423557614234613a08565b5b61423f60406139c3565b90505f61424e84828501613893565b5f83015250602061426184828501613893565b60208301525092915050565b5f6040828403121561428257614281612bcb565b5b5f61428f84828501614220565b91505092915050565b5f819050815f5260205f209050919050565b5f6020601f8301049050919050565b5f82821b905092915050565b5f600883026142f47fffffffffffffffffffffffffffffffffffffffffffffffffffffffffffffffff826142b9565b6142fe86836142b9565b95508019841693508086168417925050509392505050565b5f61433061432b61432684612b91565b613376565b612b91565b9050919050565b5f819050919050565b61434983614316565b61435d61435582614337565b8484546142c5565b825550505050565b5f5f905090565b614374614365565b61437f818484614340565b505050565b5b818110156143a2576143975f8261436c565b600181019050614385565b5050565b601f8211156143e7576143b881614298565b6143c1846142aa565b810160208510156143d0578190505b6143e46143dc856142aa565b830182614384565b50505b505050565b5f82821c905092915050565b5f6144075f19846008026143ec565b1980831691505092915050565b5f61441f83836143f8565b9150826002028217905092915050565b614438826132dc565b67ffffffffffffffff811115614451576144506138d2565b5b61445b8254613962565b6144668282856143a6565b5f60209050601f831160018114614497575f8415614485578287015190505b61448f8582614414565b8655506144f6565b601f1984166144a586614298565b5f5b828110156144cc578489015182556001820191506020850194506020810190506144a7565b868310156144e957848901516144e5601f8916826143f8565b8355505b6001600288020188555050505b505050505050565b5f81519050919050565b5f82825260208201905092915050565b5f819050602082019050919050565b61453081613049565b82525050565b5f606083015f83015161454b5f860182613dc3565b50602083015161455e6020860182614527565b50604083015184820360408601526145768282614131565b9150508091505092915050565b5f61458e8383614536565b905092915050565b5f602082019050919050565b5f6145ac826144fe565b6145b68185614508565b9350836020820285016145c885614518565b805f5b8581101561460357848403895281516145e48582614583565b94506145ef83614596565b925060208a019950506001810190506145cb565b50829750879550505050505092915050565b5f6020820190508181035f83015261462d81846145a2565b905092915050565b5f813590506146438161387d565b92915050565b5f6040828403121561465e5761465d613a08565b5b61466860406139c3565b90505f61467784828501614635565b5f83015250602061468a84828501614635565b60208301525092915050565b5f604082840312156146ab576146aa612bcb565b5b5f6146b884828501614649565b91505092915050565b5f6060820190506146d45f8301866138ff565b6146e16020830185612b9a565b6146ee6040830184612b9a565b949350505050565b7f4e487b71000000000000000000000000000000000000000000000000000000005f52601260045260245ffd5b7f4e487b71000000000000000000000000000000000000000000000000000000005f52601160045260245ffd5b5f61475a82612b91565b915061476583612b91565b925082614775576147746146f6565b5b828204905092915050565b5f61478a82612b91565b915061479583612b91565b92508282026147a381612b91565b915082820484148315176147ba576147b9614723565b5b5092915050565b5f82905092915050565b5f6147d683836147c1565b826147e18135612ed4565b925060208210156148215761481c7fffffffffffffffffffffffffffffffffffffffffffffffffffffffffffffffff836020036008026142b9565b831692505b505092915050565b5f7fffffffffffffffff00000000000000000000000000000000000000000000000082169050919050565b5f61485f83836147c1565b8261486a8135614829565b925060088210156148aa576148a57fffffffffffffffff000000000000000000000000000000000000000000000000836008036008026142b9565b831692505b505092915050565b5f6040820190506148c55f830185612e8e565b6148d26020830184612b9a565b9392505050565b5f8160c01b9050919050565b5f6148ef826148d9565b9050919050565b614907614902826130b8565b6148e5565b82525050565b5f8160e01b9050919050565b5f6149238261490d565b9050919050565b61493b61493682613128565b614919565b82525050565b5f819050919050565b61495b61495682612b91565b614941565b82525050565b5f61496c82876148f6565b60088201915061497c828661492a565b60048201915061498c828561494a565b60208201915061499c8284613c23565b915081905095945050505050565b5f819050919050565b6149c46149bf82612ed4565b6149aa565b82525050565b5f6149d582856149b3565b6020820191506149e582846148f6565b6008820191508190509392505050565b5f614a0082876149b3565b602082019150614a1082866148f6565b600882019150614a2082856149b3565b602082019150614a308284613c23565b915081905095945050505050565b5f81519050614a4c81612edd565b92915050565b5f81519050614a6081613de8565b92915050565b5f60808284031215614a7b57614a7a613a08565b5b614a8560606139c3565b90505f614a9484828501614a3e565b5f830152506020614aa784828501614a52565b6020830152506040614abb84828501614220565b60408301525092915050565b5f60808284031215614adc57614adb612bcb565b5b5f614ae984828501614a66565b91505092915050565b5f606082019050614b055f830186612e8e565b614b126020830185612e8e565b614b1f6040830184612b9a565b94935050505056fea26469706673582212204b161e3eb39af576b6c6a678e4c06004647186cb4b36448c1f10c1f1262c1c0864736f6c634300081e0033","linkReferences":{}},"methodIdentifiers":{"SEND()":"1f5e1334","SEND_AND_CALL()":"134d4f25","SETTLEMENT_CHAIN_ID()":"017c25a7","_SHAREDDECIMALS()":"c9af8692","allowInitializePath((uint32,bytes32,uint64))":"ff7bd03d","approvalRequired()":"9f68b964","combineOptions(uint32,uint16,bytes)":"bc70b354","decimalConversionRate()":"963efcaa","elevatedMinterBurner()":"8108bb7e","endpoint()":"5e280f11","enforcedOptions(uint32,uint16)":"5535d461","isComposeMsgSender((uint32,bytes32,uint64),bytes,address)":"82413eac","isPeer(uint32,bytes32)":"5a0dfe4d","lzReceive((uint32,bytes32,uint64),bytes32,bytes,address,bytes)":"13137d65","lzReceiveAndRevert(((uint32,bytes32,uint64),uint32,address,bytes32,uint256,address,bytes,bytes)[])":"bd815db0","lzReceiveSimulate((uint32,bytes32,uint64),bytes32,bytes,address,bytes)":"d045a0dc","msgInspector()":"111ecdad","nextNonce(uint32,bytes32)":"7d25a05e","oApp()":"52ae2879","oAppVersion()":"17442b70","oftVersion()":"156a0d0f","owner()":"8da5cb5b","peers(uint32)":"bb0b6a53","preCrime()":"b731ea0a","quoteOFT((uint32,bytes32,uint256,uint256,bytes,bytes,bytes))":"0d35b415","quoteSend((uint32,bytes32,uint256,uint256,bytes,bytes,bytes),bool)":"3b6f743b","renounceOwnership()":"715018a6","send((uint32,bytes32,uint256,uint256,bytes,bytes,bytes),(uint256,uint256),address)":"c7c7f5b3","setDelegate(address)":"ca5eb5e1","setElevatedMinterBurner(address)":"bc4565c4","setEnforcedOptions((uint32,uint16,bytes)[])":"b98bd070","setMsgInspector(address)":"6fc1b31e","setPeer(uint32,bytes32)":"3400288b","setPreCrime(address)":"d4243885","sharedDecimals()":"857749b0","token()":"fc0c546a","tokenOft()":"ccae6664","transferOwnership(address)":"f2fde38b"},"id":270}