{"abi":[{"type":"function","name":"deployProxy","inputs":[{"name":"_implementation","type":"address","internalType":"address"},{"name":"_data","type":"bytes","internalType":"bytes"}],"outputs":[{"name":"","type":"address","internalType":"address"}],"stateMutability":"nonpayable"},{"type":"function","name":"proxy","inputs":[],"outputs":[{"name":"","type":"address","internalType":"contract ERC1967Proxy"}],"stateMutability":"view"}],"bytecode":{"object":"0x6080604052348015600e575f5ffd5b50610b468061001c5f395ff3fe608060405234801561000f575f5ffd5b5060043610610034575f3560e01c80639f5eed7514610038578063ec55688914610068575b5f5ffd5b610052600480360381019061004d91906102f9565b610086565b60405161005f9190610362565b60405180910390f35b610070610121565b60405161007d91906103d6565b60405180910390f35b5f828260405161009590610145565b6100a092919061044f565b604051809103905ff0801580156100b9573d5f5f3e3d5ffd5b505f5f6101000a81548173ffffffffffffffffffffffffffffffffffffffff021916908373ffffffffffffffffffffffffffffffffffffffff1602179055505f5f9054906101000a900473ffffffffffffffffffffffffffffffffffffffff16905092915050565b5f5f9054906101000a900473ffffffffffffffffffffffffffffffffffffffff1681565b6106938061047e83390190565b5f604051905090565b5f5ffd5b5f5ffd5b5f73ffffffffffffffffffffffffffffffffffffffff82169050919050565b5f61018c82610163565b9050919050565b61019c81610182565b81146101a6575f5ffd5b50565b5f813590506101b781610193565b92915050565b5f5ffd5b5f5ffd5b5f601f19601f8301169050919050565b7f4e487b71000000000000000000000000000000000000000000000000000000005f52604160045260245ffd5b61020b826101c5565b810181811067ffffffffffffffff8211171561022a576102296101d5565b5b80604052505050565b5f61023c610152565b90506102488282610202565b919050565b5f67ffffffffffffffff821115610267576102666101d5565b5b610270826101c5565b9050602081019050919050565b828183375f83830152505050565b5f61029d6102988461024d565b610233565b9050828152602081018484840111156102b9576102b86101c1565b5b6102c484828561027d565b509392505050565b5f82601f8301126102e0576102df6101bd565b5b81356102f084826020860161028b565b91505092915050565b5f5f6040838503121561030f5761030e61015b565b5b5f61031c858286016101a9565b925050602083013567ffffffffffffffff81111561033d5761033c61015f565b5b610349858286016102cc565b9150509250929050565b61035c81610182565b82525050565b5f6020820190506103755f830184610353565b92915050565b5f819050919050565b5f61039e61039961039484610163565b61037b565b610163565b9050919050565b5f6103af82610384565b9050919050565b5f6103c0826103a5565b9050919050565b6103d0816103b6565b82525050565b5f6020820190506103e95f8301846103c7565b92915050565b5f81519050919050565b5f82825260208201905092915050565b8281835e5f83830152505050565b5f610421826103ef565b61042b81856103f9565b935061043b818560208601610409565b610444816101c5565b840191505092915050565b5f6040820190506104625f830185610353565b81810360208301526104748184610417565b9050939250505056fe6080604052604051610693380380610693833981810160405281019061002591906104d7565b610035828261003c60201b60201c565b50506105b3565b61004b826100c060201b60201c565b8173ffffffffffffffffffffffffffffffffffffffff167fbc7cd75a20ee27fd9adebab32041f755214dbc6bffa90cc0225b39da2e5c2d3b60405160405180910390a25f815111156100ad576100a7828261018f60201b60201c565b506100bc565b6100bb61021560201b60201c565b5b5050565b5f8173ffffffffffffffffffffffffffffffffffffffff163b0361011b57806040517f4c9c8ce30000000000000000000000000000000000000000000000000000000081526004016101129190610540565b60405180910390fd5b8061014d7f360894a13ba1a3210667c828492db98dca3e2076cc3735a920a3ca505d382bbc5f1b61025160201b60201c565b5f015f6101000a81548173ffffffffffffffffffffffffffffffffffffffff021916908373ffffffffffffffffffffffffffffffffffffffff16021790555050565b60605f5f8473ffffffffffffffffffffffffffffffffffffffff16846040516101b8919061059d565b5f60405180830381855af49150503d805f81146101f0576040519150601f19603f3d011682016040523d82523d5f602084013e6101f5565b606091505b509150915061020b85838361025a60201b60201c565b9250505092915050565b5f34111561024f576040517fb398979f00000000000000000000000000000000000000000000000000000000815260040160405180910390fd5b565b5f819050919050565b60608261027557610270826102ed60201b60201c565b6102e5565b5f825114801561029b57505f8473ffffffffffffffffffffffffffffffffffffffff163b145b156102dd57836040517f9996b3150000000000000000000000000000000000000000000000000000000081526004016102d49190610540565b60405180910390fd5b8190506102e6565b5b9392505050565b5f815111156102fe57805160208201fd5b6040517fd6bda27500000000000000000000000000000000000000000000000000000000815260040160405180910390fd5b5f604051905090565b5f5ffd5b5f5ffd5b5f73ffffffffffffffffffffffffffffffffffffffff82169050919050565b5f61036a82610341565b9050919050565b61037a81610360565b8114610384575f5ffd5b50565b5f8151905061039581610371565b92915050565b5f5ffd5b5f5ffd5b5f601f19601f8301169050919050565b7f4e487b71000000000000000000000000000000000000000000000000000000005f52604160045260245ffd5b6103e9826103a3565b810181811067ffffffffffffffff82111715610408576104076103b3565b5b80604052505050565b5f61041a610330565b905061042682826103e0565b919050565b5f67ffffffffffffffff821115610445576104446103b3565b5b61044e826103a3565b9050602081019050919050565b8281835e5f83830152505050565b5f61047b6104768461042b565b610411565b9050828152602081018484840111156104975761049661039f565b5b6104a284828561045b565b509392505050565b5f82601f8301126104be576104bd61039b565b5b81516104ce848260208601610469565b91505092915050565b5f5f604083850312156104ed576104ec610339565b5b5f6104fa85828601610387565b925050602083015167ffffffffffffffff81111561051b5761051a61033d565b5b610527858286016104aa565b9150509250929050565b61053a81610360565b82525050565b5f6020820190506105535f830184610531565b92915050565b5f81519050919050565b5f81905092915050565b5f61057782610559565b6105818185610563565b935061059181856020860161045b565b80840191505092915050565b5f6105a8828461056d565b915081905092915050565b60d4806105bf5f395ff3fe6080604052600a600c565b005b60186014601a565b6026565b565b5f60216044565b905090565b365f5f375f5f365f845af43d5f5f3e805f81146040573d5ff35b3d5ffd5b5f606e7f360894a13ba1a3210667c828492db98dca3e2076cc3735a920a3ca505d382bbc5f1b6095565b5f015f9054906101000a900473ffffffffffffffffffffffffffffffffffffffff16905090565b5f81905091905056fea264697066735822122098721d89eb736e30183f393360ff451e5c8cfddf8ac84322f51016126fbdd0c364736f6c634300081e0033a2646970667358221220312053934a7cf95a117690b257b02a78941c0f9a01a8f47e80db7bd33ee6259b64736f6c634300081e0033","linkReferences":{}},"methodIdentifiers":{"deployProxy(address,bytes)":"9f5eed75","proxy()":"ec556889"},"id":178}