{"abi":[{"type":"constructor","inputs":[{"name":"_token","type":"address","internalType":"address"},{"name":"_lzEndpoint","type":"address","internalType":"address"}],"stateMutability":"nonpayable"},{"type":"function","name":"SEND","inputs":[],"outputs":[{"name":"","type":"uint16","internalType":"uint16"}],"stateMutability":"view"},{"type":"function","name":"SEND_AND_CALL","inputs":[],"outputs":[{"name":"","type":"uint16","internalType":"uint16"}],"stateMutability":"view"},{"type":"function","name":"SETTLEMENT_CHAIN_ID","inputs":[],"outputs":[{"name":"","type":"uint256","internalType":"uint256"}],"stateMutability":"view"},{"type":"function","name":"allowInitializePath","inputs":[{"name":"origin","type":"tuple","internalType":"struct Origin","components":[{"name":"srcEid","type":"uint32","internalType":"uint32"},{"name":"sender","type":"bytes32","internalType":"bytes32"},{"name":"nonce","type":"uint64","internalType":"uint64"}]}],"outputs":[{"name":"","type":"bool","internalType":"bool"}],"stateMutability":"view"},{"type":"function","name":"approvalRequired","inputs":[],"outputs":[{"name":"","type":"bool","internalType":"bool"}],"stateMutability":"pure"},{"type":"function","name":"combineOptions","inputs":[{"name":"_eid","type":"uint32","internalType":"uint32"},{"name":"_msgType","type":"uint16","internalType":"uint16"},{"name":"_extraOptions","type":"bytes","internalType":"bytes"}],"outputs":[{"name":"","type":"bytes","internalType":"bytes"}],"stateMutability":"view"},{"type":"function","name":"decimalConversionRate","inputs":[],"outputs":[{"name":"","type":"uint256","internalType":"uint256"}],"stateMutability":"view"},{"type":"function","name":"elevatedMinterBurner","inputs":[],"outputs":[{"name":"","type":"address","internalType":"address"}],"stateMutability":"view"},{"type":"function","name":"endpoint","inputs":[],"outputs":[{"name":"","type":"address","internalType":"contract ILayerZeroEndpointV2"}],"stateMutability":"view"},{"type":"function","name":"enforcedOptions","inputs":[{"name":"_eid","type":"uint32","internalType":"uint32"},{"name":"_msgType","type":"uint16","internalType":"uint16"}],"outputs":[{"name":"","type":"bytes","internalType":"bytes"}],"stateMutability":"view"},{"type":"function","name":"initialize","inputs":[{"name":"_owner","type":"address","internalType":"address"},{"name":"_elevatedMinterBurner","type":"address","internalType":"address"}],"outputs":[],"stateMutability":"nonpayable"},{"type":"function","name":"isComposeMsgSender","inputs":[{"name":"","type":"tuple","internalType":"struct Origin","components":[{"name":"srcEid","type":"uint32","internalType":"uint32"},{"name":"sender","type":"bytes32","internalType":"bytes32"},{"name":"nonce","type":"uint64","internalType":"uint64"}]},{"name":"","type":"bytes","internalType":"bytes"},{"name":"_sender","type":"address","internalType":"address"}],"outputs":[{"name":"","type":"bool","internalType":"bool"}],"stateMutability":"view"},{"type":"function","name":"isPeer","inputs":[{"name":"_eid","type":"uint32","internalType":"uint32"},{"name":"_peer","type":"bytes32","internalType":"bytes32"}],"outputs":[{"name":"","type":"bool","internalType":"bool"}],"stateMutability":"view"},{"type":"function","name":"lzReceive","inputs":[{"name":"_origin","type":"tuple","internalType":"struct Origin","components":[{"name":"srcEid","type":"uint32","internalType":"uint32"},{"name":"sender","type":"bytes32","internalType":"bytes32"},{"name":"nonce","type":"uint64","internalType":"uint64"}]},{"name":"_guid","type":"bytes32","internalType":"bytes32"},{"name":"_message","type":"bytes","internalType":"bytes"},{"name":"_executor","type":"address","internalType":"address"},{"name":"_extraData","type":"bytes","internalType":"bytes"}],"outputs":[],"stateMutability":"payable"},{"type":"function","name":"lzReceiveAndRevert","inputs":[{"name":"_packets","type":"tuple[]","internalType":"struct InboundPacket[]","components":[{"name":"origin","type":"tuple","internalType":"struct Origin","components":[{"name":"srcEid","type":"uint32","internalType":"uint32"},{"name":"sender","type":"bytes32","internalType":"bytes32"},{"name":"nonce","type":"uint64","internalType":"uint64"}]},{"name":"dstEid","type":"uint32","internalType":"uint32"},{"name":"receiver","type":"address","internalType":"address"},{"name":"guid","type":"bytes32","internalType":"bytes32"},{"name":"value","type":"uint256","internalType":"uint256"},{"name":"executor","type":"address","internalType":"address"},{"name":"message","type":"bytes","internalType":"bytes"},{"name":"extraData","type":"bytes","internalType":"bytes"}]}],"outputs":[],"stateMutability":"payable"},{"type":"function","name":"lzReceiveSimulate","inputs":[{"name":"_origin","type":"tuple","internalType":"struct Origin","components":[{"name":"srcEid","type":"uint32","internalType":"uint32"},{"name":"sender","type":"bytes32","internalType":"bytes32"},{"name":"nonce","type":"uint64","internalType":"uint64"}]},{"name":"_guid","type":"bytes32","internalType":"bytes32"},{"name":"_message","type":"bytes","internalType":"bytes"},{"name":"_executor","type":"address","internalType":"address"},{"name":"_extraData","type":"bytes","internalType":"bytes"}],"outputs":[],"stateMutability":"payable"},{"type":"function","name":"msgInspector","inputs":[],"outputs":[{"name":"","type":"address","internalType":"address"}],"stateMutability":"view"},{"type":"function","name":"nextNonce","inputs":[{"name":"","type":"uint32","internalType":"uint32"},{"name":"","type":"bytes32","internalType":"bytes32"}],"outputs":[{"name":"nonce","type":"uint64","internalType":"uint64"}],"stateMutability":"view"},{"type":"function","name":"oApp","inputs":[],"outputs":[{"name":"","type":"address","internalType":"address"}],"stateMutability":"view"},{"type":"function","name":"oAppVersion","inputs":[],"outputs":[{"name":"senderVersion","type":"uint64","internalType":"uint64"},{"name":"receiverVersion","type":"uint64","internalType":"uint64"}],"stateMutability":"pure"},{"type":"function","name":"oftVersion","inputs":[],"outputs":[{"name":"interfaceId","type":"bytes4","internalType":"bytes4"},{"name":"version","type":"uint64","internalType":"uint64"}],"stateMutability":"pure"},{"type":"function","name":"owner","inputs":[],"outputs":[{"name":"","type":"address","internalType":"address"}],"stateMutability":"view"},{"type":"function","name":"peers","inputs":[{"name":"_eid","type":"uint32","internalType":"uint32"}],"outputs":[{"name":"","type":"bytes32","internalType":"bytes32"}],"stateMutability":"view"},{"type":"function","name":"preCrime","inputs":[],"outputs":[{"name":"","type":"address","internalType":"address"}],"stateMutability":"view"},{"type":"function","name":"quoteOFT","inputs":[{"name":"_sendParam","type":"tuple","internalType":"struct SendParam","components":[{"name":"dstEid","type":"uint32","internalType":"uint32"},{"name":"to","type":"bytes32","internalType":"bytes32"},{"name":"amountLD","type":"uint256","internalType":"uint256"},{"name":"minAmountLD","type":"uint256","internalType":"uint256"},{"name":"extraOptions","type":"bytes","internalType":"bytes"},{"name":"composeMsg","type":"bytes","internalType":"bytes"},{"name":"oftCmd","type":"bytes","internalType":"bytes"}]}],"outputs":[{"name":"oftLimit","type":"tuple","internalType":"struct OFTLimit","components":[{"name":"minAmountLD","type":"uint256","internalType":"uint256"},{"name":"maxAmountLD","type":"uint256","internalType":"uint256"}]},{"name":"oftFeeDetails","type":"tuple[]","internalType":"struct OFTFeeDetail[]","components":[{"name":"feeAmountLD","type":"int256","internalType":"int256"},{"name":"description","type":"string","internalType":"string"}]},{"name":"oftReceipt","type":"tuple","internalType":"struct OFTReceipt","components":[{"name":"amountSentLD","type":"uint256","internalType":"uint256"},{"name":"amountReceivedLD","type":"uint256","internalType":"uint256"}]}],"stateMutability":"view"},{"type":"function","name":"quoteSend","inputs":[{"name":"_sendParam","type":"tuple","internalType":"struct SendParam","components":[{"name":"dstEid","type":"uint32","internalType":"uint32"},{"name":"to","type":"bytes32","internalType":"bytes32"},{"name":"amountLD","type":"uint256","internalType":"uint256"},{"name":"minAmountLD","type":"uint256","internalType":"uint256"},{"name":"extraOptions","type":"bytes","internalType":"bytes"},{"name":"composeMsg","type":"bytes","internalType":"bytes"},{"name":"oftCmd","type":"bytes","internalType":"bytes"}]},{"name":"_payInLzToken","type":"bool","internalType":"bool"}],"outputs":[{"name":"msgFee","type":"tuple","internalType":"struct MessagingFee","components":[{"name":"nativeFee","type":"uint256","internalType":"uint256"},{"name":"lzTokenFee","type":"uint256","internalType":"uint256"}]}],"stateMutability":"view"},{"type":"function","name":"renounceOwnership","inputs":[],"outputs":[],"stateMutability":"nonpayable"},{"type":"function","name":"send","inputs":[{"name":"_sendParam","type":"tuple","internalType":"struct SendParam","components":[{"name":"dstEid","type":"uint32","internalType":"uint32"},{"name":"to","type":"bytes32","internalType":"bytes32"},{"name":"amountLD","type":"uint256","internalType":"uint256"},{"name":"minAmountLD","type":"uint256","internalType":"uint256"},{"name":"extraOptions","type":"bytes","internalType":"bytes"},{"name":"composeMsg","type":"bytes","internalType":"bytes"},{"name":"oftCmd","type":"bytes","internalType":"bytes"}]},{"name":"_fee","type":"tuple","internalType":"struct MessagingFee","components":[{"name":"nativeFee","type":"uint256","internalType":"uint256"},{"name":"lzTokenFee","type":"uint256","internalType":"uint256"}]},{"name":"_refundAddress","type":"address","internalType":"address"}],"outputs":[{"name":"msgReceipt","type":"tuple","internalType":"struct MessagingReceipt","components":[{"name":"guid","type":"bytes32","internalType":"bytes32"},{"name":"nonce","type":"uint64","internalType":"uint64"},{"name":"fee","type":"tuple","internalType":"struct MessagingFee","components":[{"name":"nativeFee","type":"uint256","internalType":"uint256"},{"name":"lzTokenFee","type":"uint256","internalType":"uint256"}]}]},{"name":"oftReceipt","type":"tuple","internalType":"struct OFTReceipt","components":[{"name":"amountSentLD","type":"uint256","internalType":"uint256"},{"name":"amountReceivedLD","type":"uint256","internalType":"uint256"}]}],"stateMutability":"payable"},{"type":"function","name":"setDelegate","inputs":[{"name":"_delegate","type":"address","internalType":"address"}],"outputs":[],"stateMutability":"nonpayable"},{"type":"function","name":"setElevatedMinterBurner","inputs":[{"name":"_elevatedMinterBurner","type":"address","internalType":"address"}],"outputs":[],"stateMutability":"nonpayable"},{"type":"function","name":"setEnforcedOptions","inputs":[{"name":"_enforcedOptions","type":"tuple[]","internalType":"struct EnforcedOptionParam[]","components":[{"name":"eid","type":"uint32","internalType":"uint32"},{"name":"msgType","type":"uint16","internalType":"uint16"},{"name":"options","type":"bytes","internalType":"bytes"}]}],"outputs":[],"stateMutability":"nonpayable"},{"type":"function","name":"setMsgInspector","inputs":[{"name":"_msgInspector","type":"address","internalType":"address"}],"outputs":[],"stateMutability":"nonpayable"},{"type":"function","name":"setPeer","inputs":[{"name":"_eid","type":"uint32","internalType":"uint32"},{"name":"_peer","type":"bytes32","internalType":"bytes32"}],"outputs":[],"stateMutability":"nonpayable"},{"type":"function","name":"setPreCrime","inputs":[{"name":"_preCrime","type":"address","internalType":"address"}],"outputs":[],"stateMutability":"nonpayable"},{"type":"function","name":"sharedDecimals","inputs":[],"outputs":[{"name":"","type":"uint8","internalType":"uint8"}],"stateMutability":"pure"},{"type":"function","name":"token","inputs":[],"outputs":[{"name":"","type":"address","internalType":"address"}],"stateMutability":"view"},{"type":"function","name":"tokenOft","inputs":[],"outputs":[{"name":"","type":"address","internalType":"address"}],"stateMutability":"view"},{"type":"function","name":"transferOwnership","inputs":[{"name":"newOwner","type":"address","internalType":"address"}],"outputs":[],"stateMutability":"nonpayable"},{"type":"event","name":"Credit","inputs":[{"name":"to","type":"address","indexed":false,"internalType":"address"},{"name":"amount","type":"uint256","indexed":false,"internalType":"uint256"}],"anonymous":false},{"type":"event","name":"Debit","inputs":[{"name":"from","type":"address","indexed":false,"internalType":"address"},{"name":"amount","type":"uint256","indexed":false,"internalType":"uint256"}],"anonymous":false},{"type":"event","name":"EnforcedOptionSet","inputs":[{"name":"_enforcedOptions","type":"tuple[]","indexed":false,"internalType":"struct EnforcedOptionParam[]","components":[{"name":"eid","type":"uint32","internalType":"uint32"},{"name":"msgType","type":"uint16","internalType":"uint16"},{"name":"options","type":"bytes","internalType":"bytes"}]}],"anonymous":false},{"type":"event","name":"Initialized","inputs":[{"name":"version","type":"uint64","indexed":false,"internalType":"uint64"}],"anonymous":false},{"type":"event","name":"MsgInspectorSet","inputs":[{"name":"inspector","type":"address","indexed":false,"internalType":"address"}],"anonymous":false},{"type":"event","name":"OFTReceived","inputs":[{"name":"guid","type":"bytes32","indexed":true,"internalType":"bytes32"},{"name":"srcEid","type":"uint32","indexed":false,"internalType":"uint32"},{"name":"toAddress","type":"address","indexed":true,"internalType":"address"},{"name":"amountReceivedLD","type":"uint256","indexed":false,"internalType":"uint256"}],"anonymous":false},{"type":"event","name":"OFTSent","inputs":[{"name":"guid","type":"bytes32","indexed":true,"internalType":"bytes32"},{"name":"dstEid","type":"uint32","indexed":false,"internalType":"uint32"},{"name":"fromAddress","type":"address","indexed":true,"internalType":"address"},{"name":"amountSentLD","type":"uint256","indexed":false,"internalType":"uint256"},{"name":"amountReceivedLD","type":"uint256","indexed":false,"internalType":"uint256"}],"anonymous":false},{"type":"event","name":"OwnershipTransferred","inputs":[{"name":"previousOwner","type":"address","indexed":true,"internalType":"address"},{"name":"newOwner","type":"address","indexed":true,"internalType":"address"}],"anonymous":false},{"type":"event","name":"PeerSet","inputs":[{"name":"eid","type":"uint32","indexed":false,"internalType":"uint32"},{"name":"peer","type":"bytes32","indexed":false,"internalType":"bytes32"}],"anonymous":false},{"type":"event","name":"PreCrimeSet","inputs":[{"name":"preCrimeAddress","type":"address","indexed":false,"internalType":"address"}],"anonymous":false},{"type":"error","name":"AmountSDOverflowed","inputs":[{"name":"amountSD","type":"uint256","internalType":"uint256"}]},{"type":"error","name":"InsufficientBalance","inputs":[]},{"type":"error","name":"InvalidDelegate","inputs":[]},{"type":"error","name":"InvalidEndpointCall","inputs":[]},{"type":"error","name":"InvalidInitialization","inputs":[]},{"type":"error","name":"InvalidLocalDecimals","inputs":[]},{"type":"error","name":"InvalidOptions","inputs":[{"name":"options","type":"bytes","internalType":"bytes"}]},{"type":"error","name":"LzTokenUnavailable","inputs":[]},{"type":"error","name":"NoPeer","inputs":[{"name":"eid","type":"uint32","internalType":"uint32"}]},{"type":"error","name":"NotEnoughNative","inputs":[{"name":"msgValue","type":"uint256","internalType":"uint256"}]},{"type":"error","name":"NotInitializing","inputs":[]},{"type":"error","name":"OnlyEndpoint","inputs":[{"name":"addr","type":"address","internalType":"address"}]},{"type":"error","name":"OnlyPeer","inputs":[{"name":"eid","type":"uint32","internalType":"uint32"},{"name":"sender","type":"bytes32","internalType":"bytes32"}]},{"type":"error","name":"OnlySelf","inputs":[]},{"type":"error","name":"OwnableInvalidOwner","inputs":[{"name":"owner","type":"address","internalType":"address"}]},{"type":"error","name":"OwnableUnauthorizedAccount","inputs":[{"name":"account","type":"address","internalType":"address"}]},{"type":"error","name":"ReentrancyGuardReentrantCall","inputs":[]},{"type":"error","name":"SafeERC20FailedOperation","inputs":[{"name":"token","type":"address","internalType":"address"}]},{"type":"error","name":"SimulationResult","inputs":[{"name":"result","type":"bytes","internalType":"bytes"}]},{"type":"error","name":"SlippageExceeded","inputs":[{"name":"amountLD","type":"uint256","internalType":"uint256"},{"name":"minAmountLD","type":"uint256","internalType":"uint256"}]}],"bytecode":{"object":"0x60e060405234801561000f575f5ffd5b5060405161573a38038061573a8339818101604052810190610031919061034c565b81818173ffffffffffffffffffffffffffffffffffffffff1663313ce5676040518163ffffffff1660e01b8152600401602060405180830381865afa15801561007c573d5f5f3e3d5ffd5b505050506040513d601f19601f820116820180604052508101906100a091906103c0565b8180808073ffffffffffffffffffffffffffffffffffffffff1660808173ffffffffffffffffffffffffffffffffffffffff168152505050506100e76101a660201b60201c565b60ff168260ff161015610126576040517f1e9714b000000000000000000000000000000000000000000000000000000000815260040160405180910390fd5b6101346101a660201b60201c565b8261013f9190610418565b600a61014b9190610584565b60a0818152505050508173ffffffffffffffffffffffffffffffffffffffff1660c08173ffffffffffffffffffffffffffffffffffffffff1681525050505060015f8190555061019f6101ae60201b60201c565b5050610609565b5f6006905090565b5f6101bd6102ac60201b60201c565b9050805f0160089054906101000a900460ff1615610207576040517ff92ee8a900000000000000000000000000000000000000000000000000000000815260040160405180910390fd5b67ffffffffffffffff8016815f015f9054906101000a900467ffffffffffffffff1667ffffffffffffffff16146102a95767ffffffffffffffff815f015f6101000a81548167ffffffffffffffff021916908367ffffffffffffffff1602179055507fc7f505b2f371ae2175ee4913f4499e1f2633a7b5936321eed1cdaeb6115181d267ffffffffffffffff6040516102a091906105f0565b60405180910390a15b50565b5f5f6102bc6102c560201b60201c565b90508091505090565b5f7ff0c57e16840df040f15088dc2f81fe391c3923bec73e23a9662efc9c229c6a005f1b905090565b5f5ffd5b5f73ffffffffffffffffffffffffffffffffffffffff82169050919050565b5f61031b826102f2565b9050919050565b61032b81610311565b8114610335575f5ffd5b50565b5f8151905061034681610322565b92915050565b5f5f60408385031215610362576103616102ee565b5b5f61036f85828601610338565b925050602061038085828601610338565b9150509250929050565b5f60ff82169050919050565b61039f8161038a565b81146103a9575f5ffd5b50565b5f815190506103ba81610396565b92915050565b5f602082840312156103d5576103d46102ee565b5b5f6103e2848285016103ac565b91505092915050565b7f4e487b71000000000000000000000000000000000000000000000000000000005f52601160045260245ffd5b5f6104228261038a565b915061042d8361038a565b9250828203905060ff811115610446576104456103eb565b5b92915050565b5f8160011c9050919050565b5f5f8291508390505b60018511156104a15780860481111561047d5761047c6103eb565b5b600185161561048c5780820291505b808102905061049a8561044c565b9450610461565b94509492505050565b5f826104b95760019050610574565b816104c6575f9050610574565b81600181146104dc57600281146104e657610515565b6001915050610574565b60ff8411156104f8576104f76103eb565b5b8360020a91508482111561050f5761050e6103eb565b5b50610574565b5060208310610133831016604e8410600b841016171561054a5782820a905083811115610545576105446103eb565b5b610574565b6105578484846001610458565b9250905081840481111561056e5761056d6103eb565b5b81810290505b9392505050565b5f819050919050565b5f61058e8261057b565b91506105998361038a565b92506105c67fffffffffffffffffffffffffffffffffffffffffffffffffffffffffffffffff84846104aa565b905092915050565b5f67ffffffffffffffff82169050919050565b6105ea816105ce565b82525050565b5f6020820190506106035f8301846105e1565b92915050565b60805160a05160c0516150b36106875f395f611a1401525f81816110a0015281816125c8015281816125e90152818161268d01526129d001525f81816109f401528181610f23015281816117c501528181611bf501528181611f44015281816124ca01528181612bce01528181612cc60152612f3901526150b35ff3fe608060405260043610610224575f3560e01c806382413eac11610122578063bc70b354116100aa578063d045a0dc1161006e578063d045a0dc146107f1578063d42438851461080d578063f2fde38b14610835578063fc0c546a1461085d578063ff7bd03d1461088757610224565b8063bc70b35414610716578063bd815db014610752578063c7c7f5b31461076e578063ca5eb5e11461079f578063ccae6664146107c757610224565b80639f68b964116100f15780639f68b96414610636578063b731ea0a14610660578063b98bd0701461068a578063bb0b6a53146106b2578063bc4565c4146106ee57610224565b806382413eac1461057c578063857749b0146105b85780638da5cb5b146105e2578063963efcaa1461060c57610224565b80633b6f743b116101b05780635e280f11116101745780635e280f11146104ae5780636fc1b31e146104d8578063715018a6146105005780637d25a05e146105165780638108bb7e1461055257610224565b80633b6f743b146103a8578063485cc955146103e457806352ae28791461040c5780635535d461146104365780635a0dfe4d1461047257610224565b8063134d4f25116101f7578063134d4f25146102d6578063156a0d0f1461030057806317442b701461032b5780631f5e1334146103565780633400288b1461038057610224565b8063017c25a7146102285780630d35b41514610252578063111ecdad1461029057806313137d65146102ba575b5f5ffd5b348015610233575f5ffd5b5061023c6108c3565b6040516102499190613068565b60405180910390f35b34801561025d575f5ffd5b50610278600480360381019061027391906130b4565b6108c9565b604051610287939291906132e1565b60405180910390f35b34801561029b575f5ffd5b506102a46109a6565b6040516102b1919061335c565b60405180910390f35b6102d460048036038101906102cf9190613451565b6109db565b005b3480156102e1575f5ffd5b506102ea610afb565b6040516102f79190613524565b60405180910390f35b34801561030b575f5ffd5b50610314610b00565b604051610322929190613599565b60405180910390f35b348015610336575f5ffd5b5061033f610b2d565b60405161034d9291906135c0565b60405180910390f35b348015610361575f5ffd5b5061036a610b3b565b6040516103779190613524565b60405180910390f35b34801561038b575f5ffd5b506103a660048036038101906103a19190613620565b610b40565b005b3480156103b3575f5ffd5b506103ce60048036038101906103c99190613693565b610bb4565b6040516103db919061371a565b60405180910390f35b3480156103ef575f5ffd5b5061040a60048036038101906104059190613733565b610c1c565b005b348015610417575f5ffd5b50610420610e34565b60405161042d919061335c565b60405180910390f35b348015610441575f5ffd5b5061045c6004803603810190610457919061379b565b610e3b565b604051610469919061382b565b60405180910390f35b34801561047d575f5ffd5b5061049860048036038101906104939190613620565b610f0d565b6040516104a5919061385a565b60405180910390f35b3480156104b9575f5ffd5b506104c2610f21565b6040516104cf91906138ce565b60405180910390f35b3480156104e3575f5ffd5b506104fe60048036038101906104f991906138e7565b610f45565b005b34801561050b575f5ffd5b50610514610fd4565b005b348015610521575f5ffd5b5061053c60048036038101906105379190613620565b610fe7565b6040516105499190613912565b60405180910390f35b34801561055d575f5ffd5b50610566610ff1565b604051610573919061335c565b60405180910390f35b348015610587575f5ffd5b506105a2600480360381019061059d919061392b565b611027565b6040516105af919061385a565b60405180910390f35b3480156105c3575f5ffd5b506105cc611061565b6040516105d991906139b7565b60405180910390f35b3480156105ed575f5ffd5b506105f6611069565b604051610603919061335c565b60405180910390f35b348015610617575f5ffd5b5061062061109e565b60405161062d9190613068565b60405180910390f35b348015610641575f5ffd5b5061064a6110c2565b604051610657919061385a565b60405180910390f35b34801561066b575f5ffd5b506106746110ca565b604051610681919061335c565b60405180910390f35b348015610695575f5ffd5b506106b060048036038101906106ab9190613a25565b6110ff565b005b3480156106bd575f5ffd5b506106d860048036038101906106d39190613a70565b61128c565b6040516106e59190613aaa565b60405180910390f35b3480156106f9575f5ffd5b50610714600480360381019061070f91906138e7565b6112bf565b005b348015610721575f5ffd5b5061073c60048036038101906107379190613ac3565b611318565b604051610749919061382b565b60405180910390f35b61076c60048036038101906107679190613b89565b6114e7565b005b61078860048036038101906107839190613bf2565b6116b6565b604051610796929190613ce9565b60405180910390f35b3480156107aa575f5ffd5b506107c560048036038101906107c091906138e7565b6117bb565b005b3480156107d2575f5ffd5b506107db61184c565b6040516107e8919061335c565b60405180910390f35b61080b60048036038101906108069190613451565b611881565b005b348015610818575f5ffd5b50610833600480360381019061082e91906138e7565b6118fe565b005b348015610840575f5ffd5b5061085b600480360381019061085691906138e7565b61198d565b005b348015610868575f5ffd5b50610871611a11565b60405161087e919061335c565b60405180910390f35b348015610892575f5ffd5b506108ad60048036038101906108a89190613d10565b611a38565b6040516108ba919061385a565b60405180910390f35b61138b81565b6108d1612fc0565b60606108db612fd8565b5f5f90505f67ffffffffffffffff8016905060405180604001604052808381526020018281525094505f67ffffffffffffffff81111561091e5761091d613d3b565b5b60405190808252806020026020018201604052801561095757816020015b610944612ff0565b81526020019060019003908161093c5790505b5093505f5f610980886040013589606001358a5f01602081019061097b9190613a70565b611a60565b915091506040518060400160405280838152602001828152509450505050509193909250565b5f5f6109b0611abf565b9050805f015f9054906101000a900473ffffffffffffffffffffffffffffffffffffffff1691505090565b3373ffffffffffffffffffffffffffffffffffffffff167f000000000000000000000000000000000000000000000000000000000000000073ffffffffffffffffffffffffffffffffffffffff1614610a6b57336040517f91ac5e4f000000000000000000000000000000000000000000000000000000008152600401610a62919061335c565b60405180910390fd5b8660200135610a8a885f016020810190610a859190613a70565b611ae6565b14610ae357865f016020810190610aa19190613a70565b87602001356040517fc26bebcc000000000000000000000000000000000000000000000000000000008152600401610ada929190613d77565b60405180910390fd5b610af287878787878787611b64565b50505050505050565b600281565b5f5f7f02e49c2c000000000000000000000000000000000000000000000000000000006001915091509091565b5f5f60016002915091509091565b600181565b610b48611cee565b5f610b51611d75565b905081815f015f8563ffffffff1663ffffffff1681526020019081526020015f20819055507f238399d427b947898edb290f5ff0f9109849b1c3ba196a42e35f00c50a54b98b8383604051610ba7929190613d77565b60405180910390a1505050565b610bbc613009565b5f610be184604001358560600135865f016020810190610bdc9190613a70565b611a60565b9150505f5f610bf08684611d9c565b91509150610c11865f016020810190610c099190613a70565b838388611f3a565b935050505092915050565b5f610c2561201b565b90505f815f0160089054906101000a900460ff161590505f825f015f9054906101000a900467ffffffffffffffff1690505f5f8267ffffffffffffffff16148015610c6d5750825b90505f60018367ffffffffffffffff16148015610ca057505f3073ffffffffffffffffffffffffffffffffffffffff163b145b905081158015610cae575080155b15610ce5576040517ff92ee8a900000000000000000000000000000000000000000000000000000000815260040160405180910390fd5b6001855f015f6101000a81548167ffffffffffffffff021916908367ffffffffffffffff1602179055508315610d32576001855f0160086101000a81548160ff0219169083151502179055505b610d3b8761202e565b5f610d44612042565b9050610d4e611a11565b815f015f6101000a81548173ffffffffffffffffffffffffffffffffffffffff021916908373ffffffffffffffffffffffffffffffffffffffff16021790555086816001015f6101000a81548173ffffffffffffffffffffffffffffffffffffffff021916908373ffffffffffffffffffffffffffffffffffffffff160217905550508315610e2b575f855f0160086101000a81548160ff0219169083151502179055507fc7f505b2f371ae2175ee4913f4499e1f2633a7b5936321eed1cdaeb6115181d26001604051610e229190613dd7565b60405180910390a15b50505050505050565b5f30905090565b60605f610e46612069565b9050805f015f8563ffffffff1663ffffffff1681526020019081526020015f205f8461ffff1661ffff1681526020019081526020015f208054610e8890613e1d565b80601f0160208091040260200160405190810160405280929190818152602001828054610eb490613e1d565b8015610eff5780601f10610ed657610100808354040283529160200191610eff565b820191905f5260205f20905b815481529060010190602001808311610ee257829003601f168201915b505050505091505092915050565b5f81610f188461128c565b14905092915050565b7f000000000000000000000000000000000000000000000000000000000000000081565b610f4d611cee565b5f610f56611abf565b905081815f015f6101000a81548173ffffffffffffffffffffffffffffffffffffffff021916908373ffffffffffffffffffffffffffffffffffffffff1602179055507ff0be4f1e87349231d80c36b33f9e8639658eeaf474014dee15a3e6a4d441419782604051610fc8919061335c565b60405180910390a15050565b610fdc611cee565b610fe55f612090565b565b5f5f905092915050565b5f5f610ffb612042565b9050806001015f9054906101000a900473ffffffffffffffffffffffffffffffffffffffff1691505090565b5f3073ffffffffffffffffffffffffffffffffffffffff168273ffffffffffffffffffffffffffffffffffffffff16149050949350505050565b5f6006905090565b5f5f611073612161565b9050805f015f9054906101000a900473ffffffffffffffffffffffffffffffffffffffff1691505090565b7f000000000000000000000000000000000000000000000000000000000000000081565b5f6001905090565b5f5f6110d4612188565b9050805f015f9054906101000a900473ffffffffffffffffffffffffffffffffffffffff1691505090565b611107611cee565b5f611110612069565b90505f5f90505b8383905081101561124d5761115e84848381811061113857611137613e4d565b5b905060200281019061114a9190613e86565b80604001906111599190613ead565b6121af565b83838281811061117157611170613e4d565b5b90506020028101906111839190613e86565b80604001906111929190613ead565b835f015f8787868181106111a9576111a8613e4d565b5b90506020028101906111bb9190613e86565b5f0160208101906111cc9190613a70565b63ffffffff1663ffffffff1681526020019081526020015f205f8787868181106111f9576111f8613e4d565b5b905060200281019061120b9190613e86565b602001602081019061121d9190613f0f565b61ffff1661ffff1681526020019081526020015f20918261123f9291906140db565b508080600101915050611117565b507fbe4864a8e820971c0247f5992e2da559595f7bf076a21cb5928d443d2a13b674838360405161127f9291906143e2565b60405180910390a1505050565b5f5f611296611d75565b9050805f015f8463ffffffff1663ffffffff1681526020019081526020015f2054915050919050565b6112c7611cee565b5f6112d0612042565b905081816001015f6101000a81548173ffffffffffffffffffffffffffffffffffffffff021916908373ffffffffffffffffffffffffffffffffffffffff1602179055505050565b60605f611323612069565b90505f815f015f8863ffffffff1663ffffffff1681526020019081526020015f205f8761ffff1661ffff1681526020019081526020015f20805461136690613e1d565b80601f016020809104026020016040519081016040528092919081815260200182805461139290613e1d565b80156113dd5780601f106113b4576101008083540402835291602001916113dd565b820191905f5260205f20905b8154815290600101906020018083116113c057829003601f168201915b505050505090505f8151036114395784848080601f0160208091040260200160405190810160405280939291908181526020018383808284375f81840152601f19601f82011690508083019250505050505050925050506114df565b5f858590500361144d5780925050506114df565b600285859050106114a05761146285856121af565b80858560029080926114769392919061440c565b604051602001611488939291906144a4565b604051602081830303815290604052925050506114df565b84846040517f9a6d49cd0000000000000000000000000000000000000000000000000000000081526004016114d69291906144f5565b60405180910390fd5b949350505050565b5f5f90505b82829050811015611609573683838381811061150b5761150a613e4d565b5b905060200281019061151d9190614517565b9050611542815f015f0160208101906115369190613a70565b825f0160200135610f0d565b61154c57506115fc565b3073ffffffffffffffffffffffffffffffffffffffff1663d045a0dc8260c00135835f018460a00135858061010001906115869190613ead565b8760e001602081019061159991906138e7565b888061012001906115aa9190613ead565b6040518963ffffffff1660e01b81526004016115cc97969594939291906145ed565b5f604051808303818588803b1580156115e3575f5ffd5b505af11580156115f5573d5f5f3e3d5ffd5b5050505050505b80806001019150506114ec565b503373ffffffffffffffffffffffffffffffffffffffff16638e9e70996040518163ffffffff1660e01b81526004015f60405180830381865afa158015611652573d5f5f3e3d5ffd5b505050506040513d5f823e3d601f19601f8201168201806040525081019061167a919061473d565b6040517f8351eea70000000000000000000000000000000000000000000000000000000081526004016116ad919061382b565b60405180910390fd5b6116be613021565b6116c6612fd8565b5f5f6116ed33886040013589606001358a5f0160208101906116e89190613a70565b612227565b915091505f5f6116fd8984611d9c565b9150915061172f895f0160208101906117169190613a70565b83838b80360381019061172991906147ff565b8b612497565b955060405180604001604052808581526020018481525094503373ffffffffffffffffffffffffffffffffffffffff16865f01517f85496b760a4b7f8d66384b9df21b381f5d1b1e79f229a47aaf4c232edc2fe59a8b5f0160208101906117969190613a70565b87876040516117a79392919061482a565b60405180910390a350505050935093915050565b6117c3611cee565b7f000000000000000000000000000000000000000000000000000000000000000073ffffffffffffffffffffffffffffffffffffffff1663ca5eb5e1826040518263ffffffff1660e01b815260040161181c919061335c565b5f604051808303815f87803b158015611833575f5ffd5b505af1158015611845573d5f5f3e3d5ffd5b5050505050565b5f5f611856612042565b9050805f015f9054906101000a900473ffffffffffffffffffffffffffffffffffffffff1691505090565b3073ffffffffffffffffffffffffffffffffffffffff163373ffffffffffffffffffffffffffffffffffffffff16146118e6576040517f14d4a4e800000000000000000000000000000000000000000000000000000000815260040160405180910390fd5b6118f5878787878787876125ad565b50505050505050565b611906611cee565b5f61190f612188565b905081815f015f6101000a81548173ffffffffffffffffffffffffffffffffffffffff021916908373ffffffffffffffffffffffffffffffffffffffff1602179055507fd48d879cef83a1c0bdda516f27b13ddb1b3f8bbac1c9e1511bb2a659c242776082604051611981919061335c565b60405180910390a15050565b611995611cee565b5f73ffffffffffffffffffffffffffffffffffffffff168173ffffffffffffffffffffffffffffffffffffffff1603611a05575f6040517f1e4fbdf70000000000000000000000000000000000000000000000000000000081526004016119fc919061335c565b60405180910390fd5b611a0e81612090565b50565b5f7f0000000000000000000000000000000000000000000000000000000000000000905090565b5f8160200135611a58835f016020810190611a539190613a70565b61128c565b149050919050565b5f5f611a6b856125c5565b915081905083811015611ab75780846040517f71c4efed000000000000000000000000000000000000000000000000000000008152600401611aae92919061485f565b60405180910390fd5b935093915050565b5f7f41db8a78b0206aba5c54bcbfc2bda0d84082a84eb88e680379a57b9e9f653c00905090565b5f5f611af0611d75565b90505f815f015f8563ffffffff1663ffffffff1681526020019081526020015f205490505f5f1b8103611b5a57836040517ff6ff4fb7000000000000000000000000000000000000000000000000000000008152600401611b519190614886565b60405180910390fd5b8092505050919050565b5f611b77611b728787612624565b61264e565b90505f611ba782611b90611b8b8a8a612659565b61268a565b8b5f016020810190611ba29190613a70565b6126c8565b9050611bb3878761291f565b15611c81575f611bf18a6040016020810190611bcf919061489f565b8b5f016020810190611be19190613a70565b84611bec8c8c612932565b612994565b90507f000000000000000000000000000000000000000000000000000000000000000073ffffffffffffffffffffffffffffffffffffffff16637cb59012848b5f856040518563ffffffff1660e01b8152600401611c529493929190614903565b5f604051808303815f87803b158015611c69575f5ffd5b505af1158015611c7b573d5f5f3e3d5ffd5b50505050505b8173ffffffffffffffffffffffffffffffffffffffff16887fefed6d3500546b29533b128a29e3a94d70788727f0507505ac12eaf2e578fd9c8b5f016020810190611ccc9190613a70565b84604051611cdb92919061494d565b60405180910390a3505050505050505050565b611cf66129c6565b73ffffffffffffffffffffffffffffffffffffffff16611d14611069565b73ffffffffffffffffffffffffffffffffffffffff1614611d7357611d376129c6565b6040517f118cdaa7000000000000000000000000000000000000000000000000000000008152600401611d6a919061335c565b60405180910390fd5b565b5f7f72ab1bc1039b79dc4724ffca13de82c96834302d3c7e0d4252232d4b2dd8f900905090565b6060805f611e088560200135611db1866129cd565b878060a00190611dc19190613ead565b8080601f0160208091040260200160405190810160405280939291908181526020018383808284375f81840152601f19601f82011690508083019250505050505050612a01565b80925081945050505f81611e1d576001611e20565b60025b9050611e4d865f016020810190611e379190613a70565b82888060800190611e489190613ead565b611318565b92505f611e58611abf565b90505f815f015f9054906101000a900473ffffffffffffffffffffffffffffffffffffffff1690505f73ffffffffffffffffffffffffffffffffffffffff168173ffffffffffffffffffffffffffffffffffffffff1614611f2f578073ffffffffffffffffffffffffffffffffffffffff1663043a78eb87876040518363ffffffff1660e01b8152600401611eee929190614974565b602060405180830381865afa158015611f09573d5f5f3e3d5ffd5b505050506040513d601f19601f82011682018060405250810190611f2d91906149bd565b505b505050509250929050565b611f42613009565b7f000000000000000000000000000000000000000000000000000000000000000073ffffffffffffffffffffffffffffffffffffffff1663ddc28c586040518060a001604052808863ffffffff168152602001611f9e89611ae6565b8152602001878152602001868152602001851515815250306040518363ffffffff1660e01b8152600401611fd3929190614aa9565b6040805180830381865afa158015611fed573d5f5f3e3d5ffd5b505050506040513d601f19601f820116820180604052508101906120119190614b38565b9050949350505050565b5f5f612025612a6f565b90508091505090565b612036612a98565b61203f81612ad8565b50565b5f7f8f9d1c5e4b6a3d2f1e0c9b8a7d6e5f4c3b2a1d0e9f8c7b6a5d4e3f2c1b0a9d00905090565b5f7f8d2bda5d9f6ffb5796910376005392955773acee5548d0fcdb10e7c264ea0000905090565b5f612099612161565b90505f815f015f9054906101000a900473ffffffffffffffffffffffffffffffffffffffff16905082825f015f6101000a81548173ffffffffffffffffffffffffffffffffffffffff021916908373ffffffffffffffffffffffffffffffffffffffff1602179055508273ffffffffffffffffffffffffffffffffffffffff168173ffffffffffffffffffffffffffffffffffffffff167f8be0079c531659141344cd1fd0a4f28419497f9722a3daafe3b4186f6b6457e060405160405180910390a3505050565b5f7f9016d09d72d40fdae2fd8ceac6b6234c7706214fd39c1cd1e609a0528c199300905090565b5f7fefb041d771d6daaa55702fff6eb740d63ba559a75d2d1d3e151c78ff2480b600905090565b5f82825f906002926121c39392919061440c565b906121ce9190614b8e565b60f01c9050600361ffff168161ffff16146122225782826040517f9a6d49cd0000000000000000000000000000000000000000000000000000000081526004016122199291906144f5565b60405180910390fd5b505050565b5f5f5f612232612042565b905061223f868686611a60565b809350819450505061138b46036122a45761229f873085845f015f9054906101000a900473ffffffffffffffffffffffffffffffffffffffff1673ffffffffffffffffffffffffffffffffffffffff16612afc909392919063ffffffff16565b612454565b6122f3873085845f015f9054906101000a900473ffffffffffffffffffffffffffffffffffffffff1673ffffffffffffffffffffffffffffffffffffffff16612afc909392919063ffffffff16565b805f015f9054906101000a900473ffffffffffffffffffffffffffffffffffffffff1673ffffffffffffffffffffffffffffffffffffffff1663095ea7b3826001015f9054906101000a900473ffffffffffffffffffffffffffffffffffffffff16856040518363ffffffff1660e01b8152600401612373929190614bec565b6020604051808303815f875af115801561238f573d5f5f3e3d5ffd5b505050506040513d601f19601f820116820180604052508101906123b391906149bd565b50806001015f9054906101000a900473ffffffffffffffffffffffffffffffffffffffff1673ffffffffffffffffffffffffffffffffffffffff16639dc29fac88856040518363ffffffff1660e01b8152600401612412929190614bec565b6020604051808303815f875af115801561242e573d5f5f3e3d5ffd5b505050506040513d601f19601f8201168201806040525081019061245291906149bd565b505b7f59c79d79be0fadf59fe689b6952b7ebe90201a3a1f00d4a31982377890bc60468787604051612485929190614bec565b60405180910390a15094509492505050565b61249f613021565b5f6124ac845f0151612b7e565b90505f846020015111156124c8576124c78460200151612bcb565b5b7f000000000000000000000000000000000000000000000000000000000000000073ffffffffffffffffffffffffffffffffffffffff16632637a450826040518060a001604052808b63ffffffff1681526020016125258c611ae6565b81526020018a81526020018981526020015f8960200151111515815250866040518463ffffffff1660e01b8152600401612560929190614aa9565b60806040518083038185885af115801561257c573d5f5f3e3d5ffd5b50505050506040513d601f19601f820116820180604052508101906125a19190614c9c565b91505095945050505050565b6125bc87878787878787611b64565b50505050505050565b5f7f00000000000000000000000000000000000000000000000000000000000000007f0000000000000000000000000000000000000000000000000000000000000000836126139190614d21565b61261d9190614d51565b9050919050565b5f82825f90602060ff169261263b9392919061440c565b906126469190614d92565b905092915050565b5f815f1c9050919050565b5f8282602060ff1690602860ff16926126749392919061440c565b9061267f9190614e1b565b60c01c905092915050565b5f7f00000000000000000000000000000000000000000000000000000000000000008267ffffffffffffffff166126c19190614d51565b9050919050565b5f5f6126d2612042565b90505f73ffffffffffffffffffffffffffffffffffffffff168573ffffffffffffffffffffffffffffffffffffffff160361270d5761dead94505b61138b460361283b5783815f015f9054906101000a900473ffffffffffffffffffffffffffffffffffffffff1673ffffffffffffffffffffffffffffffffffffffff166370a08231306040518263ffffffff1660e01b8152600401612772919061335c565b602060405180830381865afa15801561278d573d5f5f3e3d5ffd5b505050506040513d601f19601f820116820180604052508101906127b19190614e79565b10156127e9576040517ff4d678b800000000000000000000000000000000000000000000000000000000815260040160405180910390fd5b6128368585835f015f9054906101000a900473ffffffffffffffffffffffffffffffffffffffff1673ffffffffffffffffffffffffffffffffffffffff16612d119092919063ffffffff16565b6128db565b806001015f9054906101000a900473ffffffffffffffffffffffffffffffffffffffff1673ffffffffffffffffffffffffffffffffffffffff166340c10f1986866040518363ffffffff1660e01b8152600401612899929190614bec565b6020604051808303815f875af11580156128b5573d5f5f3e3d5ffd5b505050506040513d601f19601f820116820180604052508101906128d991906149bd565b505b7f1bbf55d483639f8103dc4e035af71a4fbdb16c80be740fa3eef81198acefa094858560405161290c929190614bec565b60405180910390a1839150509392505050565b5f602860ff168383905011905092915050565b60608282602860ff1690809261294a9392919061440c565b8080601f0160208091040260200160405190810160405280939291908181526020018383808284375f81840152601f19601f82011690508083019250505050505050905092915050565b6060848484846040516020016129ad9493929190614f2c565b6040516020818303038152906040529050949350505050565b5f33905090565b5f7f0000000000000000000000000000000000000000000000000000000000000000826129fa9190614d21565b9050919050565b60605f5f835111905080612a36578484604051602001612a22929190614f95565b604051602081830303815290604052612a65565b8484612a4133612d90565b85604051602001612a559493929190614fc0565b6040516020818303038152906040525b9150935093915050565b5f7ff0c57e16840df040f15088dc2f81fe391c3923bec73e23a9662efc9c229c6a005f1b905090565b612aa0612db1565b612ad6576040517fd7e6bcf800000000000000000000000000000000000000000000000000000000815260040160405180910390fd5b565b612ae0612a98565b612ae981612dcf565b612af1612df3565b612af9612dfd565b50565b612b78848573ffffffffffffffffffffffffffffffffffffffff166323b872dd868686604051602401612b3193929190615009565b604051602081830303815290604052915060e01b6020820180517bffffffffffffffffffffffffffffffffffffffffffffffffffffffff8381831617835250505050612e07565b50505050565b5f813414612bc357346040517f9f704120000000000000000000000000000000000000000000000000000000008152600401612bba9190613068565b60405180910390fd5b819050919050565b5f7f000000000000000000000000000000000000000000000000000000000000000073ffffffffffffffffffffffffffffffffffffffff1663e4fe1d946040518163ffffffff1660e01b8152600401602060405180830381865afa158015612c35573d5f5f3e3d5ffd5b505050506040513d601f19601f82011682018060405250810190612c599190615052565b90505f73ffffffffffffffffffffffffffffffffffffffff168173ffffffffffffffffffffffffffffffffffffffff1603612cc0576040517f5373352a00000000000000000000000000000000000000000000000000000000815260040160405180910390fd5b612d0d337f0000000000000000000000000000000000000000000000000000000000000000848473ffffffffffffffffffffffffffffffffffffffff16612afc909392919063ffffffff16565b5050565b612d8b838473ffffffffffffffffffffffffffffffffffffffff1663a9059cbb8585604051602401612d44929190614bec565b604051602081830303815290604052915060e01b6020820180517bffffffffffffffffffffffffffffffffffffffffffffffffffffffff8381831617835250505050612e07565b505050565b5f8173ffffffffffffffffffffffffffffffffffffffff165f1b9050919050565b5f612dba61201b565b5f0160089054906101000a900460ff16905090565b612dd7612a98565b612de081612ea2565b612de8612eb6565b612df0612ec0565b50565b612dfb612a98565b565b612e05612a98565b565b5f5f60205f8451602086015f885af180612e26576040513d5f823e3d81fd5b3d92505f519150505f8214612e3f576001811415612e5a565b5f8473ffffffffffffffffffffffffffffffffffffffff163b145b15612e9c57836040517f5274afe7000000000000000000000000000000000000000000000000000000008152600401612e93919061335c565b60405180910390fd5b50505050565b612eaa612a98565b612eb381612eca565b50565b612ebe612a98565b565b612ec8612a98565b565b612ed2612a98565b5f73ffffffffffffffffffffffffffffffffffffffff168173ffffffffffffffffffffffffffffffffffffffff1603612f37576040517fb586360400000000000000000000000000000000000000000000000000000000815260040160405180910390fd5b7f000000000000000000000000000000000000000000000000000000000000000073ffffffffffffffffffffffffffffffffffffffff1663ca5eb5e1826040518263ffffffff1660e01b8152600401612f90919061335c565b5f604051808303815f87803b158015612fa7575f5ffd5b505af1158015612fb9573d5f5f3e3d5ffd5b5050505050565b60405180604001604052805f81526020015f81525090565b60405180604001604052805f81526020015f81525090565b60405180604001604052805f8152602001606081525090565b60405180604001604052805f81526020015f81525090565b60405180606001604052805f81526020015f67ffffffffffffffff16815260200161304a613009565b81525090565b5f819050919050565b61306281613050565b82525050565b5f60208201905061307b5f830184613059565b92915050565b5f604051905090565b5f5ffd5b5f5ffd5b5f5ffd5b5f60e082840312156130ab576130aa613092565b5b81905092915050565b5f602082840312156130c9576130c861308a565b5b5f82013567ffffffffffffffff8111156130e6576130e561308e565b5b6130f284828501613096565b91505092915050565b61310481613050565b82525050565b604082015f82015161311e5f8501826130fb565b50602082015161313160208501826130fb565b50505050565b5f81519050919050565b5f82825260208201905092915050565b5f819050602082019050919050565b5f819050919050565b61317281613160565b82525050565b5f81519050919050565b5f82825260208201905092915050565b8281835e5f83830152505050565b5f601f19601f8301169050919050565b5f6131ba82613178565b6131c48185613182565b93506131d4818560208601613192565b6131dd816131a0565b840191505092915050565b5f604083015f8301516131fd5f860182613169565b506020830151848203602086015261321582826131b0565b9150508091505092915050565b5f61322d83836131e8565b905092915050565b5f602082019050919050565b5f61324b82613137565b6132558185613141565b93508360208202850161326785613151565b805f5b858110156132a257848403895281516132838582613222565b945061328e83613235565b925060208a0199505060018101905061326a565b50829750879550505050505092915050565b604082015f8201516132c85f8501826130fb565b5060208201516132db60208501826130fb565b50505050565b5f60a0820190506132f45f83018661310a565b81810360408301526133068185613241565b905061331560608301846132b4565b949350505050565b5f73ffffffffffffffffffffffffffffffffffffffff82169050919050565b5f6133468261331d565b9050919050565b6133568161333c565b82525050565b5f60208201905061336f5f83018461334d565b92915050565b5f6060828403121561338a57613389613092565b5b81905092915050565b5f819050919050565b6133a581613393565b81146133af575f5ffd5b50565b5f813590506133c08161339c565b92915050565b5f5ffd5b5f5ffd5b5f5ffd5b5f5f83601f8401126133e7576133e66133c6565b5b8235905067ffffffffffffffff811115613404576134036133ca565b5b6020830191508360018202830111156134205761341f6133ce565b5b9250929050565b6134308161333c565b811461343a575f5ffd5b50565b5f8135905061344b81613427565b92915050565b5f5f5f5f5f5f5f60e0888a03121561346c5761346b61308a565b5b5f6134798a828b01613375565b975050606061348a8a828b016133b2565b965050608088013567ffffffffffffffff8111156134ab576134aa61308e565b5b6134b78a828b016133d2565b955095505060a06134ca8a828b0161343d565b93505060c088013567ffffffffffffffff8111156134eb576134ea61308e565b5b6134f78a828b016133d2565b925092505092959891949750929550565b5f61ffff82169050919050565b61351e81613508565b82525050565b5f6020820190506135375f830184613515565b92915050565b5f7fffffffff0000000000000000000000000000000000000000000000000000000082169050919050565b6135718161353d565b82525050565b5f67ffffffffffffffff82169050919050565b61359381613577565b82525050565b5f6040820190506135ac5f830185613568565b6135b9602083018461358a565b9392505050565b5f6040820190506135d35f83018561358a565b6135e0602083018461358a565b9392505050565b5f63ffffffff82169050919050565b6135ff816135e7565b8114613609575f5ffd5b50565b5f8135905061361a816135f6565b92915050565b5f5f604083850312156136365761363561308a565b5b5f6136438582860161360c565b9250506020613654858286016133b2565b9150509250929050565b5f8115159050919050565b6136728161365e565b811461367c575f5ffd5b50565b5f8135905061368d81613669565b92915050565b5f5f604083850312156136a9576136a861308a565b5b5f83013567ffffffffffffffff8111156136c6576136c561308e565b5b6136d285828601613096565b92505060206136e38582860161367f565b9150509250929050565b604082015f8201516137015f8501826130fb565b50602082015161371460208501826130fb565b50505050565b5f60408201905061372d5f8301846136ed565b92915050565b5f5f604083850312156137495761374861308a565b5b5f6137568582860161343d565b92505060206137678582860161343d565b9150509250929050565b61377a81613508565b8114613784575f5ffd5b50565b5f8135905061379581613771565b92915050565b5f5f604083850312156137b1576137b061308a565b5b5f6137be8582860161360c565b92505060206137cf85828601613787565b9150509250929050565b5f81519050919050565b5f82825260208201905092915050565b5f6137fd826137d9565b61380781856137e3565b9350613817818560208601613192565b613820816131a0565b840191505092915050565b5f6020820190508181035f83015261384381846137f3565b905092915050565b6138548161365e565b82525050565b5f60208201905061386d5f83018461384b565b92915050565b5f819050919050565b5f61389661389161388c8461331d565b613873565b61331d565b9050919050565b5f6138a78261387c565b9050919050565b5f6138b88261389d565b9050919050565b6138c8816138ae565b82525050565b5f6020820190506138e15f8301846138bf565b92915050565b5f602082840312156138fc576138fb61308a565b5b5f6139098482850161343d565b91505092915050565b5f6020820190506139255f83018461358a565b92915050565b5f5f5f5f60a085870312156139435761394261308a565b5b5f61395087828801613375565b945050606085013567ffffffffffffffff8111156139715761397061308e565b5b61397d878288016133d2565b935093505060806139908782880161343d565b91505092959194509250565b5f60ff82169050919050565b6139b18161399c565b82525050565b5f6020820190506139ca5f8301846139a8565b92915050565b5f5f83601f8401126139e5576139e46133c6565b5b8235905067ffffffffffffffff811115613a0257613a016133ca565b5b602083019150836020820283011115613a1e57613a1d6133ce565b5b9250929050565b5f5f60208385031215613a3b57613a3a61308a565b5b5f83013567ffffffffffffffff811115613a5857613a5761308e565b5b613a64858286016139d0565b92509250509250929050565b5f60208284031215613a8557613a8461308a565b5b5f613a928482850161360c565b91505092915050565b613aa481613393565b82525050565b5f602082019050613abd5f830184613a9b565b92915050565b5f5f5f5f60608587031215613adb57613ada61308a565b5b5f613ae88782880161360c565b9450506020613af987828801613787565b935050604085013567ffffffffffffffff811115613b1a57613b1961308e565b5b613b26878288016133d2565b925092505092959194509250565b5f5f83601f840112613b4957613b486133c6565b5b8235905067ffffffffffffffff811115613b6657613b656133ca565b5b602083019150836020820283011115613b8257613b816133ce565b5b9250929050565b5f5f60208385031215613b9f57613b9e61308a565b5b5f83013567ffffffffffffffff811115613bbc57613bbb61308e565b5b613bc885828601613b34565b92509250509250929050565b5f60408284031215613be957613be8613092565b5b81905092915050565b5f5f5f60808486031215613c0957613c0861308a565b5b5f84013567ffffffffffffffff811115613c2657613c2561308e565b5b613c3286828701613096565b9350506020613c4386828701613bd4565b9250506060613c548682870161343d565b9150509250925092565b613c6781613393565b82525050565b613c7681613577565b82525050565b604082015f820151613c905f8501826130fb565b506020820151613ca360208501826130fb565b50505050565b608082015f820151613cbd5f850182613c5e565b506020820151613cd06020850182613c6d565b506040820151613ce36040850182613c7c565b50505050565b5f60c082019050613cfc5f830185613ca9565b613d0960808301846132b4565b9392505050565b5f60608284031215613d2557613d2461308a565b5b5f613d3284828501613375565b91505092915050565b7f4e487b71000000000000000000000000000000000000000000000000000000005f52604160045260245ffd5b613d71816135e7565b82525050565b5f604082019050613d8a5f830185613d68565b613d976020830184613a9b565b9392505050565b5f819050919050565b5f613dc1613dbc613db784613d9e565b613873565b613577565b9050919050565b613dd181613da7565b82525050565b5f602082019050613dea5f830184613dc8565b92915050565b7f4e487b71000000000000000000000000000000000000000000000000000000005f52602260045260245ffd5b5f6002820490506001821680613e3457607f821691505b602082108103613e4757613e46613df0565b5b50919050565b7f4e487b71000000000000000000000000000000000000000000000000000000005f52603260045260245ffd5b5f5ffd5b5f5ffd5b5f5ffd5b5f82356001606003833603038112613ea157613ea0613e7a565b5b80830191505092915050565b5f5f83356001602003843603038112613ec957613ec8613e7a565b5b80840192508235915067ffffffffffffffff821115613eeb57613eea613e7e565b5b602083019250600182023603831315613f0757613f06613e82565b5b509250929050565b5f60208284031215613f2457613f2361308a565b5b5f613f3184828501613787565b91505092915050565b5f82905092915050565b5f819050815f5260205f209050919050565b5f6020601f8301049050919050565b5f82821b905092915050565b5f60088302613fa07fffffffffffffffffffffffffffffffffffffffffffffffffffffffffffffffff82613f65565b613faa8683613f65565b95508019841693508086168417925050509392505050565b5f613fdc613fd7613fd284613050565b613873565b613050565b9050919050565b5f819050919050565b613ff583613fc2565b61400961400182613fe3565b848454613f71565b825550505050565b5f5f905090565b614020614011565b61402b818484613fec565b505050565b5b8181101561404e576140435f82614018565b600181019050614031565b5050565b601f8211156140935761406481613f44565b61406d84613f56565b8101602085101561407c578190505b61409061408885613f56565b830182614030565b50505b505050565b5f82821c905092915050565b5f6140b35f1984600802614098565b1980831691505092915050565b5f6140cb83836140a4565b9150826002028217905092915050565b6140e58383613f3a565b67ffffffffffffffff8111156140fe576140fd613d3b565b5b6141088254613e1d565b614113828285614052565b5f601f831160018114614140575f841561412e578287013590505b61413885826140c0565b86555061419f565b601f19841661414e86613f44565b5f5b8281101561417557848901358255600182019150602085019450602081019050614150565b86831015614192578489013561418e601f8916826140a4565b8355505b6001600288020188555050505b50505050505050565b5f82825260208201905092915050565b5f819050919050565b5f6141cf602084018461360c565b905092915050565b6141e0816135e7565b82525050565b5f6141f46020840184613787565b905092915050565b61420581613508565b82525050565b5f5ffd5b5f5ffd5b5f5ffd5b5f5f8335600160200384360303811261423357614232614213565b5b83810192508235915060208301925067ffffffffffffffff82111561425b5761425a61420b565b5b6001820236038313156142715761427061420f565b5b509250929050565b5f82825260208201905092915050565b828183375f83830152505050565b5f6142a28385614279565b93506142af838584614289565b6142b8836131a0565b840190509392505050565b5f606083016142d45f8401846141c1565b6142e05f8601826141d7565b506142ee60208401846141e6565b6142fb60208601826141fc565b506143096040840184614217565b858303604087015261431c838284614297565b925050508091505092915050565b5f61433583836142c3565b905092915050565b5f8235600160600383360303811261435857614357614213565b5b82810191505092915050565b5f602082019050919050565b5f61437b83856141a8565b93508360208402850161438d846141b8565b805f5b878110156143d05784840389526143a7828461433d565b6143b1858261432a565b94506143bc83614364565b925060208a01995050600181019050614390565b50829750879450505050509392505050565b5f6020820190508181035f8301526143fb818486614370565b90509392505050565b5f5ffd5b5f5ffd5b5f5f8585111561441f5761441e614404565b5b838611156144305761442f614408565b5b6001850283019150848603905094509492505050565b5f81905092915050565b5f61445a826137d9565b6144648185614446565b9350614474818560208601613192565b80840191505092915050565b5f61448b8385614446565b9350614498838584614289565b82840190509392505050565b5f6144af8286614450565b91506144bc828486614480565b9150819050949350505050565b5f6144d483856137e3565b93506144e1838584614289565b6144ea836131a0565b840190509392505050565b5f6020820190508181035f83015261450e8184866144c9565b90509392505050565b5f823560016101400383360303811261453357614532613e7a565b5b80830191505092915050565b5f61454d60208401846133b2565b905092915050565b61455e81613577565b8114614568575f5ffd5b50565b5f8135905061457981614555565b92915050565b5f61458d602084018461456b565b905092915050565b606082016145a55f8301836141c1565b6145b15f8501826141d7565b506145bf602083018361453f565b6145cc6020850182613c5e565b506145da604083018361457f565b6145e76040850182613c6d565b50505050565b5f60e0820190506146005f83018a614595565b61460d6060830189613a9b565b81810360808301526146208187896144c9565b905061462f60a083018661334d565b81810360c08301526146428184866144c9565b905098975050505050505050565b5f5ffd5b61465d826131a0565b810181811067ffffffffffffffff8211171561467c5761467b613d3b565b5b80604052505050565b5f61468e613081565b905061469a8282614654565b919050565b5f67ffffffffffffffff8211156146b9576146b8613d3b565b5b6146c2826131a0565b9050602081019050919050565b5f6146e16146dc8461469f565b614685565b9050828152602081018484840111156146fd576146fc614650565b5b614708848285613192565b509392505050565b5f82601f830112614724576147236133c6565b5b81516147348482602086016146cf565b91505092915050565b5f602082840312156147525761475161308a565b5b5f82015167ffffffffffffffff81111561476f5761476e61308e565b5b61477b84828501614710565b91505092915050565b5f5ffd5b61479181613050565b811461479b575f5ffd5b50565b5f813590506147ac81614788565b92915050565b5f604082840312156147c7576147c6614784565b5b6147d16040614685565b90505f6147e08482850161479e565b5f8301525060206147f38482850161479e565b60208301525092915050565b5f604082840312156148145761481361308a565b5b5f614821848285016147b2565b91505092915050565b5f60608201905061483d5f830186613d68565b61484a6020830185613059565b6148576040830184613059565b949350505050565b5f6040820190506148725f830185613059565b61487f6020830184613059565b9392505050565b5f6020820190506148995f830184613d68565b92915050565b5f602082840312156148b4576148b361308a565b5b5f6148c18482850161456b565b91505092915050565b5f819050919050565b5f6148ed6148e86148e3846148ca565b613873565b613508565b9050919050565b6148fd816148d3565b82525050565b5f6080820190506149165f83018761334d565b6149236020830186613a9b565b61493060408301856148f4565b818103606083015261494281846137f3565b905095945050505050565b5f6040820190506149605f830185613d68565b61496d6020830184613059565b9392505050565b5f6040820190508181035f83015261498c81856137f3565b905081810360208301526149a081846137f3565b90509392505050565b5f815190506149b781613669565b92915050565b5f602082840312156149d2576149d161308a565b5b5f6149df848285016149a9565b91505092915050565b5f6149f2826137d9565b6149fc8185614279565b9350614a0c818560208601613192565b614a15816131a0565b840191505092915050565b614a298161365e565b82525050565b5f60a083015f830151614a445f8601826141d7565b506020830151614a576020860182613c5e565b5060408301518482036040860152614a6f82826149e8565b91505060608301518482036060860152614a8982826149e8565b9150506080830151614a9e6080860182614a20565b508091505092915050565b5f6040820190508181035f830152614ac18185614a2f565b9050614ad0602083018461334d565b9392505050565b5f81519050614ae581614788565b92915050565b5f60408284031215614b0057614aff614784565b5b614b0a6040614685565b90505f614b1984828501614ad7565b5f830152506020614b2c84828501614ad7565b60208301525092915050565b5f60408284031215614b4d57614b4c61308a565b5b5f614b5a84828501614aeb565b91505092915050565b5f7fffff00000000000000000000000000000000000000000000000000000000000082169050919050565b5f614b998383613f3a565b82614ba48135614b63565b92506002821015614be457614bdf7fffff00000000000000000000000000000000000000000000000000000000000083600203600802613f65565b831692505b505092915050565b5f604082019050614bff5f83018561334d565b614c0c6020830184613059565b9392505050565b5f81519050614c218161339c565b92915050565b5f81519050614c3581614555565b92915050565b5f60808284031215614c5057614c4f614784565b5b614c5a6060614685565b90505f614c6984828501614c13565b5f830152506020614c7c84828501614c27565b6020830152506040614c9084828501614aeb565b60408301525092915050565b5f60808284031215614cb157614cb061308a565b5b5f614cbe84828501614c3b565b91505092915050565b7f4e487b71000000000000000000000000000000000000000000000000000000005f52601260045260245ffd5b7f4e487b71000000000000000000000000000000000000000000000000000000005f52601160045260245ffd5b5f614d2b82613050565b9150614d3683613050565b925082614d4657614d45614cc7565b5b828204905092915050565b5f614d5b82613050565b9150614d6683613050565b9250828202614d7481613050565b91508282048414831517614d8b57614d8a614cf4565b5b5092915050565b5f614d9d8383613f3a565b82614da88135613393565b92506020821015614de857614de37fffffffffffffffffffffffffffffffffffffffffffffffffffffffffffffffff83602003600802613f65565b831692505b505092915050565b5f7fffffffffffffffff00000000000000000000000000000000000000000000000082169050919050565b5f614e268383613f3a565b82614e318135614df0565b92506008821015614e7157614e6c7fffffffffffffffff00000000000000000000000000000000000000000000000083600803600802613f65565b831692505b505092915050565b5f60208284031215614e8e57614e8d61308a565b5b5f614e9b84828501614ad7565b91505092915050565b5f8160c01b9050919050565b5f614eba82614ea4565b9050919050565b614ed2614ecd82613577565b614eb0565b82525050565b5f8160e01b9050919050565b5f614eee82614ed8565b9050919050565b614f06614f01826135e7565b614ee4565b82525050565b5f819050919050565b614f26614f2182613050565b614f0c565b82525050565b5f614f378287614ec1565b600882019150614f478286614ef5565b600482019150614f578285614f15565b602082019150614f678284614450565b915081905095945050505050565b5f819050919050565b614f8f614f8a82613393565b614f75565b82525050565b5f614fa08285614f7e565b602082019150614fb08284614ec1565b6008820191508190509392505050565b5f614fcb8287614f7e565b602082019150614fdb8286614ec1565b600882019150614feb8285614f7e565b602082019150614ffb8284614450565b915081905095945050505050565b5f60608201905061501c5f83018661334d565b615029602083018561334d565b6150366040830184613059565b949350505050565b5f8151905061504c81613427565b92915050565b5f602082840312156150675761506661308a565b5b5f6150748482850161503e565b9150509291505056fea26469706673582212207ec8b3099240b3e98725c4e586cfa96277cdc02fe749d7c68f914bb468056ca264736f6c634300081e0033","linkReferences":{}},"methodIdentifiers":{"SEND()":"1f5e1334","SEND_AND_CALL()":"134d4f25","SETTLEMENT_CHAIN_ID()":"017c25a7","allowInitializePath((uint32,bytes32,uint64))":"ff7bd03d","approvalRequired()":"9f68b964","combineOptions(uint32,uint16,bytes)":"bc70b354","decimalConversionRate()":"963efcaa","elevatedMinterBurner()":"8108bb7e","endpoint()":"5e280f11","enforcedOptions(uint32,uint16)":"5535d461","initialize(address,address)":"485cc955","isComposeMsgSender((uint32,bytes32,uint64),bytes,address)":"82413eac","isPeer(uint32,bytes32)":"5a0dfe4d","lzReceive((uint32,bytes32,uint64),bytes32,bytes,address,bytes)":"13137d65","lzReceiveAndRevert(((uint32,bytes32,uint64),uint32,address,bytes32,uint256,address,bytes,bytes)[])":"bd815db0","lzReceiveSimulate((uint32,bytes32,uint64),bytes32,bytes,address,bytes)":"d045a0dc","msgInspector()":"111ecdad","nextNonce(uint32,bytes32)":"7d25a05e","oApp()":"52ae2879","oAppVersion()":"17442b70","oftVersion()":"156a0d0f","owner()":"8da5cb5b","peers(uint32)":"bb0b6a53","preCrime()":"b731ea0a","quoteOFT((uint32,bytes32,uint256,uint256,bytes,bytes,bytes))":"0d35b415","quoteSend((uint32,bytes32,uint256,uint256,bytes,bytes,bytes),bool)":"3b6f743b","renounceOwnership()":"715018a6","send((uint32,bytes32,uint256,uint256,bytes,bytes,bytes),(uint256,uint256),address)":"c7c7f5b3","setDelegate(address)":"ca5eb5e1","setElevatedMinterBurner(address)":"bc4565c4","setEnforcedOptions((uint32,uint16,bytes)[])":"b98bd070","setMsgInspector(address)":"6fc1b31e","setPeer(uint32,bytes32)":"3400288b","setPreCrime(address)":"d4243885","sharedDecimals()":"857749b0","token()":"fc0c546a","tokenOft()":"ccae6664","transferOwnership(address)":"f2fde38b"},"id":271}