{"abi":[{"type":"constructor","inputs":[],"stateMutability":"nonpayable"},{"type":"function","name":"DEFAULT_ADMIN_ROLE","inputs":[],"outputs":[{"name":"","type":"bytes32","internalType":"bytes32"}],"stateMutability":"view"},{"type":"function","name":"MINTER_ROLE","inputs":[],"outputs":[{"name":"","type":"bytes32","internalType":"bytes32"}],"stateMutability":"view"},{"type":"function","name":"OWNER_ROLE","inputs":[],"outputs":[{"name":"","type":"bytes32","internalType":"bytes32"}],"stateMutability":"view"},{"type":"function","name":"UPGRADER_ROLE","inputs":[],"outputs":[{"name":"","type":"bytes32","internalType":"bytes32"}],"stateMutability":"view"},{"type":"function","name":"UPGRADE_INTERFACE_VERSION","inputs":[],"outputs":[{"name":"","type":"string","internalType":"string"}],"stateMutability":"view"},{"type":"function","name":"allowance","inputs":[{"name":"owner","type":"address","internalType":"address"},{"name":"spender","type":"address","internalType":"address"}],"outputs":[{"name":"","type":"uint256","internalType":"uint256"}],"stateMutability":"view"},{"type":"function","name":"approve","inputs":[{"name":"spender","type":"address","internalType":"address"},{"name":"value","type":"uint256","internalType":"uint256"}],"outputs":[{"name":"","type":"bool","internalType":"bool"}],"stateMutability":"nonpayable"},{"type":"function","name":"balanceOf","inputs":[{"name":"account","type":"address","internalType":"address"}],"outputs":[{"name":"","type":"uint256","internalType":"uint256"}],"stateMutability":"view"},{"type":"function","name":"burn","inputs":[{"name":"_from","type":"address","internalType":"address"},{"name":"_amount","type":"uint256","internalType":"uint256"}],"outputs":[],"stateMutability":"nonpayable"},{"type":"function","name":"decimals","inputs":[],"outputs":[{"name":"","type":"uint8","internalType":"uint8"}],"stateMutability":"pure"},{"type":"function","name":"getRoleAdmin","inputs":[{"name":"role","type":"bytes32","internalType":"bytes32"}],"outputs":[{"name":"","type":"bytes32","internalType":"bytes32"}],"stateMutability":"view"},{"type":"function","name":"grantRole","inputs":[{"name":"role","type":"bytes32","internalType":"bytes32"},{"name":"account","type":"address","internalType":"address"}],"outputs":[],"stateMutability":"nonpayable"},{"type":"function","name":"hasRole","inputs":[{"name":"role","type":"bytes32","internalType":"bytes32"},{"name":"account","type":"address","internalType":"address"}],"outputs":[{"name":"","type":"bool","internalType":"bool"}],"stateMutability":"view"},{"type":"function","name":"initialize","inputs":[{"name":"_date","type":"string","internalType":"string"}],"outputs":[],"stateMutability":"nonpayable"},{"type":"function","name":"mint","inputs":[{"name":"_to","type":"address","internalType":"address"},{"name":"_amount","type":"uint256","internalType":"uint256"}],"outputs":[],"stateMutability":"nonpayable"},{"type":"function","name":"name","inputs":[],"outputs":[{"name":"","type":"string","internalType":"string"}],"stateMutability":"view"},{"type":"function","name":"pause","inputs":[],"outputs":[],"stateMutability":"nonpayable"},{"type":"function","name":"paused","inputs":[],"outputs":[{"name":"","type":"bool","internalType":"bool"}],"stateMutability":"view"},{"type":"function","name":"proxiableUUID","inputs":[],"outputs":[{"name":"","type":"bytes32","internalType":"bytes32"}],"stateMutability":"view"},{"type":"function","name":"renounceRole","inputs":[{"name":"role","type":"bytes32","internalType":"bytes32"},{"name":"callerConfirmation","type":"address","internalType":"address"}],"outputs":[],"stateMutability":"nonpayable"},{"type":"function","name":"revokeRole","inputs":[{"name":"role","type":"bytes32","internalType":"bytes32"},{"name":"account","type":"address","internalType":"address"}],"outputs":[],"stateMutability":"nonpayable"},{"type":"function","name":"supportsInterface","inputs":[{"name":"interfaceId","type":"bytes4","internalType":"bytes4"}],"outputs":[{"name":"","type":"bool","internalType":"bool"}],"stateMutability":"view"},{"type":"function","name":"symbol","inputs":[],"outputs":[{"name":"","type":"string","internalType":"string"}],"stateMutability":"view"},{"type":"function","name":"totalSupply","inputs":[],"outputs":[{"name":"","type":"uint256","internalType":"uint256"}],"stateMutability":"view"},{"type":"function","name":"transfer","inputs":[{"name":"to","type":"address","internalType":"address"},{"name":"value","type":"uint256","internalType":"uint256"}],"outputs":[{"name":"","type":"bool","internalType":"bool"}],"stateMutability":"nonpayable"},{"type":"function","name":"transferFrom","inputs":[{"name":"from","type":"address","internalType":"address"},{"name":"to","type":"address","internalType":"address"},{"name":"value","type":"uint256","internalType":"uint256"}],"outputs":[{"name":"","type":"bool","internalType":"bool"}],"stateMutability":"nonpayable"},{"type":"function","name":"unpause","inputs":[],"outputs":[],"stateMutability":"nonpayable"},{"type":"function","name":"upgradeToAndCall","inputs":[{"name":"newImplementation","type":"address","internalType":"address"},{"name":"data","type":"bytes","internalType":"bytes"}],"outputs":[],"stateMutability":"payable"},{"type":"event","name":"Approval","inputs":[{"name":"owner","type":"address","indexed":true,"internalType":"address"},{"name":"spender","type":"address","indexed":true,"internalType":"address"},{"name":"value","type":"uint256","indexed":false,"internalType":"uint256"}],"anonymous":false},{"type":"event","name":"Initialized","inputs":[{"name":"version","type":"uint64","indexed":false,"internalType":"uint64"}],"anonymous":false},{"type":"event","name":"Paused","inputs":[{"name":"account","type":"address","indexed":false,"internalType":"address"}],"anonymous":false},{"type":"event","name":"RoleAdminChanged","inputs":[{"name":"role","type":"bytes32","indexed":true,"internalType":"bytes32"},{"name":"previousAdminRole","type":"bytes32","indexed":true,"internalType":"bytes32"},{"name":"newAdminRole","type":"bytes32","indexed":true,"internalType":"bytes32"}],"anonymous":false},{"type":"event","name":"RoleGranted","inputs":[{"name":"role","type":"bytes32","indexed":true,"internalType":"bytes32"},{"name":"account","type":"address","indexed":true,"internalType":"address"},{"name":"sender","type":"address","indexed":true,"internalType":"address"}],"anonymous":false},{"type":"event","name":"RoleRevoked","inputs":[{"name":"role","type":"bytes32","indexed":true,"internalType":"bytes32"},{"name":"account","type":"address","indexed":true,"internalType":"address"},{"name":"sender","type":"address","indexed":true,"internalType":"address"}],"anonymous":false},{"type":"event","name":"Transfer","inputs":[{"name":"from","type":"address","indexed":true,"internalType":"address"},{"name":"to","type":"address","indexed":true,"internalType":"address"},{"name":"value","type":"uint256","indexed":false,"internalType":"uint256"}],"anonymous":false},{"type":"event","name":"Unpaused","inputs":[{"name":"account","type":"address","indexed":false,"internalType":"address"}],"anonymous":false},{"type":"event","name":"Upgraded","inputs":[{"name":"implementation","type":"address","indexed":true,"internalType":"address"}],"anonymous":false},{"type":"error","name":"AccessControlBadConfirmation","inputs":[]},{"type":"error","name":"AccessControlUnauthorizedAccount","inputs":[{"name":"account","type":"address","internalType":"address"},{"name":"neededRole","type":"bytes32","internalType":"bytes32"}]},{"type":"error","name":"AddressEmptyCode","inputs":[{"name":"target","type":"address","internalType":"address"}]},{"type":"error","name":"ERC1967InvalidImplementation","inputs":[{"name":"implementation","type":"address","internalType":"address"}]},{"type":"error","name":"ERC1967NonPayable","inputs":[]},{"type":"error","name":"ERC20InsufficientAllowance","inputs":[{"name":"spender","type":"address","internalType":"address"},{"name":"allowance","type":"uint256","internalType":"uint256"},{"name":"needed","type":"uint256","internalType":"uint256"}]},{"type":"error","name":"ERC20InsufficientBalance","inputs":[{"name":"sender","type":"address","internalType":"address"},{"name":"balance","type":"uint256","internalType":"uint256"},{"name":"needed","type":"uint256","internalType":"uint256"}]},{"type":"error","name":"ERC20InvalidApprover","inputs":[{"name":"approver","type":"address","internalType":"address"}]},{"type":"error","name":"ERC20InvalidReceiver","inputs":[{"name":"receiver","type":"address","internalType":"address"}]},{"type":"error","name":"ERC20InvalidSender","inputs":[{"name":"sender","type":"address","internalType":"address"}]},{"type":"error","name":"ERC20InvalidSpender","inputs":[{"name":"spender","type":"address","internalType":"address"}]},{"type":"error","name":"EnforcedPause","inputs":[]},{"type":"error","name":"ExpectedPause","inputs":[]},{"type":"error","name":"FailedCall","inputs":[]},{"type":"error","name":"InvalidInitialization","inputs":[]},{"type":"error","name":"NotInitializing","inputs":[]},{"type":"error","name":"NotOperator","inputs":[]},{"type":"error","name":"UUPSUnauthorizedCallContext","inputs":[]},{"type":"error","name":"UUPSUnsupportedProxiableUUID","inputs":[{"name":"slot","type":"bytes32","internalType":"bytes32"}]}],"bytecode":{"object":"0x60a06040523073ffffffffffffffffffffffffffffffffffffffff1660809073ffffffffffffffffffffffffffffffffffffffff16815250348015610042575f5ffd5b5061005161005660201b60201c565b6101d1565b5f61006561015460201b60201c565b9050805f0160089054906101000a900460ff16156100af576040517ff92ee8a900000000000000000000000000000000000000000000000000000000815260040160405180910390fd5b67ffffffffffffffff8016815f015f9054906101000a900467ffffffffffffffff1667ffffffffffffffff16146101515767ffffffffffffffff815f015f6101000a81548167ffffffffffffffff021916908367ffffffffffffffff1602179055507fc7f505b2f371ae2175ee4913f4499e1f2633a7b5936321eed1cdaeb6115181d267ffffffffffffffff60405161014891906101b8565b60405180910390a15b50565b5f5f61016461016d60201b60201c565b90508091505090565b5f7ff0c57e16840df040f15088dc2f81fe391c3923bec73e23a9662efc9c229c6a005f1b905090565b5f67ffffffffffffffff82169050919050565b6101b281610196565b82525050565b5f6020820190506101cb5f8301846101a9565b92915050565b608051612d486101f75f395f81816114a5015281816114fa01526116d70152612d485ff3fe6080604052600436106101b6575f3560e01c806370a08231116100eb578063ad3cb1cc11610089578063dd62ed3e11610063578063dd62ed3e146105e8578063e58378bb14610624578063f62d18881461064e578063f72c0d8b14610676576101b6565b8063ad3cb1cc1461056c578063d539139314610596578063d547741f146105c0576101b6565b806395d89b41116100c557806395d89b41146104b45780639dc29fac146104de578063a217fddf14610506578063a9059cbb14610530576101b6565b806370a08231146104265780638456cb591461046257806391d1485414610478576101b6565b8063313ce5671161015857806340c10f191161013257806340c10f191461038e5780634f1ef286146103b657806352d1902d146103d25780635c975abb146103fc576101b6565b8063313ce5671461032657806336568abe146103505780633f4ba83a14610378576101b6565b806318160ddd1161019457806318160ddd1461025c57806323b872dd14610286578063248a9ca3146102c25780632f2ff15d146102fe576101b6565b806301ffc9a7146101ba57806306fdde03146101f6578063095ea7b314610220575b5f5ffd5b3480156101c5575f5ffd5b506101e060048036038101906101db91906121e2565b6106a0565b6040516101ed9190612227565b60405180910390f35b348015610201575f5ffd5b5061020a610719565b60405161021791906122b0565b60405180910390f35b34801561022b575f5ffd5b506102466004803603810190610241919061235d565b6107b7565b6040516102539190612227565b60405180910390f35b348015610267575f5ffd5b506102706107d9565b60405161027d91906123aa565b60405180910390f35b348015610291575f5ffd5b506102ac60048036038101906102a791906123c3565b6107f0565b6040516102b99190612227565b60405180910390f35b3480156102cd575f5ffd5b506102e860048036038101906102e39190612446565b61081e565b6040516102f59190612480565b60405180910390f35b348015610309575f5ffd5b50610324600480360381019061031f9190612499565b610848565b005b348015610331575f5ffd5b5061033a61086a565b60405161034791906124f2565b60405180910390f35b34801561035b575f5ffd5b5061037660048036038101906103719190612499565b610872565b005b348015610383575f5ffd5b5061038c6108ed565b005b348015610399575f5ffd5b506103b460048036038101906103af919061235d565b610922565b005b6103d060048036038101906103cb9190612637565b61095b565b005b3480156103dd575f5ffd5b506103e661097a565b6040516103f39190612480565b60405180910390f35b348015610407575f5ffd5b506104106109ab565b60405161041d9190612227565b60405180910390f35b348015610431575f5ffd5b5061044c60048036038101906104479190612691565b6109cd565b60405161045991906123aa565b60405180910390f35b34801561046d575f5ffd5b50610476610a20565b005b348015610483575f5ffd5b5061049e60048036038101906104999190612499565b610a55565b6040516104ab9190612227565b60405180910390f35b3480156104bf575f5ffd5b506104c8610ac6565b6040516104d591906122b0565b60405180910390f35b3480156104e9575f5ffd5b5061050460048036038101906104ff919061235d565b610b64565b005b348015610511575f5ffd5b5061051a610b72565b6040516105279190612480565b60405180910390f35b34801561053b575f5ffd5b506105566004803603810190610551919061235d565b610b78565b6040516105639190612227565b60405180910390f35b348015610577575f5ffd5b50610580610b9a565b60405161058d91906122b0565b60405180910390f35b3480156105a1575f5ffd5b506105aa610bd3565b6040516105b79190612480565b60405180910390f35b3480156105cb575f5ffd5b506105e660048036038101906105e19190612499565b610bf7565b005b3480156105f3575f5ffd5b5061060e600480360381019061060991906126bc565b610c19565b60405161061b91906123aa565b60405180910390f35b34801561062f575f5ffd5b50610638610ca9565b6040516106459190612480565b60405180910390f35b348015610659575f5ffd5b50610674600480360381019061066f9190612798565b610ccd565b005b348015610681575f5ffd5b5061068a610f3b565b6040516106979190612480565b60405180910390f35b5f7f7965db0b000000000000000000000000000000000000000000000000000000007bffffffffffffffffffffffffffffffffffffffffffffffffffffffff1916827bffffffffffffffffffffffffffffffffffffffffffffffffffffffff19161480610712575061071182610f5f565b5b9050919050565b60605f610724610fc8565b90508060030180546107359061280c565b80601f01602080910402602001604051908101604052809291908181526020018280546107619061280c565b80156107ac5780601f10610783576101008083540402835291602001916107ac565b820191905f5260205f20905b81548152906001019060200180831161078f57829003601f168201915b505050505091505090565b5f5f6107c1610fef565b90506107ce818585610ff6565b600191505092915050565b5f5f6107e3610fc8565b9050806002015491505090565b5f5f6107fa610fef565b9050610807858285611008565b61081285858561109b565b60019150509392505050565b5f5f61082861118b565b9050805f015f8481526020019081526020015f2060010154915050919050565b6108518261081e565b61085a816111b2565b61086483836111c6565b50505050565b5f6012905090565b61087a610fef565b73ffffffffffffffffffffffffffffffffffffffff168173ffffffffffffffffffffffffffffffffffffffff16146108de576040517f6697b23200000000000000000000000000000000000000000000000000000000815260040160405180910390fd5b6108e882826112be565b505050565b7fb19546dff01e856fb3f010c267a7b1c60363cf8a4664e21cc89c26224620214e610917816111b2565b61091f6113b6565b50565b7f9f2df0fed2c77648de5860a4cc508cd0818c85b8b8a1ab4ceeef8d981c8956a661094c816111b2565b6109568383611424565b505050565b6109636114a3565b61096c82611589565b61097682826115b7565b5050565b5f6109836116d5565b7f360894a13ba1a3210667c828492db98dca3e2076cc3735a920a3ca505d382bbc5f1b905090565b5f5f6109b561175c565b9050805f015f9054906101000a900460ff1691505090565b5f5f6109d7610fc8565b9050805f015f8473ffffffffffffffffffffffffffffffffffffffff1673ffffffffffffffffffffffffffffffffffffffff1681526020019081526020015f2054915050919050565b7fb19546dff01e856fb3f010c267a7b1c60363cf8a4664e21cc89c26224620214e610a4a816111b2565b610a52611783565b50565b5f5f610a5f61118b565b9050805f015f8581526020019081526020015f205f015f8473ffffffffffffffffffffffffffffffffffffffff1673ffffffffffffffffffffffffffffffffffffffff1681526020019081526020015f205f9054906101000a900460ff1691505092915050565b60605f610ad1610fc8565b9050806004018054610ae29061280c565b80601f0160208091040260200160405190810160405280929190818152602001828054610b0e9061280c565b8015610b595780601f10610b3057610100808354040283529160200191610b59565b820191905f5260205f20905b815481529060010190602001808311610b3c57829003601f168201915b505050505091505090565b610b6e82826117f2565b5050565b5f5f1b81565b5f5f610b82610fef565b9050610b8f81858561109b565b600191505092915050565b6040518060400160405280600581526020017f352e302e3000000000000000000000000000000000000000000000000000000081525081565b7f9f2df0fed2c77648de5860a4cc508cd0818c85b8b8a1ab4ceeef8d981c8956a681565b610c008261081e565b610c09816111b2565b610c1383836112be565b50505050565b5f5f610c23610fc8565b9050806001015f8573ffffffffffffffffffffffffffffffffffffffff1673ffffffffffffffffffffffffffffffffffffffff1681526020019081526020015f205f8473ffffffffffffffffffffffffffffffffffffffff1673ffffffffffffffffffffffffffffffffffffffff1681526020019081526020015f205491505092915050565b7fb19546dff01e856fb3f010c267a7b1c60363cf8a4664e21cc89c26224620214e81565b5f610cd6611871565b90505f815f0160089054906101000a900460ff161590505f825f015f9054906101000a900467ffffffffffffffff1690505f5f8267ffffffffffffffff16148015610d1e5750825b90505f60018367ffffffffffffffff16148015610d5157505f3073ffffffffffffffffffffffffffffffffffffffff163b145b905081158015610d5f575080155b15610d96576040517ff92ee8a900000000000000000000000000000000000000000000000000000000815260040160405180910390fd5b6001855f015f6101000a81548167ffffffffffffffff021916908367ffffffffffffffff1602179055508315610de3576001855f0160086101000a81548160ff0219169083151502179055505b610e2b86604051602001610df7919061289c565b60405160208183030381529060405287604051602001610e17919061289c565b604051602081830303815290604052611884565b610e3361189a565b610e3b6118a4565b610e436118ae565b610e747fb19546dff01e856fb3f010c267a7b1c60363cf8a4664e21cc89c26224620214e610e6f610fef565b6111c6565b50610ea67f189ab7a9244df0848122154315af71fe140f3db0fe014031783b0946b8c9d2e3610ea1610fef565b6111c6565b50610ed87f9f2df0fed2c77648de5860a4cc508cd0818c85b8b8a1ab4ceeef8d981c8956a6610ed3610fef565b6111c6565b508315610f33575f855f0160086101000a81548160ff0219169083151502179055507fc7f505b2f371ae2175ee4913f4499e1f2633a7b5936321eed1cdaeb6115181d26001604051610f2a9190612916565b60405180910390a15b505050505050565b7f189ab7a9244df0848122154315af71fe140f3db0fe014031783b0946b8c9d2e381565b5f7f01ffc9a7000000000000000000000000000000000000000000000000000000007bffffffffffffffffffffffffffffffffffffffffffffffffffffffff1916827bffffffffffffffffffffffffffffffffffffffffffffffffffffffff1916149050919050565b5f7f52c63247e1f47db19d5ce0460030c497f067ca4cebf71ba98eeadabe20bace00905090565b5f33905090565b61100383838360016118b8565b505050565b5f6110138484610c19565b90507fffffffffffffffffffffffffffffffffffffffffffffffffffffffffffffffff8110156110955781811015611086578281836040517ffb8f41b200000000000000000000000000000000000000000000000000000000815260040161107d9392919061293e565b60405180910390fd5b61109484848484035f6118b8565b5b50505050565b5f73ffffffffffffffffffffffffffffffffffffffff168373ffffffffffffffffffffffffffffffffffffffff160361110b575f6040517f96c6fd1e0000000000000000000000000000000000000000000000000000000081526004016111029190612973565b60405180910390fd5b5f73ffffffffffffffffffffffffffffffffffffffff168273ffffffffffffffffffffffffffffffffffffffff160361117b575f6040517fec442f050000000000000000000000000000000000000000000000000000000081526004016111729190612973565b60405180910390fd5b611186838383611a95565b505050565b5f7f02dd7bc7dec4dceedda775e58dd541e08a116c6c53815c0bd028192f7b626800905090565b6111c3816111be610fef565b611cc4565b50565b5f5f6111d061118b565b90506111dc8484610a55565b6112b3576001815f015f8681526020019081526020015f205f015f8573ffffffffffffffffffffffffffffffffffffffff1673ffffffffffffffffffffffffffffffffffffffff1681526020019081526020015f205f6101000a81548160ff02191690831515021790555061124f610fef565b73ffffffffffffffffffffffffffffffffffffffff168373ffffffffffffffffffffffffffffffffffffffff16857f2f8788117e7eff1d82e926ec794901d17c78024a50270940304540a733656f0d60405160405180910390a460019150506112b8565b5f9150505b92915050565b5f5f6112c861118b565b90506112d48484610a55565b156113ab575f815f015f8681526020019081526020015f205f015f8573ffffffffffffffffffffffffffffffffffffffff1673ffffffffffffffffffffffffffffffffffffffff1681526020019081526020015f205f6101000a81548160ff021916908315150217905550611347610fef565b73ffffffffffffffffffffffffffffffffffffffff168373ffffffffffffffffffffffffffffffffffffffff16857ff6391f5c32d9c69d2a47ea670b442974b53935d1edc7fd64eb21e047a839171b60405160405180910390a460019150506113b0565b5f9150505b92915050565b6113be611d15565b5f6113c761175c565b90505f815f015f6101000a81548160ff0219169083151502179055507f5db9ee0a495bf2e6ff9c91a7834c1ba4fdd244a5e8aa4e537bd38aeae4b073aa61140c610fef565b6040516114199190612973565b60405180910390a150565b5f73ffffffffffffffffffffffffffffffffffffffff168273ffffffffffffffffffffffffffffffffffffffff1603611494575f6040517fec442f0500000000000000000000000000000000000000000000000000000000815260040161148b9190612973565b60405180910390fd5b61149f5f8383611a95565b5050565b7f000000000000000000000000000000000000000000000000000000000000000073ffffffffffffffffffffffffffffffffffffffff163073ffffffffffffffffffffffffffffffffffffffff16148061155057507f000000000000000000000000000000000000000000000000000000000000000073ffffffffffffffffffffffffffffffffffffffff16611537611d55565b73ffffffffffffffffffffffffffffffffffffffff1614155b15611587576040517fe07c8dba00000000000000000000000000000000000000000000000000000000815260040160405180910390fd5b565b7f189ab7a9244df0848122154315af71fe140f3db0fe014031783b0946b8c9d2e36115b3816111b2565b5050565b8173ffffffffffffffffffffffffffffffffffffffff166352d1902d6040518163ffffffff1660e01b8152600401602060405180830381865afa92505050801561161f57506040513d601f19601f8201168201806040525081019061161c91906129a0565b60015b61166057816040517f4c9c8ce30000000000000000000000000000000000000000000000000000000081526004016116579190612973565b60405180910390fd5b7f360894a13ba1a3210667c828492db98dca3e2076cc3735a920a3ca505d382bbc5f1b81146116c657806040517faa1d49a40000000000000000000000000000000000000000000000000000000081526004016116bd9190612480565b60405180910390fd5b6116d08383611da8565b505050565b7f000000000000000000000000000000000000000000000000000000000000000073ffffffffffffffffffffffffffffffffffffffff163073ffffffffffffffffffffffffffffffffffffffff161461175a576040517fe07c8dba00000000000000000000000000000000000000000000000000000000815260040160405180910390fd5b565b5f7fcd5ed15c6e187e77e9aee88184c21f4f2182ab5827cb3b7e07fbedcd63f03300905090565b61178b611e1a565b5f61179461175c565b90506001815f015f6101000a81548160ff0219169083151502179055507f62e78cea01bee320cd4e420270b5ea74000d11b0c9f74754ebdbfc544b05a2586117da610fef565b6040516117e79190612973565b60405180910390a150565b5f73ffffffffffffffffffffffffffffffffffffffff168273ffffffffffffffffffffffffffffffffffffffff1603611862575f6040517f96c6fd1e0000000000000000000000000000000000000000000000000000000081526004016118599190612973565b60405180910390fd5b61186d825f83611a95565b5050565b5f5f61187b611e5b565b90508091505090565b61188c611e84565b6118968282611ec4565b5050565b6118a2611e84565b565b6118ac611e84565b565b6118b6611e84565b565b5f6118c1610fc8565b90505f73ffffffffffffffffffffffffffffffffffffffff168573ffffffffffffffffffffffffffffffffffffffff1603611933575f6040517fe602df0500000000000000000000000000000000000000000000000000000000815260040161192a9190612973565b60405180910390fd5b5f73ffffffffffffffffffffffffffffffffffffffff168473ffffffffffffffffffffffffffffffffffffffff16036119a3575f6040517f94280d6200000000000000000000000000000000000000000000000000000000815260040161199a9190612973565b60405180910390fd5b82816001015f8773ffffffffffffffffffffffffffffffffffffffff1673ffffffffffffffffffffffffffffffffffffffff1681526020019081526020015f205f8673ffffffffffffffffffffffffffffffffffffffff1673ffffffffffffffffffffffffffffffffffffffff1681526020019081526020015f20819055508115611a8e578373ffffffffffffffffffffffffffffffffffffffff168573ffffffffffffffffffffffffffffffffffffffff167f8c5be1e5ebec7d5bd14f71427d1e84f3dd0314c0f7b2291e5b200ac8c7c3b92585604051611a8591906123aa565b60405180910390a35b5050505050565b5f611a9e610fc8565b90505f73ffffffffffffffffffffffffffffffffffffffff168473ffffffffffffffffffffffffffffffffffffffff1603611af25781816002015f828254611ae691906129f8565b92505081905550611bc4565b5f815f015f8673ffffffffffffffffffffffffffffffffffffffff1673ffffffffffffffffffffffffffffffffffffffff1681526020019081526020015f2054905082811015611b7d578481846040517fe450d38c000000000000000000000000000000000000000000000000000000008152600401611b749392919061293e565b60405180910390fd5b828103825f015f8773ffffffffffffffffffffffffffffffffffffffff1673ffffffffffffffffffffffffffffffffffffffff1681526020019081526020015f2081905550505b5f73ffffffffffffffffffffffffffffffffffffffff168373ffffffffffffffffffffffffffffffffffffffff1603611c0d5781816002015f8282540392505081905550611c59565b81815f015f8573ffffffffffffffffffffffffffffffffffffffff1673ffffffffffffffffffffffffffffffffffffffff1681526020019081526020015f205f82825401925050819055505b8273ffffffffffffffffffffffffffffffffffffffff168473ffffffffffffffffffffffffffffffffffffffff167fddf252ad1be2c89b69c2b068fc378daa952ba7f163c4a11628f55a4df523b3ef84604051611cb691906123aa565b60405180910390a350505050565b611cce8282610a55565b611d115780826040517fe2517d3f000000000000000000000000000000000000000000000000000000008152600401611d08929190612a2b565b60405180910390fd5b5050565b611d1d6109ab565b611d53576040517f8dfc202b00000000000000000000000000000000000000000000000000000000815260040160405180910390fd5b565b5f611d817f360894a13ba1a3210667c828492db98dca3e2076cc3735a920a3ca505d382bbc5f1b611f00565b5f015f9054906101000a900473ffffffffffffffffffffffffffffffffffffffff16905090565b611db182611f09565b8173ffffffffffffffffffffffffffffffffffffffff167fbc7cd75a20ee27fd9adebab32041f755214dbc6bffa90cc0225b39da2e5c2d3b60405160405180910390a25f81511115611e0d57611e078282611fd2565b50611e16565b611e15612052565b5b5050565b611e226109ab565b15611e59576040517fd93c066500000000000000000000000000000000000000000000000000000000815260040160405180910390fd5b565b5f7ff0c57e16840df040f15088dc2f81fe391c3923bec73e23a9662efc9c229c6a005f1b905090565b611e8c61208e565b611ec2576040517fd7e6bcf800000000000000000000000000000000000000000000000000000000815260040160405180910390fd5b565b611ecc611e84565b5f611ed5610fc8565b905082816003019081611ee89190612be9565b5081816004019081611efa9190612be9565b50505050565b5f819050919050565b5f8173ffffffffffffffffffffffffffffffffffffffff163b03611f6457806040517f4c9c8ce3000000000000000000000000000000000000000000000000000000008152600401611f5b9190612973565b60405180910390fd5b80611f907f360894a13ba1a3210667c828492db98dca3e2076cc3735a920a3ca505d382bbc5f1b611f00565b5f015f6101000a81548173ffffffffffffffffffffffffffffffffffffffff021916908373ffffffffffffffffffffffffffffffffffffffff16021790555050565b60605f5f8473ffffffffffffffffffffffffffffffffffffffff1684604051611ffb9190612cfc565b5f60405180830381855af49150503d805f8114612033576040519150601f19603f3d011682016040523d82523d5f602084013e612038565b606091505b50915091506120488583836120ac565b9250505092915050565b5f34111561208c576040517fb398979f00000000000000000000000000000000000000000000000000000000815260040160405180910390fd5b565b5f612097611871565b5f0160089054906101000a900460ff16905090565b6060826120c1576120bc82612139565b612131565b5f82511480156120e757505f8473ffffffffffffffffffffffffffffffffffffffff163b145b1561212957836040517f9996b3150000000000000000000000000000000000000000000000000000000081526004016121209190612973565b60405180910390fd5b819050612132565b5b9392505050565b5f8151111561214a57805160208201fd5b6040517fd6bda27500000000000000000000000000000000000000000000000000000000815260040160405180910390fd5b5f604051905090565b5f5ffd5b5f5ffd5b5f7fffffffff0000000000000000000000000000000000000000000000000000000082169050919050565b6121c18161218d565b81146121cb575f5ffd5b50565b5f813590506121dc816121b8565b92915050565b5f602082840312156121f7576121f6612185565b5b5f612204848285016121ce565b91505092915050565b5f8115159050919050565b6122218161220d565b82525050565b5f60208201905061223a5f830184612218565b92915050565b5f81519050919050565b5f82825260208201905092915050565b8281835e5f83830152505050565b5f601f19601f8301169050919050565b5f61228282612240565b61228c818561224a565b935061229c81856020860161225a565b6122a581612268565b840191505092915050565b5f6020820190508181035f8301526122c88184612278565b905092915050565b5f73ffffffffffffffffffffffffffffffffffffffff82169050919050565b5f6122f9826122d0565b9050919050565b612309816122ef565b8114612313575f5ffd5b50565b5f8135905061232481612300565b92915050565b5f819050919050565b61233c8161232a565b8114612346575f5ffd5b50565b5f8135905061235781612333565b92915050565b5f5f6040838503121561237357612372612185565b5b5f61238085828601612316565b925050602061239185828601612349565b9150509250929050565b6123a48161232a565b82525050565b5f6020820190506123bd5f83018461239b565b92915050565b5f5f5f606084860312156123da576123d9612185565b5b5f6123e786828701612316565b93505060206123f886828701612316565b925050604061240986828701612349565b9150509250925092565b5f819050919050565b61242581612413565b811461242f575f5ffd5b50565b5f813590506124408161241c565b92915050565b5f6020828403121561245b5761245a612185565b5b5f61246884828501612432565b91505092915050565b61247a81612413565b82525050565b5f6020820190506124935f830184612471565b92915050565b5f5f604083850312156124af576124ae612185565b5b5f6124bc85828601612432565b92505060206124cd85828601612316565b9150509250929050565b5f60ff82169050919050565b6124ec816124d7565b82525050565b5f6020820190506125055f8301846124e3565b92915050565b5f5ffd5b5f5ffd5b7f4e487b71000000000000000000000000000000000000000000000000000000005f52604160045260245ffd5b61254982612268565b810181811067ffffffffffffffff8211171561256857612567612513565b5b80604052505050565b5f61257a61217c565b90506125868282612540565b919050565b5f67ffffffffffffffff8211156125a5576125a4612513565b5b6125ae82612268565b9050602081019050919050565b828183375f83830152505050565b5f6125db6125d68461258b565b612571565b9050828152602081018484840111156125f7576125f661250f565b5b6126028482856125bb565b509392505050565b5f82601f83011261261e5761261d61250b565b5b813561262e8482602086016125c9565b91505092915050565b5f5f6040838503121561264d5761264c612185565b5b5f61265a85828601612316565b925050602083013567ffffffffffffffff81111561267b5761267a612189565b5b6126878582860161260a565b9150509250929050565b5f602082840312156126a6576126a5612185565b5b5f6126b384828501612316565b91505092915050565b5f5f604083850312156126d2576126d1612185565b5b5f6126df85828601612316565b92505060206126f085828601612316565b9150509250929050565b5f67ffffffffffffffff82111561271457612713612513565b5b61271d82612268565b9050602081019050919050565b5f61273c612737846126fa565b612571565b9050828152602081018484840111156127585761275761250f565b5b6127638482856125bb565b509392505050565b5f82601f83011261277f5761277e61250b565b5b813561278f84826020860161272a565b91505092915050565b5f602082840312156127ad576127ac612185565b5b5f82013567ffffffffffffffff8111156127ca576127c9612189565b5b6127d68482850161276b565b91505092915050565b7f4e487b71000000000000000000000000000000000000000000000000000000005f52602260045260245ffd5b5f600282049050600182168061282357607f821691505b602082108103612836576128356127df565b5b50919050565b7f537570616c61574b4149412d0000000000000000000000000000000000000000815250565b5f81905092915050565b5f61287682612240565b6128808185612862565b935061289081856020860161225a565b80840191505092915050565b5f6128a68261283c565b600c820191506128b6828461286c565b915081905092915050565b5f819050919050565b5f67ffffffffffffffff82169050919050565b5f819050919050565b5f6129006128fb6128f6846128c1565b6128dd565b6128ca565b9050919050565b612910816128e6565b82525050565b5f6020820190506129295f830184612907565b92915050565b612938816122ef565b82525050565b5f6060820190506129515f83018661292f565b61295e602083018561239b565b61296b604083018461239b565b949350505050565b5f6020820190506129865f83018461292f565b92915050565b5f8151905061299a8161241c565b92915050565b5f602082840312156129b5576129b4612185565b5b5f6129c28482850161298c565b91505092915050565b7f4e487b71000000000000000000000000000000000000000000000000000000005f52601160045260245ffd5b5f612a028261232a565b9150612a0d8361232a565b9250828201905080821115612a2557612a246129cb565b5b92915050565b5f604082019050612a3e5f83018561292f565b612a4b6020830184612471565b9392505050565b5f819050815f5260205f209050919050565b5f6020601f8301049050919050565b5f82821b905092915050565b5f60088302612aae7fffffffffffffffffffffffffffffffffffffffffffffffffffffffffffffffff82612a73565b612ab88683612a73565b95508019841693508086168417925050509392505050565b5f612aea612ae5612ae08461232a565b6128dd565b61232a565b9050919050565b5f819050919050565b612b0383612ad0565b612b17612b0f82612af1565b848454612a7f565b825550505050565b5f5f905090565b612b2e612b1f565b612b39818484612afa565b505050565b5b81811015612b5c57612b515f82612b26565b600181019050612b3f565b5050565b601f821115612ba157612b7281612a52565b612b7b84612a64565b81016020851015612b8a578190505b612b9e612b9685612a64565b830182612b3e565b50505b505050565b5f82821c905092915050565b5f612bc15f1984600802612ba6565b1980831691505092915050565b5f612bd98383612bb2565b9150826002028217905092915050565b612bf282612240565b67ffffffffffffffff811115612c0b57612c0a612513565b5b612c15825461280c565b612c20828285612b60565b5f60209050601f831160018114612c51575f8415612c3f578287015190505b612c498582612bce565b865550612cb0565b601f198416612c5f86612a52565b5f5b82811015612c8657848901518255600182019150602085019450602081019050612c61565b86831015612ca35784890151612c9f601f891682612bb2565b8355505b6001600288020188555050505b505050505050565b5f81519050919050565b5f81905092915050565b5f612cd682612cb8565b612ce08185612cc2565b9350612cf081856020860161225a565b80840191505092915050565b5f612d078284612ccc565b91508190509291505056fea2646970667358221220a8a3d3caa60ad7c8f97bb43a5d76db898477130488a24019284ca4d535f018ee64736f6c634300081e0033","linkReferences":{}},"methodIdentifiers":{"DEFAULT_ADMIN_ROLE()":"a217fddf","MINTER_ROLE()":"d5391393","OWNER_ROLE()":"e58378bb","UPGRADER_ROLE()":"f72c0d8b","UPGRADE_INTERFACE_VERSION()":"ad3cb1cc","allowance(address,address)":"dd62ed3e","approve(address,uint256)":"095ea7b3","balanceOf(address)":"70a08231","burn(address,uint256)":"9dc29fac","decimals()":"313ce567","getRoleAdmin(bytes32)":"248a9ca3","grantRole(bytes32,address)":"2f2ff15d","hasRole(bytes32,address)":"91d14854","initialize(string)":"f62d1888","mint(address,uint256)":"40c10f19","name()":"06fdde03","pause()":"8456cb59","paused()":"5c975abb","proxiableUUID()":"52d1902d","renounceRole(bytes32,address)":"36568abe","revokeRole(bytes32,address)":"d547741f","supportsInterface(bytes4)":"01ffc9a7","symbol()":"95d89b41","totalSupply()":"18160ddd","transfer(address,uint256)":"a9059cbb","transferFrom(address,address,uint256)":"23b872dd","unpause()":"3f4ba83a","upgradeToAndCall(address,bytes)":"4f1ef286"},"id":232}