{"abi":[{"type":"constructor","inputs":[],"stateMutability":"nonpayable"},{"type":"fallback","stateMutability":"nonpayable"},{"type":"receive","stateMutability":"payable"},{"type":"function","name":"getProtocolFee","inputs":[{"name":"_token","type":"address","internalType":"address"}],"outputs":[{"name":"","type":"uint256","internalType":"uint256"}],"stateMutability":"view"},{"type":"function","name":"lendingPoolFactory","inputs":[],"outputs":[{"name":"","type":"address","internalType":"address"}],"stateMutability":"view"},{"type":"function","name":"owner","inputs":[],"outputs":[{"name":"","type":"address","internalType":"address"}],"stateMutability":"view"},{"type":"function","name":"protocolFees","inputs":[{"name":"","type":"address","internalType":"address"}],"outputs":[{"name":"","type":"uint256","internalType":"uint256"}],"stateMutability":"view"},{"type":"function","name":"renounceOwnership","inputs":[],"outputs":[],"stateMutability":"nonpayable"},{"type":"function","name":"setLendingPoolFactory","inputs":[{"name":"_lendingPoolFactory","type":"address","internalType":"address"}],"outputs":[],"stateMutability":"nonpayable"},{"type":"function","name":"setProtocolFee","inputs":[{"name":"_token","type":"address","internalType":"address"},{"name":"_fee","type":"uint256","internalType":"uint256"}],"outputs":[],"stateMutability":"nonpayable"},{"type":"function","name":"transferOwnership","inputs":[{"name":"newOwner","type":"address","internalType":"address"}],"outputs":[],"stateMutability":"nonpayable"},{"type":"function","name":"withdraw","inputs":[{"name":"_token","type":"address","internalType":"address"},{"name":"_amount","type":"uint256","internalType":"uint256"}],"outputs":[],"stateMutability":"nonpayable"},{"type":"event","name":"LendingPoolFactorySet","inputs":[{"name":"lendingPoolFactory","type":"address","indexed":false,"internalType":"address"}],"anonymous":false},{"type":"event","name":"OwnershipTransferred","inputs":[{"name":"previousOwner","type":"address","indexed":true,"internalType":"address"},{"name":"newOwner","type":"address","indexed":true,"internalType":"address"}],"anonymous":false},{"type":"event","name":"ProtocolFeeSet","inputs":[{"name":"token","type":"address","indexed":false,"internalType":"address"},{"name":"fee","type":"uint256","indexed":false,"internalType":"uint256"}],"anonymous":false},{"type":"event","name":"Withdraw","inputs":[{"name":"token","type":"address","indexed":false,"internalType":"address"},{"name":"amount","type":"uint256","indexed":false,"internalType":"uint256"}],"anonymous":false},{"type":"error","name":"CannotSwapWNativeForWNative","inputs":[]},{"type":"error","name":"DeadlinePassed","inputs":[]},{"type":"error","name":"InsufficientBalance","inputs":[{"name":"token","type":"address","internalType":"address"},{"name":"amount","type":"uint256","internalType":"uint256"}]},{"type":"error","name":"InsufficientOutputAmount","inputs":[{"name":"expectedMinimum","type":"uint256","internalType":"uint256"},{"name":"actualOutput","type":"uint256","internalType":"uint256"}]},{"type":"error","name":"InvalidAmount","inputs":[]},{"type":"error","name":"InvalidTokenAddress","inputs":[]},{"type":"error","name":"LendingPoolFactoryNotSet","inputs":[]},{"type":"error","name":"OwnableInvalidOwner","inputs":[{"name":"owner","type":"address","internalType":"address"}]},{"type":"error","name":"OwnableUnauthorizedAccount","inputs":[{"name":"account","type":"address","internalType":"address"}]},{"type":"error","name":"ReentrancyGuardReentrantCall","inputs":[]},{"type":"error","name":"SafeERC20FailedOperation","inputs":[{"name":"token","type":"address","internalType":"address"}]},{"type":"error","name":"SwapFailed","inputs":[{"name":"tokenIn","type":"address","internalType":"address"},{"name":"tokenOut","type":"address","internalType":"address"},{"name":"amountIn","type":"uint256","internalType":"uint256"}]}],"bytecode":{"object":"0x608060405234801561000f575f5ffd5b503360015f819055505f73ffffffffffffffffffffffffffffffffffffffff168173ffffffffffffffffffffffffffffffffffffffff1603610088575f6040517f1e4fbdf700000000000000000000000000000000000000000000000000000000815260040161007f919061019f565b60405180910390fd5b6100978161009d60201b60201c565b506101b8565b5f60015f9054906101000a900473ffffffffffffffffffffffffffffffffffffffff1690508160015f6101000a81548173ffffffffffffffffffffffffffffffffffffffff021916908373ffffffffffffffffffffffffffffffffffffffff1602179055508173ffffffffffffffffffffffffffffffffffffffff168173ffffffffffffffffffffffffffffffffffffffff167f8be0079c531659141344cd1fd0a4f28419497f9722a3daafe3b4186f6b6457e060405160405180910390a35050565b5f73ffffffffffffffffffffffffffffffffffffffff82169050919050565b5f61018982610160565b9050919050565b6101998161017f565b82525050565b5f6020820190506101b25f830184610190565b92915050565b610d0f806101c55f395ff3fe608060405260043610610089575f3560e01c8063b5b3ca2c11610058578063b5b3ca2c146101e8578063dcf844a714610210578063e4ac8b061461024c578063f2fde38b14610276578063f3fef3a31461029e576100fd565b80630a992e0c14610144578063715018a6146101805780638da5cb5b14610196578063a3f39c99146101c0576100fd565b366100fd575f3411156100fb5761009e6102c6565b73ffffffffffffffffffffffffffffffffffffffff1663d0e30db0346040518263ffffffff1660e01b81526004015f604051808303818588803b1580156100e3575f5ffd5b505af11580156100f5573d5f5f3e3d5ffd5b50505050505b005b348015610108575f5ffd5b506040517f08c379a000000000000000000000000000000000000000000000000000000000815260040161013b90610acc565b60405180910390fd5b34801561014f575f5ffd5b5061016a60048036038101906101659190610b48565b6103e0565b6040516101779190610b8b565b60405180910390f35b34801561018b575f5ffd5b5061019461047a565b005b3480156101a1575f5ffd5b506101aa61048d565b6040516101b79190610bb3565b60405180910390f35b3480156101cb575f5ffd5b506101e660048036038101906101e19190610b48565b6104b5565b005b3480156101f3575f5ffd5b5061020e60048036038101906102099190610bf6565b610537565b005b34801561021b575f5ffd5b5061023660048036038101906102319190610b48565b6105be565b6040516102439190610b8b565b60405180910390f35b348015610257575f5ffd5b506102606105d3565b60405161026d9190610bb3565b60405180910390f35b348015610281575f5ffd5b5061029c60048036038101906102979190610b48565b6105f8565b005b3480156102a9575f5ffd5b506102c460048036038101906102bf9190610bf6565b61067c565b005b5f5f73ffffffffffffffffffffffffffffffffffffffff1660025f9054906101000a900473ffffffffffffffffffffffffffffffffffffffff1673ffffffffffffffffffffffffffffffffffffffff160361034d576040517f0e23e6d100000000000000000000000000000000000000000000000000000000815260040160405180910390fd5b60025f9054906101000a900473ffffffffffffffffffffffffffffffffffffffff1673ffffffffffffffffffffffffffffffffffffffff1663eb6d3a116040518163ffffffff1660e01b8152600401602060405180830381865afa1580156103b7573d5f5f3e3d5ffd5b505050506040513d601f19601f820116820180604052508101906103db9190610c48565b905090565b5f5f60035f8473ffffffffffffffffffffffffffffffffffffffff1673ffffffffffffffffffffffffffffffffffffffff1681526020019081526020015f2054036104345766038d7ea4c680009050610475565b60035f8373ffffffffffffffffffffffffffffffffffffffff1673ffffffffffffffffffffffffffffffffffffffff1681526020019081526020015f205490505b919050565b6104826107ba565b61048b5f610841565b565b5f60015f9054906101000a900473ffffffffffffffffffffffffffffffffffffffff16905090565b6104bd6107ba565b8060025f6101000a81548173ffffffffffffffffffffffffffffffffffffffff021916908373ffffffffffffffffffffffffffffffffffffffff1602179055507f42221cfb9fee7c18257dd2e1c3a5cc6b9049b911a84ad8dd1ef79e49099f71788160405161052c9190610bb3565b60405180910390a150565b61053f6107ba565b8060035f8473ffffffffffffffffffffffffffffffffffffffff1673ffffffffffffffffffffffffffffffffffffffff1681526020019081526020015f20819055507fa1ee82e4f177a8017f33ddddac05b7ceab1de9d46f7195e15e8aa2e8b88f3b1c82826040516105b2929190610c73565b60405180910390a15050565b6003602052805f5260405f205f915090505481565b60025f9054906101000a900473ffffffffffffffffffffffffffffffffffffffff1681565b6106006107ba565b5f73ffffffffffffffffffffffffffffffffffffffff168173ffffffffffffffffffffffffffffffffffffffff1603610670575f6040517f1e4fbdf70000000000000000000000000000000000000000000000000000000081526004016106679190610bb3565b60405180910390fd5b61067981610841565b50565b610684610904565b61068c6107ba565b808273ffffffffffffffffffffffffffffffffffffffff166370a08231306040518263ffffffff1660e01b81526004016106c69190610bb3565b602060405180830381865afa1580156106e1573d5f5f3e3d5ffd5b505050506040513d601f19601f820116820180604052508101906107059190610cae565b101561074a5781816040517ff6deaa04000000000000000000000000000000000000000000000000000000008152600401610741929190610c73565b60405180910390fd5b61077533828473ffffffffffffffffffffffffffffffffffffffff166109489092919063ffffffff16565b7f884edad9ce6fa2440d8a54cc123490eb96d2768479d49ff9c7366125a942436482826040516107a6929190610c73565b60405180910390a16107b66109c7565b5050565b6107c26109d0565b73ffffffffffffffffffffffffffffffffffffffff166107e061048d565b73ffffffffffffffffffffffffffffffffffffffff161461083f576108036109d0565b6040517f118cdaa70000000000000000000000000000000000000000000000000000000081526004016108369190610bb3565b60405180910390fd5b565b5f60015f9054906101000a900473ffffffffffffffffffffffffffffffffffffffff1690508160015f6101000a81548173ffffffffffffffffffffffffffffffffffffffff021916908373ffffffffffffffffffffffffffffffffffffffff1602179055508173ffffffffffffffffffffffffffffffffffffffff168173ffffffffffffffffffffffffffffffffffffffff167f8be0079c531659141344cd1fd0a4f28419497f9722a3daafe3b4186f6b6457e060405160405180910390a35050565b60025f540361093f576040517f3ee5aeb500000000000000000000000000000000000000000000000000000000815260040160405180910390fd5b60025f81905550565b6109c2838473ffffffffffffffffffffffffffffffffffffffff1663a9059cbb858560405160240161097b929190610c73565b604051602081830303815290604052915060e01b6020820180517bffffffffffffffffffffffffffffffffffffffffffffffffffffffff83818316178352505050506109d7565b505050565b60015f81905550565b5f33905090565b5f5f60205f8451602086015f885af1806109f6576040513d5f823e3d81fd5b3d92505f519150505f8214610a0f576001811415610a2a565b5f8473ffffffffffffffffffffffffffffffffffffffff163b145b15610a6c57836040517f5274afe7000000000000000000000000000000000000000000000000000000008152600401610a639190610bb3565b60405180910390fd5b50505050565b5f82825260208201905092915050565b7f46616c6c6261636b206e6f7420616c6c6f7765640000000000000000000000005f82015250565b5f610ab6601483610a72565b9150610ac182610a82565b602082019050919050565b5f6020820190508181035f830152610ae381610aaa565b9050919050565b5f5ffd5b5f73ffffffffffffffffffffffffffffffffffffffff82169050919050565b5f610b1782610aee565b9050919050565b610b2781610b0d565b8114610b31575f5ffd5b50565b5f81359050610b4281610b1e565b92915050565b5f60208284031215610b5d57610b5c610aea565b5b5f610b6a84828501610b34565b91505092915050565b5f819050919050565b610b8581610b73565b82525050565b5f602082019050610b9e5f830184610b7c565b92915050565b610bad81610b0d565b82525050565b5f602082019050610bc65f830184610ba4565b92915050565b610bd581610b73565b8114610bdf575f5ffd5b50565b5f81359050610bf081610bcc565b92915050565b5f5f60408385031215610c0c57610c0b610aea565b5b5f610c1985828601610b34565b9250506020610c2a85828601610be2565b9150509250929050565b5f81519050610c4281610b1e565b92915050565b5f60208284031215610c5d57610c5c610aea565b5b5f610c6a84828501610c34565b91505092915050565b5f604082019050610c865f830185610ba4565b610c936020830184610b7c565b9392505050565b5f81519050610ca881610bcc565b92915050565b5f60208284031215610cc357610cc2610aea565b5b5f610cd084828501610c9a565b9150509291505056fea264697066735822122059135f4540355f86281b39f3cad59abc7a16b021eb007ad0e50060f481c3584564736f6c634300081e0033","linkReferences":{}},"methodIdentifiers":{"getProtocolFee(address)":"0a992e0c","lendingPoolFactory()":"e4ac8b06","owner()":"8da5cb5b","protocolFees(address)":"dcf844a7","renounceOwnership()":"715018a6","setLendingPoolFactory(address)":"a3f39c99","setProtocolFee(address,uint256)":"b5b3ca2c","transferOwnership(address)":"f2fde38b","withdraw(address,uint256)":"f3fef3a3"},"id":223}