{"abi":[{"type":"constructor","inputs":[],"stateMutability":"nonpayable"},{"type":"function","name":"deployLendingPool","inputs":[],"outputs":[{"name":"","type":"address","internalType":"address"}],"stateMutability":"nonpayable"},{"type":"function","name":"factory","inputs":[],"outputs":[{"name":"","type":"address","internalType":"address"}],"stateMutability":"view"},{"type":"function","name":"owner","inputs":[],"outputs":[{"name":"","type":"address","internalType":"address"}],"stateMutability":"view"},{"type":"function","name":"setFactory","inputs":[{"name":"_factory","type":"address","internalType":"address"}],"outputs":[],"stateMutability":"nonpayable"},{"type":"error","name":"OnlyFactoryCanCall","inputs":[]},{"type":"error","name":"OnlyOwnerCanCall","inputs":[]}],"bytecode":{"object":"0x6080604052348015600e575f5ffd5b503360015f6101000a81548173ffffffffffffffffffffffffffffffffffffffff021916908373ffffffffffffffffffffffffffffffffffffffff160217905550615b408061005c5f395ff3fe608060405234801561000f575f5ffd5b506004361061004a575f3560e01c80635949e8551461004e5780635bb478081461006c5780638da5cb5b14610088578063c45a0155146100a6575b5f5ffd5b6100566100c4565b60405161006391906102eb565b60405180910390f35b61008660048036038101906100819190610332565b6100fd565b005b610090610147565b60405161009d91906102eb565b60405180910390f35b6100ae61016c565b6040516100bb91906102eb565b60405180910390f35b5f6100cd610190565b5f6040516100da9061029f565b604051809103905ff0801580156100f3573d5f5f3e3d5ffd5b5090508091505090565b610105610217565b805f5f6101000a81548173ffffffffffffffffffffffffffffffffffffffff021916908373ffffffffffffffffffffffffffffffffffffffff16021790555050565b60015f9054906101000a900473ffffffffffffffffffffffffffffffffffffffff1681565b5f5f9054906101000a900473ffffffffffffffffffffffffffffffffffffffff1681565b5f5f9054906101000a900473ffffffffffffffffffffffffffffffffffffffff1673ffffffffffffffffffffffffffffffffffffffff163373ffffffffffffffffffffffffffffffffffffffff1614610215576040517f0234e5ea00000000000000000000000000000000000000000000000000000000815260040160405180910390fd5b565b60015f9054906101000a900473ffffffffffffffffffffffffffffffffffffffff1673ffffffffffffffffffffffffffffffffffffffff163373ffffffffffffffffffffffffffffffffffffffff161461029d576040517f47a8ea5800000000000000000000000000000000000000000000000000000000815260040160405180910390fd5b565b6157ad8061035e83390190565b5f73ffffffffffffffffffffffffffffffffffffffff82169050919050565b5f6102d5826102ac565b9050919050565b6102e5816102cb565b82525050565b5f6020820190506102fe5f8301846102dc565b92915050565b5f5ffd5b610311816102cb565b811461031b575f5ffd5b50565b5f8135905061032c81610308565b92915050565b5f6020828403121561034757610346610304565b5b5f6103548482850161031e565b9150509291505056fe60a06040523073ffffffffffffffffffffffffffffffffffffffff1660809073ffffffffffffffffffffffffffffffffffffffff16815250348015610042575f5ffd5b5061005161005660201b60201c565b6101d1565b5f61006561015460201b60201c565b9050805f0160089054906101000a900460ff16156100af576040517ff92ee8a900000000000000000000000000000000000000000000000000000000815260040160405180910390fd5b67ffffffffffffffff8016815f015f9054906101000a900467ffffffffffffffff1667ffffffffffffffff16146101515767ffffffffffffffff815f015f6101000a81548167ffffffffffffffff021916908367ffffffffffffffff1602179055507fc7f505b2f371ae2175ee4913f4499e1f2633a7b5936321eed1cdaeb6115181d267ffffffffffffffff60405161014891906101b8565b60405180910390a15b50565b5f5f61016461016d60201b60201c565b90508091505090565b5f7ff0c57e16840df040f15088dc2f81fe391c3923bec73e23a9662efc9c229c6a005f1b905090565b5f67ffffffffffffffff82169050919050565b6101b281610196565b82525050565b5f6020820190506101cb5f8301846101a9565b92915050565b6080516155b66101f75f395f818161251201528181612567015261274401526155b65ff3fe60806040526004361061019f575f3560e01c80636112fe2e116100eb578063b39e377111610089578063d547741f11610063578063d547741f146106c6578063e58378bb146106ee578063f72c0d8b14610718578063f887ea401461074257610311565b8063b39e377114610666578063b83e62bf14610682578063d2a8607b146106aa57610311565b80638610ed1c116100c55780638610ed1c1461059a57806391d14854146105d6578063a217fddf14610612578063ad3cb1cc1461063c57610311565b80636112fe2e14610540578063776ad503146105685780638456cb591461058457610311565b80632f2ff15d11610158578063485cc95511610132578063485cc955146104a85780634f1ef286146104d057806352d1902d146104ec5780635c975abb1461051657610311565b80632f2ff15d1461044257806336568abe1461046a5780633f4ba83a1461049257610311565b806301ffc9a71461034c57806302d05d3f146103885780630a861f2a146103b25780630f89fc31146103ce5780631a567dcf146103ea578063248a9ca31461040657610311565b36610311575f341180156101c05750600160149054906101000a900460ff16155b801561023d5750600173ffffffffffffffffffffffffffffffffffffffff166101e761076c565b73ffffffffffffffffffffffffffffffffffffffff16148061023c5750600173ffffffffffffffffffffffffffffffffffffffff166102246107ff565b73ffffffffffffffffffffffffffffffffffffffff16145b5b156102ab5761024a610892565b73ffffffffffffffffffffffffffffffffffffffff1663d0e30db0346040518263ffffffff1660e01b81526004015f604051808303818588803b15801561028f575f5ffd5b505af11580156102a1573d5f5f3e3d5ffd5b505050505061030e565b5f341180156102c65750600160149054906101000a900460ff165b61030f575f34111561030d576040517f08c379a000000000000000000000000000000000000000000000000000000000815260040161030490613e08565b60405180910390fd5b5b5b005b6040517f08c379a000000000000000000000000000000000000000000000000000000000815260040161034390613e70565b60405180910390fd5b348015610357575f5ffd5b50610372600480360381019061036d9190613ef4565b61090c565b60405161037f9190613f39565b60405180910390f35b348015610393575f5ffd5b5061039c610985565b6040516103a99190613f91565b60405180910390f35b6103cc60048036038101906103c79190613fdd565b6109aa565b005b6103e860048036038101906103e3919061402a565b610a1d565b005b61040460048036038101906103ff919061408f565b610af5565b005b348015610411575f5ffd5b5061042c600480360381019061042791906140ed565b610bd5565b6040516104399190614127565b60405180910390f35b34801561044d575f5ffd5b506104686004803603810190610463919061416a565b610bff565b005b348015610475575f5ffd5b50610490600480360381019061048b919061416a565b610c21565b005b34801561049d575f5ffd5b506104a6610c9c565b005b3480156104b3575f5ffd5b506104ce60048036038101906104c991906141a8565b610cd1565b005b6104ea60048036038101906104e59190614322565b610f61565b005b3480156104f7575f5ffd5b50610500610f80565b60405161050d9190614127565b60405180910390f35b348015610521575f5ffd5b5061052a610fb1565b6040516105379190613f39565b60405180910390f35b34801561054b575f5ffd5b5061056660048036038101906105619190613fdd565b610fd3565b005b610582600480360381019061057d9190613fdd565b61109c565b005b34801561058f575f5ffd5b50610598611129565b005b3480156105a5575f5ffd5b506105c060048036038101906105bb919061439a565b61115e565b6040516105cd91906143d4565b60405180910390f35b3480156105e1575f5ffd5b506105fc60048036038101906105f7919061416a565b611297565b6040516106099190613f39565b60405180910390f35b34801561061d575f5ffd5b50610626611308565b6040516106339190614127565b60405180910390f35b348015610647575f5ffd5b5061065061130e565b60405161065d919061443d565b60405180910390f35b610680600480360381019061067b919061445d565b611347565b005b34801561068d575f5ffd5b506106a860048036038101906106a3919061449b565b6113c0565b005b6106c460048036038101906106bf919061445d565b61154d565b005b3480156106d1575f5ffd5b506106ec60048036038101906106e7919061416a565b61160d565b005b3480156106f9575f5ffd5b5061070261162f565b60405161070f9190614127565b60405180910390f35b348015610723575f5ffd5b5061072c611653565b6040516107399190614127565b60405180910390f35b34801561074d575f5ffd5b50610756611677565b6040516107639190613f91565b60405180910390f35b5f5f5f9054906101000a900473ffffffffffffffffffffffffffffffffffffffff1673ffffffffffffffffffffffffffffffffffffffff1663456dc17a6040518163ffffffff1660e01b8152600401602060405180830381865afa1580156107d6573d5f5f3e3d5ffd5b505050506040513d601f19601f820116820180604052508101906107fa91906144da565b905090565b5f5f5f9054906101000a900473ffffffffffffffffffffffffffffffffffffffff1673ffffffffffffffffffffffffffffffffffffffff1663b2016bd46040518163ffffffff1660e01b8152600401602060405180830381865afa158015610869573d5f5f3e3d5ffd5b505050506040513d601f19601f8201168201806040525081019061088d91906144da565b905090565b5f61089b61169b565b73ffffffffffffffffffffffffffffffffffffffff1663eb6d3a116040518163ffffffff1660e01b8152600401602060405180830381865afa1580156108e3573d5f5f3e3d5ffd5b505050506040513d601f19601f8201168201806040525081019061090791906144da565b905090565b5f7f7965db0b000000000000000000000000000000000000000000000000000000007bffffffffffffffffffffffffffffffffffffffffffffffffffffffff1916827bffffffffffffffffffffffffffffffffffffffffffffffffffffffff1916148061097e575061097d8261172e565b5b9050919050565b60015f9054906101000a900473ffffffffffffffffffffffffffffffffffffffff1681565b6109b2611797565b6109ba6117d8565b5f6109c4826117fa565b90506109cf816118a4565b7fac927268ea9ae2e55027e6ab727fc2db8e3ea48c56c658223a1074567e4298c06109f8611a74565b8284604051610a0993929190614505565b60405180910390a150610a1a611a7b565b50565b610a256117d8565b610a2d611797565b5f5f5f5f610a468560600135610a41611a74565b611a95565b935093509350935046856080013503610a8b576040517f0d415d2600000000000000000000000000000000000000000000000000000000815260040160405180910390fd5b610aa082858588610a9b906147b7565b611b45565b7f7625176ac7826c81414fa702cc32f41ce7445b1831f316608842267322702c2b610ac9611a74565b84848489604051610ade959493929190614af5565b60405180910390a150505050610af2611a7b565b50565b610afd611797565b610b056117d8565b805f016020810190610b17919061449b565b610b2081611d67565b815f016020810190610b32919061449b565b610b3b81611daf565b5f610b5b8460400135855f016020810190610b56919061449b565b611ebb565b9050610b7784803603810190610b719190614c4c565b82611f5f565b7f75aa3d334b0a1b779c1e0db6925f11e01a834d00a702d36524b7f40f47a49b61845f016020810190610baa919061449b565b828660400135604051610bbf93929190614505565b60405180910390a1505050610bd2611a7b565b50565b5f5f610bdf6121ba565b9050805f015f8481526020019081526020015f2060010154915050919050565b610c0882610bd5565b610c11816121e1565b610c1b83836121f5565b50505050565b610c29611a74565b73ffffffffffffffffffffffffffffffffffffffff168173ffffffffffffffffffffffffffffffffffffffff1614610c8d576040517f6697b23200000000000000000000000000000000000000000000000000000000815260040160405180910390fd5b610c9782826122ed565b505050565b7fb19546dff01e856fb3f010c267a7b1c60363cf8a4664e21cc89c26224620214e610cc6816121e1565b610cce6123e5565b50565b5f610cda612453565b90505f815f0160089054906101000a900460ff161590505f825f015f9054906101000a900467ffffffffffffffff1690505f5f8267ffffffffffffffff16148015610d225750825b90505f60018367ffffffffffffffff16148015610d5557505f3073ffffffffffffffffffffffffffffffffffffffff163b145b905081158015610d63575080155b15610d9a576040517ff92ee8a900000000000000000000000000000000000000000000000000000000815260040160405180910390fd5b6001855f015f6101000a81548167ffffffffffffffff021916908367ffffffffffffffff1602179055508315610de7576001855f0160086101000a81548160ff0219169083151502179055505b610def612466565b610df7612470565b610dff61247a565b610e07612484565b865f5f6101000a81548173ffffffffffffffffffffffffffffffffffffffff021916908373ffffffffffffffffffffffffffffffffffffffff1602179055508560015f6101000a81548173ffffffffffffffffffffffffffffffffffffffff021916908373ffffffffffffffffffffffffffffffffffffffff160217905550610e995f5f1b610e94612496565b6121f5565b50610ecb7fb19546dff01e856fb3f010c267a7b1c60363cf8a4664e21cc89c26224620214e610ec6612496565b6121f5565b50610efd7f189ab7a9244df0848122154315af71fe140f3db0fe014031783b0946b8c9d2e3610ef8612496565b6121f5565b508315610f58575f855f0160086101000a81548160ff0219169083151502179055507fc7f505b2f371ae2175ee4913f4499e1f2633a7b5936321eed1cdaeb6115181d26001604051610f4f9190614ccc565b60405180910390a15b50505050505050565b610f69612510565b610f72826125f6565b610f7c8282612624565b5050565b5f610f89612742565b7f360894a13ba1a3210667c828492db98dca3e2076cc3735a920a3ca505d382bbc5f1b905090565b5f5f610fbb6127c9565b9050805f015f9054906101000a900460ff1691505090565b610fdb611797565b610fe36117d8565b610feb611a74565b610ff481611d67565b610ffc611a74565b61100581611daf565b5f830361103e576040517f1f2a200500000000000000000000000000000000000000000000000000000000815260040160405180910390fd5b6110466127f0565b61104f8361286d565b7fa8e76b822fc682be77f3b1c822ea81f6bda5aed92ba82e6873bfd889f328d1d2611078611a74565b84604051611087929190614ce5565b60405180910390a15050611099611a7b565b50565b6110a46117d8565b6110ac611797565b5f5f5f5f6110c1856110bc611a74565b611a95565b93509350935093506110d4828585612a15565b7f94100d31a707f70aa6e74e8a9ac7ebfc32575c457dd4a233f1b66e1a16a313086110fd611a74565b84848489604051611112959493929190614d0c565b60405180910390a150505050611126611a7b565b50565b7fb19546dff01e856fb3f010c267a7b1c60363cf8a4664e21cc89c26224620214e611153816121e1565b61115b612e0c565b50565b5f611167611797565b61116f6117d8565b611177611a74565b61118081611d67565b611188611a74565b61119181611daf565b6111a161119c611a74565b612e7b565b73ffffffffffffffffffffffffffffffffffffffff16638610ed1c856040518263ffffffff1660e01b81526004016111d99190614e35565b6020604051808303815f875af11580156111f5573d5f5f3e3d5ffd5b505050506040513d601f19601f820116820180604052508101906112199190614e62565b92507fc665f2f5768a61c064dd66125ac01f65d2f20d35ebb13a292211bf50619d753e611244611a74565b855f016020810190611256919061449b565b866020016020810190611269919061449b565b876040013587604051611280959493929190614e8d565b60405180910390a15050611292611a7b565b919050565b5f5f6112a16121ba565b9050805f015f8581526020019081526020015f205f015f8473ffffffffffffffffffffffffffffffffffffffff1673ffffffffffffffffffffffffffffffffffffffff1681526020019081526020015f205f9054906101000a900460ff1691505092915050565b5f5f1b81565b6040518060400160405280600581526020017f352e302e3000000000000000000000000000000000000000000000000000000081525081565b61134f611797565b6113576117d8565b8161136181611daf565b5f61136c8385612f1b565b905061137783612fbf565b7fb84c7ef8bee9fe7d403a64ab2705017891a18609ce1910007c1e674b7685815e8484836040516113aa93929190614505565b60405180910390a150506113bc611a7b565b5050565b6113c86117d8565b5f5f5f5f5f9054906101000a900473ffffffffffffffffffffffffffffffffffffffff1673ffffffffffffffffffffffffffffffffffffffff1663b83e62bf856040518263ffffffff1660e01b81526004016114249190613f91565b6060604051808303815f875af1158015611440573d5f5f3e3d5ffd5b505050506040513d601f19601f820116820180604052508101906114649190614ede565b925092509250611483611475611a74565b61147d61076c565b856130e8565b8073ffffffffffffffffffffffffffffffffffffffff16636f2bb86a6114a7611a74565b846040518363ffffffff1660e01b81526004016114c5929190614ce5565b5f604051808303815f87803b1580156114dc575f5ffd5b505af11580156114ee573d5f5f3e3d5ffd5b505050507fd58706648644be277f6999c826f65f98128c29c6846a892b929a304a7f19e3eb8461151c61076c565b6115246107ff565b8686604051611537959493929190614e8d565b60405180910390a150505061154a611a7b565b50565b611555611797565b61155d6117d8565b8161156781611d67565b8261157181611daf565b5f83036115aa576040517f1f2a200500000000000000000000000000000000000000000000000000000000815260040160405180910390fd5b6115b26127f0565b6115bc84846131fe565b7fcfe29c0d43878d135a747227476edb81a1a255aea285b3aa301e9d5e616539fa6115e685612e7b565b85856040516115f793929190614f2e565b60405180910390a15050611609611a7b565b5050565b61161682610bd5565b61161f816121e1565b61162983836122ed565b50505050565b7fb19546dff01e856fb3f010c267a7b1c60363cf8a4664e21cc89c26224620214e81565b7f189ab7a9244df0848122154315af71fe140f3db0fe014031783b0946b8c9d2e381565b5f5f9054906101000a900473ffffffffffffffffffffffffffffffffffffffff1681565b5f5f5f9054906101000a900473ffffffffffffffffffffffffffffffffffffffff1673ffffffffffffffffffffffffffffffffffffffff1663c45a01556040518163ffffffff1660e01b8152600401602060405180830381865afa158015611705573d5f5f3e3d5ffd5b505050506040513d601f19601f8201168201806040525081019061172991906144da565b905090565b5f7f01ffc9a7000000000000000000000000000000000000000000000000000000007bffffffffffffffffffffffffffffffffffffffffffffffffffffffff1916827bffffffffffffffffffffffffffffffffffffffffffffffffffffffff1916149050919050565b61179f610fb1565b156117d6576040517fd93c066500000000000000000000000000000000000000000000000000000000815260040160405180910390fd5b565b6117e06133ee565b60026117f26117ed61342f565b613458565b5f0181905550565b5f5f5f9054906101000a900473ffffffffffffffffffffffffffffffffffffffff1673ffffffffffffffffffffffffffffffffffffffff166368fc0c9a83611840611a74565b6040518363ffffffff1660e01b815260040161185d929190614f63565b6020604051808303815f875af1158015611879573d5f5f3e3d5ffd5b505050506040513d601f19601f8201168201806040525081019061189d9190614e62565b9050919050565b600173ffffffffffffffffffffffffffffffffffffffff166118c461076c565b73ffffffffffffffffffffffffffffffffffffffff1603611a375760018060146101000a81548160ff021916908315150217905550611901610892565b73ffffffffffffffffffffffffffffffffffffffff16632e1a7d4d826040518263ffffffff1660e01b815260040161193991906143d4565b5f604051808303815f87803b158015611950575f5ffd5b505af1158015611962573d5f5f3e3d5ffd5b505050505f61196f611a74565b73ffffffffffffffffffffffffffffffffffffffff168260405161199290614fb7565b5f6040518083038185875af1925050503d805f81146119cc576040519150601f19603f3d011682016040523d82523d5f602084013e6119d1565b606091505b5050905080611a1757816040517fc39ba1a9000000000000000000000000000000000000000000000000000000008152600401611a0e91906143d4565b60405180910390fd5b5f600160146101000a81548160ff02191690831515021790555050611a71565b611a70611a42611a74565b82611a4b61076c565b73ffffffffffffffffffffffffffffffffffffffff166134619092919063ffffffff16565b5b50565b5f33905090565b6001611a8d611a8861342f565b613458565b5f0181905550565b5f5f5f5f5f5f9054906101000a900473ffffffffffffffffffffffffffffffffffffffff1673ffffffffffffffffffffffffffffffffffffffff166335fce80e87876040518363ffffffff1660e01b8152600401611af4929190614f63565b6080604051808303815f875af1158015611b10573d5f5f3e3d5ffd5b505050506040513d601f19601f82011682018060405250810190611b349190614fcb565b935093509350935092959194509250565b611b7e611b506134e0565b83611b5961076c565b73ffffffffffffffffffffffffffffffffffffffff166134619092919063ffffffff16565b611bd160015f9054906101000a900473ffffffffffffffffffffffffffffffffffffffff1684611bac61076c565b73ffffffffffffffffffffffffffffffffffffffff166134619092919063ffffffff16565b611bd961076c565b73ffffffffffffffffffffffffffffffffffffffff1663095ea7b3611bfc61355a565b866040518363ffffffff1660e01b8152600401611c1a929190614ce5565b6020604051808303815f875af1158015611c36573d5f5f3e3d5ffd5b505050506040513d601f19601f82011682018060405250810190611c5a9190615043565b5083815f0151604001818152505083815f015160600181815250505f81602001515f01511115611d2657611c8c61355a565b73ffffffffffffffffffffffffffffffffffffffff1663c7c7f5b382602001515f0151835f01518460200151611cc0611a74565b6040518563ffffffff1660e01b8152600401611cde93929190615184565b60c06040518083038185885af1158015611cfa573d5f5f3e3d5ffd5b50505050506040513d601f19601f82011682018060405250810190611d1f91906152f9565b5050611d61565b6040517f08c379a0000000000000000000000000000000000000000000000000000000008152600401611d5890615381565b60405180910390fd5b50505050565b5f73ffffffffffffffffffffffffffffffffffffffff16611d8782612e7b565b73ffffffffffffffffffffffffffffffffffffffff1603611dac57611dab816135e6565b5b50565b611db761169b565b73ffffffffffffffffffffffffffffffffffffffff16639a307391611dda611a74565b6040518263ffffffff1660e01b8152600401611df69190613f91565b602060405180830381865afa158015611e11573d5f5f3e3d5ffd5b505050506040513d601f19601f82011682018060405250810190611e359190615043565b611eb8578073ffffffffffffffffffffffffffffffffffffffff16611e58611a74565b73ffffffffffffffffffffffffffffffffffffffff1614611eb757611e7b611a74565b6040517f4a0bfec1000000000000000000000000000000000000000000000000000000008152600401611eae9190613f91565b60405180910390fd5b5b50565b5f5f5f9054906101000a900473ffffffffffffffffffffffffffffffffffffffff1673ffffffffffffffffffffffffffffffffffffffff16639d058e6784846040518363ffffffff1660e01b8152600401611f17929190614f63565b6020604051808303815f875af1158015611f33573d5f5f3e3d5ffd5b505050506040513d601f19601f82011682018060405250810190611f579190614e62565b905092915050565b5f6040518060a00160405280846020015173ffffffffffffffffffffffffffffffffffffffff168152602001611f9361076c565b73ffffffffffffffffffffffffffffffffffffffff168152602001838152602001846060015181526020018460a0015162ffffff16815250905082608001511561204d57611fe3835f0151612e7b565b73ffffffffffffffffffffffffffffffffffffffff1663d6ebd5e3826040518263ffffffff1660e01b815260040161201b9190615405565b5f604051808303815f87803b158015612032575f5ffd5b505af1158015612044573d5f5f3e3d5ffd5b505050506121b5565b61205561076c565b73ffffffffffffffffffffffffffffffffffffffff16836020015173ffffffffffffffffffffffffffffffffffffffff161461219e5761209d835f01518460200151846130e8565b826020015173ffffffffffffffffffffffffffffffffffffffff1663095ea7b36120c9855f0151612e7b565b846040518363ffffffff1660e01b81526004016120e7929190614ce5565b6020604051808303815f875af1158015612103573d5f5f3e3d5ffd5b505050506040513d601f19601f820116820180604052508101906121279190615043565b50612134835f0151612e7b565b73ffffffffffffffffffffffffffffffffffffffff16634ced4241826040518263ffffffff1660e01b815260040161216c9190615405565b5f604051808303815f87803b158015612183575f5ffd5b505af1158015612195573d5f5f3e3d5ffd5b505050506121b4565b6121b3835f01516121ad61076c565b846130e8565b5b5b505050565b5f7f02dd7bc7dec4dceedda775e58dd541e08a116c6c53815c0bd028192f7b626800905090565b6121f2816121ed611a74565b61379e565b50565b5f5f6121ff6121ba565b905061220b8484611297565b6122e2576001815f015f8681526020019081526020015f205f015f8573ffffffffffffffffffffffffffffffffffffffff1673ffffffffffffffffffffffffffffffffffffffff1681526020019081526020015f205f6101000a81548160ff02191690831515021790555061227e611a74565b73ffffffffffffffffffffffffffffffffffffffff168373ffffffffffffffffffffffffffffffffffffffff16857f2f8788117e7eff1d82e926ec794901d17c78024a50270940304540a733656f0d60405160405180910390a460019150506122e7565b5f9150505b92915050565b5f5f6122f76121ba565b90506123038484611297565b156123da575f815f015f8681526020019081526020015f205f015f8573ffffffffffffffffffffffffffffffffffffffff1673ffffffffffffffffffffffffffffffffffffffff1681526020019081526020015f205f6101000a81548160ff021916908315150217905550612376611a74565b73ffffffffffffffffffffffffffffffffffffffff168373ffffffffffffffffffffffffffffffffffffffff16857ff6391f5c32d9c69d2a47ea670b442974b53935d1edc7fd64eb21e047a839171b60405160405180910390a460019150506123df565b5f9150505b92915050565b6123ed6137ef565b5f6123f66127c9565b90505f815f015f6101000a81548160ff0219169083151502179055507f5db9ee0a495bf2e6ff9c91a7834c1ba4fdd244a5e8aa4e537bd38aeae4b073aa61243b611a74565b6040516124489190613f91565b60405180910390a150565b5f5f61245d61382f565b90508091505090565b61246e613858565b565b612478613858565b565b612482613858565b565b61248c613858565b612494613898565b565b5f61249f61169b565b73ffffffffffffffffffffffffffffffffffffffff16638da5cb5b6040518163ffffffff1660e01b8152600401602060405180830381865afa1580156124e7573d5f5f3e3d5ffd5b505050506040513d601f19601f8201168201806040525081019061250b91906144da565b905090565b7f000000000000000000000000000000000000000000000000000000000000000073ffffffffffffffffffffffffffffffffffffffff163073ffffffffffffffffffffffffffffffffffffffff1614806125bd57507f000000000000000000000000000000000000000000000000000000000000000073ffffffffffffffffffffffffffffffffffffffff166125a46138ba565b73ffffffffffffffffffffffffffffffffffffffff1614155b156125f4576040517fe07c8dba00000000000000000000000000000000000000000000000000000000815260040160405180910390fd5b565b7f189ab7a9244df0848122154315af71fe140f3db0fe014031783b0946b8c9d2e3612620816121e1565b5050565b8173ffffffffffffffffffffffffffffffffffffffff166352d1902d6040518163ffffffff1660e01b8152600401602060405180830381865afa92505050801561268c57506040513d601f19601f82011682018060405250810190612689919061541e565b60015b6126cd57816040517f4c9c8ce30000000000000000000000000000000000000000000000000000000081526004016126c49190613f91565b60405180910390fd5b7f360894a13ba1a3210667c828492db98dca3e2076cc3735a920a3ca505d382bbc5f1b811461273357806040517faa1d49a400000000000000000000000000000000000000000000000000000000815260040161272a9190614127565b60405180910390fd5b61273d838361390d565b505050565b7f000000000000000000000000000000000000000000000000000000000000000073ffffffffffffffffffffffffffffffffffffffff163073ffffffffffffffffffffffffffffffffffffffff16146127c7576040517fe07c8dba00000000000000000000000000000000000000000000000000000000815260040160405180910390fd5b565b5f7fcd5ed15c6e187e77e9aee88184c21f4f2182ab5827cb3b7e07fbedcd63f03300905090565b5f5f9054906101000a900473ffffffffffffffffffffffffffffffffffffffff1673ffffffffffffffffffffffffffffffffffffffff1663a6afed956040518163ffffffff1660e01b81526004015f604051808303815f87803b158015612855575f5ffd5b505af1158015612867573d5f5f3e3d5ffd5b50505050565b5f600173ffffffffffffffffffffffffffffffffffffffff1661288e6107ff565b73ffffffffffffffffffffffffffffffffffffffff16146128b6576128b16107ff565b6128bf565b6128be610892565b5b90505f8173ffffffffffffffffffffffffffffffffffffffff166370a082316128ee6128e9611a74565b612e7b565b6040518263ffffffff1660e01b815260040161290a9190613f91565b602060405180830381865afa158015612925573d5f5f3e3d5ffd5b505050506040513d601f19601f820116820180604052508101906129499190614e62565b9050808311156129925782816040517fb07e3bc4000000000000000000000000000000000000000000000000000000008152600401612989929190615449565b60405180910390fd5b6129a261299d611a74565b612e7b565b73ffffffffffffffffffffffffffffffffffffffff16630af504cc846129c6611a74565b6040518363ffffffff1660e01b81526004016129e3929190614f63565b5f604051808303815f87803b1580156129fa575f5ffd5b505af1158015612a0c573d5f5f3e3d5ffd5b50505050505050565b600173ffffffffffffffffffffffffffffffffffffffff16612a3561076c565b73ffffffffffffffffffffffffffffffffffffffff1603612d415760018060146101000a81548160ff0219169083151502179055505f828285612a78919061549d565b612a82919061549d565b9050612a8c610892565b73ffffffffffffffffffffffffffffffffffffffff16632e1a7d4d826040518263ffffffff1660e01b8152600401612ac491906143d4565b5f604051808303815f87803b158015612adb575f5ffd5b505af1158015612aed573d5f5f3e3d5ffd5b505050505f612afa6134e0565b73ffffffffffffffffffffffffffffffffffffffff1683604051612b1d90614fb7565b5f6040518083038185875af1925050503d805f8114612b57576040519150601f19603f3d011682016040523d82523d5f602084013e612b5c565b606091505b5050905080612ba257826040517fc39ba1a9000000000000000000000000000000000000000000000000000000008152600401612b9991906143d4565b60405180910390fd5b5f60015f9054906101000a900473ffffffffffffffffffffffffffffffffffffffff1673ffffffffffffffffffffffffffffffffffffffff1685604051612be890614fb7565b5f6040518083038185875af1925050503d805f8114612c22576040519150601f19603f3d011682016040523d82523d5f602084013e612c27565b606091505b5050905080612c6d57846040517fc39ba1a9000000000000000000000000000000000000000000000000000000008152600401612c6491906143d4565b60405180910390fd5b5f612c76611a74565b73ffffffffffffffffffffffffffffffffffffffff1687604051612c9990614fb7565b5f6040518083038185875af1925050503d805f8114612cd3576040519150601f19603f3d011682016040523d82523d5f602084013e612cd8565b606091505b5050905080612d1e57866040517fc39ba1a9000000000000000000000000000000000000000000000000000000008152600401612d1591906143d4565b60405180910390fd5b5f600160146101000a81548160ff02191690831515021790555050505050612e07565b612d7a612d4c6134e0565b82612d5561076c565b73ffffffffffffffffffffffffffffffffffffffff166134619092919063ffffffff16565b612dcd60015f9054906101000a900473ffffffffffffffffffffffffffffffffffffffff1683612da861076c565b73ffffffffffffffffffffffffffffffffffffffff166134619092919063ffffffff16565b612e06612dd8611a74565b84612de161076c565b73ffffffffffffffffffffffffffffffffffffffff166134619092919063ffffffff16565b5b505050565b612e14611797565b5f612e1d6127c9565b90506001815f015f6101000a81548160ff0219169083151502179055507f62e78cea01bee320cd4e420270b5ea74000d11b0c9f74754ebdbfc544b05a258612e63611a74565b604051612e709190613f91565b60405180910390a150565b5f5f5f9054906101000a900473ffffffffffffffffffffffffffffffffffffffff1673ffffffffffffffffffffffffffffffffffffffff1663f79c3800836040518263ffffffff1660e01b8152600401612ed59190613f91565b602060405180830381865afa158015612ef0573d5f5f3e3d5ffd5b505050506040513d601f19601f82011682018060405250810190612f1491906144da565b9050919050565b5f5f5f9054906101000a900473ffffffffffffffffffffffffffffffffffffffff1673ffffffffffffffffffffffffffffffffffffffff166311d9dbd384846040518363ffffffff1660e01b8152600401612f77929190614f63565b6020604051808303815f875af1158015612f93573d5f5f3e3d5ffd5b505050506040513d601f19601f82011682018060405250810190612fb79190614e62565b905092915050565b600173ffffffffffffffffffffffffffffffffffffffff16612fdf61076c565b73ffffffffffffffffffffffffffffffffffffffff16036130a9578034146130405734816040517fe65fd68d000000000000000000000000000000000000000000000000000000008152600401613037929190615449565b60405180910390fd5b613048610892565b73ffffffffffffffffffffffffffffffffffffffff1663d0e30db0826040518263ffffffff1660e01b81526004015f604051808303818588803b15801561308d575f5ffd5b505af115801561309f573d5f5f3e3d5ffd5b50505050506130e5565b6130e46130b4611a74565b30836130be61076c565b73ffffffffffffffffffffffffffffffffffffffff1661397f909392919063ffffffff16565b5b50565b600173ffffffffffffffffffffffffffffffffffffffff168273ffffffffffffffffffffffffffffffffffffffff16036131cb578034146131625734816040517f7a3f44dc000000000000000000000000000000000000000000000000000000008152600401613159929190615449565b60405180910390fd5b61316a610892565b73ffffffffffffffffffffffffffffffffffffffff1663d0e30db0346040518263ffffffff1660e01b81526004015f604051808303818588803b1580156131af575f5ffd5b505af11580156131c1573d5f5f3e3d5ffd5b50505050506131f9565b6131f88330838573ffffffffffffffffffffffffffffffffffffffff1661397f909392919063ffffffff16565b5b505050565b600173ffffffffffffffffffffffffffffffffffffffff1661321e6107ff565b73ffffffffffffffffffffffffffffffffffffffff16036133ad5780341461327f5734816040517f430ed296000000000000000000000000000000000000000000000000000000008152600401613276929190615449565b60405180910390fd5b613287610892565b73ffffffffffffffffffffffffffffffffffffffff1663d0e30db0346040518263ffffffff1660e01b81526004015f604051808303818588803b1580156132cc575f5ffd5b505af11580156132de573d5f5f3e3d5ffd5b50505050506132eb610892565b73ffffffffffffffffffffffffffffffffffffffff1663095ea7b361330f84612e7b565b836040518363ffffffff1660e01b815260040161332d929190614ce5565b6020604051808303815f875af1158015613349573d5f5f3e3d5ffd5b505050506040513d601f19601f8201168201806040525081019061336d9190615043565b506133a861337a83612e7b565b82613383610892565b73ffffffffffffffffffffffffffffffffffffffff166134619092919063ffffffff16565b6133ea565b6133e9826133ba84612e7b565b836133c36107ff565b73ffffffffffffffffffffffffffffffffffffffff1661397f909392919063ffffffff16565b5b5050565b6133f6613a01565b1561342d576040517f3ee5aeb500000000000000000000000000000000000000000000000000000000815260040160405180910390fd5b565b5f7f9b779b17422d0df92223018b32b4d1fa46e071723d6817e2486d003becc55f005f1b905090565b5f819050919050565b6134db838473ffffffffffffffffffffffffffffffffffffffff1663a9059cbb8585604051602401613494929190614ce5565b604051602081830303815290604052915060e01b6020820180517bffffffffffffffffffffffffffffffffffffffffffffffffffffffff8381831617835250505050613a1d565b505050565b5f6134e961169b565b73ffffffffffffffffffffffffffffffffffffffff16638ce744266040518163ffffffff1660e01b8152600401602060405180830381865afa158015613531573d5f5f3e3d5ffd5b505050506040513d601f19601f8201168201806040525081019061355591906144da565b905090565b5f61356361169b565b73ffffffffffffffffffffffffffffffffffffffff1663efe1b2cd61358661076c565b6040518263ffffffff1660e01b81526004016135a29190613f91565b602060405180830381865afa1580156135bd573d5f5f3e3d5ffd5b505050506040513d601f19601f820116820180604052508101906135e191906144da565b905090565b5f73ffffffffffffffffffffffffffffffffffffffff1661360682612e7b565b73ffffffffffffffffffffffffffffffffffffffff16146136665761362a81612e7b565b6040517f5951739c00000000000000000000000000000000000000000000000000000000815260040161365d9190613f91565b60405180910390fd5b5f5f9054906101000a900473ffffffffffffffffffffffffffffffffffffffff1673ffffffffffffffffffffffffffffffffffffffff1663f7e0ebf6826040518263ffffffff1660e01b81526004016136bf9190613f91565b6020604051808303815f875af11580156136db573d5f5f3e3d5ffd5b505050506040513d601f19601f820116820180604052508101906136ff91906144da565b50613708613ab8565b73ffffffffffffffffffffffffffffffffffffffff166393f005fb305f5f9054906101000a900473ffffffffffffffffffffffffffffffffffffffff168461374f86612e7b565b6040518563ffffffff1660e01b815260040161376e94939291906154d0565b5f604051808303815f87803b158015613785575f5ffd5b505af1158015613797573d5f5f3e3d5ffd5b5050505050565b6137a88282611297565b6137eb5780826040517fe2517d3f0000000000000000000000000000000000000000000000000000000081526004016137e2929190615513565b60405180910390fd5b5050565b6137f7610fb1565b61382d576040517f8dfc202b00000000000000000000000000000000000000000000000000000000815260040160405180910390fd5b565b5f7ff0c57e16840df040f15088dc2f81fe391c3923bec73e23a9662efc9c229c6a005f1b905090565b613860613b32565b613896576040517fd7e6bcf800000000000000000000000000000000000000000000000000000000815260040160405180910390fd5b565b6138a0613858565b60016138b26138ad61342f565b613458565b5f0181905550565b5f6138e67f360894a13ba1a3210667c828492db98dca3e2076cc3735a920a3ca505d382bbc5f1b613b50565b5f015f9054906101000a900473ffffffffffffffffffffffffffffffffffffffff16905090565b61391682613b59565b8173ffffffffffffffffffffffffffffffffffffffff167fbc7cd75a20ee27fd9adebab32041f755214dbc6bffa90cc0225b39da2e5c2d3b60405160405180910390a25f815111156139725761396c8282613c22565b5061397b565b61397a613ca2565b5b5050565b6139fb848573ffffffffffffffffffffffffffffffffffffffff166323b872dd8686866040516024016139b493929190614f2e565b604051602081830303815290604052915060e01b6020820180517bffffffffffffffffffffffffffffffffffffffffffffffffffffffff8381831617835250505050613a1d565b50505050565b5f6002613a14613a0f61342f565b613458565b5f015414905090565b5f5f60205f8451602086015f885af180613a3c576040513d5f823e3d81fd5b3d92505f519150505f8214613a55576001811415613a70565b5f8473ffffffffffffffffffffffffffffffffffffffff163b145b15613ab257836040517f5274afe7000000000000000000000000000000000000000000000000000000008152600401613aa99190613f91565b60405180910390fd5b50505050565b5f613ac161169b565b73ffffffffffffffffffffffffffffffffffffffff16634daab2766040518163ffffffff1660e01b8152600401602060405180830381865afa158015613b09573d5f5f3e3d5ffd5b505050506040513d601f19601f82011682018060405250810190613b2d91906144da565b905090565b5f613b3b612453565b5f0160089054906101000a900460ff16905090565b5f819050919050565b5f8173ffffffffffffffffffffffffffffffffffffffff163b03613bb457806040517f4c9c8ce3000000000000000000000000000000000000000000000000000000008152600401613bab9190613f91565b60405180910390fd5b80613be07f360894a13ba1a3210667c828492db98dca3e2076cc3735a920a3ca505d382bbc5f1b613b50565b5f015f6101000a81548173ffffffffffffffffffffffffffffffffffffffff021916908373ffffffffffffffffffffffffffffffffffffffff16021790555050565b60605f5f8473ffffffffffffffffffffffffffffffffffffffff1684604051613c4b919061556a565b5f60405180830381855af49150503d805f8114613c83576040519150601f19603f3d011682016040523d82523d5f602084013e613c88565b606091505b5091509150613c98858383613cde565b9250505092915050565b5f341115613cdc576040517fb398979f00000000000000000000000000000000000000000000000000000000815260040160405180910390fd5b565b606082613cf357613cee82613d6b565b613d63565b5f8251148015613d1957505f8473ffffffffffffffffffffffffffffffffffffffff163b145b15613d5b57836040517f9996b315000000000000000000000000000000000000000000000000000000008152600401613d529190613f91565b60405180910390fd5b819050613d64565b5b9392505050565b5f81511115613d7c57805160208201fd5b6040517fd6bda27500000000000000000000000000000000000000000000000000000000815260040160405180910390fd5b5f82825260208201905092915050565b7f556e6578706563746564206e617469766520746f6b656e0000000000000000005f82015250565b5f613df2601783613dae565b9150613dfd82613dbe565b602082019050919050565b5f6020820190508181035f830152613e1f81613de6565b9050919050565b7f46616c6c6261636b206e6f7420616c6c6f7765640000000000000000000000005f82015250565b5f613e5a601483613dae565b9150613e6582613e26565b602082019050919050565b5f6020820190508181035f830152613e8781613e4e565b9050919050565b5f604051905090565b5f5ffd5b5f5ffd5b5f7fffffffff0000000000000000000000000000000000000000000000000000000082169050919050565b613ed381613e9f565b8114613edd575f5ffd5b50565b5f81359050613eee81613eca565b92915050565b5f60208284031215613f0957613f08613e97565b5b5f613f1684828501613ee0565b91505092915050565b5f8115159050919050565b613f3381613f1f565b82525050565b5f602082019050613f4c5f830184613f2a565b92915050565b5f73ffffffffffffffffffffffffffffffffffffffff82169050919050565b5f613f7b82613f52565b9050919050565b613f8b81613f71565b82525050565b5f602082019050613fa45f830184613f82565b92915050565b5f819050919050565b613fbc81613faa565b8114613fc6575f5ffd5b50565b5f81359050613fd781613fb3565b92915050565b5f60208284031215613ff257613ff1613e97565b5b5f613fff84828501613fc9565b91505092915050565b5f5ffd5b5f60c0828403121561402157614020614008565b5b81905092915050565b5f6020828403121561403f5761403e613e97565b5b5f82013567ffffffffffffffff81111561405c5761405b613e9b565b5b6140688482850161400c565b91505092915050565b5f60c0828403121561408657614085614008565b5b81905092915050565b5f60c082840312156140a4576140a3613e97565b5b5f6140b184828501614071565b91505092915050565b5f819050919050565b6140cc816140ba565b81146140d6575f5ffd5b50565b5f813590506140e7816140c3565b92915050565b5f6020828403121561410257614101613e97565b5b5f61410f848285016140d9565b91505092915050565b614121816140ba565b82525050565b5f60208201905061413a5f830184614118565b92915050565b61414981613f71565b8114614153575f5ffd5b50565b5f8135905061416481614140565b92915050565b5f5f604083850312156141805761417f613e97565b5b5f61418d858286016140d9565b925050602061419e85828601614156565b9150509250929050565b5f5f604083850312156141be576141bd613e97565b5b5f6141cb85828601614156565b92505060206141dc85828601614156565b9150509250929050565b5f5ffd5b5f5ffd5b5f601f19601f8301169050919050565b7f4e487b71000000000000000000000000000000000000000000000000000000005f52604160045260245ffd5b614234826141ee565b810181811067ffffffffffffffff82111715614253576142526141fe565b5b80604052505050565b5f614265613e8e565b9050614271828261422b565b919050565b5f67ffffffffffffffff8211156142905761428f6141fe565b5b614299826141ee565b9050602081019050919050565b828183375f83830152505050565b5f6142c66142c184614276565b61425c565b9050828152602081018484840111156142e2576142e16141ea565b5b6142ed8482856142a6565b509392505050565b5f82601f830112614309576143086141e6565b5b81356143198482602086016142b4565b91505092915050565b5f5f6040838503121561433857614337613e97565b5b5f61434585828601614156565b925050602083013567ffffffffffffffff81111561436657614365613e9b565b5b614372858286016142f5565b9150509250929050565b5f60a0828403121561439157614390614008565b5b81905092915050565b5f60a082840312156143af576143ae613e97565b5b5f6143bc8482850161437c565b91505092915050565b6143ce81613faa565b82525050565b5f6020820190506143e75f8301846143c5565b92915050565b5f81519050919050565b8281835e5f83830152505050565b5f61440f826143ed565b6144198185613dae565b93506144298185602086016143f7565b614432816141ee565b840191505092915050565b5f6020820190508181035f8301526144558184614405565b905092915050565b5f5f6040838503121561447357614472613e97565b5b5f61448085828601614156565b925050602061449185828601613fc9565b9150509250929050565b5f602082840312156144b0576144af613e97565b5b5f6144bd84828501614156565b91505092915050565b5f815190506144d481614140565b92915050565b5f602082840312156144ef576144ee613e97565b5b5f6144fc848285016144c6565b91505092915050565b5f6060820190506145185f830186613f82565b61452560208301856143c5565b61453260408301846143c5565b949350505050565b5f5ffd5b5f5ffd5b5f63ffffffff82169050919050565b61455a81614542565b8114614564575f5ffd5b50565b5f8135905061457581614551565b92915050565b5f60e082840312156145905761458f61453a565b5b61459a60e061425c565b90505f6145a984828501614567565b5f8301525060206145bc848285016140d9565b60208301525060406145d084828501613fc9565b60408301525060606145e484828501613fc9565b606083015250608082013567ffffffffffffffff8111156146085761460761453e565b5b614614848285016142f5565b60808301525060a082013567ffffffffffffffff8111156146385761463761453e565b5b614644848285016142f5565b60a08301525060c082013567ffffffffffffffff8111156146685761466761453e565b5b614674848285016142f5565b60c08301525092915050565b5f604082840312156146955761469461453a565b5b61469f604061425c565b90505f6146ae84828501613fc9565b5f8301525060206146c184828501613fc9565b60208301525092915050565b5f6fffffffffffffffffffffffffffffffff82169050919050565b6146f1816146cd565b81146146fb575f5ffd5b50565b5f8135905061470c816146e8565b92915050565b5f60c082840312156147275761472661453a565b5b61473160a061425c565b90505f82013567ffffffffffffffff8111156147505761474f61453e565b5b61475c8482850161457b565b5f83015250602061476f84828501614680565b602083015250606061478384828501613fc9565b604083015250608061479784828501613fc9565b60608301525060a06147ab848285016146fe565b60808301525092915050565b5f6147c23683614712565b9050919050565b5f5ffd5b5f8235600160e0038336030381126147e8576147e76147c9565b5b82810191505092915050565b5f6148026020840184614567565b905092915050565b61481381614542565b82525050565b5f61482760208401846140d9565b905092915050565b614838816140ba565b82525050565b5f61484c6020840184613fc9565b905092915050565b61485d81613faa565b82525050565b5f5ffd5b5f5ffd5b5f5f83356001602003843603038112614887576148866147c9565b5b83810192508235915060208301925067ffffffffffffffff8211156148af576148ae614863565b5b6001820236038313156148c5576148c4614867565b5b509250929050565b5f82825260208201905092915050565b5f6148e883856148cd565b93506148f58385846142a6565b6148fe836141ee565b840190509392505050565b5f60e0830161491a5f8401846147f4565b6149265f86018261480a565b506149346020840184614819565b614941602086018261482f565b5061494f604084018461483e565b61495c6040860182614854565b5061496a606084018461483e565b6149776060860182614854565b50614985608084018461486b565b85830360808701526149988382846148dd565b925050506149a960a084018461486b565b85830360a08701526149bc8382846148dd565b925050506149cd60c084018461486b565b85830360c08701526149e08382846148dd565b925050508091505092915050565b5f82905092915050565b60408201614a085f83018361483e565b614a145f850182614854565b50614a22602083018361483e565b614a2f6020850182614854565b50505050565b5f614a4360208401846146fe565b905092915050565b614a54816146cd565b82525050565b5f60c08301614a6b5f8401846147cd565b8482035f860152614a7c8282614909565b915050614a8c60208401846149ee565b614a9960208601826149f8565b50614aa7606084018461483e565b614ab46060860182614854565b50614ac2608084018461483e565b614acf6080860182614854565b50614add60a0840184614a35565b614aea60a0860182614a4b565b508091505092915050565b5f60a082019050614b085f830188613f82565b614b1560208301876143c5565b614b2260408301866143c5565b614b2f60608301856143c5565b8181036080830152614b418184614a5a565b90509695505050505050565b614b5681613f1f565b8114614b60575f5ffd5b50565b5f81359050614b7181614b4d565b92915050565b5f62ffffff82169050919050565b614b8e81614b77565b8114614b98575f5ffd5b50565b5f81359050614ba981614b85565b92915050565b5f60c08284031215614bc457614bc361453a565b5b614bce60c061425c565b90505f614bdd84828501614156565b5f830152506020614bf084828501614156565b6020830152506040614c0484828501613fc9565b6040830152506060614c1884828501613fc9565b6060830152506080614c2c84828501614b63565b60808301525060a0614c4084828501614b9b565b60a08301525092915050565b5f60c08284031215614c6157614c60613e97565b5b5f614c6e84828501614baf565b91505092915050565b5f819050919050565b5f67ffffffffffffffff82169050919050565b5f819050919050565b5f614cb6614cb1614cac84614c77565b614c93565b614c80565b9050919050565b614cc681614c9c565b82525050565b5f602082019050614cdf5f830184614cbd565b92915050565b5f604082019050614cf85f830185613f82565b614d0560208301846143c5565b9392505050565b5f60a082019050614d1f5f830188613f82565b614d2c60208301876143c5565b614d3960408301866143c5565b614d4660608301856143c5565b614d5360808301846143c5565b9695505050505050565b5f614d6b6020840184614156565b905092915050565b614d7c81613f71565b82525050565b5f614d906020840184614b9b565b905092915050565b614da181614b77565b82525050565b60a08201614db75f830183614d5d565b614dc35f850182614d73565b50614dd16020830183614d5d565b614dde6020850182614d73565b50614dec604083018361483e565b614df96040850182614854565b50614e07606083018361483e565b614e146060850182614854565b50614e226080830183614d82565b614e2f6080850182614d98565b50505050565b5f60a082019050614e485f830184614da7565b92915050565b5f81519050614e5c81613fb3565b92915050565b5f60208284031215614e7757614e76613e97565b5b5f614e8484828501614e4e565b91505092915050565b5f60a082019050614ea05f830188613f82565b614ead6020830187613f82565b614eba6040830186613f82565b614ec760608301856143c5565b614ed460808301846143c5565b9695505050505050565b5f5f5f60608486031215614ef557614ef4613e97565b5b5f614f0286828701614e4e565b9350506020614f1386828701614e4e565b9250506040614f24868287016144c6565b9150509250925092565b5f606082019050614f415f830186613f82565b614f4e6020830185613f82565b614f5b60408301846143c5565b949350505050565b5f604082019050614f765f8301856143c5565b614f836020830184613f82565b9392505050565b5f81905092915050565b50565b5f614fa25f83614f8a565b9150614fad82614f94565b5f82019050919050565b5f614fc182614f97565b9150819050919050565b5f5f5f5f60808587031215614fe357614fe2613e97565b5b5f614ff087828801614e4e565b945050602061500187828801614e4e565b935050604061501287828801614e4e565b925050606061502387828801614e4e565b91505092959194509250565b5f8151905061503d81614b4d565b92915050565b5f6020828403121561505857615057613e97565b5b5f6150658482850161502f565b91505092915050565b5f81519050919050565b5f6150828261506e565b61508c81856148cd565b935061509c8185602086016143f7565b6150a5816141ee565b840191505092915050565b5f60e083015f8301516150c55f86018261480a565b5060208301516150d8602086018261482f565b5060408301516150eb6040860182614854565b5060608301516150fe6060860182614854565b50608083015184820360808601526151168282615078565b91505060a083015184820360a08601526151308282615078565b91505060c083015184820360c086015261514a8282615078565b9150508091505092915050565b604082015f82015161516b5f850182614854565b50602082015161517e6020850182614854565b50505050565b5f6080820190508181035f83015261519c81866150b0565b90506151ab6020830185615157565b6151b86060830184613f82565b949350505050565b5f815190506151ce816140c3565b92915050565b6151dd81614c80565b81146151e7575f5ffd5b50565b5f815190506151f8816151d4565b92915050565b5f604082840312156152135761521261453a565b5b61521d604061425c565b90505f61522c84828501614e4e565b5f83015250602061523f84828501614e4e565b60208301525092915050565b5f608082840312156152605761525f61453a565b5b61526a606061425c565b90505f615279848285016151c0565b5f83015250602061528c848285016151ea565b60208301525060406152a0848285016151fe565b60408301525092915050565b5f604082840312156152c1576152c061453a565b5b6152cb604061425c565b90505f6152da84828501614e4e565b5f8301525060206152ed84828501614e4e565b60208301525092915050565b5f5f60c0838503121561530f5761530e613e97565b5b5f61531c8582860161524b565b925050608061532d858286016152ac565b9150509250929050565b7f466565206f6e6c79206e617469766520616c6c6f7765640000000000000000005f82015250565b5f61536b601783613dae565b915061537682615337565b602082019050919050565b5f6020820190508181035f8301526153988161535f565b9050919050565b60a082015f8201516153b35f850182614d73565b5060208201516153c66020850182614d73565b5060408201516153d96040850182614854565b5060608201516153ec6060850182614854565b5060808201516153ff6080850182614d98565b50505050565b5f60a0820190506154185f83018461539f565b92915050565b5f6020828403121561543357615432613e97565b5b5f615440848285016151c0565b91505092915050565b5f60408201905061545c5f8301856143c5565b61546960208301846143c5565b9392505050565b7f4e487b71000000000000000000000000000000000000000000000000000000005f52601160045260245ffd5b5f6154a782613faa565b91506154b283613faa565b92508282019050808211156154ca576154c9615470565b5b92915050565b5f6080820190506154e35f830187613f82565b6154f06020830186613f82565b6154fd6040830185613f82565b61550a6060830184613f82565b95945050505050565b5f6040820190506155265f830185613f82565b6155336020830184614118565b9392505050565b5f6155448261506e565b61554e8185614f8a565b935061555e8185602086016143f7565b80840191505092915050565b5f615575828461553a565b91508190509291505056fea26469706673582212200cbeea0a78b01288b6fb3acb3dd58b4b9e72ff99104beae39df9404488e045e464736f6c634300081e0033a2646970667358221220081a9e558272460b1b19bec8402ada20aca8da13083afa710aa1473e4638759264736f6c634300081e0033","linkReferences":{}},"methodIdentifiers":{"deployLendingPool()":"5949e855","factory()":"c45a0155","owner()":"8da5cb5b","setFactory(address)":"5bb47808"},"id":108}