{"abi":[{"type":"constructor","inputs":[],"stateMutability":"nonpayable"},{"type":"fallback","stateMutability":"nonpayable"},{"type":"function","name":"DEFAULT_ADMIN_ROLE","inputs":[],"outputs":[{"name":"","type":"bytes32","internalType":"bytes32"}],"stateMutability":"view"},{"type":"function","name":"OWNER_ROLE","inputs":[],"outputs":[{"name":"","type":"bytes32","internalType":"bytes32"}],"stateMutability":"view"},{"type":"function","name":"PAUSER_ROLE","inputs":[],"outputs":[{"name":"","type":"bytes32","internalType":"bytes32"}],"stateMutability":"view"},{"type":"function","name":"UPGRADER_ROLE","inputs":[],"outputs":[{"name":"","type":"bytes32","internalType":"bytes32"}],"stateMutability":"view"},{"type":"function","name":"UPGRADE_INTERFACE_VERSION","inputs":[],"outputs":[{"name":"","type":"string","internalType":"string"}],"stateMutability":"view"},{"type":"function","name":"chainIdToEid","inputs":[{"name":"","type":"uint256","internalType":"uint256"}],"outputs":[{"name":"","type":"uint32","internalType":"uint32"}],"stateMutability":"view"},{"type":"function","name":"createLendingPool","inputs":[{"name":"_lendingPoolParams","type":"tuple","internalType":"struct LendingPoolFactoryHook.LendingPoolParams","components":[{"name":"collateralToken","type":"address","internalType":"address"},{"name":"borrowToken","type":"address","internalType":"address"},{"name":"ltv","type":"uint256","internalType":"uint256"},{"name":"supplyLiquidity","type":"uint256","internalType":"uint256"},{"name":"baseRate","type":"uint256","internalType":"uint256"},{"name":"rateAtOptimal","type":"uint256","internalType":"uint256"},{"name":"optimalUtilization","type":"uint256","internalType":"uint256"},{"name":"maxUtilization","type":"uint256","internalType":"uint256"},{"name":"maxRate","type":"uint256","internalType":"uint256"},{"name":"liquidationThreshold","type":"uint256","internalType":"uint256"},{"name":"liquidationBonus","type":"uint256","internalType":"uint256"}]}],"outputs":[{"name":"","type":"address","internalType":"address"}],"stateMutability":"nonpayable"},{"type":"function","name":"creatorFee","inputs":[{"name":"","type":"address","internalType":"address"}],"outputs":[{"name":"","type":"uint256","internalType":"uint256"}],"stateMutability":"view"},{"type":"function","name":"dexRouter","inputs":[],"outputs":[{"name":"","type":"address","internalType":"address"}],"stateMutability":"view"},{"type":"function","name":"getRoleAdmin","inputs":[{"name":"role","type":"bytes32","internalType":"bytes32"}],"outputs":[{"name":"","type":"bytes32","internalType":"bytes32"}],"stateMutability":"view"},{"type":"function","name":"grantRole","inputs":[{"name":"role","type":"bytes32","internalType":"bytes32"},{"name":"account","type":"address","internalType":"address"}],"outputs":[],"stateMutability":"nonpayable"},{"type":"function","name":"hasRole","inputs":[{"name":"role","type":"bytes32","internalType":"bytes32"},{"name":"account","type":"address","internalType":"address"}],"outputs":[{"name":"","type":"bool","internalType":"bool"}],"stateMutability":"view"},{"type":"function","name":"initialize","inputs":[],"outputs":[],"stateMutability":"nonpayable"},{"type":"function","name":"interestRateModel","inputs":[],"outputs":[{"name":"","type":"address","internalType":"address"}],"stateMutability":"view"},{"type":"function","name":"isHealthy","inputs":[],"outputs":[{"name":"","type":"address","internalType":"address"}],"stateMutability":"view"},{"type":"function","name":"lendingPoolDeployer","inputs":[],"outputs":[{"name":"","type":"address","internalType":"address"}],"stateMutability":"view"},{"type":"function","name":"lendingPoolRouterDeployer","inputs":[],"outputs":[{"name":"","type":"address","internalType":"address"}],"stateMutability":"view"},{"type":"function","name":"minAmountSupplyLiquidity","inputs":[{"name":"","type":"address","internalType":"address"}],"outputs":[{"name":"","type":"uint256","internalType":"uint256"}],"stateMutability":"view"},{"type":"function","name":"oftAddress","inputs":[{"name":"","type":"address","internalType":"address"}],"outputs":[{"name":"","type":"address","internalType":"address"}],"stateMutability":"view"},{"type":"function","name":"operator","inputs":[{"name":"","type":"address","internalType":"address"}],"outputs":[{"name":"","type":"bool","internalType":"bool"}],"stateMutability":"view"},{"type":"function","name":"owner","inputs":[],"outputs":[{"name":"","type":"address","internalType":"address"}],"stateMutability":"view"},{"type":"function","name":"pause","inputs":[],"outputs":[],"stateMutability":"nonpayable"},{"type":"function","name":"paused","inputs":[],"outputs":[{"name":"","type":"bool","internalType":"bool"}],"stateMutability":"view"},{"type":"function","name":"positionDeployer","inputs":[],"outputs":[{"name":"","type":"address","internalType":"address"}],"stateMutability":"view"},{"type":"function","name":"protocol","inputs":[],"outputs":[{"name":"","type":"address","internalType":"address"}],"stateMutability":"view"},{"type":"function","name":"proxiableUUID","inputs":[],"outputs":[{"name":"","type":"bytes32","internalType":"bytes32"}],"stateMutability":"view"},{"type":"function","name":"proxyDeployer","inputs":[],"outputs":[{"name":"","type":"address","internalType":"address"}],"stateMutability":"view"},{"type":"function","name":"renounceOwnership","inputs":[],"outputs":[],"stateMutability":"nonpayable"},{"type":"function","name":"renounceRole","inputs":[{"name":"role","type":"bytes32","internalType":"bytes32"},{"name":"callerConfirmation","type":"address","internalType":"address"}],"outputs":[],"stateMutability":"nonpayable"},{"type":"function","name":"revokeRole","inputs":[{"name":"role","type":"bytes32","internalType":"bytes32"},{"name":"account","type":"address","internalType":"address"}],"outputs":[],"stateMutability":"nonpayable"},{"type":"function","name":"setChainIdToEid","inputs":[{"name":"_chainId","type":"uint256","internalType":"uint256"},{"name":"_eid","type":"uint32","internalType":"uint32"}],"outputs":[],"stateMutability":"nonpayable"},{"type":"function","name":"setCreatorFee","inputs":[{"name":"_lendingPoolRouter","type":"address","internalType":"address"},{"name":"_creatorFee","type":"uint256","internalType":"uint256"}],"outputs":[],"stateMutability":"nonpayable"},{"type":"function","name":"setDexRouter","inputs":[{"name":"_dexRouter","type":"address","internalType":"address"}],"outputs":[],"stateMutability":"nonpayable"},{"type":"function","name":"setInterestRateModel","inputs":[{"name":"_interestRateModel","type":"address","internalType":"address"}],"outputs":[],"stateMutability":"nonpayable"},{"type":"function","name":"setIsHealthy","inputs":[{"name":"_isHealthy","type":"address","internalType":"address"}],"outputs":[],"stateMutability":"nonpayable"},{"type":"function","name":"setLendingPoolDeployer","inputs":[{"name":"_lendingPoolDeployer","type":"address","internalType":"address"}],"outputs":[],"stateMutability":"nonpayable"},{"type":"function","name":"setLendingPoolRouterDeployer","inputs":[{"name":"_lendingPoolRouterDeployer","type":"address","internalType":"address"}],"outputs":[],"stateMutability":"nonpayable"},{"type":"function","name":"setMinAmountSupplyLiquidity","inputs":[{"name":"_token","type":"address","internalType":"address"},{"name":"_minAmountSupplyLiquidity","type":"uint256","internalType":"uint256"}],"outputs":[],"stateMutability":"nonpayable"},{"type":"function","name":"setOftAddress","inputs":[{"name":"_token","type":"address","internalType":"address"},{"name":"_oftAddress","type":"address","internalType":"address"}],"outputs":[],"stateMutability":"nonpayable"},{"type":"function","name":"setOperator","inputs":[{"name":"_operator","type":"address","internalType":"address"},{"name":"_status","type":"bool","internalType":"bool"}],"outputs":[],"stateMutability":"nonpayable"},{"type":"function","name":"setPositionDeployer","inputs":[{"name":"_positionDeployer","type":"address","internalType":"address"}],"outputs":[],"stateMutability":"nonpayable"},{"type":"function","name":"setProtocol","inputs":[{"name":"_protocol","type":"address","internalType":"address"}],"outputs":[],"stateMutability":"nonpayable"},{"type":"function","name":"setProxyDeployer","inputs":[{"name":"_proxyDeployer","type":"address","internalType":"address"}],"outputs":[],"stateMutability":"nonpayable"},{"type":"function","name":"setSharesTokenDeployer","inputs":[{"name":"_sharesTokenDeployer","type":"address","internalType":"address"}],"outputs":[],"stateMutability":"nonpayable"},{"type":"function","name":"setSupalaEmitter","inputs":[{"name":"_supalaEmitter","type":"address","internalType":"address"}],"outputs":[],"stateMutability":"nonpayable"},{"type":"function","name":"setTokenDataStream","inputs":[{"name":"_tokenDataStream","type":"address","internalType":"address"}],"outputs":[],"stateMutability":"nonpayable"},{"type":"function","name":"setWrappedNative","inputs":[{"name":"_wrappedNative","type":"address","internalType":"address"}],"outputs":[],"stateMutability":"nonpayable"},{"type":"function","name":"sharesTokenDeployer","inputs":[],"outputs":[{"name":"","type":"address","internalType":"address"}],"stateMutability":"view"},{"type":"function","name":"supalaEmitter","inputs":[],"outputs":[{"name":"","type":"address","internalType":"address"}],"stateMutability":"view"},{"type":"function","name":"supportsInterface","inputs":[{"name":"interfaceId","type":"bytes4","internalType":"bytes4"}],"outputs":[{"name":"","type":"bool","internalType":"bool"}],"stateMutability":"view"},{"type":"function","name":"tokenDataStream","inputs":[],"outputs":[{"name":"","type":"address","internalType":"address"}],"stateMutability":"view"},{"type":"function","name":"transferOwnership","inputs":[{"name":"newOwner","type":"address","internalType":"address"}],"outputs":[],"stateMutability":"nonpayable"},{"type":"function","name":"unpause","inputs":[],"outputs":[],"stateMutability":"nonpayable"},{"type":"function","name":"upgradeToAndCall","inputs":[{"name":"newImplementation","type":"address","internalType":"address"},{"name":"data","type":"bytes","internalType":"bytes"}],"outputs":[],"stateMutability":"payable"},{"type":"function","name":"wrappedNative","inputs":[],"outputs":[{"name":"","type":"address","internalType":"address"}],"stateMutability":"view"},{"type":"event","name":"ChainIdToEidSet","inputs":[{"name":"chainId","type":"uint256","indexed":true,"internalType":"uint256"},{"name":"eid","type":"uint32","indexed":true,"internalType":"uint32"}],"anonymous":false},{"type":"event","name":"CreatorFeeSet","inputs":[{"name":"lendingPoolRouter","type":"address","indexed":true,"internalType":"address"},{"name":"creatorFee","type":"uint256","indexed":true,"internalType":"uint256"}],"anonymous":false},{"type":"event","name":"DexRouterSet","inputs":[{"name":"dexRouter","type":"address","indexed":true,"internalType":"address"}],"anonymous":false},{"type":"event","name":"Initialized","inputs":[{"name":"version","type":"uint64","indexed":false,"internalType":"uint64"}],"anonymous":false},{"type":"event","name":"InterestRateModelSet","inputs":[{"name":"interestRateModel","type":"address","indexed":true,"internalType":"address"}],"anonymous":false},{"type":"event","name":"IsHealthySet","inputs":[{"name":"isHealthy","type":"address","indexed":true,"internalType":"address"}],"anonymous":false},{"type":"event","name":"LendingPoolCreated","inputs":[{"name":"lendingPoolParams","type":"tuple","indexed":false,"internalType":"struct LendingPoolFactoryHook.LendingPoolParams","components":[{"name":"collateralToken","type":"address","internalType":"address"},{"name":"borrowToken","type":"address","internalType":"address"},{"name":"ltv","type":"uint256","internalType":"uint256"},{"name":"supplyLiquidity","type":"uint256","internalType":"uint256"},{"name":"baseRate","type":"uint256","internalType":"uint256"},{"name":"rateAtOptimal","type":"uint256","internalType":"uint256"},{"name":"optimalUtilization","type":"uint256","internalType":"uint256"},{"name":"maxUtilization","type":"uint256","internalType":"uint256"},{"name":"maxRate","type":"uint256","internalType":"uint256"},{"name":"liquidationThreshold","type":"uint256","internalType":"uint256"},{"name":"liquidationBonus","type":"uint256","internalType":"uint256"}]},{"name":"router","type":"address","indexed":false,"internalType":"address"},{"name":"routerImplementation","type":"address","indexed":false,"internalType":"address"},{"name":"lendingPool","type":"address","indexed":false,"internalType":"address"},{"name":"lendingPoolImplementation","type":"address","indexed":false,"internalType":"address"},{"name":"sharesToken","type":"address","indexed":false,"internalType":"address"}],"anonymous":false},{"type":"event","name":"LendingPoolDeployerSet","inputs":[{"name":"lendingPoolDeployer","type":"address","indexed":true,"internalType":"address"}],"anonymous":false},{"type":"event","name":"LendingPoolRouterDeployerSet","inputs":[{"name":"lendingPoolRouterDeployer","type":"address","indexed":true,"internalType":"address"}],"anonymous":false},{"type":"event","name":"MinAmountSupplyLiquiditySet","inputs":[{"name":"token","type":"address","indexed":true,"internalType":"address"},{"name":"minAmountSupplyLiquidity","type":"uint256","indexed":true,"internalType":"uint256"}],"anonymous":false},{"type":"event","name":"OftAddressSet","inputs":[{"name":"token","type":"address","indexed":true,"internalType":"address"},{"name":"oftAddress","type":"address","indexed":true,"internalType":"address"}],"anonymous":false},{"type":"event","name":"OperatorSet","inputs":[{"name":"operator","type":"address","indexed":true,"internalType":"address"},{"name":"status","type":"bool","indexed":false,"internalType":"bool"}],"anonymous":false},{"type":"event","name":"OwnershipTransferred","inputs":[{"name":"previousOwner","type":"address","indexed":true,"internalType":"address"},{"name":"newOwner","type":"address","indexed":true,"internalType":"address"}],"anonymous":false},{"type":"event","name":"Paused","inputs":[{"name":"account","type":"address","indexed":false,"internalType":"address"}],"anonymous":false},{"type":"event","name":"PositionDeployerSet","inputs":[{"name":"positionDeployer","type":"address","indexed":true,"internalType":"address"}],"anonymous":false},{"type":"event","name":"ProtocolSet","inputs":[{"name":"protocol","type":"address","indexed":true,"internalType":"address"}],"anonymous":false},{"type":"event","name":"ProxyDeployerSet","inputs":[{"name":"proxyDeployer","type":"address","indexed":true,"internalType":"address"}],"anonymous":false},{"type":"event","name":"RoleAdminChanged","inputs":[{"name":"role","type":"bytes32","indexed":true,"internalType":"bytes32"},{"name":"previousAdminRole","type":"bytes32","indexed":true,"internalType":"bytes32"},{"name":"newAdminRole","type":"bytes32","indexed":true,"internalType":"bytes32"}],"anonymous":false},{"type":"event","name":"RoleGranted","inputs":[{"name":"role","type":"bytes32","indexed":true,"internalType":"bytes32"},{"name":"account","type":"address","indexed":true,"internalType":"address"},{"name":"sender","type":"address","indexed":true,"internalType":"address"}],"anonymous":false},{"type":"event","name":"RoleRevoked","inputs":[{"name":"role","type":"bytes32","indexed":true,"internalType":"bytes32"},{"name":"account","type":"address","indexed":true,"internalType":"address"},{"name":"sender","type":"address","indexed":true,"internalType":"address"}],"anonymous":false},{"type":"event","name":"SharesTokenDeployerSet","inputs":[{"name":"sharesTokenDeployer","type":"address","indexed":true,"internalType":"address"}],"anonymous":false},{"type":"event","name":"SupalaEmitterSet","inputs":[{"name":"supalaEmitter","type":"address","indexed":true,"internalType":"address"}],"anonymous":false},{"type":"event","name":"TokenDataStreamSet","inputs":[{"name":"tokenDataStream","type":"address","indexed":true,"internalType":"address"}],"anonymous":false},{"type":"event","name":"Unpaused","inputs":[{"name":"account","type":"address","indexed":false,"internalType":"address"}],"anonymous":false},{"type":"event","name":"Upgraded","inputs":[{"name":"implementation","type":"address","indexed":true,"internalType":"address"}],"anonymous":false},{"type":"event","name":"WrappedNativeSet","inputs":[{"name":"wrappedNative","type":"address","indexed":true,"internalType":"address"}],"anonymous":false},{"type":"error","name":"AccessControlBadConfirmation","inputs":[]},{"type":"error","name":"AccessControlUnauthorizedAccount","inputs":[{"name":"account","type":"address","internalType":"address"},{"name":"neededRole","type":"bytes32","internalType":"bytes32"}]},{"type":"error","name":"AddressEmptyCode","inputs":[{"name":"target","type":"address","internalType":"address"}]},{"type":"error","name":"ERC1967InvalidImplementation","inputs":[{"name":"implementation","type":"address","internalType":"address"}]},{"type":"error","name":"ERC1967NonPayable","inputs":[]},{"type":"error","name":"EnforcedPause","inputs":[]},{"type":"error","name":"ExpectedPause","inputs":[]},{"type":"error","name":"FailedCall","inputs":[]},{"type":"error","name":"InvalidInitialization","inputs":[]},{"type":"error","name":"MinAmountSupplyLiquidityExceeded","inputs":[{"name":"amount","type":"uint256","internalType":"uint256"},{"name":"minAmountSupplyLiquidity","type":"uint256","internalType":"uint256"}]},{"type":"error","name":"NotInitializing","inputs":[]},{"type":"error","name":"OracleOnTokenNotSet","inputs":[{"name":"token","type":"address","internalType":"address"}]},{"type":"error","name":"OwnableInvalidOwner","inputs":[{"name":"owner","type":"address","internalType":"address"}]},{"type":"error","name":"OwnableUnauthorizedAccount","inputs":[{"name":"account","type":"address","internalType":"address"}]},{"type":"error","name":"SafeERC20FailedOperation","inputs":[{"name":"token","type":"address","internalType":"address"}]},{"type":"error","name":"UUPSUnauthorizedCallContext","inputs":[]},{"type":"error","name":"UUPSUnsupportedProxiableUUID","inputs":[{"name":"slot","type":"bytes32","internalType":"bytes32"}]}],"bytecode":{"object":"0x60a06040523073ffffffffffffffffffffffffffffffffffffffff1660809073ffffffffffffffffffffffffffffffffffffffff16815250348015610042575f5ffd5b5061005161005660201b60201c565b6101d1565b5f61006561015460201b60201c565b9050805f0160089054906101000a900460ff16156100af576040517ff92ee8a900000000000000000000000000000000000000000000000000000000815260040160405180910390fd5b67ffffffffffffffff8016815f015f9054906101000a900467ffffffffffffffff1667ffffffffffffffff16146101515767ffffffffffffffff815f015f6101000a81548167ffffffffffffffff021916908367ffffffffffffffff1602179055507fc7f505b2f371ae2175ee4913f4499e1f2633a7b5936321eed1cdaeb6115181d267ffffffffffffffff60405161014891906101b8565b60405180910390a15b50565b5f5f61016461016d60201b60201c565b90508091505090565b5f7ff0c57e16840df040f15088dc2f81fe391c3923bec73e23a9662efc9c229c6a005f1b905090565b5f67ffffffffffffffff82169050919050565b6101b281610196565b82525050565b5f6020820190506101cb5f8301846101a9565b92915050565b6080516148fa6101f75f395f818161288b015281816128e00152612abd01526148fa5ff3fe608060405260043610610352575f3560e01c80638cb3aaa3116101c5578063d547741f116100f6578063f09a0d6b11610094578063f3fdb15a1161006e578063f3fdb15a14610bdc578063f72c0d8b14610c06578063f72f863b14610c30578063f8446dcd14610c5857610353565b8063f09a0d6b14610b50578063f151e49714610b78578063f2fde38b14610bb457610353565b8063e63ab1e9116100d0578063e63ab1e914610a96578063e949f3c914610ac0578063eb6d3a1114610aea578063efe1b2cd14610b1457610353565b8063d547741f14610a1a578063e402080414610a42578063e58378bb14610a6c57610353565b80639cc8b2d111610163578063af52c1331161013d578063af52c13314610964578063bd3b54711461098c578063c06f77f2146109b6578063c2e1a90f146109de57610353565b80639cc8b2d1146108e8578063a217fddf14610910578063ad3cb1cc1461093a57610353565b80638dc15a661161019f5780638dc15a661461080c57806391d1485414610834578063986bb433146108705780639a307391146108ac57610353565b80638cb3aaa3146107905780638ce74426146107b85780638da5cb5b146107e257610353565b80633fcaacdf1161029f57806359917d7d1161023d57806375b568a61161021757806375b568a6146107125780638129fc1c1461073c5780638456cb59146107525780638bcd40161461076857610353565b806359917d7d146106aa5780635c975abb146106d2578063715018a6146106fc57610353565b80634f1ef286116102795780634f1ef2861461061457806352cb60ca1461063057806352d1902d14610658578063558a72971461068257610353565b80633fcaacdf1461058457806342e681d8146105c05780634daab276146105ea57610353565b8063248a9ca31161030c57806336568abe116102e657806336568abe146104f657806339a2e6381461051e5780633b6974c6146105465780633f4ba83a1461056e57610353565b8063248a9ca31461046a5780632f2ff15d146104a657806336395ce3146104ce57610353565b8062546b2a1461036057806301ffc9a714610388578063043d9246146103c45780630758d924146103ee5780630a2882b8146104185780630a9d793d1461044257610353565b5b34801561035e575f5ffd5b005b34801561036b575f5ffd5b5061038660048036038101906103819190613d0a565b610c80565b005b348015610393575f5ffd5b506103ae60048036038101906103a99190613d8a565b610d31565b6040516103bb9190613dcf565b60405180910390f35b3480156103cf575f5ffd5b506103d8610daa565b6040516103e59190613df7565b60405180910390f35b3480156103f9575f5ffd5b50610402610dcf565b60405161040f9190613df7565b60405180910390f35b348015610423575f5ffd5b5061042c610df4565b6040516104399190613df7565b60405180910390f35b34801561044d575f5ffd5b5061046860048036038101906104639190613d0a565b610e19565b005b348015610475575f5ffd5b50610490600480360381019061048b9190613e43565b610eca565b60405161049d9190613e7d565b60405180910390f35b3480156104b1575f5ffd5b506104cc60048036038101906104c79190613e96565b610ef4565b005b3480156104d9575f5ffd5b506104f460048036038101906104ef9190613d0a565b610f16565b005b348015610501575f5ffd5b5061051c60048036038101906105179190613e96565b610fc7565b005b348015610529575f5ffd5b50610544600480360381019061053f9190613f07565b611042565b005b348015610551575f5ffd5b5061056c60048036038101906105679190613f07565b6110f7565b005b348015610579575f5ffd5b506105826111ac565b005b34801561058f575f5ffd5b506105aa60048036038101906105a59190613d0a565b6111e1565b6040516105b79190613f54565b60405180910390f35b3480156105cb575f5ffd5b506105d46111f6565b6040516105e19190613df7565b60405180910390f35b3480156105f5575f5ffd5b506105fe61121b565b60405161060b9190613df7565b60405180910390f35b61062e600480360381019061062991906140a9565b611240565b005b34801561063b575f5ffd5b5061065660048036038101906106519190613d0a565b61125f565b005b348015610663575f5ffd5b5061066c611310565b6040516106799190613e7d565b60405180910390f35b34801561068d575f5ffd5b506106a860048036038101906106a3919061412d565b611341565b005b3480156106b5575f5ffd5b506106d060048036038101906106cb9190613d0a565b611412565b005b3480156106dd575f5ffd5b506106e66114c2565b6040516106f39190613dcf565b60405180910390f35b348015610707575f5ffd5b506107106114e4565b005b34801561071d575f5ffd5b506107266114f7565b6040516107339190613df7565b60405180910390f35b348015610747575f5ffd5b5061075061151c565b005b34801561075d575f5ffd5b50610766611765565b005b348015610773575f5ffd5b5061078e60048036038101906107899190613d0a565b61179a565b005b34801561079b575f5ffd5b506107b660048036038101906107b191906141a4565b61184b565b005b3480156107c3575f5ffd5b506107cc6118dd565b6040516107d99190613df7565b60405180910390f35b3480156107ed575f5ffd5b506107f6611902565b6040516108039190613df7565b60405180910390f35b348015610817575f5ffd5b50610832600480360381019061082d9190613d0a565b611937565b005b34801561083f575f5ffd5b5061085a60048036038101906108559190613e96565b6119e8565b6040516108679190613dcf565b60405180910390f35b34801561087b575f5ffd5b5061089660048036038101906108919190613d0a565b611a59565b6040516108a39190613f54565b60405180910390f35b3480156108b7575f5ffd5b506108d260048036038101906108cd9190613d0a565b611a6e565b6040516108df9190613dcf565b60405180910390f35b3480156108f3575f5ffd5b5061090e60048036038101906109099190613d0a565b611a8b565b005b34801561091b575f5ffd5b50610924611b3c565b6040516109319190613e7d565b60405180910390f35b348015610945575f5ffd5b5061094e611b42565b60405161095b9190614242565b60405180910390f35b34801561096f575f5ffd5b5061098a60048036038101906109859190613d0a565b611b7b565b005b348015610997575f5ffd5b506109a0611c2c565b6040516109ad9190613df7565b60405180910390f35b3480156109c1575f5ffd5b506109dc60048036038101906109d79190613d0a565b611c51565b005b3480156109e9575f5ffd5b50610a0460048036038101906109ff919061436f565b611d02565b604051610a119190613df7565b60405180910390f35b348015610a25575f5ffd5b50610a406004803603810190610a3b9190613e96565b612125565b005b348015610a4d575f5ffd5b50610a56612147565b604051610a639190613df7565b60405180910390f35b348015610a77575f5ffd5b50610a8061216b565b604051610a8d9190613e7d565b60405180910390f35b348015610aa1575f5ffd5b50610aaa61218f565b604051610ab79190613e7d565b60405180910390f35b348015610acb575f5ffd5b50610ad46121b3565b604051610ae19190613df7565b60405180910390f35b348015610af5575f5ffd5b50610afe6121d8565b604051610b0b9190613df7565b60405180910390f35b348015610b1f575f5ffd5b50610b3a6004803603810190610b359190613d0a565b6121fd565b604051610b479190613df7565b60405180910390f35b348015610b5b575f5ffd5b50610b766004803603810190610b71919061439b565b61222d565b005b348015610b83575f5ffd5b50610b9e6004803603810190610b9991906143d9565b612331565b604051610bab9190614413565b60405180910390f35b348015610bbf575f5ffd5b50610bda6004803603810190610bd59190613d0a565b612351565b005b348015610be7575f5ffd5b50610bf06123d5565b604051610bfd9190613df7565b60405180910390f35b348015610c11575f5ffd5b50610c1a6123fa565b604051610c279190613e7d565b60405180910390f35b348015610c3b575f5ffd5b50610c566004803603810190610c519190613d0a565b61241e565b005b348015610c63575f5ffd5b50610c7e6004803603810190610c799190613d0a565b6124cf565b005b7fb19546dff01e856fb3f010c267a7b1c60363cf8a4664e21cc89c26224620214e610caa81612580565b8160015f6101000a81548173ffffffffffffffffffffffffffffffffffffffff021916908373ffffffffffffffffffffffffffffffffffffffff1602179055508173ffffffffffffffffffffffffffffffffffffffff167fb01c17406179a638da96eaa4686f4c1b6367270061946142c4a8ea461023d51760405160405180910390a25050565b5f7f7965db0b000000000000000000000000000000000000000000000000000000007bffffffffffffffffffffffffffffffffffffffffffffffffffffffff1916827bffffffffffffffffffffffffffffffffffffffffffffffffffffffff19161480610da35750610da282612594565b5b9050919050565b600a5f9054906101000a900473ffffffffffffffffffffffffffffffffffffffff1681565b60055f9054906101000a900473ffffffffffffffffffffffffffffffffffffffff1681565b60095f9054906101000a900473ffffffffffffffffffffffffffffffffffffffff1681565b7fb19546dff01e856fb3f010c267a7b1c60363cf8a4664e21cc89c26224620214e610e4381612580565b8160025f6101000a81548173ffffffffffffffffffffffffffffffffffffffff021916908373ffffffffffffffffffffffffffffffffffffffff1602179055508173ffffffffffffffffffffffffffffffffffffffff167f9269d63ac6e0360a152db45a73e3e9e471a002419dff28abc7b58efaa211a2ba60405160405180910390a25050565b5f5f610ed46125fd565b9050805f015f8481526020019081526020015f2060010154915050919050565b610efd82610eca565b610f0681612580565b610f108383612624565b50505050565b7fb19546dff01e856fb3f010c267a7b1c60363cf8a4664e21cc89c26224620214e610f4081612580565b8160105f6101000a81548173ffffffffffffffffffffffffffffffffffffffff021916908373ffffffffffffffffffffffffffffffffffffffff1602179055508173ffffffffffffffffffffffffffffffffffffffff167f25a81c5d432e9c6b101507eaa806f49aac98e50902acb359ff58a9e93c686de260405160405180910390a25050565b610fcf61271c565b73ffffffffffffffffffffffffffffffffffffffff168173ffffffffffffffffffffffffffffffffffffffff1614611033576040517f6697b23200000000000000000000000000000000000000000000000000000000815260040160405180910390fd5b61103d8282612723565b505050565b7fb19546dff01e856fb3f010c267a7b1c60363cf8a4664e21cc89c26224620214e61106c81612580565b81600d5f8573ffffffffffffffffffffffffffffffffffffffff1673ffffffffffffffffffffffffffffffffffffffff1681526020019081526020015f2081905550818373ffffffffffffffffffffffffffffffffffffffff167f6af2b431e7174c6e6362e963c769958410cf9e0615cd5bcced6584656ec99e9f60405160405180910390a3505050565b7fb19546dff01e856fb3f010c267a7b1c60363cf8a4664e21cc89c26224620214e61112181612580565b81600f5f8573ffffffffffffffffffffffffffffffffffffffff1673ffffffffffffffffffffffffffffffffffffffff1681526020019081526020015f2081905550818373ffffffffffffffffffffffffffffffffffffffff167f6ba55a7936d2fd804351ca39d5b61d8c7c6ffd20434b70496e3096e62775a07b60405160405180910390a3505050565b7f65d7a28e3265b37a6474929f336521b332c1681b933f6cb9f3376673440d862a6111d681612580565b6111de61281b565b50565b600d602052805f5260405f205f915090505481565b60015f9054906101000a900473ffffffffffffffffffffffffffffffffffffffff1681565b60105f9054906101000a900473ffffffffffffffffffffffffffffffffffffffff1681565b611248612889565b6112518261296f565b61125b828261299d565b5050565b7fb19546dff01e856fb3f010c267a7b1c60363cf8a4664e21cc89c26224620214e61128981612580565b8160045f6101000a81548173ffffffffffffffffffffffffffffffffffffffff021916908373ffffffffffffffffffffffffffffffffffffffff1602179055508173ffffffffffffffffffffffffffffffffffffffff167f141c8827a0e1bf1f8e0a0f1d0b4fce811fd3b387abb10419267afc2b7458377660405160405180910390a25050565b5f611319612abb565b7f360894a13ba1a3210667c828492db98dca3e2076cc3735a920a3ca505d382bbc5f1b905090565b7fb19546dff01e856fb3f010c267a7b1c60363cf8a4664e21cc89c26224620214e61136b81612580565b81600b5f8573ffffffffffffffffffffffffffffffffffffffff1673ffffffffffffffffffffffffffffffffffffffff1681526020019081526020015f205f6101000a81548160ff0219169083151502179055508273ffffffffffffffffffffffffffffffffffffffff167f1a594081ae893ab78e67d9b9e843547318164322d32c65369d78a96172d9dc8f836040516114059190613dcf565b60405180910390a2505050565b7fb19546dff01e856fb3f010c267a7b1c60363cf8a4664e21cc89c26224620214e61143c81612580565b815f5f6101000a81548173ffffffffffffffffffffffffffffffffffffffff021916908373ffffffffffffffffffffffffffffffffffffffff1602179055508173ffffffffffffffffffffffffffffffffffffffff167fdfccf581ae27a41845f39125ccb5ef00c0a079c5bf3bf751ecd2045e2d6d442f60405160405180910390a25050565b5f5f6114cc612b42565b9050805f015f9054906101000a900460ff1691505090565b6114ec612b69565b6114f55f612bf0565b565b60075f9054906101000a900473ffffffffffffffffffffffffffffffffffffffff1681565b5f611525612cc1565b90505f815f0160089054906101000a900460ff161590505f825f015f9054906101000a900467ffffffffffffffff1690505f5f8267ffffffffffffffff1614801561156d5750825b90505f60018367ffffffffffffffff161480156115a057505f3073ffffffffffffffffffffffffffffffffffffffff163b145b9050811580156115ae575080155b156115e5576040517ff92ee8a900000000000000000000000000000000000000000000000000000000815260040160405180910390fd5b6001855f015f6101000a81548167ffffffffffffffff021916908367ffffffffffffffff1602179055508315611632576001855f0160086101000a81548160ff0219169083151502179055505b61163a612cd4565b611642612cde565b61164a612ce8565b61165a61165561271c565b612cf2565b61166d5f5f1b61166861271c565b612624565b5061169f7f65d7a28e3265b37a6474929f336521b332c1681b933f6cb9f3376673440d862a61169a61271c565b612624565b506116d17f189ab7a9244df0848122154315af71fe140f3db0fe014031783b0946b8c9d2e36116cc61271c565b612624565b506117037fb19546dff01e856fb3f010c267a7b1c60363cf8a4664e21cc89c26224620214e6116fe61271c565b612624565b50831561175e575f855f0160086101000a81548160ff0219169083151502179055507fc7f505b2f371ae2175ee4913f4499e1f2633a7b5936321eed1cdaeb6115181d260016040516117559190614481565b60405180910390a15b5050505050565b7f65d7a28e3265b37a6474929f336521b332c1681b933f6cb9f3376673440d862a61178f81612580565b611797612d06565b50565b7fb19546dff01e856fb3f010c267a7b1c60363cf8a4664e21cc89c26224620214e6117c481612580565b8160085f6101000a81548173ffffffffffffffffffffffffffffffffffffffff021916908373ffffffffffffffffffffffffffffffffffffffff1602179055508173ffffffffffffffffffffffffffffffffffffffff167f7902cd1307c545e3f5782172612372bf997a93698917ced12b2f83d86e347d0c60405160405180910390a25050565b7fb19546dff01e856fb3f010c267a7b1c60363cf8a4664e21cc89c26224620214e61187581612580565b81600e5f8581526020019081526020015f205f6101000a81548163ffffffff021916908363ffffffff1602179055508163ffffffff16837f010b01c68d87c7ce7ee9bd2f5c44a9fc5058745365df809b732682761020090160405160405180910390a3505050565b60025f9054906101000a900473ffffffffffffffffffffffffffffffffffffffff1681565b5f5f61190c612d75565b9050805f015f9054906101000a900473ffffffffffffffffffffffffffffffffffffffff1691505090565b7fb19546dff01e856fb3f010c267a7b1c60363cf8a4664e21cc89c26224620214e61196181612580565b8160065f6101000a81548173ffffffffffffffffffffffffffffffffffffffff021916908373ffffffffffffffffffffffffffffffffffffffff1602179055508173ffffffffffffffffffffffffffffffffffffffff167f1f4863d4b849d378969f0cf16d48d4a72c921b296c978602cab2cb4aa5d32d4e60405160405180910390a25050565b5f5f6119f26125fd565b9050805f015f8581526020019081526020015f205f015f8473ffffffffffffffffffffffffffffffffffffffff1673ffffffffffffffffffffffffffffffffffffffff1681526020019081526020015f205f9054906101000a900460ff1691505092915050565b600f602052805f5260405f205f915090505481565b600b602052805f5260405f205f915054906101000a900460ff1681565b7fb19546dff01e856fb3f010c267a7b1c60363cf8a4664e21cc89c26224620214e611ab581612580565b8160075f6101000a81548173ffffffffffffffffffffffffffffffffffffffff021916908373ffffffffffffffffffffffffffffffffffffffff1602179055508173ffffffffffffffffffffffffffffffffffffffff167f0a79aff962cc9e0a3ce8d1f62271362cbf066d9d0ffc588f0f90940b1fe4195560405160405180910390a25050565b5f5f1b81565b6040518060400160405280600581526020017f352e302e3000000000000000000000000000000000000000000000000000000081525081565b7fb19546dff01e856fb3f010c267a7b1c60363cf8a4664e21cc89c26224620214e611ba581612580565b8160095f6101000a81548173ffffffffffffffffffffffffffffffffffffffff021916908373ffffffffffffffffffffffffffffffffffffffff1602179055508173ffffffffffffffffffffffffffffffffffffffff167f9accaad01ff0db4556869245d0b39a4b908f678e12ccfe038dac21062c22d7fb60405160405180910390a25050565b60035f9054906101000a900473ffffffffffffffffffffffffffffffffffffffff1681565b7fb19546dff01e856fb3f010c267a7b1c60363cf8a4664e21cc89c26224620214e611c7b81612580565b81600a5f6101000a81548173ffffffffffffffffffffffffffffffffffffffff021916908373ffffffffffffffffffffffffffffffffffffffff1602179055508173ffffffffffffffffffffffffffffffffffffffff167fdc3a4d4738b334cf6f84c1e51035f979f0e2ec5061a106e19a1c4a61f13c60ef60405160405180910390a25050565b5f815f0151611d1081612d9c565b8260200151611d1e81612d9c565b83602001518460600151611d328282612e30565b5f5f611d4a885f015189602001518a60400151612f3c565b915091505f5f611d598461306d565b91509150611d80848b608001518c60a001518d60c001518e60e001518f610100015161319e565b611d95848b61012001518c6101400151613453565b8373ffffffffffffffffffffffffffffffffffffffff1663113aa8b1836040518263ffffffff1660e01b8152600401611dce9190613df7565b5f604051808303815f87803b158015611de5575f5ffd5b505af1158015611df7573d5f5f3e3d5ffd5b5050505060105f9054906101000a900473ffffffffffffffffffffffffffffffffffffffff1673ffffffffffffffffffffffffffffffffffffffff16631415aa45858673ffffffffffffffffffffffffffffffffffffffff16638009ba1f6040518163ffffffff1660e01b8152600401602060405180830381865afa158015611e82573d5f5f3e3d5ffd5b505050506040513d601f19601f82011682018060405250810190611ea691906144ae565b6040518363ffffffff1660e01b8152600401611ec39291906144d9565b5f604051808303815f87803b158015611eda575f5ffd5b505af1158015611eec573d5f5f3e3d5ffd5b50505050611f2c611efb61271c565b308c606001518d6020015173ffffffffffffffffffffffffffffffffffffffff16613568909392919063ffffffff16565b896020015173ffffffffffffffffffffffffffffffffffffffff1663095ea7b3838c606001516040518363ffffffff1660e01b8152600401611f6f929190614500565b6020604051808303815f875af1158015611f8b573d5f5f3e3d5ffd5b505050506040513d601f19601f82011682018060405250810190611faf919061453b565b508173ffffffffffffffffffffffffffffffffffffffff1663b39e3771611fd461271c565b8c606001516040518363ffffffff1660e01b8152600401611ff6929190614500565b5f604051808303815f87803b15801561200d575f5ffd5b505af115801561201f573d5f5f3e3d5ffd5b5050505060105f9054906101000a900473ffffffffffffffffffffffffffffffffffffffff1673ffffffffffffffffffffffffffffffffffffffff16632f2ff15d7fa49807205ce4d355092ef5a8a18f56e8913cf4a201fbe287825b095693c21775846040518363ffffffff1660e01b815260040161209f929190614566565b5f604051808303815f87803b1580156120b6575f5ffd5b505af11580156120c8573d5f5f3e3d5ffd5b505050507f30c74c560e4ff70b630196419937be844f44bafb888b70df674594ca5d538cc78a858585856120fb8a6135ea565b60405161210d9695949392919061468a565b60405180910390a18198505050505050505050919050565b61212e82610eca565b61213781612580565b6121418383612723565b50505050565b5f5f9054906101000a900473ffffffffffffffffffffffffffffffffffffffff1681565b7fb19546dff01e856fb3f010c267a7b1c60363cf8a4664e21cc89c26224620214e81565b7f65d7a28e3265b37a6474929f336521b332c1681b933f6cb9f3376673440d862a81565b60065f9054906101000a900473ffffffffffffffffffffffffffffffffffffffff1681565b60045f9054906101000a900473ffffffffffffffffffffffffffffffffffffffff1681565b600c602052805f5260405f205f915054906101000a900473ffffffffffffffffffffffffffffffffffffffff1681565b7fb19546dff01e856fb3f010c267a7b1c60363cf8a4664e21cc89c26224620214e61225781612580565b81600c5f8573ffffffffffffffffffffffffffffffffffffffff1673ffffffffffffffffffffffffffffffffffffffff1681526020019081526020015f205f6101000a81548173ffffffffffffffffffffffffffffffffffffffff021916908373ffffffffffffffffffffffffffffffffffffffff1602179055508173ffffffffffffffffffffffffffffffffffffffff168373ffffffffffffffffffffffffffffffffffffffff167f443eca89ae0d91090321746b66b1e5a800bf4f33b317a7dbc01dc310b55c329160405160405180910390a3505050565b600e602052805f5260405f205f915054906101000a900463ffffffff1681565b612359612b69565b5f73ffffffffffffffffffffffffffffffffffffffff168173ffffffffffffffffffffffffffffffffffffffff16036123c9575f6040517f1e4fbdf70000000000000000000000000000000000000000000000000000000081526004016123c09190613df7565b60405180910390fd5b6123d281612bf0565b50565b60085f9054906101000a900473ffffffffffffffffffffffffffffffffffffffff1681565b7f189ab7a9244df0848122154315af71fe140f3db0fe014031783b0946b8c9d2e381565b7fb19546dff01e856fb3f010c267a7b1c60363cf8a4664e21cc89c26224620214e61244881612580565b8160055f6101000a81548173ffffffffffffffffffffffffffffffffffffffff021916908373ffffffffffffffffffffffffffffffffffffffff1602179055508173ffffffffffffffffffffffffffffffffffffffff167f0b7d876ae8d87054bd191d9a2294c7bc50817a9efd22cb0376d4b14838eb271c60405160405180910390a25050565b7fb19546dff01e856fb3f010c267a7b1c60363cf8a4664e21cc89c26224620214e6124f981612580565b8160035f6101000a81548173ffffffffffffffffffffffffffffffffffffffff021916908373ffffffffffffffffffffffffffffffffffffffff1602179055508173ffffffffffffffffffffffffffffffffffffffff167f87f38b33506619f9f981cdf0439928c07e8478960e3b27545f27bae983b1ff8b60405160405180910390a25050565b6125918161258c61271c565b61365f565b50565b5f7f01ffc9a7000000000000000000000000000000000000000000000000000000007bffffffffffffffffffffffffffffffffffffffffffffffffffffffff1916827bffffffffffffffffffffffffffffffffffffffffffffffffffffffff1916149050919050565b5f7f02dd7bc7dec4dceedda775e58dd541e08a116c6c53815c0bd028192f7b626800905090565b5f5f61262e6125fd565b905061263a84846119e8565b612711576001815f015f8681526020019081526020015f205f015f8573ffffffffffffffffffffffffffffffffffffffff1673ffffffffffffffffffffffffffffffffffffffff1681526020019081526020015f205f6101000a81548160ff0219169083151502179055506126ad61271c565b73ffffffffffffffffffffffffffffffffffffffff168373ffffffffffffffffffffffffffffffffffffffff16857f2f8788117e7eff1d82e926ec794901d17c78024a50270940304540a733656f0d60405160405180910390a46001915050612716565b5f9150505b92915050565b5f33905090565b5f5f61272d6125fd565b905061273984846119e8565b15612810575f815f015f8681526020019081526020015f205f015f8573ffffffffffffffffffffffffffffffffffffffff1673ffffffffffffffffffffffffffffffffffffffff1681526020019081526020015f205f6101000a81548160ff0219169083151502179055506127ac61271c565b73ffffffffffffffffffffffffffffffffffffffff168373ffffffffffffffffffffffffffffffffffffffff16857ff6391f5c32d9c69d2a47ea670b442974b53935d1edc7fd64eb21e047a839171b60405160405180910390a46001915050612815565b5f9150505b92915050565b6128236136b0565b5f61282c612b42565b90505f815f015f6101000a81548160ff0219169083151502179055507f5db9ee0a495bf2e6ff9c91a7834c1ba4fdd244a5e8aa4e537bd38aeae4b073aa61287161271c565b60405161287e9190613df7565b60405180910390a150565b7f000000000000000000000000000000000000000000000000000000000000000073ffffffffffffffffffffffffffffffffffffffff163073ffffffffffffffffffffffffffffffffffffffff16148061293657507f000000000000000000000000000000000000000000000000000000000000000073ffffffffffffffffffffffffffffffffffffffff1661291d6136f0565b73ffffffffffffffffffffffffffffffffffffffff1614155b1561296d576040517fe07c8dba00000000000000000000000000000000000000000000000000000000815260040160405180910390fd5b565b7f189ab7a9244df0848122154315af71fe140f3db0fe014031783b0946b8c9d2e361299981612580565b5050565b8173ffffffffffffffffffffffffffffffffffffffff166352d1902d6040518163ffffffff1660e01b8152600401602060405180830381865afa925050508015612a0557506040513d601f19601f82011682018060405250810190612a029190614703565b60015b612a4657816040517f4c9c8ce3000000000000000000000000000000000000000000000000000000008152600401612a3d9190613df7565b60405180910390fd5b7f360894a13ba1a3210667c828492db98dca3e2076cc3735a920a3ca505d382bbc5f1b8114612aac57806040517faa1d49a4000000000000000000000000000000000000000000000000000000008152600401612aa39190613e7d565b60405180910390fd5b612ab68383613743565b505050565b7f000000000000000000000000000000000000000000000000000000000000000073ffffffffffffffffffffffffffffffffffffffff163073ffffffffffffffffffffffffffffffffffffffff1614612b40576040517fe07c8dba00000000000000000000000000000000000000000000000000000000815260040160405180910390fd5b565b5f7fcd5ed15c6e187e77e9aee88184c21f4f2182ab5827cb3b7e07fbedcd63f03300905090565b612b7161271c565b73ffffffffffffffffffffffffffffffffffffffff16612b8f611902565b73ffffffffffffffffffffffffffffffffffffffff1614612bee57612bb261271c565b6040517f118cdaa7000000000000000000000000000000000000000000000000000000008152600401612be59190613df7565b60405180910390fd5b565b5f612bf9612d75565b90505f815f015f9054906101000a900473ffffffffffffffffffffffffffffffffffffffff16905082825f015f6101000a81548173ffffffffffffffffffffffffffffffffffffffff021916908373ffffffffffffffffffffffffffffffffffffffff1602179055508273ffffffffffffffffffffffffffffffffffffffff168173ffffffffffffffffffffffffffffffffffffffff167f8be0079c531659141344cd1fd0a4f28419497f9722a3daafe3b4186f6b6457e060405160405180910390a3505050565b5f5f612ccb6137b5565b90508091505090565b612cdc6137de565b565b612ce66137de565b565b612cf06137de565b565b612cfa6137de565b612d038161381e565b50565b612d0e6138a2565b5f612d17612b42565b90506001815f015f6101000a81548160ff0219169083151502179055507f62e78cea01bee320cd4e420270b5ea74000d11b0c9f74754ebdbfc544b05a258612d5d61271c565b604051612d6a9190613df7565b60405180910390a150565b5f7f9016d09d72d40fdae2fd8ceac6b6234c7706214fd39c1cd1e609a0528c199300905090565b5f73ffffffffffffffffffffffffffffffffffffffff1660075f9054906101000a900473ffffffffffffffffffffffffffffffffffffffff1673ffffffffffffffffffffffffffffffffffffffff1603612e2d57806040517f1ab52334000000000000000000000000000000000000000000000000000000008152600401612e249190613df7565b60405180910390fd5b50565b600d5f8373ffffffffffffffffffffffffffffffffffffffff1673ffffffffffffffffffffffffffffffffffffffff1681526020019081526020015f2054811080612eb757505f600d5f8473ffffffffffffffffffffffffffffffffffffffff1673ffffffffffffffffffffffffffffffffffffffff1681526020019081526020015f2054145b15612f385780600d5f8473ffffffffffffffffffffffffffffffffffffffff1673ffffffffffffffffffffffffffffffffffffffff1681526020019081526020015f20546040517fb621a7f4000000000000000000000000000000000000000000000000000000008152600401612f2f92919061472e565b60405180910390fd5b5050565b5f5f5f60065f9054906101000a900473ffffffffffffffffffffffffffffffffffffffff1673ffffffffffffffffffffffffffffffffffffffff16631f3c18636040518163ffffffff1660e01b81526004016020604051808303815f875af1158015612faa573d5f5f3e3d5ffd5b505050506040513d601f19601f82011682018060405250810190612fce91906144ae565b90505f63cf756fdf60e01b30888888604051602401612ff09493929190614755565b604051602081830303815290604052907bffffffffffffffffffffffffffffffffffffffffffffffffffffffff19166020820180517bffffffffffffffffffffffffffffffffffffffffffffffffffffffff838183161783525050505090505f61305a83836138e3565b9050808394509450505050935093915050565b5f5f5f60015f9054906101000a900473ffffffffffffffffffffffffffffffffffffffff1673ffffffffffffffffffffffffffffffffffffffff16635949e8556040518163ffffffff1660e01b81526004016020604051808303815f875af11580156130db573d5f5f3e3d5ffd5b505050506040513d601f19601f820116820180604052508101906130ff91906144ae565b90505f63485cc95560e01b8561311361271c565b6040516024016131249291906144d9565b604051602081830303815290604052907bffffffffffffffffffffffffffffffffffffffffffffffffffffffff19166020820180517bffffffffffffffffffffffffffffffffffffffffffffffffffffffff838183161783525050505090505f61318e83836138e3565b9050808394509450505050915091565b60085f9054906101000a900473ffffffffffffffffffffffffffffffffffffffff1673ffffffffffffffffffffffffffffffffffffffff16636ba62f7a87876040518363ffffffff1660e01b81526004016131fa929190614500565b5f604051808303815f87803b158015613211575f5ffd5b505af1158015613223573d5f5f3e3d5ffd5b5050505060085f9054906101000a900473ffffffffffffffffffffffffffffffffffffffff1673ffffffffffffffffffffffffffffffffffffffff1663c404747787866040518363ffffffff1660e01b8152600401613283929190614500565b5f604051808303815f87803b15801561329a575f5ffd5b505af11580156132ac573d5f5f3e3d5ffd5b5050505060085f9054906101000a900473ffffffffffffffffffffffffffffffffffffffff1673ffffffffffffffffffffffffffffffffffffffff1663a27cb77087856040518363ffffffff1660e01b815260040161330c929190614500565b5f604051808303815f87803b158015613323575f5ffd5b505af1158015613335573d5f5f3e3d5ffd5b5050505060085f9054906101000a900473ffffffffffffffffffffffffffffffffffffffff1673ffffffffffffffffffffffffffffffffffffffff16639d7da74087846040518363ffffffff1660e01b8152600401613395929190614500565b5f604051808303815f87803b1580156133ac575f5ffd5b505af11580156133be573d5f5f3e3d5ffd5b5050505060085f9054906101000a900473ffffffffffffffffffffffffffffffffffffffff1673ffffffffffffffffffffffffffffffffffffffff1663caa71cac87836040518363ffffffff1660e01b815260040161341e929190614500565b5f604051808303815f87803b158015613435575f5ffd5b505af1158015613447573d5f5f3e3d5ffd5b50505050505050505050565b5f5f9054906101000a900473ffffffffffffffffffffffffffffffffffffffff1673ffffffffffffffffffffffffffffffffffffffff16630e30428d84846040518363ffffffff1660e01b81526004016134ae929190614500565b5f604051808303815f87803b1580156134c5575f5ffd5b505af11580156134d7573d5f5f3e3d5ffd5b505050505f5f9054906101000a900473ffffffffffffffffffffffffffffffffffffffff1673ffffffffffffffffffffffffffffffffffffffff16637cadffd984836040518363ffffffff1660e01b8152600401613536929190614500565b5f604051808303815f87803b15801561354d575f5ffd5b505af115801561355f573d5f5f3e3d5ffd5b50505050505050565b6135e4848573ffffffffffffffffffffffffffffffffffffffff166323b872dd86868660405160240161359d93929190614798565b604051602081830303815290604052915060e01b6020820180517bffffffffffffffffffffffffffffffffffffffffffffffffffffffff8381831617835250505050613988565b50505050565b5f8173ffffffffffffffffffffffffffffffffffffffff16638009ba1f6040518163ffffffff1660e01b8152600401602060405180830381865afa158015613634573d5f5f3e3d5ffd5b505050506040513d601f19601f8201168201806040525081019061365891906144ae565b9050919050565b61366982826119e8565b6136ac5780826040517fe2517d3f0000000000000000000000000000000000000000000000000000000081526004016136a39291906147cd565b60405180910390fd5b5050565b6136b86114c2565b6136ee576040517f8dfc202b00000000000000000000000000000000000000000000000000000000815260040160405180910390fd5b565b5f61371c7f360894a13ba1a3210667c828492db98dca3e2076cc3735a920a3ca505d382bbc5f1b613a23565b5f015f9054906101000a900473ffffffffffffffffffffffffffffffffffffffff16905090565b61374c82613a2c565b8173ffffffffffffffffffffffffffffffffffffffff167fbc7cd75a20ee27fd9adebab32041f755214dbc6bffa90cc0225b39da2e5c2d3b60405160405180910390a25f815111156137a8576137a28282613af5565b506137b1565b6137b0613b75565b5b5050565b5f7ff0c57e16840df040f15088dc2f81fe391c3923bec73e23a9662efc9c229c6a005f1b905090565b6137e6613bb1565b61381c576040517fd7e6bcf800000000000000000000000000000000000000000000000000000000815260040160405180910390fd5b565b6138266137de565b5f73ffffffffffffffffffffffffffffffffffffffff168173ffffffffffffffffffffffffffffffffffffffff1603613896575f6040517f1e4fbdf700000000000000000000000000000000000000000000000000000000815260040161388d9190613df7565b60405180910390fd5b61389f81612bf0565b50565b6138aa6114c2565b156138e1576040517fd93c066500000000000000000000000000000000000000000000000000000000815260040160405180910390fd5b565b5f60095f9054906101000a900473ffffffffffffffffffffffffffffffffffffffff1673ffffffffffffffffffffffffffffffffffffffff16639f5eed7584846040518363ffffffff1660e01b8152600401613940929190614846565b6020604051808303815f875af115801561395c573d5f5f3e3d5ffd5b505050506040513d601f19601f8201168201806040525081019061398091906144ae565b905092915050565b5f5f60205f8451602086015f885af1806139a7576040513d5f823e3d81fd5b3d92505f519150505f82146139c05760018114156139db565b5f8473ffffffffffffffffffffffffffffffffffffffff163b145b15613a1d57836040517f5274afe7000000000000000000000000000000000000000000000000000000008152600401613a149190613df7565b60405180910390fd5b50505050565b5f819050919050565b5f8173ffffffffffffffffffffffffffffffffffffffff163b03613a8757806040517f4c9c8ce3000000000000000000000000000000000000000000000000000000008152600401613a7e9190613df7565b60405180910390fd5b80613ab37f360894a13ba1a3210667c828492db98dca3e2076cc3735a920a3ca505d382bbc5f1b613a23565b5f015f6101000a81548173ffffffffffffffffffffffffffffffffffffffff021916908373ffffffffffffffffffffffffffffffffffffffff16021790555050565b60605f5f8473ffffffffffffffffffffffffffffffffffffffff1684604051613b1e91906148ae565b5f60405180830381855af49150503d805f8114613b56576040519150601f19603f3d011682016040523d82523d5f602084013e613b5b565b606091505b5091509150613b6b858383613bcf565b9250505092915050565b5f341115613baf576040517fb398979f00000000000000000000000000000000000000000000000000000000815260040160405180910390fd5b565b5f613bba612cc1565b5f0160089054906101000a900460ff16905090565b606082613be457613bdf82613c5c565b613c54565b5f8251148015613c0a57505f8473ffffffffffffffffffffffffffffffffffffffff163b145b15613c4c57836040517f9996b315000000000000000000000000000000000000000000000000000000008152600401613c439190613df7565b60405180910390fd5b819050613c55565b5b9392505050565b5f81511115613c6d57805160208201fd5b6040517fd6bda27500000000000000000000000000000000000000000000000000000000815260040160405180910390fd5b5f604051905090565b5f5ffd5b5f5ffd5b5f73ffffffffffffffffffffffffffffffffffffffff82169050919050565b5f613cd982613cb0565b9050919050565b613ce981613ccf565b8114613cf3575f5ffd5b50565b5f81359050613d0481613ce0565b92915050565b5f60208284031215613d1f57613d1e613ca8565b5b5f613d2c84828501613cf6565b91505092915050565b5f7fffffffff0000000000000000000000000000000000000000000000000000000082169050919050565b613d6981613d35565b8114613d73575f5ffd5b50565b5f81359050613d8481613d60565b92915050565b5f60208284031215613d9f57613d9e613ca8565b5b5f613dac84828501613d76565b91505092915050565b5f8115159050919050565b613dc981613db5565b82525050565b5f602082019050613de25f830184613dc0565b92915050565b613df181613ccf565b82525050565b5f602082019050613e0a5f830184613de8565b92915050565b5f819050919050565b613e2281613e10565b8114613e2c575f5ffd5b50565b5f81359050613e3d81613e19565b92915050565b5f60208284031215613e5857613e57613ca8565b5b5f613e6584828501613e2f565b91505092915050565b613e7781613e10565b82525050565b5f602082019050613e905f830184613e6e565b92915050565b5f5f60408385031215613eac57613eab613ca8565b5b5f613eb985828601613e2f565b9250506020613eca85828601613cf6565b9150509250929050565b5f819050919050565b613ee681613ed4565b8114613ef0575f5ffd5b50565b5f81359050613f0181613edd565b92915050565b5f5f60408385031215613f1d57613f1c613ca8565b5b5f613f2a85828601613cf6565b9250506020613f3b85828601613ef3565b9150509250929050565b613f4e81613ed4565b82525050565b5f602082019050613f675f830184613f45565b92915050565b5f5ffd5b5f5ffd5b5f601f19601f8301169050919050565b7f4e487b71000000000000000000000000000000000000000000000000000000005f52604160045260245ffd5b613fbb82613f75565b810181811067ffffffffffffffff82111715613fda57613fd9613f85565b5b80604052505050565b5f613fec613c9f565b9050613ff88282613fb2565b919050565b5f67ffffffffffffffff82111561401757614016613f85565b5b61402082613f75565b9050602081019050919050565b828183375f83830152505050565b5f61404d61404884613ffd565b613fe3565b90508281526020810184848401111561406957614068613f71565b5b61407484828561402d565b509392505050565b5f82601f8301126140905761408f613f6d565b5b81356140a084826020860161403b565b91505092915050565b5f5f604083850312156140bf576140be613ca8565b5b5f6140cc85828601613cf6565b925050602083013567ffffffffffffffff8111156140ed576140ec613cac565b5b6140f98582860161407c565b9150509250929050565b61410c81613db5565b8114614116575f5ffd5b50565b5f8135905061412781614103565b92915050565b5f5f6040838503121561414357614142613ca8565b5b5f61415085828601613cf6565b925050602061416185828601614119565b9150509250929050565b5f63ffffffff82169050919050565b6141838161416b565b811461418d575f5ffd5b50565b5f8135905061419e8161417a565b92915050565b5f5f604083850312156141ba576141b9613ca8565b5b5f6141c785828601613ef3565b92505060206141d885828601614190565b9150509250929050565b5f81519050919050565b5f82825260208201905092915050565b8281835e5f83830152505050565b5f614214826141e2565b61421e81856141ec565b935061422e8185602086016141fc565b61423781613f75565b840191505092915050565b5f6020820190508181035f83015261425a818461420a565b905092915050565b5f5ffd5b5f610160828403121561427c5761427b614262565b5b614287610160613fe3565b90505f61429684828501613cf6565b5f8301525060206142a984828501613cf6565b60208301525060406142bd84828501613ef3565b60408301525060606142d184828501613ef3565b60608301525060806142e584828501613ef3565b60808301525060a06142f984828501613ef3565b60a08301525060c061430d84828501613ef3565b60c08301525060e061432184828501613ef3565b60e08301525061010061433684828501613ef3565b6101008301525061012061434c84828501613ef3565b6101208301525061014061436284828501613ef3565b6101408301525092915050565b5f610160828403121561438557614384613ca8565b5b5f61439284828501614266565b91505092915050565b5f5f604083850312156143b1576143b0613ca8565b5b5f6143be85828601613cf6565b92505060206143cf85828601613cf6565b9150509250929050565b5f602082840312156143ee576143ed613ca8565b5b5f6143fb84828501613ef3565b91505092915050565b61440d8161416b565b82525050565b5f6020820190506144265f830184614404565b92915050565b5f819050919050565b5f67ffffffffffffffff82169050919050565b5f819050919050565b5f61446b6144666144618461442c565b614448565b614435565b9050919050565b61447b81614451565b82525050565b5f6020820190506144945f830184614472565b92915050565b5f815190506144a881613ce0565b92915050565b5f602082840312156144c3576144c2613ca8565b5b5f6144d08482850161449a565b91505092915050565b5f6040820190506144ec5f830185613de8565b6144f96020830184613de8565b9392505050565b5f6040820190506145135f830185613de8565b6145206020830184613f45565b9392505050565b5f8151905061453581614103565b92915050565b5f602082840312156145505761454f613ca8565b5b5f61455d84828501614527565b91505092915050565b5f6040820190506145795f830185613e6e565b6145866020830184613de8565b9392505050565b61459681613ccf565b82525050565b6145a581613ed4565b82525050565b61016082015f8201516145c05f85018261458d565b5060208201516145d3602085018261458d565b5060408201516145e6604085018261459c565b5060608201516145f9606085018261459c565b50608082015161460c608085018261459c565b5060a082015161461f60a085018261459c565b5060c082015161463260c085018261459c565b5060e082015161464560e085018261459c565b5061010082015161465a61010085018261459c565b5061012082015161466f61012085018261459c565b5061014082015161468461014085018261459c565b50505050565b5f6102008201905061469e5f8301896145ab565b6146ac610160830188613de8565b6146ba610180830187613de8565b6146c86101a0830186613de8565b6146d66101c0830185613de8565b6146e46101e0830184613de8565b979650505050505050565b5f815190506146fd81613e19565b92915050565b5f6020828403121561471857614717613ca8565b5b5f614725848285016146ef565b91505092915050565b5f6040820190506147415f830185613f45565b61474e6020830184613f45565b9392505050565b5f6080820190506147685f830187613de8565b6147756020830186613de8565b6147826040830185613de8565b61478f6060830184613f45565b95945050505050565b5f6060820190506147ab5f830186613de8565b6147b86020830185613de8565b6147c56040830184613f45565b949350505050565b5f6040820190506147e05f830185613de8565b6147ed6020830184613e6e565b9392505050565b5f81519050919050565b5f82825260208201905092915050565b5f614818826147f4565b61482281856147fe565b93506148328185602086016141fc565b61483b81613f75565b840191505092915050565b5f6040820190506148595f830185613de8565b818103602083015261486b818461480e565b90509392505050565b5f81905092915050565b5f614888826147f4565b6148928185614874565b93506148a28185602086016141fc565b80840191505092915050565b5f6148b9828461487e565b91508190509291505056fea2646970667358221220187b909aa9cba563724c48aa9a53b80ad0d9e6233b70d6f09fbf0ff470c59c1264736f6c634300081e0033","linkReferences":{}},"methodIdentifiers":{"DEFAULT_ADMIN_ROLE()":"a217fddf","OWNER_ROLE()":"e58378bb","PAUSER_ROLE()":"e63ab1e9","UPGRADER_ROLE()":"f72c0d8b","UPGRADE_INTERFACE_VERSION()":"ad3cb1cc","chainIdToEid(uint256)":"f151e497","createLendingPool((address,address,uint256,uint256,uint256,uint256,uint256,uint256,uint256,uint256,uint256))":"c2e1a90f","creatorFee(address)":"986bb433","dexRouter()":"0758d924","getRoleAdmin(bytes32)":"248a9ca3","grantRole(bytes32,address)":"2f2ff15d","hasRole(bytes32,address)":"91d14854","initialize()":"8129fc1c","interestRateModel()":"f3fdb15a","isHealthy()":"e4020804","lendingPoolDeployer()":"42e681d8","lendingPoolRouterDeployer()":"e949f3c9","minAmountSupplyLiquidity(address)":"3fcaacdf","oftAddress(address)":"efe1b2cd","operator(address)":"9a307391","owner()":"8da5cb5b","pause()":"8456cb59","paused()":"5c975abb","positionDeployer()":"bd3b5471","protocol()":"8ce74426","proxiableUUID()":"52d1902d","proxyDeployer()":"0a2882b8","renounceOwnership()":"715018a6","renounceRole(bytes32,address)":"36568abe","revokeRole(bytes32,address)":"d547741f","setChainIdToEid(uint256,uint32)":"8cb3aaa3","setCreatorFee(address,uint256)":"3b6974c6","setDexRouter(address)":"f72f863b","setInterestRateModel(address)":"8bcd4016","setIsHealthy(address)":"59917d7d","setLendingPoolDeployer(address)":"00546b2a","setLendingPoolRouterDeployer(address)":"8dc15a66","setMinAmountSupplyLiquidity(address,uint256)":"39a2e638","setOftAddress(address,address)":"f09a0d6b","setOperator(address,bool)":"558a7297","setPositionDeployer(address)":"f8446dcd","setProtocol(address)":"0a9d793d","setProxyDeployer(address)":"af52c133","setSharesTokenDeployer(address)":"c06f77f2","setSupalaEmitter(address)":"36395ce3","setTokenDataStream(address)":"9cc8b2d1","setWrappedNative(address)":"52cb60ca","sharesTokenDeployer()":"043d9246","supalaEmitter()":"4daab276","supportsInterface(bytes4)":"01ffc9a7","tokenDataStream()":"75b568a6","transferOwnership(address)":"f2fde38b","unpause()":"3f4ba83a","upgradeToAndCall(address,bytes)":"4f1ef286","wrappedNative()":"eb6d3a11"},"id":203}