{"abi":[{"type":"constructor","inputs":[{"name":"_oracle","type":"address","internalType":"address"}],"stateMutability":"nonpayable"},{"type":"function","name":"answeredInRound","inputs":[],"outputs":[{"name":"","type":"uint80","internalType":"uint80"}],"stateMutability":"view"},{"type":"function","name":"decimals","inputs":[],"outputs":[{"name":"","type":"uint8","internalType":"uint8"}],"stateMutability":"view"},{"type":"function","name":"latestRoundData","inputs":[],"outputs":[{"name":"","type":"uint80","internalType":"uint80"},{"name":"","type":"uint256","internalType":"uint256"},{"name":"","type":"uint256","internalType":"uint256"},{"name":"","type":"uint256","internalType":"uint256"},{"name":"","type":"uint80","internalType":"uint80"}],"stateMutability":"view"},{"type":"function","name":"oracle","inputs":[],"outputs":[{"name":"","type":"address","internalType":"address"}],"stateMutability":"view"},{"type":"function","name":"owner","inputs":[],"outputs":[{"name":"","type":"address","internalType":"address"}],"stateMutability":"view"},{"type":"function","name":"price","inputs":[],"outputs":[{"name":"","type":"uint256","internalType":"uint256"}],"stateMutability":"view"},{"type":"function","name":"renounceOwnership","inputs":[],"outputs":[],"stateMutability":"nonpayable"},{"type":"function","name":"roundId","inputs":[],"outputs":[{"name":"","type":"uint80","internalType":"uint80"}],"stateMutability":"view"},{"type":"function","name":"setOracle","inputs":[{"name":"_oracle","type":"address","internalType":"address"}],"outputs":[],"stateMutability":"nonpayable"},{"type":"function","name":"startedAt","inputs":[],"outputs":[{"name":"","type":"uint256","internalType":"uint256"}],"stateMutability":"view"},{"type":"function","name":"transferOwnership","inputs":[{"name":"newOwner","type":"address","internalType":"address"}],"outputs":[],"stateMutability":"nonpayable"},{"type":"function","name":"updatedAt","inputs":[],"outputs":[{"name":"","type":"uint256","internalType":"uint256"}],"stateMutability":"view"},{"type":"event","name":"OwnershipTransferred","inputs":[{"name":"previousOwner","type":"address","indexed":true,"internalType":"address"},{"name":"newOwner","type":"address","indexed":true,"internalType":"address"}],"anonymous":false},{"type":"error","name":"OwnableInvalidOwner","inputs":[{"name":"owner","type":"address","internalType":"address"}]},{"type":"error","name":"OwnableUnauthorizedAccount","inputs":[{"name":"account","type":"address","internalType":"address"}]}],"bytecode":{"object":"0x608060405234801561000f575f5ffd5b50604051610baf380380610baf83398181016040528101906100319190610217565b335f73ffffffffffffffffffffffffffffffffffffffff168173ffffffffffffffffffffffffffffffffffffffff16036100a2575f6040517f1e4fbdf70000000000000000000000000000000000000000000000000000000081526004016100999190610251565b60405180910390fd5b6100b1816100f860201b60201c565b508060015f6101000a81548173ffffffffffffffffffffffffffffffffffffffff021916908373ffffffffffffffffffffffffffffffffffffffff1602179055505061026a565b5f5f5f9054906101000a900473ffffffffffffffffffffffffffffffffffffffff169050815f5f6101000a81548173ffffffffffffffffffffffffffffffffffffffff021916908373ffffffffffffffffffffffffffffffffffffffff1602179055508173ffffffffffffffffffffffffffffffffffffffff168173ffffffffffffffffffffffffffffffffffffffff167f8be0079c531659141344cd1fd0a4f28419497f9722a3daafe3b4186f6b6457e060405160405180910390a35050565b5f5ffd5b5f73ffffffffffffffffffffffffffffffffffffffff82169050919050565b5f6101e6826101bd565b9050919050565b6101f6816101dc565b8114610200575f5ffd5b50565b5f81519050610211816101ed565b92915050565b5f6020828403121561022c5761022b6101b9565b5b5f61023984828501610203565b91505092915050565b61024b816101dc565b82525050565b5f6020820190506102645f830184610242565b92915050565b610938806102775f395ff3fe608060405234801561000f575f5ffd5b50600436106100b2575f3560e01c80638da5cb5b1161006f5780638da5cb5b14610154578063a035b1fe14610172578063c22c249914610190578063f21f537d146101ae578063f2fde38b146101cc578063feaf968c146101e8576100b2565b8063313ce567146100b6578063715018a6146100d45780637519ab50146100de5780637adbf973146100fc5780637dc0d1d0146101185780638cd221c914610136575b5f5ffd5b6100be61020a565b6040516100cb919061064d565b60405180910390f35b6100dc61029e565b005b6100e66102b1565b6040516100f3919061067e565b60405180910390f35b610116600480360381019061011191906106f5565b6102b7565b005b610120610302565b60405161012d919061072f565b60405180910390f35b61013e610327565b60405161014b919061076c565b60405180910390f35b61015c610343565b604051610169919061072f565b60405180910390f35b61017a61036a565b604051610187919061067e565b60405180910390f35b610198610370565b6040516101a5919061076c565b60405180910390f35b6101b661038b565b6040516101c3919061067e565b60405180910390f35b6101e660048036038101906101e191906106f5565b610391565b005b6101f0610415565b604051610201959493929190610785565b60405180910390f35b5f60015f9054906101000a900473ffffffffffffffffffffffffffffffffffffffff1673ffffffffffffffffffffffffffffffffffffffff1663313ce5676040518163ffffffff1660e01b8152600401602060405180830381865afa158015610275573d5f5f3e3d5ffd5b505050506040513d601f19601f820116820180604052508101906102999190610800565b905090565b6102a66104e3565b6102af5f61056a565b565b60045481565b6102bf6104e3565b8060015f6101000a81548173ffffffffffffffffffffffffffffffffffffffff021916908373ffffffffffffffffffffffffffffffffffffffff16021790555050565b60015f9054906101000a900473ffffffffffffffffffffffffffffffffffffffff1681565b600160149054906101000a900469ffffffffffffffffffff1681565b5f5f5f9054906101000a900473ffffffffffffffffffffffffffffffffffffffff16905090565b60025481565b60055f9054906101000a900469ffffffffffffffffffff1681565b60035481565b6103996104e3565b5f73ffffffffffffffffffffffffffffffffffffffff168173ffffffffffffffffffffffffffffffffffffffff1603610409575f6040517f1e4fbdf7000000000000000000000000000000000000000000000000000000008152600401610400919061072f565b60405180910390fd5b6104128161056a565b50565b5f5f5f5f5f5f5f5f60015f9054906101000a900473ffffffffffffffffffffffffffffffffffffffff1673ffffffffffffffffffffffffffffffffffffffff1663feaf968c6040518163ffffffff1660e01b8152600401606060405180830381865afa158015610487573d5f5f3e3d5ffd5b505050506040513d601f19601f820116820180604052508101906104ab91906108b2565b92509250925082826003548360055f9054906101000a900469ffffffffffffffffffff16975097509750975097505050509091929394565b6104eb61062b565b73ffffffffffffffffffffffffffffffffffffffff16610509610343565b73ffffffffffffffffffffffffffffffffffffffff16146105685761052c61062b565b6040517f118cdaa700000000000000000000000000000000000000000000000000000000815260040161055f919061072f565b60405180910390fd5b565b5f5f5f9054906101000a900473ffffffffffffffffffffffffffffffffffffffff169050815f5f6101000a81548173ffffffffffffffffffffffffffffffffffffffff021916908373ffffffffffffffffffffffffffffffffffffffff1602179055508173ffffffffffffffffffffffffffffffffffffffff168173ffffffffffffffffffffffffffffffffffffffff167f8be0079c531659141344cd1fd0a4f28419497f9722a3daafe3b4186f6b6457e060405160405180910390a35050565b5f33905090565b5f60ff82169050919050565b61064781610632565b82525050565b5f6020820190506106605f83018461063e565b92915050565b5f819050919050565b61067881610666565b82525050565b5f6020820190506106915f83018461066f565b92915050565b5f5ffd5b5f73ffffffffffffffffffffffffffffffffffffffff82169050919050565b5f6106c48261069b565b9050919050565b6106d4816106ba565b81146106de575f5ffd5b50565b5f813590506106ef816106cb565b92915050565b5f6020828403121561070a57610709610697565b5b5f610717848285016106e1565b91505092915050565b610729816106ba565b82525050565b5f6020820190506107425f830184610720565b92915050565b5f69ffffffffffffffffffff82169050919050565b61076681610748565b82525050565b5f60208201905061077f5f83018461075d565b92915050565b5f60a0820190506107985f83018861075d565b6107a5602083018761066f565b6107b2604083018661066f565b6107bf606083018561066f565b6107cc608083018461075d565b9695505050505050565b6107df81610632565b81146107e9575f5ffd5b50565b5f815190506107fa816107d6565b92915050565b5f6020828403121561081557610814610697565b5b5f610822848285016107ec565b91505092915050565b61083481610748565b811461083e575f5ffd5b50565b5f8151905061084f8161082b565b92915050565b5f819050919050565b61086781610855565b8114610871575f5ffd5b50565b5f815190506108828161085e565b92915050565b61089181610666565b811461089b575f5ffd5b50565b5f815190506108ac81610888565b92915050565b5f5f5f606084860312156108c9576108c8610697565b5b5f6108d686828701610841565b93505060206108e786828701610874565b92505060406108f88682870161089e565b915050925092509256fea26469706673582212209cc6c68a8e218b984a8a2480866cd4cb2e94cba467aade8ee50f8074a1cbfad364736f6c634300081e0033","linkReferences":{}},"methodIdentifiers":{"answeredInRound()":"c22c2499","decimals()":"313ce567","latestRoundData()":"feaf968c","oracle()":"7dc0d1d0","owner()":"8da5cb5b","price()":"a035b1fe","renounceOwnership()":"715018a6","roundId()":"8cd221c9","setOracle(address)":"7adbf973","startedAt()":"f21f537d","transferOwnership(address)":"f2fde38b","updatedAt()":"7519ab50"},"id":172}