{"abi":[{"type":"constructor","inputs":[],"stateMutability":"nonpayable"},{"type":"function","name":"ADMIN_ROLE","inputs":[],"outputs":[{"name":"","type":"bytes32","internalType":"bytes32"}],"stateMutability":"view"},{"type":"function","name":"DEFAULT_ADMIN_ROLE","inputs":[],"outputs":[{"name":"","type":"bytes32","internalType":"bytes32"}],"stateMutability":"view"},{"type":"function","name":"OWNER_ROLE","inputs":[],"outputs":[{"name":"","type":"bytes32","internalType":"bytes32"}],"stateMutability":"view"},{"type":"function","name":"UPGRADER_ROLE","inputs":[],"outputs":[{"name":"","type":"bytes32","internalType":"bytes32"}],"stateMutability":"view"},{"type":"function","name":"UPGRADE_INTERFACE_VERSION","inputs":[],"outputs":[{"name":"","type":"string","internalType":"string"}],"stateMutability":"view"},{"type":"function","name":"getRoleAdmin","inputs":[{"name":"role","type":"bytes32","internalType":"bytes32"}],"outputs":[{"name":"","type":"bytes32","internalType":"bytes32"}],"stateMutability":"view"},{"type":"function","name":"grantRole","inputs":[{"name":"role","type":"bytes32","internalType":"bytes32"},{"name":"account","type":"address","internalType":"address"}],"outputs":[],"stateMutability":"nonpayable"},{"type":"function","name":"hasRole","inputs":[{"name":"role","type":"bytes32","internalType":"bytes32"},{"name":"account","type":"address","internalType":"address"}],"outputs":[{"name":"","type":"bool","internalType":"bool"}],"stateMutability":"view"},{"type":"function","name":"initialize","inputs":[],"outputs":[],"stateMutability":"nonpayable"},{"type":"function","name":"pause","inputs":[],"outputs":[],"stateMutability":"nonpayable"},{"type":"function","name":"paused","inputs":[],"outputs":[{"name":"","type":"bool","internalType":"bool"}],"stateMutability":"view"},{"type":"function","name":"positionCreated","inputs":[{"name":"_lendingPool","type":"address","internalType":"address"},{"name":"_lendingPoolRouter","type":"address","internalType":"address"},{"name":"_user","type":"address","internalType":"address"},{"name":"_position","type":"address","internalType":"address"}],"outputs":[],"stateMutability":"nonpayable"},{"type":"function","name":"proxiableUUID","inputs":[],"outputs":[{"name":"","type":"bytes32","internalType":"bytes32"}],"stateMutability":"view"},{"type":"function","name":"renounceRole","inputs":[{"name":"role","type":"bytes32","internalType":"bytes32"},{"name":"callerConfirmation","type":"address","internalType":"address"}],"outputs":[],"stateMutability":"nonpayable"},{"type":"function","name":"revokeRole","inputs":[{"name":"role","type":"bytes32","internalType":"bytes32"},{"name":"account","type":"address","internalType":"address"}],"outputs":[],"stateMutability":"nonpayable"},{"type":"function","name":"sharesTokenDeployed","inputs":[{"name":"_lendingPoolRouter","type":"address","internalType":"address"},{"name":"_sharesToken","type":"address","internalType":"address"}],"outputs":[],"stateMutability":"nonpayable"},{"type":"function","name":"supportsInterface","inputs":[{"name":"interfaceId","type":"bytes4","internalType":"bytes4"}],"outputs":[{"name":"","type":"bool","internalType":"bool"}],"stateMutability":"view"},{"type":"function","name":"unpause","inputs":[],"outputs":[],"stateMutability":"nonpayable"},{"type":"function","name":"upgradeToAndCall","inputs":[{"name":"newImplementation","type":"address","internalType":"address"},{"name":"data","type":"bytes","internalType":"bytes"}],"outputs":[],"stateMutability":"payable"},{"type":"event","name":"Initialized","inputs":[{"name":"version","type":"uint64","indexed":false,"internalType":"uint64"}],"anonymous":false},{"type":"event","name":"Paused","inputs":[{"name":"account","type":"address","indexed":false,"internalType":"address"}],"anonymous":false},{"type":"event","name":"PositionCreated","inputs":[{"name":"lendingPool","type":"address","indexed":false,"internalType":"address"},{"name":"lendingPoolRouter","type":"address","indexed":false,"internalType":"address"},{"name":"user","type":"address","indexed":false,"internalType":"address"},{"name":"position","type":"address","indexed":false,"internalType":"address"}],"anonymous":false},{"type":"event","name":"RoleAdminChanged","inputs":[{"name":"role","type":"bytes32","indexed":true,"internalType":"bytes32"},{"name":"previousAdminRole","type":"bytes32","indexed":true,"internalType":"bytes32"},{"name":"newAdminRole","type":"bytes32","indexed":true,"internalType":"bytes32"}],"anonymous":false},{"type":"event","name":"RoleGranted","inputs":[{"name":"role","type":"bytes32","indexed":true,"internalType":"bytes32"},{"name":"account","type":"address","indexed":true,"internalType":"address"},{"name":"sender","type":"address","indexed":true,"internalType":"address"}],"anonymous":false},{"type":"event","name":"RoleRevoked","inputs":[{"name":"role","type":"bytes32","indexed":true,"internalType":"bytes32"},{"name":"account","type":"address","indexed":true,"internalType":"address"},{"name":"sender","type":"address","indexed":true,"internalType":"address"}],"anonymous":false},{"type":"event","name":"SharesTokenDeployed","inputs":[{"name":"lendingPoolRouter","type":"address","indexed":false,"internalType":"address"},{"name":"sharesToken","type":"address","indexed":false,"internalType":"address"}],"anonymous":false},{"type":"event","name":"Unpaused","inputs":[{"name":"account","type":"address","indexed":false,"internalType":"address"}],"anonymous":false},{"type":"event","name":"Upgraded","inputs":[{"name":"implementation","type":"address","indexed":true,"internalType":"address"}],"anonymous":false},{"type":"error","name":"AccessControlBadConfirmation","inputs":[]},{"type":"error","name":"AccessControlUnauthorizedAccount","inputs":[{"name":"account","type":"address","internalType":"address"},{"name":"neededRole","type":"bytes32","internalType":"bytes32"}]},{"type":"error","name":"AddressEmptyCode","inputs":[{"name":"target","type":"address","internalType":"address"}]},{"type":"error","name":"ERC1967InvalidImplementation","inputs":[{"name":"implementation","type":"address","internalType":"address"}]},{"type":"error","name":"ERC1967NonPayable","inputs":[]},{"type":"error","name":"EnforcedPause","inputs":[]},{"type":"error","name":"ExpectedPause","inputs":[]},{"type":"error","name":"FailedCall","inputs":[]},{"type":"error","name":"InvalidInitialization","inputs":[]},{"type":"error","name":"NotInitializing","inputs":[]},{"type":"error","name":"UUPSUnauthorizedCallContext","inputs":[]},{"type":"error","name":"UUPSUnsupportedProxiableUUID","inputs":[{"name":"slot","type":"bytes32","internalType":"bytes32"}]}],"bytecode":{"object":"0x60a06040523073ffffffffffffffffffffffffffffffffffffffff1660809073ffffffffffffffffffffffffffffffffffffffff16815250348015610042575f5ffd5b5061005161005660201b60201c565b6101d1565b5f61006561015460201b60201c565b9050805f0160089054906101000a900460ff16156100af576040517ff92ee8a900000000000000000000000000000000000000000000000000000000815260040160405180910390fd5b67ffffffffffffffff8016815f015f9054906101000a900467ffffffffffffffff1667ffffffffffffffff16146101515767ffffffffffffffff815f015f6101000a81548167ffffffffffffffff021916908367ffffffffffffffff1602179055507fc7f505b2f371ae2175ee4913f4499e1f2633a7b5936321eed1cdaeb6115181d267ffffffffffffffff60405161014891906101b8565b60405180910390a15b50565b5f5f61016461016d60201b60201c565b90508091505090565b5f7ff0c57e16840df040f15088dc2f81fe391c3923bec73e23a9662efc9c229c6a005f1b905090565b5f67ffffffffffffffff82169050919050565b6101b281610196565b82525050565b5f6020820190506101cb5f8301846101a9565b92915050565b608051611c376101f75f395f8181610de401528181610e3901526110160152611c375ff3fe608060405260043610610113575f3560e01c806375b238fc1161009f578063a217fddf11610063578063a217fddf14610347578063ad3cb1cc14610371578063d547741f1461039b578063e58378bb146103c3578063f72c0d8b146103ed57610113565b806375b238fc1461028d5780638129fc1c146102b75780638456cb59146102cd57806391d14854146102e357806393f005fb1461031f57610113565b806336568abe116100e657806336568abe146101df5780633f4ba83a146102075780634f1ef2861461021d57806352d1902d146102395780635c975abb1461026357610113565b806301ffc9a7146101175780631415aa4514610153578063248a9ca31461017b5780632f2ff15d146101b7575b5f5ffd5b348015610122575f5ffd5b5061013d6004803603810190610138919061160d565b610417565b60405161014a9190611652565b60405180910390f35b34801561015e575f5ffd5b50610179600480360381019061017491906116c5565b610490565b005b348015610186575f5ffd5b506101a1600480360381019061019c9190611736565b610500565b6040516101ae9190611770565b60405180910390f35b3480156101c2575f5ffd5b506101dd60048036038101906101d89190611789565b61052a565b005b3480156101ea575f5ffd5b5061020560048036038101906102009190611789565b61054c565b005b348015610212575f5ffd5b5061021b6105c7565b005b61023760048036038101906102329190611903565b6105fc565b005b348015610244575f5ffd5b5061024d61061b565b60405161025a9190611770565b60405180910390f35b34801561026e575f5ffd5b5061027761064c565b6040516102849190611652565b60405180910390f35b348015610298575f5ffd5b506102a161066e565b6040516102ae9190611770565b60405180910390f35b3480156102c2575f5ffd5b506102cb610692565b005b3480156102d8575f5ffd5b506102e16108d3565b005b3480156102ee575f5ffd5b5061030960048036038101906103049190611789565b610908565b6040516103169190611652565b60405180910390f35b34801561032a575f5ffd5b506103456004803603810190610340919061195d565b610979565b005b348015610352575f5ffd5b5061035b6109ef565b6040516103689190611770565b60405180910390f35b34801561037c575f5ffd5b506103856109f5565b6040516103929190611a21565b60405180910390f35b3480156103a6575f5ffd5b506103c160048036038101906103bc9190611789565b610a2e565b005b3480156103ce575f5ffd5b506103d7610a50565b6040516103e49190611770565b60405180910390f35b3480156103f8575f5ffd5b50610401610a74565b60405161040e9190611770565b60405180910390f35b5f7f7965db0b000000000000000000000000000000000000000000000000000000007bffffffffffffffffffffffffffffffffffffffffffffffffffffffff1916827bffffffffffffffffffffffffffffffffffffffffffffffffffffffff19161480610489575061048882610a98565b5b9050919050565b7fa49807205ce4d355092ef5a8a18f56e8913cf4a201fbe287825b095693c217756104ba81610b01565b6104c2610b15565b7f38e9febe5ed8e8fe9ad5ca79f59612f38d56b1209c15eb5a940862e336a1eb4483836040516104f3929190611a50565b60405180910390a1505050565b5f5f61050a610b56565b9050805f015f8481526020019081526020015f2060010154915050919050565b61053382610500565b61053c81610b01565b6105468383610b7d565b50505050565b610554610c75565b73ffffffffffffffffffffffffffffffffffffffff168173ffffffffffffffffffffffffffffffffffffffff16146105b8576040517f6697b23200000000000000000000000000000000000000000000000000000000815260040160405180910390fd5b6105c28282610c7c565b505050565b7fb19546dff01e856fb3f010c267a7b1c60363cf8a4664e21cc89c26224620214e6105f181610b01565b6105f9610d74565b50565b610604610de2565b61060d82610ec8565b6106178282610ef6565b5050565b5f610624611014565b7f360894a13ba1a3210667c828492db98dca3e2076cc3735a920a3ca505d382bbc5f1b905090565b5f5f61065661109b565b9050805f015f9054906101000a900460ff1691505090565b7fa49807205ce4d355092ef5a8a18f56e8913cf4a201fbe287825b095693c2177581565b5f61069b6110c2565b90505f815f0160089054906101000a900460ff161590505f825f015f9054906101000a900467ffffffffffffffff1690505f5f8267ffffffffffffffff161480156106e35750825b90505f60018367ffffffffffffffff1614801561071657505f3073ffffffffffffffffffffffffffffffffffffffff163b145b905081158015610724575080155b1561075b576040517ff92ee8a900000000000000000000000000000000000000000000000000000000815260040160405180910390fd5b6001855f015f6101000a81548167ffffffffffffffff021916908367ffffffffffffffff16021790555083156107a8576001855f0160086101000a81548160ff0219169083151502179055505b6107b06110d5565b6107b86110df565b6107c06110e9565b6107c86110f3565b6107db5f5f1b6107d6610c75565b610b7d565b5061080d7fb19546dff01e856fb3f010c267a7b1c60363cf8a4664e21cc89c26224620214e610808610c75565b610b7d565b5061083f7fa49807205ce4d355092ef5a8a18f56e8913cf4a201fbe287825b095693c2177561083a610c75565b610b7d565b506108717f189ab7a9244df0848122154315af71fe140f3db0fe014031783b0946b8c9d2e361086c610c75565b610b7d565b5083156108cc575f855f0160086101000a81548160ff0219169083151502179055507fc7f505b2f371ae2175ee4913f4499e1f2633a7b5936321eed1cdaeb6115181d260016040516108c39190611acc565b60405180910390a15b5050505050565b7fb19546dff01e856fb3f010c267a7b1c60363cf8a4664e21cc89c26224620214e6108fd81610b01565b6109056110fd565b50565b5f5f610912610b56565b9050805f015f8581526020019081526020015f205f015f8473ffffffffffffffffffffffffffffffffffffffff1673ffffffffffffffffffffffffffffffffffffffff1681526020019081526020015f205f9054906101000a900460ff1691505092915050565b7fa49807205ce4d355092ef5a8a18f56e8913cf4a201fbe287825b095693c217756109a381610b01565b6109ab610b15565b7f393722ea159d34e9a42fd32504465d1e8ac9acadd7aa127a3bcfa96fa634b761858585856040516109e09493929190611ae5565b60405180910390a15050505050565b5f5f1b81565b6040518060400160405280600581526020017f352e302e3000000000000000000000000000000000000000000000000000000081525081565b610a3782610500565b610a4081610b01565b610a4a8383610c7c565b50505050565b7fb19546dff01e856fb3f010c267a7b1c60363cf8a4664e21cc89c26224620214e81565b7f189ab7a9244df0848122154315af71fe140f3db0fe014031783b0946b8c9d2e381565b5f7f01ffc9a7000000000000000000000000000000000000000000000000000000007bffffffffffffffffffffffffffffffffffffffffffffffffffffffff1916827bffffffffffffffffffffffffffffffffffffffffffffffffffffffff1916149050919050565b610b1281610b0d610c75565b61116c565b50565b610b1d61064c565b15610b54576040517fd93c066500000000000000000000000000000000000000000000000000000000815260040160405180910390fd5b565b5f7f02dd7bc7dec4dceedda775e58dd541e08a116c6c53815c0bd028192f7b626800905090565b5f5f610b87610b56565b9050610b938484610908565b610c6a576001815f015f8681526020019081526020015f205f015f8573ffffffffffffffffffffffffffffffffffffffff1673ffffffffffffffffffffffffffffffffffffffff1681526020019081526020015f205f6101000a81548160ff021916908315150217905550610c06610c75565b73ffffffffffffffffffffffffffffffffffffffff168373ffffffffffffffffffffffffffffffffffffffff16857f2f8788117e7eff1d82e926ec794901d17c78024a50270940304540a733656f0d60405160405180910390a46001915050610c6f565b5f9150505b92915050565b5f33905090565b5f5f610c86610b56565b9050610c928484610908565b15610d69575f815f015f8681526020019081526020015f205f015f8573ffffffffffffffffffffffffffffffffffffffff1673ffffffffffffffffffffffffffffffffffffffff1681526020019081526020015f205f6101000a81548160ff021916908315150217905550610d05610c75565b73ffffffffffffffffffffffffffffffffffffffff168373ffffffffffffffffffffffffffffffffffffffff16857ff6391f5c32d9c69d2a47ea670b442974b53935d1edc7fd64eb21e047a839171b60405160405180910390a46001915050610d6e565b5f9150505b92915050565b610d7c6111bd565b5f610d8561109b565b90505f815f015f6101000a81548160ff0219169083151502179055507f5db9ee0a495bf2e6ff9c91a7834c1ba4fdd244a5e8aa4e537bd38aeae4b073aa610dca610c75565b604051610dd79190611b28565b60405180910390a150565b7f000000000000000000000000000000000000000000000000000000000000000073ffffffffffffffffffffffffffffffffffffffff163073ffffffffffffffffffffffffffffffffffffffff161480610e8f57507f000000000000000000000000000000000000000000000000000000000000000073ffffffffffffffffffffffffffffffffffffffff16610e766111fd565b73ffffffffffffffffffffffffffffffffffffffff1614155b15610ec6576040517fe07c8dba00000000000000000000000000000000000000000000000000000000815260040160405180910390fd5b565b7f189ab7a9244df0848122154315af71fe140f3db0fe014031783b0946b8c9d2e3610ef281610b01565b5050565b8173ffffffffffffffffffffffffffffffffffffffff166352d1902d6040518163ffffffff1660e01b8152600401602060405180830381865afa925050508015610f5e57506040513d601f19601f82011682018060405250810190610f5b9190611b55565b60015b610f9f57816040517f4c9c8ce3000000000000000000000000000000000000000000000000000000008152600401610f969190611b28565b60405180910390fd5b7f360894a13ba1a3210667c828492db98dca3e2076cc3735a920a3ca505d382bbc5f1b811461100557806040517faa1d49a4000000000000000000000000000000000000000000000000000000008152600401610ffc9190611770565b60405180910390fd5b61100f8383611250565b505050565b7f000000000000000000000000000000000000000000000000000000000000000073ffffffffffffffffffffffffffffffffffffffff163073ffffffffffffffffffffffffffffffffffffffff1614611099576040517fe07c8dba00000000000000000000000000000000000000000000000000000000815260040160405180910390fd5b565b5f7fcd5ed15c6e187e77e9aee88184c21f4f2182ab5827cb3b7e07fbedcd63f03300905090565b5f5f6110cc6112c2565b90508091505090565b6110dd6112eb565b565b6110e76112eb565b565b6110f16112eb565b565b6110fb6112eb565b565b611105610b15565b5f61110e61109b565b90506001815f015f6101000a81548160ff0219169083151502179055507f62e78cea01bee320cd4e420270b5ea74000d11b0c9f74754ebdbfc544b05a258611154610c75565b6040516111619190611b28565b60405180910390a150565b6111768282610908565b6111b95780826040517fe2517d3f0000000000000000000000000000000000000000000000000000000081526004016111b0929190611b80565b60405180910390fd5b5050565b6111c561064c565b6111fb576040517f8dfc202b00000000000000000000000000000000000000000000000000000000815260040160405180910390fd5b565b5f6112297f360894a13ba1a3210667c828492db98dca3e2076cc3735a920a3ca505d382bbc5f1b61132b565b5f015f9054906101000a900473ffffffffffffffffffffffffffffffffffffffff16905090565b61125982611334565b8173ffffffffffffffffffffffffffffffffffffffff167fbc7cd75a20ee27fd9adebab32041f755214dbc6bffa90cc0225b39da2e5c2d3b60405160405180910390a25f815111156112b5576112af82826113fd565b506112be565b6112bd61147d565b5b5050565b5f7ff0c57e16840df040f15088dc2f81fe391c3923bec73e23a9662efc9c229c6a005f1b905090565b6112f36114b9565b611329576040517fd7e6bcf800000000000000000000000000000000000000000000000000000000815260040160405180910390fd5b565b5f819050919050565b5f8173ffffffffffffffffffffffffffffffffffffffff163b0361138f57806040517f4c9c8ce30000000000000000000000000000000000000000000000000000000081526004016113869190611b28565b60405180910390fd5b806113bb7f360894a13ba1a3210667c828492db98dca3e2076cc3735a920a3ca505d382bbc5f1b61132b565b5f015f6101000a81548173ffffffffffffffffffffffffffffffffffffffff021916908373ffffffffffffffffffffffffffffffffffffffff16021790555050565b60605f5f8473ffffffffffffffffffffffffffffffffffffffff16846040516114269190611beb565b5f60405180830381855af49150503d805f811461145e576040519150601f19603f3d011682016040523d82523d5f602084013e611463565b606091505b50915091506114738583836114d7565b9250505092915050565b5f3411156114b7576040517fb398979f00000000000000000000000000000000000000000000000000000000815260040160405180910390fd5b565b5f6114c26110c2565b5f0160089054906101000a900460ff16905090565b6060826114ec576114e782611564565b61155c565b5f825114801561151257505f8473ffffffffffffffffffffffffffffffffffffffff163b145b1561155457836040517f9996b31500000000000000000000000000000000000000000000000000000000815260040161154b9190611b28565b60405180910390fd5b81905061155d565b5b9392505050565b5f8151111561157557805160208201fd5b6040517fd6bda27500000000000000000000000000000000000000000000000000000000815260040160405180910390fd5b5f604051905090565b5f5ffd5b5f5ffd5b5f7fffffffff0000000000000000000000000000000000000000000000000000000082169050919050565b6115ec816115b8565b81146115f6575f5ffd5b50565b5f81359050611607816115e3565b92915050565b5f60208284031215611622576116216115b0565b5b5f61162f848285016115f9565b91505092915050565b5f8115159050919050565b61164c81611638565b82525050565b5f6020820190506116655f830184611643565b92915050565b5f73ffffffffffffffffffffffffffffffffffffffff82169050919050565b5f6116948261166b565b9050919050565b6116a48161168a565b81146116ae575f5ffd5b50565b5f813590506116bf8161169b565b92915050565b5f5f604083850312156116db576116da6115b0565b5b5f6116e8858286016116b1565b92505060206116f9858286016116b1565b9150509250929050565b5f819050919050565b61171581611703565b811461171f575f5ffd5b50565b5f813590506117308161170c565b92915050565b5f6020828403121561174b5761174a6115b0565b5b5f61175884828501611722565b91505092915050565b61176a81611703565b82525050565b5f6020820190506117835f830184611761565b92915050565b5f5f6040838503121561179f5761179e6115b0565b5b5f6117ac85828601611722565b92505060206117bd858286016116b1565b9150509250929050565b5f5ffd5b5f5ffd5b5f601f19601f8301169050919050565b7f4e487b71000000000000000000000000000000000000000000000000000000005f52604160045260245ffd5b611815826117cf565b810181811067ffffffffffffffff82111715611834576118336117df565b5b80604052505050565b5f6118466115a7565b9050611852828261180c565b919050565b5f67ffffffffffffffff821115611871576118706117df565b5b61187a826117cf565b9050602081019050919050565b828183375f83830152505050565b5f6118a76118a284611857565b61183d565b9050828152602081018484840111156118c3576118c26117cb565b5b6118ce848285611887565b509392505050565b5f82601f8301126118ea576118e96117c7565b5b81356118fa848260208601611895565b91505092915050565b5f5f60408385031215611919576119186115b0565b5b5f611926858286016116b1565b925050602083013567ffffffffffffffff811115611947576119466115b4565b5b611953858286016118d6565b9150509250929050565b5f5f5f5f60808587031215611975576119746115b0565b5b5f611982878288016116b1565b9450506020611993878288016116b1565b93505060406119a4878288016116b1565b92505060606119b5878288016116b1565b91505092959194509250565b5f81519050919050565b5f82825260208201905092915050565b8281835e5f83830152505050565b5f6119f3826119c1565b6119fd81856119cb565b9350611a0d8185602086016119db565b611a16816117cf565b840191505092915050565b5f6020820190508181035f830152611a3981846119e9565b905092915050565b611a4a8161168a565b82525050565b5f604082019050611a635f830185611a41565b611a706020830184611a41565b9392505050565b5f819050919050565b5f67ffffffffffffffff82169050919050565b5f819050919050565b5f611ab6611ab1611aac84611a77565b611a93565b611a80565b9050919050565b611ac681611a9c565b82525050565b5f602082019050611adf5f830184611abd565b92915050565b5f608082019050611af85f830187611a41565b611b056020830186611a41565b611b126040830185611a41565b611b1f6060830184611a41565b95945050505050565b5f602082019050611b3b5f830184611a41565b92915050565b5f81519050611b4f8161170c565b92915050565b5f60208284031215611b6a57611b696115b0565b5b5f611b7784828501611b41565b91505092915050565b5f604082019050611b935f830185611a41565b611ba06020830184611761565b9392505050565b5f81519050919050565b5f81905092915050565b5f611bc582611ba7565b611bcf8185611bb1565b9350611bdf8185602086016119db565b80840191505092915050565b5f611bf68284611bbb565b91508190509291505056fea2646970667358221220b52099d90705e98b818118f7ea0f53f8a41c04f7989f0e7d52699abb221569c164736f6c634300081e0033","linkReferences":{}},"methodIdentifiers":{"ADMIN_ROLE()":"75b238fc","DEFAULT_ADMIN_ROLE()":"a217fddf","OWNER_ROLE()":"e58378bb","UPGRADER_ROLE()":"f72c0d8b","UPGRADE_INTERFACE_VERSION()":"ad3cb1cc","getRoleAdmin(bytes32)":"248a9ca3","grantRole(bytes32,address)":"2f2ff15d","hasRole(bytes32,address)":"91d14854","initialize()":"8129fc1c","pause()":"8456cb59","paused()":"5c975abb","positionCreated(address,address,address,address)":"93f005fb","proxiableUUID()":"52d1902d","renounceRole(bytes32,address)":"36568abe","revokeRole(bytes32,address)":"d547741f","sharesTokenDeployed(address,address)":"1415aa45","supportsInterface(bytes4)":"01ffc9a7","unpause()":"3f4ba83a","upgradeToAndCall(address,bytes)":"4f1ef286"},"id":187}