{"abi":[{"type":"fallback","stateMutability":"payable"},{"type":"receive","stateMutability":"payable"},{"type":"function","name":"allowance","inputs":[{"name":"","type":"address","internalType":"address"},{"name":"","type":"address","internalType":"address"}],"outputs":[{"name":"","type":"uint256","internalType":"uint256"}],"stateMutability":"view"},{"type":"function","name":"approve","inputs":[{"name":"guy","type":"address","internalType":"address"},{"name":"wad","type":"uint256","internalType":"uint256"}],"outputs":[{"name":"","type":"bool","internalType":"bool"}],"stateMutability":"nonpayable"},{"type":"function","name":"balanceOf","inputs":[{"name":"","type":"address","internalType":"address"}],"outputs":[{"name":"","type":"uint256","internalType":"uint256"}],"stateMutability":"view"},{"type":"function","name":"burn","inputs":[{"name":"from","type":"address","internalType":"address"},{"name":"wad","type":"uint256","internalType":"uint256"}],"outputs":[],"stateMutability":"nonpayable"},{"type":"function","name":"decimals","inputs":[],"outputs":[{"name":"","type":"uint8","internalType":"uint8"}],"stateMutability":"view"},{"type":"function","name":"deposit","inputs":[],"outputs":[],"stateMutability":"payable"},{"type":"function","name":"mint","inputs":[{"name":"to","type":"address","internalType":"address"},{"name":"wad","type":"uint256","internalType":"uint256"}],"outputs":[],"stateMutability":"nonpayable"},{"type":"function","name":"name","inputs":[],"outputs":[{"name":"","type":"string","internalType":"string"}],"stateMutability":"view"},{"type":"function","name":"symbol","inputs":[],"outputs":[{"name":"","type":"string","internalType":"string"}],"stateMutability":"view"},{"type":"function","name":"totalSupply","inputs":[],"outputs":[{"name":"","type":"uint256","internalType":"uint256"}],"stateMutability":"view"},{"type":"function","name":"transfer","inputs":[{"name":"dst","type":"address","internalType":"address"},{"name":"wad","type":"uint256","internalType":"uint256"}],"outputs":[{"name":"","type":"bool","internalType":"bool"}],"stateMutability":"nonpayable"},{"type":"function","name":"transferFrom","inputs":[{"name":"src","type":"address","internalType":"address"},{"name":"dst","type":"address","internalType":"address"},{"name":"wad","type":"uint256","internalType":"uint256"}],"outputs":[{"name":"","type":"bool","internalType":"bool"}],"stateMutability":"nonpayable"},{"type":"function","name":"withdraw","inputs":[{"name":"wad","type":"uint256","internalType":"uint256"}],"outputs":[],"stateMutability":"nonpayable"},{"type":"event","name":"Approval","inputs":[{"name":"src","type":"address","indexed":true,"internalType":"address"},{"name":"guy","type":"address","indexed":true,"internalType":"address"},{"name":"wad","type":"uint256","indexed":false,"internalType":"uint256"}],"anonymous":false},{"type":"event","name":"Burn","inputs":[{"name":"from","type":"address","indexed":true,"internalType":"address"},{"name":"wad","type":"uint256","indexed":false,"internalType":"uint256"}],"anonymous":false},{"type":"event","name":"Deposit","inputs":[{"name":"dst","type":"address","indexed":true,"internalType":"address"},{"name":"wad","type":"uint256","indexed":false,"internalType":"uint256"}],"anonymous":false},{"type":"event","name":"Mint","inputs":[{"name":"to","type":"address","indexed":true,"internalType":"address"},{"name":"wad","type":"uint256","indexed":false,"internalType":"uint256"}],"anonymous":false},{"type":"event","name":"Transfer","inputs":[{"name":"src","type":"address","indexed":true,"internalType":"address"},{"name":"dst","type":"address","indexed":true,"internalType":"address"},{"name":"wad","type":"uint256","indexed":false,"internalType":"uint256"}],"anonymous":false},{"type":"event","name":"Withdrawal","inputs":[{"name":"src","type":"address","indexed":true,"internalType":"address"},{"name":"wad","type":"uint256","indexed":false,"internalType":"uint256"}],"anonymous":false}],"bytecode":{"object":"0x60806040526040518060400160405280600c81526020017f57726170706564204b6c617900000000000000000000000000000000000000008152505f908161004791906102f6565b506040518060400160405280600581526020017f574b4c41590000000000000000000000000000000000000000000000000000008152506001908161008c91906102f6565b50601260025f6101000a81548160ff021916908360ff1602179055503480156100b3575f5ffd5b506103c5565b5f81519050919050565b7f4e487b71000000000000000000000000000000000000000000000000000000005f52604160045260245ffd5b7f4e487b71000000000000000000000000000000000000000000000000000000005f52602260045260245ffd5b5f600282049050600182168061013457607f821691505b602082108103610147576101466100f0565b5b50919050565b5f819050815f5260205f209050919050565b5f6020601f8301049050919050565b5f82821b905092915050565b5f600883026101a97fffffffffffffffffffffffffffffffffffffffffffffffffffffffffffffffff8261016e565b6101b3868361016e565b95508019841693508086168417925050509392505050565b5f819050919050565b5f819050919050565b5f6101f76101f26101ed846101cb565b6101d4565b6101cb565b9050919050565b5f819050919050565b610210836101dd565b61022461021c826101fe565b84845461017a565b825550505050565b5f5f905090565b61023b61022c565b610246818484610207565b505050565b5b818110156102695761025e5f82610233565b60018101905061024c565b5050565b601f8211156102ae5761027f8161014d565b6102888461015f565b81016020851015610297578190505b6102ab6102a38561015f565b83018261024b565b50505b505050565b5f82821c905092915050565b5f6102ce5f19846008026102b3565b1980831691505092915050565b5f6102e683836102bf565b9150826002028217905092915050565b6102ff826100b9565b67ffffffffffffffff811115610318576103176100c3565b5b610322825461011d565b61032d82828561026d565b5f60209050601f83116001811461035e575f841561034c578287015190505b61035685826102db565b8655506103bd565b601f19841661036c8661014d565b5f5b828110156103935784890151825560018201915060208501945060208101905061036e565b868310156103b057848901516103ac601f8916826102bf565b8355505b6001600288020188555050505b505050505050565b611385806103d25f395ff3fe6080604052600436106100c5575f3560e01c806340c10f191161007e5780639dc29fac116100585780639dc29fac1461028a578063a9059cbb146102b2578063d0e30db0146102ee578063dd62ed3e146102f8576100d4565b806340c10f19146101fc57806370a082311461022457806395d89b4114610260576100d4565b806306fdde03146100de578063095ea7b31461010857806318160ddd1461014457806323b872dd1461016e5780632e1a7d4d146101aa578063313ce567146101d2576100d4565b366100d4576100d2610334565b005b6100dc610334565b005b3480156100e9575f5ffd5b506100f26103ef565b6040516100ff9190610ec5565b60405180910390f35b348015610113575f5ffd5b5061012e60048036038101906101299190610f76565b61047a565b60405161013b9190610fce565b60405180910390f35b34801561014f575f5ffd5b50610158610567565b6040516101659190610ff6565b60405180910390f35b348015610179575f5ffd5b50610194600480360381019061018f919061100f565b610570565b6040516101a19190610fce565b60405180910390f35b3480156101b5575f5ffd5b506101d060048036038101906101cb919061105f565b6108bc565b005b3480156101dd575f5ffd5b506101e6610a3c565b6040516101f391906110a5565b60405180910390f35b348015610207575f5ffd5b50610222600480360381019061021d9190610f76565b610a4e565b005b34801561022f575f5ffd5b5061024a600480360381019061024591906110be565b610bde565b6040516102579190610ff6565b60405180910390f35b34801561026b575f5ffd5b50610274610bf3565b6040516102819190610ec5565b60405180910390f35b348015610295575f5ffd5b506102b060048036038101906102ab9190610f76565b610c7f565b005b3480156102bd575f5ffd5b506102d860048036038101906102d39190610f76565b610e21565b6040516102e59190610fce565b60405180910390f35b6102f6610334565b005b348015610303575f5ffd5b5061031e600480360381019061031991906110e9565b610e35565b60405161032b9190610ff6565b60405180910390f35b3460035f3373ffffffffffffffffffffffffffffffffffffffff1673ffffffffffffffffffffffffffffffffffffffff1681526020019081526020015f205f8282546103809190611154565b925050819055503460055f8282546103989190611154565b925050819055503373ffffffffffffffffffffffffffffffffffffffff167fe1fffcc4923d04b559f4d29a8bfc6cda04eb5b0d3c460751c2402c5c5cc9109c346040516103e59190610ff6565b60405180910390a2565b5f80546103fb906111b4565b80601f0160208091040260200160405190810160405280929190818152602001828054610427906111b4565b80156104725780601f1061044957610100808354040283529160200191610472565b820191905f5260205f20905b81548152906001019060200180831161045557829003601f168201915b505050505081565b5f8160045f3373ffffffffffffffffffffffffffffffffffffffff1673ffffffffffffffffffffffffffffffffffffffff1681526020019081526020015f205f8573ffffffffffffffffffffffffffffffffffffffff1673ffffffffffffffffffffffffffffffffffffffff1681526020019081526020015f20819055508273ffffffffffffffffffffffffffffffffffffffff163373ffffffffffffffffffffffffffffffffffffffff167f8c5be1e5ebec7d5bd14f71427d1e84f3dd0314c0f7b2291e5b200ac8c7c3b925846040516105559190610ff6565b60405180910390a36001905092915050565b5f600554905090565b5f8160035f8673ffffffffffffffffffffffffffffffffffffffff1673ffffffffffffffffffffffffffffffffffffffff1681526020019081526020015f205410156105ba575f5ffd5b3373ffffffffffffffffffffffffffffffffffffffff168473ffffffffffffffffffffffffffffffffffffffff161415801561068e57507fffffffffffffffffffffffffffffffffffffffffffffffffffffffffffffffff60045f8673ffffffffffffffffffffffffffffffffffffffff1673ffffffffffffffffffffffffffffffffffffffff1681526020019081526020015f205f3373ffffffffffffffffffffffffffffffffffffffff1673ffffffffffffffffffffffffffffffffffffffff1681526020019081526020015f205414155b156107a6578160045f8673ffffffffffffffffffffffffffffffffffffffff1673ffffffffffffffffffffffffffffffffffffffff1681526020019081526020015f205f3373ffffffffffffffffffffffffffffffffffffffff1673ffffffffffffffffffffffffffffffffffffffff1681526020019081526020015f20541015610717575f5ffd5b8160045f8673ffffffffffffffffffffffffffffffffffffffff1673ffffffffffffffffffffffffffffffffffffffff1681526020019081526020015f205f3373ffffffffffffffffffffffffffffffffffffffff1673ffffffffffffffffffffffffffffffffffffffff1681526020019081526020015f205f82825461079e91906111e4565b925050819055505b8160035f8673ffffffffffffffffffffffffffffffffffffffff1673ffffffffffffffffffffffffffffffffffffffff1681526020019081526020015f205f8282546107f291906111e4565b925050819055508160035f8573ffffffffffffffffffffffffffffffffffffffff1673ffffffffffffffffffffffffffffffffffffffff1681526020019081526020015f205f8282546108459190611154565b925050819055508273ffffffffffffffffffffffffffffffffffffffff168473ffffffffffffffffffffffffffffffffffffffff167fddf252ad1be2c89b69c2b068fc378daa952ba7f163c4a11628f55a4df523b3ef846040516108a99190610ff6565b60405180910390a3600190509392505050565b8060035f3373ffffffffffffffffffffffffffffffffffffffff1673ffffffffffffffffffffffffffffffffffffffff1681526020019081526020015f2054101561093c576040517f08c379a000000000000000000000000000000000000000000000000000000000815260040161093390611261565b60405180910390fd5b8060035f3373ffffffffffffffffffffffffffffffffffffffff1673ffffffffffffffffffffffffffffffffffffffff1681526020019081526020015f205f82825461098891906111e4565b925050819055508060055f8282546109a091906111e4565b925050819055503373ffffffffffffffffffffffffffffffffffffffff166108fc8290811502906040515f60405180830381858888f193505050501580156109ea573d5f5f3e3d5ffd5b503373ffffffffffffffffffffffffffffffffffffffff167f7fcf532c15f0a6db0bd6d0e038bea71d30d808c7d98cb3bf7268a95bf5081b6582604051610a319190610ff6565b60405180910390a250565b60025f9054906101000a900460ff1681565b5f73ffffffffffffffffffffffffffffffffffffffff168273ffffffffffffffffffffffffffffffffffffffff1603610abc576040517f08c379a0000000000000000000000000000000000000000000000000000000008152600401610ab3906112c9565b60405180910390fd5b8060035f8473ffffffffffffffffffffffffffffffffffffffff1673ffffffffffffffffffffffffffffffffffffffff1681526020019081526020015f205f828254610b089190611154565b925050819055508060055f828254610b209190611154565b925050819055508173ffffffffffffffffffffffffffffffffffffffff167f0f6798a560793a54c3bcfe86a93cde1e73087d944c0ea20544137d412139688582604051610b6d9190610ff6565b60405180910390a28173ffffffffffffffffffffffffffffffffffffffff165f73ffffffffffffffffffffffffffffffffffffffff167fddf252ad1be2c89b69c2b068fc378daa952ba7f163c4a11628f55a4df523b3ef83604051610bd29190610ff6565b60405180910390a35050565b6003602052805f5260405f205f915090505481565b60018054610c00906111b4565b80601f0160208091040260200160405190810160405280929190818152602001828054610c2c906111b4565b8015610c775780601f10610c4e57610100808354040283529160200191610c77565b820191905f5260205f20905b815481529060010190602001808311610c5a57829003601f168201915b505050505081565b8060035f8473ffffffffffffffffffffffffffffffffffffffff1673ffffffffffffffffffffffffffffffffffffffff1681526020019081526020015f20541015610cff576040517f08c379a0000000000000000000000000000000000000000000000000000000008152600401610cf690611331565b60405180910390fd5b8060035f8473ffffffffffffffffffffffffffffffffffffffff1673ffffffffffffffffffffffffffffffffffffffff1681526020019081526020015f205f828254610d4b91906111e4565b925050819055508060055f828254610d6391906111e4565b925050819055508173ffffffffffffffffffffffffffffffffffffffff167fcc16f5dbb4873280815c1ee09dbd06736cffcc184412cf7a71a0fdb75d397ca582604051610db09190610ff6565b60405180910390a25f73ffffffffffffffffffffffffffffffffffffffff168273ffffffffffffffffffffffffffffffffffffffff167fddf252ad1be2c89b69c2b068fc378daa952ba7f163c4a11628f55a4df523b3ef83604051610e159190610ff6565b60405180910390a35050565b5f610e2d338484610570565b905092915050565b6004602052815f5260405f20602052805f5260405f205f91509150505481565b5f81519050919050565b5f82825260208201905092915050565b8281835e5f83830152505050565b5f601f19601f8301169050919050565b5f610e9782610e55565b610ea18185610e5f565b9350610eb1818560208601610e6f565b610eba81610e7d565b840191505092915050565b5f6020820190508181035f830152610edd8184610e8d565b905092915050565b5f5ffd5b5f73ffffffffffffffffffffffffffffffffffffffff82169050919050565b5f610f1282610ee9565b9050919050565b610f2281610f08565b8114610f2c575f5ffd5b50565b5f81359050610f3d81610f19565b92915050565b5f819050919050565b610f5581610f43565b8114610f5f575f5ffd5b50565b5f81359050610f7081610f4c565b92915050565b5f5f60408385031215610f8c57610f8b610ee5565b5b5f610f9985828601610f2f565b9250506020610faa85828601610f62565b9150509250929050565b5f8115159050919050565b610fc881610fb4565b82525050565b5f602082019050610fe15f830184610fbf565b92915050565b610ff081610f43565b82525050565b5f6020820190506110095f830184610fe7565b92915050565b5f5f5f6060848603121561102657611025610ee5565b5b5f61103386828701610f2f565b935050602061104486828701610f2f565b925050604061105586828701610f62565b9150509250925092565b5f6020828403121561107457611073610ee5565b5b5f61108184828501610f62565b91505092915050565b5f60ff82169050919050565b61109f8161108a565b82525050565b5f6020820190506110b85f830184611096565b92915050565b5f602082840312156110d3576110d2610ee5565b5b5f6110e084828501610f2f565b91505092915050565b5f5f604083850312156110ff576110fe610ee5565b5b5f61110c85828601610f2f565b925050602061111d85828601610f2f565b9150509250929050565b7f4e487b71000000000000000000000000000000000000000000000000000000005f52601160045260245ffd5b5f61115e82610f43565b915061116983610f43565b925082820190508082111561118157611180611127565b5b92915050565b7f4e487b71000000000000000000000000000000000000000000000000000000005f52602260045260245ffd5b5f60028204905060018216806111cb57607f821691505b6020821081036111de576111dd611187565b5b50919050565b5f6111ee82610f43565b91506111f983610f43565b925082820390508181111561121157611210611127565b5b92915050565b7f496e73756666696369656e742062616c616e63650000000000000000000000005f82015250565b5f61124b601483610e5f565b915061125682611217565b602082019050919050565b5f6020820190508181035f8301526112788161123f565b9050919050565b7f4d696e7420746f207a65726f20616464726573730000000000000000000000005f82015250565b5f6112b3601483610e5f565b91506112be8261127f565b602082019050919050565b5f6020820190508181035f8301526112e0816112a7565b9050919050565b7f496e73756666696369656e742062616c616e636520746f206275726e000000005f82015250565b5f61131b601c83610e5f565b9150611326826112e7565b602082019050919050565b5f6020820190508181035f8301526113488161130f565b905091905056fea26469706673582212207becbf1d20166e76dc3dcfc5e0e766047d3b0db6145b823f0d6d2af5aef87fa764736f6c634300081e0033","linkReferences":{}},"methodIdentifiers":{"allowance(address,address)":"dd62ed3e","approve(address,uint256)":"095ea7b3","balanceOf(address)":"70a08231","burn(address,uint256)":"9dc29fac","decimals()":"313ce567","deposit()":"d0e30db0","mint(address,uint256)":"40c10f19","name()":"06fdde03","symbol()":"95d89b41","totalSupply()":"18160ddd","transfer(address,uint256)":"a9059cbb","transferFrom(address,address,uint256)":"23b872dd","withdraw(uint256)":"2e1a7d4d"},"id":170}