{"abi":[{"type":"constructor","inputs":[],"stateMutability":"nonpayable"},{"type":"function","name":"DEFAULT_ADMIN_ROLE","inputs":[],"outputs":[{"name":"","type":"bytes32","internalType":"bytes32"}],"stateMutability":"view"},{"type":"function","name":"MINTER_ROLE","inputs":[],"outputs":[{"name":"","type":"bytes32","internalType":"bytes32"}],"stateMutability":"view"},{"type":"function","name":"OWNER_ROLE","inputs":[],"outputs":[{"name":"","type":"bytes32","internalType":"bytes32"}],"stateMutability":"view"},{"type":"function","name":"UPGRADER_ROLE","inputs":[],"outputs":[{"name":"","type":"bytes32","internalType":"bytes32"}],"stateMutability":"view"},{"type":"function","name":"UPGRADE_INTERFACE_VERSION","inputs":[],"outputs":[{"name":"","type":"string","internalType":"string"}],"stateMutability":"view"},{"type":"function","name":"allowance","inputs":[{"name":"owner","type":"address","internalType":"address"},{"name":"spender","type":"address","internalType":"address"}],"outputs":[{"name":"","type":"uint256","internalType":"uint256"}],"stateMutability":"view"},{"type":"function","name":"approve","inputs":[{"name":"spender","type":"address","internalType":"address"},{"name":"value","type":"uint256","internalType":"uint256"}],"outputs":[{"name":"","type":"bool","internalType":"bool"}],"stateMutability":"nonpayable"},{"type":"function","name":"balanceOf","inputs":[{"name":"account","type":"address","internalType":"address"}],"outputs":[{"name":"","type":"uint256","internalType":"uint256"}],"stateMutability":"view"},{"type":"function","name":"burn","inputs":[{"name":"_from","type":"address","internalType":"address"},{"name":"_amount","type":"uint256","internalType":"uint256"}],"outputs":[],"stateMutability":"nonpayable"},{"type":"function","name":"decimals","inputs":[],"outputs":[{"name":"","type":"uint8","internalType":"uint8"}],"stateMutability":"view"},{"type":"function","name":"getRoleAdmin","inputs":[{"name":"role","type":"bytes32","internalType":"bytes32"}],"outputs":[{"name":"","type":"bytes32","internalType":"bytes32"}],"stateMutability":"view"},{"type":"function","name":"grantRole","inputs":[{"name":"role","type":"bytes32","internalType":"bytes32"},{"name":"account","type":"address","internalType":"address"}],"outputs":[],"stateMutability":"nonpayable"},{"type":"function","name":"hasRole","inputs":[{"name":"role","type":"bytes32","internalType":"bytes32"},{"name":"account","type":"address","internalType":"address"}],"outputs":[{"name":"","type":"bool","internalType":"bool"}],"stateMutability":"view"},{"type":"function","name":"initialize","inputs":[{"name":"_date","type":"string","internalType":"string"},{"name":"_decimals","type":"uint8","internalType":"uint8"}],"outputs":[],"stateMutability":"nonpayable"},{"type":"function","name":"mint","inputs":[{"name":"_to","type":"address","internalType":"address"},{"name":"_amount","type":"uint256","internalType":"uint256"}],"outputs":[],"stateMutability":"nonpayable"},{"type":"function","name":"name","inputs":[],"outputs":[{"name":"","type":"string","internalType":"string"}],"stateMutability":"view"},{"type":"function","name":"pause","inputs":[],"outputs":[],"stateMutability":"nonpayable"},{"type":"function","name":"paused","inputs":[],"outputs":[{"name":"","type":"bool","internalType":"bool"}],"stateMutability":"view"},{"type":"function","name":"proxiableUUID","inputs":[],"outputs":[{"name":"","type":"bytes32","internalType":"bytes32"}],"stateMutability":"view"},{"type":"function","name":"renounceRole","inputs":[{"name":"role","type":"bytes32","internalType":"bytes32"},{"name":"callerConfirmation","type":"address","internalType":"address"}],"outputs":[],"stateMutability":"nonpayable"},{"type":"function","name":"revokeRole","inputs":[{"name":"role","type":"bytes32","internalType":"bytes32"},{"name":"account","type":"address","internalType":"address"}],"outputs":[],"stateMutability":"nonpayable"},{"type":"function","name":"supportsInterface","inputs":[{"name":"interfaceId","type":"bytes4","internalType":"bytes4"}],"outputs":[{"name":"","type":"bool","internalType":"bool"}],"stateMutability":"view"},{"type":"function","name":"symbol","inputs":[],"outputs":[{"name":"","type":"string","internalType":"string"}],"stateMutability":"view"},{"type":"function","name":"totalSupply","inputs":[],"outputs":[{"name":"","type":"uint256","internalType":"uint256"}],"stateMutability":"view"},{"type":"function","name":"transfer","inputs":[{"name":"to","type":"address","internalType":"address"},{"name":"value","type":"uint256","internalType":"uint256"}],"outputs":[{"name":"","type":"bool","internalType":"bool"}],"stateMutability":"nonpayable"},{"type":"function","name":"transferFrom","inputs":[{"name":"from","type":"address","internalType":"address"},{"name":"to","type":"address","internalType":"address"},{"name":"value","type":"uint256","internalType":"uint256"}],"outputs":[{"name":"","type":"bool","internalType":"bool"}],"stateMutability":"nonpayable"},{"type":"function","name":"unpause","inputs":[],"outputs":[],"stateMutability":"nonpayable"},{"type":"function","name":"upgradeToAndCall","inputs":[{"name":"newImplementation","type":"address","internalType":"address"},{"name":"data","type":"bytes","internalType":"bytes"}],"outputs":[],"stateMutability":"payable"},{"type":"event","name":"Approval","inputs":[{"name":"owner","type":"address","indexed":true,"internalType":"address"},{"name":"spender","type":"address","indexed":true,"internalType":"address"},{"name":"value","type":"uint256","indexed":false,"internalType":"uint256"}],"anonymous":false},{"type":"event","name":"Initialized","inputs":[{"name":"version","type":"uint64","indexed":false,"internalType":"uint64"}],"anonymous":false},{"type":"event","name":"Paused","inputs":[{"name":"account","type":"address","indexed":false,"internalType":"address"}],"anonymous":false},{"type":"event","name":"RoleAdminChanged","inputs":[{"name":"role","type":"bytes32","indexed":true,"internalType":"bytes32"},{"name":"previousAdminRole","type":"bytes32","indexed":true,"internalType":"bytes32"},{"name":"newAdminRole","type":"bytes32","indexed":true,"internalType":"bytes32"}],"anonymous":false},{"type":"event","name":"RoleGranted","inputs":[{"name":"role","type":"bytes32","indexed":true,"internalType":"bytes32"},{"name":"account","type":"address","indexed":true,"internalType":"address"},{"name":"sender","type":"address","indexed":true,"internalType":"address"}],"anonymous":false},{"type":"event","name":"RoleRevoked","inputs":[{"name":"role","type":"bytes32","indexed":true,"internalType":"bytes32"},{"name":"account","type":"address","indexed":true,"internalType":"address"},{"name":"sender","type":"address","indexed":true,"internalType":"address"}],"anonymous":false},{"type":"event","name":"Transfer","inputs":[{"name":"from","type":"address","indexed":true,"internalType":"address"},{"name":"to","type":"address","indexed":true,"internalType":"address"},{"name":"value","type":"uint256","indexed":false,"internalType":"uint256"}],"anonymous":false},{"type":"event","name":"Unpaused","inputs":[{"name":"account","type":"address","indexed":false,"internalType":"address"}],"anonymous":false},{"type":"event","name":"Upgraded","inputs":[{"name":"implementation","type":"address","indexed":true,"internalType":"address"}],"anonymous":false},{"type":"error","name":"AccessControlBadConfirmation","inputs":[]},{"type":"error","name":"AccessControlUnauthorizedAccount","inputs":[{"name":"account","type":"address","internalType":"address"},{"name":"neededRole","type":"bytes32","internalType":"bytes32"}]},{"type":"error","name":"AddressEmptyCode","inputs":[{"name":"target","type":"address","internalType":"address"}]},{"type":"error","name":"ERC1967InvalidImplementation","inputs":[{"name":"implementation","type":"address","internalType":"address"}]},{"type":"error","name":"ERC1967NonPayable","inputs":[]},{"type":"error","name":"ERC20InsufficientAllowance","inputs":[{"name":"spender","type":"address","internalType":"address"},{"name":"allowance","type":"uint256","internalType":"uint256"},{"name":"needed","type":"uint256","internalType":"uint256"}]},{"type":"error","name":"ERC20InsufficientBalance","inputs":[{"name":"sender","type":"address","internalType":"address"},{"name":"balance","type":"uint256","internalType":"uint256"},{"name":"needed","type":"uint256","internalType":"uint256"}]},{"type":"error","name":"ERC20InvalidApprover","inputs":[{"name":"approver","type":"address","internalType":"address"}]},{"type":"error","name":"ERC20InvalidReceiver","inputs":[{"name":"receiver","type":"address","internalType":"address"}]},{"type":"error","name":"ERC20InvalidSender","inputs":[{"name":"sender","type":"address","internalType":"address"}]},{"type":"error","name":"ERC20InvalidSpender","inputs":[{"name":"spender","type":"address","internalType":"address"}]},{"type":"error","name":"EnforcedPause","inputs":[]},{"type":"error","name":"ExpectedPause","inputs":[]},{"type":"error","name":"FailedCall","inputs":[]},{"type":"error","name":"InvalidInitialization","inputs":[]},{"type":"error","name":"NotInitializing","inputs":[]},{"type":"error","name":"NotOperator","inputs":[]},{"type":"error","name":"UUPSUnauthorizedCallContext","inputs":[]},{"type":"error","name":"UUPSUnsupportedProxiableUUID","inputs":[{"name":"slot","type":"bytes32","internalType":"bytes32"}]}],"bytecode":{"object":"0x60a06040523073ffffffffffffffffffffffffffffffffffffffff1660809073ffffffffffffffffffffffffffffffffffffffff16815250348015610042575f5ffd5b5061005161005660201b60201c565b6101d1565b5f61006561015460201b60201c565b9050805f0160089054906101000a900460ff16156100af576040517ff92ee8a900000000000000000000000000000000000000000000000000000000815260040160405180910390fd5b67ffffffffffffffff8016815f015f9054906101000a900467ffffffffffffffff1667ffffffffffffffff16146101515767ffffffffffffffff815f015f6101000a81548167ffffffffffffffff021916908367ffffffffffffffff1602179055507fc7f505b2f371ae2175ee4913f4499e1f2633a7b5936321eed1cdaeb6115181d267ffffffffffffffff60405161014891906101b8565b60405180910390a15b50565b5f5f61016461016d60201b60201c565b90508091505090565b5f7ff0c57e16840df040f15088dc2f81fe391c3923bec73e23a9662efc9c229c6a005f1b905090565b5f67ffffffffffffffff82169050919050565b6101b281610196565b82525050565b5f6020820190506101cb5f8301846101a9565b92915050565b608051612dee6101f75f395f818161150e0152818161156301526117400152612dee5ff3fe6080604052600436106101b6575f3560e01c806370a08231116100eb578063ad3cb1cc11610089578063d547741f11610063578063d547741f146105e8578063dd62ed3e14610610578063e58378bb1461064c578063f72c0d8b14610676576101b6565b8063ad3cb1cc1461056c578063cc1207c014610596578063d5391393146105be576101b6565b806395d89b41116100c557806395d89b41146104b45780639dc29fac146104de578063a217fddf14610506578063a9059cbb14610530576101b6565b806370a08231146104265780638456cb591461046257806391d1485414610478576101b6565b8063313ce5671161015857806340c10f191161013257806340c10f191461038e5780634f1ef286146103b657806352d1902d146103d25780635c975abb146103fc576101b6565b8063313ce5671461032657806336568abe146103505780633f4ba83a14610378576101b6565b806318160ddd1161019457806318160ddd1461025c57806323b872dd14610286578063248a9ca3146102c25780632f2ff15d146102fe576101b6565b806301ffc9a7146101ba57806306fdde03146101f6578063095ea7b314610220575b5f5ffd5b3480156101c5575f5ffd5b506101e060048036038101906101db919061224b565b6106a0565b6040516101ed9190612290565b60405180910390f35b348015610201575f5ffd5b5061020a610719565b6040516102179190612319565b60405180910390f35b34801561022b575f5ffd5b50610246600480360381019061024191906123c6565b6107b7565b6040516102539190612290565b60405180910390f35b348015610267575f5ffd5b506102706107d9565b60405161027d9190612413565b60405180910390f35b348015610291575f5ffd5b506102ac60048036038101906102a7919061242c565b6107f0565b6040516102b99190612290565b60405180910390f35b3480156102cd575f5ffd5b506102e860048036038101906102e391906124af565b61081e565b6040516102f591906124e9565b60405180910390f35b348015610309575f5ffd5b50610324600480360381019061031f9190612502565b610848565b005b348015610331575f5ffd5b5061033a61086a565b604051610347919061255b565b60405180910390f35b34801561035b575f5ffd5b5061037660048036038101906103719190612502565b61088c565b005b348015610383575f5ffd5b5061038c610907565b005b348015610399575f5ffd5b506103b460048036038101906103af91906123c6565b61093c565b005b6103d060048036038101906103cb91906126a0565b610975565b005b3480156103dd575f5ffd5b506103e6610994565b6040516103f391906124e9565b60405180910390f35b348015610407575f5ffd5b506104106109c5565b60405161041d9190612290565b60405180910390f35b348015610431575f5ffd5b5061044c600480360381019061044791906126fa565b6109e7565b6040516104599190612413565b60405180910390f35b34801561046d575f5ffd5b50610476610a3a565b005b348015610483575f5ffd5b5061049e60048036038101906104999190612502565b610a6f565b6040516104ab9190612290565b60405180910390f35b3480156104bf575f5ffd5b506104c8610ae0565b6040516104d59190612319565b60405180910390f35b3480156104e9575f5ffd5b5061050460048036038101906104ff91906123c6565b610b7e565b005b348015610511575f5ffd5b5061051a610b8c565b60405161052791906124e9565b60405180910390f35b34801561053b575f5ffd5b50610556600480360381019061055191906123c6565b610b92565b6040516105639190612290565b60405180910390f35b348015610577575f5ffd5b50610580610bb4565b60405161058d9190612319565b60405180910390f35b3480156105a1575f5ffd5b506105bc60048036038101906105b791906127ed565b610bed565b005b3480156105c9575f5ffd5b506105d2610e83565b6040516105df91906124e9565b60405180910390f35b3480156105f3575f5ffd5b5061060e60048036038101906106099190612502565b610ea7565b005b34801561061b575f5ffd5b5061063660048036038101906106319190612847565b610ec9565b6040516106439190612413565b60405180910390f35b348015610657575f5ffd5b50610660610f59565b60405161066d91906124e9565b60405180910390f35b348015610681575f5ffd5b5061068a610f7d565b60405161069791906124e9565b60405180910390f35b5f7f7965db0b000000000000000000000000000000000000000000000000000000007bffffffffffffffffffffffffffffffffffffffffffffffffffffffff1916827bffffffffffffffffffffffffffffffffffffffffffffffffffffffff19161480610712575061071182610fa1565b5b9050919050565b60605f61072461100a565b9050806003018054610735906128b2565b80601f0160208091040260200160405190810160405280929190818152602001828054610761906128b2565b80156107ac5780601f10610783576101008083540402835291602001916107ac565b820191905f5260205f20905b81548152906001019060200180831161078f57829003601f168201915b505050505091505090565b5f5f6107c1611031565b90506107ce818585611038565b600191505092915050565b5f5f6107e361100a565b9050806002015491505090565b5f5f6107fa611031565b905061080785828561104a565b6108128585856110dd565b60019150509392505050565b5f5f6108286111cd565b9050805f015f8481526020019081526020015f2060010154915050919050565b6108518261081e565b61085a816111f4565b6108648383611208565b50505050565b5f5f610874611300565b9050805f015f9054906101000a900460ff1691505090565b610894611031565b73ffffffffffffffffffffffffffffffffffffffff168173ffffffffffffffffffffffffffffffffffffffff16146108f8576040517f6697b23200000000000000000000000000000000000000000000000000000000815260040160405180910390fd5b6109028282611327565b505050565b7fb19546dff01e856fb3f010c267a7b1c60363cf8a4664e21cc89c26224620214e610931816111f4565b61093961141f565b50565b7f9f2df0fed2c77648de5860a4cc508cd0818c85b8b8a1ab4ceeef8d981c8956a6610966816111f4565b610970838361148d565b505050565b61097d61150c565b610986826115f2565b6109908282611620565b5050565b5f61099d61173e565b7f360894a13ba1a3210667c828492db98dca3e2076cc3735a920a3ca505d382bbc5f1b905090565b5f5f6109cf6117c5565b9050805f015f9054906101000a900460ff1691505090565b5f5f6109f161100a565b9050805f015f8473ffffffffffffffffffffffffffffffffffffffff1673ffffffffffffffffffffffffffffffffffffffff1681526020019081526020015f2054915050919050565b7fb19546dff01e856fb3f010c267a7b1c60363cf8a4664e21cc89c26224620214e610a64816111f4565b610a6c6117ec565b50565b5f5f610a796111cd565b9050805f015f8581526020019081526020015f205f015f8473ffffffffffffffffffffffffffffffffffffffff1673ffffffffffffffffffffffffffffffffffffffff1681526020019081526020015f205f9054906101000a900460ff1691505092915050565b60605f610aeb61100a565b9050806004018054610afc906128b2565b80601f0160208091040260200160405190810160405280929190818152602001828054610b28906128b2565b8015610b735780601f10610b4a57610100808354040283529160200191610b73565b820191905f5260205f20905b815481529060010190602001808311610b5657829003601f168201915b505050505091505090565b610b88828261185b565b5050565b5f5f1b81565b5f5f610b9c611031565b9050610ba98185856110dd565b600191505092915050565b6040518060400160405280600581526020017f352e302e3000000000000000000000000000000000000000000000000000000081525081565b5f610bf66118da565b90505f815f0160089054906101000a900460ff161590505f825f015f9054906101000a900467ffffffffffffffff1690505f5f8267ffffffffffffffff16148015610c3e5750825b90505f60018367ffffffffffffffff16148015610c7157505f3073ffffffffffffffffffffffffffffffffffffffff163b145b905081158015610c7f575080155b15610cb6576040517ff92ee8a900000000000000000000000000000000000000000000000000000000815260040160405180910390fd5b6001855f015f6101000a81548167ffffffffffffffff021916908367ffffffffffffffff1602179055508315610d03576001855f0160086101000a81548160ff0219169083151502179055505b610d4b87604051602001610d179190612942565b60405160208183030381529060405288604051602001610d379190612942565b6040516020818303038152906040526118ed565b610d53611903565b610d5b61190d565b610d63611917565b610d947fb19546dff01e856fb3f010c267a7b1c60363cf8a4664e21cc89c26224620214e610d8f611031565b611208565b50610dc67f189ab7a9244df0848122154315af71fe140f3db0fe014031783b0946b8c9d2e3610dc1611031565b611208565b50610df87f9f2df0fed2c77648de5860a4cc508cd0818c85b8b8a1ab4ceeef8d981c8956a6610df3611031565b611208565b505f610e02611300565b905086815f015f6101000a81548160ff021916908360ff160217905550508315610e7a575f855f0160086101000a81548160ff0219169083151502179055507fc7f505b2f371ae2175ee4913f4499e1f2633a7b5936321eed1cdaeb6115181d26001604051610e7191906129bc565b60405180910390a15b50505050505050565b7f9f2df0fed2c77648de5860a4cc508cd0818c85b8b8a1ab4ceeef8d981c8956a681565b610eb08261081e565b610eb9816111f4565b610ec38383611327565b50505050565b5f5f610ed361100a565b9050806001015f8573ffffffffffffffffffffffffffffffffffffffff1673ffffffffffffffffffffffffffffffffffffffff1681526020019081526020015f205f8473ffffffffffffffffffffffffffffffffffffffff1673ffffffffffffffffffffffffffffffffffffffff1681526020019081526020015f205491505092915050565b7fb19546dff01e856fb3f010c267a7b1c60363cf8a4664e21cc89c26224620214e81565b7f189ab7a9244df0848122154315af71fe140f3db0fe014031783b0946b8c9d2e381565b5f7f01ffc9a7000000000000000000000000000000000000000000000000000000007bffffffffffffffffffffffffffffffffffffffffffffffffffffffff1916827bffffffffffffffffffffffffffffffffffffffffffffffffffffffff1916149050919050565b5f7f52c63247e1f47db19d5ce0460030c497f067ca4cebf71ba98eeadabe20bace00905090565b5f33905090565b6110458383836001611921565b505050565b5f6110558484610ec9565b90507fffffffffffffffffffffffffffffffffffffffffffffffffffffffffffffffff8110156110d757818110156110c8578281836040517ffb8f41b20000000000000000000000000000000000000000000000000000000081526004016110bf939291906129e4565b60405180910390fd5b6110d684848484035f611921565b5b50505050565b5f73ffffffffffffffffffffffffffffffffffffffff168373ffffffffffffffffffffffffffffffffffffffff160361114d575f6040517f96c6fd1e0000000000000000000000000000000000000000000000000000000081526004016111449190612a19565b60405180910390fd5b5f73ffffffffffffffffffffffffffffffffffffffff168273ffffffffffffffffffffffffffffffffffffffff16036111bd575f6040517fec442f050000000000000000000000000000000000000000000000000000000081526004016111b49190612a19565b60405180910390fd5b6111c8838383611afe565b505050565b5f7f02dd7bc7dec4dceedda775e58dd541e08a116c6c53815c0bd028192f7b626800905090565b61120581611200611031565b611d2d565b50565b5f5f6112126111cd565b905061121e8484610a6f565b6112f5576001815f015f8681526020019081526020015f205f015f8573ffffffffffffffffffffffffffffffffffffffff1673ffffffffffffffffffffffffffffffffffffffff1681526020019081526020015f205f6101000a81548160ff021916908315150217905550611291611031565b73ffffffffffffffffffffffffffffffffffffffff168373ffffffffffffffffffffffffffffffffffffffff16857f2f8788117e7eff1d82e926ec794901d17c78024a50270940304540a733656f0d60405160405180910390a460019150506112fa565b5f9150505b92915050565b5f7f5d3e2e8c88f3e0c8f5b0e5e5e5e5e5e5e5e5e5e5e5e5e5e5e5e5e5e5e5e5e500905090565b5f5f6113316111cd565b905061133d8484610a6f565b15611414575f815f015f8681526020019081526020015f205f015f8573ffffffffffffffffffffffffffffffffffffffff1673ffffffffffffffffffffffffffffffffffffffff1681526020019081526020015f205f6101000a81548160ff0219169083151502179055506113b0611031565b73ffffffffffffffffffffffffffffffffffffffff168373ffffffffffffffffffffffffffffffffffffffff16857ff6391f5c32d9c69d2a47ea670b442974b53935d1edc7fd64eb21e047a839171b60405160405180910390a46001915050611419565b5f9150505b92915050565b611427611d7e565b5f6114306117c5565b90505f815f015f6101000a81548160ff0219169083151502179055507f5db9ee0a495bf2e6ff9c91a7834c1ba4fdd244a5e8aa4e537bd38aeae4b073aa611475611031565b6040516114829190612a19565b60405180910390a150565b5f73ffffffffffffffffffffffffffffffffffffffff168273ffffffffffffffffffffffffffffffffffffffff16036114fd575f6040517fec442f050000000000000000000000000000000000000000000000000000000081526004016114f49190612a19565b60405180910390fd5b6115085f8383611afe565b5050565b7f000000000000000000000000000000000000000000000000000000000000000073ffffffffffffffffffffffffffffffffffffffff163073ffffffffffffffffffffffffffffffffffffffff1614806115b957507f000000000000000000000000000000000000000000000000000000000000000073ffffffffffffffffffffffffffffffffffffffff166115a0611dbe565b73ffffffffffffffffffffffffffffffffffffffff1614155b156115f0576040517fe07c8dba00000000000000000000000000000000000000000000000000000000815260040160405180910390fd5b565b7f189ab7a9244df0848122154315af71fe140f3db0fe014031783b0946b8c9d2e361161c816111f4565b5050565b8173ffffffffffffffffffffffffffffffffffffffff166352d1902d6040518163ffffffff1660e01b8152600401602060405180830381865afa92505050801561168857506040513d601f19601f820116820180604052508101906116859190612a46565b60015b6116c957816040517f4c9c8ce30000000000000000000000000000000000000000000000000000000081526004016116c09190612a19565b60405180910390fd5b7f360894a13ba1a3210667c828492db98dca3e2076cc3735a920a3ca505d382bbc5f1b811461172f57806040517faa1d49a400000000000000000000000000000000000000000000000000000000815260040161172691906124e9565b60405180910390fd5b6117398383611e11565b505050565b7f000000000000000000000000000000000000000000000000000000000000000073ffffffffffffffffffffffffffffffffffffffff163073ffffffffffffffffffffffffffffffffffffffff16146117c3576040517fe07c8dba00000000000000000000000000000000000000000000000000000000815260040160405180910390fd5b565b5f7fcd5ed15c6e187e77e9aee88184c21f4f2182ab5827cb3b7e07fbedcd63f03300905090565b6117f4611e83565b5f6117fd6117c5565b90506001815f015f6101000a81548160ff0219169083151502179055507f62e78cea01bee320cd4e420270b5ea74000d11b0c9f74754ebdbfc544b05a258611843611031565b6040516118509190612a19565b60405180910390a150565b5f73ffffffffffffffffffffffffffffffffffffffff168273ffffffffffffffffffffffffffffffffffffffff16036118cb575f6040517f96c6fd1e0000000000000000000000000000000000000000000000000000000081526004016118c29190612a19565b60405180910390fd5b6118d6825f83611afe565b5050565b5f5f6118e4611ec4565b90508091505090565b6118f5611eed565b6118ff8282611f2d565b5050565b61190b611eed565b565b611915611eed565b565b61191f611eed565b565b5f61192a61100a565b90505f73ffffffffffffffffffffffffffffffffffffffff168573ffffffffffffffffffffffffffffffffffffffff160361199c575f6040517fe602df050000000000000000000000000000000000000000000000000000000081526004016119939190612a19565b60405180910390fd5b5f73ffffffffffffffffffffffffffffffffffffffff168473ffffffffffffffffffffffffffffffffffffffff1603611a0c575f6040517f94280d62000000000000000000000000000000000000000000000000000000008152600401611a039190612a19565b60405180910390fd5b82816001015f8773ffffffffffffffffffffffffffffffffffffffff1673ffffffffffffffffffffffffffffffffffffffff1681526020019081526020015f205f8673ffffffffffffffffffffffffffffffffffffffff1673ffffffffffffffffffffffffffffffffffffffff1681526020019081526020015f20819055508115611af7578373ffffffffffffffffffffffffffffffffffffffff168573ffffffffffffffffffffffffffffffffffffffff167f8c5be1e5ebec7d5bd14f71427d1e84f3dd0314c0f7b2291e5b200ac8c7c3b92585604051611aee9190612413565b60405180910390a35b5050505050565b5f611b0761100a565b90505f73ffffffffffffffffffffffffffffffffffffffff168473ffffffffffffffffffffffffffffffffffffffff1603611b5b5781816002015f828254611b4f9190612a9e565b92505081905550611c2d565b5f815f015f8673ffffffffffffffffffffffffffffffffffffffff1673ffffffffffffffffffffffffffffffffffffffff1681526020019081526020015f2054905082811015611be6578481846040517fe450d38c000000000000000000000000000000000000000000000000000000008152600401611bdd939291906129e4565b60405180910390fd5b828103825f015f8773ffffffffffffffffffffffffffffffffffffffff1673ffffffffffffffffffffffffffffffffffffffff1681526020019081526020015f2081905550505b5f73ffffffffffffffffffffffffffffffffffffffff168373ffffffffffffffffffffffffffffffffffffffff1603611c765781816002015f8282540392505081905550611cc2565b81815f015f8573ffffffffffffffffffffffffffffffffffffffff1673ffffffffffffffffffffffffffffffffffffffff1681526020019081526020015f205f82825401925050819055505b8273ffffffffffffffffffffffffffffffffffffffff168473ffffffffffffffffffffffffffffffffffffffff167fddf252ad1be2c89b69c2b068fc378daa952ba7f163c4a11628f55a4df523b3ef84604051611d1f9190612413565b60405180910390a350505050565b611d378282610a6f565b611d7a5780826040517fe2517d3f000000000000000000000000000000000000000000000000000000008152600401611d71929190612ad1565b60405180910390fd5b5050565b611d866109c5565b611dbc576040517f8dfc202b00000000000000000000000000000000000000000000000000000000815260040160405180910390fd5b565b5f611dea7f360894a13ba1a3210667c828492db98dca3e2076cc3735a920a3ca505d382bbc5f1b611f69565b5f015f9054906101000a900473ffffffffffffffffffffffffffffffffffffffff16905090565b611e1a82611f72565b8173ffffffffffffffffffffffffffffffffffffffff167fbc7cd75a20ee27fd9adebab32041f755214dbc6bffa90cc0225b39da2e5c2d3b60405160405180910390a25f81511115611e7657611e70828261203b565b50611e7f565b611e7e6120bb565b5b5050565b611e8b6109c5565b15611ec2576040517fd93c066500000000000000000000000000000000000000000000000000000000815260040160405180910390fd5b565b5f7ff0c57e16840df040f15088dc2f81fe391c3923bec73e23a9662efc9c229c6a005f1b905090565b611ef56120f7565b611f2b576040517fd7e6bcf800000000000000000000000000000000000000000000000000000000815260040160405180910390fd5b565b611f35611eed565b5f611f3e61100a565b905082816003019081611f519190612c8f565b5081816004019081611f639190612c8f565b50505050565b5f819050919050565b5f8173ffffffffffffffffffffffffffffffffffffffff163b03611fcd57806040517f4c9c8ce3000000000000000000000000000000000000000000000000000000008152600401611fc49190612a19565b60405180910390fd5b80611ff97f360894a13ba1a3210667c828492db98dca3e2076cc3735a920a3ca505d382bbc5f1b611f69565b5f015f6101000a81548173ffffffffffffffffffffffffffffffffffffffff021916908373ffffffffffffffffffffffffffffffffffffffff16021790555050565b60605f5f8473ffffffffffffffffffffffffffffffffffffffff16846040516120649190612da2565b5f60405180830381855af49150503d805f811461209c576040519150601f19603f3d011682016040523d82523d5f602084013e6120a1565b606091505b50915091506120b1858383612115565b9250505092915050565b5f3411156120f5576040517fb398979f00000000000000000000000000000000000000000000000000000000815260040160405180910390fd5b565b5f6121006118da565b5f0160089054906101000a900460ff16905090565b60608261212a57612125826121a2565b61219a565b5f825114801561215057505f8473ffffffffffffffffffffffffffffffffffffffff163b145b1561219257836040517f9996b3150000000000000000000000000000000000000000000000000000000081526004016121899190612a19565b60405180910390fd5b81905061219b565b5b9392505050565b5f815111156121b357805160208201fd5b6040517fd6bda27500000000000000000000000000000000000000000000000000000000815260040160405180910390fd5b5f604051905090565b5f5ffd5b5f5ffd5b5f7fffffffff0000000000000000000000000000000000000000000000000000000082169050919050565b61222a816121f6565b8114612234575f5ffd5b50565b5f8135905061224581612221565b92915050565b5f602082840312156122605761225f6121ee565b5b5f61226d84828501612237565b91505092915050565b5f8115159050919050565b61228a81612276565b82525050565b5f6020820190506122a35f830184612281565b92915050565b5f81519050919050565b5f82825260208201905092915050565b8281835e5f83830152505050565b5f601f19601f8301169050919050565b5f6122eb826122a9565b6122f581856122b3565b93506123058185602086016122c3565b61230e816122d1565b840191505092915050565b5f6020820190508181035f83015261233181846122e1565b905092915050565b5f73ffffffffffffffffffffffffffffffffffffffff82169050919050565b5f61236282612339565b9050919050565b61237281612358565b811461237c575f5ffd5b50565b5f8135905061238d81612369565b92915050565b5f819050919050565b6123a581612393565b81146123af575f5ffd5b50565b5f813590506123c08161239c565b92915050565b5f5f604083850312156123dc576123db6121ee565b5b5f6123e98582860161237f565b92505060206123fa858286016123b2565b9150509250929050565b61240d81612393565b82525050565b5f6020820190506124265f830184612404565b92915050565b5f5f5f60608486031215612443576124426121ee565b5b5f6124508682870161237f565b93505060206124618682870161237f565b9250506040612472868287016123b2565b9150509250925092565b5f819050919050565b61248e8161247c565b8114612498575f5ffd5b50565b5f813590506124a981612485565b92915050565b5f602082840312156124c4576124c36121ee565b5b5f6124d18482850161249b565b91505092915050565b6124e38161247c565b82525050565b5f6020820190506124fc5f8301846124da565b92915050565b5f5f60408385031215612518576125176121ee565b5b5f6125258582860161249b565b92505060206125368582860161237f565b9150509250929050565b5f60ff82169050919050565b61255581612540565b82525050565b5f60208201905061256e5f83018461254c565b92915050565b5f5ffd5b5f5ffd5b7f4e487b71000000000000000000000000000000000000000000000000000000005f52604160045260245ffd5b6125b2826122d1565b810181811067ffffffffffffffff821117156125d1576125d061257c565b5b80604052505050565b5f6125e36121e5565b90506125ef82826125a9565b919050565b5f67ffffffffffffffff82111561260e5761260d61257c565b5b612617826122d1565b9050602081019050919050565b828183375f83830152505050565b5f61264461263f846125f4565b6125da565b9050828152602081018484840111156126605761265f612578565b5b61266b848285612624565b509392505050565b5f82601f83011261268757612686612574565b5b8135612697848260208601612632565b91505092915050565b5f5f604083850312156126b6576126b56121ee565b5b5f6126c38582860161237f565b925050602083013567ffffffffffffffff8111156126e4576126e36121f2565b5b6126f085828601612673565b9150509250929050565b5f6020828403121561270f5761270e6121ee565b5b5f61271c8482850161237f565b91505092915050565b5f67ffffffffffffffff82111561273f5761273e61257c565b5b612748826122d1565b9050602081019050919050565b5f61276761276284612725565b6125da565b90508281526020810184848401111561278357612782612578565b5b61278e848285612624565b509392505050565b5f82601f8301126127aa576127a9612574565b5b81356127ba848260208601612755565b91505092915050565b6127cc81612540565b81146127d6575f5ffd5b50565b5f813590506127e7816127c3565b92915050565b5f5f60408385031215612803576128026121ee565b5b5f83013567ffffffffffffffff8111156128205761281f6121f2565b5b61282c85828601612796565b925050602061283d858286016127d9565b9150509250929050565b5f5f6040838503121561285d5761285c6121ee565b5b5f61286a8582860161237f565b925050602061287b8582860161237f565b9150509250929050565b7f4e487b71000000000000000000000000000000000000000000000000000000005f52602260045260245ffd5b5f60028204905060018216806128c957607f821691505b6020821081036128dc576128db612885565b5b50919050565b7f537570616c61544f4b454e2d0000000000000000000000000000000000000000815250565b5f81905092915050565b5f61291c826122a9565b6129268185612908565b93506129368185602086016122c3565b80840191505092915050565b5f61294c826128e2565b600c8201915061295c8284612912565b915081905092915050565b5f819050919050565b5f67ffffffffffffffff82169050919050565b5f819050919050565b5f6129a66129a161299c84612967565b612983565b612970565b9050919050565b6129b68161298c565b82525050565b5f6020820190506129cf5f8301846129ad565b92915050565b6129de81612358565b82525050565b5f6060820190506129f75f8301866129d5565b612a046020830185612404565b612a116040830184612404565b949350505050565b5f602082019050612a2c5f8301846129d5565b92915050565b5f81519050612a4081612485565b92915050565b5f60208284031215612a5b57612a5a6121ee565b5b5f612a6884828501612a32565b91505092915050565b7f4e487b71000000000000000000000000000000000000000000000000000000005f52601160045260245ffd5b5f612aa882612393565b9150612ab383612393565b9250828201905080821115612acb57612aca612a71565b5b92915050565b5f604082019050612ae45f8301856129d5565b612af160208301846124da565b9392505050565b5f819050815f5260205f209050919050565b5f6020601f8301049050919050565b5f82821b905092915050565b5f60088302612b547fffffffffffffffffffffffffffffffffffffffffffffffffffffffffffffffff82612b19565b612b5e8683612b19565b95508019841693508086168417925050509392505050565b5f612b90612b8b612b8684612393565b612983565b612393565b9050919050565b5f819050919050565b612ba983612b76565b612bbd612bb582612b97565b848454612b25565b825550505050565b5f5f905090565b612bd4612bc5565b612bdf818484612ba0565b505050565b5b81811015612c0257612bf75f82612bcc565b600181019050612be5565b5050565b601f821115612c4757612c1881612af8565b612c2184612b0a565b81016020851015612c30578190505b612c44612c3c85612b0a565b830182612be4565b50505b505050565b5f82821c905092915050565b5f612c675f1984600802612c4c565b1980831691505092915050565b5f612c7f8383612c58565b9150826002028217905092915050565b612c98826122a9565b67ffffffffffffffff811115612cb157612cb061257c565b5b612cbb82546128b2565b612cc6828285612c06565b5f60209050601f831160018114612cf7575f8415612ce5578287015190505b612cef8582612c74565b865550612d56565b601f198416612d0586612af8565b5f5b82811015612d2c57848901518255600182019150602085019450602081019050612d07565b86831015612d495784890151612d45601f891682612c58565b8355505b6001600288020188555050505b505050505050565b5f81519050919050565b5f81905092915050565b5f612d7c82612d5e565b612d868185612d68565b9350612d968185602086016122c3565b80840191505092915050565b5f612dad8284612d72565b91508190509291505056fea2646970667358221220404a4addb01b1eec9f27151026e906ef147fe2c128332c4d871b1ebe3120bdd864736f6c634300081e0033","linkReferences":{}},"methodIdentifiers":{"DEFAULT_ADMIN_ROLE()":"a217fddf","MINTER_ROLE()":"d5391393","OWNER_ROLE()":"e58378bb","UPGRADER_ROLE()":"f72c0d8b","UPGRADE_INTERFACE_VERSION()":"ad3cb1cc","allowance(address,address)":"dd62ed3e","approve(address,uint256)":"095ea7b3","balanceOf(address)":"70a08231","burn(address,uint256)":"9dc29fac","decimals()":"313ce567","getRoleAdmin(bytes32)":"248a9ca3","grantRole(bytes32,address)":"2f2ff15d","hasRole(bytes32,address)":"91d14854","initialize(string,uint8)":"cc1207c0","mint(address,uint256)":"40c10f19","name()":"06fdde03","pause()":"8456cb59","paused()":"5c975abb","proxiableUUID()":"52d1902d","renounceRole(bytes32,address)":"36568abe","revokeRole(bytes32,address)":"d547741f","supportsInterface(bytes4)":"01ffc9a7","symbol()":"95d89b41","totalSupply()":"18160ddd","transfer(address,uint256)":"a9059cbb","transferFrom(address,address,uint256)":"23b872dd","unpause()":"3f4ba83a","upgradeToAndCall(address,bytes)":"4f1ef286"},"id":181}