{"abi":[{"type":"constructor","inputs":[{"name":"_token","type":"address","internalType":"address"}],"stateMutability":"nonpayable"},{"type":"function","name":"answeredInRound","inputs":[],"outputs":[{"name":"","type":"uint80","internalType":"uint80"}],"stateMutability":"view"},{"type":"function","name":"decimals","inputs":[],"outputs":[{"name":"","type":"uint8","internalType":"uint8"}],"stateMutability":"view"},{"type":"function","name":"latestRoundData","inputs":[],"outputs":[{"name":"","type":"uint80","internalType":"uint80"},{"name":"","type":"uint256","internalType":"uint256"},{"name":"","type":"uint256","internalType":"uint256"},{"name":"","type":"uint256","internalType":"uint256"},{"name":"","type":"uint80","internalType":"uint80"}],"stateMutability":"view"},{"type":"function","name":"owner","inputs":[],"outputs":[{"name":"","type":"address","internalType":"address"}],"stateMutability":"view"},{"type":"function","name":"price","inputs":[],"outputs":[{"name":"","type":"uint256","internalType":"uint256"}],"stateMutability":"view"},{"type":"function","name":"renounceOwnership","inputs":[],"outputs":[],"stateMutability":"nonpayable"},{"type":"function","name":"roundId","inputs":[],"outputs":[{"name":"","type":"uint80","internalType":"uint80"}],"stateMutability":"view"},{"type":"function","name":"setPrice","inputs":[{"name":"_price","type":"uint256","internalType":"uint256"}],"outputs":[],"stateMutability":"nonpayable"},{"type":"function","name":"startedAt","inputs":[],"outputs":[{"name":"","type":"uint256","internalType":"uint256"}],"stateMutability":"view"},{"type":"function","name":"token","inputs":[],"outputs":[{"name":"","type":"address","internalType":"address"}],"stateMutability":"view"},{"type":"function","name":"transferOwnership","inputs":[{"name":"newOwner","type":"address","internalType":"address"}],"outputs":[],"stateMutability":"nonpayable"},{"type":"function","name":"updatedAt","inputs":[],"outputs":[{"name":"","type":"uint256","internalType":"uint256"}],"stateMutability":"view"},{"type":"event","name":"OwnershipTransferred","inputs":[{"name":"previousOwner","type":"address","indexed":true,"internalType":"address"},{"name":"newOwner","type":"address","indexed":true,"internalType":"address"}],"anonymous":false},{"type":"error","name":"OwnableInvalidOwner","inputs":[{"name":"owner","type":"address","internalType":"address"}]},{"type":"error","name":"OwnableUnauthorizedAccount","inputs":[{"name":"account","type":"address","internalType":"address"}]}],"bytecode":{"object":"0x608060405260086005600a6101000a81548160ff021916908360ff16021790555034801561002b575f5ffd5b50604051610a24380380610a24833981810160405281019061004d9190610233565b335f73ffffffffffffffffffffffffffffffffffffffff168173ffffffffffffffffffffffffffffffffffffffff16036100be575f6040517f1e4fbdf70000000000000000000000000000000000000000000000000000000081526004016100b5919061026d565b60405180910390fd5b6100cd8161011460201b60201c565b508060015f6101000a81548173ffffffffffffffffffffffffffffffffffffffff021916908373ffffffffffffffffffffffffffffffffffffffff16021790555050610286565b5f5f5f9054906101000a900473ffffffffffffffffffffffffffffffffffffffff169050815f5f6101000a81548173ffffffffffffffffffffffffffffffffffffffff021916908373ffffffffffffffffffffffffffffffffffffffff1602179055508173ffffffffffffffffffffffffffffffffffffffff168173ffffffffffffffffffffffffffffffffffffffff167f8be0079c531659141344cd1fd0a4f28419497f9722a3daafe3b4186f6b6457e060405160405180910390a35050565b5f5ffd5b5f73ffffffffffffffffffffffffffffffffffffffff82169050919050565b5f610202826101d9565b9050919050565b610212816101f8565b811461021c575f5ffd5b50565b5f8151905061022d81610209565b92915050565b5f60208284031215610248576102476101d5565b5b5f6102558482850161021f565b91505092915050565b610267816101f8565b82525050565b5f6020820190506102805f83018461025e565b92915050565b610791806102935f395ff3fe608060405234801561000f575f5ffd5b50600436106100b2575f3560e01c8063a035b1fe1161006f578063a035b1fe14610154578063c22c249914610172578063f21f537d14610190578063f2fde38b146101ae578063fc0c546a146101ca578063feaf968c146101e8576100b2565b8063313ce567146100b6578063715018a6146100d45780637519ab50146100de5780638cd221c9146100fc5780638da5cb5b1461011a57806391b7f5ed14610138575b5f5ffd5b6100be61020a565b6040516100cb919061057d565b60405180910390f35b6100dc61021d565b005b6100e6610230565b6040516100f391906105ae565b60405180910390f35b610104610236565b60405161011191906105eb565b60405180910390f35b610122610252565b60405161012f9190610643565b60405180910390f35b610152600480360381019061014d919061068a565b610279565b005b61015c6102f3565b60405161016991906105ae565b60405180910390f35b61017a6102f9565b60405161018791906105eb565b60405180910390f35b610198610314565b6040516101a591906105ae565b60405180910390f35b6101c860048036038101906101c391906106df565b61031a565b005b6101d261039e565b6040516101df9190610643565b60405180910390f35b6101f06103c3565b60405161020195949392919061070a565b60405180910390f35b6005600a9054906101000a900460ff1681565b610225610413565b61022e5f61049a565b565b60045481565b600160149054906101000a900469ffffffffffffffffffff1681565b5f5f5f9054906101000a900473ffffffffffffffffffffffffffffffffffffffff16905090565b610281610413565b60018060146101000a81548169ffffffffffffffffffff021916908369ffffffffffffffffffff160217905550806002819055504260038190555042600481905550600160055f6101000a81548169ffffffffffffffffffff021916908369ffffffffffffffffffff16021790555050565b60025481565b60055f9054906101000a900469ffffffffffffffffffff1681565b60035481565b610322610413565b5f73ffffffffffffffffffffffffffffffffffffffff168173ffffffffffffffffffffffffffffffffffffffff1603610392575f6040517f1e4fbdf70000000000000000000000000000000000000000000000000000000081526004016103899190610643565b60405180910390fd5b61039b8161049a565b50565b60015f9054906101000a900473ffffffffffffffffffffffffffffffffffffffff1681565b5f5f5f5f5f600160149054906101000a900469ffffffffffffffffffff1660025460035460045460055f9054906101000a900469ffffffffffffffffffff16945094509450945094509091929394565b61041b61055b565b73ffffffffffffffffffffffffffffffffffffffff16610439610252565b73ffffffffffffffffffffffffffffffffffffffff16146104985761045c61055b565b6040517f118cdaa700000000000000000000000000000000000000000000000000000000815260040161048f9190610643565b60405180910390fd5b565b5f5f5f9054906101000a900473ffffffffffffffffffffffffffffffffffffffff169050815f5f6101000a81548173ffffffffffffffffffffffffffffffffffffffff021916908373ffffffffffffffffffffffffffffffffffffffff1602179055508173ffffffffffffffffffffffffffffffffffffffff168173ffffffffffffffffffffffffffffffffffffffff167f8be0079c531659141344cd1fd0a4f28419497f9722a3daafe3b4186f6b6457e060405160405180910390a35050565b5f33905090565b5f60ff82169050919050565b61057781610562565b82525050565b5f6020820190506105905f83018461056e565b92915050565b5f819050919050565b6105a881610596565b82525050565b5f6020820190506105c15f83018461059f565b92915050565b5f69ffffffffffffffffffff82169050919050565b6105e5816105c7565b82525050565b5f6020820190506105fe5f8301846105dc565b92915050565b5f73ffffffffffffffffffffffffffffffffffffffff82169050919050565b5f61062d82610604565b9050919050565b61063d81610623565b82525050565b5f6020820190506106565f830184610634565b92915050565b5f5ffd5b61066981610596565b8114610673575f5ffd5b50565b5f8135905061068481610660565b92915050565b5f6020828403121561069f5761069e61065c565b5b5f6106ac84828501610676565b91505092915050565b6106be81610623565b81146106c8575f5ffd5b50565b5f813590506106d9816106b5565b92915050565b5f602082840312156106f4576106f361065c565b5b5f610701848285016106cb565b91505092915050565b5f60a08201905061071d5f8301886105dc565b61072a602083018761059f565b610737604083018661059f565b610744606083018561059f565b61075160808301846105dc565b969550505050505056fea264697066735822122077cf1e413c5bc8f6abf3761ae3df2adf7fcc8936e020c97a49b744ea827d020b64736f6c634300081e0033","linkReferences":{}},"methodIdentifiers":{"answeredInRound()":"c22c2499","decimals()":"313ce567","latestRoundData()":"feaf968c","owner()":"8da5cb5b","price()":"a035b1fe","renounceOwnership()":"715018a6","roundId()":"8cd221c9","setPrice(uint256)":"91b7f5ed","startedAt()":"f21f537d","token()":"fc0c546a","transferOwnership(address)":"f2fde38b","updatedAt()":"7519ab50"},"id":222}