{"abi":[{"type":"constructor","inputs":[{"name":"_token","type":"address","internalType":"address"}],"stateMutability":"nonpayable"},{"type":"function","name":"answeredInRound","inputs":[],"outputs":[{"name":"","type":"uint80","internalType":"uint80"}],"stateMutability":"view"},{"type":"function","name":"decimals","inputs":[],"outputs":[{"name":"","type":"uint8","internalType":"uint8"}],"stateMutability":"view"},{"type":"function","name":"latestRoundData","inputs":[],"outputs":[{"name":"","type":"uint80","internalType":"uint80"},{"name":"","type":"int256","internalType":"int256"},{"name":"","type":"uint256","internalType":"uint256"},{"name":"","type":"uint256","internalType":"uint256"},{"name":"","type":"uint80","internalType":"uint80"}],"stateMutability":"view"},{"type":"function","name":"owner","inputs":[],"outputs":[{"name":"","type":"address","internalType":"address"}],"stateMutability":"view"},{"type":"function","name":"price","inputs":[],"outputs":[{"name":"","type":"int256","internalType":"int256"}],"stateMutability":"view"},{"type":"function","name":"renounceOwnership","inputs":[],"outputs":[],"stateMutability":"nonpayable"},{"type":"function","name":"roundId","inputs":[],"outputs":[{"name":"","type":"uint80","internalType":"uint80"}],"stateMutability":"view"},{"type":"function","name":"setPrice","inputs":[{"name":"_price","type":"int256","internalType":"int256"}],"outputs":[],"stateMutability":"nonpayable"},{"type":"function","name":"startedAt","inputs":[],"outputs":[{"name":"","type":"uint256","internalType":"uint256"}],"stateMutability":"view"},{"type":"function","name":"token","inputs":[],"outputs":[{"name":"","type":"address","internalType":"address"}],"stateMutability":"view"},{"type":"function","name":"transferOwnership","inputs":[{"name":"newOwner","type":"address","internalType":"address"}],"outputs":[],"stateMutability":"nonpayable"},{"type":"function","name":"updatedAt","inputs":[],"outputs":[{"name":"","type":"uint256","internalType":"uint256"}],"stateMutability":"view"},{"type":"event","name":"OwnershipTransferred","inputs":[{"name":"previousOwner","type":"address","indexed":true,"internalType":"address"},{"name":"newOwner","type":"address","indexed":true,"internalType":"address"}],"anonymous":false},{"type":"error","name":"OwnableInvalidOwner","inputs":[{"name":"owner","type":"address","internalType":"address"}]},{"type":"error","name":"OwnableUnauthorizedAccount","inputs":[{"name":"account","type":"address","internalType":"address"}]}],"bytecode":{"object":"0x608060405260086005600a6101000a81548160ff021916908360ff16021790555034801561002b575f5ffd5b50604051610a55380380610a55833981810160405281019061004d9190610233565b335f73ffffffffffffffffffffffffffffffffffffffff168173ffffffffffffffffffffffffffffffffffffffff16036100be575f6040517f1e4fbdf70000000000000000000000000000000000000000000000000000000081526004016100b5919061026d565b60405180910390fd5b6100cd8161011460201b60201c565b508060015f6101000a81548173ffffffffffffffffffffffffffffffffffffffff021916908373ffffffffffffffffffffffffffffffffffffffff16021790555050610286565b5f5f5f9054906101000a900473ffffffffffffffffffffffffffffffffffffffff169050815f5f6101000a81548173ffffffffffffffffffffffffffffffffffffffff021916908373ffffffffffffffffffffffffffffffffffffffff1602179055508173ffffffffffffffffffffffffffffffffffffffff168173ffffffffffffffffffffffffffffffffffffffff167f8be0079c531659141344cd1fd0a4f28419497f9722a3daafe3b4186f6b6457e060405160405180910390a35050565b5f5ffd5b5f73ffffffffffffffffffffffffffffffffffffffff82169050919050565b5f610202826101d9565b9050919050565b610212816101f8565b811461021c575f5ffd5b50565b5f8151905061022d81610209565b92915050565b5f60208284031215610248576102476101d5565b5b5f6102558482850161021f565b91505092915050565b610267816101f8565b82525050565b5f6020820190506102805f83018461025e565b92915050565b6107c2806102935f395ff3fe608060405234801561000f575f5ffd5b50600436106100b2575f3560e01c8063c22c24991161006f578063c22c249914610156578063f21f537d14610174578063f2fde38b14610192578063f7a30806146101ae578063fc0c546a146101ca578063feaf968c146101e8576100b2565b8063313ce567146100b6578063715018a6146100d45780637519ab50146100de5780638cd221c9146100fc5780638da5cb5b1461011a578063a035b1fe14610138575b5f5ffd5b6100be61020a565b6040516100cb919061057d565b60405180910390f35b6100dc61021d565b005b6100e6610230565b6040516100f391906105ae565b60405180910390f35b610104610236565b60405161011191906105eb565b60405180910390f35b610122610252565b60405161012f9190610643565b60405180910390f35b610140610279565b60405161014d9190610674565b60405180910390f35b61015e61027f565b60405161016b91906105eb565b60405180910390f35b61017c61029a565b60405161018991906105ae565b60405180910390f35b6101ac60048036038101906101a791906106bb565b6102a0565b005b6101c860048036038101906101c39190610710565b610324565b005b6101d261039e565b6040516101df9190610643565b60405180910390f35b6101f06103c3565b60405161020195949392919061073b565b60405180910390f35b6005600a9054906101000a900460ff1681565b610225610413565b61022e5f61049a565b565b60045481565b600160149054906101000a900469ffffffffffffffffffff1681565b5f5f5f9054906101000a900473ffffffffffffffffffffffffffffffffffffffff16905090565b60025481565b60055f9054906101000a900469ffffffffffffffffffff1681565b60035481565b6102a8610413565b5f73ffffffffffffffffffffffffffffffffffffffff168173ffffffffffffffffffffffffffffffffffffffff1603610318575f6040517f1e4fbdf700000000000000000000000000000000000000000000000000000000815260040161030f9190610643565b60405180910390fd5b6103218161049a565b50565b61032c610413565b60018060146101000a81548169ffffffffffffffffffff021916908369ffffffffffffffffffff160217905550806002819055504260038190555042600481905550600160055f6101000a81548169ffffffffffffffffffff021916908369ffffffffffffffffffff16021790555050565b60015f9054906101000a900473ffffffffffffffffffffffffffffffffffffffff1681565b5f5f5f5f5f600160149054906101000a900469ffffffffffffffffffff1660025460035460045460055f9054906101000a900469ffffffffffffffffffff16945094509450945094509091929394565b61041b61055b565b73ffffffffffffffffffffffffffffffffffffffff16610439610252565b73ffffffffffffffffffffffffffffffffffffffff16146104985761045c61055b565b6040517f118cdaa700000000000000000000000000000000000000000000000000000000815260040161048f9190610643565b60405180910390fd5b565b5f5f5f9054906101000a900473ffffffffffffffffffffffffffffffffffffffff169050815f5f6101000a81548173ffffffffffffffffffffffffffffffffffffffff021916908373ffffffffffffffffffffffffffffffffffffffff1602179055508173ffffffffffffffffffffffffffffffffffffffff168173ffffffffffffffffffffffffffffffffffffffff167f8be0079c531659141344cd1fd0a4f28419497f9722a3daafe3b4186f6b6457e060405160405180910390a35050565b5f33905090565b5f60ff82169050919050565b61057781610562565b82525050565b5f6020820190506105905f83018461056e565b92915050565b5f819050919050565b6105a881610596565b82525050565b5f6020820190506105c15f83018461059f565b92915050565b5f69ffffffffffffffffffff82169050919050565b6105e5816105c7565b82525050565b5f6020820190506105fe5f8301846105dc565b92915050565b5f73ffffffffffffffffffffffffffffffffffffffff82169050919050565b5f61062d82610604565b9050919050565b61063d81610623565b82525050565b5f6020820190506106565f830184610634565b92915050565b5f819050919050565b61066e8161065c565b82525050565b5f6020820190506106875f830184610665565b92915050565b5f5ffd5b61069a81610623565b81146106a4575f5ffd5b50565b5f813590506106b581610691565b92915050565b5f602082840312156106d0576106cf61068d565b5b5f6106dd848285016106a7565b91505092915050565b6106ef8161065c565b81146106f9575f5ffd5b50565b5f8135905061070a816106e6565b92915050565b5f602082840312156107255761072461068d565b5b5f610732848285016106fc565b91505092915050565b5f60a08201905061074e5f8301886105dc565b61075b6020830187610665565b610768604083018661059f565b610775606083018561059f565b61078260808301846105dc565b969550505050505056fea2646970667358221220c191c92d500d3afe5178602ca5d6ad092c38f02a28a64ceec587149d580368bd64736f6c634300081e0033","linkReferences":{}},"methodIdentifiers":{"answeredInRound()":"c22c2499","decimals()":"313ce567","latestRoundData()":"feaf968c","owner()":"8da5cb5b","price()":"a035b1fe","renounceOwnership()":"715018a6","roundId()":"8cd221c9","setPrice(int256)":"f7a30806","startedAt()":"f21f537d","token()":"fc0c546a","transferOwnership(address)":"f2fde38b","updatedAt()":"7519ab50"},"id":175}