{"abi":[{"type":"constructor","inputs":[],"stateMutability":"nonpayable"},{"type":"fallback","stateMutability":"payable"},{"type":"receive","stateMutability":"payable"},{"type":"function","name":"DEFAULT_ADMIN_ROLE","inputs":[],"outputs":[{"name":"","type":"bytes32","internalType":"bytes32"}],"stateMutability":"view"},{"type":"function","name":"OWNER_ROLE","inputs":[],"outputs":[{"name":"","type":"bytes32","internalType":"bytes32"}],"stateMutability":"view"},{"type":"function","name":"UPGRADER_ROLE","inputs":[],"outputs":[{"name":"","type":"bytes32","internalType":"bytes32"}],"stateMutability":"view"},{"type":"function","name":"UPGRADE_INTERFACE_VERSION","inputs":[],"outputs":[{"name":"","type":"string","internalType":"string"}],"stateMutability":"view"},{"type":"function","name":"_tokenCalculator","inputs":[{"name":"_tokenIn","type":"address","internalType":"address"},{"name":"_tokenOut","type":"address","internalType":"address"},{"name":"_amountIn","type":"uint256","internalType":"uint256"}],"outputs":[{"name":"","type":"uint256","internalType":"uint256"}],"stateMutability":"view"},{"type":"function","name":"counter","inputs":[],"outputs":[{"name":"","type":"uint256","internalType":"uint256"}],"stateMutability":"view"},{"type":"function","name":"getRoleAdmin","inputs":[{"name":"role","type":"bytes32","internalType":"bytes32"}],"outputs":[{"name":"","type":"bytes32","internalType":"bytes32"}],"stateMutability":"view"},{"type":"function","name":"grantRole","inputs":[{"name":"role","type":"bytes32","internalType":"bytes32"},{"name":"account","type":"address","internalType":"address"}],"outputs":[],"stateMutability":"nonpayable"},{"type":"function","name":"hasRole","inputs":[{"name":"role","type":"bytes32","internalType":"bytes32"},{"name":"account","type":"address","internalType":"address"}],"outputs":[{"name":"","type":"bool","internalType":"bool"}],"stateMutability":"view"},{"type":"function","name":"initialize","inputs":[{"name":"_lpAddress","type":"address","internalType":"address"},{"name":"_user","type":"address","internalType":"address"}],"outputs":[],"stateMutability":"nonpayable"},{"type":"function","name":"liquidation","inputs":[{"name":"_liquidator","type":"address","internalType":"address"},{"name":"_liquidationBonus","type":"uint256","internalType":"uint256"}],"outputs":[],"stateMutability":"nonpayable"},{"type":"function","name":"lpAddress","inputs":[],"outputs":[{"name":"","type":"address","internalType":"address"}],"stateMutability":"view"},{"type":"function","name":"owner","inputs":[],"outputs":[{"name":"","type":"address","internalType":"address"}],"stateMutability":"view"},{"type":"function","name":"pause","inputs":[],"outputs":[],"stateMutability":"nonpayable"},{"type":"function","name":"paused","inputs":[],"outputs":[{"name":"","type":"bool","internalType":"bool"}],"stateMutability":"view"},{"type":"function","name":"proxiableUUID","inputs":[],"outputs":[{"name":"","type":"bytes32","internalType":"bytes32"}],"stateMutability":"view"},{"type":"function","name":"renounceRole","inputs":[{"name":"role","type":"bytes32","internalType":"bytes32"},{"name":"callerConfirmation","type":"address","internalType":"address"}],"outputs":[],"stateMutability":"nonpayable"},{"type":"function","name":"repayWithSelectedToken","inputs":[{"name":"params","type":"tuple","internalType":"struct SwapHook.SwapParams","components":[{"name":"tokenIn","type":"address","internalType":"address"},{"name":"tokenOut","type":"address","internalType":"address"},{"name":"amountIn","type":"uint256","internalType":"uint256"},{"name":"amountOutMinimum","type":"uint256","internalType":"uint256"},{"name":"fee","type":"uint24","internalType":"uint24"}]}],"outputs":[],"stateMutability":"payable"},{"type":"function","name":"revokeRole","inputs":[{"name":"role","type":"bytes32","internalType":"bytes32"},{"name":"account","type":"address","internalType":"address"}],"outputs":[],"stateMutability":"nonpayable"},{"type":"function","name":"supportsInterface","inputs":[{"name":"interfaceId","type":"bytes4","internalType":"bytes4"}],"outputs":[{"name":"","type":"bool","internalType":"bool"}],"stateMutability":"view"},{"type":"function","name":"swapTokenByPosition","inputs":[{"name":"params","type":"tuple","internalType":"struct SwapHook.SwapParams","components":[{"name":"tokenIn","type":"address","internalType":"address"},{"name":"tokenOut","type":"address","internalType":"address"},{"name":"amountIn","type":"uint256","internalType":"uint256"},{"name":"amountOutMinimum","type":"uint256","internalType":"uint256"},{"name":"fee","type":"uint24","internalType":"uint24"}]}],"outputs":[{"name":"amountOut","type":"uint256","internalType":"uint256"}],"stateMutability":"nonpayable"},{"type":"function","name":"swapTokenToBorrow","inputs":[{"name":"params","type":"tuple","internalType":"struct SwapHook.SwapParams","components":[{"name":"tokenIn","type":"address","internalType":"address"},{"name":"tokenOut","type":"address","internalType":"address"},{"name":"amountIn","type":"uint256","internalType":"uint256"},{"name":"amountOutMinimum","type":"uint256","internalType":"uint256"},{"name":"fee","type":"uint24","internalType":"uint24"}]}],"outputs":[],"stateMutability":"nonpayable"},{"type":"function","name":"tokenLists","inputs":[{"name":"","type":"uint256","internalType":"uint256"}],"outputs":[{"name":"","type":"address","internalType":"address"}],"stateMutability":"view"},{"type":"function","name":"tokenListsId","inputs":[{"name":"","type":"address","internalType":"address"}],"outputs":[{"name":"","type":"uint256","internalType":"uint256"}],"stateMutability":"view"},{"type":"function","name":"totalCollateral","inputs":[],"outputs":[{"name":"","type":"uint256","internalType":"uint256"}],"stateMutability":"view"},{"type":"function","name":"unpause","inputs":[],"outputs":[],"stateMutability":"nonpayable"},{"type":"function","name":"upgradeToAndCall","inputs":[{"name":"newImplementation","type":"address","internalType":"address"},{"name":"data","type":"bytes","internalType":"bytes"}],"outputs":[],"stateMutability":"payable"},{"type":"function","name":"withdrawCollateral","inputs":[{"name":"amount","type":"uint256","internalType":"uint256"},{"name":"_user","type":"address","internalType":"address"}],"outputs":[],"stateMutability":"nonpayable"},{"type":"event","name":"Initialized","inputs":[{"name":"version","type":"uint64","indexed":false,"internalType":"uint64"}],"anonymous":false},{"type":"event","name":"Paused","inputs":[{"name":"account","type":"address","indexed":false,"internalType":"address"}],"anonymous":false},{"type":"event","name":"RoleAdminChanged","inputs":[{"name":"role","type":"bytes32","indexed":true,"internalType":"bytes32"},{"name":"previousAdminRole","type":"bytes32","indexed":true,"internalType":"bytes32"},{"name":"newAdminRole","type":"bytes32","indexed":true,"internalType":"bytes32"}],"anonymous":false},{"type":"event","name":"RoleGranted","inputs":[{"name":"role","type":"bytes32","indexed":true,"internalType":"bytes32"},{"name":"account","type":"address","indexed":true,"internalType":"address"},{"name":"sender","type":"address","indexed":true,"internalType":"address"}],"anonymous":false},{"type":"event","name":"RoleRevoked","inputs":[{"name":"role","type":"bytes32","indexed":true,"internalType":"bytes32"},{"name":"account","type":"address","indexed":true,"internalType":"address"},{"name":"sender","type":"address","indexed":true,"internalType":"address"}],"anonymous":false},{"type":"event","name":"SwapTokenByPosition","inputs":[{"name":"user","type":"address","indexed":false,"internalType":"address"},{"name":"tokenIn","type":"address","indexed":false,"internalType":"address"},{"name":"tokenOut","type":"address","indexed":false,"internalType":"address"},{"name":"amountIn","type":"uint256","indexed":false,"internalType":"uint256"},{"name":"amountOut","type":"uint256","indexed":false,"internalType":"uint256"}],"anonymous":false},{"type":"event","name":"Unpaused","inputs":[{"name":"account","type":"address","indexed":false,"internalType":"address"}],"anonymous":false},{"type":"event","name":"Upgraded","inputs":[{"name":"implementation","type":"address","indexed":true,"internalType":"address"}],"anonymous":false},{"type":"event","name":"WithdrawCollateral","inputs":[{"name":"user","type":"address","indexed":true,"internalType":"address"},{"name":"amount","type":"uint256","indexed":false,"internalType":"uint256"}],"anonymous":false},{"type":"error","name":"AccessControlBadConfirmation","inputs":[]},{"type":"error","name":"AccessControlUnauthorizedAccount","inputs":[{"name":"account","type":"address","internalType":"address"},{"name":"neededRole","type":"bytes32","internalType":"bytes32"}]},{"type":"error","name":"AddressEmptyCode","inputs":[{"name":"target","type":"address","internalType":"address"}]},{"type":"error","name":"ERC1967InvalidImplementation","inputs":[{"name":"implementation","type":"address","internalType":"address"}]},{"type":"error","name":"ERC1967NonPayable","inputs":[]},{"type":"error","name":"EnforcedPause","inputs":[]},{"type":"error","name":"ExpectedPause","inputs":[]},{"type":"error","name":"FailedCall","inputs":[]},{"type":"error","name":"InsufficientBalance","inputs":[]},{"type":"error","name":"InsufficientOutputAmount","inputs":[{"name":"amountOut","type":"uint256","internalType":"uint256"},{"name":"amountOutMinimum","type":"uint256","internalType":"uint256"}]},{"type":"error","name":"InvalidInitialization","inputs":[]},{"type":"error","name":"InvalidParameter","inputs":[]},{"type":"error","name":"NotForSwap","inputs":[]},{"type":"error","name":"NotForWithdraw","inputs":[]},{"type":"error","name":"NotInitializing","inputs":[]},{"type":"error","name":"OnlyForLendingPool","inputs":[]},{"type":"error","name":"OracleOnTokenNotSet","inputs":[]},{"type":"error","name":"ReentrancyGuardReentrantCall","inputs":[]},{"type":"error","name":"SafeERC20FailedOperation","inputs":[{"name":"token","type":"address","internalType":"address"}]},{"type":"error","name":"SameToken","inputs":[]},{"type":"error","name":"SwapTokenByPositionInvalidParameter","inputs":[{"name":"tokenIn","type":"address","internalType":"address"},{"name":"tokenOut","type":"address","internalType":"address"}]},{"type":"error","name":"TransferFailed","inputs":[]},{"type":"error","name":"UUPSUnauthorizedCallContext","inputs":[]},{"type":"error","name":"UUPSUnsupportedProxiableUUID","inputs":[{"name":"slot","type":"bytes32","internalType":"bytes32"}]},{"type":"error","name":"ZeroAmount","inputs":[]}],"bytecode":{"object":"0x60a06040523073ffffffffffffffffffffffffffffffffffffffff1660809073ffffffffffffffffffffffffffffffffffffffff16815250348015610042575f5ffd5b5061005161005660201b60201c565b6101d1565b5f61006561015460201b60201c565b9050805f0160089054906101000a900460ff16156100af576040517ff92ee8a900000000000000000000000000000000000000000000000000000000815260040160405180910390fd5b67ffffffffffffffff8016815f015f9054906101000a900467ffffffffffffffff1667ffffffffffffffff16146101515767ffffffffffffffff815f015f6101000a81548167ffffffffffffffff021916908367ffffffffffffffff1602179055507fc7f505b2f371ae2175ee4913f4499e1f2633a7b5936321eed1cdaeb6115181d267ffffffffffffffff60405161014891906101b8565b60405180910390a15b50565b5f5f61016461016d60201b60201c565b90508091505090565b5f7ff0c57e16840df040f15088dc2f81fe391c3923bec73e23a9662efc9c229c6a005f1b905090565b5f67ffffffffffffffff82169050919050565b6101b281610196565b82525050565b5f6020820190506101cb5f8301846101a9565b92915050565b608051614a2b6101f75f395f8181612ceb01528181612d400152612f1d0152614a2b5ff3fe6080604052600436106101ba575f3560e01c806361bc221a116100eb578063a217fddf11610089578063d6ebd5e311610063578063d6ebd5e31461073f578063e58378bb1461075b578063f4191e6814610785578063f72c0d8b146107c1576102ec565b8063a217fddf146106c3578063ad3cb1cc146106ed578063d547741f14610717576102ec565b80638610ed1c116100c55780638610ed1c146105f75780638da5cb5b1461063357806391d148541461065d5780639b4dc8cc14610699576102ec565b806361bc221a1461058f5780636f2bb86a146105b95780638456cb59146105e1576102ec565b8063485cc955116101585780634ced4241116101325780634ced4241146104f75780634f1ef2861461051f57806352d1902d1461053b5780635c975abb14610565576102ec565b8063485cc955146104695780634ac8eb5f146104915780634be89371146104bb576102ec565b8063248a9ca311610194578063248a9ca3146103c75780632f2ff15d1461040357806336568abe1461042b5780633f4ba83a14610453576102ec565b806301ffc9a7146103275780630af504cc146103635780631cb928a91461038b576102ec565b366102ec575f341180156101da575060035f9054906101000a900460ff16155b80156102195750600173ffffffffffffffffffffffffffffffffffffffff166102016107eb565b73ffffffffffffffffffffffffffffffffffffffff16145b1561028757610226610865565b73ffffffffffffffffffffffffffffffffffffffff1663d0e30db0346040518263ffffffff1660e01b81526004015f604051808303818588803b15801561026b575f5ffd5b505af115801561027d573d5f5f3e3d5ffd5b50505050506102e9565b5f341180156102a1575060035f9054906101000a900460ff165b6102ea575f3411156102e8576040517f08c379a00000000000000000000000000000000000000000000000000000000081526004016102df90613a63565b60405180910390fd5b5b5b005b6040517f08c379a000000000000000000000000000000000000000000000000000000000815260040161031e90613acb565b60405180910390fd5b348015610332575f5ffd5b5061034d60048036038101906103489190613b4f565b6108df565b60405161035a9190613b94565b60405180910390f35b34801561036e575f5ffd5b5061038960048036038101906103849190613c3a565b610958565b005b348015610396575f5ffd5b506103b160048036038101906103ac9190613c78565b610a16565b6040516103be9190613cb2565b60405180910390f35b3480156103d2575f5ffd5b506103ed60048036038101906103e89190613cfe565b610a46565b6040516103fa9190613d38565b60405180910390f35b34801561040e575f5ffd5b5061042960048036038101906104249190613d51565b610a70565b005b348015610436575f5ffd5b50610451600480360381019061044c9190613d51565b610a92565b005b34801561045e575f5ffd5b50610467610b0d565b005b348015610474575f5ffd5b5061048f600480360381019061048a9190613d8f565b610b42565b005b34801561049c575f5ffd5b506104a5610e8a565b6040516104b29190613ddc565b60405180910390f35b3480156104c6575f5ffd5b506104e160048036038101906104dc9190613df5565b610f9c565b6040516104ee9190613ddc565b60405180910390f35b348015610502575f5ffd5b5061051d60048036038101906105189190613e67565b611024565b005b61053960048036038101906105349190613fce565b61133f565b005b348015610546575f5ffd5b5061054f61135e565b60405161055c9190613d38565b60405180910390f35b348015610570575f5ffd5b5061057961138f565b6040516105869190613b94565b60405180910390f35b34801561059a575f5ffd5b506105a36113b1565b6040516105b09190613ddc565b60405180910390f35b3480156105c4575f5ffd5b506105df60048036038101906105da9190614028565b6113b7565b005b3480156105ec575f5ffd5b506105f56115bc565b005b348015610602575f5ffd5b5061061d60048036038101906106189190613e67565b6115f1565b60405161062a9190613ddc565b60405180910390f35b34801561063e575f5ffd5b5061064761188d565b6040516106549190613cb2565b60405180910390f35b348015610668575f5ffd5b50610683600480360381019061067e9190613d51565b6118b1565b6040516106909190613b94565b60405180910390f35b3480156106a4575f5ffd5b506106ad611922565b6040516106ba9190613cb2565b60405180910390f35b3480156106ce575f5ffd5b506106d7611947565b6040516106e49190613d38565b60405180910390f35b3480156106f8575f5ffd5b5061070161194d565b60405161070e91906140b6565b60405180910390f35b348015610722575f5ffd5b5061073d60048036038101906107389190613d51565b611986565b005b61075960048036038101906107549190613e67565b6119a8565b005b348015610766575f5ffd5b5061076f611cd4565b60405161077c9190613d38565b60405180910390f35b348015610790575f5ffd5b506107ab60048036038101906107a691906140d6565b611cf8565b6040516107b89190613ddc565b60405180910390f35b3480156107cc575f5ffd5b506107d5611d0d565b6040516107e29190613d38565b60405180910390f35b5f6107f4611d31565b73ffffffffffffffffffffffffffffffffffffffff1663b2016bd46040518163ffffffff1660e01b8152600401602060405180830381865afa15801561083c573d5f5f3e3d5ffd5b505050506040513d601f19601f820116820180604052508101906108609190614115565b905090565b5f61086e611dc5565b73ffffffffffffffffffffffffffffffffffffffff1663eb6d3a116040518163ffffffff1660e01b8152600401602060405180830381865afa1580156108b6573d5f5f3e3d5ffd5b505050506040513d601f19601f820116820180604052508101906108da9190614115565b905090565b5f7f7965db0b000000000000000000000000000000000000000000000000000000007bffffffffffffffffffffffffffffffffffffffffffffffffffffffff1916827bffffffffffffffffffffffffffffffffffffffffffffffffffffffff19161480610951575061095082611e3f565b5b9050919050565b610960611ea8565b610968611f30565b610970611f71565b5f82036109a9576040517f1f2a200500000000000000000000000000000000000000000000000000000000815260040160405180910390fd5b6109b38282611f93565b6109bc8161225e565b8073ffffffffffffffffffffffffffffffffffffffff167fa8e76b822fc682be77f3b1c822ea81f6bda5aed92ba82e6873bfd889f328d1d283604051610a029190613ddc565b60405180910390a2610a126122d6565b5050565b6004602052805f5260405f205f915054906101000a900473ffffffffffffffffffffffffffffffffffffffff1681565b5f5f610a506122f0565b9050805f015f8481526020019081526020015f2060010154915050919050565b610a7982610a46565b610a8281612317565b610a8c838361232b565b50505050565b610a9a612423565b73ffffffffffffffffffffffffffffffffffffffff168173ffffffffffffffffffffffffffffffffffffffff1614610afe576040517f6697b23200000000000000000000000000000000000000000000000000000000815260040160405180910390fd5b610b08828261242a565b505050565b7fb19546dff01e856fb3f010c267a7b1c60363cf8a4664e21cc89c26224620214e610b3781612317565b610b3f612522565b50565b5f610b4b612590565b90505f815f0160089054906101000a900460ff161590505f825f015f9054906101000a900467ffffffffffffffff1690505f5f8267ffffffffffffffff16148015610b935750825b90505f60018367ffffffffffffffff16148015610bc657505f3073ffffffffffffffffffffffffffffffffffffffff163b145b905081158015610bd4575080155b15610c0b576040517ff92ee8a900000000000000000000000000000000000000000000000000000000815260040160405180910390fd5b6001855f015f6101000a81548167ffffffffffffffff021916908367ffffffffffffffff1602179055508315610c58576001855f0160086101000a81548160ff0219169083151502179055505b610c606125a3565b610c686125ad565b610c706125b7565b610c786125c1565b8660015f6101000a81548173ffffffffffffffffffffffffffffffffffffffff021916908373ffffffffffffffffffffffffffffffffffffffff160217905550610ccb5f5f1b610cc66125d3565b61232b565b50610cfd7fb19546dff01e856fb3f010c267a7b1c60363cf8a4664e21cc89c26224620214e610cf86125d3565b61232b565b50610d2f7f189ab7a9244df0848122154315af71fe140f3db0fe014031783b0946b8c9d2e3610d2a6125d3565b61232b565b50855f5f6101000a81548173ffffffffffffffffffffffffffffffffffffffff021916908373ffffffffffffffffffffffffffffffffffffffff16021790555060025f8154610d7d9061416d565b91905081905550610d8c6107eb565b60045f60025481526020019081526020015f205f6101000a81548173ffffffffffffffffffffffffffffffffffffffff021916908373ffffffffffffffffffffffffffffffffffffffff16021790555060025460055f610dea6107eb565b73ffffffffffffffffffffffffffffffffffffffff1673ffffffffffffffffffffffffffffffffffffffff1681526020019081526020015f20819055508315610e81575f855f0160086101000a81548160ff0219169083151502179055507fc7f505b2f371ae2175ee4913f4499e1f2633a7b5936321eed1cdaeb6115181d26001604051610e789190614209565b60405180910390a15b50505050505050565b5f5f5f90505f600190505b6002548111610f94575f60045f8381526020019081526020015f205f9054906101000a900473ffffffffffffffffffffffffffffffffffffffff169050610f73610ede8261264d565b610eee610ee96107eb565b61264d565b610ef78461264d565b73ffffffffffffffffffffffffffffffffffffffff166370a08231306040518263ffffffff1660e01b8152600401610f2f9190613cb2565b602060405180830381865afa158015610f4a573d5f5f3e3d5ffd5b505050506040513d601f19601f82011682018060405250810190610f6e9190614236565b610f9c565b83610f7e9190614261565b9250508080610f8c9061416d565b915050610e95565b508091505090565b5f5f610fa78561269a565b90505f610fb38561269a565b90505f610fbf87612756565b90505f610fcb87612756565b90505f84600a610fdb91906143c3565b8285600a610fe991906143c3565b85610ff4919061440d565b610ffe919061447b565b88611009919061440d565b611013919061447b565b905080955050505050509392505050565b61102c611ea8565b611034611f30565b61103c611f71565b61107e33308360400135845f01602081019061105891906140d6565b73ffffffffffffffffffffffffffffffffffffffff166127e6909392919063ffffffff16565b5f6110a6825f01602081019061109491906140d6565b61109c612868565b84604001356128e2565b90505f825f0160208101906110bb91906140d6565b73ffffffffffffffffffffffffffffffffffffffff166370a08231306040518263ffffffff1660e01b81526004016110f39190613cb2565b602060405180830381865afa15801561110e573d5f5f3e3d5ffd5b505050506040513d601f19601f820116820180604052508101906111329190614236565b90508181101561116e576040517ff4d678b800000000000000000000000000000000000000000000000000000000815260040160405180910390fd5b5f6111788461297a565b9050835f01602081019061118c91906140d6565b73ffffffffffffffffffffffffffffffffffffffff1663095ea7b360015f9054906101000a900473ffffffffffffffffffffffffffffffffffffffff16836040518363ffffffff1660e01b81526004016111e79291906144ab565b6020604051808303815f875af1158015611203573d5f5f3e3d5ffd5b505050506040513d601f19601f8201168201806040525081019061122791906144fc565b5061128360015f9054906101000a900473ffffffffffffffffffffffffffffffffffffffff168261125e611259612868565b61264d565b73ffffffffffffffffffffffffffffffffffffffff16612c6a9092919063ffffffff16565b835f01602081019061129591906140d6565b73ffffffffffffffffffffffffffffffffffffffff1663095ea7b360015f9054906101000a900473ffffffffffffffffffffffffffffffffffffffff165f6040518363ffffffff1660e01b81526004016112f0929190614560565b6020604051808303815f875af115801561130c573d5f5f3e3d5ffd5b505050506040513d601f19601f8201168201806040525081019061133091906144fc565b5050505061133c6122d6565b50565b611347612ce9565b61135082612dcf565b61135a8282612dfd565b5050565b5f611367612f1b565b7f360894a13ba1a3210667c828492db98dca3e2076cc3735a920a3ca505d382bbc5f1b905090565b5f5f611399612fa2565b9050805f015f9054906101000a900460ff1691505090565b60025481565b6113bf611ea8565b6113c7611f30565b6113cf611f71565b815f5f6101000a81548173ffffffffffffffffffffffffffffffffffffffff021916908373ffffffffffffffffffffffffffffffffffffffff1602179055505f600190505b60025481116115af575f60045f8381526020019081526020015f205f9054906101000a900473ffffffffffffffffffffffffffffffffffffffff1690505f61145b8261264d565b73ffffffffffffffffffffffffffffffffffffffff166370a08231306040518263ffffffff1660e01b81526004016114939190613cb2565b602060405180830381865afa1580156114ae573d5f5f3e3d5ffd5b505050506040513d601f19601f820116820180604052508101906114d29190614236565b90505f670de0b6b3a764000085670de0b6b3a76400006114f29190614587565b836114fd919061440d565b611507919061447b565b90505f670de0b6b3a7640000868461151f919061440d565b611529919061447b565b905061155e87836115398761264d565b73ffffffffffffffffffffffffffffffffffffffff16612c6a9092919063ffffffff16565b611598611569612fc9565b826115738761264d565b73ffffffffffffffffffffffffffffffffffffffff16612c6a9092919063ffffffff16565b5050505080806115a79061416d565b915050611414565b506115b86122d6565b5050565b7fb19546dff01e856fb3f010c267a7b1c60363cf8a4664e21cc89c26224620214e6115e681612317565b6115ee613043565b50565b5f815f01602081019061160491906140d6565b61160d816130b2565b82602001602081019061162091906140d6565b611629816130b2565b835f01602081019061163b91906140d6565b611644816131a4565b84602001602081019061165791906140d6565b611660816131a4565b611668611ea8565b611670611f30565b611678611f71565b5f8660400135036116b5576040517f1f2a200500000000000000000000000000000000000000000000000000000000815260040160405180910390fd5b8560200160208101906116c891906140d6565b73ffffffffffffffffffffffffffffffffffffffff16865f0160208101906116f091906140d6565b73ffffffffffffffffffffffffffffffffffffffff160361173d576040517f201b580a00000000000000000000000000000000000000000000000000000000815260040160405180910390fd5b8560400135865f01602081019061175491906140d6565b73ffffffffffffffffffffffffffffffffffffffff166370a08231306040518263ffffffff1660e01b815260040161178c9190613cb2565b602060405180830381865afa1580156117a7573d5f5f3e3d5ffd5b505050506040513d601f19601f820116820180604052508101906117cb9190614236565b1015611803576040517ff4d678b800000000000000000000000000000000000000000000000000000000815260040160405180910390fd5b61180b61328a565b6118148661297a565b94507fc665f2f5768a61c064dd66125ac01f65d2f20d35ebb13a292211bf50619d753e33875f01602081019061184a91906140d6565b88602001602081019061185d91906140d6565b8960400135896040516118749594939291906145ba565b60405180910390a16118846122d6565b50505050919050565b5f5f9054906101000a900473ffffffffffffffffffffffffffffffffffffffff1681565b5f5f6118bb6122f0565b9050805f015f8581526020019081526020015f205f015f8473ffffffffffffffffffffffffffffffffffffffff1673ffffffffffffffffffffffffffffffffffffffff1681526020019081526020015f205f9054906101000a900460ff1691505092915050565b60015f9054906101000a900473ffffffffffffffffffffffffffffffffffffffff1681565b5f5f1b81565b6040518060400160405280600581526020017f352e302e3000000000000000000000000000000000000000000000000000000081525081565b61198f82610a46565b61199881612317565b6119a2838361242a565b50505050565b6119b0611ea8565b6119b8611f30565b6119c0611f71565b5f816040013590506119d0612868565b73ffffffffffffffffffffffffffffffffffffffff16825f0160208101906119f891906140d6565b73ffffffffffffffffffffffffffffffffffffffff1614611b11575f611a3b835f016020810190611a2991906140d6565b611a31612868565b85604001356128e2565b90505f835f016020810190611a5091906140d6565b73ffffffffffffffffffffffffffffffffffffffff166370a08231306040518263ffffffff1660e01b8152600401611a889190613cb2565b602060405180830381865afa158015611aa3573d5f5f3e3d5ffd5b505050506040513d601f19601f82011682018060405250810190611ac79190614236565b905081811015611b03576040517ff4d678b800000000000000000000000000000000000000000000000000000000815260040160405180910390fd5b611b0c8461297a565b925050505b815f016020810190611b2391906140d6565b73ffffffffffffffffffffffffffffffffffffffff1663095ea7b360015f9054906101000a900473ffffffffffffffffffffffffffffffffffffffff16836040518363ffffffff1660e01b8152600401611b7e9291906144ab565b6020604051808303815f875af1158015611b9a573d5f5f3e3d5ffd5b505050506040513d601f19601f82011682018060405250810190611bbe91906144fc565b50611c1a60015f9054906101000a900473ffffffffffffffffffffffffffffffffffffffff1682611bf5611bf0612868565b61264d565b73ffffffffffffffffffffffffffffffffffffffff16612c6a9092919063ffffffff16565b815f016020810190611c2c91906140d6565b73ffffffffffffffffffffffffffffffffffffffff1663095ea7b360015f9054906101000a900473ffffffffffffffffffffffffffffffffffffffff165f6040518363ffffffff1660e01b8152600401611c87929190614560565b6020604051808303815f875af1158015611ca3573d5f5f3e3d5ffd5b505050506040513d601f19601f82011682018060405250810190611cc791906144fc565b5050611cd16122d6565b50565b7fb19546dff01e856fb3f010c267a7b1c60363cf8a4664e21cc89c26224620214e81565b6005602052805f5260405f205f915090505481565b7f189ab7a9244df0848122154315af71fe140f3db0fe014031783b0946b8c9d2e381565b5f60015f9054906101000a900473ffffffffffffffffffffffffffffffffffffffff1673ffffffffffffffffffffffffffffffffffffffff1663f887ea406040518163ffffffff1660e01b8152600401602060405180830381865afa158015611d9c573d5f5f3e3d5ffd5b505050506040513d601f19601f82011682018060405250810190611dc09190614115565b905090565b5f611dce611d31565b73ffffffffffffffffffffffffffffffffffffffff1663c45a01556040518163ffffffff1660e01b8152600401602060405180830381865afa158015611e16573d5f5f3e3d5ffd5b505050506040513d601f19601f82011682018060405250810190611e3a9190614115565b905090565b5f7f01ffc9a7000000000000000000000000000000000000000000000000000000007bffffffffffffffffffffffffffffffffffffffffffffffffffffffff1916827bffffffffffffffffffffffffffffffffffffffffffffffffffffffff1916149050919050565b60015f9054906101000a900473ffffffffffffffffffffffffffffffffffffffff1673ffffffffffffffffffffffffffffffffffffffff163373ffffffffffffffffffffffffffffffffffffffff1614611f2e576040517f453c3e9d00000000000000000000000000000000000000000000000000000000815260040160405180910390fd5b565b611f3861138f565b15611f6f576040517fd93c066500000000000000000000000000000000000000000000000000000000815260040160405180910390fd5b565b611f796132ee565b6002611f8b611f8661332f565b613358565b5f0181905550565b600173ffffffffffffffffffffffffffffffffffffffff16611fb36107eb565b73ffffffffffffffffffffffffffffffffffffffff160361222757600160035f6101000a81548160ff021916908315150217905550611ff0610865565b73ffffffffffffffffffffffffffffffffffffffff1663095ea7b3612013610865565b846040518363ffffffff1660e01b81526004016120319291906144ab565b6020604051808303815f875af115801561204d573d5f5f3e3d5ffd5b505050506040513d601f19601f8201168201806040525081019061207191906144fc565b5061207a610865565b73ffffffffffffffffffffffffffffffffffffffff16632e1a7d4d836040518263ffffffff1660e01b81526004016120b29190613ddc565b5f604051808303815f87803b1580156120c9575f5ffd5b505af11580156120db573d5f5f3e3d5ffd5b505050505f8173ffffffffffffffffffffffffffffffffffffffff168360405161210490614638565b5f6040518083038185875af1925050503d805f811461213e576040519150601f19603f3d011682016040523d82523d5f602084013e612143565b606091505b505090508061217e576040517f90b8ec1800000000000000000000000000000000000000000000000000000000815260040160405180910390fd5b612186610865565b73ffffffffffffffffffffffffffffffffffffffff1663095ea7b36121a9610865565b5f6040518363ffffffff1660e01b81526004016121c7929190614560565b6020604051808303815f875af11580156121e3573d5f5f3e3d5ffd5b505050506040513d601f19601f8201168201806040525081019061220791906144fc565b505f60035f6101000a81548160ff0219169083151502179055505061225a565b61225981836122346107eb565b73ffffffffffffffffffffffffffffffffffffffff16612c6a9092919063ffffffff16565b5b5050565b612266613361565b73ffffffffffffffffffffffffffffffffffffffff1663d3a658058261228a611d31565b6040518363ffffffff1660e01b81526004016122a792919061464c565b5f6040518083038186803b1580156122bd575f5ffd5b505afa1580156122cf573d5f5f3e3d5ffd5b5050505050565b60016122e86122e361332f565b613358565b5f0181905550565b5f7f02dd7bc7dec4dceedda775e58dd541e08a116c6c53815c0bd028192f7b626800905090565b61232881612323612423565b6133db565b50565b5f5f6123356122f0565b905061234184846118b1565b612418576001815f015f8681526020019081526020015f205f015f8573ffffffffffffffffffffffffffffffffffffffff1673ffffffffffffffffffffffffffffffffffffffff1681526020019081526020015f205f6101000a81548160ff0219169083151502179055506123b4612423565b73ffffffffffffffffffffffffffffffffffffffff168373ffffffffffffffffffffffffffffffffffffffff16857f2f8788117e7eff1d82e926ec794901d17c78024a50270940304540a733656f0d60405160405180910390a4600191505061241d565b5f9150505b92915050565b5f33905090565b5f5f6124346122f0565b905061244084846118b1565b15612517575f815f015f8681526020019081526020015f205f015f8573ffffffffffffffffffffffffffffffffffffffff1673ffffffffffffffffffffffffffffffffffffffff1681526020019081526020015f205f6101000a81548160ff0219169083151502179055506124b3612423565b73ffffffffffffffffffffffffffffffffffffffff168373ffffffffffffffffffffffffffffffffffffffff16857ff6391f5c32d9c69d2a47ea670b442974b53935d1edc7fd64eb21e047a839171b60405160405180910390a4600191505061251c565b5f9150505b92915050565b61252a61342c565b5f612533612fa2565b90505f815f015f6101000a81548160ff0219169083151502179055507f5db9ee0a495bf2e6ff9c91a7834c1ba4fdd244a5e8aa4e537bd38aeae4b073aa612578612423565b6040516125859190613cb2565b60405180910390a150565b5f5f61259a61346c565b90508091505090565b6125ab613495565b565b6125b5613495565b565b6125bf613495565b565b6125c9613495565b6125d16134d5565b565b5f6125dc611dc5565b73ffffffffffffffffffffffffffffffffffffffff16638da5cb5b6040518163ffffffff1660e01b8152600401602060405180830381865afa158015612624573d5f5f3e3d5ffd5b505050506040513d601f19601f820116820180604052508101906126489190614115565b905090565b5f600173ffffffffffffffffffffffffffffffffffffffff168273ffffffffffffffffffffffffffffffffffffffff16036126915761268a610865565b9050612695565b8190505b919050565b5f6126a3610865565b73ffffffffffffffffffffffffffffffffffffffff168273ffffffffffffffffffffffffffffffffffffffff16036126de5760129050612751565b8173ffffffffffffffffffffffffffffffffffffffff1663313ce5676040518163ffffffff1660e01b8152600401602060405180830381865afa158015612727573d5f5f3e3d5ffd5b505050506040513d601f19601f8201168201806040525081019061274b91906146a9565b60ff1690505b919050565b5f5f6127606134f7565b73ffffffffffffffffffffffffffffffffffffffff1663a13cc76a846040518263ffffffff1660e01b81526004016127989190613cb2565b60a060405180830381865afa1580156127b3573d5f5f3e3d5ffd5b505050506040513d601f19601f820116820180604052508101906127d79190614713565b50505091505080915050919050565b612862848573ffffffffffffffffffffffffffffffffffffffff166323b872dd86868660405160240161281b9392919061478a565b604051602081830303815290604052915060e01b6020820180517bffffffffffffffffffffffffffffffffffffffffffffffffffffffff8381831617835250505050613571565b50505050565b5f612871611d31565b73ffffffffffffffffffffffffffffffffffffffff1663456dc17a6040518163ffffffff1660e01b8152600401602060405180830381865afa1580156128b9573d5f5f3e3d5ffd5b505050506040513d601f19601f820116820180604052508101906128dd9190614115565b905090565b5f5f6128ed84612756565b90505f6128f986612756565b90505f61290d6129088761264d565b61269a565b90505f61292161291c8961264d565b61269a565b90505f82600a61293191906143c3565b8461293c919061440d565b82600a61294991906143c3565b8689612955919061440d565b61295f919061440d565b612969919061447b565b905080955050505050509392505050565b5f815f01602081019061298d91906140d6565b73ffffffffffffffffffffffffffffffffffffffff1663095ea7b36129b061360c565b84604001356040518363ffffffff1660e01b81526004016129d29291906144ab565b6020604051808303815f875af11580156129ee573d5f5f3e3d5ffd5b505050506040513d601f19601f82011682018060405250810190612a1291906144fc565b505f604051806101000160405280845f016020810190612a3291906140d6565b73ffffffffffffffffffffffffffffffffffffffff168152602001612a68856020016020810190612a6391906140d6565b61264d565b73ffffffffffffffffffffffffffffffffffffffff168152602001846080016020810190612a9691906147f7565b62ffffff1681526020013073ffffffffffffffffffffffffffffffffffffffff16815260200161012c42612aca9190614261565b815260200184604001358152602001846060013581526020015f73ffffffffffffffffffffffffffffffffffffffff168152509050612b0761360c565b73ffffffffffffffffffffffffffffffffffffffff1663414bf389826040518263ffffffff1660e01b8152600401612b3f91906148fe565b6020604051808303815f875af1158015612b5b573d5f5f3e3d5ffd5b505050506040513d601f19601f82011682018060405250810190612b7f9190614236565b91508260600135821015612bd0578183606001356040517fd28d3eb5000000000000000000000000000000000000000000000000000000008152600401612bc7929190614918565b60405180910390fd5b825f016020810190612be291906140d6565b73ffffffffffffffffffffffffffffffffffffffff1663095ea7b3612c0561360c565b5f6040518363ffffffff1660e01b8152600401612c23929190614560565b6020604051808303815f875af1158015612c3f573d5f5f3e3d5ffd5b505050506040513d601f19601f82011682018060405250810190612c6391906144fc565b5050919050565b612ce4838473ffffffffffffffffffffffffffffffffffffffff1663a9059cbb8585604051602401612c9d9291906144ab565b604051602081830303815290604052915060e01b6020820180517bffffffffffffffffffffffffffffffffffffffffffffffffffffffff8381831617835250505050613571565b505050565b7f000000000000000000000000000000000000000000000000000000000000000073ffffffffffffffffffffffffffffffffffffffff163073ffffffffffffffffffffffffffffffffffffffff161480612d9657507f000000000000000000000000000000000000000000000000000000000000000073ffffffffffffffffffffffffffffffffffffffff16612d7d613686565b73ffffffffffffffffffffffffffffffffffffffff1614155b15612dcd576040517fe07c8dba00000000000000000000000000000000000000000000000000000000815260040160405180910390fd5b565b7f189ab7a9244df0848122154315af71fe140f3db0fe014031783b0946b8c9d2e3612df981612317565b5050565b8173ffffffffffffffffffffffffffffffffffffffff166352d1902d6040518163ffffffff1660e01b8152600401602060405180830381865afa925050508015612e6557506040513d601f19601f82011682018060405250810190612e629190614953565b60015b612ea657816040517f4c9c8ce3000000000000000000000000000000000000000000000000000000008152600401612e9d9190613cb2565b60405180910390fd5b7f360894a13ba1a3210667c828492db98dca3e2076cc3735a920a3ca505d382bbc5f1b8114612f0c57806040517faa1d49a4000000000000000000000000000000000000000000000000000000008152600401612f039190613d38565b60405180910390fd5b612f1683836136d9565b505050565b7f000000000000000000000000000000000000000000000000000000000000000073ffffffffffffffffffffffffffffffffffffffff163073ffffffffffffffffffffffffffffffffffffffff1614612fa0576040517fe07c8dba00000000000000000000000000000000000000000000000000000000815260040160405180910390fd5b565b5f7fcd5ed15c6e187e77e9aee88184c21f4f2182ab5827cb3b7e07fbedcd63f03300905090565b5f612fd2611dc5565b73ffffffffffffffffffffffffffffffffffffffff16638ce744266040518163ffffffff1660e01b8152600401602060405180830381865afa15801561301a573d5f5f3e3d5ffd5b505050506040513d601f19601f8201168201806040525081019061303e9190614115565b905090565b61304b611f30565b5f613054612fa2565b90506001815f015f6101000a81548160ff0219169083151502179055507f62e78cea01bee320cd4e420270b5ea74000d11b0c9f74754ebdbfc544b05a25861309a612423565b6040516130a79190613cb2565b60405180910390a150565b5f60055f8373ffffffffffffffffffffffffffffffffffffffff1673ffffffffffffffffffffffffffffffffffffffff1681526020019081526020015f2054036131a15760025f81546131049061416d565b919050819055508060045f60025481526020019081526020015f205f6101000a81548173ffffffffffffffffffffffffffffffffffffffff021916908373ffffffffffffffffffffffffffffffffffffffff16021790555060025460055f8373ffffffffffffffffffffffffffffffffffffffff1673ffffffffffffffffffffffffffffffffffffffff1681526020019081526020015f20819055505b50565b5f73ffffffffffffffffffffffffffffffffffffffff166131c36134f7565b73ffffffffffffffffffffffffffffffffffffffff16639878cbb3836040518263ffffffff1660e01b81526004016131fb9190613cb2565b602060405180830381865afa158015613216573d5f5f3e3d5ffd5b505050506040513d601f19601f8201168201806040525081019061323a9190614115565b73ffffffffffffffffffffffffffffffffffffffff1603613287576040517f7804b78f00000000000000000000000000000000000000000000000000000000815260040160405180910390fd5b50565b613292611d31565b73ffffffffffffffffffffffffffffffffffffffff1663a6afed956040518163ffffffff1660e01b81526004015f604051808303815f87803b1580156132d6575f5ffd5b505af11580156132e8573d5f5f3e3d5ffd5b50505050565b6132f661374b565b1561332d576040517f3ee5aeb500000000000000000000000000000000000000000000000000000000815260040160405180910390fd5b565b5f7f9b779b17422d0df92223018b32b4d1fa46e071723d6817e2486d003becc55f005f1b905090565b5f819050919050565b5f61336a611dc5565b73ffffffffffffffffffffffffffffffffffffffff1663e40208046040518163ffffffff1660e01b8152600401602060405180830381865afa1580156133b2573d5f5f3e3d5ffd5b505050506040513d601f19601f820116820180604052508101906133d69190614115565b905090565b6133e582826118b1565b6134285780826040517fe2517d3f00000000000000000000000000000000000000000000000000000000815260040161341f92919061497e565b60405180910390fd5b5050565b61343461138f565b61346a576040517f8dfc202b00000000000000000000000000000000000000000000000000000000815260040160405180910390fd5b565b5f7ff0c57e16840df040f15088dc2f81fe391c3923bec73e23a9662efc9c229c6a005f1b905090565b61349d613767565b6134d3576040517fd7e6bcf800000000000000000000000000000000000000000000000000000000815260040160405180910390fd5b565b6134dd613495565b60016134ef6134ea61332f565b613358565b5f0181905550565b5f613500611dc5565b73ffffffffffffffffffffffffffffffffffffffff166375b568a66040518163ffffffff1660e01b8152600401602060405180830381865afa158015613548573d5f5f3e3d5ffd5b505050506040513d601f19601f8201168201806040525081019061356c9190614115565b905090565b5f5f60205f8451602086015f885af180613590576040513d5f823e3d81fd5b3d92505f519150505f82146135a95760018114156135c4565b5f8473ffffffffffffffffffffffffffffffffffffffff163b145b1561360657836040517f5274afe70000000000000000000000000000000000000000000000000000000081526004016135fd9190613cb2565b60405180910390fd5b50505050565b5f613615611dc5565b73ffffffffffffffffffffffffffffffffffffffff16630758d9246040518163ffffffff1660e01b8152600401602060405180830381865afa15801561365d573d5f5f3e3d5ffd5b505050506040513d601f19601f820116820180604052508101906136819190614115565b905090565b5f6136b27f360894a13ba1a3210667c828492db98dca3e2076cc3735a920a3ca505d382bbc5f1b613785565b5f015f9054906101000a900473ffffffffffffffffffffffffffffffffffffffff16905090565b6136e28261378e565b8173ffffffffffffffffffffffffffffffffffffffff167fbc7cd75a20ee27fd9adebab32041f755214dbc6bffa90cc0225b39da2e5c2d3b60405160405180910390a25f8151111561373e576137388282613857565b50613747565b6137466138d7565b5b5050565b5f600261375e61375961332f565b613358565b5f015414905090565b5f613770612590565b5f0160089054906101000a900460ff16905090565b5f819050919050565b5f8173ffffffffffffffffffffffffffffffffffffffff163b036137e957806040517f4c9c8ce30000000000000000000000000000000000000000000000000000000081526004016137e09190613cb2565b60405180910390fd5b806138157f360894a13ba1a3210667c828492db98dca3e2076cc3735a920a3ca505d382bbc5f1b613785565b5f015f6101000a81548173ffffffffffffffffffffffffffffffffffffffff021916908373ffffffffffffffffffffffffffffffffffffffff16021790555050565b60605f5f8473ffffffffffffffffffffffffffffffffffffffff168460405161388091906149df565b5f60405180830381855af49150503d805f81146138b8576040519150601f19603f3d011682016040523d82523d5f602084013e6138bd565b606091505b50915091506138cd858383613913565b9250505092915050565b5f341115613911576040517fb398979f00000000000000000000000000000000000000000000000000000000815260040160405180910390fd5b565b60608261392857613923826139a0565b613998565b5f825114801561394e57505f8473ffffffffffffffffffffffffffffffffffffffff163b145b1561399057836040517f9996b3150000000000000000000000000000000000000000000000000000000081526004016139879190613cb2565b60405180910390fd5b819050613999565b5b9392505050565b5f815111156139b157805160208201fd5b6040517fd6bda27500000000000000000000000000000000000000000000000000000000815260040160405180910390fd5b5f82825260208201905092915050565b7f506f736974696f6e20646f6573206e6f742068616e646c65206e6174697665205f8201527f746f6b656e730000000000000000000000000000000000000000000000000000602082015250565b5f613a4d6026836139e3565b9150613a58826139f3565b604082019050919050565b5f6020820190508181035f830152613a7a81613a41565b9050919050565b7f46616c6c6261636b206e6f7420616c6c6f7765640000000000000000000000005f82015250565b5f613ab56014836139e3565b9150613ac082613a81565b602082019050919050565b5f6020820190508181035f830152613ae281613aa9565b9050919050565b5f604051905090565b5f5ffd5b5f5ffd5b5f7fffffffff0000000000000000000000000000000000000000000000000000000082169050919050565b613b2e81613afa565b8114613b38575f5ffd5b50565b5f81359050613b4981613b25565b92915050565b5f60208284031215613b6457613b63613af2565b5b5f613b7184828501613b3b565b91505092915050565b5f8115159050919050565b613b8e81613b7a565b82525050565b5f602082019050613ba75f830184613b85565b92915050565b5f819050919050565b613bbf81613bad565b8114613bc9575f5ffd5b50565b5f81359050613bda81613bb6565b92915050565b5f73ffffffffffffffffffffffffffffffffffffffff82169050919050565b5f613c0982613be0565b9050919050565b613c1981613bff565b8114613c23575f5ffd5b50565b5f81359050613c3481613c10565b92915050565b5f5f60408385031215613c5057613c4f613af2565b5b5f613c5d85828601613bcc565b9250506020613c6e85828601613c26565b9150509250929050565b5f60208284031215613c8d57613c8c613af2565b5b5f613c9a84828501613bcc565b91505092915050565b613cac81613bff565b82525050565b5f602082019050613cc55f830184613ca3565b92915050565b5f819050919050565b613cdd81613ccb565b8114613ce7575f5ffd5b50565b5f81359050613cf881613cd4565b92915050565b5f60208284031215613d1357613d12613af2565b5b5f613d2084828501613cea565b91505092915050565b613d3281613ccb565b82525050565b5f602082019050613d4b5f830184613d29565b92915050565b5f5f60408385031215613d6757613d66613af2565b5b5f613d7485828601613cea565b9250506020613d8585828601613c26565b9150509250929050565b5f5f60408385031215613da557613da4613af2565b5b5f613db285828601613c26565b9250506020613dc385828601613c26565b9150509250929050565b613dd681613bad565b82525050565b5f602082019050613def5f830184613dcd565b92915050565b5f5f5f60608486031215613e0c57613e0b613af2565b5b5f613e1986828701613c26565b9350506020613e2a86828701613c26565b9250506040613e3b86828701613bcc565b9150509250925092565b5f5ffd5b5f60a08284031215613e5e57613e5d613e45565b5b81905092915050565b5f60a08284031215613e7c57613e7b613af2565b5b5f613e8984828501613e49565b91505092915050565b5f5ffd5b5f5ffd5b5f601f19601f8301169050919050565b7f4e487b71000000000000000000000000000000000000000000000000000000005f52604160045260245ffd5b613ee082613e9a565b810181811067ffffffffffffffff82111715613eff57613efe613eaa565b5b80604052505050565b5f613f11613ae9565b9050613f1d8282613ed7565b919050565b5f67ffffffffffffffff821115613f3c57613f3b613eaa565b5b613f4582613e9a565b9050602081019050919050565b828183375f83830152505050565b5f613f72613f6d84613f22565b613f08565b905082815260208101848484011115613f8e57613f8d613e96565b5b613f99848285613f52565b509392505050565b5f82601f830112613fb557613fb4613e92565b5b8135613fc5848260208601613f60565b91505092915050565b5f5f60408385031215613fe457613fe3613af2565b5b5f613ff185828601613c26565b925050602083013567ffffffffffffffff81111561401257614011613af6565b5b61401e85828601613fa1565b9150509250929050565b5f5f6040838503121561403e5761403d613af2565b5b5f61404b85828601613c26565b925050602061405c85828601613bcc565b9150509250929050565b5f81519050919050565b8281835e5f83830152505050565b5f61408882614066565b61409281856139e3565b93506140a2818560208601614070565b6140ab81613e9a565b840191505092915050565b5f6020820190508181035f8301526140ce818461407e565b905092915050565b5f602082840312156140eb576140ea613af2565b5b5f6140f884828501613c26565b91505092915050565b5f8151905061410f81613c10565b92915050565b5f6020828403121561412a57614129613af2565b5b5f61413784828501614101565b91505092915050565b7f4e487b71000000000000000000000000000000000000000000000000000000005f52601160045260245ffd5b5f61417782613bad565b91507fffffffffffffffffffffffffffffffffffffffffffffffffffffffffffffffff82036141a9576141a8614140565b5b600182019050919050565b5f819050919050565b5f67ffffffffffffffff82169050919050565b5f819050919050565b5f6141f36141ee6141e9846141b4565b6141d0565b6141bd565b9050919050565b614203816141d9565b82525050565b5f60208201905061421c5f8301846141fa565b92915050565b5f8151905061423081613bb6565b92915050565b5f6020828403121561424b5761424a613af2565b5b5f61425884828501614222565b91505092915050565b5f61426b82613bad565b915061427683613bad565b925082820190508082111561428e5761428d614140565b5b92915050565b5f8160011c9050919050565b5f5f8291508390505b60018511156142e9578086048111156142c5576142c4614140565b5b60018516156142d45780820291505b80810290506142e285614294565b94506142a9565b94509492505050565b5f8261430157600190506143bc565b8161430e575f90506143bc565b8160018114614324576002811461432e5761435d565b60019150506143bc565b60ff8411156143405761433f614140565b5b8360020a91508482111561435757614356614140565b5b506143bc565b5060208310610133831016604e8410600b84101617156143925782820a90508381111561438d5761438c614140565b5b6143bc565b61439f84848460016142a0565b925090508184048111156143b6576143b5614140565b5b81810290505b9392505050565b5f6143cd82613bad565b91506143d883613bad565b92506144057fffffffffffffffffffffffffffffffffffffffffffffffffffffffffffffffff84846142f2565b905092915050565b5f61441782613bad565b915061442283613bad565b925082820261443081613bad565b9150828204841483151761444757614446614140565b5b5092915050565b7f4e487b71000000000000000000000000000000000000000000000000000000005f52601260045260245ffd5b5f61448582613bad565b915061449083613bad565b9250826144a05761449f61444e565b5b828204905092915050565b5f6040820190506144be5f830185613ca3565b6144cb6020830184613dcd565b9392505050565b6144db81613b7a565b81146144e5575f5ffd5b50565b5f815190506144f6816144d2565b92915050565b5f6020828403121561451157614510613af2565b5b5f61451e848285016144e8565b91505092915050565b5f819050919050565b5f61454a61454561454084614527565b6141d0565b613bad565b9050919050565b61455a81614530565b82525050565b5f6040820190506145735f830185613ca3565b6145806020830184614551565b9392505050565b5f61459182613bad565b915061459c83613bad565b92508282039050818111156145b4576145b3614140565b5b92915050565b5f60a0820190506145cd5f830188613ca3565b6145da6020830187613ca3565b6145e76040830186613ca3565b6145f46060830185613dcd565b6146016080830184613dcd565b9695505050505050565b5f81905092915050565b50565b5f6146235f8361460b565b915061462e82614615565b5f82019050919050565b5f61464282614618565b9150819050919050565b5f60408201905061465f5f830185613ca3565b61466c6020830184613ca3565b9392505050565b5f60ff82169050919050565b61468881614673565b8114614692575f5ffd5b50565b5f815190506146a38161467f565b92915050565b5f602082840312156146be576146bd613af2565b5b5f6146cb84828501614695565b91505092915050565b5f69ffffffffffffffffffff82169050919050565b6146f2816146d4565b81146146fc575f5ffd5b50565b5f8151905061470d816146e9565b92915050565b5f5f5f5f5f60a0868803121561472c5761472b613af2565b5b5f614739888289016146ff565b955050602061474a88828901614222565b945050604061475b88828901614222565b935050606061476c88828901614222565b925050608061477d888289016146ff565b9150509295509295909350565b5f60608201905061479d5f830186613ca3565b6147aa6020830185613ca3565b6147b76040830184613dcd565b949350505050565b5f62ffffff82169050919050565b6147d6816147bf565b81146147e0575f5ffd5b50565b5f813590506147f1816147cd565b92915050565b5f6020828403121561480c5761480b613af2565b5b5f614819848285016147e3565b91505092915050565b61482b81613bff565b82525050565b61483a816147bf565b82525050565b61484981613bad565b82525050565b61485881613be0565b82525050565b61010082015f8201516148735f850182614822565b5060208201516148866020850182614822565b5060408201516148996040850182614831565b5060608201516148ac6060850182614822565b5060808201516148bf6080850182614840565b5060a08201516148d260a0850182614840565b5060c08201516148e560c0850182614840565b5060e08201516148f860e085018261484f565b50505050565b5f610100820190506149125f83018461485e565b92915050565b5f60408201905061492b5f830185613dcd565b6149386020830184613dcd565b9392505050565b5f8151905061494d81613cd4565b92915050565b5f6020828403121561496857614967613af2565b5b5f6149758482850161493f565b91505092915050565b5f6040820190506149915f830185613ca3565b61499e6020830184613d29565b9392505050565b5f81519050919050565b5f6149b9826149a5565b6149c3818561460b565b93506149d3818560208601614070565b80840191505092915050565b5f6149ea82846149af565b91508190509291505056fea2646970667358221220036cce7d20a2555c7f20388900ae56db8640119eded0fd5cbcf843612e7ab8ab64736f6c634300081e0033","linkReferences":{}},"methodIdentifiers":{"DEFAULT_ADMIN_ROLE()":"a217fddf","OWNER_ROLE()":"e58378bb","UPGRADER_ROLE()":"f72c0d8b","UPGRADE_INTERFACE_VERSION()":"ad3cb1cc","_tokenCalculator(address,address,uint256)":"4be89371","counter()":"61bc221a","getRoleAdmin(bytes32)":"248a9ca3","grantRole(bytes32,address)":"2f2ff15d","hasRole(bytes32,address)":"91d14854","initialize(address,address)":"485cc955","liquidation(address,uint256)":"6f2bb86a","lpAddress()":"9b4dc8cc","owner()":"8da5cb5b","pause()":"8456cb59","paused()":"5c975abb","proxiableUUID()":"52d1902d","renounceRole(bytes32,address)":"36568abe","repayWithSelectedToken((address,address,uint256,uint256,uint24))":"d6ebd5e3","revokeRole(bytes32,address)":"d547741f","supportsInterface(bytes4)":"01ffc9a7","swapTokenByPosition((address,address,uint256,uint256,uint24))":"8610ed1c","swapTokenToBorrow((address,address,uint256,uint256,uint24))":"4ced4241","tokenLists(uint256)":"1cb928a9","tokenListsId(address)":"f4191e68","totalCollateral()":"4ac8eb5f","unpause()":"3f4ba83a","upgradeToAndCall(address,bytes)":"4f1ef286","withdrawCollateral(uint256,address)":"0af504cc"},"id":173}