{"abi":[{"type":"constructor","inputs":[],"stateMutability":"nonpayable"},{"type":"function","name":"DEFAULT_ADMIN_ROLE","inputs":[],"outputs":[{"name":"","type":"bytes32","internalType":"bytes32"}],"stateMutability":"view"},{"type":"function","name":"OWNER_ROLE","inputs":[],"outputs":[{"name":"","type":"bytes32","internalType":"bytes32"}],"stateMutability":"view"},{"type":"function","name":"UPGRADER_ROLE","inputs":[],"outputs":[{"name":"","type":"bytes32","internalType":"bytes32"}],"stateMutability":"view"},{"type":"function","name":"UPGRADE_INTERFACE_VERSION","inputs":[],"outputs":[{"name":"","type":"string","internalType":"string"}],"stateMutability":"view"},{"type":"function","name":"checkLiquidatable","inputs":[{"name":"user","type":"address","internalType":"address"},{"name":"lendingPool","type":"address","internalType":"address"}],"outputs":[{"name":"","type":"bool","internalType":"bool"},{"name":"","type":"uint256","internalType":"uint256"},{"name":"","type":"uint256","internalType":"uint256"},{"name":"","type":"uint256","internalType":"uint256"}],"stateMutability":"view"},{"type":"function","name":"factory","inputs":[],"outputs":[{"name":"","type":"address","internalType":"address"}],"stateMutability":"view"},{"type":"function","name":"getRoleAdmin","inputs":[{"name":"role","type":"bytes32","internalType":"bytes32"}],"outputs":[{"name":"","type":"bytes32","internalType":"bytes32"}],"stateMutability":"view"},{"type":"function","name":"grantRole","inputs":[{"name":"role","type":"bytes32","internalType":"bytes32"},{"name":"account","type":"address","internalType":"address"}],"outputs":[],"stateMutability":"nonpayable"},{"type":"function","name":"hasRole","inputs":[{"name":"role","type":"bytes32","internalType":"bytes32"},{"name":"account","type":"address","internalType":"address"}],"outputs":[{"name":"","type":"bool","internalType":"bool"}],"stateMutability":"view"},{"type":"function","name":"initialize","inputs":[],"outputs":[],"stateMutability":"nonpayable"},{"type":"function","name":"isHealthy","inputs":[{"name":"_user","type":"address","internalType":"address"},{"name":"_router","type":"address","internalType":"address"}],"outputs":[],"stateMutability":"view"},{"type":"function","name":"liquidationBonus","inputs":[{"name":"","type":"address","internalType":"address"}],"outputs":[{"name":"","type":"uint256","internalType":"uint256"}],"stateMutability":"view"},{"type":"function","name":"liquidationThreshold","inputs":[{"name":"","type":"address","internalType":"address"}],"outputs":[{"name":"","type":"uint256","internalType":"uint256"}],"stateMutability":"view"},{"type":"function","name":"paused","inputs":[],"outputs":[{"name":"","type":"bool","internalType":"bool"}],"stateMutability":"view"},{"type":"function","name":"proxiableUUID","inputs":[],"outputs":[{"name":"","type":"bytes32","internalType":"bytes32"}],"stateMutability":"view"},{"type":"function","name":"renounceRole","inputs":[{"name":"role","type":"bytes32","internalType":"bytes32"},{"name":"callerConfirmation","type":"address","internalType":"address"}],"outputs":[],"stateMutability":"nonpayable"},{"type":"function","name":"revokeRole","inputs":[{"name":"role","type":"bytes32","internalType":"bytes32"},{"name":"account","type":"address","internalType":"address"}],"outputs":[],"stateMutability":"nonpayable"},{"type":"function","name":"setFactory","inputs":[{"name":"_factory","type":"address","internalType":"address"}],"outputs":[],"stateMutability":"nonpayable"},{"type":"function","name":"setLiquidationBonus","inputs":[{"name":"_router","type":"address","internalType":"address"},{"name":"bonus","type":"uint256","internalType":"uint256"}],"outputs":[],"stateMutability":"nonpayable"},{"type":"function","name":"setLiquidationThreshold","inputs":[{"name":"_router","type":"address","internalType":"address"},{"name":"_threshold","type":"uint256","internalType":"uint256"}],"outputs":[],"stateMutability":"nonpayable"},{"type":"function","name":"supportsInterface","inputs":[{"name":"interfaceId","type":"bytes4","internalType":"bytes4"}],"outputs":[{"name":"","type":"bool","internalType":"bool"}],"stateMutability":"view"},{"type":"function","name":"upgradeToAndCall","inputs":[{"name":"newImplementation","type":"address","internalType":"address"},{"name":"data","type":"bytes","internalType":"bytes"}],"outputs":[],"stateMutability":"payable"},{"type":"event","name":"FactorySet","inputs":[{"name":"factory","type":"address","indexed":false,"internalType":"address"}],"anonymous":false},{"type":"event","name":"Initialized","inputs":[{"name":"version","type":"uint64","indexed":false,"internalType":"uint64"}],"anonymous":false},{"type":"event","name":"LiquidationBonusSet","inputs":[{"name":"lendingPool","type":"address","indexed":false,"internalType":"address"},{"name":"bonus","type":"uint256","indexed":false,"internalType":"uint256"}],"anonymous":false},{"type":"event","name":"LiquidationThresholdSet","inputs":[{"name":"lendingPool","type":"address","indexed":false,"internalType":"address"},{"name":"threshold","type":"uint256","indexed":false,"internalType":"uint256"}],"anonymous":false},{"type":"event","name":"MaxLiquidationPercentageSet","inputs":[{"name":"percentage","type":"uint256","indexed":false,"internalType":"uint256"}],"anonymous":false},{"type":"event","name":"Paused","inputs":[{"name":"account","type":"address","indexed":false,"internalType":"address"}],"anonymous":false},{"type":"event","name":"RoleAdminChanged","inputs":[{"name":"role","type":"bytes32","indexed":true,"internalType":"bytes32"},{"name":"previousAdminRole","type":"bytes32","indexed":true,"internalType":"bytes32"},{"name":"newAdminRole","type":"bytes32","indexed":true,"internalType":"bytes32"}],"anonymous":false},{"type":"event","name":"RoleGranted","inputs":[{"name":"role","type":"bytes32","indexed":true,"internalType":"bytes32"},{"name":"account","type":"address","indexed":true,"internalType":"address"},{"name":"sender","type":"address","indexed":true,"internalType":"address"}],"anonymous":false},{"type":"event","name":"RoleRevoked","inputs":[{"name":"role","type":"bytes32","indexed":true,"internalType":"bytes32"},{"name":"account","type":"address","indexed":true,"internalType":"address"},{"name":"sender","type":"address","indexed":true,"internalType":"address"}],"anonymous":false},{"type":"event","name":"Unpaused","inputs":[{"name":"account","type":"address","indexed":false,"internalType":"address"}],"anonymous":false},{"type":"event","name":"Upgraded","inputs":[{"name":"implementation","type":"address","indexed":true,"internalType":"address"}],"anonymous":false},{"type":"error","name":"AccessControlBadConfirmation","inputs":[]},{"type":"error","name":"AccessControlUnauthorizedAccount","inputs":[{"name":"account","type":"address","internalType":"address"},{"name":"neededRole","type":"bytes32","internalType":"bytes32"}]},{"type":"error","name":"AddressEmptyCode","inputs":[{"name":"target","type":"address","internalType":"address"}]},{"type":"error","name":"ERC1967InvalidImplementation","inputs":[{"name":"implementation","type":"address","internalType":"address"}]},{"type":"error","name":"ERC1967NonPayable","inputs":[]},{"type":"error","name":"EnforcedPause","inputs":[]},{"type":"error","name":"ExceedsMaxLTV","inputs":[{"name":"borrowValue","type":"uint256","internalType":"uint256"},{"name":"maxBorrowValue","type":"uint256","internalType":"uint256"},{"name":"ltv","type":"uint256","internalType":"uint256"}]},{"type":"error","name":"ExpectedPause","inputs":[]},{"type":"error","name":"FailedCall","inputs":[]},{"type":"error","name":"InvalidInitialization","inputs":[]},{"type":"error","name":"InvalidLtv","inputs":[{"name":"lendingPool","type":"address","internalType":"address"},{"name":"ltv","type":"uint256","internalType":"uint256"}]},{"type":"error","name":"LiquidationAlert","inputs":[{"name":"borrowValue","type":"uint256","internalType":"uint256"},{"name":"maxCollateralValue","type":"uint256","internalType":"uint256"},{"name":"liquidationThreshold","type":"uint256","internalType":"uint256"}]},{"type":"error","name":"LiquidationBonusNotSet","inputs":[{"name":"lendingPool","type":"address","internalType":"address"}]},{"type":"error","name":"LiquidationThresholdNotSet","inputs":[{"name":"lendingPool","type":"address","internalType":"address"}]},{"type":"error","name":"LtvMustBeLessThanThreshold","inputs":[{"name":"lendingPool","type":"address","internalType":"address"},{"name":"ltv","type":"uint256","internalType":"uint256"},{"name":"threshold","type":"uint256","internalType":"uint256"}]},{"type":"error","name":"NotFactory","inputs":[]},{"type":"error","name":"NotInitializing","inputs":[]},{"type":"error","name":"UUPSUnauthorizedCallContext","inputs":[]},{"type":"error","name":"UUPSUnsupportedProxiableUUID","inputs":[{"name":"slot","type":"bytes32","internalType":"bytes32"}]},{"type":"error","name":"ZeroAddress","inputs":[]},{"type":"error","name":"ZeroCollateralAmount","inputs":[{"name":"lendingPool","type":"address","internalType":"address"},{"name":"userCollateralAmount","type":"uint256","internalType":"uint256"},{"name":"totalCollateral","type":"uint256","internalType":"uint256"}]}],"bytecode":{"object":"0x60a06040523073ffffffffffffffffffffffffffffffffffffffff1660809073ffffffffffffffffffffffffffffffffffffffff16815250348015610042575f5ffd5b5061005161005660201b60201c565b6101d1565b5f61006561015460201b60201c565b9050805f0160089054906101000a900460ff16156100af576040517ff92ee8a900000000000000000000000000000000000000000000000000000000815260040160405180910390fd5b67ffffffffffffffff8016815f015f9054906101000a900467ffffffffffffffff1667ffffffffffffffff16146101515767ffffffffffffffff815f015f6101000a81548167ffffffffffffffff021916908367ffffffffffffffff1602179055507fc7f505b2f371ae2175ee4913f4499e1f2633a7b5936321eed1cdaeb6115181d267ffffffffffffffff60405161014891906101b8565b60405180910390a15b50565b5f5f61016461016d60201b60201c565b90508091505090565b5f7ff0c57e16840df040f15088dc2f81fe391c3923bec73e23a9662efc9c229c6a005f1b905090565b5f67ffffffffffffffff82169050919050565b6101b281610196565b82525050565b5f6020820190506101cb5f8301846101a9565b92915050565b608051612dee6101f75f395f81816115280152818161157d015261175a0152612dee5ff3fe608060405260043610610134575f3560e01c80638129fc1c116100aa578063b1732b251161006e578063b1732b2514610409578063c45a015514610445578063d3a658051461046f578063d547741f14610497578063e58378bb146104bf578063f72c0d8b146104e957610134565b80638129fc1c1461032757806391d148541461033d578063979dc61e14610379578063a217fddf146103b5578063ad3cb1cc146103df57610134565b806336568abe116100fc57806336568abe1461023f5780634f1ef2861461026757806352d1902d146102835780635bb47808146102ad5780635c975abb146102d55780637cadffd9146102ff57610134565b806301ffc9a7146101385780630e30428d14610174578063248a9ca31461019c5780632f2ff15d146101d85780633132aa8914610200575b5f5ffd5b348015610143575f5ffd5b5061015e60048036038101906101599190612321565b610513565b60405161016b9190612366565b60405180910390f35b34801561017f575f5ffd5b5061019a6004803603810190610195919061240c565b61058c565b005b3480156101a7575f5ffd5b506101c260048036038101906101bd919061247d565b610669565b6040516101cf91906124b7565b60405180910390f35b3480156101e3575f5ffd5b506101fe60048036038101906101f991906124d0565b610693565b005b34801561020b575f5ffd5b506102266004803603810190610221919061250e565b6106b5565b604051610236949392919061255b565b60405180910390f35b34801561024a575f5ffd5b50610265600480360381019061026091906124d0565b610757565b005b610281600480360381019061027c91906126da565b6107d2565b005b34801561028e575f5ffd5b506102976107f1565b6040516102a491906124b7565b60405180910390f35b3480156102b8575f5ffd5b506102d360048036038101906102ce9190612734565b610822565b005b3480156102e0575f5ffd5b506102e961092b565b6040516102f69190612366565b60405180910390f35b34801561030a575f5ffd5b506103256004803603810190610320919061240c565b61094d565b005b348015610332575f5ffd5b5061033b6109d4565b005b348015610348575f5ffd5b50610363600480360381019061035e91906124d0565b610bd3565b6040516103709190612366565b60405180910390f35b348015610384575f5ffd5b5061039f600480360381019061039a9190612734565b610c44565b6040516103ac919061275f565b60405180910390f35b3480156103c0575f5ffd5b506103c9610c59565b6040516103d691906124b7565b60405180910390f35b3480156103ea575f5ffd5b506103f3610c5f565b60405161040091906127d8565b60405180910390f35b348015610414575f5ffd5b5061042f600480360381019061042a9190612734565b610c98565b60405161043c919061275f565b60405180910390f35b348015610450575f5ffd5b50610459610cad565b6040516104669190612807565b60405180910390f35b34801561047a575f5ffd5b506104956004803603810190610490919061250e565b610cd1565b005b3480156104a2575f5ffd5b506104bd60048036038101906104b891906124d0565b610df5565b005b3480156104ca575f5ffd5b506104d3610e17565b6040516104e091906124b7565b60405180910390f35b3480156104f4575f5ffd5b506104fd610e3b565b60405161050a91906124b7565b60405180910390f35b5f7f7965db0b000000000000000000000000000000000000000000000000000000007bffffffffffffffffffffffffffffffffffffffffffffffffffffffff1916827bffffffffffffffffffffffffffffffffffffffffffffffffffffffff19161480610585575061058482610e5f565b5b9050919050565b610594610ec8565b5f61059e83610f4f565b9050818111156105e9578281836040517fcd2157ba0000000000000000000000000000000000000000000000000000000081526004016105e093929190612820565b60405180910390fd5b8160015f8573ffffffffffffffffffffffffffffffffffffffff1673ffffffffffffffffffffffffffffffffffffffff1681526020019081526020015f20819055507f2d1d01e1bdceefd940b4d41b3a1ad2ed30fe49c72ec8ad731dd615b52eb0761f838360405161065c929190612855565b60405180910390a1505050565b5f5f61067361100f565b9050805f015f8481526020019081526020015f2060010154915050919050565b61069c82610669565b6106a581611036565b6106af838361104a565b50505050565b5f5f5f5f5f6106cd866106c788611142565b896111b7565b90505f81036106e95760015f5f5f94509450945094505061074e565b5f6106fd876106f789611292565b8a611307565b915050808211828260025f8b73ffffffffffffffffffffffffffffffffffffffff1673ffffffffffffffffffffffffffffffffffffffff1681526020019081526020015f2054955095509550955050505b92959194509250565b61075f611427565b73ffffffffffffffffffffffffffffffffffffffff168173ffffffffffffffffffffffffffffffffffffffff16146107c3576040517f6697b23200000000000000000000000000000000000000000000000000000000815260040160405180910390fd5b6107cd828261142e565b505050565b6107da611526565b6107e38261160c565b6107ed828261163a565b5050565b5f6107fa611758565b7f360894a13ba1a3210667c828492db98dca3e2076cc3735a920a3ca505d382bbc5f1b905090565b7fb19546dff01e856fb3f010c267a7b1c60363cf8a4664e21cc89c26224620214e61084c81611036565b5f73ffffffffffffffffffffffffffffffffffffffff168273ffffffffffffffffffffffffffffffffffffffff16036108b1576040517fd92e233d00000000000000000000000000000000000000000000000000000000815260040160405180910390fd5b815f5f6101000a81548173ffffffffffffffffffffffffffffffffffffffff021916908373ffffffffffffffffffffffffffffffffffffffff1602179055507f1edf3afd4ac789736e00d216cd88be164ddcef26a6eedcc30cdb0cb62f3741b18260405161091f9190612807565b60405180910390a15050565b5f5f6109356117df565b9050805f015f9054906101000a900460ff1691505090565b610955610ec8565b8060025f8473ffffffffffffffffffffffffffffffffffffffff1673ffffffffffffffffffffffffffffffffffffffff1681526020019081526020015f20819055507fd91812d016fee432934ed06b278ce206558fbe821c4e6a7320c30d8f5ece48a982826040516109c8929190612855565b60405180910390a15050565b5f6109dd611806565b90505f815f0160089054906101000a900460ff161590505f825f015f9054906101000a900467ffffffffffffffff1690505f5f8267ffffffffffffffff16148015610a255750825b90505f60018367ffffffffffffffff16148015610a5857505f3073ffffffffffffffffffffffffffffffffffffffff163b145b905081158015610a66575080155b15610a9d576040517ff92ee8a900000000000000000000000000000000000000000000000000000000815260040160405180910390fd5b6001855f015f6101000a81548167ffffffffffffffff021916908367ffffffffffffffff1602179055508315610aea576001855f0160086101000a81548160ff0219169083151502179055505b610af2611819565b610afa611823565b610b0d5f5f1b610b08611427565b61104a565b50610b3f7fb19546dff01e856fb3f010c267a7b1c60363cf8a4664e21cc89c26224620214e610b3a611427565b61104a565b50610b717f189ab7a9244df0848122154315af71fe140f3db0fe014031783b0946b8c9d2e3610b6c611427565b61104a565b508315610bcc575f855f0160086101000a81548160ff0219169083151502179055507fc7f505b2f371ae2175ee4913f4499e1f2633a7b5936321eed1cdaeb6115181d26001604051610bc391906128d1565b60405180910390a15b5050505050565b5f5f610bdd61100f565b9050805f015f8581526020019081526020015f205f015f8473ffffffffffffffffffffffffffffffffffffffff1673ffffffffffffffffffffffffffffffffffffffff1681526020019081526020015f205f9054906101000a900460ff1691505092915050565b6002602052805f5260405f205f915090505481565b5f5f1b81565b6040518060400160405280600581526020017f352e302e3000000000000000000000000000000000000000000000000000000081525081565b6001602052805f5260405f205f915090505481565b5f5f9054906101000a900473ffffffffffffffffffffffffffffffffffffffff1681565b5f610ce582610cdf84611142565b856111b7565b90505f8103610cf45750610df1565b610cfd8261182d565b5f5f610d1284610d0c86611292565b87611307565b9150915081831115610d67578282610d2986610f4f565b6040517f3ff441cb000000000000000000000000000000000000000000000000000000008152600401610d5e939291906128ea565b60405180910390fd5b80831115610ded57828160015f8773ffffffffffffffffffffffffffffffffffffffff1673ffffffffffffffffffffffffffffffffffffffff1681526020019081526020015f20546040517f700ea030000000000000000000000000000000000000000000000000000000008152600401610de4939291906128ea565b60405180910390fd5b5050505b5050565b610dfe82610669565b610e0781611036565b610e11838361142e565b50505050565b7fb19546dff01e856fb3f010c267a7b1c60363cf8a4664e21cc89c26224620214e81565b7f189ab7a9244df0848122154315af71fe140f3db0fe014031783b0946b8c9d2e381565b5f7f01ffc9a7000000000000000000000000000000000000000000000000000000007bffffffffffffffffffffffffffffffffffffffffffffffffffffffff1916827bffffffffffffffffffffffffffffffffffffffffffffffffffffffff1916149050919050565b5f5f9054906101000a900473ffffffffffffffffffffffffffffffffffffffff1673ffffffffffffffffffffffffffffffffffffffff163373ffffffffffffffffffffffffffffffffffffffff1614610f4d576040517f32cc723600000000000000000000000000000000000000000000000000000000815260040160405180910390fd5b565b5f5f8273ffffffffffffffffffffffffffffffffffffffff16636fb49d736040518163ffffffff1660e01b8152600401602060405180830381865afa158015610f9a573d5f5f3e3d5ffd5b505050506040513d601f19601f82011682018060405250810190610fbe9190612933565b90505f81036110065782816040517fcd1ea89a000000000000000000000000000000000000000000000000000000008152600401610ffd929190612855565b60405180910390fd5b80915050919050565b5f7f02dd7bc7dec4dceedda775e58dd541e08a116c6c53815c0bd028192f7b626800905090565b61104781611042611427565b611932565b50565b5f5f61105461100f565b90506110608484610bd3565b611137576001815f015f8681526020019081526020015f205f015f8573ffffffffffffffffffffffffffffffffffffffff1673ffffffffffffffffffffffffffffffffffffffff1681526020019081526020015f205f6101000a81548160ff0219169083151502179055506110d3611427565b73ffffffffffffffffffffffffffffffffffffffff168373ffffffffffffffffffffffffffffffffffffffff16857f2f8788117e7eff1d82e926ec794901d17c78024a50270940304540a733656f0d60405160405180910390a4600191505061113c565b5f9150505b92915050565b5f8173ffffffffffffffffffffffffffffffffffffffff1663456dc17a6040518163ffffffff1660e01b8152600401602060405180830381865afa15801561118c573d5f5f3e3d5ffd5b505050506040513d601f19601f820116820180604052508101906111b09190612972565b9050919050565b5f5f6111c38584611983565b90505f81036111d5575f91505061128b565b5f6111df86611a04565b036111ed575f91505061128b565b5f6111f786611a04565b61120087611a79565b8361120b91906129ca565b6112159190612a38565b90505f61122186611aee565b600a61122d9190612b97565b670de0b6b3a764000061123f88611b75565b61124991906129ca565b6112539190612a38565b90505f61125f87611c05565b600a61126b9190612b97565b828461127791906129ca565b6112819190612a38565b9050809450505050505b9392505050565b5f8173ffffffffffffffffffffffffffffffffffffffff1663b2016bd46040518163ffffffff1660e01b8152600401602060405180830381865afa1580156112dc573d5f5f3e3d5ffd5b505050506040513d601f19601f820116820180604052508101906113009190612972565b9050919050565b5f5f6113128561182d565b5f61131d8685611d7e565b90505f61132986611aee565b600a6113359190612b97565b670de0b6b3a764000061134788611b75565b61135191906129ca565b61135b9190612a38565b90505f61136787611c05565b600a6113739190612b97565b828461137f91906129ca565b6113899190612a38565b90505f670de0b6b3a764000061139e8a610f4f565b836113a991906129ca565b6113b39190612a38565b90505f670de0b6b3a764000060015f8c73ffffffffffffffffffffffffffffffffffffffff1673ffffffffffffffffffffffffffffffffffffffff1681526020019081526020015f20548461140891906129ca565b6114129190612a38565b90508181965096505050505050935093915050565b5f33905090565b5f5f61143861100f565b90506114448484610bd3565b1561151b575f815f015f8681526020019081526020015f205f015f8573ffffffffffffffffffffffffffffffffffffffff1673ffffffffffffffffffffffffffffffffffffffff1681526020019081526020015f205f6101000a81548160ff0219169083151502179055506114b7611427565b73ffffffffffffffffffffffffffffffffffffffff168373ffffffffffffffffffffffffffffffffffffffff16857ff6391f5c32d9c69d2a47ea670b442974b53935d1edc7fd64eb21e047a839171b60405160405180910390a46001915050611520565b5f9150505b92915050565b7f000000000000000000000000000000000000000000000000000000000000000073ffffffffffffffffffffffffffffffffffffffff163073ffffffffffffffffffffffffffffffffffffffff1614806115d357507f000000000000000000000000000000000000000000000000000000000000000073ffffffffffffffffffffffffffffffffffffffff166115ba611dfd565b73ffffffffffffffffffffffffffffffffffffffff1614155b1561160a576040517fe07c8dba00000000000000000000000000000000000000000000000000000000815260040160405180910390fd5b565b7f189ab7a9244df0848122154315af71fe140f3db0fe014031783b0946b8c9d2e361163681611036565b5050565b8173ffffffffffffffffffffffffffffffffffffffff166352d1902d6040518163ffffffff1660e01b8152600401602060405180830381865afa9250505080156116a257506040513d601f19601f8201168201806040525081019061169f9190612bf5565b60015b6116e357816040517f4c9c8ce30000000000000000000000000000000000000000000000000000000081526004016116da9190612807565b60405180910390fd5b7f360894a13ba1a3210667c828492db98dca3e2076cc3735a920a3ca505d382bbc5f1b811461174957806040517faa1d49a400000000000000000000000000000000000000000000000000000000815260040161174091906124b7565b60405180910390fd5b6117538383611e50565b505050565b7f000000000000000000000000000000000000000000000000000000000000000073ffffffffffffffffffffffffffffffffffffffff163073ffffffffffffffffffffffffffffffffffffffff16146117dd576040517fe07c8dba00000000000000000000000000000000000000000000000000000000815260040160405180910390fd5b565b5f7fcd5ed15c6e187e77e9aee88184c21f4f2182ab5827cb3b7e07fbedcd63f03300905090565b5f5f611810611ec2565b90508091505090565b611821611eeb565b565b61182b611eeb565b565b5f60015f8373ffffffffffffffffffffffffffffffffffffffff1673ffffffffffffffffffffffffffffffffffffffff1681526020019081526020015f2054036118ae57806040517f550f5abe0000000000000000000000000000000000000000000000000000000081526004016118a59190612807565b60405180910390fd5b5f60025f8373ffffffffffffffffffffffffffffffffffffffff1673ffffffffffffffffffffffffffffffffffffffff1681526020019081526020015f20540361192f57806040517f31650a250000000000000000000000000000000000000000000000000000000081526004016119269190612807565b60405180910390fd5b50565b61193c8282610bd3565b61197f5780826040517fe2517d3f000000000000000000000000000000000000000000000000000000008152600401611976929190612c20565b60405180910390fd5b5050565b5f8273ffffffffffffffffffffffffffffffffffffffff16634fd422df836040518263ffffffff1660e01b81526004016119bd9190612807565b602060405180830381865afa1580156119d8573d5f5f3e3d5ffd5b505050506040513d601f19601f820116820180604052508101906119fc9190612933565b905092915050565b5f8173ffffffffffffffffffffffffffffffffffffffff1663136cf1f76040518163ffffffff1660e01b8152600401602060405180830381865afa158015611a4e573d5f5f3e3d5ffd5b505050506040513d601f19601f82011682018060405250810190611a729190612933565b9050919050565b5f8173ffffffffffffffffffffffffffffffffffffffff16631aad44c26040518163ffffffff1660e01b8152600401602060405180830381865afa158015611ac3573d5f5f3e3d5ffd5b505050506040513d601f19601f82011682018060405250810190611ae79190612933565b9050919050565b5f611af7611f2b565b73ffffffffffffffffffffffffffffffffffffffff1663d449a832836040518263ffffffff1660e01b8152600401611b2f9190612807565b602060405180830381865afa158015611b4a573d5f5f3e3d5ffd5b505050506040513d601f19601f82011682018060405250810190611b6e9190612933565b9050919050565b5f5f611b7f611f2b565b73ffffffffffffffffffffffffffffffffffffffff1663a13cc76a846040518263ffffffff1660e01b8152600401611bb79190612807565b60a060405180830381865afa158015611bd2573d5f5f3e3d5ffd5b505050506040513d601f19601f82011682018060405250810190611bf69190612c86565b50505091505080915050919050565b5f600173ffffffffffffffffffffffffffffffffffffffff168273ffffffffffffffffffffffffffffffffffffffff161480611cf857505f5f9054906101000a900473ffffffffffffffffffffffffffffffffffffffff1673ffffffffffffffffffffffffffffffffffffffff1663eb6d3a116040518163ffffffff1660e01b8152600401602060405180830381865afa158015611ca5573d5f5f3e3d5ffd5b505050506040513d601f19601f82011682018060405250810190611cc99190612972565b73ffffffffffffffffffffffffffffffffffffffff168273ffffffffffffffffffffffffffffffffffffffff16145b15611d065760129050611d79565b8173ffffffffffffffffffffffffffffffffffffffff1663313ce5676040518163ffffffff1660e01b8152600401602060405180830381865afa158015611d4f573d5f5f3e3d5ffd5b505050506040513d601f19601f82011682018060405250810190611d739190612d33565b60ff1690505b919050565b5f611d898383611fbe565b73ffffffffffffffffffffffffffffffffffffffff16634ac8eb5f6040518163ffffffff1660e01b8152600401602060405180830381865afa158015611dd1573d5f5f3e3d5ffd5b505050506040513d601f19601f82011682018060405250810190611df59190612933565b905092915050565b5f611e297f360894a13ba1a3210667c828492db98dca3e2076cc3735a920a3ca505d382bbc5f1b61203f565b5f015f9054906101000a900473ffffffffffffffffffffffffffffffffffffffff16905090565b611e5982612048565b8173ffffffffffffffffffffffffffffffffffffffff167fbc7cd75a20ee27fd9adebab32041f755214dbc6bffa90cc0225b39da2e5c2d3b60405160405180910390a25f81511115611eb557611eaf8282612111565b50611ebe565b611ebd612191565b5b5050565b5f7ff0c57e16840df040f15088dc2f81fe391c3923bec73e23a9662efc9c229c6a005f1b905090565b611ef36121cd565b611f29576040517fd7e6bcf800000000000000000000000000000000000000000000000000000000815260040160405180910390fd5b565b5f5f5f9054906101000a900473ffffffffffffffffffffffffffffffffffffffff1673ffffffffffffffffffffffffffffffffffffffff166375b568a66040518163ffffffff1660e01b8152600401602060405180830381865afa158015611f95573d5f5f3e3d5ffd5b505050506040513d601f19601f82011682018060405250810190611fb99190612972565b905090565b5f8273ffffffffffffffffffffffffffffffffffffffff1663f79c3800836040518263ffffffff1660e01b8152600401611ff89190612807565b602060405180830381865afa158015612013573d5f5f3e3d5ffd5b505050506040513d601f19601f820116820180604052508101906120379190612972565b905092915050565b5f819050919050565b5f8173ffffffffffffffffffffffffffffffffffffffff163b036120a357806040517f4c9c8ce300000000000000000000000000000000000000000000000000000000815260040161209a9190612807565b60405180910390fd5b806120cf7f360894a13ba1a3210667c828492db98dca3e2076cc3735a920a3ca505d382bbc5f1b61203f565b5f015f6101000a81548173ffffffffffffffffffffffffffffffffffffffff021916908373ffffffffffffffffffffffffffffffffffffffff16021790555050565b60605f5f8473ffffffffffffffffffffffffffffffffffffffff168460405161213a9190612da2565b5f60405180830381855af49150503d805f8114612172576040519150601f19603f3d011682016040523d82523d5f602084013e612177565b606091505b50915091506121878583836121eb565b9250505092915050565b5f3411156121cb576040517fb398979f00000000000000000000000000000000000000000000000000000000815260040160405180910390fd5b565b5f6121d6611806565b5f0160089054906101000a900460ff16905090565b606082612200576121fb82612278565b612270565b5f825114801561222657505f8473ffffffffffffffffffffffffffffffffffffffff163b145b1561226857836040517f9996b31500000000000000000000000000000000000000000000000000000000815260040161225f9190612807565b60405180910390fd5b819050612271565b5b9392505050565b5f8151111561228957805160208201fd5b6040517fd6bda27500000000000000000000000000000000000000000000000000000000815260040160405180910390fd5b5f604051905090565b5f5ffd5b5f5ffd5b5f7fffffffff0000000000000000000000000000000000000000000000000000000082169050919050565b612300816122cc565b811461230a575f5ffd5b50565b5f8135905061231b816122f7565b92915050565b5f60208284031215612336576123356122c4565b5b5f6123438482850161230d565b91505092915050565b5f8115159050919050565b6123608161234c565b82525050565b5f6020820190506123795f830184612357565b92915050565b5f73ffffffffffffffffffffffffffffffffffffffff82169050919050565b5f6123a88261237f565b9050919050565b6123b88161239e565b81146123c2575f5ffd5b50565b5f813590506123d3816123af565b92915050565b5f819050919050565b6123eb816123d9565b81146123f5575f5ffd5b50565b5f81359050612406816123e2565b92915050565b5f5f60408385031215612422576124216122c4565b5b5f61242f858286016123c5565b9250506020612440858286016123f8565b9150509250929050565b5f819050919050565b61245c8161244a565b8114612466575f5ffd5b50565b5f8135905061247781612453565b92915050565b5f60208284031215612492576124916122c4565b5b5f61249f84828501612469565b91505092915050565b6124b18161244a565b82525050565b5f6020820190506124ca5f8301846124a8565b92915050565b5f5f604083850312156124e6576124e56122c4565b5b5f6124f385828601612469565b9250506020612504858286016123c5565b9150509250929050565b5f5f60408385031215612524576125236122c4565b5b5f612531858286016123c5565b9250506020612542858286016123c5565b9150509250929050565b612555816123d9565b82525050565b5f60808201905061256e5f830187612357565b61257b602083018661254c565b612588604083018561254c565b612595606083018461254c565b95945050505050565b5f5ffd5b5f5ffd5b5f601f19601f8301169050919050565b7f4e487b71000000000000000000000000000000000000000000000000000000005f52604160045260245ffd5b6125ec826125a6565b810181811067ffffffffffffffff8211171561260b5761260a6125b6565b5b80604052505050565b5f61261d6122bb565b905061262982826125e3565b919050565b5f67ffffffffffffffff821115612648576126476125b6565b5b612651826125a6565b9050602081019050919050565b828183375f83830152505050565b5f61267e6126798461262e565b612614565b90508281526020810184848401111561269a576126996125a2565b5b6126a584828561265e565b509392505050565b5f82601f8301126126c1576126c061259e565b5b81356126d184826020860161266c565b91505092915050565b5f5f604083850312156126f0576126ef6122c4565b5b5f6126fd858286016123c5565b925050602083013567ffffffffffffffff81111561271e5761271d6122c8565b5b61272a858286016126ad565b9150509250929050565b5f60208284031215612749576127486122c4565b5b5f612756848285016123c5565b91505092915050565b5f6020820190506127725f83018461254c565b92915050565b5f81519050919050565b5f82825260208201905092915050565b8281835e5f83830152505050565b5f6127aa82612778565b6127b48185612782565b93506127c4818560208601612792565b6127cd816125a6565b840191505092915050565b5f6020820190508181035f8301526127f081846127a0565b905092915050565b6128018161239e565b82525050565b5f60208201905061281a5f8301846127f8565b92915050565b5f6060820190506128335f8301866127f8565b612840602083018561254c565b61284d604083018461254c565b949350505050565b5f6040820190506128685f8301856127f8565b612875602083018461254c565b9392505050565b5f819050919050565b5f67ffffffffffffffff82169050919050565b5f819050919050565b5f6128bb6128b66128b18461287c565b612898565b612885565b9050919050565b6128cb816128a1565b82525050565b5f6020820190506128e45f8301846128c2565b92915050565b5f6060820190506128fd5f83018661254c565b61290a602083018561254c565b612917604083018461254c565b949350505050565b5f8151905061292d816123e2565b92915050565b5f60208284031215612948576129476122c4565b5b5f6129558482850161291f565b91505092915050565b5f8151905061296c816123af565b92915050565b5f60208284031215612987576129866122c4565b5b5f6129948482850161295e565b91505092915050565b7f4e487b71000000000000000000000000000000000000000000000000000000005f52601160045260245ffd5b5f6129d4826123d9565b91506129df836123d9565b92508282026129ed816123d9565b91508282048414831517612a0457612a0361299d565b5b5092915050565b7f4e487b71000000000000000000000000000000000000000000000000000000005f52601260045260245ffd5b5f612a42826123d9565b9150612a4d836123d9565b925082612a5d57612a5c612a0b565b5b828204905092915050565b5f8160011c9050919050565b5f5f8291508390505b6001851115612abd57808604811115612a9957612a9861299d565b5b6001851615612aa85780820291505b8081029050612ab685612a68565b9450612a7d565b94509492505050565b5f82612ad55760019050612b90565b81612ae2575f9050612b90565b8160018114612af85760028114612b0257612b31565b6001915050612b90565b60ff841115612b1457612b1361299d565b5b8360020a915084821115612b2b57612b2a61299d565b5b50612b90565b5060208310610133831016604e8410600b8410161715612b665782820a905083811115612b6157612b6061299d565b5b612b90565b612b738484846001612a74565b92509050818404811115612b8a57612b8961299d565b5b81810290505b9392505050565b5f612ba1826123d9565b9150612bac836123d9565b9250612bd97fffffffffffffffffffffffffffffffffffffffffffffffffffffffffffffffff8484612ac6565b905092915050565b5f81519050612bef81612453565b92915050565b5f60208284031215612c0a57612c096122c4565b5b5f612c1784828501612be1565b91505092915050565b5f604082019050612c335f8301856127f8565b612c4060208301846124a8565b9392505050565b5f69ffffffffffffffffffff82169050919050565b612c6581612c47565b8114612c6f575f5ffd5b50565b5f81519050612c8081612c5c565b92915050565b5f5f5f5f5f60a08688031215612c9f57612c9e6122c4565b5b5f612cac88828901612c72565b9550506020612cbd8882890161291f565b9450506040612cce8882890161291f565b9350506060612cdf8882890161291f565b9250506080612cf088828901612c72565b9150509295509295909350565b5f60ff82169050919050565b612d1281612cfd565b8114612d1c575f5ffd5b50565b5f81519050612d2d81612d09565b92915050565b5f60208284031215612d4857612d476122c4565b5b5f612d5584828501612d1f565b91505092915050565b5f81519050919050565b5f81905092915050565b5f612d7c82612d5e565b612d868185612d68565b9350612d96818560208601612792565b80840191505092915050565b5f612dad8284612d72565b91508190509291505056fea26469706673582212209efcaf6d6f6840e4f6b15ea34934e26da6166fff840318d3d9688e295f0deb7e64736f6c634300081e0033","linkReferences":{}},"methodIdentifiers":{"DEFAULT_ADMIN_ROLE()":"a217fddf","OWNER_ROLE()":"e58378bb","UPGRADER_ROLE()":"f72c0d8b","UPGRADE_INTERFACE_VERSION()":"ad3cb1cc","checkLiquidatable(address,address)":"3132aa89","factory()":"c45a0155","getRoleAdmin(bytes32)":"248a9ca3","grantRole(bytes32,address)":"2f2ff15d","hasRole(bytes32,address)":"91d14854","initialize()":"8129fc1c","isHealthy(address,address)":"d3a65805","liquidationBonus(address)":"979dc61e","liquidationThreshold(address)":"b1732b25","paused()":"5c975abb","proxiableUUID()":"52d1902d","renounceRole(bytes32,address)":"36568abe","revokeRole(bytes32,address)":"d547741f","setFactory(address)":"5bb47808","setLiquidationBonus(address,uint256)":"7cadffd9","setLiquidationThreshold(address,uint256)":"0e30428d","supportsInterface(bytes4)":"01ffc9a7","upgradeToAndCall(address,bytes)":"4f1ef286"},"id":200}