{"abi":[{"type":"function","name":"ADMIN_ROLE","inputs":[],"outputs":[{"name":"","type":"bytes32","internalType":"bytes32"}],"stateMutability":"view"},{"type":"function","name":"BASE_DVN1","inputs":[],"outputs":[{"name":"","type":"address","internalType":"address"}],"stateMutability":"view"},{"type":"function","name":"BASE_DVN2","inputs":[],"outputs":[{"name":"","type":"address","internalType":"address"}],"stateMutability":"view"},{"type":"function","name":"BASE_DVN3","inputs":[],"outputs":[{"name":"","type":"address","internalType":"address"}],"stateMutability":"view"},{"type":"function","name":"BASE_EID","inputs":[],"outputs":[{"name":"","type":"uint32","internalType":"uint32"}],"stateMutability":"view"},{"type":"function","name":"BASE_EXECUTOR","inputs":[],"outputs":[{"name":"","type":"address","internalType":"address"}],"stateMutability":"view"},{"type":"function","name":"BASE_KAIA","inputs":[],"outputs":[{"name":"","type":"address","internalType":"address"}],"stateMutability":"view"},{"type":"function","name":"BASE_LZ_ENDPOINT","inputs":[],"outputs":[{"name":"","type":"address","internalType":"address"}],"stateMutability":"view"},{"type":"function","name":"BASE_M0CK_WKAIA","inputs":[],"outputs":[{"name":"","type":"address","internalType":"address"}],"stateMutability":"view"},{"type":"function","name":"BASE_MOCK_USDT","inputs":[],"outputs":[{"name":"","type":"address","internalType":"address"}],"stateMutability":"view"},{"type":"function","name":"BASE_MOCK_USDT_ELEVATED_MINTER_BURNER","inputs":[],"outputs":[{"name":"","type":"address","internalType":"address"}],"stateMutability":"view"},{"type":"function","name":"BASE_MOCK_WKAIA_ELEVATED_MINTER_BURNER","inputs":[],"outputs":[{"name":"","type":"address","internalType":"address"}],"stateMutability":"view"},{"type":"function","name":"BASE_OAPP_ADAPTER","inputs":[],"outputs":[{"name":"","type":"address","internalType":"address"}],"stateMutability":"view"},{"type":"function","name":"BASE_OAPP_SUPPLY_LIQUIDITY_USDT","inputs":[],"outputs":[{"name":"","type":"address","internalType":"address"}],"stateMutability":"view"},{"type":"function","name":"BASE_OFT_MOCK_USDT_ADAPTER","inputs":[],"outputs":[{"name":"","type":"address","internalType":"address"}],"stateMutability":"view"},{"type":"function","name":"BASE_OFT_MOCK_WKAIA_ADAPTER","inputs":[],"outputs":[{"name":"","type":"address","internalType":"address"}],"stateMutability":"view"},{"type":"function","name":"BASE_OFT_SKAIA_ADAPTER","inputs":[],"outputs":[{"name":"","type":"address","internalType":"address"}],"stateMutability":"view"},{"type":"function","name":"BASE_OFT_SUSDT_ADAPTER","inputs":[],"outputs":[{"name":"","type":"address","internalType":"address"}],"stateMutability":"view"},{"type":"function","name":"BASE_OFT_SWBTC_ADAPTER","inputs":[],"outputs":[{"name":"","type":"address","internalType":"address"}],"stateMutability":"view"},{"type":"function","name":"BASE_OFT_SWETH_ADAPTER","inputs":[],"outputs":[{"name":"","type":"address","internalType":"address"}],"stateMutability":"view"},{"type":"function","name":"BASE_OFT_SWKAIA_ADAPTER","inputs":[],"outputs":[{"name":"","type":"address","internalType":"address"}],"stateMutability":"view"},{"type":"function","name":"BASE_RECEIVE_LIB","inputs":[],"outputs":[{"name":"","type":"address","internalType":"address"}],"stateMutability":"view"},{"type":"function","name":"BASE_SEND_LIB","inputs":[],"outputs":[{"name":"","type":"address","internalType":"address"}],"stateMutability":"view"},{"type":"function","name":"BASE_SKAIA","inputs":[],"outputs":[{"name":"","type":"address","internalType":"address"}],"stateMutability":"view"},{"type":"function","name":"BASE_SKAIA_ELEVATED_MINTER_BURNER","inputs":[],"outputs":[{"name":"","type":"address","internalType":"address"}],"stateMutability":"view"},{"type":"function","name":"BASE_SUSDT","inputs":[],"outputs":[{"name":"","type":"address","internalType":"address"}],"stateMutability":"view"},{"type":"function","name":"BASE_SUSDT_ELEVATED_MINTER_BURNER","inputs":[],"outputs":[{"name":"","type":"address","internalType":"address"}],"stateMutability":"view"},{"type":"function","name":"BASE_SWBTC","inputs":[],"outputs":[{"name":"","type":"address","internalType":"address"}],"stateMutability":"view"},{"type":"function","name":"BASE_SWBTC_ELEVATED_MINTER_BURNER","inputs":[],"outputs":[{"name":"","type":"address","internalType":"address"}],"stateMutability":"view"},{"type":"function","name":"BASE_SWETH","inputs":[],"outputs":[{"name":"","type":"address","internalType":"address"}],"stateMutability":"view"},{"type":"function","name":"BASE_SWETH_ELEVATED_MINTER_BURNER","inputs":[],"outputs":[{"name":"","type":"address","internalType":"address"}],"stateMutability":"view"},{"type":"function","name":"BASE_SWKAIA","inputs":[],"outputs":[{"name":"","type":"address","internalType":"address"}],"stateMutability":"view"},{"type":"function","name":"BASE_SWKAIA_ELEVATED_MINTER_BURNER","inputs":[],"outputs":[{"name":"","type":"address","internalType":"address"}],"stateMutability":"view"},{"type":"function","name":"BASE_TESTNET_DVN1","inputs":[],"outputs":[{"name":"","type":"address","internalType":"address"}],"stateMutability":"view"},{"type":"function","name":"BASE_TESTNET_DVN2","inputs":[],"outputs":[{"name":"","type":"address","internalType":"address"}],"stateMutability":"view"},{"type":"function","name":"BASE_TESTNET_DVN3","inputs":[],"outputs":[{"name":"","type":"address","internalType":"address"}],"stateMutability":"view"},{"type":"function","name":"BASE_TESTNET_EID","inputs":[],"outputs":[{"name":"","type":"uint32","internalType":"uint32"}],"stateMutability":"view"},{"type":"function","name":"BASE_TESTNET_EXECUTOR","inputs":[],"outputs":[{"name":"","type":"address","internalType":"address"}],"stateMutability":"view"},{"type":"function","name":"BASE_TESTNET_LZ_ENDPOINT","inputs":[],"outputs":[{"name":"","type":"address","internalType":"address"}],"stateMutability":"view"},{"type":"function","name":"BASE_TESTNET_RECEIVE_LIB","inputs":[],"outputs":[{"name":"","type":"address","internalType":"address"}],"stateMutability":"view"},{"type":"function","name":"BASE_TESTNET_SEND_LIB","inputs":[],"outputs":[{"name":"","type":"address","internalType":"address"}],"stateMutability":"view"},{"type":"function","name":"BASE_USDT","inputs":[],"outputs":[{"name":"","type":"address","internalType":"address"}],"stateMutability":"view"},{"type":"function","name":"BASE_WBTC","inputs":[],"outputs":[{"name":"","type":"address","internalType":"address"}],"stateMutability":"view"},{"type":"function","name":"BASE_WETH","inputs":[],"outputs":[{"name":"","type":"address","internalType":"address"}],"stateMutability":"view"},{"type":"function","name":"BTC_USDT","inputs":[],"outputs":[{"name":"","type":"address","internalType":"address"}],"stateMutability":"view"},{"type":"function","name":"DEFAULT_ADMIN_ROLE","inputs":[],"outputs":[{"name":"","type":"bytes32","internalType":"bytes32"}],"stateMutability":"view"},{"type":"function","name":"ETH_USDT","inputs":[],"outputs":[{"name":"","type":"address","internalType":"address"}],"stateMutability":"view"},{"type":"function","name":"GLMR_DVN1","inputs":[],"outputs":[{"name":"","type":"address","internalType":"address"}],"stateMutability":"view"},{"type":"function","name":"GLMR_DVN2","inputs":[],"outputs":[{"name":"","type":"address","internalType":"address"}],"stateMutability":"view"},{"type":"function","name":"GLMR_DVN3","inputs":[],"outputs":[{"name":"","type":"address","internalType":"address"}],"stateMutability":"view"},{"type":"function","name":"GLMR_EID","inputs":[],"outputs":[{"name":"","type":"uint32","internalType":"uint32"}],"stateMutability":"view"},{"type":"function","name":"GLMR_EXECUTOR","inputs":[],"outputs":[{"name":"","type":"address","internalType":"address"}],"stateMutability":"view"},{"type":"function","name":"GLMR_LZ_ENDPOINT","inputs":[],"outputs":[{"name":"","type":"address","internalType":"address"}],"stateMutability":"view"},{"type":"function","name":"GLMR_RECEIVE_LIB","inputs":[],"outputs":[{"name":"","type":"address","internalType":"address"}],"stateMutability":"view"},{"type":"function","name":"GLMR_SEND_LIB","inputs":[],"outputs":[{"name":"","type":"address","internalType":"address"}],"stateMutability":"view"},{"type":"function","name":"KAIA_BTC_USDT_ADAPTER","inputs":[],"outputs":[{"name":"","type":"address","internalType":"address"}],"stateMutability":"view"},{"type":"function","name":"KAIA_DEX_ROUTER","inputs":[],"outputs":[{"name":"","type":"address","internalType":"address"}],"stateMutability":"view"},{"type":"function","name":"KAIA_DVN1","inputs":[],"outputs":[{"name":"","type":"address","internalType":"address"}],"stateMutability":"view"},{"type":"function","name":"KAIA_DVN2","inputs":[],"outputs":[{"name":"","type":"address","internalType":"address"}],"stateMutability":"view"},{"type":"function","name":"KAIA_DVN3","inputs":[],"outputs":[{"name":"","type":"address","internalType":"address"}],"stateMutability":"view"},{"type":"function","name":"KAIA_EID","inputs":[],"outputs":[{"name":"","type":"uint32","internalType":"uint32"}],"stateMutability":"view"},{"type":"function","name":"KAIA_ETH_USDT_ADAPTER","inputs":[],"outputs":[{"name":"","type":"address","internalType":"address"}],"stateMutability":"view"},{"type":"function","name":"KAIA_EXECUTOR","inputs":[],"outputs":[{"name":"","type":"address","internalType":"address"}],"stateMutability":"view"},{"type":"function","name":"KAIA_HELPER_UTILS","inputs":[],"outputs":[{"name":"","type":"address","internalType":"address"}],"stateMutability":"view"},{"type":"function","name":"KAIA_IS_HEALTHY","inputs":[],"outputs":[{"name":"","type":"address","internalType":"address"}],"stateMutability":"view"},{"type":"function","name":"KAIA_KAIA","inputs":[],"outputs":[{"name":"","type":"address","internalType":"address"}],"stateMutability":"view"},{"type":"function","name":"KAIA_KAIA_USDT_ADAPTER","inputs":[],"outputs":[{"name":"","type":"address","internalType":"address"}],"stateMutability":"view"},{"type":"function","name":"KAIA_LENDING_POOL_DEPLOYER","inputs":[],"outputs":[{"name":"","type":"address","internalType":"address"}],"stateMutability":"view"},{"type":"function","name":"KAIA_LENDING_POOL_FACTORY_IMPLEMENTATION","inputs":[],"outputs":[{"name":"","type":"address","internalType":"address"}],"stateMutability":"view"},{"type":"function","name":"KAIA_LENDING_POOL_FACTORY_PROXY","inputs":[],"outputs":[{"name":"","type":"address","internalType":"address"}],"stateMutability":"view"},{"type":"function","name":"KAIA_LENDING_POOL_ROUTER_DEPLOYER","inputs":[],"outputs":[{"name":"","type":"address","internalType":"address"}],"stateMutability":"view"},{"type":"function","name":"KAIA_LIQUIDATOR","inputs":[],"outputs":[{"name":"","type":"address","internalType":"address"}],"stateMutability":"view"},{"type":"function","name":"KAIA_LZ_ENDPOINT","inputs":[],"outputs":[{"name":"","type":"address","internalType":"address"}],"stateMutability":"view"},{"type":"function","name":"KAIA_MOCK_USDT","inputs":[],"outputs":[{"name":"","type":"address","internalType":"address"}],"stateMutability":"view"},{"type":"function","name":"KAIA_MOCK_USDT_ELEVATED_MINTER_BURNER","inputs":[],"outputs":[{"name":"","type":"address","internalType":"address"}],"stateMutability":"view"},{"type":"function","name":"KAIA_MOCK_WBTC","inputs":[],"outputs":[{"name":"","type":"address","internalType":"address"}],"stateMutability":"view"},{"type":"function","name":"KAIA_MOCK_WETH","inputs":[],"outputs":[{"name":"","type":"address","internalType":"address"}],"stateMutability":"view"},{"type":"function","name":"KAIA_MOCK_WKAIA","inputs":[],"outputs":[{"name":"","type":"address","internalType":"address"}],"stateMutability":"view"},{"type":"function","name":"KAIA_MOCK_WKAIA_ELEVATED_MINTER_BURNER","inputs":[],"outputs":[{"name":"","type":"address","internalType":"address"}],"stateMutability":"view"},{"type":"function","name":"KAIA_OAPP_SUPPLY_LIQUIDITY_USDT","inputs":[],"outputs":[{"name":"","type":"address","internalType":"address"}],"stateMutability":"view"},{"type":"function","name":"KAIA_OFT_MOCK_USDT_ADAPTER","inputs":[],"outputs":[{"name":"","type":"address","internalType":"address"}],"stateMutability":"view"},{"type":"function","name":"KAIA_OFT_MOCK_WKAIA_ADAPTER","inputs":[],"outputs":[{"name":"","type":"address","internalType":"address"}],"stateMutability":"view"},{"type":"function","name":"KAIA_OFT_USDT_ADAPTER","inputs":[],"outputs":[{"name":"","type":"address","internalType":"address"}],"stateMutability":"view"},{"type":"function","name":"KAIA_OFT_USDT_STARGATE_ADAPTER","inputs":[],"outputs":[{"name":"","type":"address","internalType":"address"}],"stateMutability":"view"},{"type":"function","name":"KAIA_OFT_WBTC_ADAPTER","inputs":[],"outputs":[{"name":"","type":"address","internalType":"address"}],"stateMutability":"view"},{"type":"function","name":"KAIA_OFT_WETH_ADAPTER","inputs":[],"outputs":[{"name":"","type":"address","internalType":"address"}],"stateMutability":"view"},{"type":"function","name":"KAIA_OFT_WKAIA_ADAPTER","inputs":[],"outputs":[{"name":"","type":"address","internalType":"address"}],"stateMutability":"view"},{"type":"function","name":"KAIA_POSITION_DEPLOYER","inputs":[],"outputs":[{"name":"","type":"address","internalType":"address"}],"stateMutability":"view"},{"type":"function","name":"KAIA_PROTOCOL","inputs":[],"outputs":[{"name":"","type":"address","internalType":"address"}],"stateMutability":"view"},{"type":"function","name":"KAIA_RECEIVE_LIB","inputs":[],"outputs":[{"name":"","type":"address","internalType":"address"}],"stateMutability":"view"},{"type":"function","name":"KAIA_SEND_LIB","inputs":[],"outputs":[{"name":"","type":"address","internalType":"address"}],"stateMutability":"view"},{"type":"function","name":"KAIA_TESTNET_DVN1","inputs":[],"outputs":[{"name":"","type":"address","internalType":"address"}],"stateMutability":"view"},{"type":"function","name":"KAIA_TESTNET_DVN2","inputs":[],"outputs":[{"name":"","type":"address","internalType":"address"}],"stateMutability":"view"},{"type":"function","name":"KAIA_TESTNET_DVN3","inputs":[],"outputs":[{"name":"","type":"address","internalType":"address"}],"stateMutability":"view"},{"type":"function","name":"KAIA_TESTNET_EID","inputs":[],"outputs":[{"name":"","type":"uint32","internalType":"uint32"}],"stateMutability":"view"},{"type":"function","name":"KAIA_TESTNET_EXECUTOR","inputs":[],"outputs":[{"name":"","type":"address","internalType":"address"}],"stateMutability":"view"},{"type":"function","name":"KAIA_TESTNET_HELPER_UTILS","inputs":[],"outputs":[{"name":"","type":"address","internalType":"address"}],"stateMutability":"view"},{"type":"function","name":"KAIA_TESTNET_INTEREST_RATE_MODEL","inputs":[],"outputs":[{"name":"","type":"address","internalType":"address"}],"stateMutability":"view"},{"type":"function","name":"KAIA_TESTNET_INTEREST_RATE_MODEL_IMPLEMENTATION","inputs":[],"outputs":[{"name":"","type":"address","internalType":"address"}],"stateMutability":"view"},{"type":"function","name":"KAIA_TESTNET_IS_HEALTHY","inputs":[],"outputs":[{"name":"","type":"address","internalType":"address"}],"stateMutability":"view"},{"type":"function","name":"KAIA_TESTNET_IS_HEALTHY_IMPLEMENTATION","inputs":[],"outputs":[{"name":"","type":"address","internalType":"address"}],"stateMutability":"view"},{"type":"function","name":"KAIA_TESTNET_LENDING_POOL_DEPLOYER","inputs":[],"outputs":[{"name":"","type":"address","internalType":"address"}],"stateMutability":"view"},{"type":"function","name":"KAIA_TESTNET_LENDING_POOL_FACTORY","inputs":[],"outputs":[{"name":"","type":"address","internalType":"address"}],"stateMutability":"view"},{"type":"function","name":"KAIA_TESTNET_LENDING_POOL_FACTORY_IMPLEMENTATION","inputs":[],"outputs":[{"name":"","type":"address","internalType":"address"}],"stateMutability":"view"},{"type":"function","name":"KAIA_TESTNET_LENDING_POOL_ROUTER_DEPLOYER","inputs":[],"outputs":[{"name":"","type":"address","internalType":"address"}],"stateMutability":"view"},{"type":"function","name":"KAIA_TESTNET_LZ_ENDPOINT","inputs":[],"outputs":[{"name":"","type":"address","internalType":"address"}],"stateMutability":"view"},{"type":"function","name":"KAIA_TESTNET_MOCK_DEX","inputs":[],"outputs":[{"name":"","type":"address","internalType":"address"}],"stateMutability":"view"},{"type":"function","name":"KAIA_TESTNET_MOCK_USDT","inputs":[],"outputs":[{"name":"","type":"address","internalType":"address"}],"stateMutability":"view"},{"type":"function","name":"KAIA_TESTNET_MOCK_WETH","inputs":[],"outputs":[{"name":"","type":"address","internalType":"address"}],"stateMutability":"view"},{"type":"function","name":"KAIA_TESTNET_MOCK_WKAIA","inputs":[],"outputs":[{"name":"","type":"address","internalType":"address"}],"stateMutability":"view"},{"type":"function","name":"KAIA_TESTNET_POSITION_DEPLOYER","inputs":[],"outputs":[{"name":"","type":"address","internalType":"address"}],"stateMutability":"view"},{"type":"function","name":"KAIA_TESTNET_PROTOCOL","inputs":[],"outputs":[{"name":"","type":"address","internalType":"address"}],"stateMutability":"view"},{"type":"function","name":"KAIA_TESTNET_PROXY_DEPLOYER","inputs":[],"outputs":[{"name":"","type":"address","internalType":"address"}],"stateMutability":"view"},{"type":"function","name":"KAIA_TESTNET_RECEIVE_LIB","inputs":[],"outputs":[{"name":"","type":"address","internalType":"address"}],"stateMutability":"view"},{"type":"function","name":"KAIA_TESTNET_SEND_LIB","inputs":[],"outputs":[{"name":"","type":"address","internalType":"address"}],"stateMutability":"view"},{"type":"function","name":"KAIA_TESTNET_SHARES_TOKEN_DEPLOYER","inputs":[],"outputs":[{"name":"","type":"address","internalType":"address"}],"stateMutability":"view"},{"type":"function","name":"KAIA_TESTNET_SUPALA_EMITTER","inputs":[],"outputs":[{"name":"","type":"address","internalType":"address"}],"stateMutability":"view"},{"type":"function","name":"KAIA_TESTNET_SUPALA_EMITTER_IMPLEMENTATION","inputs":[],"outputs":[{"name":"","type":"address","internalType":"address"}],"stateMutability":"view"},{"type":"function","name":"KAIA_TESTNET_TOKEN_DATA_STREAM","inputs":[],"outputs":[{"name":"","type":"address","internalType":"address"}],"stateMutability":"view"},{"type":"function","name":"KAIA_TESTNET_TOKEN_DATA_STREAM_IMPLEMENTATION","inputs":[],"outputs":[{"name":"","type":"address","internalType":"address"}],"stateMutability":"view"},{"type":"function","name":"KAIA_TESTNET_USDT_ELEVATED_MINTER_BURNER","inputs":[],"outputs":[{"name":"","type":"address","internalType":"address"}],"stateMutability":"view"},{"type":"function","name":"KAIA_TESTNET_USDT_OFT_ADAPTER","inputs":[],"outputs":[{"name":"","type":"address","internalType":"address"}],"stateMutability":"view"},{"type":"function","name":"KAIA_TESTNET_WETH_ELEVATED_MINTER_BURNER","inputs":[],"outputs":[{"name":"","type":"address","internalType":"address"}],"stateMutability":"view"},{"type":"function","name":"KAIA_TESTNET_WETH_OFT_ADAPTER","inputs":[],"outputs":[{"name":"","type":"address","internalType":"address"}],"stateMutability":"view"},{"type":"function","name":"KAIA_TESTNET_WKAIA_ELEVATED_MINTER_BURNER","inputs":[],"outputs":[{"name":"","type":"address","internalType":"address"}],"stateMutability":"view"},{"type":"function","name":"KAIA_TESTNET_WKAIA_OFT_ADAPTER","inputs":[],"outputs":[{"name":"","type":"address","internalType":"address"}],"stateMutability":"view"},{"type":"function","name":"KAIA_USDT","inputs":[],"outputs":[{"name":"","type":"address","internalType":"address"}],"stateMutability":"view"},{"type":"function","name":"KAIA_USDT_STARGATE","inputs":[],"outputs":[{"name":"","type":"address","internalType":"address"}],"stateMutability":"view"},{"type":"function","name":"KAIA_USDT_USD_ADAPTER","inputs":[],"outputs":[{"name":"","type":"address","internalType":"address"}],"stateMutability":"view"},{"type":"function","name":"KAIA_WBTC","inputs":[],"outputs":[{"name":"","type":"address","internalType":"address"}],"stateMutability":"view"},{"type":"function","name":"KAIA_WETH","inputs":[],"outputs":[{"name":"","type":"address","internalType":"address"}],"stateMutability":"view"},{"type":"function","name":"KAIA_WKAIA","inputs":[],"outputs":[{"name":"","type":"address","internalType":"address"}],"stateMutability":"view"},{"type":"function","name":"MANTLE_TESTNET_DVN1","inputs":[],"outputs":[{"name":"","type":"address","internalType":"address"}],"stateMutability":"view"},{"type":"function","name":"MANTLE_TESTNET_DVN2","inputs":[],"outputs":[{"name":"","type":"address","internalType":"address"}],"stateMutability":"view"},{"type":"function","name":"MANTLE_TESTNET_DVN3","inputs":[],"outputs":[{"name":"","type":"address","internalType":"address"}],"stateMutability":"view"},{"type":"function","name":"MANTLE_TESTNET_EID","inputs":[],"outputs":[{"name":"","type":"uint32","internalType":"uint32"}],"stateMutability":"view"},{"type":"function","name":"MANTLE_TESTNET_EXECUTOR","inputs":[],"outputs":[{"name":"","type":"address","internalType":"address"}],"stateMutability":"view"},{"type":"function","name":"MANTLE_TESTNET_HELPER_UTILS","inputs":[],"outputs":[{"name":"","type":"address","internalType":"address"}],"stateMutability":"view"},{"type":"function","name":"MANTLE_TESTNET_INTEREST_RATE_MODEL","inputs":[],"outputs":[{"name":"","type":"address","internalType":"address"}],"stateMutability":"view"},{"type":"function","name":"MANTLE_TESTNET_INTEREST_RATE_MODEL_IMPLEMENTATION","inputs":[],"outputs":[{"name":"","type":"address","internalType":"address"}],"stateMutability":"view"},{"type":"function","name":"MANTLE_TESTNET_IS_HEALTHY","inputs":[],"outputs":[{"name":"","type":"address","internalType":"address"}],"stateMutability":"view"},{"type":"function","name":"MANTLE_TESTNET_IS_HEALTHY_IMPLEMENTATION","inputs":[],"outputs":[{"name":"","type":"address","internalType":"address"}],"stateMutability":"view"},{"type":"function","name":"MANTLE_TESTNET_LENDING_POOL_DEPLOYER","inputs":[],"outputs":[{"name":"","type":"address","internalType":"address"}],"stateMutability":"view"},{"type":"function","name":"MANTLE_TESTNET_LENDING_POOL_FACTORY","inputs":[],"outputs":[{"name":"","type":"address","internalType":"address"}],"stateMutability":"view"},{"type":"function","name":"MANTLE_TESTNET_LENDING_POOL_FACTORY_IMPLEMENTATION","inputs":[],"outputs":[{"name":"","type":"address","internalType":"address"}],"stateMutability":"view"},{"type":"function","name":"MANTLE_TESTNET_LENDING_POOL_ROUTER_DEPLOYER","inputs":[],"outputs":[{"name":"","type":"address","internalType":"address"}],"stateMutability":"view"},{"type":"function","name":"MANTLE_TESTNET_LZ_ENDPOINT","inputs":[],"outputs":[{"name":"","type":"address","internalType":"address"}],"stateMutability":"view"},{"type":"function","name":"MANTLE_TESTNET_MOCK_DEX","inputs":[],"outputs":[{"name":"","type":"address","internalType":"address"}],"stateMutability":"view"},{"type":"function","name":"MANTLE_TESTNET_MOCK_USDC","inputs":[],"outputs":[{"name":"","type":"address","internalType":"address"}],"stateMutability":"view"},{"type":"function","name":"MANTLE_TESTNET_MOCK_USDT","inputs":[],"outputs":[{"name":"","type":"address","internalType":"address"}],"stateMutability":"view"},{"type":"function","name":"MANTLE_TESTNET_MOCK_WBTC","inputs":[],"outputs":[{"name":"","type":"address","internalType":"address"}],"stateMutability":"view"},{"type":"function","name":"MANTLE_TESTNET_MOCK_WETH","inputs":[],"outputs":[{"name":"","type":"address","internalType":"address"}],"stateMutability":"view"},{"type":"function","name":"MANTLE_TESTNET_MOCK_WMNT","inputs":[],"outputs":[{"name":"","type":"address","internalType":"address"}],"stateMutability":"view"},{"type":"function","name":"MANTLE_TESTNET_POSITION_DEPLOYER","inputs":[],"outputs":[{"name":"","type":"address","internalType":"address"}],"stateMutability":"view"},{"type":"function","name":"MANTLE_TESTNET_PROTOCOL","inputs":[],"outputs":[{"name":"","type":"address","internalType":"address"}],"stateMutability":"view"},{"type":"function","name":"MANTLE_TESTNET_PROXY_DEPLOYER","inputs":[],"outputs":[{"name":"","type":"address","internalType":"address"}],"stateMutability":"view"},{"type":"function","name":"MANTLE_TESTNET_RECEIVE_LIB","inputs":[],"outputs":[{"name":"","type":"address","internalType":"address"}],"stateMutability":"view"},{"type":"function","name":"MANTLE_TESTNET_SEND_LIB","inputs":[],"outputs":[{"name":"","type":"address","internalType":"address"}],"stateMutability":"view"},{"type":"function","name":"MANTLE_TESTNET_SHARES_TOKEN_DEPLOYER","inputs":[],"outputs":[{"name":"","type":"address","internalType":"address"}],"stateMutability":"view"},{"type":"function","name":"MANTLE_TESTNET_SUPALA_EMITTER","inputs":[],"outputs":[{"name":"","type":"address","internalType":"address"}],"stateMutability":"view"},{"type":"function","name":"MANTLE_TESTNET_SUPALA_EMITTER_IMPLEMENTATION","inputs":[],"outputs":[{"name":"","type":"address","internalType":"address"}],"stateMutability":"view"},{"type":"function","name":"MANTLE_TESTNET_TOKEN_DATA_STREAM","inputs":[],"outputs":[{"name":"","type":"address","internalType":"address"}],"stateMutability":"view"},{"type":"function","name":"MANTLE_TESTNET_TOKEN_DATA_STREAM_IMPLEMENTATION","inputs":[],"outputs":[{"name":"","type":"address","internalType":"address"}],"stateMutability":"view"},{"type":"function","name":"MANTLE_TESTNET_USDC_ELEVATED_MINTER_BURNER","inputs":[],"outputs":[{"name":"","type":"address","internalType":"address"}],"stateMutability":"view"},{"type":"function","name":"MANTLE_TESTNET_USDC_OFT_ADAPTER","inputs":[],"outputs":[{"name":"","type":"address","internalType":"address"}],"stateMutability":"view"},{"type":"function","name":"MANTLE_TESTNET_USDT_ELEVATED_MINTER_BURNER","inputs":[],"outputs":[{"name":"","type":"address","internalType":"address"}],"stateMutability":"view"},{"type":"function","name":"MANTLE_TESTNET_USDT_OFT_ADAPTER","inputs":[],"outputs":[{"name":"","type":"address","internalType":"address"}],"stateMutability":"view"},{"type":"function","name":"MANTLE_TESTNET_WBTC_ELEVATED_MINTER_BURNER","inputs":[],"outputs":[{"name":"","type":"address","internalType":"address"}],"stateMutability":"view"},{"type":"function","name":"MANTLE_TESTNET_WBTC_OFT_ADAPTER","inputs":[],"outputs":[{"name":"","type":"address","internalType":"address"}],"stateMutability":"view"},{"type":"function","name":"MANTLE_TESTNET_WETH_ELEVATED_MINTER_BURNER","inputs":[],"outputs":[{"name":"","type":"address","internalType":"address"}],"stateMutability":"view"},{"type":"function","name":"MANTLE_TESTNET_WETH_OFT_ADAPTER","inputs":[],"outputs":[{"name":"","type":"address","internalType":"address"}],"stateMutability":"view"},{"type":"function","name":"MANTLE_TESTNET_WMNT_ELEVATED_MINTER_BURNER","inputs":[],"outputs":[{"name":"","type":"address","internalType":"address"}],"stateMutability":"view"},{"type":"function","name":"MANTLE_TESTNET_WMNT_OFT_ADAPTER","inputs":[],"outputs":[{"name":"","type":"address","internalType":"address"}],"stateMutability":"view"},{"type":"function","name":"NATIVE_USDT","inputs":[],"outputs":[{"name":"","type":"address","internalType":"address"}],"stateMutability":"view"},{"type":"function","name":"OWNER_ROLE","inputs":[],"outputs":[{"name":"","type":"bytes32","internalType":"bytes32"}],"stateMutability":"view"},{"type":"function","name":"PAUSER_ROLE","inputs":[],"outputs":[{"name":"","type":"bytes32","internalType":"bytes32"}],"stateMutability":"view"},{"type":"function","name":"UPGRADER_ROLE","inputs":[],"outputs":[{"name":"","type":"bytes32","internalType":"bytes32"}],"stateMutability":"view"},{"type":"function","name":"USDC_USD","inputs":[],"outputs":[{"name":"","type":"address","internalType":"address"}],"stateMutability":"view"},{"type":"function","name":"USDT_USD","inputs":[],"outputs":[{"name":"","type":"address","internalType":"address"}],"stateMutability":"view"},{"type":"function","name":"btcUsdtAdapter","inputs":[],"outputs":[{"name":"","type":"address","internalType":"address"}],"stateMutability":"view"},{"type":"function","name":"chainName","inputs":[],"outputs":[{"name":"","type":"string","internalType":"string"}],"stateMutability":"view"},{"type":"function","name":"dexRouter","inputs":[],"outputs":[{"name":"","type":"address","internalType":"address"}],"stateMutability":"view"},{"type":"function","name":"ethUsdtAdapter","inputs":[],"outputs":[{"name":"","type":"address","internalType":"address"}],"stateMutability":"view"},{"type":"function","name":"native","inputs":[],"outputs":[{"name":"","type":"address","internalType":"address"}],"stateMutability":"view"},{"type":"function","name":"nativeUsdtAdapter","inputs":[],"outputs":[{"name":"","type":"address","internalType":"address"}],"stateMutability":"view"},{"type":"function","name":"oftNativeAdapter","inputs":[],"outputs":[{"name":"","type":"address","internalType":"address"}],"stateMutability":"view"},{"type":"function","name":"oftNativeOriAdapter","inputs":[],"outputs":[{"name":"","type":"address","internalType":"address"}],"stateMutability":"view"},{"type":"function","name":"oftUsdtAdapter","inputs":[],"outputs":[{"name":"","type":"address","internalType":"address"}],"stateMutability":"view"},{"type":"function","name":"oftWethAdapter","inputs":[],"outputs":[{"name":"","type":"address","internalType":"address"}],"stateMutability":"view"},{"type":"function","name":"usdc","inputs":[],"outputs":[{"name":"","type":"address","internalType":"address"}],"stateMutability":"view"},{"type":"function","name":"usdt","inputs":[],"outputs":[{"name":"","type":"address","internalType":"address"}],"stateMutability":"view"},{"type":"function","name":"usdtUsdAdapter","inputs":[],"outputs":[{"name":"","type":"address","internalType":"address"}],"stateMutability":"view"},{"type":"function","name":"wNative","inputs":[],"outputs":[{"name":"","type":"address","internalType":"address"}],"stateMutability":"view"},{"type":"function","name":"wbtc","inputs":[],"outputs":[{"name":"","type":"address","internalType":"address"}],"stateMutability":"view"},{"type":"function","name":"weth","inputs":[],"outputs":[{"name":"","type":"address","internalType":"address"}],"stateMutability":"view"}],"bytecode":{"object":"0x6080604052600160035f6101000a81548173ffffffffffffffffffffffffffffffffffffffff021916908373ffffffffffffffffffffffffffffffffffffffff160217905550348015604f575f5ffd5b506136688061005d5f395ff3fe608060405234801561000f575f5ffd5b5060043610610a9f575f3560e01c806386cfc33e11610573578063c025fe3c116102d3578063e58378bb11610196578063f4be7504116100fd578063fa9be367116100b6578063fd455f7511610090578063fd455f7514612105578063fd9eef0414612123578063fe96e49014612141578063fefcbc471461215f57610a9f565b8063fa9be367146120ab578063fb7a69a5146120c9578063fbdf0593146120e757610a9f565b8063f4be750414611ff7578063f678f03214612015578063f72c0d8b14612033578063f82e969114612051578063f85a16c81461206f578063f89b03da1461208d57610a9f565b8063ef54e76f1161014f578063ef54e76f14611f43578063efffd77c14611f61578063f1fb019314611f7f578063f2ba7e0114611f9d578063f2e7843514611fbb578063f31d744314611fd957610a9f565b8063e58378bb14611e8f578063e593399814611ead578063e63ab1e914611ecb578063eb3789bb14611ee9578063eba82c1e14611f07578063ed58407314611f2557610a9f565b8063d0ff1a041161023a578063de439f50116101f3578063de439f5014611ddb578063e07e02cc14611df9578063e100143214611e17578063e415479914611e35578063e4b0043414611e53578063e5120c4714611e7157610a9f565b8063d0ff1a0414611d27578063d48f4ee014611d45578063d4c7308314611d63578063d5fda4b714611d81578063d9edc88814611d9f578063dbc14a1914611dbd57610a9f565b8063c5e4a5091161028c578063c5e4a50914611c73578063c790845114611c91578063ca4b481c14611caf578063ce8b78bc14611ccd578063cea9072814611ceb578063cf642cc914611d0957610a9f565b8063c025fe3c14611bbf578063c13b0f1714611bdd578063c1a1680e14611bfb578063c2abf75014611c19578063c304e50814611c37578063c41ad64114611c5557610a9f565b8063aa56b57a11610436578063b3a981051161039d578063b5f0848d11610356578063b96e686a11610330578063b96e686a14611b47578063ba717f8614611b65578063ba91cd4314611b83578063bd7ad9d614611ba157610a9f565b8063b5f0848d14611aed578063b908f70a14611b0b578063b9261ba414611b2957610a9f565b8063b3a9810514611a39578063b430bac514611a57578063b4fa069414611a75578063b5300a3b14611a93578063b53b808e14611ab1578063b5a9891114611acf57610a9f565b8063aded9a19116103ef578063aded9a1914611985578063ae3676fb146119a3578063ae5c039d146119c1578063b07e4297146119df578063b259d964146119fd578063b2d0403114611a1b57610a9f565b8063aa56b57a146118d1578063aaf0e6eb146118ef578063ab562ddd1461190d578063aba30cca1461192b578063ac7fb1b714611949578063ad6afeef1461196757610a9f565b806394a15d04116104da578063a016a1d711610493578063a016a1d71461181d578063a217fddf1461183b578063a78df68714611859578063a795831414611877578063a7b395f214611895578063a84bf70e146118b357610a9f565b806394a15d041461176957806395be11111461178757806395df5838146117a557806398489dff146117c3578063990ef31d146117e15780639f09202d146117ff57610a9f565b80638fd510cc1161052c5780638fd510cc146116b557806390406054146116d357806390df5b1a146116f15780639196bfa01461170f578063924ff3691461172d57806392e926bb1461174b57610a9f565b806386cfc33e1461160157806387c7f7c91461161f5780638ca4b7e31461163d5780638d7b0cda1461165b5780638dd73f6b146116795780638f3666381461169757610a9f565b80633cdc53891161081e5780635d9fb53d116106e157806375b238fc1161064857806380b6403b1161060157806384af6aef116105db57806384af6aef1461158957806384f9199e146115a757806385623f59146115c557806385822d6e146115e357610a9f565b806380b6403b1461152f578063848dc5e91461154d57806384ad52391461156b57610a9f565b806375b238fc1461147b57806375df4307146114995780637b49a635146114b75780637e7414c2146114d557806380185b00146114f3578063805311691461151157610a9f565b806368ebdd5e1161069a57806368ebdd5e146113c75780636c50cc29146113e55780636e7ec25914611403578063709b90361461142157806371b9a7181461143f57806373d095e41461145d57610a9f565b80635d9fb53d146113135780635dd65d3114611331578063634a8eee1461134f5780636420c2051461136d57806367406d421461138b57806367d197c2146113a957610a9f565b806349dfa96611610785578063543e593a1161073e578063543e593a1461125f57806355fc02fa1461127d578063565fcaac1461129b57806359c56692146112b95780635a432080146112d75780635ac6d96d146112f557610a9f565b806349dfa966146111ab5780634adeb12a146111c95780634d99ba08146111e75780634fefc38c14611205578063511856cd14611223578063529f0d501461124157610a9f565b80634190110d116107d75780634190110d146110f7578063437ad10f14611115578063450036c914611133578063470ebcb014611151578063471f10751461116f57806348d8d4551461118d57610a9f565b80633cdc5389146110435780633cdda029146110615780633da090c01461107f5780633e413bee1461109d5780633fc8cef3146110bb578063413b777a146110d957610a9f565b80631e538350116109665780632f0249bc116108cd57806334392809116108865780633439280914610f8f5780633573070d14610fad578063379ca0db14610fcb57806337a4332a14610fe95780633ab51ac8146110075780633b97322b1461102557610a9f565b80632f0249bc14610edb5780632f084bf414610ef95780632f48ab7d14610f175780632f9668e614610f355780632fa9966614610f535780633269958e14610f7157610a9f565b8063235feefd1161091f578063235feefd14610e27578063269ae32d14610e4557806327e6d4a114610e635780632a715dd714610e815780632cf0eb0514610e9f5780632d68efc914610ebd57610a9f565b80631e53835014610d735780631f8a242814610d915780631fe42bff14610daf57806321f564bc14610dcd57806321fba23514610deb5780632259fe8d14610e0957610a9f565b806310d5dd4e11610a0a57806316c67bab116109c357806316c67bab14610cbf57806318567e8814610cdd5780631a3ca3b114610cfb5780631baa220f14610d195780631c93b03a14610d375780631d4f084114610d5557610a9f565b806310d5dd4e14610c0b57806311b0b42d14610c2957806312e7902a14610c475780631335bc2914610c655780631492d3fc14610c8357806315f88c9214610ca157610a9f565b806308f40bed11610a5c57806308f40bed14610b5757806308ff3f1214610b7557806309315fa914610b935780630b54fe1e14610bb15780630b624f7f14610bcf5780630d574d0d14610bed57610a9f565b80630431f17d14610aa357806304982fca14610ac157806304cee16114610adf5780630758d92414610afd57806307e2476214610b1b57806307ff60a114610b39575b5f5ffd5b610aab61217d565b604051610ab891906134c4565b60405180910390f35b610ac9612195565b604051610ad691906134c4565b60405180910390f35b610ae76121ad565b604051610af491906134c4565b60405180910390f35b610b056121c5565b604051610b1291906134c4565b60405180910390f35b610b236121ea565b604051610b3091906134c4565b60405180910390f35b610b41612202565b604051610b4e91906134c4565b60405180910390f35b610b5f61221a565b604051610b6c91906134c4565b60405180910390f35b610b7d612232565b604051610b8a91906134c4565b60405180910390f35b610b9b61224a565b604051610ba891906134c4565b60405180910390f35b610bb9612262565b604051610bc691906134c4565b60405180910390f35b610bd761227a565b604051610be491906134c4565b60405180910390f35b610bf5612292565b604051610c0291906134c4565b60405180910390f35b610c136122b7565b604051610c2091906134c4565b60405180910390f35b610c316122cf565b604051610c3e91906134c4565b60405180910390f35b610c4f6122f4565b604051610c5c91906134c4565b60405180910390f35b610c6d61230c565b604051610c7a91906134c4565b60405180910390f35b610c8b612331565b604051610c9891906134c4565b60405180910390f35b610ca9612349565b604051610cb691906134fb565b60405180910390f35b610cc761234f565b604051610cd491906134c4565b60405180910390f35b610ce5612367565b604051610cf291906134fb565b60405180910390f35b610d0361236d565b604051610d1091906134c4565b60405180910390f35b610d21612385565b604051610d2e91906134c4565b60405180910390f35b610d3f61239d565b604051610d4c9190613584565b60405180910390f35b610d5d612429565b604051610d6a91906134c4565b60405180910390f35b610d7b612441565b604051610d8891906134c4565b60405180910390f35b610d99612459565b604051610da691906134c4565b60405180910390f35b610db7612471565b604051610dc491906134c4565b60405180910390f35b610dd5612489565b604051610de291906134c4565b60405180910390f35b610df36124a1565b604051610e0091906134c4565b60405180910390f35b610e116124b9565b604051610e1e91906134c4565b60405180910390f35b610e2f6124d1565b604051610e3c91906134c4565b60405180910390f35b610e4d6124e9565b604051610e5a91906134c4565b60405180910390f35b610e6b612501565b604051610e7891906134c4565b60405180910390f35b610e89612519565b604051610e9691906134c4565b60405180910390f35b610ea7612531565b604051610eb491906134c4565b60405180910390f35b610ec5612549565b604051610ed291906134c4565b60405180910390f35b610ee361256e565b604051610ef091906134c4565b60405180910390f35b610f01612586565b604051610f0e91906134c4565b60405180910390f35b610f1f61259e565b604051610f2c91906134c4565b60405180910390f35b610f3d6125c2565b604051610f4a91906134c4565b60405180910390f35b610f5b6125da565b604051610f6891906134c4565b60405180910390f35b610f796125f2565b604051610f8691906134c4565b60405180910390f35b610f9761260a565b604051610fa491906134c4565b60405180910390f35b610fb5612622565b604051610fc291906134c4565b60405180910390f35b610fd361263a565b604051610fe091906134c4565b60405180910390f35b610ff1612652565b604051610ffe91906134c4565b60405180910390f35b61100f61266a565b60405161101c91906134c4565b60405180910390f35b61102d61268f565b60405161103a91906134c4565b60405180910390f35b61104b6126a7565b60405161105891906134c4565b60405180910390f35b6110696126cc565b60405161107691906134c4565b60405180910390f35b6110876126e4565b60405161109491906134c4565b60405180910390f35b6110a56126fc565b6040516110b291906134c4565b60405180910390f35b6110c3612721565b6040516110d091906134c4565b60405180910390f35b6110e1612746565b6040516110ee91906134c4565b60405180910390f35b6110ff61275e565b60405161110c91906134c4565b60405180910390f35b61111d612776565b60405161112a91906134c4565b60405180910390f35b61113b61278e565b60405161114891906134c4565b60405180910390f35b611159612793565b60405161116691906134c4565b60405180910390f35b6111776127ab565b60405161118491906134c4565b60405180910390f35b6111956127c3565b6040516111a291906134c4565b60405180910390f35b6111b36127db565b6040516111c091906134c4565b60405180910390f35b6111d16127f3565b6040516111de91906134c4565b60405180910390f35b6111ef61280b565b6040516111fc91906134c4565b60405180910390f35b61120d612823565b60405161121a91906134c4565b60405180910390f35b61122b61283b565b60405161123891906134c4565b60405180910390f35b611249612853565b60405161125691906134c4565b60405180910390f35b61126761286b565b60405161127491906134c4565b60405180910390f35b611285612883565b60405161129291906134c4565b60405180910390f35b6112a361289b565b6040516112b091906134c4565b60405180910390f35b6112c16128b3565b6040516112ce91906134c4565b60405180910390f35b6112df6128cb565b6040516112ec91906134c4565b60405180910390f35b6112fd6128e3565b60405161130a91906134c4565b60405180910390f35b61131b6128fb565b60405161132891906134c4565b60405180910390f35b611339612913565b60405161134691906134c4565b60405180910390f35b61135761292b565b60405161136491906134c4565b60405180910390f35b611375612943565b60405161138291906134c4565b60405180910390f35b61139361295b565b6040516113a091906134c4565b60405180910390f35b6113b1612973565b6040516113be91906134c4565b60405180910390f35b6113cf61298b565b6040516113dc91906134c4565b60405180910390f35b6113ed6129a3565b6040516113fa91906134c4565b60405180910390f35b61140b6129bb565b60405161141891906134c4565b60405180910390f35b6114296129d3565b60405161143691906134c4565b60405180910390f35b6114476129eb565b60405161145491906134c4565b60405180910390f35b611465612a03565b60405161147291906134c4565b60405180910390f35b611483612a28565b60405161149091906135bc565b60405180910390f35b6114a1612a4c565b6040516114ae91906134c4565b60405180910390f35b6114bf612a64565b6040516114cc91906134c4565b60405180910390f35b6114dd612a7c565b6040516114ea91906134c4565b60405180910390f35b6114fb612a94565b60405161150891906134c4565b60405180910390f35b611519612aac565b60405161152691906134c4565b60405180910390f35b611537612ac4565b60405161154491906134c4565b60405180910390f35b611555612adc565b60405161156291906134c4565b60405180910390f35b611573612af4565b60405161158091906134c4565b60405180910390f35b611591612b0c565b60405161159e91906134c4565b60405180910390f35b6115af612b24565b6040516115bc91906134c4565b60405180910390f35b6115cd612b3c565b6040516115da91906134c4565b60405180910390f35b6115eb612b54565b6040516115f891906134c4565b60405180910390f35b611609612b6c565b60405161161691906134c4565b60405180910390f35b611627612b84565b60405161163491906134c4565b60405180910390f35b611645612b9c565b60405161165291906134c4565b60405180910390f35b611663612bb4565b60405161167091906134c4565b60405180910390f35b611681612bcc565b60405161168e91906134c4565b60405180910390f35b61169f612be4565b6040516116ac91906134c4565b60405180910390f35b6116bd612bfc565b6040516116ca91906134c4565b60405180910390f35b6116db612c14565b6040516116e891906134c4565b60405180910390f35b6116f9612c2c565b60405161170691906134c4565b60405180910390f35b611717612c44565b60405161172491906134c4565b60405180910390f35b611735612c5c565b60405161174291906134c4565b60405180910390f35b611753612c74565b60405161176091906134c4565b60405180910390f35b611771612c8c565b60405161177e91906134fb565b60405180910390f35b61178f612c92565b60405161179c91906134c4565b60405180910390f35b6117ad612ca9565b6040516117ba91906134c4565b60405180910390f35b6117cb612cc1565b6040516117d891906134c4565b60405180910390f35b6117e9612cd9565b6040516117f691906134c4565b60405180910390f35b611807612cf1565b60405161181491906134c4565b60405180910390f35b611825612d09565b60405161183291906134c4565b60405180910390f35b611843612d21565b60405161185091906135bc565b60405180910390f35b611861612d27565b60405161186e91906134c4565b60405180910390f35b61187f612d3f565b60405161188c91906134c4565b60405180910390f35b61189d612d57565b6040516118aa91906134c4565b60405180910390f35b6118bb612d6f565b6040516118c891906134c4565b60405180910390f35b6118d9612d87565b6040516118e691906134c4565b60405180910390f35b6118f7612d9f565b60405161190491906134c4565b60405180910390f35b611915612db7565b60405161192291906134c4565b60405180910390f35b611933612dcf565b60405161194091906134c4565b60405180910390f35b611951612de7565b60405161195e91906134c4565b60405180910390f35b61196f612dff565b60405161197c91906134c4565b60405180910390f35b61198d612e17565b60405161199a91906134c4565b60405180910390f35b6119ab612e2f565b6040516119b891906134c4565b60405180910390f35b6119c9612e47565b6040516119d691906134c4565b60405180910390f35b6119e7612e5f565b6040516119f491906134c4565b60405180910390f35b611a05612e77565b604051611a1291906134c4565b60405180910390f35b611a23612e8f565b604051611a3091906134fb565b60405180910390f35b611a41612e95565b604051611a4e91906134fb565b60405180910390f35b611a5f612e9b565b604051611a6c91906134c4565b60405180910390f35b611a7d612eb3565b604051611a8a91906134c4565b60405180910390f35b611a9b612ecb565b604051611aa891906134c4565b60405180910390f35b611ab9612ee3565b604051611ac691906134c4565b60405180910390f35b611ad7612efb565b604051611ae491906134c4565b60405180910390f35b611af5612f13565b604051611b0291906134c4565b60405180910390f35b611b13612f2b565b604051611b2091906134c4565b60405180910390f35b611b31612f50565b604051611b3e91906134c4565b60405180910390f35b611b4f612f68565b604051611b5c91906134c4565b60405180910390f35b611b6d612f80565b604051611b7a91906134c4565b60405180910390f35b611b8b612f98565b604051611b9891906134c4565b60405180910390f35b611ba9612fb0565b604051611bb691906134c4565b60405180910390f35b611bc7612fc8565b604051611bd491906134c4565b60405180910390f35b611be5612fe0565b604051611bf291906134c4565b60405180910390f35b611c03612ff8565b604051611c1091906134c4565b60405180910390f35b611c21613010565b604051611c2e91906134c4565b60405180910390f35b611c3f613028565b604051611c4c91906134c4565b60405180910390f35b611c5d613040565b604051611c6a91906134c4565b60405180910390f35b611c7b613058565b604051611c8891906134c4565b60405180910390f35b611c99613070565b604051611ca691906134c4565b60405180910390f35b611cb7613088565b604051611cc491906134c4565b60405180910390f35b611cd56130a0565b604051611ce291906134c4565b60405180910390f35b611cf36130b8565b604051611d0091906134c4565b60405180910390f35b611d116130d0565b604051611d1e91906134c4565b60405180910390f35b611d2f6130e8565b604051611d3c91906134c4565b60405180910390f35b611d4d613100565b604051611d5a91906134c4565b60405180910390f35b611d6b613118565b604051611d7891906134c4565b60405180910390f35b611d89613130565b604051611d9691906134c4565b60405180910390f35b611da7613148565b604051611db491906134c4565b60405180910390f35b611dc5613160565b604051611dd291906134c4565b60405180910390f35b611de3613185565b604051611df091906134c4565b60405180910390f35b611e01613189565b604051611e0e91906134c4565b60405180910390f35b611e1f6131a1565b604051611e2c91906134c4565b60405180910390f35b611e3d6131b9565b604051611e4a91906134c4565b60405180910390f35b611e5b6131d1565b604051611e6891906134c4565b60405180910390f35b611e796131e9565b604051611e8691906134c4565b60405180910390f35b611e97613201565b604051611ea491906135bc565b60405180910390f35b611eb5613225565b604051611ec291906134c4565b60405180910390f35b611ed361323d565b604051611ee091906135bc565b60405180910390f35b611ef1613261565b604051611efe91906134c4565b60405180910390f35b611f0f613279565b604051611f1c91906134c4565b60405180910390f35b611f2d613291565b604051611f3a91906134c4565b60405180910390f35b611f4b6132a9565b604051611f5891906134c4565b60405180910390f35b611f696132c1565b604051611f7691906134c4565b60405180910390f35b611f876132d9565b604051611f9491906134c4565b60405180910390f35b611fa56132f1565b604051611fb291906134c4565b60405180910390f35b611fc3613309565b604051611fd091906134c4565b60405180910390f35b611fe161332e565b604051611fee91906134fb565b60405180910390f35b611fff613334565b60405161200c91906134c4565b60405180910390f35b61201d61334c565b60405161202a91906134c4565b60405180910390f35b61203b613364565b60405161204891906135bc565b60405180910390f35b612059613388565b60405161206691906134c4565b60405180910390f35b6120776133a0565b60405161208491906134c4565b60405180910390f35b6120956133b8565b6040516120a291906134c4565b60405180910390f35b6120b36133dd565b6040516120c091906134c4565b60405180910390f35b6120d16133f5565b6040516120de91906134c4565b60405180910390f35b6120ef61340d565b6040516120fc91906134c4565b60405180910390f35b61210d613425565b60405161211a91906134c4565b60405180910390f35b61212b61343d565b60405161213891906134c4565b60405180910390f35b612149613455565b60405161215691906134c4565b60405180910390f35b61216761346d565b60405161217491906134c4565b60405180910390f35b73c327486db1417644f201d84414bbea6c8a948bef81565b7310fd0d8280e94d0dbc3013b778ef26d47105ea7b81565b73c3be8ab4ca0cefe3119a765b324bbdf54a16a65b81565b600e5f9054906101000a900473ffffffffffffffffffffffffffffffffffffffff1681565b73fe5138a42dc1fc335455b505e036784a33f7f10281565b739454f0eabc7c4ea9ebf89190b8bf9051a0468e0381565b73ec32cc0267002618c339274c18ad48d2bf2a9c7e81565b73ad063b1915bf95fb32f79138c0b668f23267633381565b7353d7f02e72d62f7b7b41f6b622a7d79694bed96681565b7398a8345bb9d3dda9d808ca1c9142a28f6b0430e181565b7346638ad472507482b7d5ba45124e93d16bc97ece81565b600d5f9054906101000a900473ffffffffffffffffffffffffffffffffffffffff1681565b73fc7920756b2983af98c5edd94034f748eef25aef81565b60035f9054906101000a900473ffffffffffffffffffffffffffffffffffffffff1681565b738fed03c9d8ed1237b76be271a49d11cce5dfd81e81565b600c5f9054906101000a900473ffffffffffffffffffffffffffffffffffffffff1681565b73e1a12515f9ab2764b887bf60b923ca494ebbb2d681565b6175e881565b73af9842adacb4b2fa619d45fe11579fae5faf169881565b6175c681565b735e66de02c77ea971bbd2bc37a31cc9860e6a01d381565b736c454d20f4cb5f69e2d66693fa8dee931d7432df81565b601880546123aa90613602565b80601f01602080910402602001604051908101604052809291908181526020018280546123d690613602565b80156124215780601f106123f857610100808354040283529160200191612421565b820191905f5260205f20905b81548152906001019060200180831161240457829003601f168201915b505050505081565b737bb55d2d27194a25517f8a47cdaf227fd413dca681565b73bdc661eecb0dcfb940a34008e0190c9103013c4181565b73da5d036f51bd6fe5e32915a53595b71312d45f9181565b731effdcf81a95398920e024bb3b9ff60ce14590e781565b739e059a54699a285714207b43b055483e78faac2581565b73ec32cc0267002618c339274c18ad48d2bf2a9c7e81565b73f0d1c69cc148db2437131a5a736d77fd6fa20b4781565b73d506b22a6b3216b736021fa262d0f5d686e07b3581565b731d6f6dbd68bd438950c37b1d514e49306f65291e81565b736edce65403992e310a62460808c4b910d972f10f81565b73d077a400968890eacc75cdc901f0356c943e4fdb81565b73ecc446a3219da4594d5ede8314f500212e496e1781565b60025f9054906101000a900473ffffffffffffffffffffffffffffffffffffffff1681565b737b3c20d2b3f8c205f624e62d356354ed1ae9f64b81565b739454f0eabc7c4ea9ebf89190b8bf9051a0468e0381565b5f5f9054906101000a900473ffffffffffffffffffffffffffffffffffffffff1681565b73dbbb07e1ae9d0f23ac6da9bdda3dff96fca7365081565b73acde1f22eeab249d3ca6ba8805c8fee9f52a16e781565b73e1a12515f9ab2764b887bf60b923ca494ebbb2d681565b73ebb7a56fd2d0231a9bf7240542cbd09a641a29fc81565b73fc4ea96c3de3ba60516976390fa4e945a0b8817b81565b7396949b9f94b84eeb2b590aec033a825f17d5d6dd81565b734c8962833db7206fd45671e9dc806e4fcc0dcb7881565b600a5f9054906101000a900473ffffffffffffffffffffffffffffffffffffffff1681565b73057852e8211698a22953e0343aae24e446ecf10581565b60055f9054906101000a900473ffffffffffffffffffffffffffffffffffffffff1681565b739714ccf1dedef14bab5013625db92746c1358cb481565b73bdc661eecb0dcfb940a34008e0190c9103013c4181565b60015f9054906101000a900473ffffffffffffffffffffffffffffffffffffffff1681565b60045f9054906101000a900473ffffffffffffffffffffffffffffffffffffffff1681565b731a44076050125825900e736c501f859c50fe728c81565b73a7b5189bca84cd304d8553977c7c614329750d9981565b7312523de19dc41c91f7d2093e0cfbb76b17012c8d81565b600181565b73ec0906949f88f72bf9206e84764163e24a56a49981565b73034cf520e48c7e87763466949058965f7a5a318181565b731a44076050125825900e736c501f859c50fe728c81565b73df05e9abf64da281b3cbd8ac3581022ec4841fb281565b73c72f2eb4a97f19ecd0c10b5201676a10b6d8bb6781565b7333d56fc7ef4b54a8c358548cea3d9aead1619ee981565b7346638ad472507482b7d5ba45124e93d16bc97ece81565b73c7e9cf4bc5f6c43e1410ffa33436287968003ace81565b73c70ab6f32772f59fbfc23889caf4ba3376c84baf81565b73374427909212b29fcc3ffe8e7920a190a3031cb881565b739e77f602e0ec09078f9ba50c9a453edc795b0a4e81565b7333e5fcc13d7439cc62d54c41aa966197145b3cd781565b73c28446267b3c9a733d6c7419535b883908e5581381565b73f3f7c9320b0dbf780092daaab740b7b85552225881565b732cca08ae69e0c44b18a57ab2a87644234daebae481565b73da5d036f51bd6fe5e32915a53595b71312d45f9181565b73a324880f884036e3d21a09b90269e1ac57c7ec8a81565b736d68a52bc77f2eac3582a7072ead94c19b9f480c81565b73ae1b8d3b428d6a8f62df2f623081eac8734168fe81565b7319aac5f612f524b754ca7e7c41cbfa2e981a443281565b738beee743829af63f5b37e52d5ef8477ef12511de81565b73684a2aaf3d98bc8ed2c07988e8da9023026ad51181565b733705620c09d43935c00852d3610e31c942595ce881565b73487b1e0177b3ac1aca7e8c353ed0df133593a8eb81565b73fde4c96c8593536e31f229ea8f37b2ada2699bb281565b733a1353926e2c1ada7acc93a6fbe73c1ec6b1e93181565b600b5f9054906101000a900473ffffffffffffffffffffffffffffffffffffffff1681565b7fa49807205ce4d355092ef5a8a18f56e8913cf4a201fbe287825b095693c2177581565b73677f0172ff3e8eef477ce811ed57a85b8d8a3bda81565b7334730f2570e6cff8b1c91faabf37d0dd917c436781565b73ceb5c8903060197e46ab5ea5087b9f99cbc8da4981565b73677f0172ff3e8eef477ce811ed57a85b8d8a3bda81565b7343bb8beb166c8786c50a9d1d5c8482d667cf981a81565b73920cd2f6e139b6c40053bcd5f67923d1d7dd314081565b731e68394dbd41f77adf0644ce47b25d1023d664b181565b7302a66b51fc24e08535a6cfe1e11e532d8a08921281565b73eb36aa674745c48381aa3a8074e5485586dbd30881565b73fe4f79ea2211660a221bed8b4e2de7eb8579fe6781565b73ddf3266feaa899accf805f4379e5137144cb0a7d81565b739a289b849b32ff69a95f8584a03343a33ff6e5fd81565b73560bd1836c348c4a10eed7008e68ae58228dd11781565b73e4fe9782b809b7d66f0dcd10157275d2c4e4898d81565b73b516190f8192cceaf8b1da7d9ca1c6c75b9f410c81565b735c368bd6ce77b2ca47b4ba791fcc1f1645591c8481565b738a3d588d9f6ac041476b094f97ff94ec30169d3d81565b738a3d588d9f6ac041476b094f97ff94ec30169d3d81565b73937aba873827bf883ced83ca557697427eaa46ee81565b73394239573079a46e438ea6d118fd96d37a61f27081565b73a628a83cc869b82a684895f628029eb90ee6022481565b735c43afab54bd5e5568d0ad54ea60d4d065303c3581565b7304c37dc1b538e00b31e6bc883e16d97cd7937a1081565b73e4fe9782b809b7d66f0dcd10157275d2c4e4898d81565b619d3581565b727f735fd070ded4b0b58d430c392ff0190ec20f81565b738b9b67b22ab2ed6ee324c2fd43734dbd2dddd04581565b733703a1da99a2bdf2d8ce57802aacb20fb546ff1281565b7360377628d1733fe0fb64d8b84466b461974da60a81565b737b3c20d2b3f8c205f624e62d356354ed1ae9f64b81565b735ddbbc68527214e0aca3b4175860080cbdaa12ff81565b5f5f1b81565b739454f0eabc7c4ea9ebf89190b8bf9051a0468e0381565b734852bc014401415c4ce4788a04cab019d1527aaa81565b73ceb5c8903060197e46ab5ea5087b9f99cbc8da4981565b736ab9c1aaf4f8172138086aa72be2ab8aa6579dbd81565b736bd925aa58325fba65ea7d4412ddb2e5d2d9427d81565b73b0e96105543cba4b3d82911e7336f19bd03b036081565b73c80233ad8251e668becbc3b0415707fc7075501e81565b731385df17f009f88e6ca1380798bf20b0669c8ee081565b7326991986aec6748f439940949b7487341800638381565b7333faba0e0ce340afc4fb03038151ff7ee1d5f95b81565b73b83e44f1d59bd8743ae45816acd5622fa1a5624d81565b73175867caf278eb0610f216f3e0a6e671f2382e2281565b7374e79e900a20d841d9af9fc5361cefea9a3247c281565b73420000000000000000000000000000000000000681565b739bd31b110c559884c49d1ba3e60c1724f2e336a781565b619cd681565b6175ae81565b739025095263d1e548dc890a7589a4c78038ac40ab81565b73943fcc03799400a672a8f82907d3a320fa76efc181565b737f047526f942147a228f2709bb66a3bdea71ed2681565b73684a2aaf3d98bc8ed2c07988e8da9023026ad51181565b73f8af5114ad19422e059797ca2515febd8bc06bd181565b73a971cd2714fbcc9a942b09bc391a724df933820681565b60095f9054906101000a900473ffffffffffffffffffffffffffffffffffffffff1681565b7346da9f76c20a752132ddaefd2b14870e0a152d7181565b73c1868e054425d378095a003ecba3823a5d0135c981565b73eac136456d078bb76f59dccb2d5e008b31afe1cf81565b73a5b25a041cfc241f2b808b3298e2cb7ceb5dfcd281565b7315858a57854bbf0df60a737811d50e1ee785f9bc81565b73d8d5edce9f0e3544d2a712818232fda7502ba1a681565b735e6aad48fb0a23e9540a5eaffb87846e8ef04c4281565b73e4fe9782b809b7d66f0dcd10157275d2c4e4898d81565b73bd699511ce18407485d8572ef0fba783283fd98281565b73f15f575095a37a0325182c49a45fe05f09fc6b4d81565b73c72f2eb4a97f19ecd0c10b5201676a10b6d8bb6781565b733703a1da99a2bdf2d8ce57802aacb20fb546ff1281565b7331fc86e13108a098830eea63a8a9f6d80dfc89aa81565b733de8c22f6b84c575429c1b9cbf5bddd49cf129fc81565b73e1a12515f9ab2764b887bf60b923ca494ebbb2d681565b731154d04d07aee26ff2c200bd373eb76a7e5694d681565b73c3be8ab4ca0cefe3119a765b324bbdf54a16a65b81565b73718b1b67f287571767452cc7d24bcd95c63dba1381565b7339926da4905f5edb956f5db5f2e2ff044e0882b281565b73b5320b0b3a13cc860893e2bd79fcd7e13484dda281565b73fbc915dc39654b52b2e9284fb966c79a1071ea3a81565b73649ef2a788732900b82237c126a121be3282997c81565b60085f9054906101000a900473ffffffffffffffffffffffffffffffffffffffff1681565b5f81565b73530f48df8e4d60bbf9bbcfe8cf584344514af19381565b731a44076050125825900e736c501f859c50fe728c81565b739eaa6ec9e0b55948309eb320166312cb0807b6de81565b73c746b3aab0c6da075c9b7b43ceebd437ef759d5b81565b73554833698ae0fb22ecc90b01222903fd62ca4b4781565b7fb19546dff01e856fb3f010c267a7b1c60363cf8a4664e21cc89c26224620214e81565b73e149187a987f129fd3d397ed04a60b0b89d1669f81565b7f65d7a28e3265b37a6474929f336521b332c1681b933f6cb9f3376673440d862a81565b73981846be8d2d697f4dfef6689a161a25ffbab8f981565b736edce65403992e310a62460808c4b910d972f10f81565b7310fd0d8280e94d0dbc3013b778ef26d47105ea7b81565b738bf79e425b54ecd75907b4eda00dced8c1a97db081565b73cfaf23d5d5f144f66a13e05a41b97c0c23aa4e1f81565b73886ba47579dc4f5dcb53ffd20429089a7788c07281565b734ba8d8083e7f3652ccb084c32652e68566e9ef2381565b60065f9054906101000a900473ffffffffffffffffffffffffffffffffffffffff1681565b619d3681565b7346da9f76c20a752132ddaefd2b14870e0a152d7181565b73252d67d23308646cf6dae32a826de24ba21e7c1281565b7f189ab7a9244df0848122154315af71fe140f3db0fe014031783b0946b8c9d2e381565b73e2e025ff8a8adb2561e3c631b5a03842b9a1ae8881565b7371c184d899c1774d597d8d80526fb02df708a69a81565b60075f9054906101000a900473ffffffffffffffffffffffffffffffffffffffff1681565b730555e30da8f98308edb960aa94c0db47230d2b9c81565b7331fc86e13108a098830eea63a8a9f6d80dfc89aa81565b732f4c6eea955e95e6d65e08620d980c0e0e92211f81565b73f6d95eeff99e171bb150d736eb2be23c9cf6a6ef81565b736c71b7bbde382f12165d5f7749b5fd37965b1e8a81565b73e5d4c481e25880ead3a1647a210a9f219204f3ca81565b736edce65403992e310a62460808c4b910d972f10f81565b5f73ffffffffffffffffffffffffffffffffffffffff82169050919050565b5f6134ae82613485565b9050919050565b6134be816134a4565b82525050565b5f6020820190506134d75f8301846134b5565b92915050565b5f63ffffffff82169050919050565b6134f5816134dd565b82525050565b5f60208201905061350e5f8301846134ec565b92915050565b5f81519050919050565b5f82825260208201905092915050565b8281835e5f83830152505050565b5f601f19601f8301169050919050565b5f61355682613514565b613560818561351e565b935061357081856020860161352e565b6135798161353c565b840191505092915050565b5f6020820190508181035f83015261359c818461354c565b905092915050565b5f819050919050565b6135b6816135a4565b82525050565b5f6020820190506135cf5f8301846135ad565b92915050565b7f4e487b71000000000000000000000000000000000000000000000000000000005f52602260045260245ffd5b5f600282049050600182168061361957607f821691505b60208210810361362c5761362b6135d5565b5b5091905056fea2646970667358221220631c9ab91e5c685e03880b45d5cc4509d30501b16575c35ba7534d9906e5df2264736f6c634300081e0033","linkReferences":{}},"methodIdentifiers":{"ADMIN_ROLE()":"75b238fc","BASE_DVN1()":"e5120c47","BASE_DVN2()":"4190110d","BASE_DVN3()":"21f564bc","BASE_EID()":"15f88c92","BASE_EXECUTOR()":"5ac6d96d","BASE_KAIA()":"de439f50","BASE_LZ_ENDPOINT()":"e1001432","BASE_M0CK_WKAIA()":"5a432080","BASE_MOCK_USDT()":"1d4f0841","BASE_MOCK_USDT_ELEVATED_MINTER_BURNER()":"ac7fb1b7","BASE_MOCK_WKAIA_ELEVATED_MINTER_BURNER()":"b4fa0694","BASE_OAPP_ADAPTER()":"80531169","BASE_OAPP_SUPPLY_LIQUIDITY_USDT()":"543e593a","BASE_OFT_MOCK_USDT_ADAPTER()":"86cfc33e","BASE_OFT_MOCK_WKAIA_ADAPTER()":"e4154799","BASE_OFT_SKAIA_ADAPTER()":"b5300a3b","BASE_OFT_SUSDT_ADAPTER()":"08ff3f12","BASE_OFT_SWBTC_ADAPTER()":"1fe42bff","BASE_OFT_SWETH_ADAPTER()":"fd9eef04","BASE_OFT_SWKAIA_ADAPTER()":"aded9a19","BASE_RECEIVE_LIB()":"529f0d50","BASE_SEND_LIB()":"d4c73083","BASE_SKAIA()":"f4be7504","BASE_SKAIA_ELEVATED_MINTER_BURNER()":"efffd77c","BASE_SUSDT()":"cf642cc9","BASE_SUSDT_ELEVATED_MINTER_BURNER()":"1f8a2428","BASE_SWBTC()":"90406054","BASE_SWBTC_ELEVATED_MINTER_BURNER()":"c304e508","BASE_SWETH()":"08f40bed","BASE_SWETH_ELEVATED_MINTER_BURNER()":"12e7902a","BASE_SWKAIA()":"c5e4a509","BASE_SWKAIA_ELEVATED_MINTER_BURNER()":"ba91cd43","BASE_TESTNET_DVN1()":"ce8b78bc","BASE_TESTNET_DVN2()":"3269958e","BASE_TESTNET_DVN3()":"1492d3fc","BASE_TESTNET_EID()":"94a15d04","BASE_TESTNET_EXECUTOR()":"8f366638","BASE_TESTNET_LZ_ENDPOINT()":"27e6d4a1","BASE_TESTNET_RECEIVE_LIB()":"437ad10f","BASE_TESTNET_SEND_LIB()":"b96e686a","BASE_USDT()":"709b9036","BASE_WBTC()":"fa9be367","BASE_WETH()":"b07e4297","BTC_USDT()":"2cf0eb05","DEFAULT_ADMIN_ROLE()":"a217fddf","ETH_USDT()":"b259d964","GLMR_DVN1()":"565fcaac","GLMR_DVN2()":"7b49a635","GLMR_DVN3()":"95df5838","GLMR_EID()":"b3a98105","GLMR_EXECUTOR()":"470ebcb0","GLMR_LZ_ENDPOINT()":"413b777a","GLMR_RECEIVE_LIB()":"fbdf0593","GLMR_SEND_LIB()":"ba717f86","KAIA_BTC_USDT_ADAPTER()":"98489dff","KAIA_DEX_ROUTER()":"5dd65d31","KAIA_DVN1()":"cea90728","KAIA_DVN2()":"2fa99666","KAIA_DVN3()":"ab562ddd","KAIA_EID()":"18567e88","KAIA_ETH_USDT_ADAPTER()":"2f9668e6","KAIA_EXECUTOR()":"e5933998","KAIA_HELPER_UTILS()":"ca4b481c","KAIA_IS_HEALTHY()":"3b97322b","KAIA_KAIA()":"450036c9","KAIA_KAIA_USDT_ADAPTER()":"4fefc38c","KAIA_LENDING_POOL_DEPLOYER()":"75df4307","KAIA_LENDING_POOL_FACTORY_IMPLEMENTATION()":"59c56692","KAIA_LENDING_POOL_FACTORY_PROXY()":"b5f0848d","KAIA_LENDING_POOL_ROUTER_DEPLOYER()":"990ef31d","KAIA_LIQUIDATOR()":"e07e02cc","KAIA_LZ_ENDPOINT()":"48d8d455","KAIA_MOCK_USDT()":"a7b395f2","KAIA_MOCK_USDT_ELEVATED_MINTER_BURNER()":"90df5b1a","KAIA_MOCK_WBTC()":"ef54e76f","KAIA_MOCK_WETH()":"d9edc888","KAIA_MOCK_WKAIA()":"b53b808e","KAIA_MOCK_WKAIA_ELEVATED_MINTER_BURNER()":"511856cd","KAIA_OAPP_SUPPLY_LIQUIDITY_USDT()":"b5a98911","KAIA_OFT_MOCK_USDT_ADAPTER()":"16c67bab","KAIA_OFT_MOCK_WKAIA_ADAPTER()":"5d9fb53d","KAIA_OFT_USDT_ADAPTER()":"634a8eee","KAIA_OFT_USDT_STARGATE_ADAPTER()":"80b6403b","KAIA_OFT_WBTC_ADAPTER()":"07e24762","KAIA_OFT_WETH_ADAPTER()":"aaf0e6eb","KAIA_OFT_WKAIA_ADAPTER()":"a016a1d7","KAIA_POSITION_DEPLOYER()":"aba30cca","KAIA_PROTOCOL()":"c025fe3c","KAIA_RECEIVE_LIB()":"8fd510cc","KAIA_SEND_LIB()":"3cdda029","KAIA_TESTNET_DVN1()":"87c7f7c9","KAIA_TESTNET_DVN2()":"92e926bb","KAIA_TESTNET_DVN3()":"c1a1680e","KAIA_TESTNET_EID()":"b2d04031","KAIA_TESTNET_EXECUTOR()":"85623f59","KAIA_TESTNET_HELPER_UTILS()":"fd455f75","KAIA_TESTNET_INTEREST_RATE_MODEL()":"c2abf750","KAIA_TESTNET_INTEREST_RATE_MODEL_IMPLEMENTATION()":"379ca0db","KAIA_TESTNET_IS_HEALTHY()":"7e7414c2","KAIA_TESTNET_IS_HEALTHY_IMPLEMENTATION()":"ae5c039d","KAIA_TESTNET_LENDING_POOL_DEPLOYER()":"55fc02fa","KAIA_TESTNET_LENDING_POOL_FACTORY()":"6c50cc29","KAIA_TESTNET_LENDING_POOL_FACTORY_IMPLEMENTATION()":"4d99ba08","KAIA_TESTNET_LENDING_POOL_ROUTER_DEPLOYER()":"71b9a718","KAIA_TESTNET_LZ_ENDPOINT()":"eba82c1e","KAIA_TESTNET_MOCK_DEX()":"ed584073","KAIA_TESTNET_MOCK_USDT()":"84af6aef","KAIA_TESTNET_MOCK_WETH()":"2f0249bc","KAIA_TESTNET_MOCK_WKAIA()":"84f9199e","KAIA_TESTNET_POSITION_DEPLOYER()":"471f1075","KAIA_TESTNET_PROTOCOL()":"68ebdd5e","KAIA_TESTNET_PROXY_DEPLOYER()":"f678f032","KAIA_TESTNET_RECEIVE_LIB()":"3573070d","KAIA_TESTNET_SEND_LIB()":"aa56b57a","KAIA_TESTNET_SHARES_TOKEN_DEPLOYER()":"1a3ca3b1","KAIA_TESTNET_SUPALA_EMITTER()":"80185b00","KAIA_TESTNET_SUPALA_EMITTER_IMPLEMENTATION()":"10d5dd4e","KAIA_TESTNET_TOKEN_DATA_STREAM()":"d5fda4b7","KAIA_TESTNET_TOKEN_DATA_STREAM_IMPLEMENTATION()":"21fba235","KAIA_TESTNET_USDT_ELEVATED_MINTER_BURNER()":"34392809","KAIA_TESTNET_USDT_OFT_ADAPTER()":"848dc5e9","KAIA_TESTNET_WETH_ELEVATED_MINTER_BURNER()":"3da090c0","KAIA_TESTNET_WETH_OFT_ADAPTER()":"c7908451","KAIA_TESTNET_WKAIA_ELEVATED_MINTER_BURNER()":"09315fa9","KAIA_TESTNET_WKAIA_OFT_ADAPTER()":"235feefd","KAIA_USDT()":"2a715dd7","KAIA_USDT_STARGATE()":"b430bac5","KAIA_USDT_USD_ADAPTER()":"c41ad641","KAIA_WBTC()":"eb3789bb","KAIA_WETH()":"0b54fe1e","KAIA_WKAIA()":"67406d42","MANTLE_TESTNET_DVN1()":"2f084bf4","MANTLE_TESTNET_DVN2()":"07ff60a1","MANTLE_TESTNET_DVN3()":"a78df687","MANTLE_TESTNET_EID()":"f31d7443","MANTLE_TESTNET_EXECUTOR()":"67d197c2","MANTLE_TESTNET_HELPER_UTILS()":"1baa220f","MANTLE_TESTNET_INTEREST_RATE_MODEL()":"1e538350","MANTLE_TESTNET_INTEREST_RATE_MODEL_IMPLEMENTATION()":"9196bfa0","MANTLE_TESTNET_IS_HEALTHY()":"f82e9691","MANTLE_TESTNET_IS_HEALTHY_IMPLEMENTATION()":"04cee161","MANTLE_TESTNET_LENDING_POOL_DEPLOYER()":"fb7a69a5","MANTLE_TESTNET_LENDING_POOL_FACTORY()":"b9261ba4","MANTLE_TESTNET_LENDING_POOL_FACTORY_IMPLEMENTATION()":"d0ff1a04","MANTLE_TESTNET_LENDING_POOL_ROUTER_DEPLOYER()":"84ad5239","MANTLE_TESTNET_LZ_ENDPOINT()":"fefcbc47","MANTLE_TESTNET_MOCK_DEX()":"8d7b0cda","MANTLE_TESTNET_MOCK_USDC()":"924ff369","MANTLE_TESTNET_MOCK_USDT()":"49dfa966","MANTLE_TESTNET_MOCK_WBTC()":"95be1111","MANTLE_TESTNET_MOCK_WETH()":"f2ba7e01","MANTLE_TESTNET_MOCK_WMNT()":"bd7ad9d6","MANTLE_TESTNET_POSITION_DEPLOYER()":"a7958314","MANTLE_TESTNET_PROTOCOL()":"c13b0f17","MANTLE_TESTNET_PROXY_DEPLOYER()":"8ca4b7e3","MANTLE_TESTNET_RECEIVE_LIB()":"8dd73f6b","MANTLE_TESTNET_SEND_LIB()":"85822d6e","MANTLE_TESTNET_SHARES_TOKEN_DEPLOYER()":"ad6afeef","MANTLE_TESTNET_SUPALA_EMITTER()":"0b624f7f","MANTLE_TESTNET_SUPALA_EMITTER_IMPLEMENTATION()":"4adeb12a","MANTLE_TESTNET_TOKEN_DATA_STREAM()":"04982fca","MANTLE_TESTNET_TOKEN_DATA_STREAM_IMPLEMENTATION()":"9f09202d","MANTLE_TESTNET_USDC_ELEVATED_MINTER_BURNER()":"a84bf70e","MANTLE_TESTNET_USDC_OFT_ADAPTER()":"f1fb0193","MANTLE_TESTNET_USDT_ELEVATED_MINTER_BURNER()":"ae3676fb","MANTLE_TESTNET_USDT_OFT_ADAPTER()":"0431f17d","MANTLE_TESTNET_WBTC_ELEVATED_MINTER_BURNER()":"fe96e490","MANTLE_TESTNET_WBTC_OFT_ADAPTER()":"e4b00434","MANTLE_TESTNET_WETH_ELEVATED_MINTER_BURNER()":"2259fe8d","MANTLE_TESTNET_WETH_OFT_ADAPTER()":"6e7ec259","MANTLE_TESTNET_WMNT_ELEVATED_MINTER_BURNER()":"d48f4ee0","MANTLE_TESTNET_WMNT_OFT_ADAPTER()":"6420c205","NATIVE_USDT()":"37a4332a","OWNER_ROLE()":"e58378bb","PAUSER_ROLE()":"e63ab1e9","UPGRADER_ROLE()":"f72c0d8b","USDC_USD()":"269ae32d","USDT_USD()":"f85a16c8","btcUsdtAdapter()":"b908f70a","chainName()":"1c93b03a","dexRouter()":"0758d924","ethUsdtAdapter()":"dbc14a19","native()":"11b0b42d","nativeUsdtAdapter()":"f89b03da","oftNativeAdapter()":"73d095e4","oftNativeOriAdapter()":"3ab51ac8","oftUsdtAdapter()":"0d574d0d","oftWethAdapter()":"1335bc29","usdc()":"3e413bee","usdt()":"2f48ab7d","usdtUsdAdapter()":"f2e78435","wNative()":"2d68efc9","wbtc()":"3cdc5389","weth()":"3fc8cef3"},"id":100}