{"abi":[{"type":"function","name":"ADMIN_ROLE","inputs":[],"outputs":[{"name":"","type":"bytes32","internalType":"bytes32"}],"stateMutability":"view"},{"type":"function","name":"BASE_DVN1","inputs":[],"outputs":[{"name":"","type":"address","internalType":"address"}],"stateMutability":"view"},{"type":"function","name":"BASE_DVN2","inputs":[],"outputs":[{"name":"","type":"address","internalType":"address"}],"stateMutability":"view"},{"type":"function","name":"BASE_DVN3","inputs":[],"outputs":[{"name":"","type":"address","internalType":"address"}],"stateMutability":"view"},{"type":"function","name":"BASE_EID","inputs":[],"outputs":[{"name":"","type":"uint32","internalType":"uint32"}],"stateMutability":"view"},{"type":"function","name":"BASE_EXECUTOR","inputs":[],"outputs":[{"name":"","type":"address","internalType":"address"}],"stateMutability":"view"},{"type":"function","name":"BASE_KAIA","inputs":[],"outputs":[{"name":"","type":"address","internalType":"address"}],"stateMutability":"view"},{"type":"function","name":"BASE_LZ_ENDPOINT","inputs":[],"outputs":[{"name":"","type":"address","internalType":"address"}],"stateMutability":"view"},{"type":"function","name":"BASE_M0CK_WKAIA","inputs":[],"outputs":[{"name":"","type":"address","internalType":"address"}],"stateMutability":"view"},{"type":"function","name":"BASE_MOCK_USDT","inputs":[],"outputs":[{"name":"","type":"address","internalType":"address"}],"stateMutability":"view"},{"type":"function","name":"BASE_MOCK_USDT_ELEVATED_MINTER_BURNER","inputs":[],"outputs":[{"name":"","type":"address","internalType":"address"}],"stateMutability":"view"},{"type":"function","name":"BASE_MOCK_WKAIA_ELEVATED_MINTER_BURNER","inputs":[],"outputs":[{"name":"","type":"address","internalType":"address"}],"stateMutability":"view"},{"type":"function","name":"BASE_OAPP_ADAPTER","inputs":[],"outputs":[{"name":"","type":"address","internalType":"address"}],"stateMutability":"view"},{"type":"function","name":"BASE_OAPP_SUPPLY_LIQUIDITY_USDT","inputs":[],"outputs":[{"name":"","type":"address","internalType":"address"}],"stateMutability":"view"},{"type":"function","name":"BASE_OFT_MOCK_USDT_ADAPTER","inputs":[],"outputs":[{"name":"","type":"address","internalType":"address"}],"stateMutability":"view"},{"type":"function","name":"BASE_OFT_MOCK_WKAIA_ADAPTER","inputs":[],"outputs":[{"name":"","type":"address","internalType":"address"}],"stateMutability":"view"},{"type":"function","name":"BASE_OFT_SKAIA_ADAPTER","inputs":[],"outputs":[{"name":"","type":"address","internalType":"address"}],"stateMutability":"view"},{"type":"function","name":"BASE_OFT_SUSDT_ADAPTER","inputs":[],"outputs":[{"name":"","type":"address","internalType":"address"}],"stateMutability":"view"},{"type":"function","name":"BASE_OFT_SWBTC_ADAPTER","inputs":[],"outputs":[{"name":"","type":"address","internalType":"address"}],"stateMutability":"view"},{"type":"function","name":"BASE_OFT_SWETH_ADAPTER","inputs":[],"outputs":[{"name":"","type":"address","internalType":"address"}],"stateMutability":"view"},{"type":"function","name":"BASE_OFT_SWKAIA_ADAPTER","inputs":[],"outputs":[{"name":"","type":"address","internalType":"address"}],"stateMutability":"view"},{"type":"function","name":"BASE_RECEIVE_LIB","inputs":[],"outputs":[{"name":"","type":"address","internalType":"address"}],"stateMutability":"view"},{"type":"function","name":"BASE_SEND_LIB","inputs":[],"outputs":[{"name":"","type":"address","internalType":"address"}],"stateMutability":"view"},{"type":"function","name":"BASE_SKAIA","inputs":[],"outputs":[{"name":"","type":"address","internalType":"address"}],"stateMutability":"view"},{"type":"function","name":"BASE_SKAIA_ELEVATED_MINTER_BURNER","inputs":[],"outputs":[{"name":"","type":"address","internalType":"address"}],"stateMutability":"view"},{"type":"function","name":"BASE_SUSDT","inputs":[],"outputs":[{"name":"","type":"address","internalType":"address"}],"stateMutability":"view"},{"type":"function","name":"BASE_SUSDT_ELEVATED_MINTER_BURNER","inputs":[],"outputs":[{"name":"","type":"address","internalType":"address"}],"stateMutability":"view"},{"type":"function","name":"BASE_SWBTC","inputs":[],"outputs":[{"name":"","type":"address","internalType":"address"}],"stateMutability":"view"},{"type":"function","name":"BASE_SWBTC_ELEVATED_MINTER_BURNER","inputs":[],"outputs":[{"name":"","type":"address","internalType":"address"}],"stateMutability":"view"},{"type":"function","name":"BASE_SWETH","inputs":[],"outputs":[{"name":"","type":"address","internalType":"address"}],"stateMutability":"view"},{"type":"function","name":"BASE_SWETH_ELEVATED_MINTER_BURNER","inputs":[],"outputs":[{"name":"","type":"address","internalType":"address"}],"stateMutability":"view"},{"type":"function","name":"BASE_SWKAIA","inputs":[],"outputs":[{"name":"","type":"address","internalType":"address"}],"stateMutability":"view"},{"type":"function","name":"BASE_SWKAIA_ELEVATED_MINTER_BURNER","inputs":[],"outputs":[{"name":"","type":"address","internalType":"address"}],"stateMutability":"view"},{"type":"function","name":"BASE_TESTNET_DVN1","inputs":[],"outputs":[{"name":"","type":"address","internalType":"address"}],"stateMutability":"view"},{"type":"function","name":"BASE_TESTNET_DVN2","inputs":[],"outputs":[{"name":"","type":"address","internalType":"address"}],"stateMutability":"view"},{"type":"function","name":"BASE_TESTNET_DVN3","inputs":[],"outputs":[{"name":"","type":"address","internalType":"address"}],"stateMutability":"view"},{"type":"function","name":"BASE_TESTNET_EID","inputs":[],"outputs":[{"name":"","type":"uint32","internalType":"uint32"}],"stateMutability":"view"},{"type":"function","name":"BASE_TESTNET_EXECUTOR","inputs":[],"outputs":[{"name":"","type":"address","internalType":"address"}],"stateMutability":"view"},{"type":"function","name":"BASE_TESTNET_LZ_ENDPOINT","inputs":[],"outputs":[{"name":"","type":"address","internalType":"address"}],"stateMutability":"view"},{"type":"function","name":"BASE_TESTNET_RECEIVE_LIB","inputs":[],"outputs":[{"name":"","type":"address","internalType":"address"}],"stateMutability":"view"},{"type":"function","name":"BASE_TESTNET_SEND_LIB","inputs":[],"outputs":[{"name":"","type":"address","internalType":"address"}],"stateMutability":"view"},{"type":"function","name":"BASE_TESTNET_SUSDC","inputs":[],"outputs":[{"name":"","type":"address","internalType":"address"}],"stateMutability":"view"},{"type":"function","name":"BASE_TESTNET_SUSDC_ELEVATED_MINTER_BURNER","inputs":[],"outputs":[{"name":"","type":"address","internalType":"address"}],"stateMutability":"view"},{"type":"function","name":"BASE_TESTNET_SUSDC_IMPLEMENTATION","inputs":[],"outputs":[{"name":"","type":"address","internalType":"address"}],"stateMutability":"view"},{"type":"function","name":"BASE_TESTNET_SUSDC_OFT_ADAPTER","inputs":[],"outputs":[{"name":"","type":"address","internalType":"address"}],"stateMutability":"view"},{"type":"function","name":"BASE_TESTNET_SUSDT","inputs":[],"outputs":[{"name":"","type":"address","internalType":"address"}],"stateMutability":"view"},{"type":"function","name":"BASE_TESTNET_SUSDT_ELEVATED_MINTER_BURNER","inputs":[],"outputs":[{"name":"","type":"address","internalType":"address"}],"stateMutability":"view"},{"type":"function","name":"BASE_TESTNET_SUSDT_IMPLEMENTATION","inputs":[],"outputs":[{"name":"","type":"address","internalType":"address"}],"stateMutability":"view"},{"type":"function","name":"BASE_TESTNET_SUSDT_OFT_ADAPTER","inputs":[],"outputs":[{"name":"","type":"address","internalType":"address"}],"stateMutability":"view"},{"type":"function","name":"BASE_USDT","inputs":[],"outputs":[{"name":"","type":"address","internalType":"address"}],"stateMutability":"view"},{"type":"function","name":"BASE_WBTC","inputs":[],"outputs":[{"name":"","type":"address","internalType":"address"}],"stateMutability":"view"},{"type":"function","name":"BASE_WETH","inputs":[],"outputs":[{"name":"","type":"address","internalType":"address"}],"stateMutability":"view"},{"type":"function","name":"BTC_USDT","inputs":[],"outputs":[{"name":"","type":"address","internalType":"address"}],"stateMutability":"view"},{"type":"function","name":"DEFAULT_ADMIN_ROLE","inputs":[],"outputs":[{"name":"","type":"bytes32","internalType":"bytes32"}],"stateMutability":"view"},{"type":"function","name":"ETH_USDT","inputs":[],"outputs":[{"name":"","type":"address","internalType":"address"}],"stateMutability":"view"},{"type":"function","name":"GLMR_DVN1","inputs":[],"outputs":[{"name":"","type":"address","internalType":"address"}],"stateMutability":"view"},{"type":"function","name":"GLMR_DVN2","inputs":[],"outputs":[{"name":"","type":"address","internalType":"address"}],"stateMutability":"view"},{"type":"function","name":"GLMR_DVN3","inputs":[],"outputs":[{"name":"","type":"address","internalType":"address"}],"stateMutability":"view"},{"type":"function","name":"GLMR_EID","inputs":[],"outputs":[{"name":"","type":"uint32","internalType":"uint32"}],"stateMutability":"view"},{"type":"function","name":"GLMR_EXECUTOR","inputs":[],"outputs":[{"name":"","type":"address","internalType":"address"}],"stateMutability":"view"},{"type":"function","name":"GLMR_LZ_ENDPOINT","inputs":[],"outputs":[{"name":"","type":"address","internalType":"address"}],"stateMutability":"view"},{"type":"function","name":"GLMR_RECEIVE_LIB","inputs":[],"outputs":[{"name":"","type":"address","internalType":"address"}],"stateMutability":"view"},{"type":"function","name":"GLMR_SEND_LIB","inputs":[],"outputs":[{"name":"","type":"address","internalType":"address"}],"stateMutability":"view"},{"type":"function","name":"KAIA_BTC_USDT_ADAPTER","inputs":[],"outputs":[{"name":"","type":"address","internalType":"address"}],"stateMutability":"view"},{"type":"function","name":"KAIA_DEX_ROUTER","inputs":[],"outputs":[{"name":"","type":"address","internalType":"address"}],"stateMutability":"view"},{"type":"function","name":"KAIA_DVN1","inputs":[],"outputs":[{"name":"","type":"address","internalType":"address"}],"stateMutability":"view"},{"type":"function","name":"KAIA_DVN2","inputs":[],"outputs":[{"name":"","type":"address","internalType":"address"}],"stateMutability":"view"},{"type":"function","name":"KAIA_DVN3","inputs":[],"outputs":[{"name":"","type":"address","internalType":"address"}],"stateMutability":"view"},{"type":"function","name":"KAIA_EID","inputs":[],"outputs":[{"name":"","type":"uint32","internalType":"uint32"}],"stateMutability":"view"},{"type":"function","name":"KAIA_ETH_USDT_ADAPTER","inputs":[],"outputs":[{"name":"","type":"address","internalType":"address"}],"stateMutability":"view"},{"type":"function","name":"KAIA_EXECUTOR","inputs":[],"outputs":[{"name":"","type":"address","internalType":"address"}],"stateMutability":"view"},{"type":"function","name":"KAIA_HELPER_UTILS","inputs":[],"outputs":[{"name":"","type":"address","internalType":"address"}],"stateMutability":"view"},{"type":"function","name":"KAIA_IS_HEALTHY","inputs":[],"outputs":[{"name":"","type":"address","internalType":"address"}],"stateMutability":"view"},{"type":"function","name":"KAIA_KAIA","inputs":[],"outputs":[{"name":"","type":"address","internalType":"address"}],"stateMutability":"view"},{"type":"function","name":"KAIA_KAIA_USDT_ADAPTER","inputs":[],"outputs":[{"name":"","type":"address","internalType":"address"}],"stateMutability":"view"},{"type":"function","name":"KAIA_LENDING_POOL_DEPLOYER","inputs":[],"outputs":[{"name":"","type":"address","internalType":"address"}],"stateMutability":"view"},{"type":"function","name":"KAIA_LENDING_POOL_FACTORY_IMPLEMENTATION","inputs":[],"outputs":[{"name":"","type":"address","internalType":"address"}],"stateMutability":"view"},{"type":"function","name":"KAIA_LENDING_POOL_FACTORY_PROXY","inputs":[],"outputs":[{"name":"","type":"address","internalType":"address"}],"stateMutability":"view"},{"type":"function","name":"KAIA_LENDING_POOL_ROUTER_DEPLOYER","inputs":[],"outputs":[{"name":"","type":"address","internalType":"address"}],"stateMutability":"view"},{"type":"function","name":"KAIA_LIQUIDATOR","inputs":[],"outputs":[{"name":"","type":"address","internalType":"address"}],"stateMutability":"view"},{"type":"function","name":"KAIA_LZ_ENDPOINT","inputs":[],"outputs":[{"name":"","type":"address","internalType":"address"}],"stateMutability":"view"},{"type":"function","name":"KAIA_MOCK_USDT","inputs":[],"outputs":[{"name":"","type":"address","internalType":"address"}],"stateMutability":"view"},{"type":"function","name":"KAIA_MOCK_USDT_ELEVATED_MINTER_BURNER","inputs":[],"outputs":[{"name":"","type":"address","internalType":"address"}],"stateMutability":"view"},{"type":"function","name":"KAIA_MOCK_WBTC","inputs":[],"outputs":[{"name":"","type":"address","internalType":"address"}],"stateMutability":"view"},{"type":"function","name":"KAIA_MOCK_WETH","inputs":[],"outputs":[{"name":"","type":"address","internalType":"address"}],"stateMutability":"view"},{"type":"function","name":"KAIA_MOCK_WKAIA","inputs":[],"outputs":[{"name":"","type":"address","internalType":"address"}],"stateMutability":"view"},{"type":"function","name":"KAIA_MOCK_WKAIA_ELEVATED_MINTER_BURNER","inputs":[],"outputs":[{"name":"","type":"address","internalType":"address"}],"stateMutability":"view"},{"type":"function","name":"KAIA_OAPP_SUPPLY_LIQUIDITY_USDT","inputs":[],"outputs":[{"name":"","type":"address","internalType":"address"}],"stateMutability":"view"},{"type":"function","name":"KAIA_OFT_MOCK_USDT_ADAPTER","inputs":[],"outputs":[{"name":"","type":"address","internalType":"address"}],"stateMutability":"view"},{"type":"function","name":"KAIA_OFT_MOCK_WKAIA_ADAPTER","inputs":[],"outputs":[{"name":"","type":"address","internalType":"address"}],"stateMutability":"view"},{"type":"function","name":"KAIA_OFT_USDT_ADAPTER","inputs":[],"outputs":[{"name":"","type":"address","internalType":"address"}],"stateMutability":"view"},{"type":"function","name":"KAIA_OFT_USDT_STARGATE_ADAPTER","inputs":[],"outputs":[{"name":"","type":"address","internalType":"address"}],"stateMutability":"view"},{"type":"function","name":"KAIA_OFT_WBTC_ADAPTER","inputs":[],"outputs":[{"name":"","type":"address","internalType":"address"}],"stateMutability":"view"},{"type":"function","name":"KAIA_OFT_WETH_ADAPTER","inputs":[],"outputs":[{"name":"","type":"address","internalType":"address"}],"stateMutability":"view"},{"type":"function","name":"KAIA_OFT_WKAIA_ADAPTER","inputs":[],"outputs":[{"name":"","type":"address","internalType":"address"}],"stateMutability":"view"},{"type":"function","name":"KAIA_POSITION_DEPLOYER","inputs":[],"outputs":[{"name":"","type":"address","internalType":"address"}],"stateMutability":"view"},{"type":"function","name":"KAIA_PROTOCOL","inputs":[],"outputs":[{"name":"","type":"address","internalType":"address"}],"stateMutability":"view"},{"type":"function","name":"KAIA_RECEIVE_LIB","inputs":[],"outputs":[{"name":"","type":"address","internalType":"address"}],"stateMutability":"view"},{"type":"function","name":"KAIA_SEND_LIB","inputs":[],"outputs":[{"name":"","type":"address","internalType":"address"}],"stateMutability":"view"},{"type":"function","name":"KAIA_TESTNET_DVN1","inputs":[],"outputs":[{"name":"","type":"address","internalType":"address"}],"stateMutability":"view"},{"type":"function","name":"KAIA_TESTNET_DVN2","inputs":[],"outputs":[{"name":"","type":"address","internalType":"address"}],"stateMutability":"view"},{"type":"function","name":"KAIA_TESTNET_DVN3","inputs":[],"outputs":[{"name":"","type":"address","internalType":"address"}],"stateMutability":"view"},{"type":"function","name":"KAIA_TESTNET_EID","inputs":[],"outputs":[{"name":"","type":"uint32","internalType":"uint32"}],"stateMutability":"view"},{"type":"function","name":"KAIA_TESTNET_EXECUTOR","inputs":[],"outputs":[{"name":"","type":"address","internalType":"address"}],"stateMutability":"view"},{"type":"function","name":"KAIA_TESTNET_HELPER_UTILS","inputs":[],"outputs":[{"name":"","type":"address","internalType":"address"}],"stateMutability":"view"},{"type":"function","name":"KAIA_TESTNET_INTEREST_RATE_MODEL","inputs":[],"outputs":[{"name":"","type":"address","internalType":"address"}],"stateMutability":"view"},{"type":"function","name":"KAIA_TESTNET_INTEREST_RATE_MODEL_IMPLEMENTATION","inputs":[],"outputs":[{"name":"","type":"address","internalType":"address"}],"stateMutability":"view"},{"type":"function","name":"KAIA_TESTNET_IS_HEALTHY","inputs":[],"outputs":[{"name":"","type":"address","internalType":"address"}],"stateMutability":"view"},{"type":"function","name":"KAIA_TESTNET_IS_HEALTHY_IMPLEMENTATION","inputs":[],"outputs":[{"name":"","type":"address","internalType":"address"}],"stateMutability":"view"},{"type":"function","name":"KAIA_TESTNET_LENDING_POOL_DEPLOYER","inputs":[],"outputs":[{"name":"","type":"address","internalType":"address"}],"stateMutability":"view"},{"type":"function","name":"KAIA_TESTNET_LENDING_POOL_FACTORY","inputs":[],"outputs":[{"name":"","type":"address","internalType":"address"}],"stateMutability":"view"},{"type":"function","name":"KAIA_TESTNET_LENDING_POOL_FACTORY_IMPLEMENTATION","inputs":[],"outputs":[{"name":"","type":"address","internalType":"address"}],"stateMutability":"view"},{"type":"function","name":"KAIA_TESTNET_LENDING_POOL_ROUTER_DEPLOYER","inputs":[],"outputs":[{"name":"","type":"address","internalType":"address"}],"stateMutability":"view"},{"type":"function","name":"KAIA_TESTNET_LZ_ENDPOINT","inputs":[],"outputs":[{"name":"","type":"address","internalType":"address"}],"stateMutability":"view"},{"type":"function","name":"KAIA_TESTNET_MOCK_DEX","inputs":[],"outputs":[{"name":"","type":"address","internalType":"address"}],"stateMutability":"view"},{"type":"function","name":"KAIA_TESTNET_MOCK_USDT","inputs":[],"outputs":[{"name":"","type":"address","internalType":"address"}],"stateMutability":"view"},{"type":"function","name":"KAIA_TESTNET_MOCK_WETH","inputs":[],"outputs":[{"name":"","type":"address","internalType":"address"}],"stateMutability":"view"},{"type":"function","name":"KAIA_TESTNET_MOCK_WKAIA","inputs":[],"outputs":[{"name":"","type":"address","internalType":"address"}],"stateMutability":"view"},{"type":"function","name":"KAIA_TESTNET_POSITION_DEPLOYER","inputs":[],"outputs":[{"name":"","type":"address","internalType":"address"}],"stateMutability":"view"},{"type":"function","name":"KAIA_TESTNET_PROTOCOL","inputs":[],"outputs":[{"name":"","type":"address","internalType":"address"}],"stateMutability":"view"},{"type":"function","name":"KAIA_TESTNET_PROXY_DEPLOYER","inputs":[],"outputs":[{"name":"","type":"address","internalType":"address"}],"stateMutability":"view"},{"type":"function","name":"KAIA_TESTNET_RECEIVE_LIB","inputs":[],"outputs":[{"name":"","type":"address","internalType":"address"}],"stateMutability":"view"},{"type":"function","name":"KAIA_TESTNET_SEND_LIB","inputs":[],"outputs":[{"name":"","type":"address","internalType":"address"}],"stateMutability":"view"},{"type":"function","name":"KAIA_TESTNET_SHARES_TOKEN_DEPLOYER","inputs":[],"outputs":[{"name":"","type":"address","internalType":"address"}],"stateMutability":"view"},{"type":"function","name":"KAIA_TESTNET_SUPALA_EMITTER","inputs":[],"outputs":[{"name":"","type":"address","internalType":"address"}],"stateMutability":"view"},{"type":"function","name":"KAIA_TESTNET_SUPALA_EMITTER_IMPLEMENTATION","inputs":[],"outputs":[{"name":"","type":"address","internalType":"address"}],"stateMutability":"view"},{"type":"function","name":"KAIA_TESTNET_TOKEN_DATA_STREAM","inputs":[],"outputs":[{"name":"","type":"address","internalType":"address"}],"stateMutability":"view"},{"type":"function","name":"KAIA_TESTNET_TOKEN_DATA_STREAM_IMPLEMENTATION","inputs":[],"outputs":[{"name":"","type":"address","internalType":"address"}],"stateMutability":"view"},{"type":"function","name":"KAIA_TESTNET_USDT_ELEVATED_MINTER_BURNER","inputs":[],"outputs":[{"name":"","type":"address","internalType":"address"}],"stateMutability":"view"},{"type":"function","name":"KAIA_TESTNET_USDT_OFT_ADAPTER","inputs":[],"outputs":[{"name":"","type":"address","internalType":"address"}],"stateMutability":"view"},{"type":"function","name":"KAIA_TESTNET_WETH_ELEVATED_MINTER_BURNER","inputs":[],"outputs":[{"name":"","type":"address","internalType":"address"}],"stateMutability":"view"},{"type":"function","name":"KAIA_TESTNET_WETH_OFT_ADAPTER","inputs":[],"outputs":[{"name":"","type":"address","internalType":"address"}],"stateMutability":"view"},{"type":"function","name":"KAIA_TESTNET_WKAIA_ELEVATED_MINTER_BURNER","inputs":[],"outputs":[{"name":"","type":"address","internalType":"address"}],"stateMutability":"view"},{"type":"function","name":"KAIA_TESTNET_WKAIA_OFT_ADAPTER","inputs":[],"outputs":[{"name":"","type":"address","internalType":"address"}],"stateMutability":"view"},{"type":"function","name":"KAIA_USDT","inputs":[],"outputs":[{"name":"","type":"address","internalType":"address"}],"stateMutability":"view"},{"type":"function","name":"KAIA_USDT_STARGATE","inputs":[],"outputs":[{"name":"","type":"address","internalType":"address"}],"stateMutability":"view"},{"type":"function","name":"KAIA_USDT_USD_ADAPTER","inputs":[],"outputs":[{"name":"","type":"address","internalType":"address"}],"stateMutability":"view"},{"type":"function","name":"KAIA_WBTC","inputs":[],"outputs":[{"name":"","type":"address","internalType":"address"}],"stateMutability":"view"},{"type":"function","name":"KAIA_WETH","inputs":[],"outputs":[{"name":"","type":"address","internalType":"address"}],"stateMutability":"view"},{"type":"function","name":"KAIA_WKAIA","inputs":[],"outputs":[{"name":"","type":"address","internalType":"address"}],"stateMutability":"view"},{"type":"function","name":"MANTLE_TESTNET_DVN1","inputs":[],"outputs":[{"name":"","type":"address","internalType":"address"}],"stateMutability":"view"},{"type":"function","name":"MANTLE_TESTNET_DVN2","inputs":[],"outputs":[{"name":"","type":"address","internalType":"address"}],"stateMutability":"view"},{"type":"function","name":"MANTLE_TESTNET_DVN3","inputs":[],"outputs":[{"name":"","type":"address","internalType":"address"}],"stateMutability":"view"},{"type":"function","name":"MANTLE_TESTNET_EID","inputs":[],"outputs":[{"name":"","type":"uint32","internalType":"uint32"}],"stateMutability":"view"},{"type":"function","name":"MANTLE_TESTNET_EXECUTOR","inputs":[],"outputs":[{"name":"","type":"address","internalType":"address"}],"stateMutability":"view"},{"type":"function","name":"MANTLE_TESTNET_HELPER_UTILS","inputs":[],"outputs":[{"name":"","type":"address","internalType":"address"}],"stateMutability":"view"},{"type":"function","name":"MANTLE_TESTNET_INTEREST_RATE_MODEL","inputs":[],"outputs":[{"name":"","type":"address","internalType":"address"}],"stateMutability":"view"},{"type":"function","name":"MANTLE_TESTNET_INTEREST_RATE_MODEL_IMPLEMENTATION","inputs":[],"outputs":[{"name":"","type":"address","internalType":"address"}],"stateMutability":"view"},{"type":"function","name":"MANTLE_TESTNET_IS_HEALTHY","inputs":[],"outputs":[{"name":"","type":"address","internalType":"address"}],"stateMutability":"view"},{"type":"function","name":"MANTLE_TESTNET_IS_HEALTHY_IMPLEMENTATION","inputs":[],"outputs":[{"name":"","type":"address","internalType":"address"}],"stateMutability":"view"},{"type":"function","name":"MANTLE_TESTNET_LENDING_POOL_DEPLOYER","inputs":[],"outputs":[{"name":"","type":"address","internalType":"address"}],"stateMutability":"view"},{"type":"function","name":"MANTLE_TESTNET_LENDING_POOL_FACTORY","inputs":[],"outputs":[{"name":"","type":"address","internalType":"address"}],"stateMutability":"view"},{"type":"function","name":"MANTLE_TESTNET_LENDING_POOL_FACTORY_IMPLEMENTATION","inputs":[],"outputs":[{"name":"","type":"address","internalType":"address"}],"stateMutability":"view"},{"type":"function","name":"MANTLE_TESTNET_LENDING_POOL_ROUTER_DEPLOYER","inputs":[],"outputs":[{"name":"","type":"address","internalType":"address"}],"stateMutability":"view"},{"type":"function","name":"MANTLE_TESTNET_LZ_ENDPOINT","inputs":[],"outputs":[{"name":"","type":"address","internalType":"address"}],"stateMutability":"view"},{"type":"function","name":"MANTLE_TESTNET_MOCK_DEX","inputs":[],"outputs":[{"name":"","type":"address","internalType":"address"}],"stateMutability":"view"},{"type":"function","name":"MANTLE_TESTNET_MOCK_USDC","inputs":[],"outputs":[{"name":"","type":"address","internalType":"address"}],"stateMutability":"view"},{"type":"function","name":"MANTLE_TESTNET_MOCK_USDT","inputs":[],"outputs":[{"name":"","type":"address","internalType":"address"}],"stateMutability":"view"},{"type":"function","name":"MANTLE_TESTNET_MOCK_WBTC","inputs":[],"outputs":[{"name":"","type":"address","internalType":"address"}],"stateMutability":"view"},{"type":"function","name":"MANTLE_TESTNET_MOCK_WETH","inputs":[],"outputs":[{"name":"","type":"address","internalType":"address"}],"stateMutability":"view"},{"type":"function","name":"MANTLE_TESTNET_MOCK_WMNT","inputs":[],"outputs":[{"name":"","type":"address","internalType":"address"}],"stateMutability":"view"},{"type":"function","name":"MANTLE_TESTNET_POSITION_DEPLOYER","inputs":[],"outputs":[{"name":"","type":"address","internalType":"address"}],"stateMutability":"view"},{"type":"function","name":"MANTLE_TESTNET_PROTOCOL","inputs":[],"outputs":[{"name":"","type":"address","internalType":"address"}],"stateMutability":"view"},{"type":"function","name":"MANTLE_TESTNET_PROXY_DEPLOYER","inputs":[],"outputs":[{"name":"","type":"address","internalType":"address"}],"stateMutability":"view"},{"type":"function","name":"MANTLE_TESTNET_RECEIVE_LIB","inputs":[],"outputs":[{"name":"","type":"address","internalType":"address"}],"stateMutability":"view"},{"type":"function","name":"MANTLE_TESTNET_SEND_LIB","inputs":[],"outputs":[{"name":"","type":"address","internalType":"address"}],"stateMutability":"view"},{"type":"function","name":"MANTLE_TESTNET_SHARES_TOKEN_DEPLOYER","inputs":[],"outputs":[{"name":"","type":"address","internalType":"address"}],"stateMutability":"view"},{"type":"function","name":"MANTLE_TESTNET_SUPALA_EMITTER","inputs":[],"outputs":[{"name":"","type":"address","internalType":"address"}],"stateMutability":"view"},{"type":"function","name":"MANTLE_TESTNET_SUPALA_EMITTER_IMPLEMENTATION","inputs":[],"outputs":[{"name":"","type":"address","internalType":"address"}],"stateMutability":"view"},{"type":"function","name":"MANTLE_TESTNET_TOKEN_DATA_STREAM","inputs":[],"outputs":[{"name":"","type":"address","internalType":"address"}],"stateMutability":"view"},{"type":"function","name":"MANTLE_TESTNET_TOKEN_DATA_STREAM_IMPLEMENTATION","inputs":[],"outputs":[{"name":"","type":"address","internalType":"address"}],"stateMutability":"view"},{"type":"function","name":"MANTLE_TESTNET_USDC_ELEVATED_MINTER_BURNER","inputs":[],"outputs":[{"name":"","type":"address","internalType":"address"}],"stateMutability":"view"},{"type":"function","name":"MANTLE_TESTNET_USDC_OFT_ADAPTER","inputs":[],"outputs":[{"name":"","type":"address","internalType":"address"}],"stateMutability":"view"},{"type":"function","name":"MANTLE_TESTNET_USDT_ELEVATED_MINTER_BURNER","inputs":[],"outputs":[{"name":"","type":"address","internalType":"address"}],"stateMutability":"view"},{"type":"function","name":"MANTLE_TESTNET_USDT_OFT_ADAPTER","inputs":[],"outputs":[{"name":"","type":"address","internalType":"address"}],"stateMutability":"view"},{"type":"function","name":"MANTLE_TESTNET_WBTC_ELEVATED_MINTER_BURNER","inputs":[],"outputs":[{"name":"","type":"address","internalType":"address"}],"stateMutability":"view"},{"type":"function","name":"MANTLE_TESTNET_WBTC_OFT_ADAPTER","inputs":[],"outputs":[{"name":"","type":"address","internalType":"address"}],"stateMutability":"view"},{"type":"function","name":"MANTLE_TESTNET_WETH_ELEVATED_MINTER_BURNER","inputs":[],"outputs":[{"name":"","type":"address","internalType":"address"}],"stateMutability":"view"},{"type":"function","name":"MANTLE_TESTNET_WETH_OFT_ADAPTER","inputs":[],"outputs":[{"name":"","type":"address","internalType":"address"}],"stateMutability":"view"},{"type":"function","name":"MANTLE_TESTNET_WMNT_ELEVATED_MINTER_BURNER","inputs":[],"outputs":[{"name":"","type":"address","internalType":"address"}],"stateMutability":"view"},{"type":"function","name":"MANTLE_TESTNET_WMNT_OFT_ADAPTER","inputs":[],"outputs":[{"name":"","type":"address","internalType":"address"}],"stateMutability":"view"},{"type":"function","name":"MINTER_ROLE","inputs":[],"outputs":[{"name":"","type":"bytes32","internalType":"bytes32"}],"stateMutability":"view"},{"type":"function","name":"NATIVE_USDT","inputs":[],"outputs":[{"name":"","type":"address","internalType":"address"}],"stateMutability":"view"},{"type":"function","name":"OWNER_ROLE","inputs":[],"outputs":[{"name":"","type":"bytes32","internalType":"bytes32"}],"stateMutability":"view"},{"type":"function","name":"PAUSER_ROLE","inputs":[],"outputs":[{"name":"","type":"bytes32","internalType":"bytes32"}],"stateMutability":"view"},{"type":"function","name":"UPGRADER_ROLE","inputs":[],"outputs":[{"name":"","type":"bytes32","internalType":"bytes32"}],"stateMutability":"view"},{"type":"function","name":"USDC_USD","inputs":[],"outputs":[{"name":"","type":"address","internalType":"address"}],"stateMutability":"view"},{"type":"function","name":"USDT_USD","inputs":[],"outputs":[{"name":"","type":"address","internalType":"address"}],"stateMutability":"view"},{"type":"function","name":"btcUsdtAdapter","inputs":[],"outputs":[{"name":"","type":"address","internalType":"address"}],"stateMutability":"view"},{"type":"function","name":"chainName","inputs":[],"outputs":[{"name":"","type":"string","internalType":"string"}],"stateMutability":"view"},{"type":"function","name":"dexRouter","inputs":[],"outputs":[{"name":"","type":"address","internalType":"address"}],"stateMutability":"view"},{"type":"function","name":"ethUsdtAdapter","inputs":[],"outputs":[{"name":"","type":"address","internalType":"address"}],"stateMutability":"view"},{"type":"function","name":"native","inputs":[],"outputs":[{"name":"","type":"address","internalType":"address"}],"stateMutability":"view"},{"type":"function","name":"nativeUsdtAdapter","inputs":[],"outputs":[{"name":"","type":"address","internalType":"address"}],"stateMutability":"view"},{"type":"function","name":"oftNativeAdapter","inputs":[],"outputs":[{"name":"","type":"address","internalType":"address"}],"stateMutability":"view"},{"type":"function","name":"oftNativeOriAdapter","inputs":[],"outputs":[{"name":"","type":"address","internalType":"address"}],"stateMutability":"view"},{"type":"function","name":"oftUsdtAdapter","inputs":[],"outputs":[{"name":"","type":"address","internalType":"address"}],"stateMutability":"view"},{"type":"function","name":"oftWethAdapter","inputs":[],"outputs":[{"name":"","type":"address","internalType":"address"}],"stateMutability":"view"},{"type":"function","name":"usdc","inputs":[],"outputs":[{"name":"","type":"address","internalType":"address"}],"stateMutability":"view"},{"type":"function","name":"usdt","inputs":[],"outputs":[{"name":"","type":"address","internalType":"address"}],"stateMutability":"view"},{"type":"function","name":"usdtUsdAdapter","inputs":[],"outputs":[{"name":"","type":"address","internalType":"address"}],"stateMutability":"view"},{"type":"function","name":"wNative","inputs":[],"outputs":[{"name":"","type":"address","internalType":"address"}],"stateMutability":"view"},{"type":"function","name":"wbtc","inputs":[],"outputs":[{"name":"","type":"address","internalType":"address"}],"stateMutability":"view"},{"type":"function","name":"weth","inputs":[],"outputs":[{"name":"","type":"address","internalType":"address"}],"stateMutability":"view"}],"bytecode":{"object":"0x6080604052600160035f6101000a81548173ffffffffffffffffffffffffffffffffffffffff021916908373ffffffffffffffffffffffffffffffffffffffff160217905550348015604f575f5ffd5b5061394d8061005d5f395ff3fe608060405234801561000f575f5ffd5b5060043610610b92575f3560e01c806386cfc33e116105df578063c1a1680e11610309578063e58378bb116101b1578063f678f032116100fd578063fb7a69a5116100b6578063fd455f7511610090578063fd455f7514612306578063fd9eef0414612324578063fe96e49014612342578063fefcbc471461236057610b92565b8063fb7a69a5146122ac578063fbdf0593146122ca578063fc11943c146122e857610b92565b8063f678f032146121f8578063f72c0d8b14612216578063f82e969114612234578063f85a16c814612252578063f89b03da14612270578063fa9be3671461228e57610b92565b8063ef54e76f1161016a578063f2ba7e0111610144578063f2ba7e0114612180578063f2e784351461219e578063f31d7443146121bc578063f4be7504146121da57610b92565b8063ef54e76f14612126578063efffd77c14612144578063f1fb01931461216257610b92565b8063e58378bb14612072578063e593399814612090578063e63ab1e9146120ae578063eb3789bb146120cc578063eba82c1e146120ea578063ed5840731461210857610b92565b8063d48f4ee011610270578063de439f5011610229578063e100143211610203578063e100143214611ffa578063e415479914612018578063e4b0043414612036578063e5120c471461205457610b92565b8063de439f5014611fa0578063df74e52214611fbe578063e07e02cc14611fdc57610b92565b8063d48f4ee014611eec578063d4c7308314611f0a578063d539139314611f28578063d5fda4b714611f46578063d9edc88814611f64578063dbc14a1914611f8257610b92565b8063ca4b481c116102c2578063ca4b481c14611e38578063cb15502a14611e56578063ce8b78bc14611e74578063cea9072814611e92578063cf642cc914611eb0578063d0ff1a0414611ece57610b92565b8063c1a1680e14611d84578063c2abf75014611da2578063c304e50814611dc0578063c41ad64114611dde578063c5e4a50914611dfc578063c790845114611e1a57610b92565b8063aaf0e6eb11610487578063b4fa0694116103d3578063b9261ba41161038c578063ba91cd4311610366578063ba91cd4314611d0c578063bd7ad9d614611d2a578063c025fe3c14611d48578063c13b0f1714611d6657610b92565b8063b9261ba414611cb2578063b96e686a14611cd0578063ba717f8614611cee57610b92565b8063b4fa069414611bfe578063b5300a3b14611c1c578063b53b808e14611c3a578063b5a9891114611c58578063b5f0848d14611c76578063b908f70a14611c9457610b92565b8063ae3676fb11610440578063b259d9641161041a578063b259d96414611b86578063b2d0403114611ba4578063b3a9810514611bc2578063b430bac514611be057610b92565b8063ae3676fb14611b2c578063ae5c039d14611b4a578063b07e429714611b6857610b92565b8063aaf0e6eb14611a78578063ab562ddd14611a96578063aba30cca14611ab4578063ac7fb1b714611ad2578063ad6afeef14611af0578063aded9a1914611b0e57610b92565b806394a15d0411610546578063a016a1d7116104ff578063a7958314116104d9578063a795831414611a00578063a7b395f214611a1e578063a84bf70e14611a3c578063aa56b57a14611a5a57610b92565b8063a016a1d7146119a6578063a217fddf146119c4578063a78df687146119e257610b92565b806394a15d04146118f257806395be11111461191057806395df58381461192e57806398489dff1461194c578063990ef31d1461196a5780639f09202d1461198857610b92565b80638fd510cc116105985780638fd510cc1461183e578063904060541461185c57806390df5b1a1461187a5780639196bfa014611898578063924ff369146118b657806392e926bb146118d457610b92565b806386cfc33e1461178a57806387c7f7c9146117a85780638ca4b7e3146117c65780638d7b0cda146117e45780638dd73f6b146118025780638f3666381461182057610b92565b80633b97322b116108c05780635ac6d96d1161076857806375b238fc116106b457806380b6403b1161066d57806384af6aef1161064757806384af6aef1461171257806384f9199e1461173057806385623f591461174e57806385822d6e1461176c57610b92565b806380b6403b146116b8578063848dc5e9146116d657806384ad5239146116f457610b92565b806375b238fc1461160457806375df4307146116225780637b49a635146116405780637e7414c21461165e57806380185b001461167c578063805311691461169a57610b92565b806367d197c2116107215780636e7ec259116106fb5780636e7ec2591461158c578063709b9036146115aa57806371b9a718146115c857806373d095e4146115e657610b92565b806367d197c21461153257806368ebdd5e146115505780636c50cc291461156e57610b92565b80635ac6d96d1461147e5780635d9fb53d1461149c5780635dd65d31146114ba578063634a8eee146114d85780636420c205146114f657806367406d421461151457610b92565b806348d8d45511610827578063529f0d50116107e0578063565fcaac116107ba578063565fcaac1461140657806358718d011461142457806359c56692146114425780635a4320801461146057610b92565b8063529f0d50146113ac578063543e593a146113ca57806355fc02fa146113e857610b92565b806348d8d455146112f857806349dfa966146113165780634adeb12a146113345780634d99ba08146113525780634fefc38c14611370578063511856cd1461138e57610b92565b8063413b777a11610879578063413b777a146112445780634190110d14611262578063437ad10f14611280578063450036c91461129e578063470ebcb0146112bc578063471f1075146112da57610b92565b80633b97322b146111905780633cdc5389146111ae5780633cdda029146111cc5780633da090c0146111ea5780633e413bee146112085780633fc8cef31461122657610b92565b80631d4f084111610a3e5780632e9400881161098a5780633269958e116109435780633573070d1161091d5780633573070d14611118578063379ca0db1461113657806337a4332a146111545780633ab51ac81461117257610b92565b80633269958e146110be57806334392809146110dc57806335433987146110fa57610b92565b80632e9400881461100a5780632f0249bc146110285780632f084bf4146110465780632f48ab7d146110645780632f9668e6146110825780632fa99666146110a057610b92565b80632259fe8d116109f757806327e6d4a1116109d157806327e6d4a114610f925780632a715dd714610fb05780632cf0eb0514610fce5780632d68efc914610fec57610b92565b80632259fe8d14610f38578063235feefd14610f56578063269ae32d14610f7457610b92565b80631d4f084114610e845780631e53835014610ea25780631f8a242814610ec05780631fe42bff14610ede57806321f564bc14610efc57806321fba23514610f1a57610b92565b80630d574d0d11610afd57806315f88c9211610ab65780631a3ca3b111610a905780631a3ca3b114610e0c5780631baa220f14610e2a5780631c85d35614610e485780631c93b03a14610e6657610b92565b806315f88c9214610db257806316c67bab14610dd057806318567e8814610dee57610b92565b80630d574d0d14610cfe57806310d5dd4e14610d1c57806311b0b42d14610d3a57806312e7902a14610d585780631335bc2914610d765780631492d3fc14610d9457610b92565b806307ff60a111610b4f57806307ff60a114610c4a57806308f40bed14610c6857806308ff3f1214610c8657806309315fa914610ca45780630b54fe1e14610cc25780630b624f7f14610ce057610b92565b80630431f17d14610b9657806304982fca14610bb457806304cee16114610bd2578063065f84b314610bf05780630758d92414610c0e57806307e2476214610c2c575b5f5ffd5b610b9e61237e565b604051610bab91906137a9565b60405180910390f35b610bbc612396565b604051610bc991906137a9565b60405180910390f35b610bda6123ae565b604051610be791906137a9565b60405180910390f35b610bf86123c6565b604051610c0591906137a9565b60405180910390f35b610c166123de565b604051610c2391906137a9565b60405180910390f35b610c34612403565b604051610c4191906137a9565b60405180910390f35b610c5261241b565b604051610c5f91906137a9565b60405180910390f35b610c70612433565b604051610c7d91906137a9565b60405180910390f35b610c8e61244b565b604051610c9b91906137a9565b60405180910390f35b610cac612463565b604051610cb991906137a9565b60405180910390f35b610cca61247b565b604051610cd791906137a9565b60405180910390f35b610ce8612493565b604051610cf591906137a9565b60405180910390f35b610d066124ab565b604051610d1391906137a9565b60405180910390f35b610d246124d0565b604051610d3191906137a9565b60405180910390f35b610d426124e8565b604051610d4f91906137a9565b60405180910390f35b610d6061250d565b604051610d6d91906137a9565b60405180910390f35b610d7e612525565b604051610d8b91906137a9565b60405180910390f35b610d9c61254a565b604051610da991906137a9565b60405180910390f35b610dba612562565b604051610dc791906137e0565b60405180910390f35b610dd8612568565b604051610de591906137a9565b60405180910390f35b610df6612580565b604051610e0391906137e0565b60405180910390f35b610e14612586565b604051610e2191906137a9565b60405180910390f35b610e3261259e565b604051610e3f91906137a9565b60405180910390f35b610e506125b6565b604051610e5d91906137a9565b60405180910390f35b610e6e6125ce565b604051610e7b9190613869565b60405180910390f35b610e8c61265a565b604051610e9991906137a9565b60405180910390f35b610eaa612672565b604051610eb791906137a9565b60405180910390f35b610ec861268a565b604051610ed591906137a9565b60405180910390f35b610ee66126a2565b604051610ef391906137a9565b60405180910390f35b610f046126ba565b604051610f1191906137a9565b60405180910390f35b610f226126d2565b604051610f2f91906137a9565b60405180910390f35b610f406126ea565b604051610f4d91906137a9565b60405180910390f35b610f5e612702565b604051610f6b91906137a9565b60405180910390f35b610f7c61271a565b604051610f8991906137a9565b60405180910390f35b610f9a612732565b604051610fa791906137a9565b60405180910390f35b610fb861274a565b604051610fc591906137a9565b60405180910390f35b610fd6612762565b604051610fe391906137a9565b60405180910390f35b610ff461277a565b60405161100191906137a9565b60405180910390f35b61101261279f565b60405161101f91906137a9565b60405180910390f35b6110306127b7565b60405161103d91906137a9565b60405180910390f35b61104e6127cf565b60405161105b91906137a9565b60405180910390f35b61106c6127e7565b60405161107991906137a9565b60405180910390f35b61108a61280b565b60405161109791906137a9565b60405180910390f35b6110a8612823565b6040516110b591906137a9565b60405180910390f35b6110c661283b565b6040516110d391906137a9565b60405180910390f35b6110e4612853565b6040516110f191906137a9565b60405180910390f35b61110261286b565b60405161110f91906137a9565b60405180910390f35b611120612883565b60405161112d91906137a9565b60405180910390f35b61113e61289b565b60405161114b91906137a9565b60405180910390f35b61115c6128b3565b60405161116991906137a9565b60405180910390f35b61117a6128cb565b60405161118791906137a9565b60405180910390f35b6111986128f0565b6040516111a591906137a9565b60405180910390f35b6111b6612908565b6040516111c391906137a9565b60405180910390f35b6111d461292d565b6040516111e191906137a9565b60405180910390f35b6111f2612945565b6040516111ff91906137a9565b60405180910390f35b61121061295d565b60405161121d91906137a9565b60405180910390f35b61122e612982565b60405161123b91906137a9565b60405180910390f35b61124c6129a7565b60405161125991906137a9565b60405180910390f35b61126a6129bf565b60405161127791906137a9565b60405180910390f35b6112886129d7565b60405161129591906137a9565b60405180910390f35b6112a66129ef565b6040516112b391906137a9565b60405180910390f35b6112c46129f4565b6040516112d191906137a9565b60405180910390f35b6112e2612a0c565b6040516112ef91906137a9565b60405180910390f35b611300612a24565b60405161130d91906137a9565b60405180910390f35b61131e612a3c565b60405161132b91906137a9565b60405180910390f35b61133c612a54565b60405161134991906137a9565b60405180910390f35b61135a612a6c565b60405161136791906137a9565b60405180910390f35b611378612a84565b60405161138591906137a9565b60405180910390f35b611396612a9c565b6040516113a391906137a9565b60405180910390f35b6113b4612ab4565b6040516113c191906137a9565b60405180910390f35b6113d2612acc565b6040516113df91906137a9565b60405180910390f35b6113f0612ae4565b6040516113fd91906137a9565b60405180910390f35b61140e612afc565b60405161141b91906137a9565b60405180910390f35b61142c612b14565b60405161143991906137a9565b60405180910390f35b61144a612b2c565b60405161145791906137a9565b60405180910390f35b611468612b44565b60405161147591906137a9565b60405180910390f35b611486612b5c565b60405161149391906137a9565b60405180910390f35b6114a4612b74565b6040516114b191906137a9565b60405180910390f35b6114c2612b8c565b6040516114cf91906137a9565b60405180910390f35b6114e0612ba4565b6040516114ed91906137a9565b60405180910390f35b6114fe612bbc565b60405161150b91906137a9565b60405180910390f35b61151c612bd4565b60405161152991906137a9565b60405180910390f35b61153a612bec565b60405161154791906137a9565b60405180910390f35b611558612c04565b60405161156591906137a9565b60405180910390f35b611576612c1c565b60405161158391906137a9565b60405180910390f35b611594612c34565b6040516115a191906137a9565b60405180910390f35b6115b2612c4c565b6040516115bf91906137a9565b60405180910390f35b6115d0612c64565b6040516115dd91906137a9565b60405180910390f35b6115ee612c7c565b6040516115fb91906137a9565b60405180910390f35b61160c612ca1565b60405161161991906138a1565b60405180910390f35b61162a612cc5565b60405161163791906137a9565b60405180910390f35b611648612cdd565b60405161165591906137a9565b60405180910390f35b611666612cf5565b60405161167391906137a9565b60405180910390f35b611684612d0d565b60405161169191906137a9565b60405180910390f35b6116a2612d25565b6040516116af91906137a9565b60405180910390f35b6116c0612d3d565b6040516116cd91906137a9565b60405180910390f35b6116de612d55565b6040516116eb91906137a9565b60405180910390f35b6116fc612d6d565b60405161170991906137a9565b60405180910390f35b61171a612d85565b60405161172791906137a9565b60405180910390f35b611738612d9d565b60405161174591906137a9565b60405180910390f35b611756612db5565b60405161176391906137a9565b60405180910390f35b611774612dcd565b60405161178191906137a9565b60405180910390f35b611792612de5565b60405161179f91906137a9565b60405180910390f35b6117b0612dfd565b6040516117bd91906137a9565b60405180910390f35b6117ce612e15565b6040516117db91906137a9565b60405180910390f35b6117ec612e2d565b6040516117f991906137a9565b60405180910390f35b61180a612e45565b60405161181791906137a9565b60405180910390f35b611828612e5d565b60405161183591906137a9565b60405180910390f35b611846612e75565b60405161185391906137a9565b60405180910390f35b611864612e8d565b60405161187191906137a9565b60405180910390f35b611882612ea5565b60405161188f91906137a9565b60405180910390f35b6118a0612ebd565b6040516118ad91906137a9565b60405180910390f35b6118be612ed5565b6040516118cb91906137a9565b60405180910390f35b6118dc612eed565b6040516118e991906137a9565b60405180910390f35b6118fa612f05565b60405161190791906137e0565b60405180910390f35b611918612f0b565b60405161192591906137a9565b60405180910390f35b611936612f22565b60405161194391906137a9565b60405180910390f35b611954612f3a565b60405161196191906137a9565b60405180910390f35b611972612f52565b60405161197f91906137a9565b60405180910390f35b611990612f6a565b60405161199d91906137a9565b60405180910390f35b6119ae612f82565b6040516119bb91906137a9565b60405180910390f35b6119cc612f9a565b6040516119d991906138a1565b60405180910390f35b6119ea612fa0565b6040516119f791906137a9565b60405180910390f35b611a08612fb8565b604051611a1591906137a9565b60405180910390f35b611a26612fd0565b604051611a3391906137a9565b60405180910390f35b611a44612fe8565b604051611a5191906137a9565b60405180910390f35b611a62613000565b604051611a6f91906137a9565b60405180910390f35b611a80613018565b604051611a8d91906137a9565b60405180910390f35b611a9e613030565b604051611aab91906137a9565b60405180910390f35b611abc613048565b604051611ac991906137a9565b60405180910390f35b611ada613060565b604051611ae791906137a9565b60405180910390f35b611af8613078565b604051611b0591906137a9565b60405180910390f35b611b16613090565b604051611b2391906137a9565b60405180910390f35b611b346130a8565b604051611b4191906137a9565b60405180910390f35b611b526130c0565b604051611b5f91906137a9565b60405180910390f35b611b706130d8565b604051611b7d91906137a9565b60405180910390f35b611b8e6130f0565b604051611b9b91906137a9565b60405180910390f35b611bac613108565b604051611bb991906137e0565b60405180910390f35b611bca61310e565b604051611bd791906137e0565b60405180910390f35b611be8613114565b604051611bf591906137a9565b60405180910390f35b611c0661312c565b604051611c1391906137a9565b60405180910390f35b611c24613144565b604051611c3191906137a9565b60405180910390f35b611c4261315c565b604051611c4f91906137a9565b60405180910390f35b611c60613174565b604051611c6d91906137a9565b60405180910390f35b611c7e61318c565b604051611c8b91906137a9565b60405180910390f35b611c9c6131a4565b604051611ca991906137a9565b60405180910390f35b611cba6131c9565b604051611cc791906137a9565b60405180910390f35b611cd86131e1565b604051611ce591906137a9565b60405180910390f35b611cf66131f9565b604051611d0391906137a9565b60405180910390f35b611d14613211565b604051611d2191906137a9565b60405180910390f35b611d32613229565b604051611d3f91906137a9565b60405180910390f35b611d50613241565b604051611d5d91906137a9565b60405180910390f35b611d6e613259565b604051611d7b91906137a9565b60405180910390f35b611d8c613271565b604051611d9991906137a9565b60405180910390f35b611daa613289565b604051611db791906137a9565b60405180910390f35b611dc86132a1565b604051611dd591906137a9565b60405180910390f35b611de66132b9565b604051611df391906137a9565b60405180910390f35b611e046132d1565b604051611e1191906137a9565b60405180910390f35b611e226132e9565b604051611e2f91906137a9565b60405180910390f35b611e40613301565b604051611e4d91906137a9565b60405180910390f35b611e5e613319565b604051611e6b91906137a9565b60405180910390f35b611e7c613331565b604051611e8991906137a9565b60405180910390f35b611e9a613349565b604051611ea791906137a9565b60405180910390f35b611eb8613361565b604051611ec591906137a9565b60405180910390f35b611ed6613379565b604051611ee391906137a9565b60405180910390f35b611ef4613391565b604051611f0191906137a9565b60405180910390f35b611f126133a9565b604051611f1f91906137a9565b60405180910390f35b611f306133c1565b604051611f3d91906138a1565b60405180910390f35b611f4e6133e5565b604051611f5b91906137a9565b60405180910390f35b611f6c6133fd565b604051611f7991906137a9565b60405180910390f35b611f8a613415565b604051611f9791906137a9565b60405180910390f35b611fa861343a565b604051611fb591906137a9565b60405180910390f35b611fc661343e565b604051611fd391906137a9565b60405180910390f35b611fe4613456565b604051611ff191906137a9565b60405180910390f35b61200261346e565b60405161200f91906137a9565b60405180910390f35b612020613486565b60405161202d91906137a9565b60405180910390f35b61203e61349e565b60405161204b91906137a9565b60405180910390f35b61205c6134b6565b60405161206991906137a9565b60405180910390f35b61207a6134ce565b60405161208791906138a1565b60405180910390f35b6120986134f2565b6040516120a591906137a9565b60405180910390f35b6120b661350a565b6040516120c391906138a1565b60405180910390f35b6120d461352e565b6040516120e191906137a9565b60405180910390f35b6120f2613546565b6040516120ff91906137a9565b60405180910390f35b61211061355e565b60405161211d91906137a9565b60405180910390f35b61212e613576565b60405161213b91906137a9565b60405180910390f35b61214c61358e565b60405161215991906137a9565b60405180910390f35b61216a6135a6565b60405161217791906137a9565b60405180910390f35b6121886135be565b60405161219591906137a9565b60405180910390f35b6121a66135d6565b6040516121b391906137a9565b60405180910390f35b6121c46135fb565b6040516121d191906137e0565b60405180910390f35b6121e2613601565b6040516121ef91906137a9565b60405180910390f35b612200613619565b60405161220d91906137a9565b60405180910390f35b61221e613631565b60405161222b91906138a1565b60405180910390f35b61223c613655565b60405161224991906137a9565b60405180910390f35b61225a61366d565b60405161226791906137a9565b60405180910390f35b612278613685565b60405161228591906137a9565b60405180910390f35b6122966136aa565b6040516122a391906137a9565b60405180910390f35b6122b46136c2565b6040516122c191906137a9565b60405180910390f35b6122d26136da565b6040516122df91906137a9565b60405180910390f35b6122f06136f2565b6040516122fd91906137a9565b60405180910390f35b61230e61370a565b60405161231b91906137a9565b60405180910390f35b61232c613722565b60405161233991906137a9565b60405180910390f35b61234a61373a565b60405161235791906137a9565b60405180910390f35b612368613752565b60405161237591906137a9565b60405180910390f35b73a7f7368b6cbdf2be4d508ad85d2cc1f3248a9ed581565b7310fd0d8280e94d0dbc3013b778ef26d47105ea7b81565b73c3be8ab4ca0cefe3119a765b324bbdf54a16a65b81565b73d506b22a6b3216b736021fa262d0f5d686e07b3581565b600e5f9054906101000a900473ffffffffffffffffffffffffffffffffffffffff1681565b73fe5138a42dc1fc335455b505e036784a33f7f10281565b739454f0eabc7c4ea9ebf89190b8bf9051a0468e0381565b73ec32cc0267002618c339274c18ad48d2bf2a9c7e81565b73ad063b1915bf95fb32f79138c0b668f23267633381565b7353d7f02e72d62f7b7b41f6b622a7d79694bed96681565b7398a8345bb9d3dda9d808ca1c9142a28f6b0430e181565b7346638ad472507482b7d5ba45124e93d16bc97ece81565b600d5f9054906101000a900473ffffffffffffffffffffffffffffffffffffffff1681565b73fc7920756b2983af98c5edd94034f748eef25aef81565b60035f9054906101000a900473ffffffffffffffffffffffffffffffffffffffff1681565b738fed03c9d8ed1237b76be271a49d11cce5dfd81e81565b600c5f9054906101000a900473ffffffffffffffffffffffffffffffffffffffff1681565b73e1a12515f9ab2764b887bf60b923ca494ebbb2d681565b6175e881565b73af9842adacb4b2fa619d45fe11579fae5faf169881565b6175c681565b735e66de02c77ea971bbd2bc37a31cc9860e6a01d381565b736c454d20f4cb5f69e2d66693fa8dee931d7432df81565b7353d7f02e72d62f7b7b41f6b622a7d79694bed96681565b601880546125db906138e7565b80601f0160208091040260200160405190810160405280929190818152602001828054612607906138e7565b80156126525780601f1061262957610100808354040283529160200191612652565b820191905f5260205f20905b81548152906001019060200180831161263557829003601f168201915b505050505081565b737bb55d2d27194a25517f8a47cdaf227fd413dca681565b73bdc661eecb0dcfb940a34008e0190c9103013c4181565b73da5d036f51bd6fe5e32915a53595b71312d45f9181565b731effdcf81a95398920e024bb3b9ff60ce14590e781565b739e059a54699a285714207b43b055483e78faac2581565b73ec32cc0267002618c339274c18ad48d2bf2a9c7e81565b73f0d1c69cc148db2437131a5a736d77fd6fa20b4781565b73d506b22a6b3216b736021fa262d0f5d686e07b3581565b731d6f6dbd68bd438950c37b1d514e49306f65291e81565b736edce65403992e310a62460808c4b910d972f10f81565b73d077a400968890eacc75cdc901f0356c943e4fdb81565b73ecc446a3219da4594d5ede8314f500212e496e1781565b60025f9054906101000a900473ffffffffffffffffffffffffffffffffffffffff1681565b7331fc86e13108a098830eea63a8a9f6d80dfc89aa81565b737b3c20d2b3f8c205f624e62d356354ed1ae9f64b81565b739454f0eabc7c4ea9ebf89190b8bf9051a0468e0381565b5f5f9054906101000a900473ffffffffffffffffffffffffffffffffffffffff1681565b73dbbb07e1ae9d0f23ac6da9bdda3dff96fca7365081565b73acde1f22eeab249d3ca6ba8805c8fee9f52a16e781565b73e1a12515f9ab2764b887bf60b923ca494ebbb2d681565b73ebb7a56fd2d0231a9bf7240542cbd09a641a29fc81565b7333faba0e0ce340afc4fb03038151ff7ee1d5f95b81565b73fc4ea96c3de3ba60516976390fa4e945a0b8817b81565b7396949b9f94b84eeb2b590aec033a825f17d5d6dd81565b734c8962833db7206fd45671e9dc806e4fcc0dcb7881565b600a5f9054906101000a900473ffffffffffffffffffffffffffffffffffffffff1681565b73057852e8211698a22953e0343aae24e446ecf10581565b60055f9054906101000a900473ffffffffffffffffffffffffffffffffffffffff1681565b739714ccf1dedef14bab5013625db92746c1358cb481565b73bdc661eecb0dcfb940a34008e0190c9103013c4181565b60015f9054906101000a900473ffffffffffffffffffffffffffffffffffffffff1681565b60045f9054906101000a900473ffffffffffffffffffffffffffffffffffffffff1681565b731a44076050125825900e736c501f859c50fe728c81565b73a7b5189bca84cd304d8553977c7c614329750d9981565b7312523de19dc41c91f7d2093e0cfbb76b17012c8d81565b600181565b73ec0906949f88f72bf9206e84764163e24a56a49981565b73034cf520e48c7e87763466949058965f7a5a318181565b731a44076050125825900e736c501f859c50fe728c81565b73df05e9abf64da281b3cbd8ac3581022ec4841fb281565b73c72f2eb4a97f19ecd0c10b5201676a10b6d8bb6781565b7333d56fc7ef4b54a8c358548cea3d9aead1619ee981565b7346638ad472507482b7d5ba45124e93d16bc97ece81565b73c7e9cf4bc5f6c43e1410ffa33436287968003ace81565b73c70ab6f32772f59fbfc23889caf4ba3376c84baf81565b73374427909212b29fcc3ffe8e7920a190a3031cb881565b739e77f602e0ec09078f9ba50c9a453edc795b0a4e81565b7333e5fcc13d7439cc62d54c41aa966197145b3cd781565b7302a66b51fc24e08535a6cfe1e11e532d8a08921281565b73c28446267b3c9a733d6c7419535b883908e5581381565b73f3f7c9320b0dbf780092daaab740b7b85552225881565b732cca08ae69e0c44b18a57ab2a87644234daebae481565b73da5d036f51bd6fe5e32915a53595b71312d45f9181565b73a324880f884036e3d21a09b90269e1ac57c7ec8a81565b736d68a52bc77f2eac3582a7072ead94c19b9f480c81565b73ae1b8d3b428d6a8f62df2f623081eac8734168fe81565b7319aac5f612f524b754ca7e7c41cbfa2e981a443281565b738beee743829af63f5b37e52d5ef8477ef12511de81565b73684a2aaf3d98bc8ed2c07988e8da9023026ad51181565b733705620c09d43935c00852d3610e31c942595ce881565b73487b1e0177b3ac1aca7e8c353ed0df133593a8eb81565b73fde4c96c8593536e31f229ea8f37b2ada2699bb281565b733a1353926e2c1ada7acc93a6fbe73c1ec6b1e93181565b600b5f9054906101000a900473ffffffffffffffffffffffffffffffffffffffff1681565b7fa49807205ce4d355092ef5a8a18f56e8913cf4a201fbe287825b095693c2177581565b73677f0172ff3e8eef477ce811ed57a85b8d8a3bda81565b7334730f2570e6cff8b1c91faabf37d0dd917c436781565b73ceb5c8903060197e46ab5ea5087b9f99cbc8da4981565b73677f0172ff3e8eef477ce811ed57a85b8d8a3bda81565b7343bb8beb166c8786c50a9d1d5c8482d667cf981a81565b73920cd2f6e139b6c40053bcd5f67923d1d7dd314081565b731e68394dbd41f77adf0644ce47b25d1023d664b181565b7302a66b51fc24e08535a6cfe1e11e532d8a08921281565b73eb36aa674745c48381aa3a8074e5485586dbd30881565b73fe4f79ea2211660a221bed8b4e2de7eb8579fe6781565b73ddf3266feaa899accf805f4379e5137144cb0a7d81565b739a289b849b32ff69a95f8584a03343a33ff6e5fd81565b73560bd1836c348c4a10eed7008e68ae58228dd11781565b73e4fe9782b809b7d66f0dcd10157275d2c4e4898d81565b73b516190f8192cceaf8b1da7d9ca1c6c75b9f410c81565b735c368bd6ce77b2ca47b4ba791fcc1f1645591c8481565b738a3d588d9f6ac041476b094f97ff94ec30169d3d81565b738a3d588d9f6ac041476b094f97ff94ec30169d3d81565b73937aba873827bf883ced83ca557697427eaa46ee81565b73394239573079a46e438ea6d118fd96d37a61f27081565b73a628a83cc869b82a684895f628029eb90ee6022481565b735c43afab54bd5e5568d0ad54ea60d4d065303c3581565b7304c37dc1b538e00b31e6bc883e16d97cd7937a1081565b73e4fe9782b809b7d66f0dcd10157275d2c4e4898d81565b619d3581565b727f735fd070ded4b0b58d430c392ff0190ec20f81565b738b9b67b22ab2ed6ee324c2fd43734dbd2dddd04581565b733703a1da99a2bdf2d8ce57802aacb20fb546ff1281565b7360377628d1733fe0fb64d8b84466b461974da60a81565b737b3c20d2b3f8c205f624e62d356354ed1ae9f64b81565b735ddbbc68527214e0aca3b4175860080cbdaa12ff81565b5f5f1b81565b739454f0eabc7c4ea9ebf89190b8bf9051a0468e0381565b734852bc014401415c4ce4788a04cab019d1527aaa81565b73ceb5c8903060197e46ab5ea5087b9f99cbc8da4981565b73ed095e8dd2d72a8306fbea923bff5091c000e96381565b736bd925aa58325fba65ea7d4412ddb2e5d2d9427d81565b73b0e96105543cba4b3d82911e7336f19bd03b036081565b73c80233ad8251e668becbc3b0415707fc7075501e81565b731385df17f009f88e6ca1380798bf20b0669c8ee081565b7326991986aec6748f439940949b7487341800638381565b7333faba0e0ce340afc4fb03038151ff7ee1d5f95b81565b73b83e44f1d59bd8743ae45816acd5622fa1a5624d81565b7326149bd6a6d2e2cfb358852a7ea186afe58591e181565b7374e79e900a20d841d9af9fc5361cefea9a3247c281565b73420000000000000000000000000000000000000681565b739bd31b110c559884c49d1ba3e60c1724f2e336a781565b619cd681565b6175ae81565b739025095263d1e548dc890a7589a4c78038ac40ab81565b73943fcc03799400a672a8f82907d3a320fa76efc181565b737f047526f942147a228f2709bb66a3bdea71ed2681565b73684a2aaf3d98bc8ed2c07988e8da9023026ad51181565b73f8af5114ad19422e059797ca2515febd8bc06bd181565b73a971cd2714fbcc9a942b09bc391a724df933820681565b60095f9054906101000a900473ffffffffffffffffffffffffffffffffffffffff1681565b7346da9f76c20a752132ddaefd2b14870e0a152d7181565b73c1868e054425d378095a003ecba3823a5d0135c981565b73eac136456d078bb76f59dccb2d5e008b31afe1cf81565b73a5b25a041cfc241f2b808b3298e2cb7ceb5dfcd281565b7315858a57854bbf0df60a737811d50e1ee785f9bc81565b73d8d5edce9f0e3544d2a712818232fda7502ba1a681565b735e6aad48fb0a23e9540a5eaffb87846e8ef04c4281565b73e4fe9782b809b7d66f0dcd10157275d2c4e4898d81565b73bd699511ce18407485d8572ef0fba783283fd98281565b73f15f575095a37a0325182c49a45fe05f09fc6b4d81565b73c72f2eb4a97f19ecd0c10b5201676a10b6d8bb6781565b733703a1da99a2bdf2d8ce57802aacb20fb546ff1281565b7331fc86e13108a098830eea63a8a9f6d80dfc89aa81565b733de8c22f6b84c575429c1b9cbf5bddd49cf129fc81565b735c43afab54bd5e5568d0ad54ea60d4d065303c3581565b73e1a12515f9ab2764b887bf60b923ca494ebbb2d681565b731154d04d07aee26ff2c200bd373eb76a7e5694d681565b73c3be8ab4ca0cefe3119a765b324bbdf54a16a65b81565b73718b1b67f287571767452cc7d24bcd95c63dba1381565b7339926da4905f5edb956f5db5f2e2ff044e0882b281565b73b5320b0b3a13cc860893e2bd79fcd7e13484dda281565b7f9f2df0fed2c77648de5860a4cc508cd0818c85b8b8a1ab4ceeef8d981c8956a681565b73fbc915dc39654b52b2e9284fb966c79a1071ea3a81565b73649ef2a788732900b82237c126a121be3282997c81565b60085f9054906101000a900473ffffffffffffffffffffffffffffffffffffffff1681565b5f81565b73bdc661eecb0dcfb940a34008e0190c9103013c4181565b73530f48df8e4d60bbf9bbcfe8cf584344514af19381565b731a44076050125825900e736c501f859c50fe728c81565b739eaa6ec9e0b55948309eb320166312cb0807b6de81565b73c746b3aab0c6da075c9b7b43ceebd437ef759d5b81565b73554833698ae0fb22ecc90b01222903fd62ca4b4781565b7fb19546dff01e856fb3f010c267a7b1c60363cf8a4664e21cc89c26224620214e81565b73e149187a987f129fd3d397ed04a60b0b89d1669f81565b7f65d7a28e3265b37a6474929f336521b332c1681b933f6cb9f3376673440d862a81565b73981846be8d2d697f4dfef6689a161a25ffbab8f981565b736edce65403992e310a62460808c4b910d972f10f81565b7310fd0d8280e94d0dbc3013b778ef26d47105ea7b81565b738bf79e425b54ecd75907b4eda00dced8c1a97db081565b73cfaf23d5d5f144f66a13e05a41b97c0c23aa4e1f81565b7364493bd2f250cc05d75bca93cc95447e2834638b81565b734ba8d8083e7f3652ccb084c32652e68566e9ef2381565b60065f9054906101000a900473ffffffffffffffffffffffffffffffffffffffff1681565b619d3681565b7346da9f76c20a752132ddaefd2b14870e0a152d7181565b73252d67d23308646cf6dae32a826de24ba21e7c1281565b7f189ab7a9244df0848122154315af71fe140f3db0fe014031783b0946b8c9d2e381565b73e2e025ff8a8adb2561e3c631b5a03842b9a1ae8881565b7371c184d899c1774d597d8d80526fb02df708a69a81565b60075f9054906101000a900473ffffffffffffffffffffffffffffffffffffffff1681565b730555e30da8f98308edb960aa94c0db47230d2b9c81565b73cda0bebc32bec4813e6307a3d7774702fdf6392f81565b732f4c6eea955e95e6d65e08620d980c0e0e92211f81565b73b516190f8192cceaf8b1da7d9ca1c6c75b9f410c81565b73f6d95eeff99e171bb150d736eb2be23c9cf6a6ef81565b736c71b7bbde382f12165d5f7749b5fd37965b1e8a81565b73e5d4c481e25880ead3a1647a210a9f219204f3ca81565b736edce65403992e310a62460808c4b910d972f10f81565b5f73ffffffffffffffffffffffffffffffffffffffff82169050919050565b5f6137938261376a565b9050919050565b6137a381613789565b82525050565b5f6020820190506137bc5f83018461379a565b92915050565b5f63ffffffff82169050919050565b6137da816137c2565b82525050565b5f6020820190506137f35f8301846137d1565b92915050565b5f81519050919050565b5f82825260208201905092915050565b8281835e5f83830152505050565b5f601f19601f8301169050919050565b5f61383b826137f9565b6138458185613803565b9350613855818560208601613813565b61385e81613821565b840191505092915050565b5f6020820190508181035f8301526138818184613831565b905092915050565b5f819050919050565b61389b81613889565b82525050565b5f6020820190506138b45f830184613892565b92915050565b7f4e487b71000000000000000000000000000000000000000000000000000000005f52602260045260245ffd5b5f60028204905060018216806138fe57607f821691505b602082108103613911576139106138ba565b5b5091905056fea264697066735822122024e8b705935c1c8e4e2f95db18aa17fc2a832c20dfa46259fcbb4f0c33b2857a64736f6c634300081e0033","linkReferences":{}},"methodIdentifiers":{"ADMIN_ROLE()":"75b238fc","BASE_DVN1()":"e5120c47","BASE_DVN2()":"4190110d","BASE_DVN3()":"21f564bc","BASE_EID()":"15f88c92","BASE_EXECUTOR()":"5ac6d96d","BASE_KAIA()":"de439f50","BASE_LZ_ENDPOINT()":"e1001432","BASE_M0CK_WKAIA()":"5a432080","BASE_MOCK_USDT()":"1d4f0841","BASE_MOCK_USDT_ELEVATED_MINTER_BURNER()":"ac7fb1b7","BASE_MOCK_WKAIA_ELEVATED_MINTER_BURNER()":"b4fa0694","BASE_OAPP_ADAPTER()":"80531169","BASE_OAPP_SUPPLY_LIQUIDITY_USDT()":"543e593a","BASE_OFT_MOCK_USDT_ADAPTER()":"86cfc33e","BASE_OFT_MOCK_WKAIA_ADAPTER()":"e4154799","BASE_OFT_SKAIA_ADAPTER()":"b5300a3b","BASE_OFT_SUSDT_ADAPTER()":"08ff3f12","BASE_OFT_SWBTC_ADAPTER()":"1fe42bff","BASE_OFT_SWETH_ADAPTER()":"fd9eef04","BASE_OFT_SWKAIA_ADAPTER()":"aded9a19","BASE_RECEIVE_LIB()":"529f0d50","BASE_SEND_LIB()":"d4c73083","BASE_SKAIA()":"f4be7504","BASE_SKAIA_ELEVATED_MINTER_BURNER()":"efffd77c","BASE_SUSDT()":"cf642cc9","BASE_SUSDT_ELEVATED_MINTER_BURNER()":"1f8a2428","BASE_SWBTC()":"90406054","BASE_SWBTC_ELEVATED_MINTER_BURNER()":"c304e508","BASE_SWETH()":"08f40bed","BASE_SWETH_ELEVATED_MINTER_BURNER()":"12e7902a","BASE_SWKAIA()":"c5e4a509","BASE_SWKAIA_ELEVATED_MINTER_BURNER()":"ba91cd43","BASE_TESTNET_DVN1()":"ce8b78bc","BASE_TESTNET_DVN2()":"3269958e","BASE_TESTNET_DVN3()":"1492d3fc","BASE_TESTNET_EID()":"94a15d04","BASE_TESTNET_EXECUTOR()":"8f366638","BASE_TESTNET_LZ_ENDPOINT()":"27e6d4a1","BASE_TESTNET_RECEIVE_LIB()":"437ad10f","BASE_TESTNET_SEND_LIB()":"b96e686a","BASE_TESTNET_SUSDC()":"065f84b3","BASE_TESTNET_SUSDC_ELEVATED_MINTER_BURNER()":"fc11943c","BASE_TESTNET_SUSDC_IMPLEMENTATION()":"1c85d356","BASE_TESTNET_SUSDC_OFT_ADAPTER()":"35433987","BASE_TESTNET_SUSDT()":"df74e522","BASE_TESTNET_SUSDT_ELEVATED_MINTER_BURNER()":"2e940088","BASE_TESTNET_SUSDT_IMPLEMENTATION()":"cb15502a","BASE_TESTNET_SUSDT_OFT_ADAPTER()":"58718d01","BASE_USDT()":"709b9036","BASE_WBTC()":"fa9be367","BASE_WETH()":"b07e4297","BTC_USDT()":"2cf0eb05","DEFAULT_ADMIN_ROLE()":"a217fddf","ETH_USDT()":"b259d964","GLMR_DVN1()":"565fcaac","GLMR_DVN2()":"7b49a635","GLMR_DVN3()":"95df5838","GLMR_EID()":"b3a98105","GLMR_EXECUTOR()":"470ebcb0","GLMR_LZ_ENDPOINT()":"413b777a","GLMR_RECEIVE_LIB()":"fbdf0593","GLMR_SEND_LIB()":"ba717f86","KAIA_BTC_USDT_ADAPTER()":"98489dff","KAIA_DEX_ROUTER()":"5dd65d31","KAIA_DVN1()":"cea90728","KAIA_DVN2()":"2fa99666","KAIA_DVN3()":"ab562ddd","KAIA_EID()":"18567e88","KAIA_ETH_USDT_ADAPTER()":"2f9668e6","KAIA_EXECUTOR()":"e5933998","KAIA_HELPER_UTILS()":"ca4b481c","KAIA_IS_HEALTHY()":"3b97322b","KAIA_KAIA()":"450036c9","KAIA_KAIA_USDT_ADAPTER()":"4fefc38c","KAIA_LENDING_POOL_DEPLOYER()":"75df4307","KAIA_LENDING_POOL_FACTORY_IMPLEMENTATION()":"59c56692","KAIA_LENDING_POOL_FACTORY_PROXY()":"b5f0848d","KAIA_LENDING_POOL_ROUTER_DEPLOYER()":"990ef31d","KAIA_LIQUIDATOR()":"e07e02cc","KAIA_LZ_ENDPOINT()":"48d8d455","KAIA_MOCK_USDT()":"a7b395f2","KAIA_MOCK_USDT_ELEVATED_MINTER_BURNER()":"90df5b1a","KAIA_MOCK_WBTC()":"ef54e76f","KAIA_MOCK_WETH()":"d9edc888","KAIA_MOCK_WKAIA()":"b53b808e","KAIA_MOCK_WKAIA_ELEVATED_MINTER_BURNER()":"511856cd","KAIA_OAPP_SUPPLY_LIQUIDITY_USDT()":"b5a98911","KAIA_OFT_MOCK_USDT_ADAPTER()":"16c67bab","KAIA_OFT_MOCK_WKAIA_ADAPTER()":"5d9fb53d","KAIA_OFT_USDT_ADAPTER()":"634a8eee","KAIA_OFT_USDT_STARGATE_ADAPTER()":"80b6403b","KAIA_OFT_WBTC_ADAPTER()":"07e24762","KAIA_OFT_WETH_ADAPTER()":"aaf0e6eb","KAIA_OFT_WKAIA_ADAPTER()":"a016a1d7","KAIA_POSITION_DEPLOYER()":"aba30cca","KAIA_PROTOCOL()":"c025fe3c","KAIA_RECEIVE_LIB()":"8fd510cc","KAIA_SEND_LIB()":"3cdda029","KAIA_TESTNET_DVN1()":"87c7f7c9","KAIA_TESTNET_DVN2()":"92e926bb","KAIA_TESTNET_DVN3()":"c1a1680e","KAIA_TESTNET_EID()":"b2d04031","KAIA_TESTNET_EXECUTOR()":"85623f59","KAIA_TESTNET_HELPER_UTILS()":"fd455f75","KAIA_TESTNET_INTEREST_RATE_MODEL()":"c2abf750","KAIA_TESTNET_INTEREST_RATE_MODEL_IMPLEMENTATION()":"379ca0db","KAIA_TESTNET_IS_HEALTHY()":"7e7414c2","KAIA_TESTNET_IS_HEALTHY_IMPLEMENTATION()":"ae5c039d","KAIA_TESTNET_LENDING_POOL_DEPLOYER()":"55fc02fa","KAIA_TESTNET_LENDING_POOL_FACTORY()":"6c50cc29","KAIA_TESTNET_LENDING_POOL_FACTORY_IMPLEMENTATION()":"4d99ba08","KAIA_TESTNET_LENDING_POOL_ROUTER_DEPLOYER()":"71b9a718","KAIA_TESTNET_LZ_ENDPOINT()":"eba82c1e","KAIA_TESTNET_MOCK_DEX()":"ed584073","KAIA_TESTNET_MOCK_USDT()":"84af6aef","KAIA_TESTNET_MOCK_WETH()":"2f0249bc","KAIA_TESTNET_MOCK_WKAIA()":"84f9199e","KAIA_TESTNET_POSITION_DEPLOYER()":"471f1075","KAIA_TESTNET_PROTOCOL()":"68ebdd5e","KAIA_TESTNET_PROXY_DEPLOYER()":"f678f032","KAIA_TESTNET_RECEIVE_LIB()":"3573070d","KAIA_TESTNET_SEND_LIB()":"aa56b57a","KAIA_TESTNET_SHARES_TOKEN_DEPLOYER()":"1a3ca3b1","KAIA_TESTNET_SUPALA_EMITTER()":"80185b00","KAIA_TESTNET_SUPALA_EMITTER_IMPLEMENTATION()":"10d5dd4e","KAIA_TESTNET_TOKEN_DATA_STREAM()":"d5fda4b7","KAIA_TESTNET_TOKEN_DATA_STREAM_IMPLEMENTATION()":"21fba235","KAIA_TESTNET_USDT_ELEVATED_MINTER_BURNER()":"34392809","KAIA_TESTNET_USDT_OFT_ADAPTER()":"848dc5e9","KAIA_TESTNET_WETH_ELEVATED_MINTER_BURNER()":"3da090c0","KAIA_TESTNET_WETH_OFT_ADAPTER()":"c7908451","KAIA_TESTNET_WKAIA_ELEVATED_MINTER_BURNER()":"09315fa9","KAIA_TESTNET_WKAIA_OFT_ADAPTER()":"235feefd","KAIA_USDT()":"2a715dd7","KAIA_USDT_STARGATE()":"b430bac5","KAIA_USDT_USD_ADAPTER()":"c41ad641","KAIA_WBTC()":"eb3789bb","KAIA_WETH()":"0b54fe1e","KAIA_WKAIA()":"67406d42","MANTLE_TESTNET_DVN1()":"2f084bf4","MANTLE_TESTNET_DVN2()":"07ff60a1","MANTLE_TESTNET_DVN3()":"a78df687","MANTLE_TESTNET_EID()":"f31d7443","MANTLE_TESTNET_EXECUTOR()":"67d197c2","MANTLE_TESTNET_HELPER_UTILS()":"1baa220f","MANTLE_TESTNET_INTEREST_RATE_MODEL()":"1e538350","MANTLE_TESTNET_INTEREST_RATE_MODEL_IMPLEMENTATION()":"9196bfa0","MANTLE_TESTNET_IS_HEALTHY()":"f82e9691","MANTLE_TESTNET_IS_HEALTHY_IMPLEMENTATION()":"04cee161","MANTLE_TESTNET_LENDING_POOL_DEPLOYER()":"fb7a69a5","MANTLE_TESTNET_LENDING_POOL_FACTORY()":"b9261ba4","MANTLE_TESTNET_LENDING_POOL_FACTORY_IMPLEMENTATION()":"d0ff1a04","MANTLE_TESTNET_LENDING_POOL_ROUTER_DEPLOYER()":"84ad5239","MANTLE_TESTNET_LZ_ENDPOINT()":"fefcbc47","MANTLE_TESTNET_MOCK_DEX()":"8d7b0cda","MANTLE_TESTNET_MOCK_USDC()":"924ff369","MANTLE_TESTNET_MOCK_USDT()":"49dfa966","MANTLE_TESTNET_MOCK_WBTC()":"95be1111","MANTLE_TESTNET_MOCK_WETH()":"f2ba7e01","MANTLE_TESTNET_MOCK_WMNT()":"bd7ad9d6","MANTLE_TESTNET_POSITION_DEPLOYER()":"a7958314","MANTLE_TESTNET_PROTOCOL()":"c13b0f17","MANTLE_TESTNET_PROXY_DEPLOYER()":"8ca4b7e3","MANTLE_TESTNET_RECEIVE_LIB()":"8dd73f6b","MANTLE_TESTNET_SEND_LIB()":"85822d6e","MANTLE_TESTNET_SHARES_TOKEN_DEPLOYER()":"ad6afeef","MANTLE_TESTNET_SUPALA_EMITTER()":"0b624f7f","MANTLE_TESTNET_SUPALA_EMITTER_IMPLEMENTATION()":"4adeb12a","MANTLE_TESTNET_TOKEN_DATA_STREAM()":"04982fca","MANTLE_TESTNET_TOKEN_DATA_STREAM_IMPLEMENTATION()":"9f09202d","MANTLE_TESTNET_USDC_ELEVATED_MINTER_BURNER()":"a84bf70e","MANTLE_TESTNET_USDC_OFT_ADAPTER()":"f1fb0193","MANTLE_TESTNET_USDT_ELEVATED_MINTER_BURNER()":"ae3676fb","MANTLE_TESTNET_USDT_OFT_ADAPTER()":"0431f17d","MANTLE_TESTNET_WBTC_ELEVATED_MINTER_BURNER()":"fe96e490","MANTLE_TESTNET_WBTC_OFT_ADAPTER()":"e4b00434","MANTLE_TESTNET_WETH_ELEVATED_MINTER_BURNER()":"2259fe8d","MANTLE_TESTNET_WETH_OFT_ADAPTER()":"6e7ec259","MANTLE_TESTNET_WMNT_ELEVATED_MINTER_BURNER()":"d48f4ee0","MANTLE_TESTNET_WMNT_OFT_ADAPTER()":"6420c205","MINTER_ROLE()":"d5391393","NATIVE_USDT()":"37a4332a","OWNER_ROLE()":"e58378bb","PAUSER_ROLE()":"e63ab1e9","UPGRADER_ROLE()":"f72c0d8b","USDC_USD()":"269ae32d","USDT_USD()":"f85a16c8","btcUsdtAdapter()":"b908f70a","chainName()":"1c93b03a","dexRouter()":"0758d924","ethUsdtAdapter()":"dbc14a19","native()":"11b0b42d","nativeUsdtAdapter()":"f89b03da","oftNativeAdapter()":"73d095e4","oftNativeOriAdapter()":"3ab51ac8","oftUsdtAdapter()":"0d574d0d","oftWethAdapter()":"1335bc29","usdc()":"3e413bee","usdt()":"2f48ab7d","usdtUsdAdapter()":"f2e78435","wNative()":"2d68efc9","wbtc()":"3cdc5389","weth()":"3fc8cef3"},"id":92}