{"abi":[{"type":"function","name":"ADMIN_ROLE","inputs":[],"outputs":[{"name":"","type":"bytes32","internalType":"bytes32"}],"stateMutability":"view"},{"type":"function","name":"BASE_DVN1","inputs":[],"outputs":[{"name":"","type":"address","internalType":"address"}],"stateMutability":"view"},{"type":"function","name":"BASE_DVN2","inputs":[],"outputs":[{"name":"","type":"address","internalType":"address"}],"stateMutability":"view"},{"type":"function","name":"BASE_DVN3","inputs":[],"outputs":[{"name":"","type":"address","internalType":"address"}],"stateMutability":"view"},{"type":"function","name":"BASE_EID","inputs":[],"outputs":[{"name":"","type":"uint32","internalType":"uint32"}],"stateMutability":"view"},{"type":"function","name":"BASE_EXECUTOR","inputs":[],"outputs":[{"name":"","type":"address","internalType":"address"}],"stateMutability":"view"},{"type":"function","name":"BASE_KAIA","inputs":[],"outputs":[{"name":"","type":"address","internalType":"address"}],"stateMutability":"view"},{"type":"function","name":"BASE_LZ_ENDPOINT","inputs":[],"outputs":[{"name":"","type":"address","internalType":"address"}],"stateMutability":"view"},{"type":"function","name":"BASE_M0CK_WKAIA","inputs":[],"outputs":[{"name":"","type":"address","internalType":"address"}],"stateMutability":"view"},{"type":"function","name":"BASE_MOCK_USDT","inputs":[],"outputs":[{"name":"","type":"address","internalType":"address"}],"stateMutability":"view"},{"type":"function","name":"BASE_MOCK_USDT_ELEVATED_MINTER_BURNER","inputs":[],"outputs":[{"name":"","type":"address","internalType":"address"}],"stateMutability":"view"},{"type":"function","name":"BASE_MOCK_WKAIA_ELEVATED_MINTER_BURNER","inputs":[],"outputs":[{"name":"","type":"address","internalType":"address"}],"stateMutability":"view"},{"type":"function","name":"BASE_OAPP_ADAPTER","inputs":[],"outputs":[{"name":"","type":"address","internalType":"address"}],"stateMutability":"view"},{"type":"function","name":"BASE_OAPP_SUPPLY_LIQUIDITY_USDT","inputs":[],"outputs":[{"name":"","type":"address","internalType":"address"}],"stateMutability":"view"},{"type":"function","name":"BASE_OFT_MOCK_USDT_ADAPTER","inputs":[],"outputs":[{"name":"","type":"address","internalType":"address"}],"stateMutability":"view"},{"type":"function","name":"BASE_OFT_MOCK_WKAIA_ADAPTER","inputs":[],"outputs":[{"name":"","type":"address","internalType":"address"}],"stateMutability":"view"},{"type":"function","name":"BASE_OFT_SKAIA_ADAPTER","inputs":[],"outputs":[{"name":"","type":"address","internalType":"address"}],"stateMutability":"view"},{"type":"function","name":"BASE_OFT_SUSDT_ADAPTER","inputs":[],"outputs":[{"name":"","type":"address","internalType":"address"}],"stateMutability":"view"},{"type":"function","name":"BASE_OFT_SWBTC_ADAPTER","inputs":[],"outputs":[{"name":"","type":"address","internalType":"address"}],"stateMutability":"view"},{"type":"function","name":"BASE_OFT_SWETH_ADAPTER","inputs":[],"outputs":[{"name":"","type":"address","internalType":"address"}],"stateMutability":"view"},{"type":"function","name":"BASE_OFT_SWKAIA_ADAPTER","inputs":[],"outputs":[{"name":"","type":"address","internalType":"address"}],"stateMutability":"view"},{"type":"function","name":"BASE_RECEIVE_LIB","inputs":[],"outputs":[{"name":"","type":"address","internalType":"address"}],"stateMutability":"view"},{"type":"function","name":"BASE_SEND_LIB","inputs":[],"outputs":[{"name":"","type":"address","internalType":"address"}],"stateMutability":"view"},{"type":"function","name":"BASE_SKAIA","inputs":[],"outputs":[{"name":"","type":"address","internalType":"address"}],"stateMutability":"view"},{"type":"function","name":"BASE_SKAIA_ELEVATED_MINTER_BURNER","inputs":[],"outputs":[{"name":"","type":"address","internalType":"address"}],"stateMutability":"view"},{"type":"function","name":"BASE_SUSDT","inputs":[],"outputs":[{"name":"","type":"address","internalType":"address"}],"stateMutability":"view"},{"type":"function","name":"BASE_SUSDT_ELEVATED_MINTER_BURNER","inputs":[],"outputs":[{"name":"","type":"address","internalType":"address"}],"stateMutability":"view"},{"type":"function","name":"BASE_SWBTC","inputs":[],"outputs":[{"name":"","type":"address","internalType":"address"}],"stateMutability":"view"},{"type":"function","name":"BASE_SWBTC_ELEVATED_MINTER_BURNER","inputs":[],"outputs":[{"name":"","type":"address","internalType":"address"}],"stateMutability":"view"},{"type":"function","name":"BASE_SWETH","inputs":[],"outputs":[{"name":"","type":"address","internalType":"address"}],"stateMutability":"view"},{"type":"function","name":"BASE_SWETH_ELEVATED_MINTER_BURNER","inputs":[],"outputs":[{"name":"","type":"address","internalType":"address"}],"stateMutability":"view"},{"type":"function","name":"BASE_SWKAIA","inputs":[],"outputs":[{"name":"","type":"address","internalType":"address"}],"stateMutability":"view"},{"type":"function","name":"BASE_SWKAIA_ELEVATED_MINTER_BURNER","inputs":[],"outputs":[{"name":"","type":"address","internalType":"address"}],"stateMutability":"view"},{"type":"function","name":"BASE_TESTNET_DVN1","inputs":[],"outputs":[{"name":"","type":"address","internalType":"address"}],"stateMutability":"view"},{"type":"function","name":"BASE_TESTNET_DVN2","inputs":[],"outputs":[{"name":"","type":"address","internalType":"address"}],"stateMutability":"view"},{"type":"function","name":"BASE_TESTNET_DVN3","inputs":[],"outputs":[{"name":"","type":"address","internalType":"address"}],"stateMutability":"view"},{"type":"function","name":"BASE_TESTNET_EID","inputs":[],"outputs":[{"name":"","type":"uint32","internalType":"uint32"}],"stateMutability":"view"},{"type":"function","name":"BASE_TESTNET_EXECUTOR","inputs":[],"outputs":[{"name":"","type":"address","internalType":"address"}],"stateMutability":"view"},{"type":"function","name":"BASE_TESTNET_LZ_ENDPOINT","inputs":[],"outputs":[{"name":"","type":"address","internalType":"address"}],"stateMutability":"view"},{"type":"function","name":"BASE_TESTNET_RECEIVE_LIB","inputs":[],"outputs":[{"name":"","type":"address","internalType":"address"}],"stateMutability":"view"},{"type":"function","name":"BASE_TESTNET_SEND_LIB","inputs":[],"outputs":[{"name":"","type":"address","internalType":"address"}],"stateMutability":"view"},{"type":"function","name":"BASE_TESTNET_SUSDC","inputs":[],"outputs":[{"name":"","type":"address","internalType":"address"}],"stateMutability":"view"},{"type":"function","name":"BASE_TESTNET_SUSDC_ELEVATED_MINTER_BURNER","inputs":[],"outputs":[{"name":"","type":"address","internalType":"address"}],"stateMutability":"view"},{"type":"function","name":"BASE_TESTNET_SUSDC_IMPLEMENTATION","inputs":[],"outputs":[{"name":"","type":"address","internalType":"address"}],"stateMutability":"view"},{"type":"function","name":"BASE_TESTNET_SUSDC_OFT_ADAPTER","inputs":[],"outputs":[{"name":"","type":"address","internalType":"address"}],"stateMutability":"view"},{"type":"function","name":"BASE_TESTNET_SUSDT","inputs":[],"outputs":[{"name":"","type":"address","internalType":"address"}],"stateMutability":"view"},{"type":"function","name":"BASE_TESTNET_SUSDT_ELEVATED_MINTER_BURNER","inputs":[],"outputs":[{"name":"","type":"address","internalType":"address"}],"stateMutability":"view"},{"type":"function","name":"BASE_TESTNET_SUSDT_IMPLEMENTATION","inputs":[],"outputs":[{"name":"","type":"address","internalType":"address"}],"stateMutability":"view"},{"type":"function","name":"BASE_TESTNET_SUSDT_OFT_ADAPTER","inputs":[],"outputs":[{"name":"","type":"address","internalType":"address"}],"stateMutability":"view"},{"type":"function","name":"BASE_USDT","inputs":[],"outputs":[{"name":"","type":"address","internalType":"address"}],"stateMutability":"view"},{"type":"function","name":"BASE_WBTC","inputs":[],"outputs":[{"name":"","type":"address","internalType":"address"}],"stateMutability":"view"},{"type":"function","name":"BASE_WETH","inputs":[],"outputs":[{"name":"","type":"address","internalType":"address"}],"stateMutability":"view"},{"type":"function","name":"BTC_USDT","inputs":[],"outputs":[{"name":"","type":"address","internalType":"address"}],"stateMutability":"view"},{"type":"function","name":"DEFAULT_ADMIN_ROLE","inputs":[],"outputs":[{"name":"","type":"bytes32","internalType":"bytes32"}],"stateMutability":"view"},{"type":"function","name":"ETH_USDT","inputs":[],"outputs":[{"name":"","type":"address","internalType":"address"}],"stateMutability":"view"},{"type":"function","name":"GLMR_DVN1","inputs":[],"outputs":[{"name":"","type":"address","internalType":"address"}],"stateMutability":"view"},{"type":"function","name":"GLMR_DVN2","inputs":[],"outputs":[{"name":"","type":"address","internalType":"address"}],"stateMutability":"view"},{"type":"function","name":"GLMR_DVN3","inputs":[],"outputs":[{"name":"","type":"address","internalType":"address"}],"stateMutability":"view"},{"type":"function","name":"GLMR_EID","inputs":[],"outputs":[{"name":"","type":"uint32","internalType":"uint32"}],"stateMutability":"view"},{"type":"function","name":"GLMR_EXECUTOR","inputs":[],"outputs":[{"name":"","type":"address","internalType":"address"}],"stateMutability":"view"},{"type":"function","name":"GLMR_LZ_ENDPOINT","inputs":[],"outputs":[{"name":"","type":"address","internalType":"address"}],"stateMutability":"view"},{"type":"function","name":"GLMR_RECEIVE_LIB","inputs":[],"outputs":[{"name":"","type":"address","internalType":"address"}],"stateMutability":"view"},{"type":"function","name":"GLMR_SEND_LIB","inputs":[],"outputs":[{"name":"","type":"address","internalType":"address"}],"stateMutability":"view"},{"type":"function","name":"KAIA_BTC_USDT_ADAPTER","inputs":[],"outputs":[{"name":"","type":"address","internalType":"address"}],"stateMutability":"view"},{"type":"function","name":"KAIA_DEX_ROUTER","inputs":[],"outputs":[{"name":"","type":"address","internalType":"address"}],"stateMutability":"view"},{"type":"function","name":"KAIA_DVN1","inputs":[],"outputs":[{"name":"","type":"address","internalType":"address"}],"stateMutability":"view"},{"type":"function","name":"KAIA_DVN2","inputs":[],"outputs":[{"name":"","type":"address","internalType":"address"}],"stateMutability":"view"},{"type":"function","name":"KAIA_DVN3","inputs":[],"outputs":[{"name":"","type":"address","internalType":"address"}],"stateMutability":"view"},{"type":"function","name":"KAIA_EID","inputs":[],"outputs":[{"name":"","type":"uint32","internalType":"uint32"}],"stateMutability":"view"},{"type":"function","name":"KAIA_ETH_USDT_ADAPTER","inputs":[],"outputs":[{"name":"","type":"address","internalType":"address"}],"stateMutability":"view"},{"type":"function","name":"KAIA_EXECUTOR","inputs":[],"outputs":[{"name":"","type":"address","internalType":"address"}],"stateMutability":"view"},{"type":"function","name":"KAIA_HELPER_UTILS","inputs":[],"outputs":[{"name":"","type":"address","internalType":"address"}],"stateMutability":"view"},{"type":"function","name":"KAIA_IS_HEALTHY","inputs":[],"outputs":[{"name":"","type":"address","internalType":"address"}],"stateMutability":"view"},{"type":"function","name":"KAIA_KAIA","inputs":[],"outputs":[{"name":"","type":"address","internalType":"address"}],"stateMutability":"view"},{"type":"function","name":"KAIA_KAIA_USDT_ADAPTER","inputs":[],"outputs":[{"name":"","type":"address","internalType":"address"}],"stateMutability":"view"},{"type":"function","name":"KAIA_LENDING_POOL_DEPLOYER","inputs":[],"outputs":[{"name":"","type":"address","internalType":"address"}],"stateMutability":"view"},{"type":"function","name":"KAIA_LENDING_POOL_FACTORY_IMPLEMENTATION","inputs":[],"outputs":[{"name":"","type":"address","internalType":"address"}],"stateMutability":"view"},{"type":"function","name":"KAIA_LENDING_POOL_FACTORY_PROXY","inputs":[],"outputs":[{"name":"","type":"address","internalType":"address"}],"stateMutability":"view"},{"type":"function","name":"KAIA_LENDING_POOL_ROUTER_DEPLOYER","inputs":[],"outputs":[{"name":"","type":"address","internalType":"address"}],"stateMutability":"view"},{"type":"function","name":"KAIA_LIQUIDATOR","inputs":[],"outputs":[{"name":"","type":"address","internalType":"address"}],"stateMutability":"view"},{"type":"function","name":"KAIA_LZ_ENDPOINT","inputs":[],"outputs":[{"name":"","type":"address","internalType":"address"}],"stateMutability":"view"},{"type":"function","name":"KAIA_MOCK_USDT","inputs":[],"outputs":[{"name":"","type":"address","internalType":"address"}],"stateMutability":"view"},{"type":"function","name":"KAIA_MOCK_USDT_ELEVATED_MINTER_BURNER","inputs":[],"outputs":[{"name":"","type":"address","internalType":"address"}],"stateMutability":"view"},{"type":"function","name":"KAIA_MOCK_WBTC","inputs":[],"outputs":[{"name":"","type":"address","internalType":"address"}],"stateMutability":"view"},{"type":"function","name":"KAIA_MOCK_WETH","inputs":[],"outputs":[{"name":"","type":"address","internalType":"address"}],"stateMutability":"view"},{"type":"function","name":"KAIA_MOCK_WKAIA","inputs":[],"outputs":[{"name":"","type":"address","internalType":"address"}],"stateMutability":"view"},{"type":"function","name":"KAIA_MOCK_WKAIA_ELEVATED_MINTER_BURNER","inputs":[],"outputs":[{"name":"","type":"address","internalType":"address"}],"stateMutability":"view"},{"type":"function","name":"KAIA_OAPP_SUPPLY_LIQUIDITY_USDT","inputs":[],"outputs":[{"name":"","type":"address","internalType":"address"}],"stateMutability":"view"},{"type":"function","name":"KAIA_OFT_MOCK_USDT_ADAPTER","inputs":[],"outputs":[{"name":"","type":"address","internalType":"address"}],"stateMutability":"view"},{"type":"function","name":"KAIA_OFT_MOCK_WKAIA_ADAPTER","inputs":[],"outputs":[{"name":"","type":"address","internalType":"address"}],"stateMutability":"view"},{"type":"function","name":"KAIA_OFT_USDT_ADAPTER","inputs":[],"outputs":[{"name":"","type":"address","internalType":"address"}],"stateMutability":"view"},{"type":"function","name":"KAIA_OFT_USDT_STARGATE_ADAPTER","inputs":[],"outputs":[{"name":"","type":"address","internalType":"address"}],"stateMutability":"view"},{"type":"function","name":"KAIA_OFT_WBTC_ADAPTER","inputs":[],"outputs":[{"name":"","type":"address","internalType":"address"}],"stateMutability":"view"},{"type":"function","name":"KAIA_OFT_WETH_ADAPTER","inputs":[],"outputs":[{"name":"","type":"address","internalType":"address"}],"stateMutability":"view"},{"type":"function","name":"KAIA_OFT_WKAIA_ADAPTER","inputs":[],"outputs":[{"name":"","type":"address","internalType":"address"}],"stateMutability":"view"},{"type":"function","name":"KAIA_POSITION_DEPLOYER","inputs":[],"outputs":[{"name":"","type":"address","internalType":"address"}],"stateMutability":"view"},{"type":"function","name":"KAIA_PROTOCOL","inputs":[],"outputs":[{"name":"","type":"address","internalType":"address"}],"stateMutability":"view"},{"type":"function","name":"KAIA_RECEIVE_LIB","inputs":[],"outputs":[{"name":"","type":"address","internalType":"address"}],"stateMutability":"view"},{"type":"function","name":"KAIA_SEND_LIB","inputs":[],"outputs":[{"name":"","type":"address","internalType":"address"}],"stateMutability":"view"},{"type":"function","name":"KAIA_TESTNET_DVN1","inputs":[],"outputs":[{"name":"","type":"address","internalType":"address"}],"stateMutability":"view"},{"type":"function","name":"KAIA_TESTNET_DVN2","inputs":[],"outputs":[{"name":"","type":"address","internalType":"address"}],"stateMutability":"view"},{"type":"function","name":"KAIA_TESTNET_DVN3","inputs":[],"outputs":[{"name":"","type":"address","internalType":"address"}],"stateMutability":"view"},{"type":"function","name":"KAIA_TESTNET_EID","inputs":[],"outputs":[{"name":"","type":"uint32","internalType":"uint32"}],"stateMutability":"view"},{"type":"function","name":"KAIA_TESTNET_EXECUTOR","inputs":[],"outputs":[{"name":"","type":"address","internalType":"address"}],"stateMutability":"view"},{"type":"function","name":"KAIA_TESTNET_HELPER_UTILS","inputs":[],"outputs":[{"name":"","type":"address","internalType":"address"}],"stateMutability":"view"},{"type":"function","name":"KAIA_TESTNET_INTEREST_RATE_MODEL","inputs":[],"outputs":[{"name":"","type":"address","internalType":"address"}],"stateMutability":"view"},{"type":"function","name":"KAIA_TESTNET_INTEREST_RATE_MODEL_IMPLEMENTATION","inputs":[],"outputs":[{"name":"","type":"address","internalType":"address"}],"stateMutability":"view"},{"type":"function","name":"KAIA_TESTNET_IS_HEALTHY","inputs":[],"outputs":[{"name":"","type":"address","internalType":"address"}],"stateMutability":"view"},{"type":"function","name":"KAIA_TESTNET_IS_HEALTHY_IMPLEMENTATION","inputs":[],"outputs":[{"name":"","type":"address","internalType":"address"}],"stateMutability":"view"},{"type":"function","name":"KAIA_TESTNET_LENDING_POOL_DEPLOYER","inputs":[],"outputs":[{"name":"","type":"address","internalType":"address"}],"stateMutability":"view"},{"type":"function","name":"KAIA_TESTNET_LENDING_POOL_FACTORY","inputs":[],"outputs":[{"name":"","type":"address","internalType":"address"}],"stateMutability":"view"},{"type":"function","name":"KAIA_TESTNET_LENDING_POOL_FACTORY_IMPLEMENTATION","inputs":[],"outputs":[{"name":"","type":"address","internalType":"address"}],"stateMutability":"view"},{"type":"function","name":"KAIA_TESTNET_LENDING_POOL_ROUTER_DEPLOYER","inputs":[],"outputs":[{"name":"","type":"address","internalType":"address"}],"stateMutability":"view"},{"type":"function","name":"KAIA_TESTNET_LZ_ENDPOINT","inputs":[],"outputs":[{"name":"","type":"address","internalType":"address"}],"stateMutability":"view"},{"type":"function","name":"KAIA_TESTNET_MOCK_DEX","inputs":[],"outputs":[{"name":"","type":"address","internalType":"address"}],"stateMutability":"view"},{"type":"function","name":"KAIA_TESTNET_MOCK_USDT","inputs":[],"outputs":[{"name":"","type":"address","internalType":"address"}],"stateMutability":"view"},{"type":"function","name":"KAIA_TESTNET_MOCK_WETH","inputs":[],"outputs":[{"name":"","type":"address","internalType":"address"}],"stateMutability":"view"},{"type":"function","name":"KAIA_TESTNET_MOCK_WKAIA","inputs":[],"outputs":[{"name":"","type":"address","internalType":"address"}],"stateMutability":"view"},{"type":"function","name":"KAIA_TESTNET_POSITION_DEPLOYER","inputs":[],"outputs":[{"name":"","type":"address","internalType":"address"}],"stateMutability":"view"},{"type":"function","name":"KAIA_TESTNET_PROTOCOL","inputs":[],"outputs":[{"name":"","type":"address","internalType":"address"}],"stateMutability":"view"},{"type":"function","name":"KAIA_TESTNET_PROXY_DEPLOYER","inputs":[],"outputs":[{"name":"","type":"address","internalType":"address"}],"stateMutability":"view"},{"type":"function","name":"KAIA_TESTNET_RECEIVE_LIB","inputs":[],"outputs":[{"name":"","type":"address","internalType":"address"}],"stateMutability":"view"},{"type":"function","name":"KAIA_TESTNET_SEND_LIB","inputs":[],"outputs":[{"name":"","type":"address","internalType":"address"}],"stateMutability":"view"},{"type":"function","name":"KAIA_TESTNET_SHARES_TOKEN_DEPLOYER","inputs":[],"outputs":[{"name":"","type":"address","internalType":"address"}],"stateMutability":"view"},{"type":"function","name":"KAIA_TESTNET_SUPALA_EMITTER","inputs":[],"outputs":[{"name":"","type":"address","internalType":"address"}],"stateMutability":"view"},{"type":"function","name":"KAIA_TESTNET_SUPALA_EMITTER_IMPLEMENTATION","inputs":[],"outputs":[{"name":"","type":"address","internalType":"address"}],"stateMutability":"view"},{"type":"function","name":"KAIA_TESTNET_TOKEN_DATA_STREAM","inputs":[],"outputs":[{"name":"","type":"address","internalType":"address"}],"stateMutability":"view"},{"type":"function","name":"KAIA_TESTNET_TOKEN_DATA_STREAM_IMPLEMENTATION","inputs":[],"outputs":[{"name":"","type":"address","internalType":"address"}],"stateMutability":"view"},{"type":"function","name":"KAIA_TESTNET_USDT_ELEVATED_MINTER_BURNER","inputs":[],"outputs":[{"name":"","type":"address","internalType":"address"}],"stateMutability":"view"},{"type":"function","name":"KAIA_TESTNET_USDT_OFT_ADAPTER","inputs":[],"outputs":[{"name":"","type":"address","internalType":"address"}],"stateMutability":"view"},{"type":"function","name":"KAIA_TESTNET_WETH_ELEVATED_MINTER_BURNER","inputs":[],"outputs":[{"name":"","type":"address","internalType":"address"}],"stateMutability":"view"},{"type":"function","name":"KAIA_TESTNET_WETH_OFT_ADAPTER","inputs":[],"outputs":[{"name":"","type":"address","internalType":"address"}],"stateMutability":"view"},{"type":"function","name":"KAIA_TESTNET_WKAIA_ELEVATED_MINTER_BURNER","inputs":[],"outputs":[{"name":"","type":"address","internalType":"address"}],"stateMutability":"view"},{"type":"function","name":"KAIA_TESTNET_WKAIA_OFT_ADAPTER","inputs":[],"outputs":[{"name":"","type":"address","internalType":"address"}],"stateMutability":"view"},{"type":"function","name":"KAIA_USDT","inputs":[],"outputs":[{"name":"","type":"address","internalType":"address"}],"stateMutability":"view"},{"type":"function","name":"KAIA_USDT_STARGATE","inputs":[],"outputs":[{"name":"","type":"address","internalType":"address"}],"stateMutability":"view"},{"type":"function","name":"KAIA_USDT_USD_ADAPTER","inputs":[],"outputs":[{"name":"","type":"address","internalType":"address"}],"stateMutability":"view"},{"type":"function","name":"KAIA_WBTC","inputs":[],"outputs":[{"name":"","type":"address","internalType":"address"}],"stateMutability":"view"},{"type":"function","name":"KAIA_WETH","inputs":[],"outputs":[{"name":"","type":"address","internalType":"address"}],"stateMutability":"view"},{"type":"function","name":"KAIA_WKAIA","inputs":[],"outputs":[{"name":"","type":"address","internalType":"address"}],"stateMutability":"view"},{"type":"function","name":"MANTLE_TESTNET_AAPLX_USD","inputs":[],"outputs":[{"name":"","type":"address","internalType":"address"}],"stateMutability":"view"},{"type":"function","name":"MANTLE_TESTNET_AMZNX_USD","inputs":[],"outputs":[{"name":"","type":"address","internalType":"address"}],"stateMutability":"view"},{"type":"function","name":"MANTLE_TESTNET_DVN1","inputs":[],"outputs":[{"name":"","type":"address","internalType":"address"}],"stateMutability":"view"},{"type":"function","name":"MANTLE_TESTNET_DVN2","inputs":[],"outputs":[{"name":"","type":"address","internalType":"address"}],"stateMutability":"view"},{"type":"function","name":"MANTLE_TESTNET_DVN3","inputs":[],"outputs":[{"name":"","type":"address","internalType":"address"}],"stateMutability":"view"},{"type":"function","name":"MANTLE_TESTNET_EID","inputs":[],"outputs":[{"name":"","type":"uint32","internalType":"uint32"}],"stateMutability":"view"},{"type":"function","name":"MANTLE_TESTNET_EXECUTOR","inputs":[],"outputs":[{"name":"","type":"address","internalType":"address"}],"stateMutability":"view"},{"type":"function","name":"MANTLE_TESTNET_HELPER_UTILS","inputs":[],"outputs":[{"name":"","type":"address","internalType":"address"}],"stateMutability":"view"},{"type":"function","name":"MANTLE_TESTNET_INTEREST_RATE_MODEL","inputs":[],"outputs":[{"name":"","type":"address","internalType":"address"}],"stateMutability":"view"},{"type":"function","name":"MANTLE_TESTNET_INTEREST_RATE_MODEL_IMPLEMENTATION","inputs":[],"outputs":[{"name":"","type":"address","internalType":"address"}],"stateMutability":"view"},{"type":"function","name":"MANTLE_TESTNET_IS_HEALTHY","inputs":[],"outputs":[{"name":"","type":"address","internalType":"address"}],"stateMutability":"view"},{"type":"function","name":"MANTLE_TESTNET_IS_HEALTHY_IMPLEMENTATION","inputs":[],"outputs":[{"name":"","type":"address","internalType":"address"}],"stateMutability":"view"},{"type":"function","name":"MANTLE_TESTNET_LENDING_POOL_DEPLOYER","inputs":[],"outputs":[{"name":"","type":"address","internalType":"address"}],"stateMutability":"view"},{"type":"function","name":"MANTLE_TESTNET_LENDING_POOL_FACTORY","inputs":[],"outputs":[{"name":"","type":"address","internalType":"address"}],"stateMutability":"view"},{"type":"function","name":"MANTLE_TESTNET_LENDING_POOL_FACTORY_IMPLEMENTATION","inputs":[],"outputs":[{"name":"","type":"address","internalType":"address"}],"stateMutability":"view"},{"type":"function","name":"MANTLE_TESTNET_LENDING_POOL_ROUTER_DEPLOYER","inputs":[],"outputs":[{"name":"","type":"address","internalType":"address"}],"stateMutability":"view"},{"type":"function","name":"MANTLE_TESTNET_LZ_ENDPOINT","inputs":[],"outputs":[{"name":"","type":"address","internalType":"address"}],"stateMutability":"view"},{"type":"function","name":"MANTLE_TESTNET_MOCK_AAPLX","inputs":[],"outputs":[{"name":"","type":"address","internalType":"address"}],"stateMutability":"view"},{"type":"function","name":"MANTLE_TESTNET_MOCK_AMZNX","inputs":[],"outputs":[{"name":"","type":"address","internalType":"address"}],"stateMutability":"view"},{"type":"function","name":"MANTLE_TESTNET_MOCK_DEX","inputs":[],"outputs":[{"name":"","type":"address","internalType":"address"}],"stateMutability":"view"},{"type":"function","name":"MANTLE_TESTNET_MOCK_MSFTX","inputs":[],"outputs":[{"name":"","type":"address","internalType":"address"}],"stateMutability":"view"},{"type":"function","name":"MANTLE_TESTNET_MOCK_USDC","inputs":[],"outputs":[{"name":"","type":"address","internalType":"address"}],"stateMutability":"view"},{"type":"function","name":"MANTLE_TESTNET_MOCK_USDT","inputs":[],"outputs":[{"name":"","type":"address","internalType":"address"}],"stateMutability":"view"},{"type":"function","name":"MANTLE_TESTNET_MOCK_WBTC","inputs":[],"outputs":[{"name":"","type":"address","internalType":"address"}],"stateMutability":"view"},{"type":"function","name":"MANTLE_TESTNET_MOCK_WETH","inputs":[],"outputs":[{"name":"","type":"address","internalType":"address"}],"stateMutability":"view"},{"type":"function","name":"MANTLE_TESTNET_MOCK_WMNT","inputs":[],"outputs":[{"name":"","type":"address","internalType":"address"}],"stateMutability":"view"},{"type":"function","name":"MANTLE_TESTNET_MSFTX_USD","inputs":[],"outputs":[{"name":"","type":"address","internalType":"address"}],"stateMutability":"view"},{"type":"function","name":"MANTLE_TESTNET_POSITION_DEPLOYER","inputs":[],"outputs":[{"name":"","type":"address","internalType":"address"}],"stateMutability":"view"},{"type":"function","name":"MANTLE_TESTNET_PROTOCOL","inputs":[],"outputs":[{"name":"","type":"address","internalType":"address"}],"stateMutability":"view"},{"type":"function","name":"MANTLE_TESTNET_PROXY_DEPLOYER","inputs":[],"outputs":[{"name":"","type":"address","internalType":"address"}],"stateMutability":"view"},{"type":"function","name":"MANTLE_TESTNET_RECEIVE_LIB","inputs":[],"outputs":[{"name":"","type":"address","internalType":"address"}],"stateMutability":"view"},{"type":"function","name":"MANTLE_TESTNET_SEND_LIB","inputs":[],"outputs":[{"name":"","type":"address","internalType":"address"}],"stateMutability":"view"},{"type":"function","name":"MANTLE_TESTNET_SHARES_TOKEN_DEPLOYER","inputs":[],"outputs":[{"name":"","type":"address","internalType":"address"}],"stateMutability":"view"},{"type":"function","name":"MANTLE_TESTNET_SUPALA_EMITTER","inputs":[],"outputs":[{"name":"","type":"address","internalType":"address"}],"stateMutability":"view"},{"type":"function","name":"MANTLE_TESTNET_SUPALA_EMITTER_IMPLEMENTATION","inputs":[],"outputs":[{"name":"","type":"address","internalType":"address"}],"stateMutability":"view"},{"type":"function","name":"MANTLE_TESTNET_TOKEN_DATA_STREAM","inputs":[],"outputs":[{"name":"","type":"address","internalType":"address"}],"stateMutability":"view"},{"type":"function","name":"MANTLE_TESTNET_TOKEN_DATA_STREAM_IMPLEMENTATION","inputs":[],"outputs":[{"name":"","type":"address","internalType":"address"}],"stateMutability":"view"},{"type":"function","name":"MANTLE_TESTNET_USDC_ELEVATED_MINTER_BURNER","inputs":[],"outputs":[{"name":"","type":"address","internalType":"address"}],"stateMutability":"view"},{"type":"function","name":"MANTLE_TESTNET_USDC_OFT_ADAPTER","inputs":[],"outputs":[{"name":"","type":"address","internalType":"address"}],"stateMutability":"view"},{"type":"function","name":"MANTLE_TESTNET_USDT_ELEVATED_MINTER_BURNER","inputs":[],"outputs":[{"name":"","type":"address","internalType":"address"}],"stateMutability":"view"},{"type":"function","name":"MANTLE_TESTNET_USDT_OFT_ADAPTER","inputs":[],"outputs":[{"name":"","type":"address","internalType":"address"}],"stateMutability":"view"},{"type":"function","name":"MANTLE_TESTNET_WBTC_ELEVATED_MINTER_BURNER","inputs":[],"outputs":[{"name":"","type":"address","internalType":"address"}],"stateMutability":"view"},{"type":"function","name":"MANTLE_TESTNET_WBTC_OFT_ADAPTER","inputs":[],"outputs":[{"name":"","type":"address","internalType":"address"}],"stateMutability":"view"},{"type":"function","name":"MANTLE_TESTNET_WETH_ELEVATED_MINTER_BURNER","inputs":[],"outputs":[{"name":"","type":"address","internalType":"address"}],"stateMutability":"view"},{"type":"function","name":"MANTLE_TESTNET_WETH_OFT_ADAPTER","inputs":[],"outputs":[{"name":"","type":"address","internalType":"address"}],"stateMutability":"view"},{"type":"function","name":"MANTLE_TESTNET_WMNT_ELEVATED_MINTER_BURNER","inputs":[],"outputs":[{"name":"","type":"address","internalType":"address"}],"stateMutability":"view"},{"type":"function","name":"MANTLE_TESTNET_WMNT_OFT_ADAPTER","inputs":[],"outputs":[{"name":"","type":"address","internalType":"address"}],"stateMutability":"view"},{"type":"function","name":"MINTER_ROLE","inputs":[],"outputs":[{"name":"","type":"bytes32","internalType":"bytes32"}],"stateMutability":"view"},{"type":"function","name":"NATIVE_USDT","inputs":[],"outputs":[{"name":"","type":"address","internalType":"address"}],"stateMutability":"view"},{"type":"function","name":"OWNER_ROLE","inputs":[],"outputs":[{"name":"","type":"bytes32","internalType":"bytes32"}],"stateMutability":"view"},{"type":"function","name":"PAUSER_ROLE","inputs":[],"outputs":[{"name":"","type":"bytes32","internalType":"bytes32"}],"stateMutability":"view"},{"type":"function","name":"UPGRADER_ROLE","inputs":[],"outputs":[{"name":"","type":"bytes32","internalType":"bytes32"}],"stateMutability":"view"},{"type":"function","name":"USDC_USD","inputs":[],"outputs":[{"name":"","type":"address","internalType":"address"}],"stateMutability":"view"},{"type":"function","name":"USDT_USD","inputs":[],"outputs":[{"name":"","type":"address","internalType":"address"}],"stateMutability":"view"},{"type":"function","name":"btcUsdtAdapter","inputs":[],"outputs":[{"name":"","type":"address","internalType":"address"}],"stateMutability":"view"},{"type":"function","name":"chainName","inputs":[],"outputs":[{"name":"","type":"string","internalType":"string"}],"stateMutability":"view"},{"type":"function","name":"dexRouter","inputs":[],"outputs":[{"name":"","type":"address","internalType":"address"}],"stateMutability":"view"},{"type":"function","name":"ethUsdtAdapter","inputs":[],"outputs":[{"name":"","type":"address","internalType":"address"}],"stateMutability":"view"},{"type":"function","name":"native","inputs":[],"outputs":[{"name":"","type":"address","internalType":"address"}],"stateMutability":"view"},{"type":"function","name":"nativeUsdtAdapter","inputs":[],"outputs":[{"name":"","type":"address","internalType":"address"}],"stateMutability":"view"},{"type":"function","name":"oftNativeAdapter","inputs":[],"outputs":[{"name":"","type":"address","internalType":"address"}],"stateMutability":"view"},{"type":"function","name":"oftNativeOriAdapter","inputs":[],"outputs":[{"name":"","type":"address","internalType":"address"}],"stateMutability":"view"},{"type":"function","name":"oftUsdtAdapter","inputs":[],"outputs":[{"name":"","type":"address","internalType":"address"}],"stateMutability":"view"},{"type":"function","name":"oftWethAdapter","inputs":[],"outputs":[{"name":"","type":"address","internalType":"address"}],"stateMutability":"view"},{"type":"function","name":"usdc","inputs":[],"outputs":[{"name":"","type":"address","internalType":"address"}],"stateMutability":"view"},{"type":"function","name":"usdt","inputs":[],"outputs":[{"name":"","type":"address","internalType":"address"}],"stateMutability":"view"},{"type":"function","name":"usdtUsdAdapter","inputs":[],"outputs":[{"name":"","type":"address","internalType":"address"}],"stateMutability":"view"},{"type":"function","name":"wNative","inputs":[],"outputs":[{"name":"","type":"address","internalType":"address"}],"stateMutability":"view"},{"type":"function","name":"wbtc","inputs":[],"outputs":[{"name":"","type":"address","internalType":"address"}],"stateMutability":"view"},{"type":"function","name":"weth","inputs":[],"outputs":[{"name":"","type":"address","internalType":"address"}],"stateMutability":"view"}],"bytecode":{"object":"0x6080604052600160035f6101000a81548173ffffffffffffffffffffffffffffffffffffffff021916908373ffffffffffffffffffffffffffffffffffffffff160217905550348015604f575f5ffd5b50613b338061005d5f395ff3fe608060405234801561000f575f5ffd5b5060043610610c34575f3560e01c806387c7f7c911610630578063c1a1680e1161033f578063e5120c47116101cc578063f4be750411610118578063fb7a69a5116100b6578063fd455f7511610090578063fd455f751461245c578063fd9eef041461247a578063fe96e49014612498578063fefcbc47146124b657610c34565b8063fb7a69a514612402578063fbdf059314612420578063fc11943c1461243e57610c34565b8063f82e9691116100f2578063f82e96911461238a578063f85a16c8146123a8578063f89b03da146123c6578063fa9be367146123e457610c34565b8063f4be750414612330578063f678f0321461234e578063f72c0d8b1461236c57610c34565b8063ed58407311610185578063f1fb01931161015f578063f1fb0193146122b8578063f2ba7e01146122d6578063f2e78435146122f4578063f31d74431461231257610c34565b8063ed5840731461225e578063ef54e76f1461227c578063efffd77c1461229a57610c34565b8063e5120c47146121aa578063e58378bb146121c8578063e5933998146121e6578063e63ab1e914612204578063eb3789bb14612222578063eba82c1e1461224057610c34565b8063d48f4ee01161028b578063dd471b5611610244578063e07e02cc1161021e578063e07e02cc14612132578063e100143214612150578063e41547991461216e578063e4b004341461218c57610c34565b8063dd471b56146120d8578063de439f50146120f6578063df74e5221461211457610c34565b8063d48f4ee014612024578063d4c7308314612042578063d539139314612060578063d5fda4b71461207e578063d9edc8881461209c578063dbc14a19146120ba57610c34565b8063c7908451116102f8578063ce8b78bc116102d2578063ce8b78bc14611fac578063cea9072814611fca578063cf642cc914611fe8578063d0ff1a041461200657610c34565b8063c790845114611f52578063ca4b481c14611f70578063cb15502a14611f8e57610c34565b8063c1a1680e14611e9e578063c2abf75014611ebc578063c304e50814611eda578063c3df5fc714611ef8578063c41ad64114611f16578063c5e4a50914611f3457610c34565b8063aaf0e6eb116104bd578063b4fa069411610409578063b9261ba4116103c2578063ba91cd431161039c578063ba91cd4314611e26578063bd7ad9d614611e44578063c025fe3c14611e62578063c13b0f1714611e8057610c34565b8063b9261ba414611dcc578063b96e686a14611dea578063ba717f8614611e0857610c34565b8063b4fa069414611d18578063b5300a3b14611d36578063b53b808e14611d54578063b5a9891114611d72578063b5f0848d14611d90578063b908f70a14611dae57610c34565b8063ae3676fb11610476578063b259d96411610450578063b259d96414611ca0578063b2d0403114611cbe578063b3a9810514611cdc578063b430bac514611cfa57610c34565b8063ae3676fb14611c46578063ae5c039d14611c64578063b07e429714611c8257610c34565b8063aaf0e6eb14611b92578063ab562ddd14611bb0578063aba30cca14611bce578063ac7fb1b714611bec578063ad6afeef14611c0a578063aded9a1914611c2857610c34565b806394a15d041161057c578063a016a1d711610535578063a79583141161050f578063a795831414611b1a578063a7b395f214611b38578063a84bf70e14611b56578063aa56b57a14611b7457610c34565b8063a016a1d714611ac0578063a217fddf14611ade578063a78df68714611afc57610c34565b806394a15d0414611a0c57806395be111114611a2a57806395df583814611a4857806398489dff14611a66578063990ef31d14611a845780639f09202d14611aa257610c34565b80638fab7b01116105e957806390df5b1a116105c357806390df5b1a146119945780639196bfa0146119b2578063924ff369146119d057806392e926bb146119ee57610c34565b80638fab7b011461193a5780638fd510cc14611958578063904060541461197657610c34565b806387c7f7c9146118865780638a586702146118a45780638ca4b7e3146118c25780638d7b0cda146118e05780638dd73f6b146118fe5780638f3666381461191c57610c34565b80633b97322b116109475780635ac6d96d116107d457806375b238fc11610720578063848dc5e9116106be57806384f9199e1161069857806384f9199e1461180e57806385623f591461182c57806385822d6e1461184a57806386cfc33e1461186857610c34565b8063848dc5e9146117b457806384ad5239146117d257806384af6aef146117f057610c34565b80637e7414c2116106fa5780637e7414c21461173c57806380185b001461175a578063805311691461177857806380b6403b1461179657610c34565b806375b238fc146116e257806375df4307146117005780637b49a6351461171e57610c34565b806367d197c21161078d5780636e7ec259116107675780636e7ec2591461166a578063709b90361461168857806371b9a718146116a657806373d095e4146116c457610c34565b806367d197c21461161057806368ebdd5e1461162e5780636c50cc291461164c57610c34565b80635ac6d96d1461155c5780635d9fb53d1461157a5780635dd65d3114611598578063634a8eee146115b65780636420c205146115d457806367406d42146115f257610c34565b806348d8d45511610893578063529f0d501161084c578063565fcaac11610826578063565fcaac146114e457806358718d011461150257806359c56692146115205780635a4320801461153e57610c34565b8063529f0d501461148a578063543e593a146114a857806355fc02fa146114c657610c34565b806348d8d455146113d657806349dfa966146113f45780634adeb12a146114125780634d99ba08146114305780634fefc38c1461144e578063511856cd1461146c57610c34565b80633fd49aa611610900578063437ad10f116108da578063437ad10f1461135e578063450036c91461137c578063470ebcb01461139a578063471f1075146113b857610c34565b80633fd49aa614611304578063413b777a146113225780634190110d1461134057610c34565b80633b97322b146112505780633cdc53891461126e5780633cdda0291461128c5780633da090c0146112aa5780633e413bee146112c85780633fc8cef3146112e657610c34565b80631e53835011610ac55780632e94008811610a115780633269958e116109ca5780633573070d116109a45780633573070d146111d8578063379ca0db146111f657806337a4332a146112145780633ab51ac81461123257610c34565b80633269958e1461117e578063343928091461119c57806335433987146111ba57610c34565b80632e940088146110ca5780632f0249bc146110e85780632f084bf4146111065780632f48ab7d146111245780632f9668e6146111425780632fa996661461116057610c34565b8063235feefd11610a7e5780632a715dd711610a585780632a715dd7146110525780632cf0eb05146110705780632d68efc91461108e5780632e892dae146110ac57610c34565b8063235feefd14610ff8578063269ae32d1461101657806327e6d4a11461103457610c34565b80631e53835014610f445780631f8a242814610f625780631fe42bff14610f8057806321f564bc14610f9e57806321fba23514610fbc5780632259fe8d14610fda57610c34565b806310d5dd4e11610b8457806316c67bab11610b3d5780631baa220f11610b175780631baa220f14610ecc5780631c85d35614610eea5780631c93b03a14610f085780631d4f084114610f2657610c34565b806316c67bab14610e7257806318567e8814610e905780631a3ca3b114610eae57610c34565b806310d5dd4e14610dbe57806311b0b42d14610ddc57806312e7902a14610dfa5780631335bc2914610e185780631492d3fc14610e3657806315f88c9214610e5457610c34565b806307ff60a111610bf157806309315fa911610bcb57806309315fa914610d465780630b54fe1e14610d645780630b624f7f14610d825780630d574d0d14610da057610c34565b806307ff60a114610cec57806308f40bed14610d0a57806308ff3f1214610d2857610c34565b80630431f17d14610c3857806304982fca14610c5657806304cee16114610c74578063065f84b314610c925780630758d92414610cb057806307e2476214610cce575b5f5ffd5b610c406124d4565b604051610c4d919061398f565b60405180910390f35b610c5e6124ec565b604051610c6b919061398f565b60405180910390f35b610c7c612504565b604051610c89919061398f565b60405180910390f35b610c9a61251c565b604051610ca7919061398f565b60405180910390f35b610cb8612534565b604051610cc5919061398f565b60405180910390f35b610cd6612559565b604051610ce3919061398f565b60405180910390f35b610cf4612571565b604051610d01919061398f565b60405180910390f35b610d12612589565b604051610d1f919061398f565b60405180910390f35b610d306125a1565b604051610d3d919061398f565b60405180910390f35b610d4e6125b9565b604051610d5b919061398f565b60405180910390f35b610d6c6125d1565b604051610d79919061398f565b60405180910390f35b610d8a6125e9565b604051610d97919061398f565b60405180910390f35b610da8612601565b604051610db5919061398f565b60405180910390f35b610dc6612626565b604051610dd3919061398f565b60405180910390f35b610de461263e565b604051610df1919061398f565b60405180910390f35b610e02612663565b604051610e0f919061398f565b60405180910390f35b610e2061267b565b604051610e2d919061398f565b60405180910390f35b610e3e6126a0565b604051610e4b919061398f565b60405180910390f35b610e5c6126b8565b604051610e6991906139c6565b60405180910390f35b610e7a6126be565b604051610e87919061398f565b60405180910390f35b610e986126d6565b604051610ea591906139c6565b60405180910390f35b610eb66126dc565b604051610ec3919061398f565b60405180910390f35b610ed46126f4565b604051610ee1919061398f565b60405180910390f35b610ef261270c565b604051610eff919061398f565b60405180910390f35b610f10612724565b604051610f1d9190613a4f565b60405180910390f35b610f2e6127b0565b604051610f3b919061398f565b60405180910390f35b610f4c6127c8565b604051610f59919061398f565b60405180910390f35b610f6a6127e0565b604051610f77919061398f565b60405180910390f35b610f886127f8565b604051610f95919061398f565b60405180910390f35b610fa6612810565b604051610fb3919061398f565b60405180910390f35b610fc4612828565b604051610fd1919061398f565b60405180910390f35b610fe2612840565b604051610fef919061398f565b60405180910390f35b611000612858565b60405161100d919061398f565b60405180910390f35b61101e612870565b60405161102b919061398f565b60405180910390f35b61103c612888565b604051611049919061398f565b60405180910390f35b61105a6128a0565b604051611067919061398f565b60405180910390f35b6110786128b8565b604051611085919061398f565b60405180910390f35b6110966128d0565b6040516110a3919061398f565b60405180910390f35b6110b46128f5565b6040516110c1919061398f565b60405180910390f35b6110d261290d565b6040516110df919061398f565b60405180910390f35b6110f0612925565b6040516110fd919061398f565b60405180910390f35b61110e61293d565b60405161111b919061398f565b60405180910390f35b61112c612955565b604051611139919061398f565b60405180910390f35b61114a612979565b604051611157919061398f565b60405180910390f35b611168612991565b604051611175919061398f565b60405180910390f35b6111866129a9565b604051611193919061398f565b60405180910390f35b6111a46129c1565b6040516111b1919061398f565b60405180910390f35b6111c26129d9565b6040516111cf919061398f565b60405180910390f35b6111e06129f1565b6040516111ed919061398f565b60405180910390f35b6111fe612a09565b60405161120b919061398f565b60405180910390f35b61121c612a21565b604051611229919061398f565b60405180910390f35b61123a612a39565b604051611247919061398f565b60405180910390f35b611258612a5e565b604051611265919061398f565b60405180910390f35b611276612a76565b604051611283919061398f565b60405180910390f35b611294612a9b565b6040516112a1919061398f565b60405180910390f35b6112b2612ab3565b6040516112bf919061398f565b60405180910390f35b6112d0612acb565b6040516112dd919061398f565b60405180910390f35b6112ee612af0565b6040516112fb919061398f565b60405180910390f35b61130c612b15565b604051611319919061398f565b60405180910390f35b61132a612b2d565b604051611337919061398f565b60405180910390f35b611348612b45565b604051611355919061398f565b60405180910390f35b611366612b5d565b604051611373919061398f565b60405180910390f35b611384612b75565b604051611391919061398f565b60405180910390f35b6113a2612b7a565b6040516113af919061398f565b60405180910390f35b6113c0612b92565b6040516113cd919061398f565b60405180910390f35b6113de612baa565b6040516113eb919061398f565b60405180910390f35b6113fc612bc2565b604051611409919061398f565b60405180910390f35b61141a612bda565b604051611427919061398f565b60405180910390f35b611438612bf2565b604051611445919061398f565b60405180910390f35b611456612c0a565b604051611463919061398f565b60405180910390f35b611474612c22565b604051611481919061398f565b60405180910390f35b611492612c3a565b60405161149f919061398f565b60405180910390f35b6114b0612c52565b6040516114bd919061398f565b60405180910390f35b6114ce612c6a565b6040516114db919061398f565b60405180910390f35b6114ec612c82565b6040516114f9919061398f565b60405180910390f35b61150a612c9a565b604051611517919061398f565b60405180910390f35b611528612cb2565b604051611535919061398f565b60405180910390f35b611546612cca565b604051611553919061398f565b60405180910390f35b611564612ce2565b604051611571919061398f565b60405180910390f35b611582612cfa565b60405161158f919061398f565b60405180910390f35b6115a0612d12565b6040516115ad919061398f565b60405180910390f35b6115be612d2a565b6040516115cb919061398f565b60405180910390f35b6115dc612d42565b6040516115e9919061398f565b60405180910390f35b6115fa612d5a565b604051611607919061398f565b60405180910390f35b611618612d72565b604051611625919061398f565b60405180910390f35b611636612d8a565b604051611643919061398f565b60405180910390f35b611654612da2565b604051611661919061398f565b60405180910390f35b611672612dba565b60405161167f919061398f565b60405180910390f35b611690612dd2565b60405161169d919061398f565b60405180910390f35b6116ae612dea565b6040516116bb919061398f565b60405180910390f35b6116cc612e02565b6040516116d9919061398f565b60405180910390f35b6116ea612e27565b6040516116f79190613a87565b60405180910390f35b611708612e4b565b604051611715919061398f565b60405180910390f35b611726612e63565b604051611733919061398f565b60405180910390f35b611744612e7b565b604051611751919061398f565b60405180910390f35b611762612e93565b60405161176f919061398f565b60405180910390f35b611780612eab565b60405161178d919061398f565b60405180910390f35b61179e612ec3565b6040516117ab919061398f565b60405180910390f35b6117bc612edb565b6040516117c9919061398f565b60405180910390f35b6117da612ef3565b6040516117e7919061398f565b60405180910390f35b6117f8612f0b565b604051611805919061398f565b60405180910390f35b611816612f23565b604051611823919061398f565b60405180910390f35b611834612f3b565b604051611841919061398f565b60405180910390f35b611852612f53565b60405161185f919061398f565b60405180910390f35b611870612f6b565b60405161187d919061398f565b60405180910390f35b61188e612f83565b60405161189b919061398f565b60405180910390f35b6118ac612f9b565b6040516118b9919061398f565b60405180910390f35b6118ca612fb3565b6040516118d7919061398f565b60405180910390f35b6118e8612fcb565b6040516118f5919061398f565b60405180910390f35b611906612fe3565b604051611913919061398f565b60405180910390f35b611924612ffb565b604051611931919061398f565b60405180910390f35b611942613013565b60405161194f919061398f565b60405180910390f35b61196061302b565b60405161196d919061398f565b60405180910390f35b61197e613043565b60405161198b919061398f565b60405180910390f35b61199c61305b565b6040516119a9919061398f565b60405180910390f35b6119ba613073565b6040516119c7919061398f565b60405180910390f35b6119d861308b565b6040516119e5919061398f565b60405180910390f35b6119f66130a3565b604051611a03919061398f565b60405180910390f35b611a146130bb565b604051611a2191906139c6565b60405180910390f35b611a326130c1565b604051611a3f919061398f565b60405180910390f35b611a506130d8565b604051611a5d919061398f565b60405180910390f35b611a6e6130f0565b604051611a7b919061398f565b60405180910390f35b611a8c613108565b604051611a99919061398f565b60405180910390f35b611aaa613120565b604051611ab7919061398f565b60405180910390f35b611ac8613138565b604051611ad5919061398f565b60405180910390f35b611ae6613150565b604051611af39190613a87565b60405180910390f35b611b04613156565b604051611b11919061398f565b60405180910390f35b611b2261316e565b604051611b2f919061398f565b60405180910390f35b611b40613186565b604051611b4d919061398f565b60405180910390f35b611b5e61319e565b604051611b6b919061398f565b60405180910390f35b611b7c6131b6565b604051611b89919061398f565b60405180910390f35b611b9a6131ce565b604051611ba7919061398f565b60405180910390f35b611bb86131e6565b604051611bc5919061398f565b60405180910390f35b611bd66131fe565b604051611be3919061398f565b60405180910390f35b611bf4613216565b604051611c01919061398f565b60405180910390f35b611c1261322e565b604051611c1f919061398f565b60405180910390f35b611c30613246565b604051611c3d919061398f565b60405180910390f35b611c4e61325e565b604051611c5b919061398f565b60405180910390f35b611c6c613276565b604051611c79919061398f565b60405180910390f35b611c8a61328e565b604051611c97919061398f565b60405180910390f35b611ca86132a6565b604051611cb5919061398f565b60405180910390f35b611cc66132be565b604051611cd391906139c6565b60405180910390f35b611ce46132c4565b604051611cf191906139c6565b60405180910390f35b611d026132ca565b604051611d0f919061398f565b60405180910390f35b611d206132e2565b604051611d2d919061398f565b60405180910390f35b611d3e6132fa565b604051611d4b919061398f565b60405180910390f35b611d5c613312565b604051611d69919061398f565b60405180910390f35b611d7a61332a565b604051611d87919061398f565b60405180910390f35b611d98613342565b604051611da5919061398f565b60405180910390f35b611db661335a565b604051611dc3919061398f565b60405180910390f35b611dd461337f565b604051611de1919061398f565b60405180910390f35b611df2613397565b604051611dff919061398f565b60405180910390f35b611e106133af565b604051611e1d919061398f565b60405180910390f35b611e2e6133c7565b604051611e3b919061398f565b60405180910390f35b611e4c6133df565b604051611e59919061398f565b60405180910390f35b611e6a6133f7565b604051611e77919061398f565b60405180910390f35b611e8861340f565b604051611e95919061398f565b60405180910390f35b611ea6613427565b604051611eb3919061398f565b60405180910390f35b611ec461343f565b604051611ed1919061398f565b60405180910390f35b611ee2613457565b604051611eef919061398f565b60405180910390f35b611f0061346f565b604051611f0d919061398f565b60405180910390f35b611f1e613487565b604051611f2b919061398f565b60405180910390f35b611f3c61349f565b604051611f49919061398f565b60405180910390f35b611f5a6134b7565b604051611f67919061398f565b60405180910390f35b611f786134cf565b604051611f85919061398f565b60405180910390f35b611f966134e7565b604051611fa3919061398f565b60405180910390f35b611fb46134ff565b604051611fc1919061398f565b60405180910390f35b611fd2613517565b604051611fdf919061398f565b60405180910390f35b611ff061352f565b604051611ffd919061398f565b60405180910390f35b61200e613547565b60405161201b919061398f565b60405180910390f35b61202c61355f565b604051612039919061398f565b60405180910390f35b61204a613577565b604051612057919061398f565b60405180910390f35b61206861358f565b6040516120759190613a87565b60405180910390f35b6120866135b3565b604051612093919061398f565b60405180910390f35b6120a46135cb565b6040516120b1919061398f565b60405180910390f35b6120c26135e3565b6040516120cf919061398f565b60405180910390f35b6120e0613608565b6040516120ed919061398f565b60405180910390f35b6120fe613620565b60405161210b919061398f565b60405180910390f35b61211c613624565b604051612129919061398f565b60405180910390f35b61213a61363c565b604051612147919061398f565b60405180910390f35b612158613654565b604051612165919061398f565b60405180910390f35b61217661366c565b604051612183919061398f565b60405180910390f35b612194613684565b6040516121a1919061398f565b60405180910390f35b6121b261369c565b6040516121bf919061398f565b60405180910390f35b6121d06136b4565b6040516121dd9190613a87565b60405180910390f35b6121ee6136d8565b6040516121fb919061398f565b60405180910390f35b61220c6136f0565b6040516122199190613a87565b60405180910390f35b61222a613714565b604051612237919061398f565b60405180910390f35b61224861372c565b604051612255919061398f565b60405180910390f35b612266613744565b604051612273919061398f565b60405180910390f35b61228461375c565b604051612291919061398f565b60405180910390f35b6122a2613774565b6040516122af919061398f565b60405180910390f35b6122c061378c565b6040516122cd919061398f565b60405180910390f35b6122de6137a4565b6040516122eb919061398f565b60405180910390f35b6122fc6137bc565b604051612309919061398f565b60405180910390f35b61231a6137e1565b60405161232791906139c6565b60405180910390f35b6123386137e7565b604051612345919061398f565b60405180910390f35b6123566137ff565b604051612363919061398f565b60405180910390f35b612374613817565b6040516123819190613a87565b60405180910390f35b61239261383b565b60405161239f919061398f565b60405180910390f35b6123b0613853565b6040516123bd919061398f565b60405180910390f35b6123ce61386b565b6040516123db919061398f565b60405180910390f35b6123ec613890565b6040516123f9919061398f565b60405180910390f35b61240a6138a8565b604051612417919061398f565b60405180910390f35b6124286138c0565b604051612435919061398f565b60405180910390f35b6124466138d8565b604051612453919061398f565b60405180910390f35b6124646138f0565b604051612471919061398f565b60405180910390f35b612482613908565b60405161248f919061398f565b60405180910390f35b6124a0613920565b6040516124ad919061398f565b60405180910390f35b6124be613938565b6040516124cb919061398f565b60405180910390f35b73a7f7368b6cbdf2be4d508ad85d2cc1f3248a9ed581565b7310fd0d8280e94d0dbc3013b778ef26d47105ea7b81565b73c3be8ab4ca0cefe3119a765b324bbdf54a16a65b81565b73d506b22a6b3216b736021fa262d0f5d686e07b3581565b600e5f9054906101000a900473ffffffffffffffffffffffffffffffffffffffff1681565b73fe5138a42dc1fc335455b505e036784a33f7f10281565b739454f0eabc7c4ea9ebf89190b8bf9051a0468e0381565b73ec32cc0267002618c339274c18ad48d2bf2a9c7e81565b73ad063b1915bf95fb32f79138c0b668f23267633381565b7353d7f02e72d62f7b7b41f6b622a7d79694bed96681565b7398a8345bb9d3dda9d808ca1c9142a28f6b0430e181565b7346638ad472507482b7d5ba45124e93d16bc97ece81565b600d5f9054906101000a900473ffffffffffffffffffffffffffffffffffffffff1681565b73fc7920756b2983af98c5edd94034f748eef25aef81565b60035f9054906101000a900473ffffffffffffffffffffffffffffffffffffffff1681565b738fed03c9d8ed1237b76be271a49d11cce5dfd81e81565b600c5f9054906101000a900473ffffffffffffffffffffffffffffffffffffffff1681565b73e1a12515f9ab2764b887bf60b923ca494ebbb2d681565b6175e881565b73af9842adacb4b2fa619d45fe11579fae5faf169881565b6175c681565b735e66de02c77ea971bbd2bc37a31cc9860e6a01d381565b736c454d20f4cb5f69e2d66693fa8dee931d7432df81565b7353d7f02e72d62f7b7b41f6b622a7d79694bed96681565b6018805461273190613acd565b80601f016020809104026020016040519081016040528092919081815260200182805461275d90613acd565b80156127a85780601f1061277f576101008083540402835291602001916127a8565b820191905f5260205f20905b81548152906001019060200180831161278b57829003601f168201915b505050505081565b737bb55d2d27194a25517f8a47cdaf227fd413dca681565b73bdc661eecb0dcfb940a34008e0190c9103013c4181565b73da5d036f51bd6fe5e32915a53595b71312d45f9181565b731effdcf81a95398920e024bb3b9ff60ce14590e781565b739e059a54699a285714207b43b055483e78faac2581565b73ec32cc0267002618c339274c18ad48d2bf2a9c7e81565b73f0d1c69cc148db2437131a5a736d77fd6fa20b4781565b73d506b22a6b3216b736021fa262d0f5d686e07b3581565b731d6f6dbd68bd438950c37b1d514e49306f65291e81565b736edce65403992e310a62460808c4b910d972f10f81565b73d077a400968890eacc75cdc901f0356c943e4fdb81565b73ecc446a3219da4594d5ede8314f500212e496e1781565b60025f9054906101000a900473ffffffffffffffffffffffffffffffffffffffff1681565b737cc335f6693077b391b767df16295dabd928814481565b7331fc86e13108a098830eea63a8a9f6d80dfc89aa81565b737b3c20d2b3f8c205f624e62d356354ed1ae9f64b81565b739454f0eabc7c4ea9ebf89190b8bf9051a0468e0381565b5f5f9054906101000a900473ffffffffffffffffffffffffffffffffffffffff1681565b73dbbb07e1ae9d0f23ac6da9bdda3dff96fca7365081565b73acde1f22eeab249d3ca6ba8805c8fee9f52a16e781565b73e1a12515f9ab2764b887bf60b923ca494ebbb2d681565b73ebb7a56fd2d0231a9bf7240542cbd09a641a29fc81565b7333faba0e0ce340afc4fb03038151ff7ee1d5f95b81565b73fc4ea96c3de3ba60516976390fa4e945a0b8817b81565b7396949b9f94b84eeb2b590aec033a825f17d5d6dd81565b734c8962833db7206fd45671e9dc806e4fcc0dcb7881565b600a5f9054906101000a900473ffffffffffffffffffffffffffffffffffffffff1681565b73057852e8211698a22953e0343aae24e446ecf10581565b60055f9054906101000a900473ffffffffffffffffffffffffffffffffffffffff1681565b739714ccf1dedef14bab5013625db92746c1358cb481565b73bdc661eecb0dcfb940a34008e0190c9103013c4181565b60015f9054906101000a900473ffffffffffffffffffffffffffffffffffffffff1681565b60045f9054906101000a900473ffffffffffffffffffffffffffffffffffffffff1681565b7356f9cbd1aeb705b440357097ee13ebe8aa75535781565b731a44076050125825900e736c501f859c50fe728c81565b73a7b5189bca84cd304d8553977c7c614329750d9981565b7312523de19dc41c91f7d2093e0cfbb76b17012c8d81565b600181565b73ec0906949f88f72bf9206e84764163e24a56a49981565b73034cf520e48c7e87763466949058965f7a5a318181565b731a44076050125825900e736c501f859c50fe728c81565b73df05e9abf64da281b3cbd8ac3581022ec4841fb281565b73c72f2eb4a97f19ecd0c10b5201676a10b6d8bb6781565b7333d56fc7ef4b54a8c358548cea3d9aead1619ee981565b7346638ad472507482b7d5ba45124e93d16bc97ece81565b73c7e9cf4bc5f6c43e1410ffa33436287968003ace81565b73c70ab6f32772f59fbfc23889caf4ba3376c84baf81565b73374427909212b29fcc3ffe8e7920a190a3031cb881565b739e77f602e0ec09078f9ba50c9a453edc795b0a4e81565b7333e5fcc13d7439cc62d54c41aa966197145b3cd781565b7302a66b51fc24e08535a6cfe1e11e532d8a08921281565b73c28446267b3c9a733d6c7419535b883908e5581381565b73f3f7c9320b0dbf780092daaab740b7b85552225881565b732cca08ae69e0c44b18a57ab2a87644234daebae481565b73da5d036f51bd6fe5e32915a53595b71312d45f9181565b73a324880f884036e3d21a09b90269e1ac57c7ec8a81565b736d68a52bc77f2eac3582a7072ead94c19b9f480c81565b73ae1b8d3b428d6a8f62df2f623081eac8734168fe81565b7319aac5f612f524b754ca7e7c41cbfa2e981a443281565b738beee743829af63f5b37e52d5ef8477ef12511de81565b73684a2aaf3d98bc8ed2c07988e8da9023026ad51181565b733705620c09d43935c00852d3610e31c942595ce881565b73487b1e0177b3ac1aca7e8c353ed0df133593a8eb81565b73fde4c96c8593536e31f229ea8f37b2ada2699bb281565b733a1353926e2c1ada7acc93a6fbe73c1ec6b1e93181565b600b5f9054906101000a900473ffffffffffffffffffffffffffffffffffffffff1681565b7fa49807205ce4d355092ef5a8a18f56e8913cf4a201fbe287825b095693c2177581565b73677f0172ff3e8eef477ce811ed57a85b8d8a3bda81565b7334730f2570e6cff8b1c91faabf37d0dd917c436781565b73ceb5c8903060197e46ab5ea5087b9f99cbc8da4981565b73677f0172ff3e8eef477ce811ed57a85b8d8a3bda81565b7343bb8beb166c8786c50a9d1d5c8482d667cf981a81565b73920cd2f6e139b6c40053bcd5f67923d1d7dd314081565b731e68394dbd41f77adf0644ce47b25d1023d664b181565b7302a66b51fc24e08535a6cfe1e11e532d8a08921281565b73eb36aa674745c48381aa3a8074e5485586dbd30881565b73fe4f79ea2211660a221bed8b4e2de7eb8579fe6781565b73ddf3266feaa899accf805f4379e5137144cb0a7d81565b739a289b849b32ff69a95f8584a03343a33ff6e5fd81565b73560bd1836c348c4a10eed7008e68ae58228dd11781565b73e4fe9782b809b7d66f0dcd10157275d2c4e4898d81565b7360377628d1733fe0fb64d8b84466b461974da60a81565b73b516190f8192cceaf8b1da7d9ca1c6c75b9f410c81565b735c368bd6ce77b2ca47b4ba791fcc1f1645591c8481565b738a3d588d9f6ac041476b094f97ff94ec30169d3d81565b738a3d588d9f6ac041476b094f97ff94ec30169d3d81565b73c28446267b3c9a733d6c7419535b883908e5581381565b73937aba873827bf883ced83ca557697427eaa46ee81565b73394239573079a46e438ea6d118fd96d37a61f27081565b73a628a83cc869b82a684895f628029eb90ee6022481565b735c43afab54bd5e5568d0ad54ea60d4d065303c3581565b7304c37dc1b538e00b31e6bc883e16d97cd7937a1081565b73e4fe9782b809b7d66f0dcd10157275d2c4e4898d81565b619d3581565b727f735fd070ded4b0b58d430c392ff0190ec20f81565b738b9b67b22ab2ed6ee324c2fd43734dbd2dddd04581565b733703a1da99a2bdf2d8ce57802aacb20fb546ff1281565b7360377628d1733fe0fb64d8b84466b461974da60a81565b737b3c20d2b3f8c205f624e62d356354ed1ae9f64b81565b735ddbbc68527214e0aca3b4175860080cbdaa12ff81565b5f5f1b81565b739454f0eabc7c4ea9ebf89190b8bf9051a0468e0381565b734852bc014401415c4ce4788a04cab019d1527aaa81565b73ceb5c8903060197e46ab5ea5087b9f99cbc8da4981565b73ed095e8dd2d72a8306fbea923bff5091c000e96381565b736bd925aa58325fba65ea7d4412ddb2e5d2d9427d81565b73b0e96105543cba4b3d82911e7336f19bd03b036081565b73c80233ad8251e668becbc3b0415707fc7075501e81565b731385df17f009f88e6ca1380798bf20b0669c8ee081565b7326991986aec6748f439940949b7487341800638381565b7333faba0e0ce340afc4fb03038151ff7ee1d5f95b81565b73b83e44f1d59bd8743ae45816acd5622fa1a5624d81565b7326149bd6a6d2e2cfb358852a7ea186afe58591e181565b7374e79e900a20d841d9af9fc5361cefea9a3247c281565b73420000000000000000000000000000000000000681565b739bd31b110c559884c49d1ba3e60c1724f2e336a781565b619cd681565b6175ae81565b739025095263d1e548dc890a7589a4c78038ac40ab81565b73943fcc03799400a672a8f82907d3a320fa76efc181565b737f047526f942147a228f2709bb66a3bdea71ed2681565b73684a2aaf3d98bc8ed2c07988e8da9023026ad51181565b73f8af5114ad19422e059797ca2515febd8bc06bd181565b73a971cd2714fbcc9a942b09bc391a724df933820681565b60095f9054906101000a900473ffffffffffffffffffffffffffffffffffffffff1681565b7346da9f76c20a752132ddaefd2b14870e0a152d7181565b73c1868e054425d378095a003ecba3823a5d0135c981565b73eac136456d078bb76f59dccb2d5e008b31afe1cf81565b73a5b25a041cfc241f2b808b3298e2cb7ceb5dfcd281565b7315858a57854bbf0df60a737811d50e1ee785f9bc81565b73d8d5edce9f0e3544d2a712818232fda7502ba1a681565b735e6aad48fb0a23e9540a5eaffb87846e8ef04c4281565b73e4fe9782b809b7d66f0dcd10157275d2c4e4898d81565b73bd699511ce18407485d8572ef0fba783283fd98281565b73f15f575095a37a0325182c49a45fe05f09fc6b4d81565b73c84252c9dac057361194e9e17e5aed3e130556f581565b73c72f2eb4a97f19ecd0c10b5201676a10b6d8bb6781565b733703a1da99a2bdf2d8ce57802aacb20fb546ff1281565b7331fc86e13108a098830eea63a8a9f6d80dfc89aa81565b733de8c22f6b84c575429c1b9cbf5bddd49cf129fc81565b735c43afab54bd5e5568d0ad54ea60d4d065303c3581565b73e1a12515f9ab2764b887bf60b923ca494ebbb2d681565b731154d04d07aee26ff2c200bd373eb76a7e5694d681565b73c3be8ab4ca0cefe3119a765b324bbdf54a16a65b81565b73718b1b67f287571767452cc7d24bcd95c63dba1381565b7339926da4905f5edb956f5db5f2e2ff044e0882b281565b73b5320b0b3a13cc860893e2bd79fcd7e13484dda281565b7f9f2df0fed2c77648de5860a4cc508cd0818c85b8b8a1ab4ceeef8d981c8956a681565b73fbc915dc39654b52b2e9284fb966c79a1071ea3a81565b73649ef2a788732900b82237c126a121be3282997c81565b60085f9054906101000a900473ffffffffffffffffffffffffffffffffffffffff1681565b73af0c7edb6d33e166719f4d528d33042768367e2881565b5f81565b73bdc661eecb0dcfb940a34008e0190c9103013c4181565b73530f48df8e4d60bbf9bbcfe8cf584344514af19381565b731a44076050125825900e736c501f859c50fe728c81565b739eaa6ec9e0b55948309eb320166312cb0807b6de81565b73c746b3aab0c6da075c9b7b43ceebd437ef759d5b81565b73554833698ae0fb22ecc90b01222903fd62ca4b4781565b7fb19546dff01e856fb3f010c267a7b1c60363cf8a4664e21cc89c26224620214e81565b73e149187a987f129fd3d397ed04a60b0b89d1669f81565b7f65d7a28e3265b37a6474929f336521b332c1681b933f6cb9f3376673440d862a81565b73981846be8d2d697f4dfef6689a161a25ffbab8f981565b736edce65403992e310a62460808c4b910d972f10f81565b7310fd0d8280e94d0dbc3013b778ef26d47105ea7b81565b738bf79e425b54ecd75907b4eda00dced8c1a97db081565b73cfaf23d5d5f144f66a13e05a41b97c0c23aa4e1f81565b7364493bd2f250cc05d75bca93cc95447e2834638b81565b734ba8d8083e7f3652ccb084c32652e68566e9ef2381565b60065f9054906101000a900473ffffffffffffffffffffffffffffffffffffffff1681565b619d3681565b7346da9f76c20a752132ddaefd2b14870e0a152d7181565b73252d67d23308646cf6dae32a826de24ba21e7c1281565b7f189ab7a9244df0848122154315af71fe140f3db0fe014031783b0946b8c9d2e381565b73e2e025ff8a8adb2561e3c631b5a03842b9a1ae8881565b7371c184d899c1774d597d8d80526fb02df708a69a81565b60075f9054906101000a900473ffffffffffffffffffffffffffffffffffffffff1681565b730555e30da8f98308edb960aa94c0db47230d2b9c81565b73cda0bebc32bec4813e6307a3d7774702fdf6392f81565b732f4c6eea955e95e6d65e08620d980c0e0e92211f81565b73b516190f8192cceaf8b1da7d9ca1c6c75b9f410c81565b73f6d95eeff99e171bb150d736eb2be23c9cf6a6ef81565b736c71b7bbde382f12165d5f7749b5fd37965b1e8a81565b73e5d4c481e25880ead3a1647a210a9f219204f3ca81565b736edce65403992e310a62460808c4b910d972f10f81565b5f73ffffffffffffffffffffffffffffffffffffffff82169050919050565b5f61397982613950565b9050919050565b6139898161396f565b82525050565b5f6020820190506139a25f830184613980565b92915050565b5f63ffffffff82169050919050565b6139c0816139a8565b82525050565b5f6020820190506139d95f8301846139b7565b92915050565b5f81519050919050565b5f82825260208201905092915050565b8281835e5f83830152505050565b5f601f19601f8301169050919050565b5f613a21826139df565b613a2b81856139e9565b9350613a3b8185602086016139f9565b613a4481613a07565b840191505092915050565b5f6020820190508181035f830152613a678184613a17565b905092915050565b5f819050919050565b613a8181613a6f565b82525050565b5f602082019050613a9a5f830184613a78565b92915050565b7f4e487b71000000000000000000000000000000000000000000000000000000005f52602260045260245ffd5b5f6002820490506001821680613ae457607f821691505b602082108103613af757613af6613aa0565b5b5091905056fea26469706673582212205df16210d812fcb575aa6a145cb72a84adbe4578f3a3682cf60ebec61db5422f64736f6c634300081e0033","linkReferences":{}},"methodIdentifiers":{"ADMIN_ROLE()":"75b238fc","BASE_DVN1()":"e5120c47","BASE_DVN2()":"4190110d","BASE_DVN3()":"21f564bc","BASE_EID()":"15f88c92","BASE_EXECUTOR()":"5ac6d96d","BASE_KAIA()":"de439f50","BASE_LZ_ENDPOINT()":"e1001432","BASE_M0CK_WKAIA()":"5a432080","BASE_MOCK_USDT()":"1d4f0841","BASE_MOCK_USDT_ELEVATED_MINTER_BURNER()":"ac7fb1b7","BASE_MOCK_WKAIA_ELEVATED_MINTER_BURNER()":"b4fa0694","BASE_OAPP_ADAPTER()":"80531169","BASE_OAPP_SUPPLY_LIQUIDITY_USDT()":"543e593a","BASE_OFT_MOCK_USDT_ADAPTER()":"86cfc33e","BASE_OFT_MOCK_WKAIA_ADAPTER()":"e4154799","BASE_OFT_SKAIA_ADAPTER()":"b5300a3b","BASE_OFT_SUSDT_ADAPTER()":"08ff3f12","BASE_OFT_SWBTC_ADAPTER()":"1fe42bff","BASE_OFT_SWETH_ADAPTER()":"fd9eef04","BASE_OFT_SWKAIA_ADAPTER()":"aded9a19","BASE_RECEIVE_LIB()":"529f0d50","BASE_SEND_LIB()":"d4c73083","BASE_SKAIA()":"f4be7504","BASE_SKAIA_ELEVATED_MINTER_BURNER()":"efffd77c","BASE_SUSDT()":"cf642cc9","BASE_SUSDT_ELEVATED_MINTER_BURNER()":"1f8a2428","BASE_SWBTC()":"90406054","BASE_SWBTC_ELEVATED_MINTER_BURNER()":"c304e508","BASE_SWETH()":"08f40bed","BASE_SWETH_ELEVATED_MINTER_BURNER()":"12e7902a","BASE_SWKAIA()":"c5e4a509","BASE_SWKAIA_ELEVATED_MINTER_BURNER()":"ba91cd43","BASE_TESTNET_DVN1()":"ce8b78bc","BASE_TESTNET_DVN2()":"3269958e","BASE_TESTNET_DVN3()":"1492d3fc","BASE_TESTNET_EID()":"94a15d04","BASE_TESTNET_EXECUTOR()":"8f366638","BASE_TESTNET_LZ_ENDPOINT()":"27e6d4a1","BASE_TESTNET_RECEIVE_LIB()":"437ad10f","BASE_TESTNET_SEND_LIB()":"b96e686a","BASE_TESTNET_SUSDC()":"065f84b3","BASE_TESTNET_SUSDC_ELEVATED_MINTER_BURNER()":"fc11943c","BASE_TESTNET_SUSDC_IMPLEMENTATION()":"1c85d356","BASE_TESTNET_SUSDC_OFT_ADAPTER()":"35433987","BASE_TESTNET_SUSDT()":"df74e522","BASE_TESTNET_SUSDT_ELEVATED_MINTER_BURNER()":"2e940088","BASE_TESTNET_SUSDT_IMPLEMENTATION()":"cb15502a","BASE_TESTNET_SUSDT_OFT_ADAPTER()":"58718d01","BASE_USDT()":"709b9036","BASE_WBTC()":"fa9be367","BASE_WETH()":"b07e4297","BTC_USDT()":"2cf0eb05","DEFAULT_ADMIN_ROLE()":"a217fddf","ETH_USDT()":"b259d964","GLMR_DVN1()":"565fcaac","GLMR_DVN2()":"7b49a635","GLMR_DVN3()":"95df5838","GLMR_EID()":"b3a98105","GLMR_EXECUTOR()":"470ebcb0","GLMR_LZ_ENDPOINT()":"413b777a","GLMR_RECEIVE_LIB()":"fbdf0593","GLMR_SEND_LIB()":"ba717f86","KAIA_BTC_USDT_ADAPTER()":"98489dff","KAIA_DEX_ROUTER()":"5dd65d31","KAIA_DVN1()":"cea90728","KAIA_DVN2()":"2fa99666","KAIA_DVN3()":"ab562ddd","KAIA_EID()":"18567e88","KAIA_ETH_USDT_ADAPTER()":"2f9668e6","KAIA_EXECUTOR()":"e5933998","KAIA_HELPER_UTILS()":"ca4b481c","KAIA_IS_HEALTHY()":"3b97322b","KAIA_KAIA()":"450036c9","KAIA_KAIA_USDT_ADAPTER()":"4fefc38c","KAIA_LENDING_POOL_DEPLOYER()":"75df4307","KAIA_LENDING_POOL_FACTORY_IMPLEMENTATION()":"59c56692","KAIA_LENDING_POOL_FACTORY_PROXY()":"b5f0848d","KAIA_LENDING_POOL_ROUTER_DEPLOYER()":"990ef31d","KAIA_LIQUIDATOR()":"e07e02cc","KAIA_LZ_ENDPOINT()":"48d8d455","KAIA_MOCK_USDT()":"a7b395f2","KAIA_MOCK_USDT_ELEVATED_MINTER_BURNER()":"90df5b1a","KAIA_MOCK_WBTC()":"ef54e76f","KAIA_MOCK_WETH()":"d9edc888","KAIA_MOCK_WKAIA()":"b53b808e","KAIA_MOCK_WKAIA_ELEVATED_MINTER_BURNER()":"511856cd","KAIA_OAPP_SUPPLY_LIQUIDITY_USDT()":"b5a98911","KAIA_OFT_MOCK_USDT_ADAPTER()":"16c67bab","KAIA_OFT_MOCK_WKAIA_ADAPTER()":"5d9fb53d","KAIA_OFT_USDT_ADAPTER()":"634a8eee","KAIA_OFT_USDT_STARGATE_ADAPTER()":"80b6403b","KAIA_OFT_WBTC_ADAPTER()":"07e24762","KAIA_OFT_WETH_ADAPTER()":"aaf0e6eb","KAIA_OFT_WKAIA_ADAPTER()":"a016a1d7","KAIA_POSITION_DEPLOYER()":"aba30cca","KAIA_PROTOCOL()":"c025fe3c","KAIA_RECEIVE_LIB()":"8fd510cc","KAIA_SEND_LIB()":"3cdda029","KAIA_TESTNET_DVN1()":"87c7f7c9","KAIA_TESTNET_DVN2()":"92e926bb","KAIA_TESTNET_DVN3()":"c1a1680e","KAIA_TESTNET_EID()":"b2d04031","KAIA_TESTNET_EXECUTOR()":"85623f59","KAIA_TESTNET_HELPER_UTILS()":"fd455f75","KAIA_TESTNET_INTEREST_RATE_MODEL()":"c2abf750","KAIA_TESTNET_INTEREST_RATE_MODEL_IMPLEMENTATION()":"379ca0db","KAIA_TESTNET_IS_HEALTHY()":"7e7414c2","KAIA_TESTNET_IS_HEALTHY_IMPLEMENTATION()":"ae5c039d","KAIA_TESTNET_LENDING_POOL_DEPLOYER()":"55fc02fa","KAIA_TESTNET_LENDING_POOL_FACTORY()":"6c50cc29","KAIA_TESTNET_LENDING_POOL_FACTORY_IMPLEMENTATION()":"4d99ba08","KAIA_TESTNET_LENDING_POOL_ROUTER_DEPLOYER()":"71b9a718","KAIA_TESTNET_LZ_ENDPOINT()":"eba82c1e","KAIA_TESTNET_MOCK_DEX()":"ed584073","KAIA_TESTNET_MOCK_USDT()":"84af6aef","KAIA_TESTNET_MOCK_WETH()":"2f0249bc","KAIA_TESTNET_MOCK_WKAIA()":"84f9199e","KAIA_TESTNET_POSITION_DEPLOYER()":"471f1075","KAIA_TESTNET_PROTOCOL()":"68ebdd5e","KAIA_TESTNET_PROXY_DEPLOYER()":"f678f032","KAIA_TESTNET_RECEIVE_LIB()":"3573070d","KAIA_TESTNET_SEND_LIB()":"aa56b57a","KAIA_TESTNET_SHARES_TOKEN_DEPLOYER()":"1a3ca3b1","KAIA_TESTNET_SUPALA_EMITTER()":"80185b00","KAIA_TESTNET_SUPALA_EMITTER_IMPLEMENTATION()":"10d5dd4e","KAIA_TESTNET_TOKEN_DATA_STREAM()":"d5fda4b7","KAIA_TESTNET_TOKEN_DATA_STREAM_IMPLEMENTATION()":"21fba235","KAIA_TESTNET_USDT_ELEVATED_MINTER_BURNER()":"34392809","KAIA_TESTNET_USDT_OFT_ADAPTER()":"848dc5e9","KAIA_TESTNET_WETH_ELEVATED_MINTER_BURNER()":"3da090c0","KAIA_TESTNET_WETH_OFT_ADAPTER()":"c7908451","KAIA_TESTNET_WKAIA_ELEVATED_MINTER_BURNER()":"09315fa9","KAIA_TESTNET_WKAIA_OFT_ADAPTER()":"235feefd","KAIA_USDT()":"2a715dd7","KAIA_USDT_STARGATE()":"b430bac5","KAIA_USDT_USD_ADAPTER()":"c41ad641","KAIA_WBTC()":"eb3789bb","KAIA_WETH()":"0b54fe1e","KAIA_WKAIA()":"67406d42","MANTLE_TESTNET_AAPLX_USD()":"8fab7b01","MANTLE_TESTNET_AMZNX_USD()":"c3df5fc7","MANTLE_TESTNET_DVN1()":"2f084bf4","MANTLE_TESTNET_DVN2()":"07ff60a1","MANTLE_TESTNET_DVN3()":"a78df687","MANTLE_TESTNET_EID()":"f31d7443","MANTLE_TESTNET_EXECUTOR()":"67d197c2","MANTLE_TESTNET_HELPER_UTILS()":"1baa220f","MANTLE_TESTNET_INTEREST_RATE_MODEL()":"1e538350","MANTLE_TESTNET_INTEREST_RATE_MODEL_IMPLEMENTATION()":"9196bfa0","MANTLE_TESTNET_IS_HEALTHY()":"f82e9691","MANTLE_TESTNET_IS_HEALTHY_IMPLEMENTATION()":"04cee161","MANTLE_TESTNET_LENDING_POOL_DEPLOYER()":"fb7a69a5","MANTLE_TESTNET_LENDING_POOL_FACTORY()":"b9261ba4","MANTLE_TESTNET_LENDING_POOL_FACTORY_IMPLEMENTATION()":"d0ff1a04","MANTLE_TESTNET_LENDING_POOL_ROUTER_DEPLOYER()":"84ad5239","MANTLE_TESTNET_LZ_ENDPOINT()":"fefcbc47","MANTLE_TESTNET_MOCK_AAPLX()":"3fd49aa6","MANTLE_TESTNET_MOCK_AMZNX()":"dd471b56","MANTLE_TESTNET_MOCK_DEX()":"8d7b0cda","MANTLE_TESTNET_MOCK_MSFTX()":"2e892dae","MANTLE_TESTNET_MOCK_USDC()":"924ff369","MANTLE_TESTNET_MOCK_USDT()":"49dfa966","MANTLE_TESTNET_MOCK_WBTC()":"95be1111","MANTLE_TESTNET_MOCK_WETH()":"f2ba7e01","MANTLE_TESTNET_MOCK_WMNT()":"bd7ad9d6","MANTLE_TESTNET_MSFTX_USD()":"8a586702","MANTLE_TESTNET_POSITION_DEPLOYER()":"a7958314","MANTLE_TESTNET_PROTOCOL()":"c13b0f17","MANTLE_TESTNET_PROXY_DEPLOYER()":"8ca4b7e3","MANTLE_TESTNET_RECEIVE_LIB()":"8dd73f6b","MANTLE_TESTNET_SEND_LIB()":"85822d6e","MANTLE_TESTNET_SHARES_TOKEN_DEPLOYER()":"ad6afeef","MANTLE_TESTNET_SUPALA_EMITTER()":"0b624f7f","MANTLE_TESTNET_SUPALA_EMITTER_IMPLEMENTATION()":"4adeb12a","MANTLE_TESTNET_TOKEN_DATA_STREAM()":"04982fca","MANTLE_TESTNET_TOKEN_DATA_STREAM_IMPLEMENTATION()":"9f09202d","MANTLE_TESTNET_USDC_ELEVATED_MINTER_BURNER()":"a84bf70e","MANTLE_TESTNET_USDC_OFT_ADAPTER()":"f1fb0193","MANTLE_TESTNET_USDT_ELEVATED_MINTER_BURNER()":"ae3676fb","MANTLE_TESTNET_USDT_OFT_ADAPTER()":"0431f17d","MANTLE_TESTNET_WBTC_ELEVATED_MINTER_BURNER()":"fe96e490","MANTLE_TESTNET_WBTC_OFT_ADAPTER()":"e4b00434","MANTLE_TESTNET_WETH_ELEVATED_MINTER_BURNER()":"2259fe8d","MANTLE_TESTNET_WETH_OFT_ADAPTER()":"6e7ec259","MANTLE_TESTNET_WMNT_ELEVATED_MINTER_BURNER()":"d48f4ee0","MANTLE_TESTNET_WMNT_OFT_ADAPTER()":"6420c205","MINTER_ROLE()":"d5391393","NATIVE_USDT()":"37a4332a","OWNER_ROLE()":"e58378bb","PAUSER_ROLE()":"e63ab1e9","UPGRADER_ROLE()":"f72c0d8b","USDC_USD()":"269ae32d","USDT_USD()":"f85a16c8","btcUsdtAdapter()":"b908f70a","chainName()":"1c93b03a","dexRouter()":"0758d924","ethUsdtAdapter()":"dbc14a19","native()":"11b0b42d","nativeUsdtAdapter()":"f89b03da","oftNativeAdapter()":"73d095e4","oftNativeOriAdapter()":"3ab51ac8","oftUsdtAdapter()":"0d574d0d","oftWethAdapter()":"1335bc29","usdc()":"3e413bee","usdt()":"2f48ab7d","usdtUsdAdapter()":"f2e78435","wNative()":"2d68efc9","wbtc()":"3cdc5389","weth()":"3fc8cef3"},"id":144}