{"abi":[{"type":"constructor","inputs":[],"stateMutability":"nonpayable"},{"type":"function","name":"DEFAULT_ADMIN_ROLE","inputs":[],"outputs":[{"name":"","type":"bytes32","internalType":"bytes32"}],"stateMutability":"view"},{"type":"function","name":"MINTER_ROLE","inputs":[],"outputs":[{"name":"","type":"bytes32","internalType":"bytes32"}],"stateMutability":"view"},{"type":"function","name":"OWNER_ROLE","inputs":[],"outputs":[{"name":"","type":"bytes32","internalType":"bytes32"}],"stateMutability":"view"},{"type":"function","name":"UPGRADER_ROLE","inputs":[],"outputs":[{"name":"","type":"bytes32","internalType":"bytes32"}],"stateMutability":"view"},{"type":"function","name":"UPGRADE_INTERFACE_VERSION","inputs":[],"outputs":[{"name":"","type":"string","internalType":"string"}],"stateMutability":"view"},{"type":"function","name":"allowance","inputs":[{"name":"owner","type":"address","internalType":"address"},{"name":"spender","type":"address","internalType":"address"}],"outputs":[{"name":"","type":"uint256","internalType":"uint256"}],"stateMutability":"view"},{"type":"function","name":"approve","inputs":[{"name":"spender","type":"address","internalType":"address"},{"name":"value","type":"uint256","internalType":"uint256"}],"outputs":[{"name":"","type":"bool","internalType":"bool"}],"stateMutability":"nonpayable"},{"type":"function","name":"balanceOf","inputs":[{"name":"account","type":"address","internalType":"address"}],"outputs":[{"name":"","type":"uint256","internalType":"uint256"}],"stateMutability":"view"},{"type":"function","name":"burn","inputs":[{"name":"_from","type":"address","internalType":"address"},{"name":"_amount","type":"uint256","internalType":"uint256"}],"outputs":[],"stateMutability":"nonpayable"},{"type":"function","name":"decimals","inputs":[],"outputs":[{"name":"","type":"uint8","internalType":"uint8"}],"stateMutability":"pure"},{"type":"function","name":"getRoleAdmin","inputs":[{"name":"role","type":"bytes32","internalType":"bytes32"}],"outputs":[{"name":"","type":"bytes32","internalType":"bytes32"}],"stateMutability":"view"},{"type":"function","name":"grantRole","inputs":[{"name":"role","type":"bytes32","internalType":"bytes32"},{"name":"account","type":"address","internalType":"address"}],"outputs":[],"stateMutability":"nonpayable"},{"type":"function","name":"hasRole","inputs":[{"name":"role","type":"bytes32","internalType":"bytes32"},{"name":"account","type":"address","internalType":"address"}],"outputs":[{"name":"","type":"bool","internalType":"bool"}],"stateMutability":"view"},{"type":"function","name":"initialize","inputs":[],"outputs":[],"stateMutability":"nonpayable"},{"type":"function","name":"mint","inputs":[{"name":"_to","type":"address","internalType":"address"},{"name":"_amount","type":"uint256","internalType":"uint256"}],"outputs":[],"stateMutability":"nonpayable"},{"type":"function","name":"name","inputs":[],"outputs":[{"name":"","type":"string","internalType":"string"}],"stateMutability":"view"},{"type":"function","name":"pause","inputs":[],"outputs":[],"stateMutability":"nonpayable"},{"type":"function","name":"paused","inputs":[],"outputs":[{"name":"","type":"bool","internalType":"bool"}],"stateMutability":"view"},{"type":"function","name":"proxiableUUID","inputs":[],"outputs":[{"name":"","type":"bytes32","internalType":"bytes32"}],"stateMutability":"view"},{"type":"function","name":"renounceRole","inputs":[{"name":"role","type":"bytes32","internalType":"bytes32"},{"name":"callerConfirmation","type":"address","internalType":"address"}],"outputs":[],"stateMutability":"nonpayable"},{"type":"function","name":"revokeRole","inputs":[{"name":"role","type":"bytes32","internalType":"bytes32"},{"name":"account","type":"address","internalType":"address"}],"outputs":[],"stateMutability":"nonpayable"},{"type":"function","name":"supportsInterface","inputs":[{"name":"interfaceId","type":"bytes4","internalType":"bytes4"}],"outputs":[{"name":"","type":"bool","internalType":"bool"}],"stateMutability":"view"},{"type":"function","name":"symbol","inputs":[],"outputs":[{"name":"","type":"string","internalType":"string"}],"stateMutability":"view"},{"type":"function","name":"totalSupply","inputs":[],"outputs":[{"name":"","type":"uint256","internalType":"uint256"}],"stateMutability":"view"},{"type":"function","name":"transfer","inputs":[{"name":"to","type":"address","internalType":"address"},{"name":"value","type":"uint256","internalType":"uint256"}],"outputs":[{"name":"","type":"bool","internalType":"bool"}],"stateMutability":"nonpayable"},{"type":"function","name":"transferFrom","inputs":[{"name":"from","type":"address","internalType":"address"},{"name":"to","type":"address","internalType":"address"},{"name":"value","type":"uint256","internalType":"uint256"}],"outputs":[{"name":"","type":"bool","internalType":"bool"}],"stateMutability":"nonpayable"},{"type":"function","name":"unpause","inputs":[],"outputs":[],"stateMutability":"nonpayable"},{"type":"function","name":"upgradeToAndCall","inputs":[{"name":"newImplementation","type":"address","internalType":"address"},{"name":"data","type":"bytes","internalType":"bytes"}],"outputs":[],"stateMutability":"payable"},{"type":"event","name":"Approval","inputs":[{"name":"owner","type":"address","indexed":true,"internalType":"address"},{"name":"spender","type":"address","indexed":true,"internalType":"address"},{"name":"value","type":"uint256","indexed":false,"internalType":"uint256"}],"anonymous":false},{"type":"event","name":"Initialized","inputs":[{"name":"version","type":"uint64","indexed":false,"internalType":"uint64"}],"anonymous":false},{"type":"event","name":"Paused","inputs":[{"name":"account","type":"address","indexed":false,"internalType":"address"}],"anonymous":false},{"type":"event","name":"RoleAdminChanged","inputs":[{"name":"role","type":"bytes32","indexed":true,"internalType":"bytes32"},{"name":"previousAdminRole","type":"bytes32","indexed":true,"internalType":"bytes32"},{"name":"newAdminRole","type":"bytes32","indexed":true,"internalType":"bytes32"}],"anonymous":false},{"type":"event","name":"RoleGranted","inputs":[{"name":"role","type":"bytes32","indexed":true,"internalType":"bytes32"},{"name":"account","type":"address","indexed":true,"internalType":"address"},{"name":"sender","type":"address","indexed":true,"internalType":"address"}],"anonymous":false},{"type":"event","name":"RoleRevoked","inputs":[{"name":"role","type":"bytes32","indexed":true,"internalType":"bytes32"},{"name":"account","type":"address","indexed":true,"internalType":"address"},{"name":"sender","type":"address","indexed":true,"internalType":"address"}],"anonymous":false},{"type":"event","name":"Transfer","inputs":[{"name":"from","type":"address","indexed":true,"internalType":"address"},{"name":"to","type":"address","indexed":true,"internalType":"address"},{"name":"value","type":"uint256","indexed":false,"internalType":"uint256"}],"anonymous":false},{"type":"event","name":"Unpaused","inputs":[{"name":"account","type":"address","indexed":false,"internalType":"address"}],"anonymous":false},{"type":"event","name":"Upgraded","inputs":[{"name":"implementation","type":"address","indexed":true,"internalType":"address"}],"anonymous":false},{"type":"error","name":"AccessControlBadConfirmation","inputs":[]},{"type":"error","name":"AccessControlUnauthorizedAccount","inputs":[{"name":"account","type":"address","internalType":"address"},{"name":"neededRole","type":"bytes32","internalType":"bytes32"}]},{"type":"error","name":"AddressEmptyCode","inputs":[{"name":"target","type":"address","internalType":"address"}]},{"type":"error","name":"ERC1967InvalidImplementation","inputs":[{"name":"implementation","type":"address","internalType":"address"}]},{"type":"error","name":"ERC1967NonPayable","inputs":[]},{"type":"error","name":"ERC20InsufficientAllowance","inputs":[{"name":"spender","type":"address","internalType":"address"},{"name":"allowance","type":"uint256","internalType":"uint256"},{"name":"needed","type":"uint256","internalType":"uint256"}]},{"type":"error","name":"ERC20InsufficientBalance","inputs":[{"name":"sender","type":"address","internalType":"address"},{"name":"balance","type":"uint256","internalType":"uint256"},{"name":"needed","type":"uint256","internalType":"uint256"}]},{"type":"error","name":"ERC20InvalidApprover","inputs":[{"name":"approver","type":"address","internalType":"address"}]},{"type":"error","name":"ERC20InvalidReceiver","inputs":[{"name":"receiver","type":"address","internalType":"address"}]},{"type":"error","name":"ERC20InvalidSender","inputs":[{"name":"sender","type":"address","internalType":"address"}]},{"type":"error","name":"ERC20InvalidSpender","inputs":[{"name":"spender","type":"address","internalType":"address"}]},{"type":"error","name":"EnforcedPause","inputs":[]},{"type":"error","name":"ExpectedPause","inputs":[]},{"type":"error","name":"FailedCall","inputs":[]},{"type":"error","name":"InvalidInitialization","inputs":[]},{"type":"error","name":"NotInitializing","inputs":[]},{"type":"error","name":"NotOperator","inputs":[]},{"type":"error","name":"UUPSUnauthorizedCallContext","inputs":[]},{"type":"error","name":"UUPSUnsupportedProxiableUUID","inputs":[{"name":"slot","type":"bytes32","internalType":"bytes32"}]}],"bytecode":{"object":"0x60a06040523073ffffffffffffffffffffffffffffffffffffffff1660809073ffffffffffffffffffffffffffffffffffffffff16815250348015610042575f5ffd5b5061005161005660201b60201c565b6101d1565b5f61006561015460201b60201c565b9050805f0160089054906101000a900460ff16156100af576040517ff92ee8a900000000000000000000000000000000000000000000000000000000815260040160405180910390fd5b67ffffffffffffffff8016815f015f9054906101000a900467ffffffffffffffff1667ffffffffffffffff16146101515767ffffffffffffffff815f015f6101000a81548167ffffffffffffffff021916908367ffffffffffffffff1602179055507fc7f505b2f371ae2175ee4913f4499e1f2633a7b5936321eed1cdaeb6115181d267ffffffffffffffff60405161014891906101b8565b60405180910390a15b50565b5f5f61016461016d60201b60201c565b90508091505090565b5f7ff0c57e16840df040f15088dc2f81fe391c3923bec73e23a9662efc9c229c6a005f1b905090565b5f67ffffffffffffffff82169050919050565b6101b281610196565b82525050565b5f6020820190506101cb5f8301846101a9565b92915050565b608051612bf76101f75f395f81816114be0152818161151301526116f00152612bf75ff3fe6080604052600436106101b6575f3560e01c806370a08231116100eb578063a9059cbb11610089578063d547741f11610063578063d547741f146105d6578063dd62ed3e146105fe578063e58378bb1461063a578063f72c0d8b14610664576101b6565b8063a9059cbb14610546578063ad3cb1cc14610582578063d5391393146105ac576101b6565b806391d14854116100c557806391d148541461048e57806395d89b41146104ca5780639dc29fac146104f4578063a217fddf1461051c576101b6565b806370a08231146104265780638129fc1c146104625780638456cb5914610478576101b6565b8063313ce5671161015857806340c10f191161013257806340c10f191461038e5780634f1ef286146103b657806352d1902d146103d25780635c975abb146103fc576101b6565b8063313ce5671461032657806336568abe146103505780633f4ba83a14610378576101b6565b806318160ddd1161019457806318160ddd1461025c57806323b872dd14610286578063248a9ca3146102c25780632f2ff15d146102fe576101b6565b806301ffc9a7146101ba57806306fdde03146101f6578063095ea7b314610220575b5f5ffd5b3480156101c5575f5ffd5b506101e060048036038101906101db91906121fb565b61068e565b6040516101ed9190612240565b60405180910390f35b348015610201575f5ffd5b5061020a610707565b60405161021791906122c9565b60405180910390f35b34801561022b575f5ffd5b5061024660048036038101906102419190612376565b6107a5565b6040516102539190612240565b60405180910390f35b348015610267575f5ffd5b506102706107c7565b60405161027d91906123c3565b60405180910390f35b348015610291575f5ffd5b506102ac60048036038101906102a791906123dc565b6107de565b6040516102b99190612240565b60405180910390f35b3480156102cd575f5ffd5b506102e860048036038101906102e3919061245f565b61080c565b6040516102f59190612499565b60405180910390f35b348015610309575f5ffd5b50610324600480360381019061031f91906124b2565b610836565b005b348015610331575f5ffd5b5061033a610858565b604051610347919061250b565b60405180910390f35b34801561035b575f5ffd5b50610376600480360381019061037191906124b2565b610860565b005b348015610383575f5ffd5b5061038c6108db565b005b348015610399575f5ffd5b506103b460048036038101906103af9190612376565b610910565b005b6103d060048036038101906103cb9190612650565b610949565b005b3480156103dd575f5ffd5b506103e6610968565b6040516103f39190612499565b60405180910390f35b348015610407575f5ffd5b50610410610999565b60405161041d9190612240565b60405180910390f35b348015610431575f5ffd5b5061044c600480360381019061044791906126aa565b6109bb565b60405161045991906123c3565b60405180910390f35b34801561046d575f5ffd5b50610476610a0e565b005b348015610483575f5ffd5b5061048c610ca7565b005b348015610499575f5ffd5b506104b460048036038101906104af91906124b2565b610cdc565b6040516104c19190612240565b60405180910390f35b3480156104d5575f5ffd5b506104de610d4d565b6040516104eb91906122c9565b60405180910390f35b3480156104ff575f5ffd5b5061051a60048036038101906105159190612376565b610deb565b005b348015610527575f5ffd5b50610530610df9565b60405161053d9190612499565b60405180910390f35b348015610551575f5ffd5b5061056c60048036038101906105679190612376565b610dff565b6040516105799190612240565b60405180910390f35b34801561058d575f5ffd5b50610596610e21565b6040516105a391906122c9565b60405180910390f35b3480156105b7575f5ffd5b506105c0610e5a565b6040516105cd9190612499565b60405180910390f35b3480156105e1575f5ffd5b506105fc60048036038101906105f791906124b2565b610e7e565b005b348015610609575f5ffd5b50610624600480360381019061061f91906126d5565b610ea0565b60405161063191906123c3565b60405180910390f35b348015610645575f5ffd5b5061064e610f30565b60405161065b9190612499565b60405180910390f35b34801561066f575f5ffd5b50610678610f54565b6040516106859190612499565b60405180910390f35b5f7f7965db0b000000000000000000000000000000000000000000000000000000007bffffffffffffffffffffffffffffffffffffffffffffffffffffffff1916827bffffffffffffffffffffffffffffffffffffffffffffffffffffffff1916148061070057506106ff82610f78565b5b9050919050565b60605f610712610fe1565b905080600301805461072390612740565b80601f016020809104026020016040519081016040528092919081815260200182805461074f90612740565b801561079a5780601f106107715761010080835404028352916020019161079a565b820191905f5260205f20905b81548152906001019060200180831161077d57829003601f168201915b505050505091505090565b5f5f6107af611008565b90506107bc81858561100f565b600191505092915050565b5f5f6107d1610fe1565b9050806002015491505090565b5f5f6107e8611008565b90506107f5858285611021565b6108008585856110b4565b60019150509392505050565b5f5f6108166111a4565b9050805f015f8481526020019081526020015f2060010154915050919050565b61083f8261080c565b610848816111cb565b61085283836111df565b50505050565b5f6012905090565b610868611008565b73ffffffffffffffffffffffffffffffffffffffff168173ffffffffffffffffffffffffffffffffffffffff16146108cc576040517f6697b23200000000000000000000000000000000000000000000000000000000815260040160405180910390fd5b6108d682826112d7565b505050565b7fb19546dff01e856fb3f010c267a7b1c60363cf8a4664e21cc89c26224620214e610905816111cb565b61090d6113cf565b50565b7f9f2df0fed2c77648de5860a4cc508cd0818c85b8b8a1ab4ceeef8d981c8956a661093a816111cb565b610944838361143d565b505050565b6109516114bc565b61095a826115a2565b61096482826115d0565b5050565b5f6109716116ee565b7f360894a13ba1a3210667c828492db98dca3e2076cc3735a920a3ca505d382bbc5f1b905090565b5f5f6109a3611775565b9050805f015f9054906101000a900460ff1691505090565b5f5f6109c5610fe1565b9050805f015f8473ffffffffffffffffffffffffffffffffffffffff1673ffffffffffffffffffffffffffffffffffffffff1681526020019081526020015f2054915050919050565b5f610a1761179c565b90505f815f0160089054906101000a900460ff161590505f825f015f9054906101000a900467ffffffffffffffff1690505f5f8267ffffffffffffffff16148015610a5f5750825b90505f60018367ffffffffffffffff16148015610a9257505f3073ffffffffffffffffffffffffffffffffffffffff163b145b905081158015610aa0575080155b15610ad7576040517ff92ee8a900000000000000000000000000000000000000000000000000000000815260040160405180910390fd5b6001855f015f6101000a81548167ffffffffffffffff021916908367ffffffffffffffff1602179055508315610b24576001855f0160086101000a81548160ff0219169083151502179055505b610b986040518060400160405280601a81526020017f577261707065642045544820726570726573656e7461746976650000000000008152506040518060400160405280600581526020017f73574554480000000000000000000000000000000000000000000000000000008152506117af565b610ba06117c5565b610ba86117cf565b610bb06117d9565b610be17fb19546dff01e856fb3f010c267a7b1c60363cf8a4664e21cc89c26224620214e610bdc611008565b6111df565b50610c137f189ab7a9244df0848122154315af71fe140f3db0fe014031783b0946b8c9d2e3610c0e611008565b6111df565b50610c457f9f2df0fed2c77648de5860a4cc508cd0818c85b8b8a1ab4ceeef8d981c8956a6610c40611008565b6111df565b508315610ca0575f855f0160086101000a81548160ff0219169083151502179055507fc7f505b2f371ae2175ee4913f4499e1f2633a7b5936321eed1cdaeb6115181d26001604051610c9791906127c5565b60405180910390a15b5050505050565b7fb19546dff01e856fb3f010c267a7b1c60363cf8a4664e21cc89c26224620214e610cd1816111cb565b610cd96117e3565b50565b5f5f610ce66111a4565b9050805f015f8581526020019081526020015f205f015f8473ffffffffffffffffffffffffffffffffffffffff1673ffffffffffffffffffffffffffffffffffffffff1681526020019081526020015f205f9054906101000a900460ff1691505092915050565b60605f610d58610fe1565b9050806004018054610d6990612740565b80601f0160208091040260200160405190810160405280929190818152602001828054610d9590612740565b8015610de05780601f10610db757610100808354040283529160200191610de0565b820191905f5260205f20905b815481529060010190602001808311610dc357829003601f168201915b505050505091505090565b610df58282611852565b5050565b5f5f1b81565b5f5f610e09611008565b9050610e168185856110b4565b600191505092915050565b6040518060400160405280600581526020017f352e302e3000000000000000000000000000000000000000000000000000000081525081565b7f9f2df0fed2c77648de5860a4cc508cd0818c85b8b8a1ab4ceeef8d981c8956a681565b610e878261080c565b610e90816111cb565b610e9a83836112d7565b50505050565b5f5f610eaa610fe1565b9050806001015f8573ffffffffffffffffffffffffffffffffffffffff1673ffffffffffffffffffffffffffffffffffffffff1681526020019081526020015f205f8473ffffffffffffffffffffffffffffffffffffffff1673ffffffffffffffffffffffffffffffffffffffff1681526020019081526020015f205491505092915050565b7fb19546dff01e856fb3f010c267a7b1c60363cf8a4664e21cc89c26224620214e81565b7f189ab7a9244df0848122154315af71fe140f3db0fe014031783b0946b8c9d2e381565b5f7f01ffc9a7000000000000000000000000000000000000000000000000000000007bffffffffffffffffffffffffffffffffffffffffffffffffffffffff1916827bffffffffffffffffffffffffffffffffffffffffffffffffffffffff1916149050919050565b5f7f52c63247e1f47db19d5ce0460030c497f067ca4cebf71ba98eeadabe20bace00905090565b5f33905090565b61101c83838360016118d1565b505050565b5f61102c8484610ea0565b90507fffffffffffffffffffffffffffffffffffffffffffffffffffffffffffffffff8110156110ae578181101561109f578281836040517ffb8f41b2000000000000000000000000000000000000000000000000000000008152600401611096939291906127ed565b60405180910390fd5b6110ad84848484035f6118d1565b5b50505050565b5f73ffffffffffffffffffffffffffffffffffffffff168373ffffffffffffffffffffffffffffffffffffffff1603611124575f6040517f96c6fd1e00000000000000000000000000000000000000000000000000000000815260040161111b9190612822565b60405180910390fd5b5f73ffffffffffffffffffffffffffffffffffffffff168273ffffffffffffffffffffffffffffffffffffffff1603611194575f6040517fec442f0500000000000000000000000000000000000000000000000000000000815260040161118b9190612822565b60405180910390fd5b61119f838383611aae565b505050565b5f7f02dd7bc7dec4dceedda775e58dd541e08a116c6c53815c0bd028192f7b626800905090565b6111dc816111d7611008565b611cdd565b50565b5f5f6111e96111a4565b90506111f58484610cdc565b6112cc576001815f015f8681526020019081526020015f205f015f8573ffffffffffffffffffffffffffffffffffffffff1673ffffffffffffffffffffffffffffffffffffffff1681526020019081526020015f205f6101000a81548160ff021916908315150217905550611268611008565b73ffffffffffffffffffffffffffffffffffffffff168373ffffffffffffffffffffffffffffffffffffffff16857f2f8788117e7eff1d82e926ec794901d17c78024a50270940304540a733656f0d60405160405180910390a460019150506112d1565b5f9150505b92915050565b5f5f6112e16111a4565b90506112ed8484610cdc565b156113c4575f815f015f8681526020019081526020015f205f015f8573ffffffffffffffffffffffffffffffffffffffff1673ffffffffffffffffffffffffffffffffffffffff1681526020019081526020015f205f6101000a81548160ff021916908315150217905550611360611008565b73ffffffffffffffffffffffffffffffffffffffff168373ffffffffffffffffffffffffffffffffffffffff16857ff6391f5c32d9c69d2a47ea670b442974b53935d1edc7fd64eb21e047a839171b60405160405180910390a460019150506113c9565b5f9150505b92915050565b6113d7611d2e565b5f6113e0611775565b90505f815f015f6101000a81548160ff0219169083151502179055507f5db9ee0a495bf2e6ff9c91a7834c1ba4fdd244a5e8aa4e537bd38aeae4b073aa611425611008565b6040516114329190612822565b60405180910390a150565b5f73ffffffffffffffffffffffffffffffffffffffff168273ffffffffffffffffffffffffffffffffffffffff16036114ad575f6040517fec442f050000000000000000000000000000000000000000000000000000000081526004016114a49190612822565b60405180910390fd5b6114b85f8383611aae565b5050565b7f000000000000000000000000000000000000000000000000000000000000000073ffffffffffffffffffffffffffffffffffffffff163073ffffffffffffffffffffffffffffffffffffffff16148061156957507f000000000000000000000000000000000000000000000000000000000000000073ffffffffffffffffffffffffffffffffffffffff16611550611d6e565b73ffffffffffffffffffffffffffffffffffffffff1614155b156115a0576040517fe07c8dba00000000000000000000000000000000000000000000000000000000815260040160405180910390fd5b565b7f189ab7a9244df0848122154315af71fe140f3db0fe014031783b0946b8c9d2e36115cc816111cb565b5050565b8173ffffffffffffffffffffffffffffffffffffffff166352d1902d6040518163ffffffff1660e01b8152600401602060405180830381865afa92505050801561163857506040513d601f19601f82011682018060405250810190611635919061284f565b60015b61167957816040517f4c9c8ce30000000000000000000000000000000000000000000000000000000081526004016116709190612822565b60405180910390fd5b7f360894a13ba1a3210667c828492db98dca3e2076cc3735a920a3ca505d382bbc5f1b81146116df57806040517faa1d49a40000000000000000000000000000000000000000000000000000000081526004016116d69190612499565b60405180910390fd5b6116e98383611dc1565b505050565b7f000000000000000000000000000000000000000000000000000000000000000073ffffffffffffffffffffffffffffffffffffffff163073ffffffffffffffffffffffffffffffffffffffff1614611773576040517fe07c8dba00000000000000000000000000000000000000000000000000000000815260040160405180910390fd5b565b5f7fcd5ed15c6e187e77e9aee88184c21f4f2182ab5827cb3b7e07fbedcd63f03300905090565b5f5f6117a6611e33565b90508091505090565b6117b7611e5c565b6117c18282611e9c565b5050565b6117cd611e5c565b565b6117d7611e5c565b565b6117e1611e5c565b565b6117eb611ed8565b5f6117f4611775565b90506001815f015f6101000a81548160ff0219169083151502179055507f62e78cea01bee320cd4e420270b5ea74000d11b0c9f74754ebdbfc544b05a25861183a611008565b6040516118479190612822565b60405180910390a150565b5f73ffffffffffffffffffffffffffffffffffffffff168273ffffffffffffffffffffffffffffffffffffffff16036118c2575f6040517f96c6fd1e0000000000000000000000000000000000000000000000000000000081526004016118b99190612822565b60405180910390fd5b6118cd825f83611aae565b5050565b5f6118da610fe1565b90505f73ffffffffffffffffffffffffffffffffffffffff168573ffffffffffffffffffffffffffffffffffffffff160361194c575f6040517fe602df050000000000000000000000000000000000000000000000000000000081526004016119439190612822565b60405180910390fd5b5f73ffffffffffffffffffffffffffffffffffffffff168473ffffffffffffffffffffffffffffffffffffffff16036119bc575f6040517f94280d620000000000000000000000000000000000000000000000000000000081526004016119b39190612822565b60405180910390fd5b82816001015f8773ffffffffffffffffffffffffffffffffffffffff1673ffffffffffffffffffffffffffffffffffffffff1681526020019081526020015f205f8673ffffffffffffffffffffffffffffffffffffffff1673ffffffffffffffffffffffffffffffffffffffff1681526020019081526020015f20819055508115611aa7578373ffffffffffffffffffffffffffffffffffffffff168573ffffffffffffffffffffffffffffffffffffffff167f8c5be1e5ebec7d5bd14f71427d1e84f3dd0314c0f7b2291e5b200ac8c7c3b92585604051611a9e91906123c3565b60405180910390a35b5050505050565b5f611ab7610fe1565b90505f73ffffffffffffffffffffffffffffffffffffffff168473ffffffffffffffffffffffffffffffffffffffff1603611b0b5781816002015f828254611aff91906128a7565b92505081905550611bdd565b5f815f015f8673ffffffffffffffffffffffffffffffffffffffff1673ffffffffffffffffffffffffffffffffffffffff1681526020019081526020015f2054905082811015611b96578481846040517fe450d38c000000000000000000000000000000000000000000000000000000008152600401611b8d939291906127ed565b60405180910390fd5b828103825f015f8773ffffffffffffffffffffffffffffffffffffffff1673ffffffffffffffffffffffffffffffffffffffff1681526020019081526020015f2081905550505b5f73ffffffffffffffffffffffffffffffffffffffff168373ffffffffffffffffffffffffffffffffffffffff1603611c265781816002015f8282540392505081905550611c72565b81815f015f8573ffffffffffffffffffffffffffffffffffffffff1673ffffffffffffffffffffffffffffffffffffffff1681526020019081526020015f205f82825401925050819055505b8273ffffffffffffffffffffffffffffffffffffffff168473ffffffffffffffffffffffffffffffffffffffff167fddf252ad1be2c89b69c2b068fc378daa952ba7f163c4a11628f55a4df523b3ef84604051611ccf91906123c3565b60405180910390a350505050565b611ce78282610cdc565b611d2a5780826040517fe2517d3f000000000000000000000000000000000000000000000000000000008152600401611d219291906128da565b60405180910390fd5b5050565b611d36610999565b611d6c576040517f8dfc202b00000000000000000000000000000000000000000000000000000000815260040160405180910390fd5b565b5f611d9a7f360894a13ba1a3210667c828492db98dca3e2076cc3735a920a3ca505d382bbc5f1b611f19565b5f015f9054906101000a900473ffffffffffffffffffffffffffffffffffffffff16905090565b611dca82611f22565b8173ffffffffffffffffffffffffffffffffffffffff167fbc7cd75a20ee27fd9adebab32041f755214dbc6bffa90cc0225b39da2e5c2d3b60405160405180910390a25f81511115611e2657611e208282611feb565b50611e2f565b611e2e61206b565b5b5050565b5f7ff0c57e16840df040f15088dc2f81fe391c3923bec73e23a9662efc9c229c6a005f1b905090565b611e646120a7565b611e9a576040517fd7e6bcf800000000000000000000000000000000000000000000000000000000815260040160405180910390fd5b565b611ea4611e5c565b5f611ead610fe1565b905082816003019081611ec09190612a98565b5081816004019081611ed29190612a98565b50505050565b611ee0610999565b15611f17576040517fd93c066500000000000000000000000000000000000000000000000000000000815260040160405180910390fd5b565b5f819050919050565b5f8173ffffffffffffffffffffffffffffffffffffffff163b03611f7d57806040517f4c9c8ce3000000000000000000000000000000000000000000000000000000008152600401611f749190612822565b60405180910390fd5b80611fa97f360894a13ba1a3210667c828492db98dca3e2076cc3735a920a3ca505d382bbc5f1b611f19565b5f015f6101000a81548173ffffffffffffffffffffffffffffffffffffffff021916908373ffffffffffffffffffffffffffffffffffffffff16021790555050565b60605f5f8473ffffffffffffffffffffffffffffffffffffffff16846040516120149190612bab565b5f60405180830381855af49150503d805f811461204c576040519150601f19603f3d011682016040523d82523d5f602084013e612051565b606091505b50915091506120618583836120c5565b9250505092915050565b5f3411156120a5576040517fb398979f00000000000000000000000000000000000000000000000000000000815260040160405180910390fd5b565b5f6120b061179c565b5f0160089054906101000a900460ff16905090565b6060826120da576120d582612152565b61214a565b5f825114801561210057505f8473ffffffffffffffffffffffffffffffffffffffff163b145b1561214257836040517f9996b3150000000000000000000000000000000000000000000000000000000081526004016121399190612822565b60405180910390fd5b81905061214b565b5b9392505050565b5f8151111561216357805160208201fd5b6040517fd6bda27500000000000000000000000000000000000000000000000000000000815260040160405180910390fd5b5f604051905090565b5f5ffd5b5f5ffd5b5f7fffffffff0000000000000000000000000000000000000000000000000000000082169050919050565b6121da816121a6565b81146121e4575f5ffd5b50565b5f813590506121f5816121d1565b92915050565b5f602082840312156122105761220f61219e565b5b5f61221d848285016121e7565b91505092915050565b5f8115159050919050565b61223a81612226565b82525050565b5f6020820190506122535f830184612231565b92915050565b5f81519050919050565b5f82825260208201905092915050565b8281835e5f83830152505050565b5f601f19601f8301169050919050565b5f61229b82612259565b6122a58185612263565b93506122b5818560208601612273565b6122be81612281565b840191505092915050565b5f6020820190508181035f8301526122e18184612291565b905092915050565b5f73ffffffffffffffffffffffffffffffffffffffff82169050919050565b5f612312826122e9565b9050919050565b61232281612308565b811461232c575f5ffd5b50565b5f8135905061233d81612319565b92915050565b5f819050919050565b61235581612343565b811461235f575f5ffd5b50565b5f813590506123708161234c565b92915050565b5f5f6040838503121561238c5761238b61219e565b5b5f6123998582860161232f565b92505060206123aa85828601612362565b9150509250929050565b6123bd81612343565b82525050565b5f6020820190506123d65f8301846123b4565b92915050565b5f5f5f606084860312156123f3576123f261219e565b5b5f6124008682870161232f565b93505060206124118682870161232f565b925050604061242286828701612362565b9150509250925092565b5f819050919050565b61243e8161242c565b8114612448575f5ffd5b50565b5f8135905061245981612435565b92915050565b5f602082840312156124745761247361219e565b5b5f6124818482850161244b565b91505092915050565b6124938161242c565b82525050565b5f6020820190506124ac5f83018461248a565b92915050565b5f5f604083850312156124c8576124c761219e565b5b5f6124d58582860161244b565b92505060206124e68582860161232f565b9150509250929050565b5f60ff82169050919050565b612505816124f0565b82525050565b5f60208201905061251e5f8301846124fc565b92915050565b5f5ffd5b5f5ffd5b7f4e487b71000000000000000000000000000000000000000000000000000000005f52604160045260245ffd5b61256282612281565b810181811067ffffffffffffffff821117156125815761258061252c565b5b80604052505050565b5f612593612195565b905061259f8282612559565b919050565b5f67ffffffffffffffff8211156125be576125bd61252c565b5b6125c782612281565b9050602081019050919050565b828183375f83830152505050565b5f6125f46125ef846125a4565b61258a565b9050828152602081018484840111156126105761260f612528565b5b61261b8482856125d4565b509392505050565b5f82601f83011261263757612636612524565b5b81356126478482602086016125e2565b91505092915050565b5f5f604083850312156126665761266561219e565b5b5f6126738582860161232f565b925050602083013567ffffffffffffffff811115612694576126936121a2565b5b6126a085828601612623565b9150509250929050565b5f602082840312156126bf576126be61219e565b5b5f6126cc8482850161232f565b91505092915050565b5f5f604083850312156126eb576126ea61219e565b5b5f6126f88582860161232f565b92505060206127098582860161232f565b9150509250929050565b7f4e487b71000000000000000000000000000000000000000000000000000000005f52602260045260245ffd5b5f600282049050600182168061275757607f821691505b60208210810361276a57612769612713565b5b50919050565b5f819050919050565b5f67ffffffffffffffff82169050919050565b5f819050919050565b5f6127af6127aa6127a584612770565b61278c565b612779565b9050919050565b6127bf81612795565b82525050565b5f6020820190506127d85f8301846127b6565b92915050565b6127e781612308565b82525050565b5f6060820190506128005f8301866127de565b61280d60208301856123b4565b61281a60408301846123b4565b949350505050565b5f6020820190506128355f8301846127de565b92915050565b5f8151905061284981612435565b92915050565b5f602082840312156128645761286361219e565b5b5f6128718482850161283b565b91505092915050565b7f4e487b71000000000000000000000000000000000000000000000000000000005f52601160045260245ffd5b5f6128b182612343565b91506128bc83612343565b92508282019050808211156128d4576128d361287a565b5b92915050565b5f6040820190506128ed5f8301856127de565b6128fa602083018461248a565b9392505050565b5f819050815f5260205f209050919050565b5f6020601f8301049050919050565b5f82821b905092915050565b5f6008830261295d7fffffffffffffffffffffffffffffffffffffffffffffffffffffffffffffffff82612922565b6129678683612922565b95508019841693508086168417925050509392505050565b5f61299961299461298f84612343565b61278c565b612343565b9050919050565b5f819050919050565b6129b28361297f565b6129c66129be826129a0565b84845461292e565b825550505050565b5f5f905090565b6129dd6129ce565b6129e88184846129a9565b505050565b5b81811015612a0b57612a005f826129d5565b6001810190506129ee565b5050565b601f821115612a5057612a2181612901565b612a2a84612913565b81016020851015612a39578190505b612a4d612a4585612913565b8301826129ed565b50505b505050565b5f82821c905092915050565b5f612a705f1984600802612a55565b1980831691505092915050565b5f612a888383612a61565b9150826002028217905092915050565b612aa182612259565b67ffffffffffffffff811115612aba57612ab961252c565b5b612ac48254612740565b612acf828285612a0f565b5f60209050601f831160018114612b00575f8415612aee578287015190505b612af88582612a7d565b865550612b5f565b601f198416612b0e86612901565b5f5b82811015612b3557848901518255600182019150602085019450602081019050612b10565b86831015612b525784890151612b4e601f891682612a61565b8355505b6001600288020188555050505b505050505050565b5f81519050919050565b5f81905092915050565b5f612b8582612b67565b612b8f8185612b71565b9350612b9f818560208601612273565b80840191505092915050565b5f612bb68284612b7b565b91508190509291505056fea264697066735822122021aef95e575f068c366ccc3c03d0df30f92430cde67352226d41b59f277fcc9a64736f6c634300081e0033","linkReferences":{}},"methodIdentifiers":{"DEFAULT_ADMIN_ROLE()":"a217fddf","MINTER_ROLE()":"d5391393","OWNER_ROLE()":"e58378bb","UPGRADER_ROLE()":"f72c0d8b","UPGRADE_INTERFACE_VERSION()":"ad3cb1cc","allowance(address,address)":"dd62ed3e","approve(address,uint256)":"095ea7b3","balanceOf(address)":"70a08231","burn(address,uint256)":"9dc29fac","decimals()":"313ce567","getRoleAdmin(bytes32)":"248a9ca3","grantRole(bytes32,address)":"2f2ff15d","hasRole(bytes32,address)":"91d14854","initialize()":"8129fc1c","mint(address,uint256)":"40c10f19","name()":"06fdde03","pause()":"8456cb59","paused()":"5c975abb","proxiableUUID()":"52d1902d","renounceRole(bytes32,address)":"36568abe","revokeRole(bytes32,address)":"d547741f","supportsInterface(bytes4)":"01ffc9a7","symbol()":"95d89b41","totalSupply()":"18160ddd","transfer(address,uint256)":"a9059cbb","transferFrom(address,address,uint256)":"23b872dd","unpause()":"3f4ba83a","upgradeToAndCall(address,bytes)":"4f1ef286"},"id":196}