{"abi":[{"type":"constructor","inputs":[{"name":"_token","type":"address","internalType":"address"},{"name":"_owner","type":"address","internalType":"address"}],"stateMutability":"nonpayable"},{"type":"function","name":"TOKEN","inputs":[],"outputs":[{"name":"","type":"address","internalType":"address"}],"stateMutability":"view"},{"type":"function","name":"burn","inputs":[{"name":"_from","type":"address","internalType":"address"},{"name":"_amount","type":"uint256","internalType":"uint256"}],"outputs":[{"name":"","type":"bool","internalType":"bool"}],"stateMutability":"nonpayable"},{"type":"function","name":"mint","inputs":[{"name":"_to","type":"address","internalType":"address"},{"name":"_amount","type":"uint256","internalType":"uint256"}],"outputs":[{"name":"","type":"bool","internalType":"bool"}],"stateMutability":"nonpayable"},{"type":"function","name":"operators","inputs":[{"name":"","type":"address","internalType":"address"}],"outputs":[{"name":"","type":"bool","internalType":"bool"}],"stateMutability":"view"},{"type":"function","name":"owner","inputs":[],"outputs":[{"name":"","type":"address","internalType":"address"}],"stateMutability":"view"},{"type":"function","name":"renounceOwnership","inputs":[],"outputs":[],"stateMutability":"nonpayable"},{"type":"function","name":"setOperator","inputs":[{"name":"_operator","type":"address","internalType":"address"},{"name":"_status","type":"bool","internalType":"bool"}],"outputs":[],"stateMutability":"nonpayable"},{"type":"function","name":"transferOwnership","inputs":[{"name":"newOwner","type":"address","internalType":"address"}],"outputs":[],"stateMutability":"nonpayable"},{"type":"event","name":"Burn","inputs":[{"name":"from","type":"address","indexed":true,"internalType":"address"},{"name":"to","type":"address","indexed":true,"internalType":"address"},{"name":"amount","type":"uint256","indexed":false,"internalType":"uint256"}],"anonymous":false},{"type":"event","name":"Mint","inputs":[{"name":"to","type":"address","indexed":true,"internalType":"address"},{"name":"from","type":"address","indexed":true,"internalType":"address"},{"name":"amount","type":"uint256","indexed":false,"internalType":"uint256"}],"anonymous":false},{"type":"event","name":"OwnershipTransferred","inputs":[{"name":"previousOwner","type":"address","indexed":true,"internalType":"address"},{"name":"newOwner","type":"address","indexed":true,"internalType":"address"}],"anonymous":false},{"type":"error","name":"OwnableInvalidOwner","inputs":[{"name":"owner","type":"address","internalType":"address"}]},{"type":"error","name":"OwnableUnauthorizedAccount","inputs":[{"name":"account","type":"address","internalType":"address"}]},{"type":"error","name":"SafeERC20FailedOperation","inputs":[{"name":"token","type":"address","internalType":"address"}]}],"bytecode":{"object":"0x60a060405234801561000f575f5ffd5b50604051610e06380380610e068339818101604052810190610031919061020c565b805f73ffffffffffffffffffffffffffffffffffffffff168173ffffffffffffffffffffffffffffffffffffffff16036100a2575f6040517f1e4fbdf70000000000000000000000000000000000000000000000000000000081526004016100999190610259565b60405180910390fd5b6100b1816100ed60201b60201c565b508173ffffffffffffffffffffffffffffffffffffffff1660808173ffffffffffffffffffffffffffffffffffffffff16815250505050610272565b5f5f5f9054906101000a900473ffffffffffffffffffffffffffffffffffffffff169050815f5f6101000a81548173ffffffffffffffffffffffffffffffffffffffff021916908373ffffffffffffffffffffffffffffffffffffffff1602179055508173ffffffffffffffffffffffffffffffffffffffff168173ffffffffffffffffffffffffffffffffffffffff167f8be0079c531659141344cd1fd0a4f28419497f9722a3daafe3b4186f6b6457e060405160405180910390a35050565b5f5ffd5b5f73ffffffffffffffffffffffffffffffffffffffff82169050919050565b5f6101db826101b2565b9050919050565b6101eb816101d1565b81146101f5575f5ffd5b50565b5f81519050610206816101e2565b92915050565b5f5f60408385031215610222576102216101ae565b5b5f61022f858286016101f8565b9250506020610240858286016101f8565b9150509250929050565b610253816101d1565b82525050565b5f60208201905061026c5f83018461024a565b92915050565b608051610b6761029f5f395f81816101c00152818161032a0152818161038401526103cb0152610b675ff3fe608060405234801561000f575f5ffd5b5060043610610086575f3560e01c806382bfefc81161005957806382bfefc8146101105780638da5cb5b1461012e5780639dc29fac1461014c578063f2fde38b1461017c57610086565b806313e7c9d81461008a57806340c10f19146100ba578063558a7297146100ea578063715018a614610106575b5f5ffd5b6100a4600480360381019061009f91906108d6565b610198565b6040516100b1919061091b565b60405180910390f35b6100d460048036038101906100cf9190610967565b6101b5565b6040516100e1919061091b565b60405180910390f35b61010460048036038101906100ff91906109cf565b6102b5565b005b61010e610315565b005b610118610328565b6040516101259190610a1c565b60405180910390f35b61013661034c565b6040516101439190610a1c565b60405180910390f35b61016660048036038101906101619190610967565b610373565b604051610173919061091b565b60405180910390f35b610196600480360381019061019191906108d6565b6104c0565b005b6001602052805f5260405f205f915054906101000a900460ff1681565b5f6101be610544565b7f000000000000000000000000000000000000000000000000000000000000000073ffffffffffffffffffffffffffffffffffffffff166340c10f1984846040518363ffffffff1660e01b8152600401610219929190610a44565b5f604051808303815f87803b158015610230575f5ffd5b505af1158015610242573d5f5f3e3d5ffd5b505050503373ffffffffffffffffffffffffffffffffffffffff168373ffffffffffffffffffffffffffffffffffffffff167fab8530f87dc9b59234c4623bf917212bb2536d647574c8e7e5da92c2ede0c9f8846040516102a39190610a6b565b60405180910390a36001905092915050565b6102bd61060c565b8060015f8473ffffffffffffffffffffffffffffffffffffffff1673ffffffffffffffffffffffffffffffffffffffff1681526020019081526020015f205f6101000a81548160ff0219169083151502179055505050565b61031d61060c565b6103265f610693565b565b7f000000000000000000000000000000000000000000000000000000000000000081565b5f5f5f9054906101000a900473ffffffffffffffffffffffffffffffffffffffff16905090565b5f61037c610544565b6103c93330847f000000000000000000000000000000000000000000000000000000000000000073ffffffffffffffffffffffffffffffffffffffff16610754909392919063ffffffff16565b7f000000000000000000000000000000000000000000000000000000000000000073ffffffffffffffffffffffffffffffffffffffff16639dc29fac30846040518363ffffffff1660e01b8152600401610424929190610a44565b5f604051808303815f87803b15801561043b575f5ffd5b505af115801561044d573d5f5f3e3d5ffd5b505050503373ffffffffffffffffffffffffffffffffffffffff168373ffffffffffffffffffffffffffffffffffffffff167fbac40739b0d4ca32fa2d82fc91630465ba3eddd1598da6fca393b26fb63b9453846040516104ae9190610a6b565b60405180910390a36001905092915050565b6104c861060c565b5f73ffffffffffffffffffffffffffffffffffffffff168173ffffffffffffffffffffffffffffffffffffffff1603610538575f6040517f1e4fbdf700000000000000000000000000000000000000000000000000000000815260040161052f9190610a1c565b60405180910390fd5b61054181610693565b50565b60015f3373ffffffffffffffffffffffffffffffffffffffff1673ffffffffffffffffffffffffffffffffffffffff1681526020019081526020015f205f9054906101000a900460ff16806105cb575061059c61034c565b73ffffffffffffffffffffffffffffffffffffffff163373ffffffffffffffffffffffffffffffffffffffff16145b61060a576040517f08c379a000000000000000000000000000000000000000000000000000000000815260040161060190610ade565b60405180910390fd5b565b6106146107d6565b73ffffffffffffffffffffffffffffffffffffffff1661063261034c565b73ffffffffffffffffffffffffffffffffffffffff1614610691576106556107d6565b6040517f118cdaa70000000000000000000000000000000000000000000000000000000081526004016106889190610a1c565b60405180910390fd5b565b5f5f5f9054906101000a900473ffffffffffffffffffffffffffffffffffffffff169050815f5f6101000a81548173ffffffffffffffffffffffffffffffffffffffff021916908373ffffffffffffffffffffffffffffffffffffffff1602179055508173ffffffffffffffffffffffffffffffffffffffff168173ffffffffffffffffffffffffffffffffffffffff167f8be0079c531659141344cd1fd0a4f28419497f9722a3daafe3b4186f6b6457e060405160405180910390a35050565b6107d0848573ffffffffffffffffffffffffffffffffffffffff166323b872dd86868660405160240161078993929190610afc565b604051602081830303815290604052915060e01b6020820180517bffffffffffffffffffffffffffffffffffffffffffffffffffffffff83818316178352505050506107dd565b50505050565b5f33905090565b5f5f60205f8451602086015f885af1806107fc576040513d5f823e3d81fd5b3d92505f519150505f8214610815576001811415610830565b5f8473ffffffffffffffffffffffffffffffffffffffff163b145b1561087257836040517f5274afe70000000000000000000000000000000000000000000000000000000081526004016108699190610a1c565b60405180910390fd5b50505050565b5f5ffd5b5f73ffffffffffffffffffffffffffffffffffffffff82169050919050565b5f6108a58261087c565b9050919050565b6108b58161089b565b81146108bf575f5ffd5b50565b5f813590506108d0816108ac565b92915050565b5f602082840312156108eb576108ea610878565b5b5f6108f8848285016108c2565b91505092915050565b5f8115159050919050565b61091581610901565b82525050565b5f60208201905061092e5f83018461090c565b92915050565b5f819050919050565b61094681610934565b8114610950575f5ffd5b50565b5f813590506109618161093d565b92915050565b5f5f6040838503121561097d5761097c610878565b5b5f61098a858286016108c2565b925050602061099b85828601610953565b9150509250929050565b6109ae81610901565b81146109b8575f5ffd5b50565b5f813590506109c9816109a5565b92915050565b5f5f604083850312156109e5576109e4610878565b5b5f6109f2858286016108c2565b9250506020610a03858286016109bb565b9150509250929050565b610a168161089b565b82525050565b5f602082019050610a2f5f830184610a0d565b92915050565b610a3e81610934565b82525050565b5f604082019050610a575f830185610a0d565b610a646020830184610a35565b9392505050565b5f602082019050610a7e5f830184610a35565b92915050565b5f82825260208201905092915050565b7f4e6f7420617574686f72697a65640000000000000000000000000000000000005f82015250565b5f610ac8600e83610a84565b9150610ad382610a94565b602082019050919050565b5f6020820190508181035f830152610af581610abc565b9050919050565b5f606082019050610b0f5f830186610a0d565b610b1c6020830185610a0d565b610b296040830184610a35565b94935050505056fea264697066735822122022dc027029d74065e4bdfd0e7c68ca2fcae124ae8809c6cb3bfe36580d18b3f764736f6c634300081e0033","linkReferences":{}},"methodIdentifiers":{"TOKEN()":"82bfefc8","burn(address,uint256)":"9dc29fac","mint(address,uint256)":"40c10f19","operators(address)":"13e7c9d8","owner()":"8da5cb5b","renounceOwnership()":"715018a6","setOperator(address,bool)":"558a7297","transferOwnership(address)":"f2fde38b"},"id":263}